{
  "address": "0x51dBE44B1b43316b46A959bf01835Caa738D188A",
  "abi": [
    {
      "inputs": [
        {
          "internalType": "address",
          "name": "_launchpegFactory",
          "type": "address"
        }
      ],
      "stateMutability": "nonpayable",
      "type": "constructor"
    },
    {
      "inputs": [],
      "name": "LaunchpegLens__InvalidContract",
      "type": "error"
    },
    {
      "inputs": [],
      "name": "flatLaunchpegInterface",
      "outputs": [
        {
          "internalType": "bytes4",
          "name": "",
          "type": "bytes4"
        }
      ],
      "stateMutability": "view",
      "type": "function"
    },
    {
      "inputs": [
        {
          "internalType": "uint8",
          "name": "_type",
          "type": "uint8"
        },
        {
          "internalType": "uint256",
          "name": "_number",
          "type": "uint256"
        },
        {
          "internalType": "uint256",
          "name": "_limit",
          "type": "uint256"
        },
        {
          "internalType": "address",
          "name": "_user",
          "type": "address"
        }
      ],
      "name": "getAllLaunchpegsFromType",
      "outputs": [
        {
          "components": [
            {
              "internalType": "address",
              "name": "id",
              "type": "address"
            },
            {
              "internalType": "enum LaunchpegLens.LaunchpegType",
              "name": "launchType",
              "type": "uint8"
            },
            {
              "components": [
                {
                  "internalType": "string",
                  "name": "name",
                  "type": "string"
                },
                {
                  "internalType": "string",
                  "name": "symbol",
                  "type": "string"
                },
                {
                  "internalType": "uint256",
                  "name": "collectionSize",
                  "type": "uint256"
                },
                {
                  "internalType": "uint256",
                  "name": "maxBatchSize",
                  "type": "uint256"
                },
                {
                  "internalType": "uint256",
                  "name": "totalSupply",
                  "type": "uint256"
                },
                {
                  "internalType": "string",
                  "name": "unrevealedURI",
                  "type": "string"
                },
                {
                  "internalType": "string",
                  "name": "baseURI",
                  "type": "string"
                }
              ],
              "internalType": "struct LaunchpegLens.CollectionData",
              "name": "collectionData",
              "type": "tuple"
            },
            {
              "components": [
                {
                  "internalType": "uint256",
                  "name": "amountForAuction",
                  "type": "uint256"
                },
                {
                  "internalType": "uint256",
                  "name": "amountForAllowlist",
                  "type": "uint256"
                },
                {
                  "internalType": "uint256",
                  "name": "amountForDevs",
                  "type": "uint256"
                },
                {
                  "internalType": "uint256",
                  "name": "auctionSaleStartTime",
                  "type": "uint256"
                },
                {
                  "internalType": "uint256",
                  "name": "allowlistStartTime",
                  "type": "uint256"
                },
                {
                  "internalType": "uint256",
                  "name": "publicSaleStartTime",
                  "type": "uint256"
                },
                {
                  "internalType": "uint256",
                  "name": "auctionStartPrice",
                  "type": "uint256"
                },
                {
                  "internalType": "uint256",
                  "name": "auctionEndPrice",
                  "type": "uint256"
                },
                {
                  "internalType": "uint256",
                  "name": "auctionSaleDuration",
                  "type": "uint256"
                },
                {
                  "internalType": "uint256",
                  "name": "auctionDropInterval",
                  "type": "uint256"
                },
                {
                  "internalType": "uint256",
                  "name": "auctionDropPerStep",
                  "type": "uint256"
                },
                {
                  "internalType": "uint256",
                  "name": "allowlistDiscountPercent",
                  "type": "uint256"
                },
                {
                  "internalType": "uint256",
                  "name": "publicSaleDiscountPercent",
                  "type": "uint256"
                },
                {
                  "internalType": "enum IBaseLaunchpeg.Phase",
                  "name": "currentPhase",
                  "type": "uint8"
                },
                {
                  "internalType": "uint256",
                  "name": "auctionPrice",
                  "type": "uint256"
                },
                {
                  "internalType": "uint256",
                  "name": "allowlistPrice",
                  "type": "uint256"
                },
                {
                  "internalType": "uint256",
                  "name": "publicSalePrice",
                  "type": "uint256"
                },
                {
                  "internalType": "uint256",
                  "name": "amountMintedDuringAuction",
                  "type": "uint256"
                },
                {
                  "internalType": "uint256",
                  "name": "lastAuctionPrice",
                  "type": "uint256"
                },
                {
                  "internalType": "uint256",
                  "name": "amountMintedDuringAllowlist",
                  "type": "uint256"
                },
                {
                  "internalType": "uint256",
                  "name": "amountMintedDuringPublicSale",
                  "type": "uint256"
                }
              ],
              "internalType": "struct LaunchpegLens.LaunchpegData",
              "name": "launchpegData",
              "type": "tuple"
            },
            {
              "components": [
                {
                  "internalType": "enum IBaseLaunchpeg.Phase",
                  "name": "currentPhase",
                  "type": "uint8"
                },
                {
                  "internalType": "uint256",
                  "name": "amountForAllowlist",
                  "type": "uint256"
                },
                {
                  "internalType": "uint256",
                  "name": "amountForDevs",
                  "type": "uint256"
                },
                {
                  "internalType": "uint256",
                  "name": "allowlistStartTime",
                  "type": "uint256"
                },
                {
                  "internalType": "uint256",
                  "name": "publicSaleStartTime",
                  "type": "uint256"
                },
                {
                  "internalType": "uint256",
                  "name": "allowlistPrice",
                  "type": "uint256"
                },
                {
                  "internalType": "uint256",
                  "name": "salePrice",
                  "type": "uint256"
                },
                {
                  "internalType": "uint256",
                  "name": "amountMintedDuringAllowlist",
                  "type": "uint256"
                },
                {
                  "internalType": "uint256",
                  "name": "amountMintedDuringPublicSale",
                  "type": "uint256"
                }
              ],
              "internalType": "struct LaunchpegLens.FlatLaunchpegData",
              "name": "flatLaunchpegData",
              "type": "tuple"
            },
            {
              "components": [
                {
                  "internalType": "uint256",
                  "name": "revealBatchSize",
                  "type": "uint256"
                },
                {
                  "internalType": "uint256",
                  "name": "lastTokenRevealed",
                  "type": "uint256"
                },
                {
                  "internalType": "uint256",
                  "name": "revealStartTime",
                  "type": "uint256"
                },
                {
                  "internalType": "uint256",
                  "name": "revealInterval",
                  "type": "uint256"
                }
              ],
              "internalType": "struct LaunchpegLens.RevealData",
              "name": "revealData",
              "type": "tuple"
            },
            {
              "components": [
                {
                  "internalType": "uint256",
                  "name": "balanceOf",
                  "type": "uint256"
                },
                {
                  "internalType": "uint256",
                  "name": "numberMinted",
                  "type": "uint256"
                },
                {
                  "internalType": "uint256",
                  "name": "allowanceForAllowlistMint",
                  "type": "uint256"
                }
              ],
              "internalType": "struct LaunchpegLens.UserData",
              "name": "userData",
              "type": "tuple"
            }
          ],
          "internalType": "struct LaunchpegLens.LensData[]",
          "name": "",
          "type": "tuple[]"
        }
      ],
      "stateMutability": "view",
      "type": "function"
    },
    {
      "inputs": [
        {
          "internalType": "address",
          "name": "_launchpeg",
          "type": "address"
        },
        {
          "internalType": "address",
          "name": "_user",
          "type": "address"
        }
      ],
      "name": "getLaunchpegData",
      "outputs": [
        {
          "components": [
            {
              "internalType": "address",
              "name": "id",
              "type": "address"
            },
            {
              "internalType": "enum LaunchpegLens.LaunchpegType",
              "name": "launchType",
              "type": "uint8"
            },
            {
              "components": [
                {
                  "internalType": "string",
                  "name": "name",
                  "type": "string"
                },
                {
                  "internalType": "string",
                  "name": "symbol",
                  "type": "string"
                },
                {
                  "internalType": "uint256",
                  "name": "collectionSize",
                  "type": "uint256"
                },
                {
                  "internalType": "uint256",
                  "name": "maxBatchSize",
                  "type": "uint256"
                },
                {
                  "internalType": "uint256",
                  "name": "totalSupply",
                  "type": "uint256"
                },
                {
                  "internalType": "string",
                  "name": "unrevealedURI",
                  "type": "string"
                },
                {
                  "internalType": "string",
                  "name": "baseURI",
                  "type": "string"
                }
              ],
              "internalType": "struct LaunchpegLens.CollectionData",
              "name": "collectionData",
              "type": "tuple"
            },
            {
              "components": [
                {
                  "internalType": "uint256",
                  "name": "amountForAuction",
                  "type": "uint256"
                },
                {
                  "internalType": "uint256",
                  "name": "amountForAllowlist",
                  "type": "uint256"
                },
                {
                  "internalType": "uint256",
                  "name": "amountForDevs",
                  "type": "uint256"
                },
                {
                  "internalType": "uint256",
                  "name": "auctionSaleStartTime",
                  "type": "uint256"
                },
                {
                  "internalType": "uint256",
                  "name": "allowlistStartTime",
                  "type": "uint256"
                },
                {
                  "internalType": "uint256",
                  "name": "publicSaleStartTime",
                  "type": "uint256"
                },
                {
                  "internalType": "uint256",
                  "name": "auctionStartPrice",
                  "type": "uint256"
                },
                {
                  "internalType": "uint256",
                  "name": "auctionEndPrice",
                  "type": "uint256"
                },
                {
                  "internalType": "uint256",
                  "name": "auctionSaleDuration",
                  "type": "uint256"
                },
                {
                  "internalType": "uint256",
                  "name": "auctionDropInterval",
                  "type": "uint256"
                },
                {
                  "internalType": "uint256",
                  "name": "auctionDropPerStep",
                  "type": "uint256"
                },
                {
                  "internalType": "uint256",
                  "name": "allowlistDiscountPercent",
                  "type": "uint256"
                },
                {
                  "internalType": "uint256",
                  "name": "publicSaleDiscountPercent",
                  "type": "uint256"
                },
                {
                  "internalType": "enum IBaseLaunchpeg.Phase",
                  "name": "currentPhase",
                  "type": "uint8"
                },
                {
                  "internalType": "uint256",
                  "name": "auctionPrice",
                  "type": "uint256"
                },
                {
                  "internalType": "uint256",
                  "name": "allowlistPrice",
                  "type": "uint256"
                },
                {
                  "internalType": "uint256",
                  "name": "publicSalePrice",
                  "type": "uint256"
                },
                {
                  "internalType": "uint256",
                  "name": "amountMintedDuringAuction",
                  "type": "uint256"
                },
                {
                  "internalType": "uint256",
                  "name": "lastAuctionPrice",
                  "type": "uint256"
                },
                {
                  "internalType": "uint256",
                  "name": "amountMintedDuringAllowlist",
                  "type": "uint256"
                },
                {
                  "internalType": "uint256",
                  "name": "amountMintedDuringPublicSale",
                  "type": "uint256"
                }
              ],
              "internalType": "struct LaunchpegLens.LaunchpegData",
              "name": "launchpegData",
              "type": "tuple"
            },
            {
              "components": [
                {
                  "internalType": "enum IBaseLaunchpeg.Phase",
                  "name": "currentPhase",
                  "type": "uint8"
                },
                {
                  "internalType": "uint256",
                  "name": "amountForAllowlist",
                  "type": "uint256"
                },
                {
                  "internalType": "uint256",
                  "name": "amountForDevs",
                  "type": "uint256"
                },
                {
                  "internalType": "uint256",
                  "name": "allowlistStartTime",
                  "type": "uint256"
                },
                {
                  "internalType": "uint256",
                  "name": "publicSaleStartTime",
                  "type": "uint256"
                },
                {
                  "internalType": "uint256",
                  "name": "allowlistPrice",
                  "type": "uint256"
                },
                {
                  "internalType": "uint256",
                  "name": "salePrice",
                  "type": "uint256"
                },
                {
                  "internalType": "uint256",
                  "name": "amountMintedDuringAllowlist",
                  "type": "uint256"
                },
                {
                  "internalType": "uint256",
                  "name": "amountMintedDuringPublicSale",
                  "type": "uint256"
                }
              ],
              "internalType": "struct LaunchpegLens.FlatLaunchpegData",
              "name": "flatLaunchpegData",
              "type": "tuple"
            },
            {
              "components": [
                {
                  "internalType": "uint256",
                  "name": "revealBatchSize",
                  "type": "uint256"
                },
                {
                  "internalType": "uint256",
                  "name": "lastTokenRevealed",
                  "type": "uint256"
                },
                {
                  "internalType": "uint256",
                  "name": "revealStartTime",
                  "type": "uint256"
                },
                {
                  "internalType": "uint256",
                  "name": "revealInterval",
                  "type": "uint256"
                }
              ],
              "internalType": "struct LaunchpegLens.RevealData",
              "name": "revealData",
              "type": "tuple"
            },
            {
              "components": [
                {
                  "internalType": "uint256",
                  "name": "balanceOf",
                  "type": "uint256"
                },
                {
                  "internalType": "uint256",
                  "name": "numberMinted",
                  "type": "uint256"
                },
                {
                  "internalType": "uint256",
                  "name": "allowanceForAllowlistMint",
                  "type": "uint256"
                }
              ],
              "internalType": "struct LaunchpegLens.UserData",
              "name": "userData",
              "type": "tuple"
            }
          ],
          "internalType": "struct LaunchpegLens.LensData",
          "name": "",
          "type": "tuple"
        }
      ],
      "stateMutability": "view",
      "type": "function"
    },
    {
      "inputs": [
        {
          "internalType": "address",
          "name": "_contract",
          "type": "address"
        }
      ],
      "name": "getLaunchpegType",
      "outputs": [
        {
          "internalType": "enum LaunchpegLens.LaunchpegType",
          "name": "",
          "type": "uint8"
        }
      ],
      "stateMutability": "view",
      "type": "function"
    },
    {
      "inputs": [],
      "name": "launchpegFactory",
      "outputs": [
        {
          "internalType": "address",
          "name": "",
          "type": "address"
        }
      ],
      "stateMutability": "view",
      "type": "function"
    },
    {
      "inputs": [],
      "name": "launchpegInterface",
      "outputs": [
        {
          "internalType": "bytes4",
          "name": "",
          "type": "bytes4"
        }
      ],
      "stateMutability": "view",
      "type": "function"
    }
  ],
  "transactionHash": "0x3b5d27990470f3f23d6e00ecbfd85db58d6c8ace7e6a321476c880310dde1c6f",
  "args": [
    "0x7BFd7192E76D950832c77BB412aaE841049D8D9B"
  ],
  "numDeployments": 2,
  "solcInputHash": "607b3ca655ce06ef5c8dd68e5fe5495c",
  "bytecode": "0x60e060405234801561001057600080fd5b50604051620024fb380380620024fb8339810160408190526100319161005c565b63084f06af60e31b608052635f2d056560e11b60a05260601b6001600160601b03191660c05261008c565b60006020828403121561006e57600080fd5b81516001600160a01b038116811461008557600080fd5b9392505050565b60805160e01c60e01b60a05160e01c60e01b60c05160601c612417620000e46000396000818160f80152818161019a01526102bd01526000818160b1015261047c015260008181606c01526103cb01526124176000f3fe608060405234801561001057600080fd5b50600436106100625760003560e01c80637c50ba7a146100675780637d4510a7146100ac57806391341892146100d357806395d2a844146100f3578063a6a7b3ea14610132578063d0b54b3b14610152575b600080fd5b61008e7f000000000000000000000000000000000000000000000000000000000000000081565b6040516001600160e01b031990911681526020015b60405180910390f35b61008e7f000000000000000000000000000000000000000000000000000000000000000081565b6100e66100e1366004611f52565b610172565b6040516100a39190612285565b61011a7f000000000000000000000000000000000000000000000000000000000000000081565b6040516001600160a01b0390911681526020016100a3565b610145610140366004611dd6565b6103b3565b6040516100a391906122e7565b610165610160366004611e10565b61051a565b6040516100a391906122f5565b604051631ddbc6c760e21b815260ff8516600482015260609081906000906001600160a01b037f0000000000000000000000000000000000000000000000000000000000000000169063776f1b1c9060240160206040518083038186803b1580156101dc57600080fd5b505afa1580156101f0573d6000803e3d6000fd5b505050506040513d601f19601f820116820180604052508101906102149190611f39565b905060008186116102255785610227565b815b905060008188116102415761023c888361230f565b610244565b60005b9050610250818361230f565b67ffffffffffffffff811115610268576102686123b3565b6040519080825280602002602001820160405280156102a157816020015b61028e611c0b565b8152602001906001900390816102865790505b50935060005b84518110156103a5576103756001600160a01b037f00000000000000000000000000000000000000000000000000000000000000001663306ec7488c846102ef60018961230f565b6102f9919061230f565b6040516001600160e01b031960e085901b16815260ff9092166004830152602482015260440160206040518083038186803b15801561033757600080fd5b505afa15801561034b573d6000803e3d6000fd5b505050506040513d601f19601f8201168201806040525081019061036f9190611df3565b8861051a565b8582815181106103875761038761239d565b6020026020010181905250808061039d90612356565b9150506102a7565b509298975050505050505050565b6040516301ffc9a760e01b81526001600160e01b03197f00000000000000000000000000000000000000000000000000000000000000001660048201526000906001600160a01b038316906301ffc9a79060240160206040518083038186803b15801561041f57600080fd5b505afa158015610433573d6000803e3d6000fd5b505050506040513d601f19601f820116820180604052508101906104579190611e49565b1561046457506001919050565b6040516301ffc9a760e01b81526001600160e01b03197f00000000000000000000000000000000000000000000000000000000000000001660048201526001600160a01b038316906301ffc9a79060240160206040518083038186803b1580156104cd57600080fd5b505afa1580156104e1573d6000803e3d6000fd5b505050506040513d601f19601f820116820180604052508101906105059190611e49565b1561051257506002919050565b506000919050565b610522611c0b565b61052a611c0b565b6001600160a01b038416815261053f846103b3565b8160200190600281111561055557610555612387565b9081600281111561056857610568612387565b90525060008160200151600281111561058357610583612387565b14156105a257604051630ca92ff360e31b815260040160405180910390fd5b836001600160a01b03166306fdde036040518163ffffffff1660e01b815260040160006040518083038186803b1580156105db57600080fd5b505afa1580156105ef573d6000803e3d6000fd5b505050506040513d6000823e601f3d908101601f191682016040526106179190810190611e8c565b816040015160000181905250836001600160a01b03166395d89b416040518163ffffffff1660e01b815260040160006040518083038186803b15801561065c57600080fd5b505afa158015610670573d6000803e3d6000fd5b505050506040513d6000823e601f3d908101601f191682016040526106989190810190611e8c565b816040015160200181905250836001600160a01b03166345c0f5336040518163ffffffff1660e01b815260040160206040518083038186803b1580156106dd57600080fd5b505afa1580156106f1573d6000803e3d6000fd5b505050506040513d601f19601f820116820180604052508101906107159190611f39565b81604001516040018181525050836001600160a01b0316632913daa06040518163ffffffff1660e01b815260040160206040518083038186803b15801561075b57600080fd5b505afa15801561076f573d6000803e3d6000fd5b505050506040513d601f19601f820116820180604052508101906107939190611f39565b81604001516060018181525050836001600160a01b03166318160ddd6040518163ffffffff1660e01b815260040160206040518083038186803b1580156107d957600080fd5b505afa1580156107ed573d6000803e3d6000fd5b505050506040513d601f19601f820116820180604052508101906108119190611f39565b81604001516080018181525050836001600160a01b0316637035bf186040518163ffffffff1660e01b815260040160006040518083038186803b15801561085757600080fd5b505afa15801561086b573d6000803e3d6000fd5b505050506040513d6000823e601f3d908101601f191682016040526108939190810190611e8c565b816040015160a00181905250836001600160a01b0316636c0360eb6040518163ffffffff1660e01b815260040160006040518083038186803b1580156108d857600080fd5b505afa1580156108ec573d6000803e3d6000fd5b505050506040513d6000823e601f3d908101601f191682016040526109149190810190611e8c565b816040015160c00181905250836001600160a01b0316630b5648106040518163ffffffff1660e01b815260040160206040518083038186803b15801561095957600080fd5b505afa15801561096d573d6000803e3d6000fd5b505050506040513d601f19601f820116820180604052508101906109919190611f39565b8160a001516000018181525050836001600160a01b031663f43191956040518163ffffffff1660e01b815260040160206040518083038186803b1580156109d757600080fd5b505afa1580156109eb573d6000803e3d6000fd5b505050506040513d601f19601f82011682018060405250810190610a0f9190611f39565b8160a001516020018181525050836001600160a01b031663cc0bef846040518163ffffffff1660e01b815260040160206040518083038186803b158015610a5557600080fd5b505afa158015610a69573d6000803e3d6000fd5b505050506040513d601f19601f82011682018060405250810190610a8d9190611f39565b8160a001516040018181525050836001600160a01b031663247cd8ad6040518163ffffffff1660e01b815260040160206040518083038186803b158015610ad357600080fd5b505afa158015610ae7573d6000803e3d6000fd5b505050506040513d601f19601f82011682018060405250810190610b0b9190611f39565b60a082015160600152600181602001516002811115610b2c57610b2c612387565b14156115c557836001600160a01b031663f7df4c5a6040518163ffffffff1660e01b815260040160206040518083038186803b158015610b6b57600080fd5b505afa158015610b7f573d6000803e3d6000fd5b505050506040513d601f19601f82011682018060405250810190610ba39190611f39565b81606001516000018181525050836001600160a01b031663d62b63036040518163ffffffff1660e01b815260040160206040518083038186803b158015610be957600080fd5b505afa158015610bfd573d6000803e3d6000fd5b505050506040513d601f19601f82011682018060405250810190610c219190611f39565b81606001516020018181525050836001600160a01b031663fbe1aa516040518163ffffffff1660e01b815260040160206040518083038186803b158015610c6757600080fd5b505afa158015610c7b573d6000803e3d6000fd5b505050506040513d601f19601f82011682018060405250810190610c9f9190611f39565b81606001516040018181525050836001600160a01b031663fab2bf586040518163ffffffff1660e01b815260040160206040518083038186803b158015610ce557600080fd5b505afa158015610cf9573d6000803e3d6000fd5b505050506040513d601f19601f82011682018060405250810190610d1d9190611f39565b81606001516060018181525050836001600160a01b03166359d7bc4d6040518163ffffffff1660e01b815260040160206040518083038186803b158015610d6357600080fd5b505afa158015610d77573d6000803e3d6000fd5b505050506040513d601f19601f82011682018060405250810190610d9b9190611f39565b81606001516080018181525050836001600160a01b0316636bb7b1d96040518163ffffffff1660e01b815260040160206040518083038186803b158015610de157600080fd5b505afa158015610df5573d6000803e3d6000fd5b505050506040513d601f19601f82011682018060405250810190610e199190611f39565b816060015160a0018181525050836001600160a01b031663d756985b6040518163ffffffff1660e01b815260040160206040518083038186803b158015610e5f57600080fd5b505afa158015610e73573d6000803e3d6000fd5b505050506040513d601f19601f82011682018060405250810190610e979190611f39565b816060015160c0018181525050836001600160a01b031663a04a6ac86040518163ffffffff1660e01b815260040160206040518083038186803b158015610edd57600080fd5b505afa158015610ef1573d6000803e3d6000fd5b505050506040513d601f19601f82011682018060405250810190610f159190611f39565b816060015160e0018181525050836001600160a01b0316630a212ee26040518163ffffffff1660e01b815260040160206040518083038186803b158015610f5b57600080fd5b505afa158015610f6f573d6000803e3d6000fd5b505050506040513d601f19601f82011682018060405250810190610f939190611f39565b8160600151610100018181525050836001600160a01b031663f243669b6040518163ffffffff1660e01b815260040160206040518083038186803b158015610fda57600080fd5b505afa158015610fee573d6000803e3d6000fd5b505050506040513d601f19601f820116820180604052508101906110129190611f39565b8160600151610120018181525050836001600160a01b031663e6fe34b36040518163ffffffff1660e01b815260040160206040518083038186803b15801561105957600080fd5b505afa15801561106d573d6000803e3d6000fd5b505050506040513d601f19601f820116820180604052508101906110919190611f39565b8160600151610140018181525050836001600160a01b031663154895106040518163ffffffff1660e01b815260040160206040518083038186803b1580156110d857600080fd5b505afa1580156110ec573d6000803e3d6000fd5b505050506040513d601f19601f820116820180604052508101906111109190611f39565b8160600151610160018181525050836001600160a01b03166308a3fb4e6040518163ffffffff1660e01b815260040160206040518083038186803b15801561115757600080fd5b505afa15801561116b573d6000803e3d6000fd5b505050506040513d601f19601f8201168201806040525081019061118f9190611f39565b8160600151610180018181525050836001600160a01b031663055ad42e6040518163ffffffff1660e01b815260040160206040518083038186803b1580156111d657600080fd5b505afa1580156111ea573d6000803e3d6000fd5b505050506040513d601f19601f8201168201806040525081019061120e9190611e6b565b81606001516101a00190600381111561122957611229612387565b9081600381111561123c5761123c612387565b90525060608181015101516040516348be804f60e11b815260048101919091526001600160a01b0385169063917d009e9060240160206040518083038186803b15801561128857600080fd5b505afa15801561129c573d6000803e3d6000fd5b505050506040513d601f19601f820116820180604052508101906112c09190611f39565b81606001516101c0018181525050836001600160a01b0316630b1019e76040518163ffffffff1660e01b815260040160206040518083038186803b15801561130757600080fd5b505afa15801561131b573d6000803e3d6000fd5b505050506040513d601f19601f8201168201806040525081019061133f9190611f39565b81606001516101e0018181525050836001600160a01b0316638e8bdd0d6040518163ffffffff1660e01b815260040160206040518083038186803b15801561138657600080fd5b505afa15801561139a573d6000803e3d6000fd5b505050506040513d601f19601f820116820180604052508101906113be9190611f39565b8160600151610200018181525050836001600160a01b031663a54cd7dc6040518163ffffffff1660e01b815260040160206040518083038186803b15801561140557600080fd5b505afa158015611419573d6000803e3d6000fd5b505050506040513d601f19601f8201168201806040525081019061143d9190611f39565b8160600151610220018181525050836001600160a01b0316637a18c1fe6040518163ffffffff1660e01b815260040160206040518083038186803b15801561148457600080fd5b505afa158015611498573d6000803e3d6000fd5b505050506040513d601f19601f820116820180604052508101906114bc9190611f39565b8160600151610240018181525050836001600160a01b0316633cc4cadb6040518163ffffffff1660e01b815260040160206040518083038186803b15801561150357600080fd5b505afa158015611517573d6000803e3d6000fd5b505050506040513d601f19601f8201168201806040525081019061153b9190611f39565b8160600151610260018181525050836001600160a01b031663963331d86040518163ffffffff1660e01b815260040160206040518083038186803b15801561158257600080fd5b505afa158015611596573d6000803e3d6000fd5b505050506040513d601f19601f820116820180604052508101906115ba9190611f39565b606082015161028001525b6002816020015160028111156115dd576115dd612387565b1415611a6f57836001600160a01b031663055ad42e6040518163ffffffff1660e01b815260040160206040518083038186803b15801561161c57600080fd5b505afa158015611630573d6000803e3d6000fd5b505050506040513d601f19601f820116820180604052508101906116549190611e6b565b608082015190600381111561166b5761166b612387565b9081600381111561167e5761167e612387565b81525050836001600160a01b03166390967a526040518163ffffffff1660e01b815260040160206040518083038186803b1580156116bb57600080fd5b505afa1580156116cf573d6000803e3d6000fd5b505050506040513d601f19601f820116820180604052508101906116f39190611f39565b816080015160a0018181525050836001600160a01b031663f51f96dd6040518163ffffffff1660e01b815260040160206040518083038186803b15801561173957600080fd5b505afa15801561174d573d6000803e3d6000fd5b505050506040513d601f19601f820116820180604052508101906117719190611f39565b816080015160c0018181525050836001600160a01b0316633cc4cadb6040518163ffffffff1660e01b815260040160206040518083038186803b1580156117b757600080fd5b505afa1580156117cb573d6000803e3d6000fd5b505050506040513d601f19601f820116820180604052508101906117ef9190611f39565b816080015160e0018181525050836001600160a01b031663963331d86040518163ffffffff1660e01b815260040160206040518083038186803b15801561183557600080fd5b505afa158015611849573d6000803e3d6000fd5b505050506040513d601f19601f8201168201806040525081019061186d9190611f39565b8160800151610100018181525050836001600160a01b031663d62b63036040518163ffffffff1660e01b815260040160206040518083038186803b1580156118b457600080fd5b505afa1580156118c8573d6000803e3d6000fd5b505050506040513d601f19601f820116820180604052508101906118ec9190611f39565b81608001516020018181525050836001600160a01b031663fbe1aa516040518163ffffffff1660e01b815260040160206040518083038186803b15801561193257600080fd5b505afa158015611946573d6000803e3d6000fd5b505050506040513d601f19601f8201168201806040525081019061196a9190611f39565b81608001516040018181525050836001600160a01b03166359d7bc4d6040518163ffffffff1660e01b815260040160206040518083038186803b1580156119b057600080fd5b505afa1580156119c4573d6000803e3d6000fd5b505050506040513d601f19601f820116820180604052508101906119e89190611f39565b81608001516060018181525050836001600160a01b0316636bb7b1d96040518163ffffffff1660e01b815260040160206040518083038186803b158015611a2e57600080fd5b505afa158015611a42573d6000803e3d6000fd5b505050506040513d601f19601f82011682018060405250810190611a669190611f39565b60808083015101525b6001600160a01b03831615611c02576040516370a0823160e01b81526001600160a01b0384811660048301528516906370a082319060240160206040518083038186803b158015611abf57600080fd5b505afa158015611ad3573d6000803e3d6000fd5b505050506040513d601f19601f82011682018060405250810190611af79190611f39565b60c08201515260405163dc33e68160e01b81526001600160a01b03848116600483015285169063dc33e6819060240160206040518083038186803b158015611b3e57600080fd5b505afa158015611b52573d6000803e3d6000fd5b505050506040513d601f19601f82011682018060405250810190611b769190611f39565b60c08201516020015260405163a7cd52cb60e01b81526001600160a01b03848116600483015285169063a7cd52cb9060240160206040518083038186803b158015611bc057600080fd5b505afa158015611bd4573d6000803e3d6000fd5b505050506040513d601f19601f82011682018060405250810190611bf89190611f39565b60c0820151604001525b90505b92915050565b6040805160e08101909152600080825260208201908152602001611c656040518060e00160405280606081526020016060815260200160008152602001600081526020016000815260200160608152602001606081525090565b8152602001611c72611d25565b8152602001611cc7604080516101208101909152806000815260200160008152602001600081526020016000815260200160008152602001600081526020016000815260200160008152602001600081525090565b8152602001611cf76040518060800160405280600081526020016000815260200160008152602001600081525090565b8152602001611d2060405180606001604052806000815260200160008152602001600081525090565b905290565b604051806102a001604052806000815260200160008152602001600081526020016000815260200160008152602001600081526020016000815260200160008152602001600081526020016000815260200160008152602001600081526020016000815260200160006003811115611d9f57611d9f612387565b8152602001600081526020016000815260200160008152602001600081526020016000815260200160008152602001600081525090565b600060208284031215611de857600080fd5b8135611c02816123c9565b600060208284031215611e0557600080fd5b8151611c02816123c9565b60008060408385031215611e2357600080fd5b8235611e2e816123c9565b91506020830135611e3e816123c9565b809150509250929050565b600060208284031215611e5b57600080fd5b81518015158114611c0257600080fd5b600060208284031215611e7d57600080fd5b815160048110611c0257600080fd5b600060208284031215611e9e57600080fd5b815167ffffffffffffffff80821115611eb657600080fd5b818401915084601f830112611eca57600080fd5b815181811115611edc57611edc6123b3565b604051601f8201601f19908116603f01168101908382118183101715611f0457611f046123b3565b81604052828152876020848701011115611f1d57600080fd5b611f2e836020830160208801612326565b979650505050505050565b600060208284031215611f4b57600080fd5b5051919050565b60008060008060808587031215611f6857600080fd5b843560ff81168114611f7957600080fd5b935060208501359250604085013591506060850135611f97816123c9565b939692955090935050565b60038110611fb257611fb2612387565b9052565b60048110611fb257611fb2612387565b60008151808452611fde816020860160208601612326565b601f01601f19169290920160200192915050565b611ffd828251611fb6565b6020810151602083015260408101516040830152606081015160608301526080810151608083015260a081015160a083015260c081015160c083015260e081015160e08301526101008082015181840152505050565b805182526020810151602083015260408101516040830152606081015160608301526080810151608083015260a081015160a083015260c081015160c083015260e081015160e08301526101008082015181840152506101208082015181840152506101408082015181840152506101608082015181840152506101808082015181840152506101a0808201516120ec82850182611fb6565b50506101c081810151908301526101e08082015190830152610200808201519083015261022080820151908301526102408082015190830152610260808201519083015261028090810151910152565b600061050060018060a01b038351168452602083015161215f6020860182611fa2565b506040830151816040860152805160e0838701526121816105e0870182611fc6565b92505060208101516104ff1980878503016105208801526121a28483611fc6565b935060408301516105408801526060830151610560880152608083015161058088015260a0830151915080878503016105a08801526121e18483611fc6565b935060c0830151925080878503016105c088015250506122018282611fc6565b91505060608301516122166060860182612053565b50608083015161222a610300860182611ff2565b5060a083015180516104208601526020810151610440860152604081015161046086015260608101516104808601525060c083015180516104a086015260208101516104c086015260408101516104e0860152509392505050565b6000602080830181845280855180835260408601915060408160051b870101925083870160005b828110156122da57603f198886030184526122c885835161213c565b945092850192908501906001016122ac565b5092979650505050505050565b60208101611c058284611fa2565b602081526000612308602083018461213c565b9392505050565b60008282101561232157612321612371565b500390565b60005b83811015612341578181015183820152602001612329565b83811115612350576000848401525b50505050565b600060001982141561236a5761236a612371565b5060010190565b634e487b7160e01b600052601160045260246000fd5b634e487b7160e01b600052602160045260246000fd5b634e487b7160e01b600052603260045260246000fd5b634e487b7160e01b600052604160045260246000fd5b6001600160a01b03811681146123de57600080fd5b5056fea264697066735822122050099fc18c40ed4c47367584a8e8057b34f33ad906a2105cc8156a9ca667113a64736f6c63430008060033",
  "devdoc": {
    "author": "Trader Joe",
    "kind": "dev",
    "methods": {
      "constructor": {
        "details": "LaunchpegLens constructor",
        "params": {
          "_launchpegFactory": "Address of the LaunchpegFactory"
        }
      },
      "getAllLaunchpegsFromType(uint8,uint256,uint256,address)": {
        "params": {
          "_limit": "Last Launchpeg index to fetch",
          "_number": "Number of Launchpeg to fetch",
          "_type": "Type of Launchpeg to consider",
          "_user": "Address to consider for NFT balances and allowlist allocations"
        },
        "returns": {
          "_0": "LensDataList List of contracts datas, in descending order"
        }
      },
      "getLaunchpegData(address,address)": {
        "params": {
          "_launchpeg": "Contract address to consider",
          "_user": "Address to consider for NFT balances and allowlist allocations"
        },
        "returns": {
          "_0": "LensData Contract data"
        }
      },
      "getLaunchpegType(address)": {
        "params": {
          "_contract": "Contract address to consider"
        },
        "returns": {
          "_0": "LaunchpegType Type of Launchpeg implementation (Dutch Auction / Flat / Unknown)"
        }
      }
    },
    "title": "Launchpeg Lens",
    "version": 1
  },
  "userdoc": {
    "kind": "user",
    "methods": {
      "flatLaunchpegInterface()": {
        "notice": "IFlatLaunchpegInterface identifier"
      },
      "getAllLaunchpegsFromType(uint8,uint256,uint256,address)": {
        "notice": "Fetch Launchpeg data"
      },
      "getLaunchpegData(address,address)": {
        "notice": "Fetch Launchpeg data from the provided address"
      },
      "getLaunchpegType(address)": {
        "notice": "Gets the type of Launchpeg"
      },
      "launchpegFactory()": {
        "notice": "LaunchpegFactory address"
      },
      "launchpegInterface()": {
        "notice": "ILaunchpegInterface identifier"
      }
    },
    "notice": "Helper contract to fetch launchpegs data",
    "version": 1
  },
  "storageLayout": {
    "storage": [],
    "types": null
  }
}