{
  "address": "0xE6e10698D3B56c940D7eDe8E13c4b36d119c0284",
  "abi": [
    {
      "inputs": [],
      "name": "Launchpeg__BatchRevealNotInitialized",
      "type": "error"
    },
    {
      "inputs": [],
      "name": "Launchpeg__BatchRevealStarted",
      "type": "error"
    },
    {
      "inputs": [],
      "name": "Launchpeg__HasBeenForceRevealed",
      "type": "error"
    },
    {
      "inputs": [],
      "name": "Launchpeg__InvalidBatchRevealSize",
      "type": "error"
    },
    {
      "inputs": [],
      "name": "Launchpeg__InvalidCallbackGasLimit",
      "type": "error"
    },
    {
      "inputs": [],
      "name": "Launchpeg__InvalidCoordinator",
      "type": "error"
    },
    {
      "inputs": [],
      "name": "Launchpeg__InvalidKeyHash",
      "type": "error"
    },
    {
      "inputs": [],
      "name": "Launchpeg__InvalidRevealDates",
      "type": "error"
    },
    {
      "inputs": [],
      "name": "Launchpeg__IsNotInTheConsumerList",
      "type": "error"
    },
    {
      "inputs": [],
      "name": "Launchpeg__Unauthorized",
      "type": "error"
    },
    {
      "inputs": [
        {
          "internalType": "address",
          "name": "have",
          "type": "address"
        },
        {
          "internalType": "address",
          "name": "want",
          "type": "address"
        }
      ],
      "name": "OnlyCoordinatorCanFulfill",
      "type": "error"
    },
    {
      "anonymous": false,
      "inputs": [
        {
          "indexed": true,
          "internalType": "address",
          "name": "previousOwner",
          "type": "address"
        },
        {
          "indexed": true,
          "internalType": "address",
          "name": "newOwner",
          "type": "address"
        }
      ],
      "name": "OwnershipTransferred",
      "type": "event"
    },
    {
      "anonymous": false,
      "inputs": [
        {
          "indexed": false,
          "internalType": "address",
          "name": "baseLaunchpeg",
          "type": "address"
        },
        {
          "indexed": false,
          "internalType": "uint256",
          "name": "batchNumber",
          "type": "uint256"
        },
        {
          "indexed": false,
          "internalType": "uint256",
          "name": "batchSeed",
          "type": "uint256"
        }
      ],
      "name": "Reveal",
      "type": "event"
    },
    {
      "anonymous": false,
      "inputs": [
        {
          "indexed": false,
          "internalType": "address",
          "name": "baseLaunchpeg",
          "type": "address"
        },
        {
          "indexed": false,
          "internalType": "uint256",
          "name": "revealBatchSize",
          "type": "uint256"
        }
      ],
      "name": "RevealBatchSizeSet",
      "type": "event"
    },
    {
      "anonymous": false,
      "inputs": [
        {
          "indexed": false,
          "internalType": "address",
          "name": "baseLaunchpeg",
          "type": "address"
        },
        {
          "indexed": false,
          "internalType": "uint256",
          "name": "revealInterval",
          "type": "uint256"
        }
      ],
      "name": "RevealIntervalSet",
      "type": "event"
    },
    {
      "anonymous": false,
      "inputs": [
        {
          "indexed": false,
          "internalType": "address",
          "name": "baseLaunchpeg",
          "type": "address"
        },
        {
          "indexed": false,
          "internalType": "uint256",
          "name": "revealStartTime",
          "type": "uint256"
        }
      ],
      "name": "RevealStartTimeSet",
      "type": "event"
    },
    {
      "anonymous": false,
      "inputs": [
        {
          "indexed": false,
          "internalType": "address",
          "name": "_vrfCoordinator",
          "type": "address"
        },
        {
          "indexed": false,
          "internalType": "bytes32",
          "name": "_keyHash",
          "type": "bytes32"
        },
        {
          "indexed": false,
          "internalType": "uint64",
          "name": "_subscriptionId",
          "type": "uint64"
        },
        {
          "indexed": false,
          "internalType": "uint32",
          "name": "_callbackGasLimit",
          "type": "uint32"
        }
      ],
      "name": "VRFSet",
      "type": "event"
    },
    {
      "inputs": [],
      "name": "callbackGasLimit",
      "outputs": [
        {
          "internalType": "uint32",
          "name": "",
          "type": "uint32"
        }
      ],
      "stateMutability": "view",
      "type": "function"
    },
    {
      "inputs": [
        {
          "internalType": "address",
          "name": "_baseLaunchpeg",
          "type": "address"
        },
        {
          "internalType": "uint256",
          "name": "_revealBatchSize",
          "type": "uint256"
        },
        {
          "internalType": "uint256",
          "name": "_revealStartTime",
          "type": "uint256"
        },
        {
          "internalType": "uint256",
          "name": "_revealInterval",
          "type": "uint256"
        }
      ],
      "name": "configure",
      "outputs": [],
      "stateMutability": "nonpayable",
      "type": "function"
    },
    {
      "inputs": [
        {
          "internalType": "address",
          "name": "_baseLaunchpeg",
          "type": "address"
        }
      ],
      "name": "forceReveal",
      "outputs": [],
      "stateMutability": "nonpayable",
      "type": "function"
    },
    {
      "inputs": [
        {
          "internalType": "address",
          "name": "_baseLaunchpeg",
          "type": "address"
        },
        {
          "internalType": "uint256",
          "name": "_startId",
          "type": "uint256"
        }
      ],
      "name": "getShuffledTokenId",
      "outputs": [
        {
          "internalType": "uint256",
          "name": "",
          "type": "uint256"
        }
      ],
      "stateMutability": "view",
      "type": "function"
    },
    {
      "inputs": [
        {
          "internalType": "address",
          "name": "_baseLaunchpeg",
          "type": "address"
        },
        {
          "internalType": "uint256",
          "name": "_totalSupply",
          "type": "uint256"
        }
      ],
      "name": "hasBatchToReveal",
      "outputs": [
        {
          "internalType": "bool",
          "name": "",
          "type": "bool"
        },
        {
          "internalType": "uint256",
          "name": "",
          "type": "uint256"
        }
      ],
      "stateMutability": "view",
      "type": "function"
    },
    {
      "inputs": [],
      "name": "initialize",
      "outputs": [],
      "stateMutability": "nonpayable",
      "type": "function"
    },
    {
      "inputs": [
        {
          "internalType": "address",
          "name": "_baseLaunchpeg",
          "type": "address"
        }
      ],
      "name": "isBatchRevealInitialized",
      "outputs": [
        {
          "internalType": "bool",
          "name": "",
          "type": "bool"
        }
      ],
      "stateMutability": "view",
      "type": "function"
    },
    {
      "inputs": [],
      "name": "keyHash",
      "outputs": [
        {
          "internalType": "bytes32",
          "name": "",
          "type": "bytes32"
        }
      ],
      "stateMutability": "view",
      "type": "function"
    },
    {
      "inputs": [
        {
          "internalType": "address",
          "name": "",
          "type": "address"
        },
        {
          "internalType": "uint256",
          "name": "",
          "type": "uint256"
        }
      ],
      "name": "launchpegToBatchToSeed",
      "outputs": [
        {
          "internalType": "uint256",
          "name": "",
          "type": "uint256"
        }
      ],
      "stateMutability": "view",
      "type": "function"
    },
    {
      "inputs": [
        {
          "internalType": "address",
          "name": "",
          "type": "address"
        }
      ],
      "name": "launchpegToConfig",
      "outputs": [
        {
          "internalType": "uint256",
          "name": "collectionSize",
          "type": "uint256"
        },
        {
          "internalType": "int128",
          "name": "intCollectionSize",
          "type": "int128"
        },
        {
          "internalType": "uint256",
          "name": "revealBatchSize",
          "type": "uint256"
        },
        {
          "internalType": "uint256",
          "name": "revealStartTime",
          "type": "uint256"
        },
        {
          "internalType": "uint256",
          "name": "revealInterval",
          "type": "uint256"
        }
      ],
      "stateMutability": "view",
      "type": "function"
    },
    {
      "inputs": [
        {
          "internalType": "address",
          "name": "",
          "type": "address"
        }
      ],
      "name": "launchpegToHasBeenForceRevealed",
      "outputs": [
        {
          "internalType": "bool",
          "name": "",
          "type": "bool"
        }
      ],
      "stateMutability": "view",
      "type": "function"
    },
    {
      "inputs": [
        {
          "internalType": "address",
          "name": "",
          "type": "address"
        }
      ],
      "name": "launchpegToLastTokenReveal",
      "outputs": [
        {
          "internalType": "uint256",
          "name": "",
          "type": "uint256"
        }
      ],
      "stateMutability": "view",
      "type": "function"
    },
    {
      "inputs": [
        {
          "internalType": "address",
          "name": "",
          "type": "address"
        }
      ],
      "name": "launchpegToNextBatchToReveal",
      "outputs": [
        {
          "internalType": "uint256",
          "name": "",
          "type": "uint256"
        }
      ],
      "stateMutability": "view",
      "type": "function"
    },
    {
      "inputs": [
        {
          "internalType": "address",
          "name": "",
          "type": "address"
        }
      ],
      "name": "launchpegToRangeLength",
      "outputs": [
        {
          "internalType": "uint256",
          "name": "",
          "type": "uint256"
        }
      ],
      "stateMutability": "view",
      "type": "function"
    },
    {
      "inputs": [
        {
          "internalType": "address",
          "name": "",
          "type": "address"
        },
        {
          "internalType": "uint256",
          "name": "",
          "type": "uint256"
        }
      ],
      "name": "launchpegToVrfRequestedForBatch",
      "outputs": [
        {
          "internalType": "bool",
          "name": "",
          "type": "bool"
        }
      ],
      "stateMutability": "view",
      "type": "function"
    },
    {
      "inputs": [],
      "name": "owner",
      "outputs": [
        {
          "internalType": "address",
          "name": "",
          "type": "address"
        }
      ],
      "stateMutability": "view",
      "type": "function"
    },
    {
      "inputs": [
        {
          "internalType": "uint256",
          "name": "requestId",
          "type": "uint256"
        },
        {
          "internalType": "uint256[]",
          "name": "randomWords",
          "type": "uint256[]"
        }
      ],
      "name": "rawFulfillRandomWords",
      "outputs": [],
      "stateMutability": "nonpayable",
      "type": "function"
    },
    {
      "inputs": [],
      "name": "renounceOwnership",
      "outputs": [],
      "stateMutability": "nonpayable",
      "type": "function"
    },
    {
      "inputs": [],
      "name": "requestConfirmations",
      "outputs": [
        {
          "internalType": "uint16",
          "name": "",
          "type": "uint16"
        }
      ],
      "stateMutability": "view",
      "type": "function"
    },
    {
      "inputs": [
        {
          "internalType": "address",
          "name": "_baseLaunchpeg",
          "type": "address"
        },
        {
          "internalType": "uint256",
          "name": "_totalSupply",
          "type": "uint256"
        }
      ],
      "name": "revealNextBatch",
      "outputs": [
        {
          "internalType": "bool",
          "name": "",
          "type": "bool"
        }
      ],
      "stateMutability": "nonpayable",
      "type": "function"
    },
    {
      "inputs": [
        {
          "internalType": "address",
          "name": "_baseLaunchpeg",
          "type": "address"
        },
        {
          "internalType": "uint256",
          "name": "_revealBatchSize",
          "type": "uint256"
        }
      ],
      "name": "setRevealBatchSize",
      "outputs": [],
      "stateMutability": "nonpayable",
      "type": "function"
    },
    {
      "inputs": [
        {
          "internalType": "address",
          "name": "_baseLaunchpeg",
          "type": "address"
        },
        {
          "internalType": "uint256",
          "name": "_revealInterval",
          "type": "uint256"
        }
      ],
      "name": "setRevealInterval",
      "outputs": [],
      "stateMutability": "nonpayable",
      "type": "function"
    },
    {
      "inputs": [
        {
          "internalType": "address",
          "name": "_baseLaunchpeg",
          "type": "address"
        },
        {
          "internalType": "uint256",
          "name": "_revealStartTime",
          "type": "uint256"
        }
      ],
      "name": "setRevealStartTime",
      "outputs": [],
      "stateMutability": "nonpayable",
      "type": "function"
    },
    {
      "inputs": [
        {
          "internalType": "address",
          "name": "_vrfCoordinator",
          "type": "address"
        },
        {
          "internalType": "bytes32",
          "name": "_keyHash",
          "type": "bytes32"
        },
        {
          "internalType": "uint64",
          "name": "_subscriptionId",
          "type": "uint64"
        },
        {
          "internalType": "uint32",
          "name": "_callbackGasLimit",
          "type": "uint32"
        }
      ],
      "name": "setVRF",
      "outputs": [],
      "stateMutability": "nonpayable",
      "type": "function"
    },
    {
      "inputs": [],
      "name": "subscriptionId",
      "outputs": [
        {
          "internalType": "uint64",
          "name": "",
          "type": "uint64"
        }
      ],
      "stateMutability": "view",
      "type": "function"
    },
    {
      "inputs": [
        {
          "internalType": "address",
          "name": "newOwner",
          "type": "address"
        }
      ],
      "name": "transferOwnership",
      "outputs": [],
      "stateMutability": "nonpayable",
      "type": "function"
    },
    {
      "inputs": [],
      "name": "useVRF",
      "outputs": [
        {
          "internalType": "bool",
          "name": "",
          "type": "bool"
        }
      ],
      "stateMutability": "view",
      "type": "function"
    },
    {
      "inputs": [
        {
          "internalType": "uint256",
          "name": "",
          "type": "uint256"
        }
      ],
      "name": "vrfRequestIdToLaunchpeg",
      "outputs": [
        {
          "internalType": "address",
          "name": "",
          "type": "address"
        }
      ],
      "stateMutability": "view",
      "type": "function"
    }
  ],
  "transactionHash": "0x702765f0efbfbffd749e3023b9d8365f87e255f42c2ec821b0d2fefcfeb53b6d",
  "args": [],
  "numDeployments": 3,
  "solcInputHash": "ad8a94c0474fe8bac41f9226c6b7e6de",
  "bytecode": "0x608060405234801561001057600080fd5b506122b0806100206000396000f3fe608060405234801561001057600080fd5b50600436106101c45760003560e01c80638129fc1c116100f9578063b0fb162f11610097578063d66f3a7911610071578063d66f3a79146104d5578063ed90d387146104e8578063f2fde38b14610508578063fbbc872b1461051b57600080fd5b8063b0fb162f14610487578063b7b13496146104a2578063bc2af1b6146104b557600080fd5b80639305d53a116100d35780639305d53a146103f6578063989030af1461041f578063a4c25c991461044a578063ad9e22af1461045d57600080fd5b80638129fc1c146103b65780638a5b5993146103be5780638da5cb5b146103d157600080fd5b806324f74697116101665780635825fadf116101405780635825fadf1461036257806361728f391461038557806367e146001461038e578063715018a6146103ae57600080fd5b806324f74697146103095780633e9678021461032e578063425173411461034f57600080fd5b80631733377b116101a25780631733377b14610230578063181d25881461025b5780631fe543e3146102c857806322ae5b6d146102db57600080fd5b806306038341146101c957806309c1ba2e146101eb578063122449361461021b575b600080fd5b606a546101d69060ff1681565b60405190151581526020015b60405180910390f35b606a546102039061010090046001600160401b031681565b6040516001600160401b0390911681526020016101e2565b61022e610229366004611cd6565b61052e565b005b6101d661023e366004611c66565b6001600160a01b0316600090815260656020526040902054151590565b61029d610269366004611c66565b606560205260009081526040902080546001820154600283015460038401546004909401549293600f9290920b9290919085565b60408051958652600f9490940b6020860152928401919091526060830152608082015260a0016101e2565b61022e6102d6366004611e3c565b6105e9565b6101d66102e9366004611cd6565b606f60209081526000928352604080842090915290825290205460ff1681565b606c546103199063ffffffff1681565b60405163ffffffff90911681526020016101e2565b61034161033c366004611cd6565b610637565b6040519081526020016101e2565b61022e61035d366004611d02565b610772565b6101d6610370366004611c66565b606e6020526000908152604090205460ff1681565b610341606b5481565b61034161039c366004611c66565b606d6020526000908152604090205481565b61022e6108b4565b61022e6108ea565b61022e6103cc366004611cd6565b6109be565b6033546001600160a01b03165b6040516001600160a01b0390911681526020016101e2565b6103de610404366004611e0a565b6066602052600090815260409020546001600160a01b031681565b61034161042d366004611cd6565b606760209081526000928352604080842090915290825290205481565b61022e610458366004611c66565b610a6a565b61047061046b366004611cd6565b610b89565b6040805192151583526020830191909152016101e2565b61048f600381565b60405161ffff90911681526020016101e2565b61022e6104b0366004611cd6565b610c51565b6103416104c3366004611c66565b60686020526000908152604090205481565b61022e6104e3366004611c83565b610cfd565b6103416104f6366004611c66565b60696020526000908152604090205481565b61022e610516366004611c66565b61102f565b6101d6610529366004611cd6565b6110c7565b6033546001600160a01b031633146105615760405162461bcd60e51b815260040161055890611fcc565b60405180910390fd5b81610583816001600160a01b0316600090815260656020526040902054151590565b6105a05760405163632e11e160e11b815260040160405180910390fd5b6001600160a01b0383166000908152606860205260409020548390156105d95760405163268eb6a760e21b815260040160405180910390fd5b6105e384846112f8565b50505050565b6000546001600160a01b031633146106295760005460405163073e64fd60e21b81523360048201526001600160a01b039091166024820152604401610558565b61063382826113d7565b5050565b6001600160a01b03821660009081526065602052604081206001810154600290910154600f9190910b908261066c8286612106565b6001600160a01b038716600090815260696020526040812054919250906001600160401b038111156106a0576106a0612228565b6040519080825280602002602001820160405280156106e557816020015b60408051808201909152600080825260208201528152602001906001900390816106be5790505b50905061071a87838587606960008d6001600160a01b03166001600160a01b031681526020019081526020016000205461154e565b6001600160a01b03881660009081526067602090815260408083208684529091528120549192509061074c85896121d2565b61075691906120ee565b905061076488828488611630565b955050505050505b92915050565b6033546001600160a01b0316331461079c5760405162461bcd60e51b815260040161055890611fcc565b6001600160a01b0384166000908152606860205260409020548490156107d55760405163268eb6a760e21b815260040160405180910390fd5b6000856001600160a01b03166345c0f5336040518163ffffffff1660e01b815260040160206040518083038186803b15801561081057600080fd5b505afa158015610824573d6000803e3d6000fd5b505050506040513d601f19601f820116820180604052508101906108489190611e23565b6001600160a01b038716600090815260656020526040902081815560010180546fffffffffffffffffffffffffffffffff19166001600160801b03600f84900b16179055905061089886866112f8565b6108a28685611793565b6108ac868461181c565b505050505050565b6033546001600160a01b031633146108de5760405162461bcd60e51b815260040161055890611fcc565b6108e86000611894565b565b600054600160a81b900460ff1661090e57600054600160a01b900460ff1615610912565b303b155b6109755760405162461bcd60e51b815260206004820152602e60248201527f496e697469616c697a61626c653a20636f6e747261637420697320616c72656160448201526d191e481a5b9a5d1a585b1a5e995960921b6064820152608401610558565b600054600160a81b900460ff1615801561099f576000805461ffff60a01b191661010160a01b1790555b6109a76118e6565b80156109bb576000805460ff60a81b191690555b50565b6033546001600160a01b031633146109e85760405162461bcd60e51b815260040161055890611fcc565b81610a0a816001600160a01b0316600090815260656020526040902054151590565b610a275760405163632e11e160e11b815260040160405180910390fd5b6001600160a01b038316600090815260686020526040902054839015610a605760405163268eb6a760e21b815260040160405180910390fd5b6105e3848461181c565b6033546001600160a01b03163314610a945760405162461bcd60e51b815260040161055890611fcc565b6001600160a01b0381166000908152606560209081526040808320600201546068909252822054909190829081610acd57610acd6121fc565b6001600160a01b0385166000908152606860209081526040808320805488019055606590915290208054600290910154929091049250610b109185918491611917565b6001600160a01b0383166000818152606e60209081526040808320805460ff1916600117905560678252808320858452825291829020548251938452908301849052908201527fbd515cb7fe6810ea1d996c4efb3231c8b281498ca8062a4ec905d41943824bdf906060015b60405180910390a1505050565b6001600160a01b03821660009081526065602090815260408083206002810154600382015460049092015460689094529184205484939084848281610bd057610bd06121fc565b049050610bdd838261211a565b610be790856120ee565b421080610bfc5750610bf985836120ee565b88105b80610c2a57506001600160a01b0389166000908152606f6020908152604080832084845290915290205460ff165b15610c3f57600096509450610c4a9350505050565b600196509450505050505b9250929050565b6033546001600160a01b03163314610c7b5760405162461bcd60e51b815260040161055890611fcc565b81610c9d816001600160a01b0316600090815260656020526040902054151590565b610cba5760405163632e11e160e11b815260040160405180910390fd5b6001600160a01b038316600090815260686020526040902054839015610cf35760405163268eb6a760e21b815260040160405180910390fd5b6105e38484611793565b6033546001600160a01b03163314610d275760405162461bcd60e51b815260040161055890611fcc565b6001600160a01b038416610d4e5760405163148b036560e31b815260040160405180910390fd5b600080856001600160a01b0316620122916040518163ffffffff1660e01b815260040160006040518083038186803b158015610d8957600080fd5b505afa158015610d9d573d6000803e3d6000fd5b505050506040513d6000823e601f3d908101601f19168201604052610dc59190810190611d3d565b92509250508163ffffffff168363ffffffff161180610deb5750614e208363ffffffff16105b15610e095760405163386883d560e21b815260040160405180910390fd5b6000805b8251811015610e525786838281518110610e2957610e29612212565b60200260200101511415610e405760019150610e52565b80610e4a816121b7565b915050610e0d565b5080610e715760405163f0471d8160e01b815260040160405180910390fd5b60405163523e3b4b60e11b81526001600160401b03861660048201526000906001600160a01b0389169063a47c76969060240160006040518083038186803b158015610ebc57600080fd5b505afa158015610ed0573d6000803e3d6000fd5b505050506040513d6000823e601f3d908101601f19168201604052610ef89190810190611edf565b93505050506000805b8251811015610f5857306001600160a01b0316838281518110610f2657610f26612212565b60200260200101516001600160a01b03161415610f465760019150610f58565b80610f50816121b7565b915050610f01565b5080610f7757604051637af8935960e01b815260040160405180910390fd5b606a8054600080546001600160a01b038d166001600160a01b03199091168117909155606b8b90556001600160401b038a16610100810268ffffffffffffffffff1990931692909217600117909255606c805463ffffffff8a1663ffffffff19909116811790915560408051938452602084018c9052838101929092526060830152517ff3f5a94accd1162546526b6c953c564c76d28a3513d2f9a1ce52df04dff6b9b09181900360800190a1505050505050505050565b6033546001600160a01b031633146110595760405162461bcd60e51b815260040161055890611fcc565b6001600160a01b0381166110be5760405162461bcd60e51b815260206004820152602660248201527f4f776e61626c653a206e6577206f776e657220697320746865207a65726f206160448201526564647265737360d01b6064820152608401610558565b6109bb81611894565b60006001600160a01b03831633146110f257604051633059e46160e21b815260040160405180910390fd5b6000806110ff8585610b89565b92509050806111135760009250505061076c565b606a5460ff16156112235760008054606b54606a54606c546040516305d3b1d360e41b815260048101939093526101009091046001600160401b031660248301526003604483015263ffffffff166064820152600160848201526001600160a01b0390911690635d3b1d309060a401602060405180830381600087803b15801561119c57600080fd5b505af11580156111b0573d6000803e3d6000fd5b505050506040513d601f19601f820116820180604052508101906111d49190611e23565b600090815260666020908152604080832080546001600160a01b0319166001600160a01b038b169081179091558352606f82528083208684529091529020805460ff19166001179055506112ed565b6001600160a01b0385166000908152606560209081526040808320600201546068909252822080549192909161125a9084906120ee565b90915550506001600160a01b0385166000908152606560205260409020805460029091015461128d918791859190611917565b6001600160a01b038516600081815260676020908152604080832086845282529182902054825193845290830185905282820152517fbd515cb7fe6810ea1d996c4efb3231c8b281498ca8062a4ec905d41943824bdf9181900360600190a15b506001949350505050565b8061131657604051636d0ca73b60e11b815260040160405180910390fd5b6001600160a01b03821660009081526065602052604090205461133982826121d2565b15158061134557508082115b1561136357604051636d0ca73b60e11b815260040160405180910390fd5b61136d8282612106565b61137890600261211a565b6001600160a01b0384166000818152606960209081526040808320949094556065815290839020600201859055825191825281018490527fc45cea90ada88f563f8541c1339ae3c5135feeaf4d2556a38505faef63cdb7029101610b7c565b6000828152606660209081526040808320546001600160a01b0316808452606e9092529091205460ff161561141f576040516390d5f04560e01b815260040160405180910390fd5b6001600160a01b038116600090815260656020908152604080832060028101549054606d90935290832080549193919082611459836121b7565b90915550905082600061146c828461211a565b6114769085612189565b8760008151811061148957611489612212565b602002602001015161149b91906121d2565b6001600160a01b0387166000818152606760209081526040808320888452825280832085905592825260689052908120805492935084929091906114e09084906120ee565b90915550506001600160a01b038616600081815260676020908152604080832087845282529182902054825193845290830186905282820152517fbd515cb7fe6810ea1d996c4efb3231c8b281498ca8062a4ec905d41943824bdf9181900360600190a15050505050505050565b60606000826001600160401b0381111561156a5761156a612228565b6040519080825280602002602001820160405280156115af57816020015b60408051808201909152600080825260208201528152602001906001900390816115885790505b5090506000805b87811015611623576001600160a01b03891660009081526067602090815260408083208484529091528120546115ef908b90868a611630565b905060006115fd898361209f565b905061160c858383878c6119cc565b93505050808061161b906121b7565b9150506115b6565b5090979650505050505050565b60008381805b60028110156117725760005b6001600160a01b03891660009081526069602052604090205481101561172d57600087828151811061167657611676612212565b6020026020010151600001519050600088838151811061169857611698612212565b602002602001015160200151905081600f0b85600f0b12156117065760006116c0878761209f565b905082600f0b81600f0b12156116e7576001600160801b0316965061178b95505050505050565b6116f18684612139565b6116fb9088612139565b965081955050611718565b80600f0b85600f0b1215611718578094505b50508080611725906121b7565b915050611642565b50600f85900b61173d848461209f565b600f0b126117605761174f8286612139565b6117599084612139565b9250600091505b8061176a816121b7565b915050611636565b5061177d828261209f565b6001600160801b0316925050505b949350505050565b6117a0426283d6006120ee565b8111156117c057604051636de655ff60e01b815260040160405180910390fd5b6001600160a01b038216600081815260656020908152604091829020600301849055815192835282018390527fbfa9d50c2493c256ccdadfbf65839537d0a493e97ee86341a58a165fe889690791015b60405180910390a15050565b620d2f0081111561184057604051636de655ff60e01b815260040160405180910390fd5b6001600160a01b038216600081815260656020908152604091829020600401849055815192835282018390527f822f3034de4596d2370379d37276293111dc9c8214c3145954d9c728030be7c19101611810565b603380546001600160a01b038381166001600160a01b0319831681179093556040519116919082907f8be0079c531659141344cd1fd0a4f28419497f9722a3daafe3b4186f6b6457e090600090a35050565b600054600160a81b900460ff1661190f5760405162461bcd60e51b815260040161055890612001565b6108e8611c16565b6000333a434244611929600184612189565b604080516001600160a01b0390971660208801528601949094526060850192909252608084015260a08301524060c08201523060e08201526101000160408051601f1981840301815291905280516020909101209050611989828561211a565b6119939084612189565b61199d90826121d2565b6001600160a01b0390951660009081526067602090815260408083209683529590529390932093909355505050565b600082815b84811015611b285760008882815181106119ed576119ed612212565b60200260200101516000015190506000898381518110611a0f57611a0f612212565b602002602001015160200151905081600f0b89600f0b128015611a3157508684145b15611a3a578293505b81600f0b89600f0b128015611a54575081600f0b88600f0b135b80611a76575088600f0b82600f0b13158015611a76575080600f0b88600f0b13155b80611a96575080600f0b89600f0b128015611a96575080600f0b88600f0b135b15611b13576000611aa78a8a612139565b9050611ab38a84611c48565b9950611abf8383612139565b611ac9828c61209f565b611ad3919061209f565b98506040518060400160405280600019600f0b8152602001600019600f0b8152508b8581518110611b0657611b06612212565b6020026020010181905250505b50508080611b20906121b7565b9150506119d1565b50835b81811115611b875787611b3f600183612189565b81518110611b4f57611b4f612212565b6020026020010151888281518110611b6957611b69612212565b60200260200101819052508080611b7f906121a0565b915050611b2b565b50604051806040016040528087600f0b8152602001611ba68786611c48565b600f0b815250878281518110611bbe57611bbe612212565b60200260200101819052508380611bd4906121b7565b94505082600f0b85600f0b1315611c0b57611bfc876000611bf58689612139565b87876119cc565b5083611c07816121b7565b9450505b509195945050505050565b600054600160a81b900460ff16611c3f5760405162461bcd60e51b815260040161055890612001565b6108e833611894565b600081600f0b83600f0b12611c5d5781611c5f565b825b9392505050565b600060208284031215611c7857600080fd5b8135611c5f8161223e565b60008060008060808587031215611c9957600080fd5b8435611ca48161223e565b9350602085013592506040850135611cbb81612265565b91506060850135611ccb81612253565b939692955090935050565b60008060408385031215611ce957600080fd5b8235611cf48161223e565b946020939093013593505050565b60008060008060808587031215611d1857600080fd5b8435611d238161223e565b966020860135965060408601359560600135945092505050565b600080600060608486031215611d5257600080fd5b835161ffff81168114611d6457600080fd5b80935050602080850151611d7781612253565b60408601519093506001600160401b03811115611d9357600080fd5b8501601f81018713611da457600080fd5b8051611db7611db28261207c565b61204c565b8082825284820191508484018a868560051b8701011115611dd757600080fd5b600094505b83851015611dfa578051835260019490940193918501918501611ddc565b5080955050505050509250925092565b600060208284031215611e1c57600080fd5b5035919050565b600060208284031215611e3557600080fd5b5051919050565b60008060408385031215611e4f57600080fd5b823591506020808401356001600160401b03811115611e6d57600080fd5b8401601f81018613611e7e57600080fd5b8035611e8c611db28261207c565b80828252848201915084840189868560051b8701011115611eac57600080fd5b600094505b83851015611ecf578035835260019490940193918501918501611eb1565b5080955050505050509250929050565b60008060008060808587031215611ef557600080fd5b84516bffffffffffffffffffffffff81168114611f1157600080fd5b80945050602080860151611f2481612265565b6040870151909450611f358161223e565b60608701519093506001600160401b03811115611f5157600080fd5b8601601f81018813611f6257600080fd5b8051611f70611db28261207c565b8082825284820191508484018b868560051b8701011115611f9057600080fd5b600094505b83851015611fbc578051611fa88161223e565b835260019490940193918501918501611f95565b50979a9699509497505050505050565b6020808252818101527f4f776e61626c653a2063616c6c6572206973206e6f7420746865206f776e6572604082015260600190565b6020808252602b908201527f496e697469616c697a61626c653a20636f6e7472616374206973206e6f74206960408201526a6e697469616c697a696e6760a81b606082015260800190565b604051601f8201601f191681016001600160401b038111828210171561207457612074612228565b604052919050565b60006001600160401b0382111561209557612095612228565b5060051b60200190565b600081600f0b83600f0b600082128260016001607f1b03038213811516156120c9576120c96121e6565b8260016001607f1b03190382128116156120e5576120e56121e6565b50019392505050565b60008219821115612101576121016121e6565b500190565b600082612115576121156121fc565b500490565b6000816000190483118215151615612134576121346121e6565b500290565b600081600f0b83600f0b600081128160016001607f1b031901831281151615612164576121646121e6565b8160016001607f1b0301831381161561217f5761217f6121e6565b5090039392505050565b60008282101561219b5761219b6121e6565b500390565b6000816121af576121af6121e6565b506000190190565b60006000198214156121cb576121cb6121e6565b5060010190565b6000826121e1576121e16121fc565b500690565b634e487b7160e01b600052601160045260246000fd5b634e487b7160e01b600052601260045260246000fd5b634e487b7160e01b600052603260045260246000fd5b634e487b7160e01b600052604160045260246000fd5b6001600160a01b03811681146109bb57600080fd5b63ffffffff811681146109bb57600080fd5b6001600160401b03811681146109bb57600080fdfea2646970667358221220432939f4eb53afd69154be5e94bf25a29a70aafcafb81540b8a80e1afa26341c64736f6c63430008060033",
  "devdoc": {
    "events": {
      "Reveal(address,uint256,uint256)": {
        "details": "Emitted on revealNextBatch() and forceReveal()",
        "params": {
          "baseLaunchpeg": "Base launchpeg address",
          "batchNumber": "The batch revealed",
          "batchSeed": "The random number drawn"
        }
      },
      "RevealBatchSizeSet(address,uint256)": {
        "details": "Emitted on setRevealBatchSize()",
        "params": {
          "baseLaunchpeg": "Base launchpeg address",
          "revealBatchSize": "New reveal batch size"
        }
      },
      "RevealIntervalSet(address,uint256)": {
        "details": "Emitted on setRevealInterval()",
        "params": {
          "baseLaunchpeg": "Base launchpeg address",
          "revealInterval": "New reveal interval"
        }
      },
      "RevealStartTimeSet(address,uint256)": {
        "details": "Emitted on setRevealStartTime()",
        "params": {
          "baseLaunchpeg": "Base launchpeg address",
          "revealStartTime": "New reveal start time"
        }
      },
      "VRFSet(address,bytes32,uint64,uint32)": {
        "details": "emitted on setVRF()",
        "params": {
          "_callbackGasLimit": "Max gas used by the coordinator callback",
          "_keyHash": "Keyhash of the gas lane wanted",
          "_subscriptionId": "Chainlink subscription ID",
          "_vrfCoordinator": "Chainlink coordinator address"
        }
      }
    },
    "kind": "dev",
    "methods": {
      "configure(address,uint256,uint256,uint256)": {
        "details": "Configure batch reveal for a given launch",
        "params": {
          "_baseLaunchpeg": "Base launchpeg address",
          "_revealBatchSize": "Size of the batch reveal",
          "_revealInterval": "Batch reveal interval",
          "_revealStartTime": "Batch reveal start time"
        }
      },
      "forceReveal(address)": {
        "details": "Force reveal, should be restricted to owner"
      },
      "getShuffledTokenId(address,uint256)": {
        "details": "Gets the random token URI number from tokenId",
        "params": {
          "_baseLaunchpeg": "Base launchpeg address",
          "_startId": "Token Id to consider"
        },
        "returns": {
          "_0": "uriId Revealed Token URI Id"
        }
      },
      "hasBatchToReveal(address,uint256)": {
        "details": "Returns true if a batch can be revealed",
        "params": {
          "_baseLaunchpeg": "Base launchpeg address",
          "_totalSupply": "Number of token already minted"
        },
        "returns": {
          "_0": "hasToRevealInfo Returns a bool saying whether a reveal can be triggered or not and the number of the next batch that will be revealed"
        }
      },
      "owner()": {
        "details": "Returns the address of the current owner."
      },
      "renounceOwnership()": {
        "details": "Leaves the contract without owner. It will not be possible to call `onlyOwner` functions anymore. Can only be called by the current owner. NOTE: Renouncing ownership will leave the contract without an owner, thereby removing any functionality that is only available to the owner."
      },
      "revealNextBatch(address,uint256)": {
        "details": "Reveals next batch if possibleIf using VRF, the reveal happens on the coordinator callback call",
        "params": {
          "_baseLaunchpeg": "Base launchpeg address",
          "_totalSupply": "Number of token already minted"
        },
        "returns": {
          "_0": "isRevealed Returns false if it is not possible to reveal the next batch"
        }
      },
      "setRevealBatchSize(address,uint256)": {
        "params": {
          "_baseLaunchpeg": "Base launchpeg address",
          "_revealBatchSize": "New reveal batch size"
        }
      },
      "setRevealInterval(address,uint256)": {
        "params": {
          "_baseLaunchpeg": "Base launchpeg address",
          "_revealInterval": "New batch reveal interval"
        }
      },
      "setRevealStartTime(address,uint256)": {
        "params": {
          "_baseLaunchpeg": "Base launchpeg address",
          "_revealStartTime": "New batch reveal start time"
        }
      },
      "setVRF(address,bytes32,uint64,uint32)": {
        "params": {
          "_callbackGasLimit": "Max gas used by the coordinator callback",
          "_keyHash": "Keyhash of the gas lane wanted",
          "_subscriptionId": "Chainlink subscription ID",
          "_vrfCoordinator": "Chainlink coordinator address"
        }
      },
      "transferOwnership(address)": {
        "details": "Transfers ownership of the contract to a new account (`newOwner`). Can only be called by the current owner."
      }
    },
    "stateVariables": {
      "launchpegToHasBeenForceRevealed": {
        "details": "VRF will not be used anymore if a batch has been force revealed"
      },
      "launchpegToRangeLength": {
        "details": "Size of the array that will store already taken URIs numbers by launchpeg"
      },
      "launchpegToVrfRequestedForBatch": {
        "details": "Prevents people from spamming the random words request and therefore reveal more batches than expected"
      }
    },
    "title": "BatchReveal",
    "version": 1
  },
  "userdoc": {
    "kind": "user",
    "methods": {
      "callbackGasLimit()": {
        "notice": "Depends on the number of requested values that you want sent to the fulfillRandomWords() function. Storing each word costs about 20,000 gas, so 100,000 is a safe default for this example contract. Test and adjust this limit based on the network that you select, the size of the request, and the processing of the callback request in the fulfillRandomWords() function."
      },
      "initialize()": {
        "notice": "Initialize batch reveal"
      },
      "isBatchRevealInitialized(address)": {
        "notice": "Returns true if batch reveal is configured for the given launchpeg Since the collection size is only set on initialize() and the collection size cannot be 0, we assume a 0 value means the batch reveal configuration has not been initialized."
      },
      "keyHash()": {
        "notice": "The gas lane to use, which specifies the maximum gas price to bump to. For a list of available gas lanes on each network, see https://docs.chain.link/docs/vrf-contracts/#configurations"
      },
      "launchpegToBatchToSeed(address,uint256)": {
        "notice": "Randomized seeds used to shuffle TokenURIs by launchpeg"
      },
      "launchpegToConfig(address)": {
        "notice": "Batch reveal configuration by launchpeg"
      },
      "launchpegToHasBeenForceRevealed(address)": {
        "notice": "True when force revealed has been triggered for the given launchpeg"
      },
      "launchpegToLastTokenReveal(address)": {
        "notice": "Last token that has been revealed by launchpeg"
      },
      "launchpegToNextBatchToReveal(address)": {
        "notice": "Next batch that will be revealed by VRF (if activated) by launchpeg"
      },
      "launchpegToVrfRequestedForBatch(address,uint256)": {
        "notice": "Has the random number for a batch already been asked by launchpeg"
      },
      "rawFulfillRandomWords(uint256,uint256[])": {
        "notice": "rawFulfillRandomness is called by VRFCoordinator when it receives a valid VRF proof. rawFulfillRandomness then calls fulfillRandomness, after validating the origin of the call"
      },
      "requestConfirmations()": {
        "notice": "Number of block confirmations that the coordinator will wait before triggering the callback The default is 3"
      },
      "setRevealBatchSize(address,uint256)": {
        "notice": "Set the reveal batch size. Can only be set after batch reveal has been initialized and before a batch has been revealed."
      },
      "setRevealInterval(address,uint256)": {
        "notice": "Set the batch reveal interval. Can only be set after batch reveal has been initialized and before a batch has been revealed."
      },
      "setRevealStartTime(address,uint256)": {
        "notice": "Set the batch reveal start time. Can only be set after batch reveal has been initialized and before a batch has been revealed."
      },
      "setVRF(address,bytes32,uint64,uint32)": {
        "notice": "Set VRF configuration"
      },
      "subscriptionId()": {
        "notice": "Chainlink subscription ID"
      },
      "useVRF()": {
        "notice": "Contract uses VRF or pseudo-randomness"
      },
      "vrfRequestIdToLaunchpeg(uint256)": {
        "notice": "VRF request ids by launchpeg"
      }
    },
    "notice": "Implements a gas efficient way of revealing NFT URIs gradually",
    "version": 1
  },
  "storageLayout": {
    "storage": [
      {
        "astId": 9458,
        "contract": "contracts/BatchReveal.sol:BatchReveal",
        "label": "vrfCoordinator",
        "offset": 0,
        "slot": "0",
        "type": "t_address"
      },
      {
        "astId": 810,
        "contract": "contracts/BatchReveal.sol:BatchReveal",
        "label": "_initialized",
        "offset": 20,
        "slot": "0",
        "type": "t_bool"
      },
      {
        "astId": 813,
        "contract": "contracts/BatchReveal.sol:BatchReveal",
        "label": "_initializing",
        "offset": 21,
        "slot": "0",
        "type": "t_bool"
      },
      {
        "astId": 1710,
        "contract": "contracts/BatchReveal.sol:BatchReveal",
        "label": "__gap",
        "offset": 0,
        "slot": "1",
        "type": "t_array(t_uint256)50_storage"
      },
      {
        "astId": 671,
        "contract": "contracts/BatchReveal.sol:BatchReveal",
        "label": "_owner",
        "offset": 0,
        "slot": "51",
        "type": "t_address"
      },
      {
        "astId": 783,
        "contract": "contracts/BatchReveal.sol:BatchReveal",
        "label": "__gap",
        "offset": 0,
        "slot": "52",
        "type": "t_array(t_uint256)49_storage"
      },
      {
        "astId": 4667,
        "contract": "contracts/BatchReveal.sol:BatchReveal",
        "label": "launchpegToConfig",
        "offset": 0,
        "slot": "101",
        "type": "t_mapping(t_address,t_struct(BatchRevealConfig)10380_storage)"
      },
      {
        "astId": 4672,
        "contract": "contracts/BatchReveal.sol:BatchReveal",
        "label": "vrfRequestIdToLaunchpeg",
        "offset": 0,
        "slot": "102",
        "type": "t_mapping(t_uint256,t_address)"
      },
      {
        "astId": 4680,
        "contract": "contracts/BatchReveal.sol:BatchReveal",
        "label": "launchpegToBatchToSeed",
        "offset": 0,
        "slot": "103",
        "type": "t_mapping(t_address,t_mapping(t_uint256,t_uint256))"
      },
      {
        "astId": 4686,
        "contract": "contracts/BatchReveal.sol:BatchReveal",
        "label": "launchpegToLastTokenReveal",
        "offset": 0,
        "slot": "104",
        "type": "t_mapping(t_address,t_uint256)"
      },
      {
        "astId": 4691,
        "contract": "contracts/BatchReveal.sol:BatchReveal",
        "label": "launchpegToRangeLength",
        "offset": 0,
        "slot": "105",
        "type": "t_mapping(t_address,t_uint256)"
      },
      {
        "astId": 4695,
        "contract": "contracts/BatchReveal.sol:BatchReveal",
        "label": "useVRF",
        "offset": 0,
        "slot": "106",
        "type": "t_bool"
      },
      {
        "astId": 4699,
        "contract": "contracts/BatchReveal.sol:BatchReveal",
        "label": "subscriptionId",
        "offset": 1,
        "slot": "106",
        "type": "t_uint64"
      },
      {
        "astId": 4703,
        "contract": "contracts/BatchReveal.sol:BatchReveal",
        "label": "keyHash",
        "offset": 0,
        "slot": "107",
        "type": "t_bytes32"
      },
      {
        "astId": 4707,
        "contract": "contracts/BatchReveal.sol:BatchReveal",
        "label": "callbackGasLimit",
        "offset": 0,
        "slot": "108",
        "type": "t_uint32"
      },
      {
        "astId": 4718,
        "contract": "contracts/BatchReveal.sol:BatchReveal",
        "label": "launchpegToNextBatchToReveal",
        "offset": 0,
        "slot": "109",
        "type": "t_mapping(t_address,t_uint256)"
      },
      {
        "astId": 4724,
        "contract": "contracts/BatchReveal.sol:BatchReveal",
        "label": "launchpegToHasBeenForceRevealed",
        "offset": 0,
        "slot": "110",
        "type": "t_mapping(t_address,t_bool)"
      },
      {
        "astId": 4732,
        "contract": "contracts/BatchReveal.sol:BatchReveal",
        "label": "launchpegToVrfRequestedForBatch",
        "offset": 0,
        "slot": "111",
        "type": "t_mapping(t_address,t_mapping(t_uint256,t_bool))"
      }
    ],
    "types": {
      "t_address": {
        "encoding": "inplace",
        "label": "address",
        "numberOfBytes": "20"
      },
      "t_array(t_uint256)49_storage": {
        "base": "t_uint256",
        "encoding": "inplace",
        "label": "uint256[49]",
        "numberOfBytes": "1568"
      },
      "t_array(t_uint256)50_storage": {
        "base": "t_uint256",
        "encoding": "inplace",
        "label": "uint256[50]",
        "numberOfBytes": "1600"
      },
      "t_bool": {
        "encoding": "inplace",
        "label": "bool",
        "numberOfBytes": "1"
      },
      "t_bytes32": {
        "encoding": "inplace",
        "label": "bytes32",
        "numberOfBytes": "32"
      },
      "t_int128": {
        "encoding": "inplace",
        "label": "int128",
        "numberOfBytes": "16"
      },
      "t_mapping(t_address,t_bool)": {
        "encoding": "mapping",
        "key": "t_address",
        "label": "mapping(address => bool)",
        "numberOfBytes": "32",
        "value": "t_bool"
      },
      "t_mapping(t_address,t_mapping(t_uint256,t_bool))": {
        "encoding": "mapping",
        "key": "t_address",
        "label": "mapping(address => mapping(uint256 => bool))",
        "numberOfBytes": "32",
        "value": "t_mapping(t_uint256,t_bool)"
      },
      "t_mapping(t_address,t_mapping(t_uint256,t_uint256))": {
        "encoding": "mapping",
        "key": "t_address",
        "label": "mapping(address => mapping(uint256 => uint256))",
        "numberOfBytes": "32",
        "value": "t_mapping(t_uint256,t_uint256)"
      },
      "t_mapping(t_address,t_struct(BatchRevealConfig)10380_storage)": {
        "encoding": "mapping",
        "key": "t_address",
        "label": "mapping(address => struct IBatchReveal.BatchRevealConfig)",
        "numberOfBytes": "32",
        "value": "t_struct(BatchRevealConfig)10380_storage"
      },
      "t_mapping(t_address,t_uint256)": {
        "encoding": "mapping",
        "key": "t_address",
        "label": "mapping(address => uint256)",
        "numberOfBytes": "32",
        "value": "t_uint256"
      },
      "t_mapping(t_uint256,t_address)": {
        "encoding": "mapping",
        "key": "t_uint256",
        "label": "mapping(uint256 => address)",
        "numberOfBytes": "32",
        "value": "t_address"
      },
      "t_mapping(t_uint256,t_bool)": {
        "encoding": "mapping",
        "key": "t_uint256",
        "label": "mapping(uint256 => bool)",
        "numberOfBytes": "32",
        "value": "t_bool"
      },
      "t_mapping(t_uint256,t_uint256)": {
        "encoding": "mapping",
        "key": "t_uint256",
        "label": "mapping(uint256 => uint256)",
        "numberOfBytes": "32",
        "value": "t_uint256"
      },
      "t_struct(BatchRevealConfig)10380_storage": {
        "encoding": "inplace",
        "label": "struct IBatchReveal.BatchRevealConfig",
        "members": [
          {
            "astId": 10368,
            "contract": "contracts/BatchReveal.sol:BatchReveal",
            "label": "collectionSize",
            "offset": 0,
            "slot": "0",
            "type": "t_uint256"
          },
          {
            "astId": 10370,
            "contract": "contracts/BatchReveal.sol:BatchReveal",
            "label": "intCollectionSize",
            "offset": 0,
            "slot": "1",
            "type": "t_int128"
          },
          {
            "astId": 10373,
            "contract": "contracts/BatchReveal.sol:BatchReveal",
            "label": "revealBatchSize",
            "offset": 0,
            "slot": "2",
            "type": "t_uint256"
          },
          {
            "astId": 10376,
            "contract": "contracts/BatchReveal.sol:BatchReveal",
            "label": "revealStartTime",
            "offset": 0,
            "slot": "3",
            "type": "t_uint256"
          },
          {
            "astId": 10379,
            "contract": "contracts/BatchReveal.sol:BatchReveal",
            "label": "revealInterval",
            "offset": 0,
            "slot": "4",
            "type": "t_uint256"
          }
        ],
        "numberOfBytes": "160"
      },
      "t_uint256": {
        "encoding": "inplace",
        "label": "uint256",
        "numberOfBytes": "32"
      },
      "t_uint32": {
        "encoding": "inplace",
        "label": "uint32",
        "numberOfBytes": "4"
      },
      "t_uint64": {
        "encoding": "inplace",
        "label": "uint64",
        "numberOfBytes": "8"
      }
    }
  }
}