{
  "address": "0xfa7bd4754362B186E1192f256481261DDA408FE1",
  "abi": [
    {
      "inputs": [],
      "name": "ApprovalCallerNotOwnerNorApproved",
      "type": "error"
    },
    {
      "inputs": [],
      "name": "ApprovalQueryForNonexistentToken",
      "type": "error"
    },
    {
      "inputs": [],
      "name": "ApprovalToCurrentOwner",
      "type": "error"
    },
    {
      "inputs": [],
      "name": "ApproveToCaller",
      "type": "error"
    },
    {
      "inputs": [],
      "name": "BalanceQueryForZeroAddress",
      "type": "error"
    },
    {
      "inputs": [],
      "name": "Launchpeg__CanNotMintThisMany",
      "type": "error"
    },
    {
      "inputs": [],
      "name": "Launchpeg__CanOnlyMintMultipleOfMaxBatchSize",
      "type": "error"
    },
    {
      "inputs": [],
      "name": "Launchpeg__HasBeenForceRevealed",
      "type": "error"
    },
    {
      "inputs": [],
      "name": "Launchpeg__InvalidAllowlistPrice",
      "type": "error"
    },
    {
      "inputs": [],
      "name": "Launchpeg__InvalidBatchRevealSize",
      "type": "error"
    },
    {
      "inputs": [],
      "name": "Launchpeg__InvalidCallbackGasLimit",
      "type": "error"
    },
    {
      "inputs": [],
      "name": "Launchpeg__InvalidCoordinator",
      "type": "error"
    },
    {
      "inputs": [],
      "name": "Launchpeg__InvalidJoeFeeCollector",
      "type": "error"
    },
    {
      "inputs": [],
      "name": "Launchpeg__InvalidKeyHash",
      "type": "error"
    },
    {
      "inputs": [],
      "name": "Launchpeg__InvalidMaxBatchSize",
      "type": "error"
    },
    {
      "inputs": [],
      "name": "Launchpeg__InvalidPercent",
      "type": "error"
    },
    {
      "inputs": [],
      "name": "Launchpeg__InvalidProjectOwner",
      "type": "error"
    },
    {
      "inputs": [],
      "name": "Launchpeg__InvalidRevealDates",
      "type": "error"
    },
    {
      "inputs": [],
      "name": "Launchpeg__InvalidRoyaltyInfo",
      "type": "error"
    },
    {
      "inputs": [],
      "name": "Launchpeg__InvalidStartTime",
      "type": "error"
    },
    {
      "inputs": [],
      "name": "Launchpeg__IsNotInTheConsumerList",
      "type": "error"
    },
    {
      "inputs": [],
      "name": "Launchpeg__JoeFeeAlreadyInitialized",
      "type": "error"
    },
    {
      "inputs": [],
      "name": "Launchpeg__LargerCollectionSizeNeeded",
      "type": "error"
    },
    {
      "inputs": [],
      "name": "Launchpeg__MaxSupplyForDevReached",
      "type": "error"
    },
    {
      "inputs": [],
      "name": "Launchpeg__MaxSupplyReached",
      "type": "error"
    },
    {
      "inputs": [],
      "name": "Launchpeg__NotEligibleForAllowlistMint",
      "type": "error"
    },
    {
      "inputs": [
        {
          "internalType": "uint256",
          "name": "avaxSent",
          "type": "uint256"
        }
      ],
      "name": "Launchpeg__NotEnoughAVAX",
      "type": "error"
    },
    {
      "inputs": [],
      "name": "Launchpeg__PublicSaleBeforeAllowlist",
      "type": "error"
    },
    {
      "inputs": [],
      "name": "Launchpeg__RevealNextBatchNotAvailable",
      "type": "error"
    },
    {
      "inputs": [],
      "name": "Launchpeg__TransferFailed",
      "type": "error"
    },
    {
      "inputs": [],
      "name": "Launchpeg__Unauthorized",
      "type": "error"
    },
    {
      "inputs": [],
      "name": "Launchpeg__WrongAddressesAndNumSlotsLength",
      "type": "error"
    },
    {
      "inputs": [],
      "name": "Launchpeg__WrongPhase",
      "type": "error"
    },
    {
      "inputs": [],
      "name": "MintToZeroAddress",
      "type": "error"
    },
    {
      "inputs": [],
      "name": "MintZeroQuantity",
      "type": "error"
    },
    {
      "inputs": [
        {
          "internalType": "address",
          "name": "have",
          "type": "address"
        },
        {
          "internalType": "address",
          "name": "want",
          "type": "address"
        }
      ],
      "name": "OnlyCoordinatorCanFulfill",
      "type": "error"
    },
    {
      "inputs": [],
      "name": "OwnerQueryForNonexistentToken",
      "type": "error"
    },
    {
      "inputs": [],
      "name": "TransferCallerNotOwnerNorApproved",
      "type": "error"
    },
    {
      "inputs": [],
      "name": "TransferFromIncorrectOwner",
      "type": "error"
    },
    {
      "inputs": [],
      "name": "TransferToNonERC721ReceiverImplementer",
      "type": "error"
    },
    {
      "inputs": [],
      "name": "TransferToZeroAddress",
      "type": "error"
    },
    {
      "anonymous": false,
      "inputs": [],
      "name": "AllowlistSeeded",
      "type": "event"
    },
    {
      "anonymous": false,
      "inputs": [
        {
          "indexed": true,
          "internalType": "address",
          "name": "owner",
          "type": "address"
        },
        {
          "indexed": true,
          "internalType": "address",
          "name": "approved",
          "type": "address"
        },
        {
          "indexed": true,
          "internalType": "uint256",
          "name": "tokenId",
          "type": "uint256"
        }
      ],
      "name": "Approval",
      "type": "event"
    },
    {
      "anonymous": false,
      "inputs": [
        {
          "indexed": true,
          "internalType": "address",
          "name": "owner",
          "type": "address"
        },
        {
          "indexed": true,
          "internalType": "address",
          "name": "operator",
          "type": "address"
        },
        {
          "indexed": false,
          "internalType": "bool",
          "name": "approved",
          "type": "bool"
        }
      ],
      "name": "ApprovalForAll",
      "type": "event"
    },
    {
      "anonymous": false,
      "inputs": [
        {
          "indexed": true,
          "internalType": "address",
          "name": "sender",
          "type": "address"
        },
        {
          "indexed": false,
          "internalType": "uint256",
          "name": "amount",
          "type": "uint256"
        },
        {
          "indexed": false,
          "internalType": "uint256",
          "name": "fee",
          "type": "uint256"
        }
      ],
      "name": "AvaxWithdraw",
      "type": "event"
    },
    {
      "anonymous": false,
      "inputs": [
        {
          "indexed": false,
          "internalType": "string",
          "name": "baseURI",
          "type": "string"
        }
      ],
      "name": "BaseURISet",
      "type": "event"
    },
    {
      "anonymous": false,
      "inputs": [
        {
          "indexed": true,
          "internalType": "address",
          "name": "receiver",
          "type": "address"
        },
        {
          "indexed": false,
          "internalType": "uint256",
          "name": "feePercent",
          "type": "uint256"
        }
      ],
      "name": "DefaultRoyaltySet",
      "type": "event"
    },
    {
      "anonymous": false,
      "inputs": [
        {
          "indexed": true,
          "internalType": "address",
          "name": "sender",
          "type": "address"
        },
        {
          "indexed": false,
          "internalType": "uint256",
          "name": "quantity",
          "type": "uint256"
        }
      ],
      "name": "DevMint",
      "type": "event"
    },
    {
      "anonymous": false,
      "inputs": [
        {
          "indexed": false,
          "internalType": "uint256",
          "name": "allowlistStartTime",
          "type": "uint256"
        },
        {
          "indexed": false,
          "internalType": "uint256",
          "name": "publicSaleStartTime",
          "type": "uint256"
        },
        {
          "indexed": false,
          "internalType": "uint256",
          "name": "allowlistPrice",
          "type": "uint256"
        },
        {
          "indexed": false,
          "internalType": "uint256",
          "name": "salePrice",
          "type": "uint256"
        }
      ],
      "name": "Initialized",
      "type": "event"
    },
    {
      "anonymous": false,
      "inputs": [
        {
          "indexed": false,
          "internalType": "uint256",
          "name": "feePercent",
          "type": "uint256"
        },
        {
          "indexed": false,
          "internalType": "address",
          "name": "feeCollector",
          "type": "address"
        }
      ],
      "name": "JoeFeeInitialized",
      "type": "event"
    },
    {
      "anonymous": false,
      "inputs": [
        {
          "indexed": true,
          "internalType": "address",
          "name": "sender",
          "type": "address"
        },
        {
          "indexed": false,
          "internalType": "uint256",
          "name": "quantity",
          "type": "uint256"
        },
        {
          "indexed": false,
          "internalType": "uint256",
          "name": "price",
          "type": "uint256"
        },
        {
          "indexed": false,
          "internalType": "uint256",
          "name": "tokenId",
          "type": "uint256"
        }
      ],
      "name": "Mint",
      "type": "event"
    },
    {
      "anonymous": false,
      "inputs": [
        {
          "indexed": true,
          "internalType": "address",
          "name": "previousOwner",
          "type": "address"
        },
        {
          "indexed": true,
          "internalType": "address",
          "name": "newOwner",
          "type": "address"
        }
      ],
      "name": "OwnershipTransferred",
      "type": "event"
    },
    {
      "anonymous": false,
      "inputs": [
        {
          "indexed": true,
          "internalType": "address",
          "name": "owner",
          "type": "address"
        }
      ],
      "name": "ProjectOwnerUpdated",
      "type": "event"
    },
    {
      "anonymous": false,
      "inputs": [
        {
          "indexed": false,
          "internalType": "bool",
          "name": "isActive",
          "type": "bool"
        }
      ],
      "name": "PublicSaleStateChanged",
      "type": "event"
    },
    {
      "anonymous": false,
      "inputs": [
        {
          "indexed": false,
          "internalType": "uint256",
          "name": "batchNumber",
          "type": "uint256"
        },
        {
          "indexed": false,
          "internalType": "uint256",
          "name": "batchSeed",
          "type": "uint256"
        }
      ],
      "name": "Reveal",
      "type": "event"
    },
    {
      "anonymous": false,
      "inputs": [
        {
          "indexed": true,
          "internalType": "address",
          "name": "from",
          "type": "address"
        },
        {
          "indexed": true,
          "internalType": "address",
          "name": "to",
          "type": "address"
        },
        {
          "indexed": true,
          "internalType": "uint256",
          "name": "tokenId",
          "type": "uint256"
        }
      ],
      "name": "Transfer",
      "type": "event"
    },
    {
      "anonymous": false,
      "inputs": [
        {
          "indexed": false,
          "internalType": "string",
          "name": "unrevealedURI",
          "type": "string"
        }
      ],
      "name": "UnrevealedURISet",
      "type": "event"
    },
    {
      "anonymous": false,
      "inputs": [
        {
          "indexed": false,
          "internalType": "address",
          "name": "_vrfCoordinator",
          "type": "address"
        },
        {
          "indexed": false,
          "internalType": "bytes32",
          "name": "_keyHash",
          "type": "bytes32"
        },
        {
          "indexed": false,
          "internalType": "uint64",
          "name": "_subscriptionId",
          "type": "uint64"
        },
        {
          "indexed": false,
          "internalType": "uint32",
          "name": "_callbackGasLimit",
          "type": "uint32"
        }
      ],
      "name": "VRFSet",
      "type": "event"
    },
    {
      "inputs": [],
      "name": "BASIS_POINT_PRECISION",
      "outputs": [
        {
          "internalType": "uint256",
          "name": "",
          "type": "uint256"
        }
      ],
      "stateMutability": "view",
      "type": "function"
    },
    {
      "inputs": [
        {
          "internalType": "address",
          "name": "",
          "type": "address"
        }
      ],
      "name": "allowlist",
      "outputs": [
        {
          "internalType": "uint256",
          "name": "",
          "type": "uint256"
        }
      ],
      "stateMutability": "view",
      "type": "function"
    },
    {
      "inputs": [
        {
          "internalType": "uint256",
          "name": "_quantity",
          "type": "uint256"
        }
      ],
      "name": "allowlistMint",
      "outputs": [],
      "stateMutability": "payable",
      "type": "function"
    },
    {
      "inputs": [],
      "name": "allowlistPrice",
      "outputs": [
        {
          "internalType": "uint256",
          "name": "",
          "type": "uint256"
        }
      ],
      "stateMutability": "view",
      "type": "function"
    },
    {
      "inputs": [],
      "name": "allowlistStartTime",
      "outputs": [
        {
          "internalType": "uint256",
          "name": "",
          "type": "uint256"
        }
      ],
      "stateMutability": "view",
      "type": "function"
    },
    {
      "inputs": [],
      "name": "amountForAllowlist",
      "outputs": [
        {
          "internalType": "uint256",
          "name": "",
          "type": "uint256"
        }
      ],
      "stateMutability": "view",
      "type": "function"
    },
    {
      "inputs": [],
      "name": "amountForDevs",
      "outputs": [
        {
          "internalType": "uint256",
          "name": "",
          "type": "uint256"
        }
      ],
      "stateMutability": "view",
      "type": "function"
    },
    {
      "inputs": [],
      "name": "amountMintedByDevs",
      "outputs": [
        {
          "internalType": "uint256",
          "name": "",
          "type": "uint256"
        }
      ],
      "stateMutability": "view",
      "type": "function"
    },
    {
      "inputs": [],
      "name": "amountMintedDuringAllowlist",
      "outputs": [
        {
          "internalType": "uint256",
          "name": "",
          "type": "uint256"
        }
      ],
      "stateMutability": "view",
      "type": "function"
    },
    {
      "inputs": [],
      "name": "amountMintedDuringPublicSale",
      "outputs": [
        {
          "internalType": "uint256",
          "name": "",
          "type": "uint256"
        }
      ],
      "stateMutability": "view",
      "type": "function"
    },
    {
      "inputs": [
        {
          "internalType": "address",
          "name": "to",
          "type": "address"
        },
        {
          "internalType": "uint256",
          "name": "tokenId",
          "type": "uint256"
        }
      ],
      "name": "approve",
      "outputs": [],
      "stateMutability": "nonpayable",
      "type": "function"
    },
    {
      "inputs": [
        {
          "internalType": "address",
          "name": "owner",
          "type": "address"
        }
      ],
      "name": "balanceOf",
      "outputs": [
        {
          "internalType": "uint256",
          "name": "",
          "type": "uint256"
        }
      ],
      "stateMutability": "view",
      "type": "function"
    },
    {
      "inputs": [],
      "name": "baseURI",
      "outputs": [
        {
          "internalType": "string",
          "name": "",
          "type": "string"
        }
      ],
      "stateMutability": "view",
      "type": "function"
    },
    {
      "inputs": [
        {
          "internalType": "uint256",
          "name": "",
          "type": "uint256"
        }
      ],
      "name": "batchToSeed",
      "outputs": [
        {
          "internalType": "uint256",
          "name": "",
          "type": "uint256"
        }
      ],
      "stateMutability": "view",
      "type": "function"
    },
    {
      "inputs": [],
      "name": "callbackGasLimit",
      "outputs": [
        {
          "internalType": "uint32",
          "name": "",
          "type": "uint32"
        }
      ],
      "stateMutability": "view",
      "type": "function"
    },
    {
      "inputs": [],
      "name": "collectionSize",
      "outputs": [
        {
          "internalType": "uint256",
          "name": "",
          "type": "uint256"
        }
      ],
      "stateMutability": "view",
      "type": "function"
    },
    {
      "inputs": [],
      "name": "currentPhase",
      "outputs": [
        {
          "internalType": "enum IBaseLaunchpeg.Phase",
          "name": "",
          "type": "uint8"
        }
      ],
      "stateMutability": "view",
      "type": "function"
    },
    {
      "inputs": [
        {
          "internalType": "uint256",
          "name": "_quantity",
          "type": "uint256"
        }
      ],
      "name": "devMint",
      "outputs": [],
      "stateMutability": "nonpayable",
      "type": "function"
    },
    {
      "inputs": [],
      "name": "forceReveal",
      "outputs": [],
      "stateMutability": "nonpayable",
      "type": "function"
    },
    {
      "inputs": [
        {
          "internalType": "uint256",
          "name": "tokenId",
          "type": "uint256"
        }
      ],
      "name": "getApproved",
      "outputs": [
        {
          "internalType": "address",
          "name": "",
          "type": "address"
        }
      ],
      "stateMutability": "view",
      "type": "function"
    },
    {
      "inputs": [
        {
          "internalType": "uint256",
          "name": "_tokenId",
          "type": "uint256"
        }
      ],
      "name": "getOwnershipData",
      "outputs": [
        {
          "components": [
            {
              "internalType": "address",
              "name": "addr",
              "type": "address"
            },
            {
              "internalType": "uint64",
              "name": "startTimestamp",
              "type": "uint64"
            },
            {
              "internalType": "bool",
              "name": "burned",
              "type": "bool"
            }
          ],
          "internalType": "struct ERC721AUpgradeable.TokenOwnership",
          "name": "",
          "type": "tuple"
        }
      ],
      "stateMutability": "view",
      "type": "function"
    },
    {
      "inputs": [],
      "name": "hasBatchToReveal",
      "outputs": [
        {
          "internalType": "bool",
          "name": "",
          "type": "bool"
        },
        {
          "internalType": "uint256",
          "name": "",
          "type": "uint256"
        }
      ],
      "stateMutability": "view",
      "type": "function"
    },
    {
      "inputs": [],
      "name": "hasBeenForceRevealed",
      "outputs": [
        {
          "internalType": "bool",
          "name": "",
          "type": "bool"
        }
      ],
      "stateMutability": "view",
      "type": "function"
    },
    {
      "inputs": [
        {
          "internalType": "string",
          "name": "_name",
          "type": "string"
        },
        {
          "internalType": "string",
          "name": "_symbol",
          "type": "string"
        },
        {
          "internalType": "address",
          "name": "_projectOwner",
          "type": "address"
        },
        {
          "internalType": "address",
          "name": "_royaltyReceiver",
          "type": "address"
        },
        {
          "internalType": "uint256",
          "name": "_maxBatchSize",
          "type": "uint256"
        },
        {
          "internalType": "uint256",
          "name": "_collectionSize",
          "type": "uint256"
        },
        {
          "internalType": "uint256",
          "name": "_amountForDevs",
          "type": "uint256"
        },
        {
          "internalType": "uint256",
          "name": "_amountForAllowlist",
          "type": "uint256"
        },
        {
          "internalType": "uint256",
          "name": "_batchRevealSize",
          "type": "uint256"
        },
        {
          "internalType": "uint256",
          "name": "_revealStartTime",
          "type": "uint256"
        },
        {
          "internalType": "uint256",
          "name": "_revealInterval",
          "type": "uint256"
        }
      ],
      "name": "initialize",
      "outputs": [],
      "stateMutability": "nonpayable",
      "type": "function"
    },
    {
      "inputs": [
        {
          "internalType": "uint256",
          "name": "_joeFeePercent",
          "type": "uint256"
        },
        {
          "internalType": "address",
          "name": "_joeFeeCollector",
          "type": "address"
        }
      ],
      "name": "initializeJoeFee",
      "outputs": [],
      "stateMutability": "nonpayable",
      "type": "function"
    },
    {
      "inputs": [
        {
          "internalType": "uint256",
          "name": "_allowlistStartTime",
          "type": "uint256"
        },
        {
          "internalType": "uint256",
          "name": "_publicSaleStartTime",
          "type": "uint256"
        },
        {
          "internalType": "uint256",
          "name": "_allowlistPrice",
          "type": "uint256"
        },
        {
          "internalType": "uint256",
          "name": "_salePrice",
          "type": "uint256"
        }
      ],
      "name": "initializePhases",
      "outputs": [],
      "stateMutability": "nonpayable",
      "type": "function"
    },
    {
      "inputs": [
        {
          "internalType": "address",
          "name": "owner",
          "type": "address"
        },
        {
          "internalType": "address",
          "name": "operator",
          "type": "address"
        }
      ],
      "name": "isApprovedForAll",
      "outputs": [
        {
          "internalType": "bool",
          "name": "",
          "type": "bool"
        }
      ],
      "stateMutability": "view",
      "type": "function"
    },
    {
      "inputs": [],
      "name": "joeFeeCollector",
      "outputs": [
        {
          "internalType": "address",
          "name": "",
          "type": "address"
        }
      ],
      "stateMutability": "view",
      "type": "function"
    },
    {
      "inputs": [],
      "name": "joeFeePercent",
      "outputs": [
        {
          "internalType": "uint256",
          "name": "",
          "type": "uint256"
        }
      ],
      "stateMutability": "view",
      "type": "function"
    },
    {
      "inputs": [],
      "name": "keyHash",
      "outputs": [
        {
          "internalType": "bytes32",
          "name": "",
          "type": "bytes32"
        }
      ],
      "stateMutability": "view",
      "type": "function"
    },
    {
      "inputs": [],
      "name": "lastTokenRevealed",
      "outputs": [
        {
          "internalType": "uint256",
          "name": "",
          "type": "uint256"
        }
      ],
      "stateMutability": "view",
      "type": "function"
    },
    {
      "inputs": [],
      "name": "maxBatchSize",
      "outputs": [
        {
          "internalType": "uint256",
          "name": "",
          "type": "uint256"
        }
      ],
      "stateMutability": "view",
      "type": "function"
    },
    {
      "inputs": [],
      "name": "maxPerAddressDuringMint",
      "outputs": [
        {
          "internalType": "uint256",
          "name": "",
          "type": "uint256"
        }
      ],
      "stateMutability": "view",
      "type": "function"
    },
    {
      "inputs": [],
      "name": "name",
      "outputs": [
        {
          "internalType": "string",
          "name": "",
          "type": "string"
        }
      ],
      "stateMutability": "view",
      "type": "function"
    },
    {
      "inputs": [],
      "name": "nextBatchToReveal",
      "outputs": [
        {
          "internalType": "uint256",
          "name": "",
          "type": "uint256"
        }
      ],
      "stateMutability": "view",
      "type": "function"
    },
    {
      "inputs": [
        {
          "internalType": "address",
          "name": "_owner",
          "type": "address"
        }
      ],
      "name": "numberMinted",
      "outputs": [
        {
          "internalType": "uint256",
          "name": "",
          "type": "uint256"
        }
      ],
      "stateMutability": "view",
      "type": "function"
    },
    {
      "inputs": [],
      "name": "owner",
      "outputs": [
        {
          "internalType": "address",
          "name": "",
          "type": "address"
        }
      ],
      "stateMutability": "view",
      "type": "function"
    },
    {
      "inputs": [
        {
          "internalType": "uint256",
          "name": "tokenId",
          "type": "uint256"
        }
      ],
      "name": "ownerOf",
      "outputs": [
        {
          "internalType": "address",
          "name": "",
          "type": "address"
        }
      ],
      "stateMutability": "view",
      "type": "function"
    },
    {
      "inputs": [],
      "name": "projectOwner",
      "outputs": [
        {
          "internalType": "address",
          "name": "",
          "type": "address"
        }
      ],
      "stateMutability": "view",
      "type": "function"
    },
    {
      "inputs": [
        {
          "internalType": "uint256",
          "name": "_quantity",
          "type": "uint256"
        }
      ],
      "name": "publicSaleMint",
      "outputs": [],
      "stateMutability": "payable",
      "type": "function"
    },
    {
      "inputs": [],
      "name": "publicSaleStartTime",
      "outputs": [
        {
          "internalType": "uint256",
          "name": "",
          "type": "uint256"
        }
      ],
      "stateMutability": "view",
      "type": "function"
    },
    {
      "inputs": [
        {
          "internalType": "uint256",
          "name": "requestId",
          "type": "uint256"
        },
        {
          "internalType": "uint256[]",
          "name": "randomWords",
          "type": "uint256[]"
        }
      ],
      "name": "rawFulfillRandomWords",
      "outputs": [],
      "stateMutability": "nonpayable",
      "type": "function"
    },
    {
      "inputs": [],
      "name": "renounceOwnership",
      "outputs": [],
      "stateMutability": "nonpayable",
      "type": "function"
    },
    {
      "inputs": [],
      "name": "requestConfirmations",
      "outputs": [
        {
          "internalType": "uint16",
          "name": "",
          "type": "uint16"
        }
      ],
      "stateMutability": "view",
      "type": "function"
    },
    {
      "inputs": [],
      "name": "revealBatchSize",
      "outputs": [
        {
          "internalType": "uint256",
          "name": "",
          "type": "uint256"
        }
      ],
      "stateMutability": "view",
      "type": "function"
    },
    {
      "inputs": [],
      "name": "revealInterval",
      "outputs": [
        {
          "internalType": "uint256",
          "name": "",
          "type": "uint256"
        }
      ],
      "stateMutability": "view",
      "type": "function"
    },
    {
      "inputs": [],
      "name": "revealNextBatch",
      "outputs": [],
      "stateMutability": "nonpayable",
      "type": "function"
    },
    {
      "inputs": [],
      "name": "revealStartTime",
      "outputs": [
        {
          "internalType": "uint256",
          "name": "",
          "type": "uint256"
        }
      ],
      "stateMutability": "view",
      "type": "function"
    },
    {
      "inputs": [
        {
          "internalType": "uint256",
          "name": "_tokenId",
          "type": "uint256"
        },
        {
          "internalType": "uint256",
          "name": "_salePrice",
          "type": "uint256"
        }
      ],
      "name": "royaltyInfo",
      "outputs": [
        {
          "internalType": "address",
          "name": "",
          "type": "address"
        },
        {
          "internalType": "uint256",
          "name": "",
          "type": "uint256"
        }
      ],
      "stateMutability": "view",
      "type": "function"
    },
    {
      "inputs": [
        {
          "internalType": "address",
          "name": "from",
          "type": "address"
        },
        {
          "internalType": "address",
          "name": "to",
          "type": "address"
        },
        {
          "internalType": "uint256",
          "name": "tokenId",
          "type": "uint256"
        }
      ],
      "name": "safeTransferFrom",
      "outputs": [],
      "stateMutability": "nonpayable",
      "type": "function"
    },
    {
      "inputs": [
        {
          "internalType": "address",
          "name": "from",
          "type": "address"
        },
        {
          "internalType": "address",
          "name": "to",
          "type": "address"
        },
        {
          "internalType": "uint256",
          "name": "tokenId",
          "type": "uint256"
        },
        {
          "internalType": "bytes",
          "name": "_data",
          "type": "bytes"
        }
      ],
      "name": "safeTransferFrom",
      "outputs": [],
      "stateMutability": "nonpayable",
      "type": "function"
    },
    {
      "inputs": [],
      "name": "salePrice",
      "outputs": [
        {
          "internalType": "uint256",
          "name": "",
          "type": "uint256"
        }
      ],
      "stateMutability": "view",
      "type": "function"
    },
    {
      "inputs": [
        {
          "internalType": "address[]",
          "name": "_addresses",
          "type": "address[]"
        },
        {
          "internalType": "uint256[]",
          "name": "_numNfts",
          "type": "uint256[]"
        }
      ],
      "name": "seedAllowlist",
      "outputs": [],
      "stateMutability": "nonpayable",
      "type": "function"
    },
    {
      "inputs": [
        {
          "internalType": "address",
          "name": "operator",
          "type": "address"
        },
        {
          "internalType": "bool",
          "name": "approved",
          "type": "bool"
        }
      ],
      "name": "setApprovalForAll",
      "outputs": [],
      "stateMutability": "nonpayable",
      "type": "function"
    },
    {
      "inputs": [
        {
          "internalType": "string",
          "name": "_baseURI",
          "type": "string"
        }
      ],
      "name": "setBaseURI",
      "outputs": [],
      "stateMutability": "nonpayable",
      "type": "function"
    },
    {
      "inputs": [
        {
          "internalType": "address",
          "name": "_projectOwner",
          "type": "address"
        }
      ],
      "name": "setProjectOwner",
      "outputs": [],
      "stateMutability": "nonpayable",
      "type": "function"
    },
    {
      "inputs": [
        {
          "internalType": "address",
          "name": "_receiver",
          "type": "address"
        },
        {
          "internalType": "uint96",
          "name": "_feePercent",
          "type": "uint96"
        }
      ],
      "name": "setRoyaltyInfo",
      "outputs": [],
      "stateMutability": "nonpayable",
      "type": "function"
    },
    {
      "inputs": [
        {
          "internalType": "string",
          "name": "_unrevealedURI",
          "type": "string"
        }
      ],
      "name": "setUnrevealedURI",
      "outputs": [],
      "stateMutability": "nonpayable",
      "type": "function"
    },
    {
      "inputs": [
        {
          "internalType": "address",
          "name": "_vrfCoordinator",
          "type": "address"
        },
        {
          "internalType": "bytes32",
          "name": "_keyHash",
          "type": "bytes32"
        },
        {
          "internalType": "uint64",
          "name": "_subscriptionId",
          "type": "uint64"
        },
        {
          "internalType": "uint32",
          "name": "_callbackGasLimit",
          "type": "uint32"
        }
      ],
      "name": "setVRF",
      "outputs": [],
      "stateMutability": "nonpayable",
      "type": "function"
    },
    {
      "inputs": [],
      "name": "subscriptionId",
      "outputs": [
        {
          "internalType": "uint64",
          "name": "",
          "type": "uint64"
        }
      ],
      "stateMutability": "view",
      "type": "function"
    },
    {
      "inputs": [
        {
          "internalType": "bytes4",
          "name": "_interfaceId",
          "type": "bytes4"
        }
      ],
      "name": "supportsInterface",
      "outputs": [
        {
          "internalType": "bool",
          "name": "",
          "type": "bool"
        }
      ],
      "stateMutability": "view",
      "type": "function"
    },
    {
      "inputs": [],
      "name": "symbol",
      "outputs": [
        {
          "internalType": "string",
          "name": "",
          "type": "string"
        }
      ],
      "stateMutability": "view",
      "type": "function"
    },
    {
      "inputs": [
        {
          "internalType": "uint256",
          "name": "_id",
          "type": "uint256"
        }
      ],
      "name": "tokenURI",
      "outputs": [
        {
          "internalType": "string",
          "name": "",
          "type": "string"
        }
      ],
      "stateMutability": "view",
      "type": "function"
    },
    {
      "inputs": [],
      "name": "totalSupply",
      "outputs": [
        {
          "internalType": "uint256",
          "name": "",
          "type": "uint256"
        }
      ],
      "stateMutability": "view",
      "type": "function"
    },
    {
      "inputs": [
        {
          "internalType": "address",
          "name": "from",
          "type": "address"
        },
        {
          "internalType": "address",
          "name": "to",
          "type": "address"
        },
        {
          "internalType": "uint256",
          "name": "tokenId",
          "type": "uint256"
        }
      ],
      "name": "transferFrom",
      "outputs": [],
      "stateMutability": "nonpayable",
      "type": "function"
    },
    {
      "inputs": [
        {
          "internalType": "address",
          "name": "newOwner",
          "type": "address"
        }
      ],
      "name": "transferOwnership",
      "outputs": [],
      "stateMutability": "nonpayable",
      "type": "function"
    },
    {
      "inputs": [],
      "name": "unrevealedURI",
      "outputs": [
        {
          "internalType": "string",
          "name": "",
          "type": "string"
        }
      ],
      "stateMutability": "view",
      "type": "function"
    },
    {
      "inputs": [],
      "name": "useVRF",
      "outputs": [
        {
          "internalType": "bool",
          "name": "",
          "type": "bool"
        }
      ],
      "stateMutability": "view",
      "type": "function"
    },
    {
      "inputs": [
        {
          "internalType": "uint256",
          "name": "",
          "type": "uint256"
        }
      ],
      "name": "vrfRequestedForBatch",
      "outputs": [
        {
          "internalType": "bool",
          "name": "",
          "type": "bool"
        }
      ],
      "stateMutability": "view",
      "type": "function"
    },
    {
      "inputs": [
        {
          "internalType": "address",
          "name": "_to",
          "type": "address"
        }
      ],
      "name": "withdrawAVAX",
      "outputs": [],
      "stateMutability": "nonpayable",
      "type": "function"
    }
  ],
  "transactionHash": "0x73b111453b0469dc93fa28c3ec28b55d0bdcfc8a4a0a0de0e824ea28fbfef369",
  "args": [],
  "numDeployments": 5,
  "solcInputHash": "607b3ca655ce06ef5c8dd68e5fe5495c",
  "bytecode": "0x60806040526000609b5534801561001557600080fd5b506148ae806100256000396000f3fe6080604052600436106104055760003560e01c8063715018a611610213578063bd817f2b11610123578063d9a6f705116100ab578063f2fde38b1161007a578063f2fde38b14610c20578063f431919514610c40578063f51f96dd14610c56578063fbe1aa5114610c6d578063fe2c7fee14610c8457600080fd5b8063d9a6f70514610baa578063dc33e68114610bc0578063e985e9c514610be0578063ecbbfea314610c0057600080fd5b8063c87b56dd116100f2578063c87b56dd14610b1d578063cc0bef8414610b3d578063d0061f8814610b53578063d62b630314610b73578063d66f3a7914610b8a57600080fd5b8063bd817f2b14610aae578063c180526a14610ade578063c5482fe314610af1578063c81e156e14610b0857600080fd5b8063963331d8116101a6578063a7cd52cb11610175578063a7cd52cb14610a05578063b05863d514610a33578063b0fb162f14610a53578063b3ab66b014610a7b578063b88d4fde14610a8e57600080fd5b8063963331d81461098d578063a22cb465146109a4578063a2416f74146109c4578063a4475ce4146109e457600080fd5b80638da5cb5b116101e25780638da5cb5b146108ed57806390967a521461090b5780639231ab2a1461092257806395d89b411461097857600080fd5b8063715018a614610874578063777c90911461088957806379fecd17146108b65780638bc35c2f146108d657600080fd5b80632913daa0116103195780635bb21376116102a15780636352211e116102705780636352211e146107f35780636bb7b1d9146108135780636c0360eb1461082a5780637035bf181461083f57806370a082311461085457600080fd5b80635bb21376146107905780635c7034af146107b157806361728f39146107c8578063622f1c47146107de57600080fd5b80633d5ece85116102e85780633d5ece851461070c57806342842e0e1461072257806345c0f5331461074257806355f804b31461075957806359d7bc4d1461077957600080fd5b80632913daa01461067f5780632a55205a14610696578063375a069a146106d55780633cc4cadb146106f557600080fd5b806309c1ba2e1161039c5780631fe543e31161036b5780631fe543e3146105dd5780632192f043146105fd57806323b872dd14610617578063247cd8ad1461063757806324f746971461064d57600080fd5b806309c1ba2e146105435780630b5648101461058057806318160ddd146105a45780631c0310a5146105bd57600080fd5b806306038341116103d857806306038341146104af57806306fdde03146104c9578063081812fc146104eb578063095ea7b31461052357600080fd5b806301ffc9a71461040a57806302fa7c471461043f57806303851c2814610461578063055ad42e1461048d575b600080fd5b34801561041657600080fd5b5061042a610425366004613f0f565b610ca4565b60405190151581526020015b60405180910390f35b34801561044b57600080fd5b5061045f61045a366004613e76565b610ccf565b005b34801561046d57600080fd5b50610476610d84565b604080519215158352602083019190915201610436565b34801561049957600080fd5b506104a2610da4565b6040516104369190614462565b3480156104bb57600080fd5b50609f5461042a9060ff1681565b3480156104d557600080fd5b506104de610df7565b604051610436919061448a565b3480156104f757600080fd5b5061050b61050636600461414c565b610e89565b6040516001600160a01b039091168152602001610436565b34801561052f57600080fd5b5061045f61053e366004613e4a565b610ecd565b34801561054f57600080fd5b50609f546105689061010090046001600160401b031681565b6040516001600160401b039091168152602001610436565b34801561058c57600080fd5b5061059660995481565b604051908152602001610436565b3480156105b057600080fd5b5060665460655403610596565b3480156105c957600080fd5b5061045f6105d8366004613cae565b610f5b565b3480156105e957600080fd5b5061045f6105f83660046141a3565b61114e565b34801561060957600080fd5b5060a35461042a9060ff1681565b34801561062357600080fd5b5061045f610632366004613d04565b61119c565b34801561064357600080fd5b50610596609e5481565b34801561065957600080fd5b5060a15461066a9063ffffffff1681565b60405163ffffffff9091168152602001610436565b34801561068b57600080fd5b5061059661013e5481565b3480156106a257600080fd5b506106b66106b1366004614246565b6111a7565b604080516001600160a01b039093168352602083019190915201610436565b3480156106e157600080fd5b5061045f6106f036600461414c565b611257565b34801561070157600080fd5b506105966101475481565b34801561071857600080fd5b5061059660a25481565b34801561072e57600080fd5b5061045f61073d366004613d04565b6113b1565b34801561074e57600080fd5b5061059661013b5481565b34801561076557600080fd5b5061045f610774366004613f49565b6113cc565b34801561078557600080fd5b506105966101495481565b34801561079c57600080fd5b506101415461050b906001600160a01b031681565b3480156107bd57600080fd5b506105966101465481565b3480156107d457600080fd5b5061059660a05481565b3480156107ea57600080fd5b5061045f611441565b3480156107ff57600080fd5b5061050b61080e36600461414c565b611495565b34801561081f57600080fd5b5061059661014a5481565b34801561083657600080fd5b506104de6114a7565b34801561084b57600080fd5b506104de611536565b34801561086057600080fd5b5061059661086f366004613cae565b611544565b34801561088057600080fd5b5061045f611592565b34801561089557600080fd5b506105966108a436600461414c565b609a6020526000908152604090205481565b3480156108c257600080fd5b5061045f6108d1366004613fba565b6115c6565b3480156108e257600080fd5b5061059661013f5481565b3480156108f957600080fd5b5060a5546001600160a01b031661050b565b34801561091757600080fd5b5061059661014b5481565b34801561092e57600080fd5b5061094261093d36600461414c565b6116b0565b6040805182516001600160a01b031681526020808401516001600160401b03169082015291810151151590820152606001610436565b34801561098457600080fd5b506104de6116d6565b34801561099957600080fd5b506105966101485481565b3480156109b057600080fd5b5061045f6109bf366004613dc4565b6116e5565b3480156109d057600080fd5b5061045f6109df366004613cae565b61177b565b3480156109f057600080fd5b506101425461050b906001600160a01b031681565b348015610a1157600080fd5b50610596610a20366004613cae565b6101456020526000908152604090205481565b348015610a3f57600080fd5b5061045f610a4e366004613ea4565b611817565b348015610a5f57600080fd5b50610a68600381565b60405161ffff9091168152602001610436565b61045f610a8936600461414c565b61190f565b348015610a9a57600080fd5b5061045f610aa9366004613d45565b611a87565b348015610aba57600080fd5b5061042a610ac936600461414c565b60a46020526000908152604090205460ff1681565b61045f610aec36600461414c565b611ad8565b348015610afd57600080fd5b506105966101405481565b348015610b1457600080fd5b5061045f611c3a565b348015610b2957600080fd5b506104de610b3836600461414c565b611c6c565b348015610b4957600080fd5b50610596609d5481565b348015610b5f57600080fd5b5061045f610b6e366004614268565b611d4a565b348015610b7f57600080fd5b5061059661013d5481565b348015610b9657600080fd5b5061045f610ba5366004613df7565b611e79565b348015610bb657600080fd5b5061059661271081565b348015610bcc57600080fd5b50610596610bdb366004613cae565b6121ab565b348015610bec57600080fd5b5061042a610bfb366004613ccb565b6121d9565b348015610c0c57600080fd5b5061045f610c1b36600461417e565b612207565b348015610c2c57600080fd5b5061045f610c3b366004613cae565b612302565b348015610c4c57600080fd5b50610596609b5481565b348015610c6257600080fd5b5061059661014c5481565b348015610c7957600080fd5b5061059661013c5481565b348015610c9057600080fd5b5061045f610c9f366004613f49565b61239d565b60006001600160e01b03198216635f2d056560e11b1480610cc95750610cc982612406565b92915050565b60a5546001600160a01b03163314610d025760405162461bcd60e51b8152600401610cf990614522565b60405180910390fd5b6109c4816001600160601b03161115610d2e576040516306f644f160e31b815260040160405180910390fd5b610d38828261243e565b6040516001600160601b03821681526001600160a01b038316907fd85b7816dca44c313f0fdadd9567f99f3620a2fac7c21a8a7872e1ac4d10fe55906020015b60405180910390a25050565b600080610d9c610d976066546065540390565b61253c565b915091509091565b60006101495460001480610db9575061014a54155b80610dc657506101495442105b15610dd15750600090565b610149544210158015610de6575061014a5442105b15610df15750600290565b50600390565b606060678054610e0690614739565b80601f0160208091040260200160405190810160405280929190818152602001828054610e3290614739565b8015610e7f5780601f10610e5457610100808354040283529160200191610e7f565b820191906000526020600020905b815481529060010190602001808311610e6257829003601f168201915b5050505050905090565b6000610e94826125c1565b610eb1576040516333d1c03960e21b815260040160405180910390fd5b506000908152606b60205260409020546001600160a01b031690565b6000610ed882611495565b9050806001600160a01b0316836001600160a01b03161415610f0d5760405163250fdee360e21b815260040160405180910390fd5b336001600160a01b03821614801590610f2d5750610f2b81336121d9565b155b15610f4b576040516367d9dca160e11b815260040160405180910390fd5b610f568383836125ed565b505050565b60a5546001600160a01b03163314610f855760405162461bcd60e51b8152600401610cf990614522565b600260d7541415610fd85760405162461bcd60e51b815260206004820152601f60248201527f5265656e7472616e637947756172643a207265656e7472616e742063616c6c006044820152606401610cf9565b600260d75561014054479060009081901561108d576127106101405484610fff9190614670565b611009919061465c565b915061101582846146df565b610141546040519194506001600160a01b0316908390600081818185875af1925050503d8060008114611064576040519150601f19603f3d011682016040523d82523d6000602084013e611069565b606091505b5050809150508061108d57604051633aa9e60d60e21b815260040160405180910390fd5b6040516001600160a01b038516908490600081818185875af1925050503d80600081146110d6576040519150601f19603f3d011682016040523d82523d6000602084013e6110db565b606091505b505080915050806110ff57604051633aa9e60d60e21b815260040160405180910390fd5b60408051848152602081018490526001600160a01b038616917f12eb5d7ccd4ce398edc94007dfbaa22fa2ac8775a3633530f36053ad765262f4910160405180910390a25050600160d7555050565b6000546001600160a01b0316331461118e5760005460405163073e64fd60e21b81523360048201526001600160a01b039091166024820152604401610cf9565b6111988282612649565b5050565b610f56838383612737565b600082815261010a602090815260408083208151808301909252546001600160a01b038116808352600160a01b9091046001600160601b031692820192909252829161121e575060408051808201909152610109546001600160a01b0381168252600160a01b90046001600160601b031660208201525b60208101516000906127109061123d906001600160601b031687614670565b611247919061465c565b91519350909150505b9250929050565b610142546001600160a01b0316331461128357604051633059e46160e21b815260040160405180910390fd5b61013b54816112956066546065540390565b61129f9190614644565b11156112be57604051631eddc6a360e11b815260040160405180910390fd5b61013c5481610146546112d19190614644565b11156112f05760405163011310dd60e31b815260040160405180910390fd5b61013e546112fe908261478f565b1561131c57604051633489d12560e01b815260040160405180910390fd5b806101465461132b9190614644565b6101465561013e54600090611340908361465c565b905060005b8181101561137e5761136c3361013e54604051806020016040528060008152506000612925565b8061137681614774565b915050611345565b5060405182815233907f7d8400f0e58ae2e14f85b63f3afb0ca5b29328d8f48046b205fc7f174cf9b5ed90602001610d78565b610f5683838360405180602001604052806000815250611a87565b60a5546001600160a01b031633146113f65760405162461bcd60e51b8152600401610cf990614522565b6114036101438383613adb565b507ff9c7803e94e0d3c02900d8a90893a6d5e90dd04d32a4cfe825520f82bf9f32f6610143604051611435919061449d565b60405180910390a15050565b32331461146157604051633059e46160e21b815260040160405180910390fd5b6114766114716066546065540390565b612ae7565b6114935760405163fc58cf3f60e01b815260040160405180910390fd5b565b60006114a082612c5c565b5192915050565b61014380546114b590614739565b80601f01602080910402602001604051908101604052809291908181526020018280546114e190614739565b801561152e5780601f106115035761010080835404028352916020019161152e565b820191906000526020600020905b81548152906001019060200180831161151157829003601f168201915b505050505081565b61014480546114b590614739565b60006001600160a01b03821661156d576040516323d3ad8160e21b815260040160405180910390fd5b506001600160a01b03166000908152606a60205260409020546001600160401b031690565b60a5546001600160a01b031633146115bc5760405162461bcd60e51b8152600401610cf990614522565b6114936000612d76565b600054600160a81b900460ff166115ea57600054600160a01b900460ff16156115ee565b303b155b6116515760405162461bcd60e51b815260206004820152602e60248201527f496e697469616c697a61626c653a20636f6e747261637420697320616c72656160448201526d191e481a5b9a5d1a585b1a5e995960921b6064820152608401610cf9565b600054600160a81b900460ff1615801561167b576000805461ffff60a01b191661010160a01b1790555b61168e8c8c8c8c8c8c8c8c8c8c8c612dc8565b80156116a2576000805460ff60a81b191690555b505050505050505050505050565b6040805160608101825260008082526020820181905291810191909152610cc982612c5c565b606060688054610e0690614739565b6001600160a01b03821633141561170f5760405163b06307db60e01b815260040160405180910390fd5b336000818152606c602090815260408083206001600160a01b03871680855290835292819020805460ff191686151590811790915590519081529192917f17307eab39ab6107e8899845ad3d59bd9653f200f220920489ca2b5937696c31910160405180910390a35050565b60a5546001600160a01b031633146117a55760405162461bcd60e51b8152600401610cf990614522565b6001600160a01b0381166117cc576040516331ae7ba360e21b815260040160405180910390fd5b61014280546001600160a01b0319166001600160a01b0383169081179091556040517ff9683e9ced97b7e1d517c5b24e9d1f37f9a0ab14c4865055aad181c8c68a689d90600090a250565b60a5546001600160a01b031633146118415760405162461bcd60e51b8152600401610cf990614522565b8281811461186257604051638d62a9d560e01b815260040160405180910390fd5b60005b818110156118de5783838281811061187f5761187f6147e5565b90506020020135610145600088888581811061189d5761189d6147e5565b90506020020160208101906118b29190613cae565b6001600160a01b03168152602081019190915260400160002055806118d681614774565b915050611865565b506040517f0df27beb8d16f5e61d125286ba69a986a702ac83921bb1864629ca5e662e84d490600090a15050505050565b32331461192f57604051633059e46160e21b815260040160405180910390fd5b60038061193a610da4565b600381111561194b5761194b6147cf565b14611969576040516338df794b60e01b815260040160405180910390fd5b61013f5482611977336121ab565b6119819190614644565b11156119a0576040516335e62b7b60e21b815260040160405180910390fd5b61013b54826119b26066546065540390565b6119bc9190614644565b11156119db57604051631eddc6a360e11b815260040160405180910390fd5b60008261014c546119ec9190614670565b9050611a0a3384604051806020016040528060008152506000612925565b826101486000828254611a1d9190614644565b909155505061014c5433907fb4c03061fb5b7fed76389d5af8f2e0ddb09f8c70d1333abbb62582835e10accb90859081611a5660655490565b611a6091906146df565b6040805193845260208401929092529082015260600160405180910390a2610f5681612f20565b611a92848484612737565b6001600160a01b0383163b15158015611ab45750611ab284848484612fbb565b155b15611ad2576040516368d2bf6b60e11b815260040160405180910390fd5b50505050565b600280611ae3610da4565b6003811115611af457611af46147cf565b14611b12576040516338df794b60e01b815260040160405180910390fd5b3360009081526101456020526040902054821115611b43576040516390e50aa560e01b815260040160405180910390fd5b61013b5482611b556066546065540390565b611b5f9190614644565b1180611b7b575061013d548261014754611b799190614644565b115b15611b9957604051631eddc6a360e11b815260040160405180910390fd5b336000908152610145602052604081208054849290611bb99084906146df565b909155505061014b54600090611bd0908490614670565b9050611bee3384604051806020016040528060008152506000612925565b826101476000828254611c019190614644565b909155505061014b5433907fb4c03061fb5b7fed76389d5af8f2e0ddb09f8c70d1333abbb62582835e10accb90859081611a5660655490565b60a5546001600160a01b03163314611c645760405162461bcd60e51b8152600401610cf990614522565b6114936130b3565b6060609b548210611d0a576101448054611c8590614739565b80601f0160208091040260200160405190810160405280929190818152602001828054611cb190614739565b8015611cfe5780601f10611cd357610100808354040283529160200191611cfe565b820191906000526020600020905b815481529060010190602001808311611ce157829003601f168201915b50505050509050919050565b610143611d1e611d1984613137565b6131f7565b604051602001611d2f9291906143a2565b6040516020818303038152906040529050919050565b919050565b60a5546001600160a01b03163314611d745760405162461bcd60e51b8152600401610cf990614522565b600080611d7f610da4565b6003811115611d9057611d906147cf565b14611dae576040516338df794b60e01b815260040160405180910390fd5b42851015611dcf57604051639db169d760e01b815260040160405180910390fd5b84841015611df0576040516335bcfe2b60e21b815260040160405180910390fd5b81831115611e1157604051631da61f9760e11b815260040160405180910390fd5b61014c82905561014b83905561014985905561014a8490556040805186815260208101869052908101849052606081018390527f21adc90360bc280b314eb6502b95564cc7180b3d7cdb300b03a8a2f41de14f3e906080015b60405180910390a15050505050565b60a5546001600160a01b03163314611ea35760405162461bcd60e51b8152600401610cf990614522565b6001600160a01b038416611eca5760405163148b036560e31b815260040160405180910390fd5b600080856001600160a01b0316620122916040518163ffffffff1660e01b815260040160006040518083038186803b158015611f0557600080fd5b505afa158015611f19573d6000803e3d6000fd5b505050506040513d6000823e601f3d908101601f19168201604052611f41919081019061407f565b92509250508163ffffffff168363ffffffff161180611f675750614e208363ffffffff16105b15611f855760405163386883d560e21b815260040160405180910390fd5b6000805b8251811015611fce5786838281518110611fa557611fa56147e5565b60200260200101511415611fbc5760019150611fce565b80611fc681614774565b915050611f89565b5080611fed5760405163f0471d8160e01b815260040160405180910390fd5b60405163523e3b4b60e11b81526001600160401b03861660048201526000906001600160a01b0389169063a47c76969060240160006040518083038186803b15801561203857600080fd5b505afa15801561204c573d6000803e3d6000fd5b505050506040513d6000823e601f3d908101601f19168201604052612074919081019061429a565b93505050506000805b82518110156120d457306001600160a01b03168382815181106120a2576120a26147e5565b60200260200101516001600160a01b031614156120c257600191506120d4565b806120cc81614774565b91505061207d565b50806120f357604051637af8935960e01b815260040160405180910390fd5b609f8054600080546001600160a01b038d166001600160a01b0319909116811790915560a08b90556001600160401b038a16610100810268ffffffffffffffffff199093169290921760011790925560a1805463ffffffff8a1663ffffffff19909116811790915560408051938452602084018c9052838101929092526060830152517ff3f5a94accd1162546526b6c953c564c76d28a3513d2f9a1ce52df04dff6b9b09181900360800190a1505050505050505050565b6001600160a01b0381166000908152606a6020526040812054600160401b90046001600160401b0316610cc9565b6001600160a01b039182166000908152606c6020908152604080832093909416825291909152205460ff1690565b60a5546001600160a01b031633146122315760405162461bcd60e51b8152600401610cf990614522565b610141546001600160a01b03161561225c576040516345db6e6960e11b815260040160405180910390fd5b61271082111561227f576040516346b7d95d60e11b815260040160405180910390fd5b6001600160a01b0381166122a657604051631a1b629760e21b815260040160405180910390fd5b61014082905561014180546001600160a01b0319166001600160a01b0383169081179091556040805184815260208101929092527fd7d086964f00d2604a80288c460231fe9cfc8e9605e838d49017401111f63adb9101611435565b60a5546001600160a01b0316331461232c5760405162461bcd60e51b8152600401610cf990614522565b6001600160a01b0381166123915760405162461bcd60e51b815260206004820152602660248201527f4f776e61626c653a206e6577206f776e657220697320746865207a65726f206160448201526564647265737360d01b6064820152608401610cf9565b61239a81612d76565b50565b60a5546001600160a01b031633146123c75760405162461bcd60e51b8152600401610cf990614522565b6123d46101448383613adb565b507f4012c6d278d4b460acbc560e9fa4425e187c3b40c848b8dfa248139729efee43610144604051611435919061449d565b6000612411826132f4565b80612420575061242082613334565b8061242f575061242f82613359565b80610cc95750610cc982613334565b6127106001600160601b03821611156124ac5760405162461bcd60e51b815260206004820152602a60248201527f455243323938313a20726f79616c7479206665652077696c6c206578636565646044820152692073616c65507269636560b01b6064820152608401610cf9565b6001600160a01b0382166125025760405162461bcd60e51b815260206004820152601960248201527f455243323938313a20696e76616c6964207265636569766572000000000000006044820152606401610cf9565b604080518082019091526001600160a01b039092168083526001600160601b039091166020909201829052600160a01b9091021761010955565b6000806000609954609b5481612554576125546147b9565b049050609e54816125659190614670565b609d546125729190614644565b42108061258d5750609954609b5461258a9190614644565b84105b806125a65750600081815260a4602052604090205460ff165b156125b657600094909350915050565b600194909350915050565b600060655482108015610cc9575050600090815260696020526040902054600160e01b900460ff161590565b6000828152606b602052604080822080546001600160a01b0319166001600160a01b0387811691821790925591518593918516917f8c5be1e5ebec7d5bd14f71427d1e84f3dd0314c0f7b2291e5b200ac8c7c3b92591a4505050565b60a35460ff161561266d576040516390d5f04560e01b815260040160405180910390fd5b60a280546000918261267e83614774565b9091555060995490915060006126948284614670565b6097546126a191906146df565b846000815181106126b4576126b46147e5565b60200260200101516126c6919061478f565b6000848152609a60205260408120829055609b805492935084929091906126ee908490614644565b90915550506000838152609a6020908152604091829020548251868152918201527fc172d6f677c5cb603b93b418c5bbd19afeb3dc6d48a2c4b658254bdae7203b549101611e6a565b600061274282612c5c565b9050836001600160a01b031681600001516001600160a01b0316146127795760405162a1148160e81b815260040160405180910390fd5b6000336001600160a01b0386161480612797575061279785336121d9565b806127b25750336127a784610e89565b6001600160a01b0316145b9050806127d257604051632ce44b5f60e11b815260040160405180910390fd5b6001600160a01b0384166127f957604051633a954ecd60e21b815260040160405180910390fd5b612805600084876125ed565b6001600160a01b038581166000908152606a60209081526040808320805467ffffffffffffffff198082166001600160401b0392831660001901831617909255898616808652838620805493841693831660019081018416949094179055898652606990945282852080546001600160e01b031916909417600160a01b429092169190910217835587018084529220805491939091166128d95760655482146128d957805460208601516001600160401b0316600160a01b026001600160e01b03199091166001600160a01b038a16171781555b50505082846001600160a01b0316866001600160a01b03167fddf252ad1be2c89b69c2b068fc378daa952ba7f163c4a11628f55a4df523b3ef60405160405180910390a45b5050505050565b6065546001600160a01b03851661294e57604051622e076360e81b815260040160405180910390fd5b8361296c5760405163b562e8dd60e01b815260040160405180910390fd5b6001600160a01b0385166000818152606a6020908152604080832080546001600160801b031981166001600160401b038083168c018116918217600160401b67ffffffffffffffff1990941690921783900481168c01811690920217909155858452606990925290912080546001600160e01b031916909217600160a01b429092169190910217905580808501838015612a0f57506001600160a01b0387163b15155b15612a98575b60405182906001600160a01b038916906000907fddf252ad1be2c89b69c2b068fc378daa952ba7f163c4a11628f55a4df523b3ef908290a4612a606000888480600101955088612fbb565b612a7d576040516368d2bf6b60e11b815260040160405180910390fd5b80821415612a15578260655414612a9357600080fd5b612ade565b5b6040516001830192906001600160a01b038916906000907fddf252ad1be2c89b69c2b068fc378daa952ba7f163c4a11628f55a4df523b3ef908290a480821415612a99575b5060655561291e565b6000806000612af58461253c565b9250905080612b08575060009392505050565b609f5460ff1615612be75760005460a054609f5460a1546040516305d3b1d360e41b815260048101939093526101009091046001600160401b031660248301526003604483015263ffffffff166064820152600160848201526001600160a01b0390911690635d3b1d309060a401602060405180830381600087803b158015612b9057600080fd5b505af1158015612ba4573d6000803e3d6000fd5b505050506040513d601f19601f82011682018060405250810190612bc89190614165565b50600082815260a460205260409020805460ff19166001179055612c52565b609954609b6000828254612bfb9190614644565b90915550612c0a90508261336f565b6000828152609a6020908152604091829020548251858152918201527fc172d6f677c5cb603b93b418c5bbd19afeb3dc6d48a2c4b658254bdae7203b54910160405180910390a15b5060019392505050565b604080516060810182526000808252602082018190529181019190915281606554811015612d5d57600081815260696020908152604091829020825160608101845290546001600160a01b0381168252600160a01b81046001600160401b031692820192909252600160e01b90910460ff16151591810182905290612d5b5780516001600160a01b031615612cf2579392505050565b5060001901600081815260696020908152604091829020825160608101845290546001600160a01b038116808352600160a01b82046001600160401b031693830193909352600160e01b900460ff1615159281019290925215612d56579392505050565b612cf2565b505b604051636f96cda160e11b815260040160405180910390fd5b60a580546001600160a01b038381166001600160a01b0319831681179093556040519116919082907f8be0079c531659141344cd1fd0a4f28419497f9722a3daafe3b4186f6b6457e090600090a35050565b600054600160a81b900460ff16612df15760405162461bcd60e51b8152600401610cf990614557565b612df9613413565b612e01613444565b612e09613475565b612e138b8b61349e565b612e1d83876134d1565b6001600160a01b038916612e44576040516331ae7ba360e21b815260040160405180910390fd5b85612e4f8587614644565b1115612e6e57604051631a231d4360e21b815260040160405180910390fd5b85871115612e8f57604051631ddf40b160e01b815260040160405180910390fd5b612e9c426283d600614644565b821180612eab5750620d2f0081115b15612ec957604051636de655ff60e01b815260040160405180910390fd5b61014280546001600160a01b0319166001600160a01b038b16179055612ef1886101f461243e565b61013e87905561013b9590955561013f959095555061013c9190915561013d55609d91909155609e5550505050565b80341015612f4357604051639968ec3d60e01b8152346004820152602401610cf9565b8034111561239a57600033612f5883346146df565b604051600081818185875af1925050503d8060008114612f94576040519150601f19603f3d011682016040523d82523d6000602084013e612f99565b606091505b505090508061119857604051633aa9e60d60e21b815260040160405180910390fd5b604051630a85bd0160e11b81526000906001600160a01b0385169063150b7a0290612ff0903390899088908890600401614425565b602060405180830381600087803b15801561300a57600080fd5b505af192505050801561303a575060408051601f3d908101601f1916820190925261303791810190613f2c565b60015b613095573d808015613068576040519150601f19603f3d011682016040523d82523d6000602084013e61306d565b606091505b50805161308d576040516368d2bf6b60e11b815260040160405180910390fd5b805181602001fd5b6001600160e01b031916630a85bd0160e11b1490505b949350505050565b6000609954609b54816130c8576130c86147b9565b609954609b805490910190550490506130e08161336f565b60a3805460ff191660011790556000818152609a6020908152604091829020548251848152918201527fc172d6f677c5cb603b93b418c5bbd19afeb3dc6d48a2c4b658254bdae7203b54910160405180910390a150565b60008060995483613148919061465c565b90506000609c546001600160401b03811115613166576131666147fb565b6040519080825280602002602001820160405280156131ab57816020015b60408051808201909152600080825260208201528152602001906001900390816131845790505b5090506131b782613581565b6000838152609a602052604081205460995492935090916131d8908761478f565b6131e29190614644565b90506131ee818361364c565b95945050505050565b60608161321b5750506040805180820190915260018152600360fc1b602082015290565b8160005b8115613245578061322f81614774565b915061323e9050600a8361465c565b915061321f565b6000816001600160401b0381111561325f5761325f6147fb565b6040519080825280601f01601f191660200182016040528015613289576020820181803683370190505b5090505b84156130ab5761329e6001836146df565b91506132ab600a8661478f565b6132b6906030614644565b60f81b8183815181106132cb576132cb6147e5565b60200101906001600160f81b031916908160001a9053506132ed600a8661465c565b945061328d565b60006001600160e01b031982166380ac58cd60e01b148061332557506001600160e01b03198216635b5e139f60e01b145b80610cc95750610cc982613359565b60006001600160e01b0319821663152a902d60e11b1480610cc95750610cc9826132f4565b6001600160e01b0319166301ffc9a760e01b1490565b6000333a4342446133816001846146df565b604080516001600160a01b0390971660208801528601949094526060850192909252608084015260a08301524060c08201523060e0820152610100016040516020818303038152906040528051906020012060001c9050609954826133e69190614670565b6097546133f391906146df565b6133fd908261478f565b6000928352609a60205260409092209190915550565b600054600160a81b900460ff1661343c5760405162461bcd60e51b8152600401610cf990614557565b6114936137a1565b600054600160a81b900460ff1661346d5760405162461bcd60e51b8152600401610cf990614557565b6114936137d3565b600054600160a81b900460ff166114935760405162461bcd60e51b8152600401610cf990614557565b600054600160a81b900460ff166134c75760405162461bcd60e51b8152600401610cf990614557565b6111988282613803565b600054600160a81b900460ff166134fa5760405162461bcd60e51b8152600401610cf990614557565b613504828261478f565b15158061350f575081155b8061351957508082115b1561353757604051636d0ca73b60e11b815260040160405180910390fd5b6099829055609781905561354b828261465c565b613556906002614670565b609c5560988054600f9290920b6001600160801b03166001600160801b031990921691909117905550565b60606000609c546001600160401b0381111561359f5761359f6147fb565b6040519080825280602002602001820160405280156135e457816020015b60408051808201909152600080825260208201528152602001906001900390816135bd5790505b5090506000805b84811015613643576000818152609a602052604081205461360c908561364c565b905060006099548261361e91906145f5565b905061362c8583838761385d565b93505050808061363b90614774565b9150506135eb565b50909392505050565b60008281805b60028110156137845760005b609c5481101561373357600086828151811061367c5761367c6147e5565b6020026020010151600001519050600087838151811061369e5761369e6147e5565b602002602001015160200151905081600f0b85600f0b121561370c5760006136c687876145f5565b905082600f0b81600f0b12156136ed576001600160801b03169650610cc995505050505050565b6136f7868461468f565b613701908861468f565b96508195505061371e565b80600f0b85600f0b121561371e578094505b5050808061372b90614774565b91505061365e565b50609854600f90810b900b61374884846145f5565b600f0b1261377257609854613761908390600f0b61468f565b61376b908461468f565b9250600091505b8061377c81614774565b915050613652565b5061378f82826145f5565b6001600160801b031695945050505050565b600054600160a81b900460ff166137ca5760405162461bcd60e51b8152600401610cf990614557565b61149333612d76565b600054600160a81b900460ff166137fc5760405162461bcd60e51b8152600401610cf990614557565b600160d755565b600054600160a81b900460ff1661382c5760405162461bcd60e51b8152600401610cf990614557565b815161383f906067906020850190613b5f565b508051613853906068906020840190613b5f565b5060006065555050565b600081815b838110156139b957600087828151811061387e5761387e6147e5565b602002602001015160000151905060008883815181106138a0576138a06147e5565b602002602001015160200151905081600f0b88600f0b1280156138c257508584145b156138cb578293505b81600f0b88600f0b1280156138e5575081600f0b87600f0b135b80613907575087600f0b82600f0b13158015613907575080600f0b87600f0b13155b80613927575080600f0b88600f0b128015613927575080600f0b87600f0b135b156139a4576000613938898961468f565b90506139448984613abd565b9850613950838361468f565b61395a828b6145f5565b61396491906145f5565b97506040518060400160405280600019600f0b8152602001600019600f0b8152508a8581518110613997576139976147e5565b6020026020010181905250505b505080806139b190614774565b915050613862565b50825b81811115613a1857866139d06001836146df565b815181106139e0576139e06147e5565b60200260200101518782815181106139fa576139fa6147e5565b60200260200101819052508080613a1090614722565b9150506139bc565b5060408051808201909152600f86810b82526098546020830191613a3e9188910b613abd565b600f0b815250868281518110613a5657613a566147e5565b60200260200101819052508280613a6c90614774565b609854909450600f90810b810b9086900b13159050613ab357609854613aa4908790600090613a9e90600f0b8861468f565b8661385d565b5082613aaf81614774565b9350505b5090949350505050565b600081600f0b83600f0b12613ad25781613ad4565b825b9392505050565b828054613ae790614739565b90600052602060002090601f016020900481019282613b095760008555613b4f565b82601f10613b225782800160ff19823516178555613b4f565b82800160010185558215613b4f579182015b82811115613b4f578235825591602001919060010190613b34565b50613b5b929150613bd3565b5090565b828054613b6b90614739565b90600052602060002090601f016020900481019282613b8d5760008555613b4f565b82601f10613ba657805160ff1916838001178555613b4f565b82800160010185558215613b4f579182015b82811115613b4f578251825591602001919060010190613bb8565b5b80821115613b5b5760008155600101613bd4565b60006001600160401b03831115613c0157613c016147fb565b613c14601f8401601f19166020016145a2565b9050828152838383011115613c2857600080fd5b828260208301376000602084830101529392505050565b8035611d4581614811565b60008083601f840112613c5c57600080fd5b5081356001600160401b03811115613c7357600080fd5b6020830191508360208260051b850101111561125057600080fd5b600082601f830112613c9f57600080fd5b613ad483833560208501613be8565b600060208284031215613cc057600080fd5b8135613ad481614811565b60008060408385031215613cde57600080fd5b8235613ce981614811565b91506020830135613cf981614811565b809150509250929050565b600080600060608486031215613d1957600080fd5b8335613d2481614811565b92506020840135613d3481614811565b929592945050506040919091013590565b60008060008060808587031215613d5b57600080fd5b8435613d6681614811565b93506020850135613d7681614811565b92506040850135915060608501356001600160401b03811115613d9857600080fd5b8501601f81018713613da957600080fd5b613db887823560208401613be8565b91505092959194509250565b60008060408385031215613dd757600080fd5b8235613de281614811565b915060208301358015158114613cf957600080fd5b60008060008060808587031215613e0d57600080fd5b8435613e1881614811565b9350602085013592506040850135613e2f8161484e565b91506060850135613e3f8161483c565b939692955090935050565b60008060408385031215613e5d57600080fd5b8235613e6881614811565b946020939093013593505050565b60008060408385031215613e8957600080fd5b8235613e9481614811565b91506020830135613cf981614863565b60008060008060408587031215613eba57600080fd5b84356001600160401b0380821115613ed157600080fd5b613edd88838901613c4a565b90965094506020870135915080821115613ef657600080fd5b50613f0387828801613c4a565b95989497509550505050565b600060208284031215613f2157600080fd5b8135613ad481614826565b600060208284031215613f3e57600080fd5b8151613ad481614826565b60008060208385031215613f5c57600080fd5b82356001600160401b0380821115613f7357600080fd5b818501915085601f830112613f8757600080fd5b813581811115613f9657600080fd5b866020828501011115613fa857600080fd5b60209290920196919550909350505050565b60008060008060008060008060008060006101608c8e031215613fdc57600080fd5b6001600160401b03808d351115613ff257600080fd5b613fff8e8e358f01613c8e565b9b508060208e0135111561401257600080fd5b506140238d60208e01358e01613c8e565b995061403160408d01613c3f565b985061403f60608d01613c3f565b9a9d999c50979a60808101359960a0820135995060c0820135985060e0820135975061010082013596506101208201359550610140909101359350915050565b60008060006060848603121561409457600080fd5b835161ffff811681146140a657600080fd5b809350506020808501516140b98161483c565b60408601519093506001600160401b038111156140d557600080fd5b8501601f810187136140e657600080fd5b80516140f96140f4826145d2565b6145a2565b8082825284820191508484018a868560051b870101111561411957600080fd5b600094505b8385101561413c57805183526001949094019391850191850161411e565b5080955050505050509250925092565b60006020828403121561415e57600080fd5b5035919050565b60006020828403121561417757600080fd5b5051919050565b6000806040838503121561419157600080fd5b823591506020830135613cf981614811565b600080604083850312156141b657600080fd5b823591506020808401356001600160401b038111156141d457600080fd5b8401601f810186136141e557600080fd5b80356141f36140f4826145d2565b80828252848201915084840189868560051b870101111561421357600080fd5b600094505b83851015614236578035835260019490940193918501918501614218565b5080955050505050509250929050565b6000806040838503121561425957600080fd5b50508035926020909101359150565b6000806000806080858703121561427e57600080fd5b5050823594602084013594506040840135936060013592509050565b600080600080608085870312156142b057600080fd5b84516142bb81614863565b809450506020808601516142ce8161484e565b60408701519094506142df81614811565b60608701519093506001600160401b038111156142fb57600080fd5b8601601f8101881361430c57600080fd5b805161431a6140f4826145d2565b8082825284820191508484018b868560051b870101111561433a57600080fd5b600094505b8385101561436657805161435281614811565b83526001949094019391850191850161433f565b50979a9699509497505050505050565b6000815180845261438e8160208601602086016146f6565b601f01601f19169290920160200192915050565b60008084546143b081614739565b600182811680156143c857600181146143d957614408565b60ff19841687528287019450614408565b8860005260208060002060005b858110156143ff5781548a8201529084019082016143e6565b50505082870194505b50505050835161441c8183602088016146f6565b01949350505050565b6001600160a01b038581168252841660208201526040810183905260806060820181905260009061445890830184614376565b9695505050505050565b602081016004831061448457634e487b7160e01b600052602160045260246000fd5b91905290565b602081526000613ad46020830184614376565b60006020808352600084546144b181614739565b808487015260406001808416600081146144d257600181146144e657614514565b60ff19851689840152606089019550614514565b896000528660002060005b8581101561450c5781548b82018601529083019088016144f1565b8a0184019650505b509398975050505050505050565b6020808252818101527f4f776e61626c653a2063616c6c6572206973206e6f7420746865206f776e6572604082015260600190565b6020808252602b908201527f496e697469616c697a61626c653a20636f6e7472616374206973206e6f74206960408201526a6e697469616c697a696e6760a81b606082015260800190565b604051601f8201601f191681016001600160401b03811182821017156145ca576145ca6147fb565b604052919050565b60006001600160401b038211156145eb576145eb6147fb565b5060051b60200190565b600081600f0b83600f0b600082128260016001607f1b030382138115161561461f5761461f6147a3565b8260016001607f1b031903821281161561463b5761463b6147a3565b50019392505050565b60008219821115614657576146576147a3565b500190565b60008261466b5761466b6147b9565b500490565b600081600019048311821515161561468a5761468a6147a3565b500290565b600081600f0b83600f0b600081128160016001607f1b0319018312811516156146ba576146ba6147a3565b8160016001607f1b030183138116156146d5576146d56147a3565b5090039392505050565b6000828210156146f1576146f16147a3565b500390565b60005b838110156147115781810151838201526020016146f9565b83811115611ad25750506000910152565b600081614731576147316147a3565b506000190190565b600181811c9082168061474d57607f821691505b6020821081141561476e57634e487b7160e01b600052602260045260246000fd5b50919050565b6000600019821415614788576147886147a3565b5060010190565b60008261479e5761479e6147b9565b500690565b634e487b7160e01b600052601160045260246000fd5b634e487b7160e01b600052601260045260246000fd5b634e487b7160e01b600052602160045260246000fd5b634e487b7160e01b600052603260045260246000fd5b634e487b7160e01b600052604160045260246000fd5b6001600160a01b038116811461239a57600080fd5b6001600160e01b03198116811461239a57600080fd5b63ffffffff8116811461239a57600080fd5b6001600160401b038116811461239a57600080fd5b6001600160601b038116811461239a57600080fdfea264697066735822122082a8718d3bce4c6fcf734b1b82059dcbae1cea379f6b69c3ba51e4a85df2fb9064736f6c63430008060033",
  "devdoc": {
    "author": "Trader Joe",
    "events": {
      "Initialized(uint256,uint256,uint256,uint256)": {
        "details": "Emitted on initializePhases()",
        "params": {
          "allowlistPrice": "Price of the allowlist sale in Avax",
          "allowlistStartTime": "Allowlist mint start time in seconds",
          "publicSaleStartTime": "Public sale start time in seconds",
          "salePrice": "Price of the public sale in Avax"
        }
      },
      "Mint(address,uint256,uint256,uint256)": {
        "details": "Emitted on allowlistMint(), publicSaleMint()",
        "params": {
          "price": "Price in AVAX for the NFTs",
          "quantity": "Amount of NFTs minted",
          "sender": "The address that minted",
          "tokenId": "The token ID of the first minted NFT"
        }
      },
      "PublicSaleStateChanged(bool)": {
        "details": "Emitted on setPublicSaleActive()",
        "params": {
          "isActive": "True if the public sale is open, false otherwise"
        }
      }
    },
    "kind": "dev",
    "methods": {
      "allowlistMint(uint256)": {
        "params": {
          "_quantity": "Quantity of NFTs to mint"
        }
      },
      "approve(address,uint256)": {
        "details": "See {IERC721-approve}."
      },
      "balanceOf(address)": {
        "details": "See {IERC721-balanceOf}."
      },
      "currentPhase()": {
        "returns": {
          "_0": "phase Current phase"
        }
      },
      "devMint(uint256)": {
        "details": "Can only mint up to `amountForDevs`",
        "params": {
          "_quantity": "Quantity of NFTs to mint"
        }
      },
      "getApproved(uint256)": {
        "details": "See {IERC721-getApproved}."
      },
      "getOwnershipData(uint256)": {
        "params": {
          "_tokenId": "Token ID"
        },
        "returns": {
          "_0": "TokenOwnership Ownership struct for a specific token ID"
        }
      },
      "hasBatchToReveal()": {
        "returns": {
          "_0": "bool Whether reveal can be triggered or not",
          "_1": "uint256 The number of the next batch that will be revealed"
        }
      },
      "initialize(string,string,address,address,uint256,uint256,uint256,uint256,uint256,uint256,uint256)": {
        "params": {
          "_amountForAllowlist": "Amount of NFTs available for the allowlist mint (e.g 1000)",
          "_amountForDevs": "Amount of NFTs reserved for `projectOwner` (e.g 200)",
          "_batchRevealSize": "Size of the batch reveal",
          "_collectionSize": "The collection size (e.g 10000)",
          "_maxBatchSize": "Max amount of NFTs that can be minted at once",
          "_name": "ERC721 name",
          "_projectOwner": "The project owner",
          "_revealInterval": "Interval between two batch reveals in seconds",
          "_revealStartTime": "Start of the token URIs reveal in seconds",
          "_royaltyReceiver": "Royalty fee collector",
          "_symbol": "ERC721 symbol"
        }
      },
      "initializeJoeFee(uint256,address)": {
        "params": {
          "_joeFeeCollector": "The address to which the fees on the sale will be sent",
          "_joeFeePercent": "The fees collected by Joepegs on the sale benefits"
        }
      },
      "initializePhases(uint256,uint256,uint256,uint256)": {
        "details": "Can only be called once",
        "params": {
          "_allowlistPrice": "Price of the allowlist sale in Avax",
          "_allowlistStartTime": "Allowlist mint start time in seconds",
          "_publicSaleStartTime": "Public sale start time in seconds",
          "_salePrice": "Price of the public sale in Avax"
        }
      },
      "isApprovedForAll(address,address)": {
        "details": "See {IERC721-isApprovedForAll}."
      },
      "name()": {
        "details": "See {IERC721Metadata-name}."
      },
      "numberMinted(address)": {
        "params": {
          "_owner": "The owner of the NFTs"
        },
        "returns": {
          "_0": "numberMinted Number of NFTs minted"
        }
      },
      "owner()": {
        "details": "Returns the address of the current owner."
      },
      "ownerOf(uint256)": {
        "details": "See {IERC721-ownerOf}."
      },
      "publicSaleMint(uint256)": {
        "params": {
          "_quantity": "Quantity of NFTs to mint"
        }
      },
      "renounceOwnership()": {
        "details": "Leaves the contract without owner. It will not be possible to call `onlyOwner` functions anymore. Can only be called by the current owner. NOTE: Renouncing ownership will leave the contract without an owner, thereby removing any functionality that is only available to the owner."
      },
      "royaltyInfo(uint256,uint256)": {
        "details": "Returns how much royalty is owed and to whom, based on a sale price that may be denominated in any unit of exchange. The royalty amount is denominated and should be payed in that same unit of exchange."
      },
      "safeTransferFrom(address,address,uint256)": {
        "details": "See {IERC721-safeTransferFrom}."
      },
      "safeTransferFrom(address,address,uint256,bytes)": {
        "details": "See {IERC721-safeTransferFrom}."
      },
      "seedAllowlist(address[],uint256[])": {
        "params": {
          "_addresses": "List of addresses allowed to mint during the allowlist phase",
          "_numNfts": "List of NFT quantities mintable per address"
        }
      },
      "setApprovalForAll(address,bool)": {
        "details": "See {IERC721-setApprovalForAll}."
      },
      "setBaseURI(string)": {
        "details": "This sets the URI for revealed tokens Only callable by project owner",
        "params": {
          "_baseURI": "Base URI to be set"
        }
      },
      "setProjectOwner(address)": {
        "details": "The project owner can call `devMint` any time",
        "params": {
          "_projectOwner": "The project owner"
        }
      },
      "setRoyaltyInfo(address,uint96)": {
        "params": {
          "_feePercent": "Royalty fee percent in basis point",
          "_receiver": "Royalty fee collector"
        }
      },
      "setUnrevealedURI(string)": {
        "details": "Only callable by project owner",
        "params": {
          "_unrevealedURI": "Unrevealed URI to be set"
        }
      },
      "setVRF(address,bytes32,uint64,uint32)": {
        "params": {
          "_callbackGasLimit": "Max gas used by the coordinator callback",
          "_keyHash": "Keyhash of the gas lane wanted",
          "_subscriptionId": "Chainlink subscription ID",
          "_vrfCoordinator": "Chainlink coordinator address"
        }
      },
      "supportsInterface(bytes4)": {
        "details": "Returns true if this contract implements the interface defined by `interfaceId`. See the corresponding https://eips.ethereum.org/EIPS/eip-165#how-interfaces-are-identified[EIP section] to learn more about how these IDs are created. This function call must use less than 30 000 gas.",
        "params": {
          "_interfaceId": "InterfaceId to consider. Comes from type(Interface).interfaceId"
        },
        "returns": {
          "_0": "isInterfaceSupported True if the considered interface is supported"
        }
      },
      "symbol()": {
        "details": "See {IERC721Metadata-symbol}."
      },
      "tokenURI(uint256)": {
        "params": {
          "_id": "Token id"
        },
        "returns": {
          "_0": "URI Token URI"
        }
      },
      "totalSupply()": {
        "details": "Burned tokens are calculated here, use _totalMinted() if you want to count just minted tokens."
      },
      "transferFrom(address,address,uint256)": {
        "details": "See {IERC721-transferFrom}."
      },
      "transferOwnership(address)": {
        "details": "Transfers ownership of the contract to a new account (`newOwner`). Can only be called by the current owner."
      },
      "withdrawAVAX(address)": {
        "params": {
          "_to": "Recipient of the earned AVAX"
        }
      }
    },
    "stateVariables": {
      "allowlistPrice": {
        "details": "allowlistPrice is scaled to 1e18"
      },
      "salePrice": {
        "details": "salePrice is scaled to 1e18"
      }
    },
    "title": "FlatLaunchpeg",
    "version": 1
  },
  "userdoc": {
    "kind": "user",
    "methods": {
      "BASIS_POINT_PRECISION()": {
        "notice": "Percentage base point"
      },
      "allowlist(address)": {
        "notice": "The amount of NFTs each allowed address can mint during the allowlist mint"
      },
      "allowlistMint(uint256)": {
        "notice": "Mint NFTs during the allowlist mint"
      },
      "allowlistPrice()": {
        "notice": "Price of one NFT for people on the mint list"
      },
      "allowlistStartTime()": {
        "notice": "Start time of the allowlist mint in seconds"
      },
      "amountForAllowlist()": {
        "notice": "Amount of NFTs available for the allowlist mint (e.g 1000)"
      },
      "amountForDevs()": {
        "notice": "Amount of NFTs reserved for `projectOwner` (e.g 200)"
      },
      "amountMintedByDevs()": {
        "notice": "Tracks the amount of NFTs minted by `projectOwner`"
      },
      "amountMintedDuringAllowlist()": {
        "notice": "Tracks the amount of NFTs minted on Allowlist phase"
      },
      "amountMintedDuringPublicSale()": {
        "notice": "Tracks the amount of NFTs minted on Public Sale phase"
      },
      "baseURI()": {
        "notice": "Token URI after collection reveal"
      },
      "batchToSeed(uint256)": {
        "notice": "Randomized seeds used to shuffle TokenURIs"
      },
      "callbackGasLimit()": {
        "notice": "Depends on the number of requested values that you want sent to the fulfillRandomWords() function. Storing each word costs about 20,000 gas, so 100,000 is a safe default for this example contract. Test and adjust this limit based on the network that you select, the size of the request, and the processing of the callback request in the fulfillRandomWords() function."
      },
      "collectionSize()": {
        "notice": "The collection size (e.g 10000)"
      },
      "currentPhase()": {
        "notice": "Returns the current phase"
      },
      "devMint(uint256)": {
        "notice": "Mint NFTs to the project owner"
      },
      "forceReveal()": {
        "notice": "Allows Owner to reveal batches even if the conditions are not met"
      },
      "getOwnershipData(uint256)": {
        "notice": "Returns the ownership data of a specific token ID"
      },
      "hasBatchToReveal()": {
        "notice": "Tells you if a batch can be revealed"
      },
      "hasBeenForceRevealed()": {
        "notice": "Has a batch been force revealed"
      },
      "initialize(string,string,address,address,uint256,uint256,uint256,uint256,uint256,uint256,uint256)": {
        "notice": "FlatLaunchpeg initialization Can only be called once"
      },
      "initializeJoeFee(uint256,address)": {
        "notice": "Initialize the sales fee percent taken by Joepegs and address that collects the fees"
      },
      "initializePhases(uint256,uint256,uint256,uint256)": {
        "notice": "Initialize the two phases of the sale"
      },
      "joeFeeCollector()": {
        "notice": "The address to which the fees on the sale will be sent"
      },
      "joeFeePercent()": {
        "notice": "The fees collected by Joepegs on the sale benefits"
      },
      "keyHash()": {
        "notice": "The gas lane to use, which specifies the maximum gas price to bump to. For a list of available gas lanes on each network, see https://docs.chain.link/docs/vrf-contracts/#configurations"
      },
      "lastTokenRevealed()": {
        "notice": "Last token that has been revealed"
      },
      "maxBatchSize()": {
        "notice": "Max amount of NFTs that can be minted at once"
      },
      "maxPerAddressDuringMint()": {
        "notice": "Max amount of NFTs an address can mint"
      },
      "nextBatchToReveal()": {
        "notice": "Next batch that will be revealed by VRF, if activated"
      },
      "numberMinted(address)": {
        "notice": "Returns the number of NFTs minted by a specific address"
      },
      "projectOwner()": {
        "notice": "The project owner"
      },
      "publicSaleMint(uint256)": {
        "notice": "Mint NFTs during the public sale"
      },
      "publicSaleStartTime()": {
        "notice": "Start time of the public sale in seconds"
      },
      "rawFulfillRandomWords(uint256,uint256[])": {
        "notice": "rawFulfillRandomness is called by VRFCoordinator when it receives a valid VRF proof. rawFulfillRandomness then calls fulfillRandomness, after validating the origin of the call"
      },
      "requestConfirmations()": {
        "notice": "Number of block confirmations that the coordinator will wait before triggering the callback The default is 3"
      },
      "revealBatchSize()": {
        "notice": "Size of the batch reveal"
      },
      "revealInterval()": {
        "notice": "Time interval for gradual reveal"
      },
      "revealNextBatch()": {
        "notice": "Reveals the next batch if the reveal conditions are met"
      },
      "revealStartTime()": {
        "notice": "Timestamp for the start of the reveal process"
      },
      "salePrice()": {
        "notice": "Price of one NFT during the public sale"
      },
      "seedAllowlist(address[],uint256[])": {
        "notice": "Set amount of NFTs mintable per address during the allowlist phase"
      },
      "setBaseURI(string)": {
        "notice": "Set the base URI"
      },
      "setProjectOwner(address)": {
        "notice": "Set the project owner"
      },
      "setRoyaltyInfo(address,uint96)": {
        "notice": "Set the royalty fee"
      },
      "setUnrevealedURI(string)": {
        "notice": "Set the unrevealed URI"
      },
      "setVRF(address,bytes32,uint64,uint32)": {
        "notice": "Set VRF configuration"
      },
      "subscriptionId()": {
        "notice": "Chainlink subscription ID"
      },
      "tokenURI(uint256)": {
        "notice": "Returns the Uniform Resource Identifier (URI) for `tokenId` token."
      },
      "unrevealedURI()": {
        "notice": "Token URI before the collection reveal"
      },
      "useVRF()": {
        "notice": "Contract uses VRF or pseudo-randomness"
      },
      "vrfRequestedForBatch(uint256)": {
        "notice": "Has the random number for a batch already been asked"
      },
      "withdrawAVAX(address)": {
        "notice": "Withdraw AVAX to the contract owner"
      }
    },
    "notice": "Implements a simple minting NFT contract with an allowlist and public sale phase.",
    "version": 1
  },
  "storageLayout": {
    "storage": [
      {
        "astId": 5907,
        "contract": "contracts/FlatLaunchpeg.sol:FlatLaunchpeg",
        "label": "vrfCoordinator",
        "offset": 0,
        "slot": "0",
        "type": "t_address"
      },
      {
        "astId": 238,
        "contract": "contracts/FlatLaunchpeg.sol:FlatLaunchpeg",
        "label": "_initialized",
        "offset": 20,
        "slot": "0",
        "type": "t_bool"
      },
      {
        "astId": 241,
        "contract": "contracts/FlatLaunchpeg.sol:FlatLaunchpeg",
        "label": "_initializing",
        "offset": 21,
        "slot": "0",
        "type": "t_bool"
      },
      {
        "astId": 1027,
        "contract": "contracts/FlatLaunchpeg.sol:FlatLaunchpeg",
        "label": "__gap",
        "offset": 0,
        "slot": "1",
        "type": "t_array(t_uint256)50_storage"
      },
      {
        "astId": 1274,
        "contract": "contracts/FlatLaunchpeg.sol:FlatLaunchpeg",
        "label": "__gap",
        "offset": 0,
        "slot": "51",
        "type": "t_array(t_uint256)50_storage"
      },
      {
        "astId": 7215,
        "contract": "contracts/FlatLaunchpeg.sol:FlatLaunchpeg",
        "label": "_currentIndex",
        "offset": 0,
        "slot": "101",
        "type": "t_uint256"
      },
      {
        "astId": 7217,
        "contract": "contracts/FlatLaunchpeg.sol:FlatLaunchpeg",
        "label": "_burnCounter",
        "offset": 0,
        "slot": "102",
        "type": "t_uint256"
      },
      {
        "astId": 7219,
        "contract": "contracts/FlatLaunchpeg.sol:FlatLaunchpeg",
        "label": "_name",
        "offset": 0,
        "slot": "103",
        "type": "t_string_storage"
      },
      {
        "astId": 7221,
        "contract": "contracts/FlatLaunchpeg.sol:FlatLaunchpeg",
        "label": "_symbol",
        "offset": 0,
        "slot": "104",
        "type": "t_string_storage"
      },
      {
        "astId": 7226,
        "contract": "contracts/FlatLaunchpeg.sol:FlatLaunchpeg",
        "label": "_ownerships",
        "offset": 0,
        "slot": "105",
        "type": "t_mapping(t_uint256,t_struct(TokenOwnership)7204_storage)"
      },
      {
        "astId": 7231,
        "contract": "contracts/FlatLaunchpeg.sol:FlatLaunchpeg",
        "label": "_addressData",
        "offset": 0,
        "slot": "106",
        "type": "t_mapping(t_address,t_struct(AddressData)7213_storage)"
      },
      {
        "astId": 7235,
        "contract": "contracts/FlatLaunchpeg.sol:FlatLaunchpeg",
        "label": "_tokenApprovals",
        "offset": 0,
        "slot": "107",
        "type": "t_mapping(t_uint256,t_address)"
      },
      {
        "astId": 7241,
        "contract": "contracts/FlatLaunchpeg.sol:FlatLaunchpeg",
        "label": "_operatorApprovals",
        "offset": 0,
        "slot": "108",
        "type": "t_mapping(t_address,t_mapping(t_address,t_bool))"
      },
      {
        "astId": 8489,
        "contract": "contracts/FlatLaunchpeg.sol:FlatLaunchpeg",
        "label": "__gap",
        "offset": 0,
        "slot": "109",
        "type": "t_array(t_uint256)42_storage"
      },
      {
        "astId": 2405,
        "contract": "contracts/FlatLaunchpeg.sol:FlatLaunchpeg",
        "label": "collectionSize",
        "offset": 0,
        "slot": "151",
        "type": "t_uint256"
      },
      {
        "astId": 2407,
        "contract": "contracts/FlatLaunchpeg.sol:FlatLaunchpeg",
        "label": "intCollectionSize",
        "offset": 0,
        "slot": "152",
        "type": "t_int128"
      },
      {
        "astId": 2411,
        "contract": "contracts/FlatLaunchpeg.sol:FlatLaunchpeg",
        "label": "revealBatchSize",
        "offset": 0,
        "slot": "153",
        "type": "t_uint256"
      },
      {
        "astId": 2417,
        "contract": "contracts/FlatLaunchpeg.sol:FlatLaunchpeg",
        "label": "batchToSeed",
        "offset": 0,
        "slot": "154",
        "type": "t_mapping(t_uint256,t_uint256)"
      },
      {
        "astId": 2422,
        "contract": "contracts/FlatLaunchpeg.sol:FlatLaunchpeg",
        "label": "lastTokenRevealed",
        "offset": 0,
        "slot": "155",
        "type": "t_uint256"
      },
      {
        "astId": 2425,
        "contract": "contracts/FlatLaunchpeg.sol:FlatLaunchpeg",
        "label": "_rangeLength",
        "offset": 0,
        "slot": "156",
        "type": "t_uint256"
      },
      {
        "astId": 2429,
        "contract": "contracts/FlatLaunchpeg.sol:FlatLaunchpeg",
        "label": "revealStartTime",
        "offset": 0,
        "slot": "157",
        "type": "t_uint256"
      },
      {
        "astId": 2433,
        "contract": "contracts/FlatLaunchpeg.sol:FlatLaunchpeg",
        "label": "revealInterval",
        "offset": 0,
        "slot": "158",
        "type": "t_uint256"
      },
      {
        "astId": 2437,
        "contract": "contracts/FlatLaunchpeg.sol:FlatLaunchpeg",
        "label": "useVRF",
        "offset": 0,
        "slot": "159",
        "type": "t_bool"
      },
      {
        "astId": 2441,
        "contract": "contracts/FlatLaunchpeg.sol:FlatLaunchpeg",
        "label": "subscriptionId",
        "offset": 1,
        "slot": "159",
        "type": "t_uint64"
      },
      {
        "astId": 2445,
        "contract": "contracts/FlatLaunchpeg.sol:FlatLaunchpeg",
        "label": "keyHash",
        "offset": 0,
        "slot": "160",
        "type": "t_bytes32"
      },
      {
        "astId": 2449,
        "contract": "contracts/FlatLaunchpeg.sol:FlatLaunchpeg",
        "label": "callbackGasLimit",
        "offset": 0,
        "slot": "161",
        "type": "t_uint32"
      },
      {
        "astId": 2458,
        "contract": "contracts/FlatLaunchpeg.sol:FlatLaunchpeg",
        "label": "nextBatchToReveal",
        "offset": 0,
        "slot": "162",
        "type": "t_uint256"
      },
      {
        "astId": 2462,
        "contract": "contracts/FlatLaunchpeg.sol:FlatLaunchpeg",
        "label": "hasBeenForceRevealed",
        "offset": 0,
        "slot": "163",
        "type": "t_bool"
      },
      {
        "astId": 2468,
        "contract": "contracts/FlatLaunchpeg.sol:FlatLaunchpeg",
        "label": "vrfRequestedForBatch",
        "offset": 0,
        "slot": "164",
        "type": "t_mapping(t_uint256,t_bool)"
      },
      {
        "astId": 99,
        "contract": "contracts/FlatLaunchpeg.sol:FlatLaunchpeg",
        "label": "_owner",
        "offset": 0,
        "slot": "165",
        "type": "t_address"
      },
      {
        "astId": 211,
        "contract": "contracts/FlatLaunchpeg.sol:FlatLaunchpeg",
        "label": "__gap",
        "offset": 0,
        "slot": "166",
        "type": "t_array(t_uint256)49_storage"
      },
      {
        "astId": 319,
        "contract": "contracts/FlatLaunchpeg.sol:FlatLaunchpeg",
        "label": "_status",
        "offset": 0,
        "slot": "215",
        "type": "t_uint256"
      },
      {
        "astId": 363,
        "contract": "contracts/FlatLaunchpeg.sol:FlatLaunchpeg",
        "label": "__gap",
        "offset": 0,
        "slot": "216",
        "type": "t_array(t_uint256)49_storage"
      },
      {
        "astId": 557,
        "contract": "contracts/FlatLaunchpeg.sol:FlatLaunchpeg",
        "label": "_defaultRoyaltyInfo",
        "offset": 0,
        "slot": "265",
        "type": "t_struct(RoyaltyInfo)554_storage"
      },
      {
        "astId": 562,
        "contract": "contracts/FlatLaunchpeg.sol:FlatLaunchpeg",
        "label": "_tokenRoyaltyInfo",
        "offset": 0,
        "slot": "266",
        "type": "t_mapping(t_uint256,t_struct(RoyaltyInfo)554_storage)"
      },
      {
        "astId": 742,
        "contract": "contracts/FlatLaunchpeg.sol:FlatLaunchpeg",
        "label": "__gap",
        "offset": 0,
        "slot": "267",
        "type": "t_array(t_uint256)48_storage"
      },
      {
        "astId": 1397,
        "contract": "contracts/FlatLaunchpeg.sol:FlatLaunchpeg",
        "label": "collectionSize",
        "offset": 0,
        "slot": "315",
        "type": "t_uint256"
      },
      {
        "astId": 1401,
        "contract": "contracts/FlatLaunchpeg.sol:FlatLaunchpeg",
        "label": "amountForDevs",
        "offset": 0,
        "slot": "316",
        "type": "t_uint256"
      },
      {
        "astId": 1405,
        "contract": "contracts/FlatLaunchpeg.sol:FlatLaunchpeg",
        "label": "amountForAllowlist",
        "offset": 0,
        "slot": "317",
        "type": "t_uint256"
      },
      {
        "astId": 1409,
        "contract": "contracts/FlatLaunchpeg.sol:FlatLaunchpeg",
        "label": "maxBatchSize",
        "offset": 0,
        "slot": "318",
        "type": "t_uint256"
      },
      {
        "astId": 1413,
        "contract": "contracts/FlatLaunchpeg.sol:FlatLaunchpeg",
        "label": "maxPerAddressDuringMint",
        "offset": 0,
        "slot": "319",
        "type": "t_uint256"
      },
      {
        "astId": 1417,
        "contract": "contracts/FlatLaunchpeg.sol:FlatLaunchpeg",
        "label": "joeFeePercent",
        "offset": 0,
        "slot": "320",
        "type": "t_uint256"
      },
      {
        "astId": 1421,
        "contract": "contracts/FlatLaunchpeg.sol:FlatLaunchpeg",
        "label": "joeFeeCollector",
        "offset": 0,
        "slot": "321",
        "type": "t_address"
      },
      {
        "astId": 1429,
        "contract": "contracts/FlatLaunchpeg.sol:FlatLaunchpeg",
        "label": "projectOwner",
        "offset": 0,
        "slot": "322",
        "type": "t_address"
      },
      {
        "astId": 1433,
        "contract": "contracts/FlatLaunchpeg.sol:FlatLaunchpeg",
        "label": "baseURI",
        "offset": 0,
        "slot": "323",
        "type": "t_string_storage"
      },
      {
        "astId": 1437,
        "contract": "contracts/FlatLaunchpeg.sol:FlatLaunchpeg",
        "label": "unrevealedURI",
        "offset": 0,
        "slot": "324",
        "type": "t_string_storage"
      },
      {
        "astId": 1443,
        "contract": "contracts/FlatLaunchpeg.sol:FlatLaunchpeg",
        "label": "allowlist",
        "offset": 0,
        "slot": "325",
        "type": "t_mapping(t_address,t_uint256)"
      },
      {
        "astId": 1447,
        "contract": "contracts/FlatLaunchpeg.sol:FlatLaunchpeg",
        "label": "amountMintedByDevs",
        "offset": 0,
        "slot": "326",
        "type": "t_uint256"
      },
      {
        "astId": 1451,
        "contract": "contracts/FlatLaunchpeg.sol:FlatLaunchpeg",
        "label": "amountMintedDuringAllowlist",
        "offset": 0,
        "slot": "327",
        "type": "t_uint256"
      },
      {
        "astId": 1455,
        "contract": "contracts/FlatLaunchpeg.sol:FlatLaunchpeg",
        "label": "amountMintedDuringPublicSale",
        "offset": 0,
        "slot": "328",
        "type": "t_uint256"
      },
      {
        "astId": 1459,
        "contract": "contracts/FlatLaunchpeg.sol:FlatLaunchpeg",
        "label": "allowlistStartTime",
        "offset": 0,
        "slot": "329",
        "type": "t_uint256"
      },
      {
        "astId": 1463,
        "contract": "contracts/FlatLaunchpeg.sol:FlatLaunchpeg",
        "label": "publicSaleStartTime",
        "offset": 0,
        "slot": "330",
        "type": "t_uint256"
      },
      {
        "astId": 3264,
        "contract": "contracts/FlatLaunchpeg.sol:FlatLaunchpeg",
        "label": "allowlistPrice",
        "offset": 0,
        "slot": "331",
        "type": "t_uint256"
      },
      {
        "astId": 3268,
        "contract": "contracts/FlatLaunchpeg.sol:FlatLaunchpeg",
        "label": "salePrice",
        "offset": 0,
        "slot": "332",
        "type": "t_uint256"
      }
    ],
    "types": {
      "t_address": {
        "encoding": "inplace",
        "label": "address",
        "numberOfBytes": "20"
      },
      "t_array(t_uint256)42_storage": {
        "base": "t_uint256",
        "encoding": "inplace",
        "label": "uint256[42]",
        "numberOfBytes": "1344"
      },
      "t_array(t_uint256)48_storage": {
        "base": "t_uint256",
        "encoding": "inplace",
        "label": "uint256[48]",
        "numberOfBytes": "1536"
      },
      "t_array(t_uint256)49_storage": {
        "base": "t_uint256",
        "encoding": "inplace",
        "label": "uint256[49]",
        "numberOfBytes": "1568"
      },
      "t_array(t_uint256)50_storage": {
        "base": "t_uint256",
        "encoding": "inplace",
        "label": "uint256[50]",
        "numberOfBytes": "1600"
      },
      "t_bool": {
        "encoding": "inplace",
        "label": "bool",
        "numberOfBytes": "1"
      },
      "t_bytes32": {
        "encoding": "inplace",
        "label": "bytes32",
        "numberOfBytes": "32"
      },
      "t_int128": {
        "encoding": "inplace",
        "label": "int128",
        "numberOfBytes": "16"
      },
      "t_mapping(t_address,t_bool)": {
        "encoding": "mapping",
        "key": "t_address",
        "label": "mapping(address => bool)",
        "numberOfBytes": "32",
        "value": "t_bool"
      },
      "t_mapping(t_address,t_mapping(t_address,t_bool))": {
        "encoding": "mapping",
        "key": "t_address",
        "label": "mapping(address => mapping(address => bool))",
        "numberOfBytes": "32",
        "value": "t_mapping(t_address,t_bool)"
      },
      "t_mapping(t_address,t_struct(AddressData)7213_storage)": {
        "encoding": "mapping",
        "key": "t_address",
        "label": "mapping(address => struct ERC721AUpgradeable.AddressData)",
        "numberOfBytes": "32",
        "value": "t_struct(AddressData)7213_storage"
      },
      "t_mapping(t_address,t_uint256)": {
        "encoding": "mapping",
        "key": "t_address",
        "label": "mapping(address => uint256)",
        "numberOfBytes": "32",
        "value": "t_uint256"
      },
      "t_mapping(t_uint256,t_address)": {
        "encoding": "mapping",
        "key": "t_uint256",
        "label": "mapping(uint256 => address)",
        "numberOfBytes": "32",
        "value": "t_address"
      },
      "t_mapping(t_uint256,t_bool)": {
        "encoding": "mapping",
        "key": "t_uint256",
        "label": "mapping(uint256 => bool)",
        "numberOfBytes": "32",
        "value": "t_bool"
      },
      "t_mapping(t_uint256,t_struct(RoyaltyInfo)554_storage)": {
        "encoding": "mapping",
        "key": "t_uint256",
        "label": "mapping(uint256 => struct ERC2981Upgradeable.RoyaltyInfo)",
        "numberOfBytes": "32",
        "value": "t_struct(RoyaltyInfo)554_storage"
      },
      "t_mapping(t_uint256,t_struct(TokenOwnership)7204_storage)": {
        "encoding": "mapping",
        "key": "t_uint256",
        "label": "mapping(uint256 => struct ERC721AUpgradeable.TokenOwnership)",
        "numberOfBytes": "32",
        "value": "t_struct(TokenOwnership)7204_storage"
      },
      "t_mapping(t_uint256,t_uint256)": {
        "encoding": "mapping",
        "key": "t_uint256",
        "label": "mapping(uint256 => uint256)",
        "numberOfBytes": "32",
        "value": "t_uint256"
      },
      "t_string_storage": {
        "encoding": "bytes",
        "label": "string",
        "numberOfBytes": "32"
      },
      "t_struct(AddressData)7213_storage": {
        "encoding": "inplace",
        "label": "struct ERC721AUpgradeable.AddressData",
        "members": [
          {
            "astId": 7206,
            "contract": "contracts/FlatLaunchpeg.sol:FlatLaunchpeg",
            "label": "balance",
            "offset": 0,
            "slot": "0",
            "type": "t_uint64"
          },
          {
            "astId": 7208,
            "contract": "contracts/FlatLaunchpeg.sol:FlatLaunchpeg",
            "label": "numberMinted",
            "offset": 8,
            "slot": "0",
            "type": "t_uint64"
          },
          {
            "astId": 7210,
            "contract": "contracts/FlatLaunchpeg.sol:FlatLaunchpeg",
            "label": "numberBurned",
            "offset": 16,
            "slot": "0",
            "type": "t_uint64"
          },
          {
            "astId": 7212,
            "contract": "contracts/FlatLaunchpeg.sol:FlatLaunchpeg",
            "label": "aux",
            "offset": 24,
            "slot": "0",
            "type": "t_uint64"
          }
        ],
        "numberOfBytes": "32"
      },
      "t_struct(RoyaltyInfo)554_storage": {
        "encoding": "inplace",
        "label": "struct ERC2981Upgradeable.RoyaltyInfo",
        "members": [
          {
            "astId": 551,
            "contract": "contracts/FlatLaunchpeg.sol:FlatLaunchpeg",
            "label": "receiver",
            "offset": 0,
            "slot": "0",
            "type": "t_address"
          },
          {
            "astId": 553,
            "contract": "contracts/FlatLaunchpeg.sol:FlatLaunchpeg",
            "label": "royaltyFraction",
            "offset": 20,
            "slot": "0",
            "type": "t_uint96"
          }
        ],
        "numberOfBytes": "32"
      },
      "t_struct(TokenOwnership)7204_storage": {
        "encoding": "inplace",
        "label": "struct ERC721AUpgradeable.TokenOwnership",
        "members": [
          {
            "astId": 7199,
            "contract": "contracts/FlatLaunchpeg.sol:FlatLaunchpeg",
            "label": "addr",
            "offset": 0,
            "slot": "0",
            "type": "t_address"
          },
          {
            "astId": 7201,
            "contract": "contracts/FlatLaunchpeg.sol:FlatLaunchpeg",
            "label": "startTimestamp",
            "offset": 20,
            "slot": "0",
            "type": "t_uint64"
          },
          {
            "astId": 7203,
            "contract": "contracts/FlatLaunchpeg.sol:FlatLaunchpeg",
            "label": "burned",
            "offset": 28,
            "slot": "0",
            "type": "t_bool"
          }
        ],
        "numberOfBytes": "32"
      },
      "t_uint256": {
        "encoding": "inplace",
        "label": "uint256",
        "numberOfBytes": "32"
      },
      "t_uint32": {
        "encoding": "inplace",
        "label": "uint32",
        "numberOfBytes": "4"
      },
      "t_uint64": {
        "encoding": "inplace",
        "label": "uint64",
        "numberOfBytes": "8"
      },
      "t_uint96": {
        "encoding": "inplace",
        "label": "uint96",
        "numberOfBytes": "12"
      }
    }
  }
}