{
  "address": "0xFb4618bA2516765EbDa726A398a627A8E4cbD4ba",
  "abi": [
    {
      "inputs": [],
      "name": "ApprovalCallerNotOwnerNorApproved",
      "type": "error"
    },
    {
      "inputs": [],
      "name": "ApprovalQueryForNonexistentToken",
      "type": "error"
    },
    {
      "inputs": [],
      "name": "ApprovalToCurrentOwner",
      "type": "error"
    },
    {
      "inputs": [],
      "name": "ApproveToCaller",
      "type": "error"
    },
    {
      "inputs": [],
      "name": "BalanceQueryForZeroAddress",
      "type": "error"
    },
    {
      "inputs": [],
      "name": "Launchpeg__BatchRevealDisabled",
      "type": "error"
    },
    {
      "inputs": [],
      "name": "Launchpeg__CanNotMintThisMany",
      "type": "error"
    },
    {
      "inputs": [],
      "name": "Launchpeg__InvalidAllowlistPrice",
      "type": "error"
    },
    {
      "inputs": [],
      "name": "Launchpeg__InvalidJoeFeeCollector",
      "type": "error"
    },
    {
      "inputs": [],
      "name": "Launchpeg__InvalidMaxBatchSize",
      "type": "error"
    },
    {
      "inputs": [],
      "name": "Launchpeg__InvalidPercent",
      "type": "error"
    },
    {
      "inputs": [],
      "name": "Launchpeg__InvalidProjectOwner",
      "type": "error"
    },
    {
      "inputs": [],
      "name": "Launchpeg__InvalidRoyaltyInfo",
      "type": "error"
    },
    {
      "inputs": [],
      "name": "Launchpeg__InvalidStartTime",
      "type": "error"
    },
    {
      "inputs": [],
      "name": "Launchpeg__JoeFeeAlreadyInitialized",
      "type": "error"
    },
    {
      "inputs": [],
      "name": "Launchpeg__LargerCollectionSizeNeeded",
      "type": "error"
    },
    {
      "inputs": [],
      "name": "Launchpeg__MaxSupplyForDevReached",
      "type": "error"
    },
    {
      "inputs": [],
      "name": "Launchpeg__MaxSupplyReached",
      "type": "error"
    },
    {
      "inputs": [],
      "name": "Launchpeg__NotEligibleForAllowlistMint",
      "type": "error"
    },
    {
      "inputs": [
        {
          "internalType": "uint256",
          "name": "avaxSent",
          "type": "uint256"
        }
      ],
      "name": "Launchpeg__NotEnoughAVAX",
      "type": "error"
    },
    {
      "inputs": [],
      "name": "Launchpeg__NotInitialized",
      "type": "error"
    },
    {
      "inputs": [],
      "name": "Launchpeg__PublicSaleBeforeAllowlist",
      "type": "error"
    },
    {
      "inputs": [],
      "name": "Launchpeg__PublicSaleEndBeforePublicSaleStart",
      "type": "error"
    },
    {
      "inputs": [],
      "name": "Launchpeg__RevealNextBatchNotAvailable",
      "type": "error"
    },
    {
      "inputs": [],
      "name": "Launchpeg__TransferFailed",
      "type": "error"
    },
    {
      "inputs": [],
      "name": "Launchpeg__Unauthorized",
      "type": "error"
    },
    {
      "inputs": [],
      "name": "Launchpeg__WithdrawAVAXNotAvailable",
      "type": "error"
    },
    {
      "inputs": [],
      "name": "Launchpeg__WrongAddressesAndNumSlotsLength",
      "type": "error"
    },
    {
      "inputs": [],
      "name": "Launchpeg__WrongPhase",
      "type": "error"
    },
    {
      "inputs": [],
      "name": "MintToZeroAddress",
      "type": "error"
    },
    {
      "inputs": [],
      "name": "MintZeroQuantity",
      "type": "error"
    },
    {
      "inputs": [],
      "name": "OwnerQueryForNonexistentToken",
      "type": "error"
    },
    {
      "inputs": [],
      "name": "PendingOwnableUpgradeable__AddressZero",
      "type": "error"
    },
    {
      "inputs": [],
      "name": "PendingOwnableUpgradeable__NoPendingOwner",
      "type": "error"
    },
    {
      "inputs": [],
      "name": "PendingOwnableUpgradeable__NotOwner",
      "type": "error"
    },
    {
      "inputs": [],
      "name": "PendingOwnableUpgradeable__NotPendingOwner",
      "type": "error"
    },
    {
      "inputs": [],
      "name": "PendingOwnableUpgradeable__PendingOwnerAlreadySet",
      "type": "error"
    },
    {
      "inputs": [],
      "name": "SafeAccessControlEnumerableUpgradeable__RoleIsDefaultAdmin",
      "type": "error"
    },
    {
      "inputs": [
        {
          "internalType": "bytes32",
          "name": "role",
          "type": "bytes32"
        },
        {
          "internalType": "address",
          "name": "sender",
          "type": "address"
        }
      ],
      "name": "SafeAccessControlEnumerableUpgradeable__SenderMissingRoleAndIsNotOwner",
      "type": "error"
    },
    {
      "inputs": [],
      "name": "SafePausableUpgradeable__AlreadyPaused",
      "type": "error"
    },
    {
      "inputs": [],
      "name": "SafePausableUpgradeable__AlreadyUnpaused",
      "type": "error"
    },
    {
      "inputs": [],
      "name": "TransferCallerNotOwnerNorApproved",
      "type": "error"
    },
    {
      "inputs": [],
      "name": "TransferFromIncorrectOwner",
      "type": "error"
    },
    {
      "inputs": [],
      "name": "TransferToNonERC721ReceiverImplementer",
      "type": "error"
    },
    {
      "inputs": [],
      "name": "TransferToZeroAddress",
      "type": "error"
    },
    {
      "anonymous": false,
      "inputs": [],
      "name": "AllowlistSeeded",
      "type": "event"
    },
    {
      "anonymous": false,
      "inputs": [
        {
          "indexed": false,
          "internalType": "uint256",
          "name": "allowlistStartTime",
          "type": "uint256"
        }
      ],
      "name": "AllowlistStartTimeSet",
      "type": "event"
    },
    {
      "anonymous": false,
      "inputs": [
        {
          "indexed": true,
          "internalType": "address",
          "name": "owner",
          "type": "address"
        },
        {
          "indexed": true,
          "internalType": "address",
          "name": "approved",
          "type": "address"
        },
        {
          "indexed": true,
          "internalType": "uint256",
          "name": "tokenId",
          "type": "uint256"
        }
      ],
      "name": "Approval",
      "type": "event"
    },
    {
      "anonymous": false,
      "inputs": [
        {
          "indexed": true,
          "internalType": "address",
          "name": "owner",
          "type": "address"
        },
        {
          "indexed": true,
          "internalType": "address",
          "name": "operator",
          "type": "address"
        },
        {
          "indexed": false,
          "internalType": "bool",
          "name": "approved",
          "type": "bool"
        }
      ],
      "name": "ApprovalForAll",
      "type": "event"
    },
    {
      "anonymous": false,
      "inputs": [
        {
          "indexed": true,
          "internalType": "address",
          "name": "sender",
          "type": "address"
        },
        {
          "indexed": false,
          "internalType": "uint256",
          "name": "amount",
          "type": "uint256"
        },
        {
          "indexed": false,
          "internalType": "uint256",
          "name": "fee",
          "type": "uint256"
        }
      ],
      "name": "AvaxWithdraw",
      "type": "event"
    },
    {
      "anonymous": false,
      "inputs": [
        {
          "indexed": false,
          "internalType": "string",
          "name": "baseURI",
          "type": "string"
        }
      ],
      "name": "BaseURISet",
      "type": "event"
    },
    {
      "anonymous": false,
      "inputs": [
        {
          "indexed": true,
          "internalType": "address",
          "name": "receiver",
          "type": "address"
        },
        {
          "indexed": false,
          "internalType": "uint256",
          "name": "feePercent",
          "type": "uint256"
        }
      ],
      "name": "DefaultRoyaltySet",
      "type": "event"
    },
    {
      "anonymous": false,
      "inputs": [
        {
          "indexed": true,
          "internalType": "address",
          "name": "sender",
          "type": "address"
        },
        {
          "indexed": false,
          "internalType": "uint256",
          "name": "quantity",
          "type": "uint256"
        }
      ],
      "name": "DevMint",
      "type": "event"
    },
    {
      "anonymous": false,
      "inputs": [
        {
          "indexed": false,
          "internalType": "uint256",
          "name": "allowlistStartTime",
          "type": "uint256"
        },
        {
          "indexed": false,
          "internalType": "uint256",
          "name": "publicSaleStartTime",
          "type": "uint256"
        },
        {
          "indexed": false,
          "internalType": "uint256",
          "name": "publicSaleEndTime",
          "type": "uint256"
        },
        {
          "indexed": false,
          "internalType": "uint256",
          "name": "allowlistPrice",
          "type": "uint256"
        },
        {
          "indexed": false,
          "internalType": "uint256",
          "name": "salePrice",
          "type": "uint256"
        }
      ],
      "name": "Initialized",
      "type": "event"
    },
    {
      "anonymous": false,
      "inputs": [
        {
          "indexed": false,
          "internalType": "uint256",
          "name": "feePercent",
          "type": "uint256"
        },
        {
          "indexed": false,
          "internalType": "address",
          "name": "feeCollector",
          "type": "address"
        }
      ],
      "name": "JoeFeeInitialized",
      "type": "event"
    },
    {
      "anonymous": false,
      "inputs": [
        {
          "indexed": true,
          "internalType": "address",
          "name": "sender",
          "type": "address"
        },
        {
          "indexed": false,
          "internalType": "uint256",
          "name": "quantity",
          "type": "uint256"
        },
        {
          "indexed": false,
          "internalType": "uint256",
          "name": "price",
          "type": "uint256"
        },
        {
          "indexed": false,
          "internalType": "uint256",
          "name": "tokenId",
          "type": "uint256"
        }
      ],
      "name": "Mint",
      "type": "event"
    },
    {
      "anonymous": false,
      "inputs": [
        {
          "indexed": true,
          "internalType": "address",
          "name": "previousOwner",
          "type": "address"
        },
        {
          "indexed": true,
          "internalType": "address",
          "name": "newOwner",
          "type": "address"
        }
      ],
      "name": "OwnershipTransferred",
      "type": "event"
    },
    {
      "anonymous": false,
      "inputs": [
        {
          "indexed": false,
          "internalType": "address",
          "name": "account",
          "type": "address"
        }
      ],
      "name": "Paused",
      "type": "event"
    },
    {
      "anonymous": false,
      "inputs": [
        {
          "indexed": true,
          "internalType": "address",
          "name": "pendingOwner",
          "type": "address"
        }
      ],
      "name": "PendingOwnerSet",
      "type": "event"
    },
    {
      "anonymous": false,
      "inputs": [
        {
          "indexed": false,
          "internalType": "uint256",
          "name": "publicSaleEndTime",
          "type": "uint256"
        }
      ],
      "name": "PublicSaleEndTimeSet",
      "type": "event"
    },
    {
      "anonymous": false,
      "inputs": [
        {
          "indexed": false,
          "internalType": "uint256",
          "name": "publicSaleStartTime",
          "type": "uint256"
        }
      ],
      "name": "PublicSaleStartTimeSet",
      "type": "event"
    },
    {
      "anonymous": false,
      "inputs": [
        {
          "indexed": true,
          "internalType": "bytes32",
          "name": "role",
          "type": "bytes32"
        },
        {
          "indexed": true,
          "internalType": "bytes32",
          "name": "previousAdminRole",
          "type": "bytes32"
        },
        {
          "indexed": true,
          "internalType": "bytes32",
          "name": "newAdminRole",
          "type": "bytes32"
        }
      ],
      "name": "RoleAdminChanged",
      "type": "event"
    },
    {
      "anonymous": false,
      "inputs": [
        {
          "indexed": true,
          "internalType": "bytes32",
          "name": "role",
          "type": "bytes32"
        },
        {
          "indexed": true,
          "internalType": "address",
          "name": "account",
          "type": "address"
        },
        {
          "indexed": true,
          "internalType": "address",
          "name": "sender",
          "type": "address"
        }
      ],
      "name": "RoleGranted",
      "type": "event"
    },
    {
      "anonymous": false,
      "inputs": [
        {
          "indexed": true,
          "internalType": "bytes32",
          "name": "role",
          "type": "bytes32"
        },
        {
          "indexed": true,
          "internalType": "address",
          "name": "account",
          "type": "address"
        },
        {
          "indexed": true,
          "internalType": "address",
          "name": "sender",
          "type": "address"
        }
      ],
      "name": "RoleRevoked",
      "type": "event"
    },
    {
      "anonymous": false,
      "inputs": [
        {
          "indexed": true,
          "internalType": "address",
          "name": "from",
          "type": "address"
        },
        {
          "indexed": true,
          "internalType": "address",
          "name": "to",
          "type": "address"
        },
        {
          "indexed": true,
          "internalType": "uint256",
          "name": "tokenId",
          "type": "uint256"
        }
      ],
      "name": "Transfer",
      "type": "event"
    },
    {
      "anonymous": false,
      "inputs": [
        {
          "indexed": false,
          "internalType": "address",
          "name": "account",
          "type": "address"
        }
      ],
      "name": "Unpaused",
      "type": "event"
    },
    {
      "anonymous": false,
      "inputs": [
        {
          "indexed": false,
          "internalType": "string",
          "name": "unrevealedURI",
          "type": "string"
        }
      ],
      "name": "UnrevealedURISet",
      "type": "event"
    },
    {
      "anonymous": false,
      "inputs": [
        {
          "indexed": false,
          "internalType": "uint256",
          "name": "withdrawAVAXStartTime",
          "type": "uint256"
        }
      ],
      "name": "WithdrawAVAXStartTimeSet",
      "type": "event"
    },
    {
      "inputs": [],
      "name": "BASIS_POINT_PRECISION",
      "outputs": [
        {
          "internalType": "uint256",
          "name": "",
          "type": "uint256"
        }
      ],
      "stateMutability": "view",
      "type": "function"
    },
    {
      "inputs": [],
      "name": "DEFAULT_ADMIN_ROLE",
      "outputs": [
        {
          "internalType": "bytes32",
          "name": "",
          "type": "bytes32"
        }
      ],
      "stateMutability": "view",
      "type": "function"
    },
    {
      "inputs": [],
      "name": "PAUSER_ADMIN_ROLE",
      "outputs": [
        {
          "internalType": "bytes32",
          "name": "",
          "type": "bytes32"
        }
      ],
      "stateMutability": "view",
      "type": "function"
    },
    {
      "inputs": [],
      "name": "PAUSER_ROLE",
      "outputs": [
        {
          "internalType": "bytes32",
          "name": "",
          "type": "bytes32"
        }
      ],
      "stateMutability": "view",
      "type": "function"
    },
    {
      "inputs": [],
      "name": "PROJECT_OWNER_ROLE",
      "outputs": [
        {
          "internalType": "bytes32",
          "name": "",
          "type": "bytes32"
        }
      ],
      "stateMutability": "view",
      "type": "function"
    },
    {
      "inputs": [],
      "name": "UNPAUSER_ADMIN_ROLE",
      "outputs": [
        {
          "internalType": "bytes32",
          "name": "",
          "type": "bytes32"
        }
      ],
      "stateMutability": "view",
      "type": "function"
    },
    {
      "inputs": [],
      "name": "UNPAUSER_ROLE",
      "outputs": [
        {
          "internalType": "bytes32",
          "name": "",
          "type": "bytes32"
        }
      ],
      "stateMutability": "view",
      "type": "function"
    },
    {
      "inputs": [
        {
          "internalType": "address",
          "name": "",
          "type": "address"
        }
      ],
      "name": "allowlist",
      "outputs": [
        {
          "internalType": "uint256",
          "name": "",
          "type": "uint256"
        }
      ],
      "stateMutability": "view",
      "type": "function"
    },
    {
      "inputs": [
        {
          "internalType": "uint256",
          "name": "_quantity",
          "type": "uint256"
        }
      ],
      "name": "allowlistMint",
      "outputs": [],
      "stateMutability": "payable",
      "type": "function"
    },
    {
      "inputs": [],
      "name": "allowlistPrice",
      "outputs": [
        {
          "internalType": "uint256",
          "name": "",
          "type": "uint256"
        }
      ],
      "stateMutability": "view",
      "type": "function"
    },
    {
      "inputs": [],
      "name": "allowlistStartTime",
      "outputs": [
        {
          "internalType": "uint256",
          "name": "",
          "type": "uint256"
        }
      ],
      "stateMutability": "view",
      "type": "function"
    },
    {
      "inputs": [],
      "name": "amountForAllowlist",
      "outputs": [
        {
          "internalType": "uint256",
          "name": "",
          "type": "uint256"
        }
      ],
      "stateMutability": "view",
      "type": "function"
    },
    {
      "inputs": [],
      "name": "amountForDevs",
      "outputs": [
        {
          "internalType": "uint256",
          "name": "",
          "type": "uint256"
        }
      ],
      "stateMutability": "view",
      "type": "function"
    },
    {
      "inputs": [],
      "name": "amountMintedByDevs",
      "outputs": [
        {
          "internalType": "uint256",
          "name": "",
          "type": "uint256"
        }
      ],
      "stateMutability": "view",
      "type": "function"
    },
    {
      "inputs": [],
      "name": "amountMintedDuringAllowlist",
      "outputs": [
        {
          "internalType": "uint256",
          "name": "",
          "type": "uint256"
        }
      ],
      "stateMutability": "view",
      "type": "function"
    },
    {
      "inputs": [],
      "name": "amountMintedDuringPublicSale",
      "outputs": [
        {
          "internalType": "uint256",
          "name": "",
          "type": "uint256"
        }
      ],
      "stateMutability": "view",
      "type": "function"
    },
    {
      "inputs": [
        {
          "internalType": "address",
          "name": "to",
          "type": "address"
        },
        {
          "internalType": "uint256",
          "name": "tokenId",
          "type": "uint256"
        }
      ],
      "name": "approve",
      "outputs": [],
      "stateMutability": "nonpayable",
      "type": "function"
    },
    {
      "inputs": [
        {
          "internalType": "address",
          "name": "owner",
          "type": "address"
        }
      ],
      "name": "balanceOf",
      "outputs": [
        {
          "internalType": "uint256",
          "name": "",
          "type": "uint256"
        }
      ],
      "stateMutability": "view",
      "type": "function"
    },
    {
      "inputs": [],
      "name": "baseURI",
      "outputs": [
        {
          "internalType": "string",
          "name": "",
          "type": "string"
        }
      ],
      "stateMutability": "view",
      "type": "function"
    },
    {
      "inputs": [],
      "name": "batchReveal",
      "outputs": [
        {
          "internalType": "contract IBatchReveal",
          "name": "",
          "type": "address"
        }
      ],
      "stateMutability": "view",
      "type": "function"
    },
    {
      "inputs": [],
      "name": "becomeOwner",
      "outputs": [],
      "stateMutability": "nonpayable",
      "type": "function"
    },
    {
      "inputs": [],
      "name": "collectionSize",
      "outputs": [
        {
          "internalType": "uint256",
          "name": "",
          "type": "uint256"
        }
      ],
      "stateMutability": "view",
      "type": "function"
    },
    {
      "inputs": [],
      "name": "currentPhase",
      "outputs": [
        {
          "internalType": "enum IBaseLaunchpeg.Phase",
          "name": "",
          "type": "uint8"
        }
      ],
      "stateMutability": "view",
      "type": "function"
    },
    {
      "inputs": [
        {
          "internalType": "uint256",
          "name": "_quantity",
          "type": "uint256"
        }
      ],
      "name": "devMint",
      "outputs": [],
      "stateMutability": "nonpayable",
      "type": "function"
    },
    {
      "inputs": [
        {
          "internalType": "uint256",
          "name": "tokenId",
          "type": "uint256"
        }
      ],
      "name": "getApproved",
      "outputs": [
        {
          "internalType": "address",
          "name": "",
          "type": "address"
        }
      ],
      "stateMutability": "view",
      "type": "function"
    },
    {
      "inputs": [
        {
          "internalType": "uint256",
          "name": "_tokenId",
          "type": "uint256"
        }
      ],
      "name": "getOwnershipData",
      "outputs": [
        {
          "components": [
            {
              "internalType": "address",
              "name": "addr",
              "type": "address"
            },
            {
              "internalType": "uint64",
              "name": "startTimestamp",
              "type": "uint64"
            },
            {
              "internalType": "bool",
              "name": "burned",
              "type": "bool"
            }
          ],
          "internalType": "struct ERC721AUpgradeable.TokenOwnership",
          "name": "",
          "type": "tuple"
        }
      ],
      "stateMutability": "view",
      "type": "function"
    },
    {
      "inputs": [
        {
          "internalType": "bytes32",
          "name": "role",
          "type": "bytes32"
        }
      ],
      "name": "getRoleAdmin",
      "outputs": [
        {
          "internalType": "bytes32",
          "name": "",
          "type": "bytes32"
        }
      ],
      "stateMutability": "view",
      "type": "function"
    },
    {
      "inputs": [
        {
          "internalType": "bytes32",
          "name": "role",
          "type": "bytes32"
        },
        {
          "internalType": "uint256",
          "name": "index",
          "type": "uint256"
        }
      ],
      "name": "getRoleMember",
      "outputs": [
        {
          "internalType": "address",
          "name": "",
          "type": "address"
        }
      ],
      "stateMutability": "view",
      "type": "function"
    },
    {
      "inputs": [
        {
          "internalType": "bytes32",
          "name": "role",
          "type": "bytes32"
        }
      ],
      "name": "getRoleMemberCount",
      "outputs": [
        {
          "internalType": "uint256",
          "name": "",
          "type": "uint256"
        }
      ],
      "stateMutability": "view",
      "type": "function"
    },
    {
      "inputs": [
        {
          "internalType": "bytes32",
          "name": "role",
          "type": "bytes32"
        },
        {
          "internalType": "address",
          "name": "account",
          "type": "address"
        }
      ],
      "name": "grantRole",
      "outputs": [],
      "stateMutability": "nonpayable",
      "type": "function"
    },
    {
      "inputs": [],
      "name": "hasBatchToReveal",
      "outputs": [
        {
          "internalType": "bool",
          "name": "",
          "type": "bool"
        },
        {
          "internalType": "uint256",
          "name": "",
          "type": "uint256"
        }
      ],
      "stateMutability": "view",
      "type": "function"
    },
    {
      "inputs": [
        {
          "internalType": "bytes32",
          "name": "role",
          "type": "bytes32"
        },
        {
          "internalType": "address",
          "name": "account",
          "type": "address"
        }
      ],
      "name": "hasRole",
      "outputs": [
        {
          "internalType": "bool",
          "name": "",
          "type": "bool"
        }
      ],
      "stateMutability": "view",
      "type": "function"
    },
    {
      "inputs": [
        {
          "internalType": "string",
          "name": "_name",
          "type": "string"
        },
        {
          "internalType": "string",
          "name": "_symbol",
          "type": "string"
        },
        {
          "internalType": "address",
          "name": "_projectOwner",
          "type": "address"
        },
        {
          "internalType": "address",
          "name": "_royaltyReceiver",
          "type": "address"
        },
        {
          "internalType": "uint256",
          "name": "_maxBatchSize",
          "type": "uint256"
        },
        {
          "internalType": "uint256",
          "name": "_collectionSize",
          "type": "uint256"
        },
        {
          "internalType": "uint256",
          "name": "_amountForDevs",
          "type": "uint256"
        },
        {
          "internalType": "uint256",
          "name": "_amountForAllowlist",
          "type": "uint256"
        }
      ],
      "name": "initialize",
      "outputs": [],
      "stateMutability": "nonpayable",
      "type": "function"
    },
    {
      "inputs": [
        {
          "internalType": "uint256",
          "name": "_joeFeePercent",
          "type": "uint256"
        },
        {
          "internalType": "address",
          "name": "_joeFeeCollector",
          "type": "address"
        }
      ],
      "name": "initializeJoeFee",
      "outputs": [],
      "stateMutability": "nonpayable",
      "type": "function"
    },
    {
      "inputs": [
        {
          "internalType": "uint256",
          "name": "_allowlistStartTime",
          "type": "uint256"
        },
        {
          "internalType": "uint256",
          "name": "_publicSaleStartTime",
          "type": "uint256"
        },
        {
          "internalType": "uint256",
          "name": "_publicSaleEndTime",
          "type": "uint256"
        },
        {
          "internalType": "uint256",
          "name": "_allowlistPrice",
          "type": "uint256"
        },
        {
          "internalType": "uint256",
          "name": "_salePrice",
          "type": "uint256"
        }
      ],
      "name": "initializePhases",
      "outputs": [],
      "stateMutability": "nonpayable",
      "type": "function"
    },
    {
      "inputs": [
        {
          "internalType": "address",
          "name": "owner",
          "type": "address"
        },
        {
          "internalType": "address",
          "name": "operator",
          "type": "address"
        }
      ],
      "name": "isApprovedForAll",
      "outputs": [
        {
          "internalType": "bool",
          "name": "",
          "type": "bool"
        }
      ],
      "stateMutability": "view",
      "type": "function"
    },
    {
      "inputs": [],
      "name": "joeFeeCollector",
      "outputs": [
        {
          "internalType": "address",
          "name": "",
          "type": "address"
        }
      ],
      "stateMutability": "view",
      "type": "function"
    },
    {
      "inputs": [],
      "name": "joeFeePercent",
      "outputs": [
        {
          "internalType": "uint256",
          "name": "",
          "type": "uint256"
        }
      ],
      "stateMutability": "view",
      "type": "function"
    },
    {
      "inputs": [],
      "name": "maxBatchSize",
      "outputs": [
        {
          "internalType": "uint256",
          "name": "",
          "type": "uint256"
        }
      ],
      "stateMutability": "view",
      "type": "function"
    },
    {
      "inputs": [],
      "name": "maxPerAddressDuringMint",
      "outputs": [
        {
          "internalType": "uint256",
          "name": "",
          "type": "uint256"
        }
      ],
      "stateMutability": "view",
      "type": "function"
    },
    {
      "inputs": [],
      "name": "name",
      "outputs": [
        {
          "internalType": "string",
          "name": "",
          "type": "string"
        }
      ],
      "stateMutability": "view",
      "type": "function"
    },
    {
      "inputs": [
        {
          "internalType": "address",
          "name": "_owner",
          "type": "address"
        }
      ],
      "name": "numberMinted",
      "outputs": [
        {
          "internalType": "uint256",
          "name": "",
          "type": "uint256"
        }
      ],
      "stateMutability": "view",
      "type": "function"
    },
    {
      "inputs": [],
      "name": "owner",
      "outputs": [
        {
          "internalType": "address",
          "name": "",
          "type": "address"
        }
      ],
      "stateMutability": "view",
      "type": "function"
    },
    {
      "inputs": [
        {
          "internalType": "uint256",
          "name": "tokenId",
          "type": "uint256"
        }
      ],
      "name": "ownerOf",
      "outputs": [
        {
          "internalType": "address",
          "name": "",
          "type": "address"
        }
      ],
      "stateMutability": "view",
      "type": "function"
    },
    {
      "inputs": [],
      "name": "pause",
      "outputs": [],
      "stateMutability": "nonpayable",
      "type": "function"
    },
    {
      "inputs": [],
      "name": "paused",
      "outputs": [
        {
          "internalType": "bool",
          "name": "",
          "type": "bool"
        }
      ],
      "stateMutability": "view",
      "type": "function"
    },
    {
      "inputs": [],
      "name": "pendingOwner",
      "outputs": [
        {
          "internalType": "address",
          "name": "",
          "type": "address"
        }
      ],
      "stateMutability": "view",
      "type": "function"
    },
    {
      "inputs": [],
      "name": "publicSaleEndTime",
      "outputs": [
        {
          "internalType": "uint256",
          "name": "",
          "type": "uint256"
        }
      ],
      "stateMutability": "view",
      "type": "function"
    },
    {
      "inputs": [
        {
          "internalType": "uint256",
          "name": "_quantity",
          "type": "uint256"
        }
      ],
      "name": "publicSaleMint",
      "outputs": [],
      "stateMutability": "payable",
      "type": "function"
    },
    {
      "inputs": [],
      "name": "publicSaleStartTime",
      "outputs": [
        {
          "internalType": "uint256",
          "name": "",
          "type": "uint256"
        }
      ],
      "stateMutability": "view",
      "type": "function"
    },
    {
      "inputs": [],
      "name": "renounceOwnership",
      "outputs": [],
      "stateMutability": "nonpayable",
      "type": "function"
    },
    {
      "inputs": [
        {
          "internalType": "bytes32",
          "name": "role",
          "type": "bytes32"
        },
        {
          "internalType": "address",
          "name": "account",
          "type": "address"
        }
      ],
      "name": "renounceRole",
      "outputs": [],
      "stateMutability": "nonpayable",
      "type": "function"
    },
    {
      "inputs": [],
      "name": "revealNextBatch",
      "outputs": [],
      "stateMutability": "nonpayable",
      "type": "function"
    },
    {
      "inputs": [],
      "name": "revokePendingOwner",
      "outputs": [],
      "stateMutability": "nonpayable",
      "type": "function"
    },
    {
      "inputs": [
        {
          "internalType": "bytes32",
          "name": "role",
          "type": "bytes32"
        },
        {
          "internalType": "address",
          "name": "account",
          "type": "address"
        }
      ],
      "name": "revokeRole",
      "outputs": [],
      "stateMutability": "nonpayable",
      "type": "function"
    },
    {
      "inputs": [
        {
          "internalType": "uint256",
          "name": "_tokenId",
          "type": "uint256"
        },
        {
          "internalType": "uint256",
          "name": "_salePrice",
          "type": "uint256"
        }
      ],
      "name": "royaltyInfo",
      "outputs": [
        {
          "internalType": "address",
          "name": "",
          "type": "address"
        },
        {
          "internalType": "uint256",
          "name": "",
          "type": "uint256"
        }
      ],
      "stateMutability": "view",
      "type": "function"
    },
    {
      "inputs": [
        {
          "internalType": "address",
          "name": "from",
          "type": "address"
        },
        {
          "internalType": "address",
          "name": "to",
          "type": "address"
        },
        {
          "internalType": "uint256",
          "name": "tokenId",
          "type": "uint256"
        }
      ],
      "name": "safeTransferFrom",
      "outputs": [],
      "stateMutability": "nonpayable",
      "type": "function"
    },
    {
      "inputs": [
        {
          "internalType": "address",
          "name": "from",
          "type": "address"
        },
        {
          "internalType": "address",
          "name": "to",
          "type": "address"
        },
        {
          "internalType": "uint256",
          "name": "tokenId",
          "type": "uint256"
        },
        {
          "internalType": "bytes",
          "name": "_data",
          "type": "bytes"
        }
      ],
      "name": "safeTransferFrom",
      "outputs": [],
      "stateMutability": "nonpayable",
      "type": "function"
    },
    {
      "inputs": [],
      "name": "salePrice",
      "outputs": [
        {
          "internalType": "uint256",
          "name": "",
          "type": "uint256"
        }
      ],
      "stateMutability": "view",
      "type": "function"
    },
    {
      "inputs": [
        {
          "internalType": "address[]",
          "name": "_addresses",
          "type": "address[]"
        },
        {
          "internalType": "uint256[]",
          "name": "_numNfts",
          "type": "uint256[]"
        }
      ],
      "name": "seedAllowlist",
      "outputs": [],
      "stateMutability": "nonpayable",
      "type": "function"
    },
    {
      "inputs": [
        {
          "internalType": "uint256",
          "name": "_allowlistStartTime",
          "type": "uint256"
        }
      ],
      "name": "setAllowlistStartTime",
      "outputs": [],
      "stateMutability": "nonpayable",
      "type": "function"
    },
    {
      "inputs": [
        {
          "internalType": "address",
          "name": "operator",
          "type": "address"
        },
        {
          "internalType": "bool",
          "name": "approved",
          "type": "bool"
        }
      ],
      "name": "setApprovalForAll",
      "outputs": [],
      "stateMutability": "nonpayable",
      "type": "function"
    },
    {
      "inputs": [
        {
          "internalType": "string",
          "name": "_baseURI",
          "type": "string"
        }
      ],
      "name": "setBaseURI",
      "outputs": [],
      "stateMutability": "nonpayable",
      "type": "function"
    },
    {
      "inputs": [
        {
          "internalType": "address",
          "name": "_batchReveal",
          "type": "address"
        }
      ],
      "name": "setBatchReveal",
      "outputs": [],
      "stateMutability": "nonpayable",
      "type": "function"
    },
    {
      "inputs": [
        {
          "internalType": "address",
          "name": "pendingOwner_",
          "type": "address"
        }
      ],
      "name": "setPendingOwner",
      "outputs": [],
      "stateMutability": "nonpayable",
      "type": "function"
    },
    {
      "inputs": [
        {
          "internalType": "uint256",
          "name": "_publicSaleEndTime",
          "type": "uint256"
        }
      ],
      "name": "setPublicSaleEndTime",
      "outputs": [],
      "stateMutability": "nonpayable",
      "type": "function"
    },
    {
      "inputs": [
        {
          "internalType": "uint256",
          "name": "_publicSaleStartTime",
          "type": "uint256"
        }
      ],
      "name": "setPublicSaleStartTime",
      "outputs": [],
      "stateMutability": "nonpayable",
      "type": "function"
    },
    {
      "inputs": [
        {
          "internalType": "address",
          "name": "_receiver",
          "type": "address"
        },
        {
          "internalType": "uint96",
          "name": "_feePercent",
          "type": "uint96"
        }
      ],
      "name": "setRoyaltyInfo",
      "outputs": [],
      "stateMutability": "nonpayable",
      "type": "function"
    },
    {
      "inputs": [
        {
          "internalType": "string",
          "name": "_unrevealedURI",
          "type": "string"
        }
      ],
      "name": "setUnrevealedURI",
      "outputs": [],
      "stateMutability": "nonpayable",
      "type": "function"
    },
    {
      "inputs": [
        {
          "internalType": "uint256",
          "name": "_withdrawAVAXStartTime",
          "type": "uint256"
        }
      ],
      "name": "setWithdrawAVAXStartTime",
      "outputs": [],
      "stateMutability": "nonpayable",
      "type": "function"
    },
    {
      "inputs": [
        {
          "internalType": "bytes4",
          "name": "_interfaceId",
          "type": "bytes4"
        }
      ],
      "name": "supportsInterface",
      "outputs": [
        {
          "internalType": "bool",
          "name": "",
          "type": "bool"
        }
      ],
      "stateMutability": "view",
      "type": "function"
    },
    {
      "inputs": [],
      "name": "symbol",
      "outputs": [
        {
          "internalType": "string",
          "name": "",
          "type": "string"
        }
      ],
      "stateMutability": "view",
      "type": "function"
    },
    {
      "inputs": [
        {
          "internalType": "uint256",
          "name": "_id",
          "type": "uint256"
        }
      ],
      "name": "tokenURI",
      "outputs": [
        {
          "internalType": "string",
          "name": "",
          "type": "string"
        }
      ],
      "stateMutability": "view",
      "type": "function"
    },
    {
      "inputs": [],
      "name": "totalSupply",
      "outputs": [
        {
          "internalType": "uint256",
          "name": "",
          "type": "uint256"
        }
      ],
      "stateMutability": "view",
      "type": "function"
    },
    {
      "inputs": [
        {
          "internalType": "address",
          "name": "from",
          "type": "address"
        },
        {
          "internalType": "address",
          "name": "to",
          "type": "address"
        },
        {
          "internalType": "uint256",
          "name": "tokenId",
          "type": "uint256"
        }
      ],
      "name": "transferFrom",
      "outputs": [],
      "stateMutability": "nonpayable",
      "type": "function"
    },
    {
      "inputs": [],
      "name": "unpause",
      "outputs": [],
      "stateMutability": "nonpayable",
      "type": "function"
    },
    {
      "inputs": [],
      "name": "unrevealedURI",
      "outputs": [
        {
          "internalType": "string",
          "name": "",
          "type": "string"
        }
      ],
      "stateMutability": "view",
      "type": "function"
    },
    {
      "inputs": [
        {
          "internalType": "address",
          "name": "_to",
          "type": "address"
        }
      ],
      "name": "withdrawAVAX",
      "outputs": [],
      "stateMutability": "nonpayable",
      "type": "function"
    },
    {
      "inputs": [],
      "name": "withdrawAVAXStartTime",
      "outputs": [
        {
          "internalType": "uint256",
          "name": "",
          "type": "uint256"
        }
      ],
      "stateMutability": "view",
      "type": "function"
    }
  ],
  "transactionHash": "0x7a253ac0044128c1da4837cead95d46c2c57821c038ae6a023bfd7044532ffbb",
  "args": [],
  "numDeployments": 7,
  "solcInputHash": "a00c48a2302dbf10318fee51b3908425",
  "bytecode": "0x608060405234801561001057600080fd5b50614a70806100206000396000f3fe6080604052600436106104685760003560e01c806370a952501161024a578063c180526a11610139578063e30c3978116100b6578063f51f96dd1161007a578063f51f96dd14610dc3578063f9dca98914610dda578063fb1bb9de14610def578063fbe1aa5114610e23578063fe2c7fee14610e3a57600080fd5b8063e30c397814610ce8578063e4b26d8414610d06578063e63ab1e914610d26578063e985e9c514610d5a578063ecbbfea314610da357600080fd5b8063ca15c873116100fd578063ca15c87314610c5b578063d547741f14610c7b578063d62b630314610c9b578063d9a6f70514610cb2578063dc33e68114610cc857600080fd5b8063c180526a14610bda578063c42069ec14610bed578063c5482fe314610c0d578063c792e16714610c24578063c87b56dd14610c3b57600080fd5b8063963331d8116101c7578063a7cd52cb1161018b578063a7cd52cb14610b37578063b05863d514610b65578063b3ab66b014610b85578063b88d4fde14610b98578063be62da0e14610bb857600080fd5b8063963331d814610aab578063995b94f214610ac2578063a1ef0e5414610ae2578063a217fddf14610b02578063a22cb46514610b1757600080fd5b80639010d07c1161020e5780639010d07c146109e957806390967a5214610a0957806391d1485414610a205780639231ab2a14610a4057806395d89b4114610a9657600080fd5b806370a9525014610956578063715018a61461098a5780638456cb591461099f5780638bc35c2f146109b45780638da5cb5b146109cb57600080fd5b806336568abe116103665780635c975abb116102e35780636bb7b1d9116102a75780636bb7b1d9146108d55780636c0360eb146108ec5780636d5d40c6146109015780637035bf181461092157806370a082311461093657600080fd5b80635c975abb146108535780635d20a9ba1461086b578063622f1c471461088b5780636352211e146108a057806367ab8a4e146108c057600080fd5b806345c0f5331161032a57806345c0f533146107cd57806355f804b3146107e457806359d7bc4d146108045780635bb213761461081b5780635c7034af1461083c57600080fd5b806336568abe14610741578063375a069a146107615780633cc4cadb146107815780633f4ba83a1461079857806342842e0e146107ad57600080fd5b806318160ddd116103f4578063248a9ca3116103b8578063248a9ca31461066757806325a00473146106975780632913daa0146106cb5780632a55205a146106e25780632f2ff15d1461072157600080fd5b806318160ddd146105cc5780631c0310a5146105ef5780631e4d185f1461060f57806321cc16111461062657806323b872dd1461064757600080fd5b8063055ad42e1161043b578063055ad42e1461051057806306fdde0314610532578063081812fc14610554578063095ea7b31461058c5780630c2c39a3146105ac57600080fd5b806301ffc9a71461046d57806302fa7c47146104a257806303851c28146104c457806303b674d3146104f0575b600080fd5b34801561047957600080fd5b5061048d6104883660046144b2565b610e5a565b60405190151581526020015b60405180910390f35b3480156104ae57600080fd5b506104c26104bd366004614366565b610e85565b005b3480156104d057600080fd5b506104d9610f31565b604080519215158352602083019190915201610499565b3480156104fc57600080fd5b506104c261050b366004614454565b610ff3565b34801561051c57600080fd5b506105256110c1565b6040516104999190614745565b34801561053e57600080fd5b50610547611156565b604051610499919061476d565b34801561056057600080fd5b5061057461056f366004614454565b6111e8565b6040516001600160a01b039091168152602001610499565b34801561059857600080fd5b506104c26105a736600461433c565b61122c565b3480156105b857600080fd5b506104c26105c7366004614454565b6112ba565b3480156105d857600080fd5b50606654606554035b604051908152602001610499565b3480156105fb57600080fd5b506104c261060a366004614200565b61133c565b34801561061b57600080fd5b506105e16101a35481565b34801561063257600080fd5b5061019354610574906001600160a01b031681565b34801561065357600080fd5b506104c261066236600461424e565b6115d1565b34801561067357600080fd5b506105e1610682366004614454565b60009081526099602052604090206001015490565b3480156106a357600080fd5b506105e17fe0e65c783ac33ff1c5ccf4399c9185066773921d6f8d050bf80781603021f09781565b3480156106d757600080fd5b506105e16101975481565b3480156106ee57600080fd5b506107026106fd366004614490565b6115dc565b604080516001600160a01b039093168352602083019190915201610499565b34801561072d57600080fd5b506104c261073c36600461446d565b61168c565b34801561074d57600080fd5b506104c261075c36600461446d565b611716565b34801561076d57600080fd5b506104c261077c366004614454565b61173f565b34801561078d57600080fd5b506105e161019f5481565b3480156107a457600080fd5b506104c2611912565b3480156107b957600080fd5b506104c26107c836600461424e565b6119c2565b3480156107d957600080fd5b506105e16101945481565b3480156107f057600080fd5b506104c26107ff3660046144ec565b6119dd565b34801561081057600080fd5b506105e16101a15481565b34801561082757600080fd5b5061019a54610574906001600160a01b031681565b34801561084857600080fd5b506105e161019e5481565b34801561085f57600080fd5b5060fd5460ff1661048d565b34801561087757600080fd5b506104c261088636600461461e565b611a53565b34801561089757600080fd5b506104c2611bb1565b3480156108ac57600080fd5b506105746108bb366004614454565b611cdb565b3480156108cc57600080fd5b506104c2611ced565b3480156108e157600080fd5b506105e16101a25481565b3480156108f857600080fd5b50610547611d4b565b34801561090d57600080fd5b506104c261091c366004614454565b611dda565b34801561092d57600080fd5b50610547611ea4565b34801561094257600080fd5b506105e1610951366004614200565b611eb2565b34801561096257600080fd5b506105e17fe516f7ac9747f401e208331379a0bafe3c9c4dbb6501fd23bcef278f7ebaf4e581565b34801561099657600080fd5b506104c2611f00565b3480156109ab57600080fd5b506104c2611f35565b3480156109c057600080fd5b506105e16101985481565b3480156109d757600080fd5b506097546001600160a01b0316610574565b3480156109f557600080fd5b50610574610a04366004614490565b611fe3565b348015610a1557600080fd5b506105e16101a55481565b348015610a2c57600080fd5b5061048d610a3b36600461446d565b612002565b348015610a4c57600080fd5b50610a60610a5b366004614454565b61202d565b6040805182516001600160a01b031681526020808401516001600160401b03169082015291810151151590820152606001610499565b348015610aa257600080fd5b50610547612053565b348015610ab757600080fd5b506105e16101a05481565b348015610ace57600080fd5b506104c2610add36600461455d565b612062565b348015610aee57600080fd5b506104c2610afd366004614454565b612133565b348015610b0e57600080fd5b506105e1600081565b348015610b2357600080fd5b506104c2610b32366004614305565b6121d9565b348015610b4357600080fd5b506105e1610b52366004614200565b61019d6020526000908152604090205481565b348015610b7157600080fd5b506104c2610b8036600461439e565b61226f565b6104c2610b93366004614454565b612368565b348015610ba457600080fd5b506104c2610bb336600461428a565b612503565b348015610bc457600080fd5b506105e1600080516020614a1b83398151915281565b6104c2610be8366004614454565b61254e565b348015610bf957600080fd5b506104c2610c08366004614200565b6126d3565b348015610c1957600080fd5b506105e16101995481565b348015610c3057600080fd5b506105e16101a45481565b348015610c4757600080fd5b50610547610c56366004614454565b612758565b348015610c6757600080fd5b506105e1610c76366004614454565b612949565b348015610c8757600080fd5b506104c2610c9636600461446d565b612960565b348015610ca757600080fd5b506105e16101965481565b348015610cbe57600080fd5b506105e161271081565b348015610cd457600080fd5b506105e1610ce3366004614200565b6129e4565b348015610cf457600080fd5b506098546001600160a01b0316610574565b348015610d1257600080fd5b506104c2610d21366004614200565b612a12565b348015610d3257600080fd5b506105e17f65d7a28e3265b37a6474929f336521b332c1681b933f6cb9f3376673440d862a81565b348015610d6657600080fd5b5061048d610d7536600461421b565b6001600160a01b039182166000908152606c6020908152604080832093909416825291909152205460ff1690565b348015610daf57600080fd5b506104c2610dbe36600461446d565b612a60565b348015610dcf57600080fd5b506105e16101a65481565b348015610de657600080fd5b506104c2612b5c565b348015610dfb57600080fd5b506105e17f427da25fe773164f88948d3e215c94b6554e2ed5e5f203a821c9f2f6131cf75a81565b348015610e2f57600080fd5b506105e16101955481565b348015610e4657600080fd5b506104c2610e553660046144ec565b612b9b565b60006001600160e01b03198216636837c8e760e11b1480610e7f5750610e7f82612c05565b92915050565b6097546001600160a01b03163314610eb057604051630202a8bf60e61b815260040160405180910390fd5b6109c4816001600160601b03161115610edc576040516306f644f160e31b815260040160405180910390fd5b610ee68282612c66565b6040516001600160601b03821681526001600160a01b038316907fd85b7816dca44c313f0fdadd9567f99f3620a2fac7c21a8a7872e1ac4d10fe559060200160405180910390a25050565b6101935460009081906001600160a01b0316610f505750600091829150565b610193546001600160a01b031663ad9e22af30610f706066546065540390565b6040516001600160e01b031960e085901b1681526001600160a01b0390921660048301526024820152604401604080518083038186803b158015610fb357600080fd5b505afa158015610fc7573d6000803e3d6000fd5b505050506040513d601f19601f82011682018060405250810190610feb9190614426565b915091509091565b6097546001600160a01b0316331461101e57604051630202a8bf60e61b815260040160405180910390fd5b6101a15461103f576040516356a4234d60e11b815260040160405180910390fd5b4281101561106057604051639db169d760e01b815260040160405180910390fd5b806101a2541015611084576040516335bcfe2b60e21b815260040160405180910390fd5b6101a18190556040518181527f9bcdfa29202b48178635d9cf5c57896f671198685cf6b8ddb5e20f3eb4bb1e60906020015b60405180910390a150565b60006101a154600014806110d657506101a254155b806110e257506101a354155b806110ef57506101a15442105b156110fa5750600090565b6101945460665460655403106111105750600490565b6101a154421015801561112557506101a25442105b156111305750600290565b6101a254421015801561114557506101a35442105b156111505750600390565b50600490565b60606067805461116590614908565b80601f016020809104026020016040519081016040528092919081815260200182805461119190614908565b80156111de5780601f106111b3576101008083540402835291602001916111de565b820191906000526020600020905b8154815290600101906020018083116111c157829003601f168201915b5050505050905090565b60006111f382612d64565b611210576040516333d1c03960e21b815260040160405180910390fd5b506000908152606b60205260409020546001600160a01b031690565b600061123782611cdb565b9050806001600160a01b0316836001600160a01b0316141561126c5760405163250fdee360e21b815260040160405180910390fd5b336001600160a01b0382161480159061128c575061128a8133610d75565b155b156112aa576040516367d9dca160e11b815260040160405180910390fd5b6112b5838383612d90565b505050565b6097546001600160a01b031633146112e557604051630202a8bf60e61b815260040160405180910390fd5b4281101561130657604051639db169d760e01b815260040160405180910390fd5b6101a48190556040518181527f90513fea331bb55e4ca73a8d0c053a255347ccb17c621338052705ea997383b3906020016110b6565b600080516020614a1b83398151915261135d6097546001600160a01b031690565b6001600160a01b0316336001600160a01b03161415801561138557506113838133612002565b155b156113b15760405163f9019a8d60e01b8152600481018290523360248201526044015b60405180910390fd5b600261012f5414156114055760405162461bcd60e51b815260206004820152601f60248201527f5265656e7472616e637947756172643a207265656e7472616e742063616c6c0060448201526064016113a8565b600261012f5560fd5460ff161561142e5760405162461bcd60e51b81526004016113a890614805565b426101a454118061144057506101a454155b1561145e57604051633bd1a57d60e11b815260040160405180910390fd5b61019954479060009081901561150e57612710610199548461148091906148a6565b61148a9190614892565b915061149682846148c5565b61019a546040519194506001600160a01b0316908390600081818185875af1925050503d80600081146114e5576040519150601f19603f3d011682016040523d82523d6000602084013e6114ea565b606091505b5050809150508061150e57604051633aa9e60d60e21b815260040160405180910390fd5b6040516001600160a01b038616908490600081818185875af1925050503d8060008114611557576040519150601f19603f3d011682016040523d82523d6000602084013e61155c565b606091505b5050809150508061158057604051633aa9e60d60e21b815260040160405180910390fd5b60408051848152602081018490526001600160a01b038716917f12eb5d7ccd4ce398edc94007dfbaa22fa2ac8775a3633530f36053ad765262f4910160405180910390a25050600161012f55505050565b6112b5838383612dec565b6000828152610162602090815260408083208151808301909252546001600160a01b038116808352600160a01b9091046001600160601b0316928201929092528291611653575060408051808201909152610161546001600160a01b0381168252600160a01b90046001600160601b031660208201525b602081015160009061271090611672906001600160601b0316876148a6565b61167c9190614892565b91519350909150505b9250929050565b81806116ab5760405163e466584960e01b815260040160405180910390fd5b6000838152609960205260409020600101546097546001600160a01b031633148015906116df57506116dd8133612002565b155b156117065760405163f9019a8d60e01b8152600481018290523360248201526044016113a8565b6117108484612fda565b50505050565b81806117355760405163e466584960e01b815260040160405180910390fd5b6112b58383612ffc565b600080516020614a1b8339815191526117606097546001600160a01b031690565b6001600160a01b0316336001600160a01b03161415801561178857506117868133612002565b155b156117af5760405163f9019a8d60e01b8152600481018290523360248201526044016113a8565b60fd5460ff16156117d25760405162461bcd60e51b81526004016113a890614805565b61019454826117e46066546065540390565b6117ee919061487a565b111561180d57604051631eddc6a360e11b815260040160405180910390fd5b610195548261019e54611820919061487a565b111561183f5760405163011310dd60e31b815260040160405180910390fd5b8161019e5461184e919061487a565b61019e55610197546000906118639084614892565b905060005b818110156118a15761188f336101975460405180602001604052806000815250600061307a565b8061189981614943565b915050611868565b50600061019754846118b3919061495e565b905080156118d7576118d7338260405180602001604052806000815250600061307a565b60405184815233907f7d8400f0e58ae2e14f85b63f3afb0ca5b29328d8f48046b205fc7f174cf9b5ed9060200160405180910390a250505050565b7f427da25fe773164f88948d3e215c94b6554e2ed5e5f203a821c9f2f6131cf75a6119456097546001600160a01b031690565b6001600160a01b0316336001600160a01b03161415801561196d575061196b8133612002565b155b156119945760405163f9019a8d60e01b8152600481018290523360248201526044016113a8565b60fd5460ff166119b757604051637514f14160e11b815260040160405180910390fd5b6119bf613245565b50565b6112b583838360405180602001604052806000815250612503565b6097546001600160a01b03163314611a0857604051630202a8bf60e61b815260040160405180910390fd5b611a1561019b8383614003565b507ff9c7803e94e0d3c02900d8a90893a6d5e90dd04d32a4cfe825520f82bf9f32f661019b604051611a479190614780565b60405180910390a15050565b6097546001600160a01b03163314611a7e57604051630202a8bf60e61b815260040160405180910390fd5b600080611a896110c1565b6004811115611a9a57611a9a61499e565b14611ab8576040516338df794b60e01b815260040160405180910390fd5b42861015611ad957604051639db169d760e01b815260040160405180910390fd5b85851015611afa576040516335bcfe2b60e21b815260040160405180910390fd5b84841015611b1b57604051631e3804ab60e21b815260040160405180910390fd5b81831115611b3c57604051631da61f9760e11b815260040160405180910390fd5b6101a68290556101a58390556101a18690556101a28590556101a3849055604080518781526020810187905290810185905260608101849052608081018390527f3366bff9180dc679de412e14374840b3fd49c9fcfd15d06597e2b228f094801e9060a00160405180910390a1505050505050565b323314611bd157604051633059e46160e21b815260040160405180910390fd5b60fd5460ff1615611bf45760405162461bcd60e51b81526004016113a890614805565b610193546001600160a01b0316611c1e5760405163114d098b60e31b815260040160405180910390fd5b610193546001600160a01b031663fbbc872b30611c3e6066546065540390565b6040516001600160e01b031960e085901b1681526001600160a01b0390921660048301526024820152604401602060405180830381600087803b158015611c8457600080fd5b505af1158015611c98573d6000803e3d6000fd5b505050506040513d601f19601f82011682018060405250810190611cbc9190614409565b611cd95760405163fc58cf3f60e01b815260040160405180910390fd5b565b6000611ce6826132d8565b5192915050565b6097546001600160a01b03163314611d1857604051630202a8bf60e61b815260040160405180910390fd5b6098546001600160a01b0316611d415760405163128be5bf60e31b815260040160405180910390fd5b611cd960006133f2565b61019b8054611d5990614908565b80601f0160208091040260200160405190810160405280929190818152602001828054611d8590614908565b8015611dd25780601f10611da757610100808354040283529160200191611dd2565b820191906000526020600020905b815481529060010190602001808311611db557829003601f168201915b505050505081565b6097546001600160a01b03163314611e0557604051630202a8bf60e61b815260040160405180910390fd5b6101a254611e26576040516356a4234d60e11b815260040160405180910390fd5b6101a154811015611e4a576040516335bcfe2b60e21b815260040160405180910390fd5b806101a3541015611e6e57604051631e3804ab60e21b815260040160405180910390fd5b6101a28190556040518181527f4fe26bfd1cf59c4428b13357bea5ab8239f9889b3f94cd575f98b4c6811dcdc5906020016110b6565b61019c8054611d5990614908565b60006001600160a01b038216611edb576040516323d3ad8160e21b815260040160405180910390fd5b506001600160a01b03166000908152606a60205260409020546001600160401b031690565b6097546001600160a01b03163314611f2b57604051630202a8bf60e61b815260040160405180910390fd5b611cd9600061343c565b7f65d7a28e3265b37a6474929f336521b332c1681b933f6cb9f3376673440d862a611f686097546001600160a01b031690565b6001600160a01b0316336001600160a01b031614158015611f905750611f8e8133612002565b155b15611fb75760405163f9019a8d60e01b8152600481018290523360248201526044016113a8565b60fd5460ff1615611fdb576040516329c0c03160e11b815260040160405180910390fd5b6119bf61347b565b600082815260cb60205260408120611ffb90836134d3565b9392505050565b60009182526099602090815260408084206001600160a01b0393909316845291905290205460ff1690565b6040805160608101825260008082526020820181905291810191909152610e7f826132d8565b60606068805461116590614908565b600054610100900460ff1661207d5760005460ff1615612081565b303b155b6120e45760405162461bcd60e51b815260206004820152602e60248201527f496e697469616c697a61626c653a20636f6e747261637420697320616c72656160448201526d191e481a5b9a5d1a585b1a5e995960921b60648201526084016113a8565b600054610100900460ff16158015612106576000805461ffff19166101011790555b61211689898989898989896134df565b8015612128576000805461ff00191690555b505050505050505050565b6097546001600160a01b0316331461215e57604051630202a8bf60e61b815260040160405180910390fd5b6101a35461217f576040516356a4234d60e11b815260040160405180910390fd5b6101a2548110156121a357604051631e3804ab60e21b815260040160405180910390fd5b6101a38190556040518181527fdb76c49adfe8600a5db82e1d85e7c1f7565676dac577c6a39744e9c95ad68e3c906020016110b6565b6001600160a01b0382163314156122035760405163b06307db60e01b815260040160405180910390fd5b336000818152606c602090815260408083206001600160a01b03871680855290835292819020805460ff191686151590811790915590519081529192917f17307eab39ab6107e8899845ad3d59bd9653f200f220920489ca2b5937696c31910160405180910390a35050565b6097546001600160a01b0316331461229a57604051630202a8bf60e61b815260040160405180910390fd5b828181146122bb57604051638d62a9d560e01b815260040160405180910390fd5b60005b81811015612337578383828181106122d8576122d86149ca565b9050602002013561019d60008888858181106122f6576122f66149ca565b905060200201602081019061230b9190614200565b6001600160a01b031681526020810191909152604001600020558061232f81614943565b9150506122be565b506040517f0df27beb8d16f5e61d125286ba69a986a702ac83921bb1864629ca5e662e84d490600090a15050505050565b32331461238857604051633059e46160e21b815260040160405180910390fd5b60fd5460ff16156123ab5760405162461bcd60e51b81526004016113a890614805565b6003806123b66110c1565b60048111156123c7576123c761499e565b146123e5576040516338df794b60e01b815260040160405180910390fd5b61019854826123f3336129e4565b6123fd919061487a565b111561241c576040516335e62b7b60e21b815260040160405180910390fd5b610194548261242e6066546065540390565b612438919061487a565b111561245757604051631eddc6a360e11b815260040160405180910390fd5b6000826101a65461246891906148a6565b9050612486338460405180602001604052806000815250600061307a565b826101a06000828254612499919061487a565b90915550506101a65433907fb4c03061fb5b7fed76389d5af8f2e0ddb09f8c70d1333abbb62582835e10accb908590816124d260655490565b6124dc91906148c5565b6040805193845260208401929092529082015260600160405180910390a26112b5816135ec565b61250e848484612dec565b6001600160a01b0383163b15158015612530575061252e84848484613687565b155b15611710576040516368d2bf6b60e11b815260040160405180910390fd5b60fd5460ff16156125715760405162461bcd60e51b81526004016113a890614805565b60028061257c6110c1565b600481111561258d5761258d61499e565b146125ab576040516338df794b60e01b815260040160405180910390fd5b33600090815261019d60205260409020548211156125dc576040516390e50aa560e01b815260040160405180910390fd5b61019454826125ee6066546065540390565b6125f8919061487a565b11806126145750610196548261019f54612612919061487a565b115b1561263257604051631eddc6a360e11b815260040160405180910390fd5b33600090815261019d6020526040812080548492906126529084906148c5565b90915550506101a5546000906126699084906148a6565b9050612687338460405180602001604052806000815250600061307a565b8261019f600082825461269a919061487a565b90915550506101a55433907fb4c03061fb5b7fed76389d5af8f2e0ddb09f8c70d1333abbb62582835e10accb908590816124d260655490565b6097546001600160a01b031633146126fe57604051630202a8bf60e61b815260040160405180910390fd5b6001600160a01b038116612725576040516386850cc360e01b815260040160405180910390fd5b6098546001600160a01b03161561274f5760405163033c108960e01b815260040160405180910390fd5b6119bf816133f2565b610193546060906001600160a01b031661279f5761019b6127788361377f565b604051602001612789929190614685565b6040516020818303038152906040529050919050565b61019354604051635e1578db60e11b81523060048201526001600160a01b039091169063bc2af1b69060240160206040518083038186803b1580156127e357600080fd5b505afa1580156127f7573d6000803e3d6000fd5b505050506040513d601f19601f8201168201806040525081019061281b9190614605565b82106128b45761019c805461282f90614908565b80601f016020809104026020016040519081016040528092919081815260200182805461285b90614908565b80156128a85780601f1061287d576101008083540402835291602001916128a8565b820191906000526020600020905b81548152906001019060200180831161288b57829003601f168201915b50505050509050919050565b61019354604051631f4b3c0160e11b81523060048201526024810184905261019b91612778916001600160a01b0390911690633e9678029060440160206040518083038186803b15801561290757600080fd5b505afa15801561291b573d6000803e3d6000fd5b505050506040513d601f19601f8201168201806040525081019061293f9190614605565b61377f565b919050565b600081815260cb60205260408120610e7f9061387c565b818061297f5760405163e466584960e01b815260040160405180910390fd5b6000838152609960205260409020600101546097546001600160a01b031633148015906129b357506129b18133612002565b155b156129da5760405163f9019a8d60e01b8152600481018290523360248201526044016113a8565b6117108484613886565b6001600160a01b0381166000908152606a6020526040812054600160401b90046001600160401b0316610e7f565b6097546001600160a01b03163314612a3d57604051630202a8bf60e61b815260040160405180910390fd5b61019380546001600160a01b0319166001600160a01b0392909216919091179055565b6097546001600160a01b03163314612a8b57604051630202a8bf60e61b815260040160405180910390fd5b61019a546001600160a01b031615612ab6576040516345db6e6960e11b815260040160405180910390fd5b612710821115612ad9576040516346b7d95d60e11b815260040160405180910390fd5b6001600160a01b038116612b0057604051631a1b629760e21b815260040160405180910390fd5b61019982905561019a80546001600160a01b0319166001600160a01b0383169081179091556040805184815260208101929092527fd7d086964f00d2604a80288c460231fe9cfc8e9605e838d49017401111f63adb9101611a47565b6098546001600160a01b031633141580612b74575033155b15612b925760405163134aa98760e31b815260040160405180910390fd5b611cd93361343c565b6097546001600160a01b03163314612bc657604051630202a8bf60e61b815260040160405180910390fd5b612bd361019c8383614003565b507f4012c6d278d4b460acbc560e9fa4425e187c3b40c848b8dfa248139729efee4361019c604051611a479190614780565b60006001600160e01b03198216639ccbe54160e01b1480612c2a5750612c2a826138a8565b80612c395750612c39826138e8565b80612c485750612c488261390d565b80612c575750612c5782613923565b80610e7f5750610e7f826138e8565b6127106001600160601b0382161115612cd45760405162461bcd60e51b815260206004820152602a60248201527f455243323938313a20726f79616c7479206665652077696c6c206578636565646044820152692073616c65507269636560b01b60648201526084016113a8565b6001600160a01b038216612d2a5760405162461bcd60e51b815260206004820152601960248201527f455243323938313a20696e76616c69642072656365697665720000000000000060448201526064016113a8565b604080518082019091526001600160a01b039092168083526001600160601b039091166020909201829052600160a01b9091021761016155565b600060655482108015610e7f575050600090815260696020526040902054600160e01b900460ff161590565b6000828152606b602052604080822080546001600160a01b0319166001600160a01b0387811691821790925591518593918516917f8c5be1e5ebec7d5bd14f71427d1e84f3dd0314c0f7b2291e5b200ac8c7c3b92591a4505050565b6000612df7826132d8565b9050836001600160a01b031681600001516001600160a01b031614612e2e5760405162a1148160e81b815260040160405180910390fd5b6000336001600160a01b0386161480612e4c5750612e4c8533610d75565b80612e67575033612e5c846111e8565b6001600160a01b0316145b905080612e8757604051632ce44b5f60e11b815260040160405180910390fd5b6001600160a01b038416612eae57604051633a954ecd60e21b815260040160405180910390fd5b612eba60008487612d90565b6001600160a01b038581166000908152606a60209081526040808320805467ffffffffffffffff198082166001600160401b0392831660001901831617909255898616808652838620805493841693831660019081018416949094179055898652606990945282852080546001600160e01b031916909417600160a01b42909216919091021783558701808452922080549193909116612f8e576065548214612f8e57805460208601516001600160401b0316600160a01b026001600160e01b03199091166001600160a01b038a16171781555b50505082846001600160a01b0316866001600160a01b03167fddf252ad1be2c89b69c2b068fc378daa952ba7f163c4a11628f55a4df523b3ef60405160405180910390a45b5050505050565b612fe48282613948565b600082815260cb602052604090206112b590826139ce565b6001600160a01b038116331461306c5760405162461bcd60e51b815260206004820152602f60248201527f416363657373436f6e74726f6c3a2063616e206f6e6c792072656e6f756e636560448201526e103937b632b9903337b91039b2b63360891b60648201526084016113a8565b6130768282613886565b5050565b6065546001600160a01b0385166130a357604051622e076360e81b815260040160405180910390fd5b836130c15760405163b562e8dd60e01b815260040160405180910390fd5b6001600160a01b0385166000818152606a6020908152604080832080546fffffffffffffffffffffffffffffffff1981166001600160401b038083168c018116918217600160401b67ffffffffffffffff1990941690921783900481168c01811690920217909155858452606990925290912080546001600160e01b031916909217600160a01b42909216919091021790558080850183801561316d57506001600160a01b0387163b15155b156131f6575b60405182906001600160a01b038916906000907fddf252ad1be2c89b69c2b068fc378daa952ba7f163c4a11628f55a4df523b3ef908290a46131be6000888480600101955088613687565b6131db576040516368d2bf6b60e11b815260040160405180910390fd5b808214156131735782606554146131f157600080fd5b61323c565b5b6040516001830192906001600160a01b038916906000907fddf252ad1be2c89b69c2b068fc378daa952ba7f163c4a11628f55a4df523b3ef908290a4808214156131f7575b50606555612fd3565b60fd5460ff1661328e5760405162461bcd60e51b815260206004820152601460248201527314185d5cd8589b194e881b9bdd081c185d5cd95960621b60448201526064016113a8565b60fd805460ff191690557f5db9ee0a495bf2e6ff9c91a7834c1ba4fdd244a5e8aa4e537bd38aeae4b073aa335b6040516001600160a01b03909116815260200160405180910390a1565b6040805160608101825260008082526020820181905291810191909152816065548110156133d957600081815260696020908152604091829020825160608101845290546001600160a01b0381168252600160a01b81046001600160401b031692820192909252600160e01b90910460ff161515918101829052906133d75780516001600160a01b03161561336e579392505050565b5060001901600081815260696020908152604091829020825160608101845290546001600160a01b038116808352600160a01b82046001600160401b031693830193909352600160e01b900460ff16151592810192909252156133d2579392505050565b61336e565b505b604051636f96cda160e11b815260040160405180910390fd5b609880546001600160a01b0319166001600160a01b0383169081179091556040517f68f49b346b94582a8b5f9d10e3fe3365318fe8f191ff8dce7c59c6cad06b02f590600090a250565b61345860006134536097546001600160a01b031690565b613886565b6001600160a01b0381161561347257613472600082612fda565b6119bf816139e3565b60fd5460ff161561349e5760405162461bcd60e51b81526004016113a890614805565b60fd805460ff191660011790557f62e78cea01bee320cd4e420270b5ea74000d11b0c9f74754ebdbfc544b05a2586132bb3390565b6000611ffb8383613a40565b600054610100900460ff166135065760405162461bcd60e51b81526004016113a89061482f565b61350e613a6a565b613516613aa9565b61351e613ad8565b6135288888613aff565b6001600160a01b03861661354f576040516331ae7ba360e21b815260040160405180910390fd5b821580613564575082613562828461487a565b115b1561358257604051631a231d4360e21b815260040160405180910390fd5b828411156135a357604051631ddf40b160e01b815260040160405180910390fd5b6135bb600080516020614a1b8339815191528761168c565b6135c7856101f4612c66565b6101978490556101949290925561019892909255610195919091556101965550505050565b8034101561360f57604051639968ec3d60e01b81523460048201526024016113a8565b803411156119bf5760003361362483346148c5565b604051600081818185875af1925050503d8060008114613660576040519150601f19603f3d011682016040523d82523d6000602084013e613665565b606091505b505090508061307657604051633aa9e60d60e21b815260040160405180910390fd5b604051630a85bd0160e11b81526000906001600160a01b0385169063150b7a02906136bc903390899088908890600401614708565b602060405180830381600087803b1580156136d657600080fd5b505af1925050508015613706575060408051601f3d908101601f19168201909252613703918101906144cf565b60015b613761573d808015613734576040519150601f19603f3d011682016040523d82523d6000602084013e613739565b606091505b508051613759576040516368d2bf6b60e11b815260040160405180910390fd5b805181602001fd5b6001600160e01b031916630a85bd0160e11b1490505b949350505050565b6060816137a35750506040805180820190915260018152600360fc1b602082015290565b8160005b81156137cd57806137b781614943565b91506137c69050600a83614892565b91506137a7565b6000816001600160401b038111156137e7576137e76149e0565b6040519080825280601f01601f191660200182016040528015613811576020820181803683370190505b5090505b8415613777576138266001836148c5565b9150613833600a8661495e565b61383e90603061487a565b60f81b818381518110613853576138536149ca565b60200101906001600160f81b031916908160001a905350613875600a86614892565b9450613815565b6000610e7f825490565b6138908282613b30565b600082815260cb602052604090206112b59082613b97565b60006001600160e01b031982166380ac58cd60e01b14806138d957506001600160e01b03198216635b5e139f60e01b145b80610e7f5750610e7f8261390d565b60006001600160e01b0319821663152a902d60e11b1480610e7f5750610e7f82613923565b6001600160e01b0319166301ffc9a760e01b1490565b60006001600160e01b0319821663f3353d7760e01b1480610e7f5750610e7f82613bac565b6139528282612002565b6130765760008281526099602090815260408083206001600160a01b03851684529091529020805460ff1916600117905561398a3390565b6001600160a01b0316816001600160a01b0316837f2f8788117e7eff1d82e926ec794901d17c78024a50270940304540a733656f0d60405160405180910390a45050565b6000611ffb836001600160a01b038416613bc6565b609780546001600160a01b038381166001600160a01b03198084168217909455609880549094169093556040519116919082907f8be0079c531659141344cd1fd0a4f28419497f9722a3daafe3b4186f6b6457e090600090a35050565b6000826000018281548110613a5757613a576149ca565b9060005260206000200154905092915050565b600054610100900460ff16613a915760405162461bcd60e51b81526004016113a89061482f565b613a99613c15565b613aa1613c54565b611cd9613c83565b600054610100900460ff16613ad05760405162461bcd60e51b81526004016113a89061482f565b611cd9613d3e565b600054610100900460ff16611cd95760405162461bcd60e51b81526004016113a89061482f565b600054610100900460ff16613b265760405162461bcd60e51b81526004016113a89061482f565b6130768282613d6d565b613b3a8282612002565b156130765760008281526099602090815260408083206001600160a01b0385168085529252808320805460ff1916905551339285917ff6391f5c32d9c69d2a47ea670b442974b53935d1edc7fd64eb21e047a839171b9190a45050565b6000611ffb836001600160a01b038416613dc5565b6000613bb782613eb8565b80610e7f5750610e7f82613edd565b6000818152600183016020526040812054613c0d57508154600181810184556000848152602080822090930184905584548482528286019093526040902091909155610e7f565b506000610e7f565b600054610100900460ff16613c3c5760405162461bcd60e51b81526004016113a89061482f565b613c44613f02565b613c4c613ad8565b611cd9613ad8565b600054610100900460ff16613c7b5760405162461bcd60e51b81526004016113a89061482f565b611cd9613f39565b600054610100900460ff16613caa5760405162461bcd60e51b81526004016113a89061482f565b613cf47f65d7a28e3265b37a6474929f336521b332c1681b933f6cb9f3376673440d862a7fe0e65c783ac33ff1c5ccf4399c9185066773921d6f8d050bf80781603021f097613f6c565b611cd97f427da25fe773164f88948d3e215c94b6554e2ed5e5f203a821c9f2f6131cf75a7fe516f7ac9747f401e208331379a0bafe3c9c4dbb6501fd23bcef278f7ebaf4e5613f6c565b600054610100900460ff16613d655760405162461bcd60e51b81526004016113a89061482f565b600161012f55565b600054610100900460ff16613d945760405162461bcd60e51b81526004016113a89061482f565b8151613da7906067906020850190614087565b508051613dbb906068906020840190614087565b5060006065555050565b60008181526001830160205260408120548015613eae576000613de96001836148c5565b8554909150600090613dfd906001906148c5565b9050818114613e62576000866000018281548110613e1d57613e1d6149ca565b9060005260206000200154905080876000018481548110613e4057613e406149ca565b6000918252602080832090910192909255918252600188019052604090208390555b8554869080613e7357613e736149b4565b600190038181906000526020600020016000905590558560010160008681526020019081526020016000206000905560019350505050610e7f565b6000915050610e7f565b60006001600160e01b031982166322d7505760e11b1480610e7f5750610e7f826138a8565b60006001600160e01b03198216635a05180f60e01b1480610e7f5750610e7f82613fb7565b600054610100900460ff16613f295760405162461bcd60e51b81526004016113a89061482f565b613f31613ad8565b611cd9613fdc565b600054610100900460ff16613f605760405162461bcd60e51b81526004016113a89061482f565b60fd805460ff19169055565b600082815260996020526040808220600101805490849055905190918391839186917fbd79b86ffe0ab8e8776151514217cd7cacd52c909f66475c3af44e129f0b00ff9190a4505050565b60006001600160e01b03198216637965db0b60e01b1480610e7f5750610e7f82613eb8565b600054610100900460ff16612b925760405162461bcd60e51b81526004016113a89061482f565b82805461400f90614908565b90600052602060002090601f0160209004810192826140315760008555614077565b82601f1061404a5782800160ff19823516178555614077565b82800160010185558215614077579182015b8281111561407757823582559160200191906001019061405c565b506140839291506140fb565b5090565b82805461409390614908565b90600052602060002090601f0160209004810192826140b55760008555614077565b82601f106140ce57805160ff1916838001178555614077565b82800160010185558215614077579182015b828111156140775782518255916020019190600101906140e0565b5b8082111561408357600081556001016140fc565b60006001600160401b038084111561412a5761412a6149e0565b604051601f8501601f19908116603f01168101908282118183101715614152576141526149e0565b8160405280935085815286868601111561416b57600080fd5b858560208301376000602087830101525050509392505050565b80356001600160a01b038116811461294457600080fd5b60008083601f8401126141ae57600080fd5b5081356001600160401b038111156141c557600080fd5b6020830191508360208260051b850101111561168557600080fd5b600082601f8301126141f157600080fd5b611ffb83833560208501614110565b60006020828403121561421257600080fd5b611ffb82614185565b6000806040838503121561422e57600080fd5b61423783614185565b915061424560208401614185565b90509250929050565b60008060006060848603121561426357600080fd5b61426c84614185565b925061427a60208501614185565b9150604084013590509250925092565b600080600080608085870312156142a057600080fd5b6142a985614185565b93506142b760208601614185565b92506040850135915060608501356001600160401b038111156142d957600080fd5b8501601f810187136142ea57600080fd5b6142f987823560208401614110565b91505092959194509250565b6000806040838503121561431857600080fd5b61432183614185565b91506020830135614331816149f6565b809150509250929050565b6000806040838503121561434f57600080fd5b61435883614185565b946020939093013593505050565b6000806040838503121561437957600080fd5b61438283614185565b915060208301356001600160601b038116811461433157600080fd5b600080600080604085870312156143b457600080fd5b84356001600160401b03808211156143cb57600080fd5b6143d78883890161419c565b909650945060208701359150808211156143f057600080fd5b506143fd8782880161419c565b95989497509550505050565b60006020828403121561441b57600080fd5b8151611ffb816149f6565b6000806040838503121561443957600080fd5b8251614444816149f6565b6020939093015192949293505050565b60006020828403121561446657600080fd5b5035919050565b6000806040838503121561448057600080fd5b8235915061424560208401614185565b600080604083850312156144a357600080fd5b50508035926020909101359150565b6000602082840312156144c457600080fd5b8135611ffb81614a04565b6000602082840312156144e157600080fd5b8151611ffb81614a04565b600080602083850312156144ff57600080fd5b82356001600160401b038082111561451657600080fd5b818501915085601f83011261452a57600080fd5b81358181111561453957600080fd5b86602082850101111561454b57600080fd5b60209290920196919550909350505050565b600080600080600080600080610100898b03121561457a57600080fd5b88356001600160401b038082111561459157600080fd5b61459d8c838d016141e0565b995060208b01359150808211156145b357600080fd5b506145c08b828c016141e0565b9750506145cf60408a01614185565b95506145dd60608a01614185565b979a969950949760808101359660a0820135965060c0820135955060e0909101359350915050565b60006020828403121561461757600080fd5b5051919050565b600080600080600060a0868803121561463657600080fd5b505083359560208501359550604085013594606081013594506080013592509050565b600081518084526146718160208601602086016148dc565b601f01601f19169290920160200192915050565b600080845461469381614908565b600182811680156146ab57600181146146bc576146eb565b60ff198416875282870194506146eb565b8860005260208060002060005b858110156146e25781548a8201529084019082016146c9565b50505082870194505b5050505083516146ff8183602088016148dc565b01949350505050565b6001600160a01b038581168252841660208201526040810183905260806060820181905260009061473b90830184614659565b9695505050505050565b602081016005831061476757634e487b7160e01b600052602160045260246000fd5b91905290565b602081526000611ffb6020830184614659565b600060208083526000845461479481614908565b808487015260406001808416600081146147b557600181146147c9576147f7565b60ff198516898401526060890195506147f7565b896000528660002060005b858110156147ef5781548b82018601529083019088016147d4565b8a0184019650505b509398975050505050505050565b60208082526010908201526f14185d5cd8589b194e881c185d5cd95960821b604082015260600190565b6020808252602b908201527f496e697469616c697a61626c653a20636f6e7472616374206973206e6f74206960408201526a6e697469616c697a696e6760a81b606082015260800190565b6000821982111561488d5761488d614972565b500190565b6000826148a1576148a1614988565b500490565b60008160001904831182151516156148c0576148c0614972565b500290565b6000828210156148d7576148d7614972565b500390565b60005b838110156148f75781810151838201526020016148df565b838111156117105750506000910152565b600181811c9082168061491c57607f821691505b6020821081141561493d57634e487b7160e01b600052602260045260246000fd5b50919050565b600060001982141561495757614957614972565b5060010190565b60008261496d5761496d614988565b500690565b634e487b7160e01b600052601160045260246000fd5b634e487b7160e01b600052601260045260246000fd5b634e487b7160e01b600052602160045260246000fd5b634e487b7160e01b600052603160045260246000fd5b634e487b7160e01b600052603260045260246000fd5b634e487b7160e01b600052604160045260246000fd5b80151581146119bf57600080fd5b6001600160e01b0319811681146119bf57600080fdfe770fadb28e0e3026382976ee8b810cb0eb8666922148dd9e10b20cfb9b477ba8a2646970667358221220160dec0a830285ec0cdb56dd2dfabf6ff482954de955cbfb8b9a01fe93779a6564736f6c63430008060033",
  "devdoc": {
    "author": "Trader Joe",
    "events": {
      "Initialized(uint256,uint256,uint256,uint256,uint256)": {
        "details": "Emitted on initializePhases()",
        "params": {
          "allowlistPrice": "Price of the allowlist sale in Avax",
          "allowlistStartTime": "Allowlist mint start time in seconds",
          "publicSaleEndTime": "Public sale end time in seconds",
          "publicSaleStartTime": "Public sale start time in seconds",
          "salePrice": "Price of the public sale in Avax"
        }
      },
      "Mint(address,uint256,uint256,uint256)": {
        "details": "Emitted on allowlistMint(), publicSaleMint()",
        "params": {
          "price": "Price in AVAX for the NFTs",
          "quantity": "Amount of NFTs minted",
          "sender": "The address that minted",
          "tokenId": "The token ID of the first minted NFT"
        }
      }
    },
    "kind": "dev",
    "methods": {
      "allowlistMint(uint256)": {
        "params": {
          "_quantity": "Quantity of NFTs to mint"
        }
      },
      "approve(address,uint256)": {
        "details": "See {IERC721-approve}."
      },
      "balanceOf(address)": {
        "details": "See {IERC721-balanceOf}."
      },
      "currentPhase()": {
        "returns": {
          "_0": "phase Current phase"
        }
      },
      "devMint(uint256)": {
        "details": "Can only mint up to `amountForDevs`",
        "params": {
          "_quantity": "Quantity of NFTs to mint"
        }
      },
      "getApproved(uint256)": {
        "details": "See {IERC721-getApproved}."
      },
      "getOwnershipData(uint256)": {
        "params": {
          "_tokenId": "Token ID"
        },
        "returns": {
          "_0": "TokenOwnership Ownership struct for a specific token ID"
        }
      },
      "getRoleAdmin(bytes32)": {
        "details": "Returns the admin role that controls `role`. See {grantRole} and {revokeRole}. To change a role's admin, use {_setRoleAdmin}."
      },
      "getRoleMember(bytes32,uint256)": {
        "details": "Returns one of the accounts that have `role`. `index` must be a value between 0 and {getRoleMemberCount}, non-inclusive. Role bearers are not sorted in any particular way, and their ordering may change at any point. WARNING: When using {getRoleMember} and {getRoleMemberCount}, make sure you perform all queries on the same block. See the following https://forum.openzeppelin.com/t/iterating-over-elements-on-enumerableset-in-openzeppelin-contracts/2296[forum post] for more information."
      },
      "getRoleMemberCount(bytes32)": {
        "details": "Returns the number of accounts that have `role`. Can be used together with {getRoleMember} to enumerate all bearers of a role."
      },
      "grantRole(bytes32,address)": {
        "details": "If `account` had not been already granted `role`, emits a {RoleGranted} event. Requirements: - the caller must be the `owner` or have ``role``'s admin role. - the role granted can't be `DEFAULT_ADMIN`",
        "params": {
          "account": "The address of the account",
          "role": "The role to grant"
        }
      },
      "hasBatchToReveal()": {
        "returns": {
          "_0": "bool Whether reveal can be triggered or not",
          "_1": "uint256 The number of the next batch that will be revealed"
        }
      },
      "hasRole(bytes32,address)": {
        "details": "Returns `true` if `account` has been granted `role`."
      },
      "initialize(string,string,address,address,uint256,uint256,uint256,uint256)": {
        "params": {
          "_amountForAllowlist": "Amount of NFTs available for the allowlist mint (e.g 1000)",
          "_amountForDevs": "Amount of NFTs reserved for `projectOwner` (e.g 200)",
          "_collectionSize": "The collection size (e.g 10000)",
          "_maxBatchSize": "Max amount of NFTs that can be minted at once",
          "_name": "ERC721 name",
          "_projectOwner": "The project owner",
          "_royaltyReceiver": "Royalty fee collector",
          "_symbol": "ERC721 symbol"
        }
      },
      "initializeJoeFee(uint256,address)": {
        "params": {
          "_joeFeeCollector": "The address to which the fees on the sale will be sent",
          "_joeFeePercent": "The fees collected by Joepegs on the sale benefits"
        }
      },
      "initializePhases(uint256,uint256,uint256,uint256,uint256)": {
        "details": "Can only be called once",
        "params": {
          "_allowlistPrice": "Price of the allowlist sale in Avax",
          "_allowlistStartTime": "Allowlist mint start time in seconds",
          "_publicSaleEndTime": "Public sale end time in seconds",
          "_publicSaleStartTime": "Public sale start time in seconds",
          "_salePrice": "Price of the public sale in Avax"
        }
      },
      "isApprovedForAll(address,address)": {
        "details": "See {IERC721-isApprovedForAll}."
      },
      "name()": {
        "details": "See {IERC721Metadata-name}."
      },
      "numberMinted(address)": {
        "params": {
          "_owner": "The owner of the NFTs"
        },
        "returns": {
          "_0": "numberMinted Number of NFTs minted"
        }
      },
      "owner()": {
        "returns": {
          "_0": "The address of the current owner"
        }
      },
      "ownerOf(uint256)": {
        "details": "See {IERC721-ownerOf}."
      },
      "pause()": {
        "details": "Sensible part of a contract might be pausable for security reasons. Requirements: - the caller must be the `owner` or have the ``role`` role. - the contrat needs to be unpaused."
      },
      "paused()": {
        "details": "Returns true if the contract is paused, and false otherwise."
      },
      "pendingOwner()": {
        "returns": {
          "_0": "The address of the current pending owner"
        }
      },
      "publicSaleMint(uint256)": {
        "params": {
          "_quantity": "Quantity of NFTs to mint"
        }
      },
      "renounceRole(bytes32,address)": {
        "details": "Roles are often managed via {grantRole} and {revokeRole}: this function's purpose is to provide a mechanism for accounts to lose their privileges if they are compromised (such as when a trusted device is misplaced). If the calling account had been revoked `role`, emits a {RoleRevoked} event. Requirements: - the caller must be `account`. - the role renounced can't be `DEFAULT_ADMIN`",
        "params": {
          "account": "The address of the account",
          "role": "The role to renounce"
        }
      },
      "revokeRole(bytes32,address)": {
        "details": "If `account` had been granted `role`, emits a {RoleRevoked} event. Requirements: - the caller must be the `owner` or have ``role``'s admin role. - the role revoked can't be `DEFAULT_ADMIN`",
        "params": {
          "account": "The address of the account",
          "role": "The role to revoke"
        }
      },
      "royaltyInfo(uint256,uint256)": {
        "details": "Returns how much royalty is owed and to whom, based on a sale price that may be denominated in any unit of exchange. The royalty amount is denominated and should be payed in that same unit of exchange."
      },
      "safeTransferFrom(address,address,uint256)": {
        "details": "See {IERC721-safeTransferFrom}."
      },
      "safeTransferFrom(address,address,uint256,bytes)": {
        "details": "See {IERC721-safeTransferFrom}."
      },
      "seedAllowlist(address[],uint256[])": {
        "params": {
          "_addresses": "List of addresses allowed to mint during the allowlist phase",
          "_numNfts": "List of NFT quantities mintable per address"
        }
      },
      "setAllowlistStartTime(uint256)": {
        "details": "Only callable by owner",
        "params": {
          "_allowlistStartTime": "New allowlist start time"
        }
      },
      "setApprovalForAll(address,bool)": {
        "details": "See {IERC721-setApprovalForAll}."
      },
      "setBaseURI(string)": {
        "details": "This sets the URI for revealed tokens Only callable by project owner",
        "params": {
          "_baseURI": "Base URI to be set"
        }
      },
      "setBatchReveal(address)": {
        "details": "Can be set to zero address to disable batch reveal"
      },
      "setPublicSaleEndTime(uint256)": {
        "details": "Only callable by owner",
        "params": {
          "_publicSaleEndTime": "New public sale end time"
        }
      },
      "setPublicSaleStartTime(uint256)": {
        "details": "Only callable by owner",
        "params": {
          "_publicSaleStartTime": "New public sale start time"
        }
      },
      "setRoyaltyInfo(address,uint96)": {
        "params": {
          "_feePercent": "Royalty fee percent in basis point",
          "_receiver": "Royalty fee collector"
        }
      },
      "setUnrevealedURI(string)": {
        "details": "Only callable by project owner",
        "params": {
          "_unrevealedURI": "Unrevealed URI to be set"
        }
      },
      "setWithdrawAVAXStartTime(uint256)": {
        "params": {
          "_withdrawAVAXStartTime": "New public sale end time"
        }
      },
      "supportsInterface(bytes4)": {
        "details": "Returns true if this contract implements the interface defined by `interfaceId`. See the corresponding https://eips.ethereum.org/EIPS/eip-165#how-interfaces-are-identified[EIP section] to learn more about how these IDs are created. This function call must use less than 30 000 gas.",
        "params": {
          "_interfaceId": "InterfaceId to consider. Comes from type(Interface).interfaceId"
        },
        "returns": {
          "_0": "isInterfaceSupported True if the considered interface is supported"
        }
      },
      "symbol()": {
        "details": "See {IERC721Metadata-symbol}."
      },
      "tokenURI(uint256)": {
        "params": {
          "_id": "Token id"
        },
        "returns": {
          "_0": "URI Token URI"
        }
      },
      "totalSupply()": {
        "details": "Burned tokens are calculated here, use _totalMinted() if you want to count just minted tokens."
      },
      "transferFrom(address,address,uint256)": {
        "details": "See {IERC721-transferFrom}."
      },
      "unpause()": {
        "details": "Sensible part of a contract might be pausable for security reasons. Requirements: - the caller must be the `owner` or have the ``role`` role. - the contrat needs to be unpaused."
      },
      "withdrawAVAX(address)": {
        "params": {
          "_to": "Recipient of the earned AVAX"
        }
      }
    },
    "stateVariables": {
      "allowlistPrice": {
        "details": "allowlistPrice is scaled to 1e18"
      },
      "salePrice": {
        "details": "salePrice is scaled to 1e18"
      }
    },
    "title": "FlatLaunchpeg",
    "version": 1
  },
  "userdoc": {
    "kind": "user",
    "methods": {
      "BASIS_POINT_PRECISION()": {
        "notice": "Percentage base point"
      },
      "PROJECT_OWNER_ROLE()": {
        "notice": "Role granted to project owners"
      },
      "allowlist(address)": {
        "notice": "The amount of NFTs each allowed address can mint during the allowlist mint"
      },
      "allowlistMint(uint256)": {
        "notice": "Mint NFTs during the allowlist mint"
      },
      "allowlistPrice()": {
        "notice": "Price of one NFT for people on the mint list"
      },
      "allowlistStartTime()": {
        "notice": "Start time of the allowlist mint in seconds"
      },
      "amountForAllowlist()": {
        "notice": "Amount of NFTs available for the allowlist mint (e.g 1000)"
      },
      "amountForDevs()": {
        "notice": "Amount of NFTs reserved for the project owner (e.g 200)"
      },
      "amountMintedByDevs()": {
        "notice": "Tracks the amount of NFTs minted by `projectOwner`"
      },
      "amountMintedDuringAllowlist()": {
        "notice": "Tracks the amount of NFTs minted on Allowlist phase"
      },
      "amountMintedDuringPublicSale()": {
        "notice": "Tracks the amount of NFTs minted on Public Sale phase"
      },
      "baseURI()": {
        "notice": "Token URI after collection reveal"
      },
      "becomeOwner()": {
        "notice": "Transfers the ownership to the new owner (`pendingOwner`). Can only be called by the pending owner"
      },
      "collectionSize()": {
        "notice": "The collection size (e.g 10000)"
      },
      "currentPhase()": {
        "notice": "Returns the current phase"
      },
      "devMint(uint256)": {
        "notice": "Mint NFTs to the project owner"
      },
      "getOwnershipData(uint256)": {
        "notice": "Returns the ownership data of a specific token ID"
      },
      "grantRole(bytes32,address)": {
        "notice": "Grants `role` to `account`."
      },
      "hasBatchToReveal()": {
        "notice": "Tells you if a batch can be revealed"
      },
      "initialize(string,string,address,address,uint256,uint256,uint256,uint256)": {
        "notice": "FlatLaunchpeg initialization Can only be called once"
      },
      "initializeJoeFee(uint256,address)": {
        "notice": "Initialize the sales fee percent taken by Joepegs and address that collects the fees"
      },
      "initializePhases(uint256,uint256,uint256,uint256,uint256)": {
        "notice": "Initialize the two phases of the sale"
      },
      "joeFeeCollector()": {
        "notice": "The address to which the fees on the sale will be sent"
      },
      "joeFeePercent()": {
        "notice": "The fees collected by Joepegs on the sale benefits"
      },
      "maxBatchSize()": {
        "notice": "Max amount of NFTs that can be minted at once"
      },
      "maxPerAddressDuringMint()": {
        "notice": "Max amount of NFTs an address can mint"
      },
      "numberMinted(address)": {
        "notice": "Returns the number of NFTs minted by a specific address"
      },
      "owner()": {
        "notice": "Returns the address of the current owner"
      },
      "pause()": {
        "notice": "Pauses the contract."
      },
      "pendingOwner()": {
        "notice": "Returns the address of the current pending owner"
      },
      "publicSaleEndTime()": {
        "notice": "End time of the public sale in seconds"
      },
      "publicSaleMint(uint256)": {
        "notice": "Mint NFTs during the public sale"
      },
      "publicSaleStartTime()": {
        "notice": "Start time of the public sale in seconds"
      },
      "renounceOwnership()": {
        "notice": "Leaves the contract without owner. It will not be possible to call `onlyOwner` functions anymore. Can only be called by the current owner. NOTE: Renouncing ownership will leave the contract without an owner, thereby removing any functionality that is only available to the owner."
      },
      "renounceRole(bytes32,address)": {
        "notice": "Revokes `role` from the calling account."
      },
      "revealNextBatch()": {
        "notice": "Reveals the next batch if the reveal conditions are met"
      },
      "revokePendingOwner()": {
        "notice": "Revoke the pending owner address. This address will not be able to call {becomeOwner} to become the owner anymore. Can only be called by the owner"
      },
      "revokeRole(bytes32,address)": {
        "notice": "Revokes `role` from `account`."
      },
      "salePrice()": {
        "notice": "Price of one NFT during the public sale"
      },
      "seedAllowlist(address[],uint256[])": {
        "notice": "Set amount of NFTs mintable per address during the allowlist phase"
      },
      "setAllowlistStartTime(uint256)": {
        "notice": "Set the allowlist start time. Can only be set after phases have been initialized."
      },
      "setBaseURI(string)": {
        "notice": "Set the base URI"
      },
      "setBatchReveal(address)": {
        "notice": "Update batch reveal"
      },
      "setPendingOwner(address)": {
        "notice": "Sets the pending owner address. This address will be able to become the owner of this contract by calling {becomeOwner}"
      },
      "setPublicSaleEndTime(uint256)": {
        "notice": "Set the public sale end time. Can only be set after phases have been initialized."
      },
      "setPublicSaleStartTime(uint256)": {
        "notice": "Set the public sale start time. Can only be set after phases have been initialized."
      },
      "setRoyaltyInfo(address,uint96)": {
        "notice": "Set the royalty fee"
      },
      "setUnrevealedURI(string)": {
        "notice": "Set the unrevealed URI"
      },
      "setWithdrawAVAXStartTime(uint256)": {
        "notice": "Set the withdraw AVAX start time."
      },
      "tokenURI(uint256)": {
        "notice": "Returns the Uniform Resource Identifier (URI) for `tokenId` token."
      },
      "unpause()": {
        "notice": "Unpauses the contract."
      },
      "unrevealedURI()": {
        "notice": "Token URI before the collection reveal"
      },
      "withdrawAVAX(address)": {
        "notice": "Withdraw AVAX to the given recipient"
      },
      "withdrawAVAXStartTime()": {
        "notice": "Start time when funds can be withdrawn"
      }
    },
    "notice": "Implements a simple minting NFT contract with an allowlist and public sale phase.",
    "version": 1
  },
  "storageLayout": {
    "storage": [
      {
        "astId": 810,
        "contract": "contracts/FlatLaunchpeg.sol:FlatLaunchpeg",
        "label": "_initialized",
        "offset": 0,
        "slot": "0",
        "type": "t_bool"
      },
      {
        "astId": 813,
        "contract": "contracts/FlatLaunchpeg.sol:FlatLaunchpeg",
        "label": "_initializing",
        "offset": 1,
        "slot": "0",
        "type": "t_bool"
      },
      {
        "astId": 1710,
        "contract": "contracts/FlatLaunchpeg.sol:FlatLaunchpeg",
        "label": "__gap",
        "offset": 0,
        "slot": "1",
        "type": "t_array(t_uint256)50_storage"
      },
      {
        "astId": 1957,
        "contract": "contracts/FlatLaunchpeg.sol:FlatLaunchpeg",
        "label": "__gap",
        "offset": 0,
        "slot": "51",
        "type": "t_array(t_uint256)50_storage"
      },
      {
        "astId": 11079,
        "contract": "contracts/FlatLaunchpeg.sol:FlatLaunchpeg",
        "label": "_currentIndex",
        "offset": 0,
        "slot": "101",
        "type": "t_uint256"
      },
      {
        "astId": 11081,
        "contract": "contracts/FlatLaunchpeg.sol:FlatLaunchpeg",
        "label": "_burnCounter",
        "offset": 0,
        "slot": "102",
        "type": "t_uint256"
      },
      {
        "astId": 11083,
        "contract": "contracts/FlatLaunchpeg.sol:FlatLaunchpeg",
        "label": "_name",
        "offset": 0,
        "slot": "103",
        "type": "t_string_storage"
      },
      {
        "astId": 11085,
        "contract": "contracts/FlatLaunchpeg.sol:FlatLaunchpeg",
        "label": "_symbol",
        "offset": 0,
        "slot": "104",
        "type": "t_string_storage"
      },
      {
        "astId": 11090,
        "contract": "contracts/FlatLaunchpeg.sol:FlatLaunchpeg",
        "label": "_ownerships",
        "offset": 0,
        "slot": "105",
        "type": "t_mapping(t_uint256,t_struct(TokenOwnership)11068_storage)"
      },
      {
        "astId": 11095,
        "contract": "contracts/FlatLaunchpeg.sol:FlatLaunchpeg",
        "label": "_addressData",
        "offset": 0,
        "slot": "106",
        "type": "t_mapping(t_address,t_struct(AddressData)11077_storage)"
      },
      {
        "astId": 11099,
        "contract": "contracts/FlatLaunchpeg.sol:FlatLaunchpeg",
        "label": "_tokenApprovals",
        "offset": 0,
        "slot": "107",
        "type": "t_mapping(t_uint256,t_address)"
      },
      {
        "astId": 11105,
        "contract": "contracts/FlatLaunchpeg.sol:FlatLaunchpeg",
        "label": "_operatorApprovals",
        "offset": 0,
        "slot": "108",
        "type": "t_mapping(t_address,t_mapping(t_address,t_bool))"
      },
      {
        "astId": 12353,
        "contract": "contracts/FlatLaunchpeg.sol:FlatLaunchpeg",
        "label": "__gap",
        "offset": 0,
        "slot": "109",
        "type": "t_array(t_uint256)42_storage"
      },
      {
        "astId": 10457,
        "contract": "contracts/FlatLaunchpeg.sol:FlatLaunchpeg",
        "label": "_owner",
        "offset": 0,
        "slot": "151",
        "type": "t_address"
      },
      {
        "astId": 10459,
        "contract": "contracts/FlatLaunchpeg.sol:FlatLaunchpeg",
        "label": "_pendingOwner",
        "offset": 0,
        "slot": "152",
        "type": "t_address"
      },
      {
        "astId": 273,
        "contract": "contracts/FlatLaunchpeg.sol:FlatLaunchpeg",
        "label": "_roles",
        "offset": 0,
        "slot": "153",
        "type": "t_mapping(t_bytes32,t_struct(RoleData)268_storage)"
      },
      {
        "astId": 561,
        "contract": "contracts/FlatLaunchpeg.sol:FlatLaunchpeg",
        "label": "__gap",
        "offset": 0,
        "slot": "154",
        "type": "t_array(t_uint256)49_storage"
      },
      {
        "astId": 122,
        "contract": "contracts/FlatLaunchpeg.sol:FlatLaunchpeg",
        "label": "_roleMembers",
        "offset": 0,
        "slot": "203",
        "type": "t_mapping(t_bytes32,t_struct(AddressSet)2282_storage)"
      },
      {
        "astId": 232,
        "contract": "contracts/FlatLaunchpeg.sol:FlatLaunchpeg",
        "label": "__gap",
        "offset": 0,
        "slot": "204",
        "type": "t_array(t_uint256)49_storage"
      },
      {
        "astId": 898,
        "contract": "contracts/FlatLaunchpeg.sol:FlatLaunchpeg",
        "label": "_paused",
        "offset": 0,
        "slot": "253",
        "type": "t_bool"
      },
      {
        "astId": 987,
        "contract": "contracts/FlatLaunchpeg.sol:FlatLaunchpeg",
        "label": "__gap",
        "offset": 0,
        "slot": "254",
        "type": "t_array(t_uint256)49_storage"
      },
      {
        "astId": 1002,
        "contract": "contracts/FlatLaunchpeg.sol:FlatLaunchpeg",
        "label": "_status",
        "offset": 0,
        "slot": "303",
        "type": "t_uint256"
      },
      {
        "astId": 1046,
        "contract": "contracts/FlatLaunchpeg.sol:FlatLaunchpeg",
        "label": "__gap",
        "offset": 0,
        "slot": "304",
        "type": "t_array(t_uint256)49_storage"
      },
      {
        "astId": 1240,
        "contract": "contracts/FlatLaunchpeg.sol:FlatLaunchpeg",
        "label": "_defaultRoyaltyInfo",
        "offset": 0,
        "slot": "353",
        "type": "t_struct(RoyaltyInfo)1237_storage"
      },
      {
        "astId": 1245,
        "contract": "contracts/FlatLaunchpeg.sol:FlatLaunchpeg",
        "label": "_tokenRoyaltyInfo",
        "offset": 0,
        "slot": "354",
        "type": "t_mapping(t_uint256,t_struct(RoyaltyInfo)1237_storage)"
      },
      {
        "astId": 1425,
        "contract": "contracts/FlatLaunchpeg.sol:FlatLaunchpeg",
        "label": "__gap",
        "offset": 0,
        "slot": "355",
        "type": "t_array(t_uint256)48_storage"
      },
      {
        "astId": 3275,
        "contract": "contracts/FlatLaunchpeg.sol:FlatLaunchpeg",
        "label": "batchReveal",
        "offset": 0,
        "slot": "403",
        "type": "t_contract(IBatchReveal)9925"
      },
      {
        "astId": 3286,
        "contract": "contracts/FlatLaunchpeg.sol:FlatLaunchpeg",
        "label": "collectionSize",
        "offset": 0,
        "slot": "404",
        "type": "t_uint256"
      },
      {
        "astId": 3290,
        "contract": "contracts/FlatLaunchpeg.sol:FlatLaunchpeg",
        "label": "amountForDevs",
        "offset": 0,
        "slot": "405",
        "type": "t_uint256"
      },
      {
        "astId": 3294,
        "contract": "contracts/FlatLaunchpeg.sol:FlatLaunchpeg",
        "label": "amountForAllowlist",
        "offset": 0,
        "slot": "406",
        "type": "t_uint256"
      },
      {
        "astId": 3298,
        "contract": "contracts/FlatLaunchpeg.sol:FlatLaunchpeg",
        "label": "maxBatchSize",
        "offset": 0,
        "slot": "407",
        "type": "t_uint256"
      },
      {
        "astId": 3302,
        "contract": "contracts/FlatLaunchpeg.sol:FlatLaunchpeg",
        "label": "maxPerAddressDuringMint",
        "offset": 0,
        "slot": "408",
        "type": "t_uint256"
      },
      {
        "astId": 3306,
        "contract": "contracts/FlatLaunchpeg.sol:FlatLaunchpeg",
        "label": "joeFeePercent",
        "offset": 0,
        "slot": "409",
        "type": "t_uint256"
      },
      {
        "astId": 3310,
        "contract": "contracts/FlatLaunchpeg.sol:FlatLaunchpeg",
        "label": "joeFeeCollector",
        "offset": 0,
        "slot": "410",
        "type": "t_address"
      },
      {
        "astId": 3318,
        "contract": "contracts/FlatLaunchpeg.sol:FlatLaunchpeg",
        "label": "baseURI",
        "offset": 0,
        "slot": "411",
        "type": "t_string_storage"
      },
      {
        "astId": 3322,
        "contract": "contracts/FlatLaunchpeg.sol:FlatLaunchpeg",
        "label": "unrevealedURI",
        "offset": 0,
        "slot": "412",
        "type": "t_string_storage"
      },
      {
        "astId": 3328,
        "contract": "contracts/FlatLaunchpeg.sol:FlatLaunchpeg",
        "label": "allowlist",
        "offset": 0,
        "slot": "413",
        "type": "t_mapping(t_address,t_uint256)"
      },
      {
        "astId": 3332,
        "contract": "contracts/FlatLaunchpeg.sol:FlatLaunchpeg",
        "label": "amountMintedByDevs",
        "offset": 0,
        "slot": "414",
        "type": "t_uint256"
      },
      {
        "astId": 3336,
        "contract": "contracts/FlatLaunchpeg.sol:FlatLaunchpeg",
        "label": "amountMintedDuringAllowlist",
        "offset": 0,
        "slot": "415",
        "type": "t_uint256"
      },
      {
        "astId": 3340,
        "contract": "contracts/FlatLaunchpeg.sol:FlatLaunchpeg",
        "label": "amountMintedDuringPublicSale",
        "offset": 0,
        "slot": "416",
        "type": "t_uint256"
      },
      {
        "astId": 3344,
        "contract": "contracts/FlatLaunchpeg.sol:FlatLaunchpeg",
        "label": "allowlistStartTime",
        "offset": 0,
        "slot": "417",
        "type": "t_uint256"
      },
      {
        "astId": 3348,
        "contract": "contracts/FlatLaunchpeg.sol:FlatLaunchpeg",
        "label": "publicSaleStartTime",
        "offset": 0,
        "slot": "418",
        "type": "t_uint256"
      },
      {
        "astId": 3352,
        "contract": "contracts/FlatLaunchpeg.sol:FlatLaunchpeg",
        "label": "publicSaleEndTime",
        "offset": 0,
        "slot": "419",
        "type": "t_uint256"
      },
      {
        "astId": 3356,
        "contract": "contracts/FlatLaunchpeg.sol:FlatLaunchpeg",
        "label": "withdrawAVAXStartTime",
        "offset": 0,
        "slot": "420",
        "type": "t_uint256"
      },
      {
        "astId": 5804,
        "contract": "contracts/FlatLaunchpeg.sol:FlatLaunchpeg",
        "label": "allowlistPrice",
        "offset": 0,
        "slot": "421",
        "type": "t_uint256"
      },
      {
        "astId": 5808,
        "contract": "contracts/FlatLaunchpeg.sol:FlatLaunchpeg",
        "label": "salePrice",
        "offset": 0,
        "slot": "422",
        "type": "t_uint256"
      }
    ],
    "types": {
      "t_address": {
        "encoding": "inplace",
        "label": "address",
        "numberOfBytes": "20"
      },
      "t_array(t_bytes32)dyn_storage": {
        "base": "t_bytes32",
        "encoding": "dynamic_array",
        "label": "bytes32[]",
        "numberOfBytes": "32"
      },
      "t_array(t_uint256)42_storage": {
        "base": "t_uint256",
        "encoding": "inplace",
        "label": "uint256[42]",
        "numberOfBytes": "1344"
      },
      "t_array(t_uint256)48_storage": {
        "base": "t_uint256",
        "encoding": "inplace",
        "label": "uint256[48]",
        "numberOfBytes": "1536"
      },
      "t_array(t_uint256)49_storage": {
        "base": "t_uint256",
        "encoding": "inplace",
        "label": "uint256[49]",
        "numberOfBytes": "1568"
      },
      "t_array(t_uint256)50_storage": {
        "base": "t_uint256",
        "encoding": "inplace",
        "label": "uint256[50]",
        "numberOfBytes": "1600"
      },
      "t_bool": {
        "encoding": "inplace",
        "label": "bool",
        "numberOfBytes": "1"
      },
      "t_bytes32": {
        "encoding": "inplace",
        "label": "bytes32",
        "numberOfBytes": "32"
      },
      "t_contract(IBatchReveal)9925": {
        "encoding": "inplace",
        "label": "contract IBatchReveal",
        "numberOfBytes": "20"
      },
      "t_mapping(t_address,t_bool)": {
        "encoding": "mapping",
        "key": "t_address",
        "label": "mapping(address => bool)",
        "numberOfBytes": "32",
        "value": "t_bool"
      },
      "t_mapping(t_address,t_mapping(t_address,t_bool))": {
        "encoding": "mapping",
        "key": "t_address",
        "label": "mapping(address => mapping(address => bool))",
        "numberOfBytes": "32",
        "value": "t_mapping(t_address,t_bool)"
      },
      "t_mapping(t_address,t_struct(AddressData)11077_storage)": {
        "encoding": "mapping",
        "key": "t_address",
        "label": "mapping(address => struct ERC721AUpgradeable.AddressData)",
        "numberOfBytes": "32",
        "value": "t_struct(AddressData)11077_storage"
      },
      "t_mapping(t_address,t_uint256)": {
        "encoding": "mapping",
        "key": "t_address",
        "label": "mapping(address => uint256)",
        "numberOfBytes": "32",
        "value": "t_uint256"
      },
      "t_mapping(t_bytes32,t_struct(AddressSet)2282_storage)": {
        "encoding": "mapping",
        "key": "t_bytes32",
        "label": "mapping(bytes32 => struct EnumerableSetUpgradeable.AddressSet)",
        "numberOfBytes": "32",
        "value": "t_struct(AddressSet)2282_storage"
      },
      "t_mapping(t_bytes32,t_struct(RoleData)268_storage)": {
        "encoding": "mapping",
        "key": "t_bytes32",
        "label": "mapping(bytes32 => struct AccessControlUpgradeable.RoleData)",
        "numberOfBytes": "32",
        "value": "t_struct(RoleData)268_storage"
      },
      "t_mapping(t_bytes32,t_uint256)": {
        "encoding": "mapping",
        "key": "t_bytes32",
        "label": "mapping(bytes32 => uint256)",
        "numberOfBytes": "32",
        "value": "t_uint256"
      },
      "t_mapping(t_uint256,t_address)": {
        "encoding": "mapping",
        "key": "t_uint256",
        "label": "mapping(uint256 => address)",
        "numberOfBytes": "32",
        "value": "t_address"
      },
      "t_mapping(t_uint256,t_struct(RoyaltyInfo)1237_storage)": {
        "encoding": "mapping",
        "key": "t_uint256",
        "label": "mapping(uint256 => struct ERC2981Upgradeable.RoyaltyInfo)",
        "numberOfBytes": "32",
        "value": "t_struct(RoyaltyInfo)1237_storage"
      },
      "t_mapping(t_uint256,t_struct(TokenOwnership)11068_storage)": {
        "encoding": "mapping",
        "key": "t_uint256",
        "label": "mapping(uint256 => struct ERC721AUpgradeable.TokenOwnership)",
        "numberOfBytes": "32",
        "value": "t_struct(TokenOwnership)11068_storage"
      },
      "t_string_storage": {
        "encoding": "bytes",
        "label": "string",
        "numberOfBytes": "32"
      },
      "t_struct(AddressData)11077_storage": {
        "encoding": "inplace",
        "label": "struct ERC721AUpgradeable.AddressData",
        "members": [
          {
            "astId": 11070,
            "contract": "contracts/FlatLaunchpeg.sol:FlatLaunchpeg",
            "label": "balance",
            "offset": 0,
            "slot": "0",
            "type": "t_uint64"
          },
          {
            "astId": 11072,
            "contract": "contracts/FlatLaunchpeg.sol:FlatLaunchpeg",
            "label": "numberMinted",
            "offset": 8,
            "slot": "0",
            "type": "t_uint64"
          },
          {
            "astId": 11074,
            "contract": "contracts/FlatLaunchpeg.sol:FlatLaunchpeg",
            "label": "numberBurned",
            "offset": 16,
            "slot": "0",
            "type": "t_uint64"
          },
          {
            "astId": 11076,
            "contract": "contracts/FlatLaunchpeg.sol:FlatLaunchpeg",
            "label": "aux",
            "offset": 24,
            "slot": "0",
            "type": "t_uint64"
          }
        ],
        "numberOfBytes": "32"
      },
      "t_struct(AddressSet)2282_storage": {
        "encoding": "inplace",
        "label": "struct EnumerableSetUpgradeable.AddressSet",
        "members": [
          {
            "astId": 2281,
            "contract": "contracts/FlatLaunchpeg.sol:FlatLaunchpeg",
            "label": "_inner",
            "offset": 0,
            "slot": "0",
            "type": "t_struct(Set)1981_storage"
          }
        ],
        "numberOfBytes": "64"
      },
      "t_struct(RoleData)268_storage": {
        "encoding": "inplace",
        "label": "struct AccessControlUpgradeable.RoleData",
        "members": [
          {
            "astId": 265,
            "contract": "contracts/FlatLaunchpeg.sol:FlatLaunchpeg",
            "label": "members",
            "offset": 0,
            "slot": "0",
            "type": "t_mapping(t_address,t_bool)"
          },
          {
            "astId": 267,
            "contract": "contracts/FlatLaunchpeg.sol:FlatLaunchpeg",
            "label": "adminRole",
            "offset": 0,
            "slot": "1",
            "type": "t_bytes32"
          }
        ],
        "numberOfBytes": "64"
      },
      "t_struct(RoyaltyInfo)1237_storage": {
        "encoding": "inplace",
        "label": "struct ERC2981Upgradeable.RoyaltyInfo",
        "members": [
          {
            "astId": 1234,
            "contract": "contracts/FlatLaunchpeg.sol:FlatLaunchpeg",
            "label": "receiver",
            "offset": 0,
            "slot": "0",
            "type": "t_address"
          },
          {
            "astId": 1236,
            "contract": "contracts/FlatLaunchpeg.sol:FlatLaunchpeg",
            "label": "royaltyFraction",
            "offset": 20,
            "slot": "0",
            "type": "t_uint96"
          }
        ],
        "numberOfBytes": "32"
      },
      "t_struct(Set)1981_storage": {
        "encoding": "inplace",
        "label": "struct EnumerableSetUpgradeable.Set",
        "members": [
          {
            "astId": 1976,
            "contract": "contracts/FlatLaunchpeg.sol:FlatLaunchpeg",
            "label": "_values",
            "offset": 0,
            "slot": "0",
            "type": "t_array(t_bytes32)dyn_storage"
          },
          {
            "astId": 1980,
            "contract": "contracts/FlatLaunchpeg.sol:FlatLaunchpeg",
            "label": "_indexes",
            "offset": 0,
            "slot": "1",
            "type": "t_mapping(t_bytes32,t_uint256)"
          }
        ],
        "numberOfBytes": "64"
      },
      "t_struct(TokenOwnership)11068_storage": {
        "encoding": "inplace",
        "label": "struct ERC721AUpgradeable.TokenOwnership",
        "members": [
          {
            "astId": 11063,
            "contract": "contracts/FlatLaunchpeg.sol:FlatLaunchpeg",
            "label": "addr",
            "offset": 0,
            "slot": "0",
            "type": "t_address"
          },
          {
            "astId": 11065,
            "contract": "contracts/FlatLaunchpeg.sol:FlatLaunchpeg",
            "label": "startTimestamp",
            "offset": 20,
            "slot": "0",
            "type": "t_uint64"
          },
          {
            "astId": 11067,
            "contract": "contracts/FlatLaunchpeg.sol:FlatLaunchpeg",
            "label": "burned",
            "offset": 28,
            "slot": "0",
            "type": "t_bool"
          }
        ],
        "numberOfBytes": "32"
      },
      "t_uint256": {
        "encoding": "inplace",
        "label": "uint256",
        "numberOfBytes": "32"
      },
      "t_uint64": {
        "encoding": "inplace",
        "label": "uint64",
        "numberOfBytes": "8"
      },
      "t_uint96": {
        "encoding": "inplace",
        "label": "uint96",
        "numberOfBytes": "12"
      }
    }
  }
}