{
  "address": "0xcBe8DE956feD366920F12AC246f63F9D9D833d47",
  "abi": [
    {
      "inputs": [],
      "name": "ApprovalCallerNotOwnerNorApproved",
      "type": "error"
    },
    {
      "inputs": [],
      "name": "ApprovalQueryForNonexistentToken",
      "type": "error"
    },
    {
      "inputs": [],
      "name": "ApprovalToCurrentOwner",
      "type": "error"
    },
    {
      "inputs": [],
      "name": "ApproveToCaller",
      "type": "error"
    },
    {
      "inputs": [],
      "name": "BalanceQueryForZeroAddress",
      "type": "error"
    },
    {
      "inputs": [],
      "name": "Launchpeg__AllowlistBeforePreMint",
      "type": "error"
    },
    {
      "inputs": [],
      "name": "Launchpeg__BatchRevealDisabled",
      "type": "error"
    },
    {
      "inputs": [],
      "name": "Launchpeg__CanNotMintThisMany",
      "type": "error"
    },
    {
      "inputs": [],
      "name": "Launchpeg__InvalidAllowlistPrice",
      "type": "error"
    },
    {
      "inputs": [],
      "name": "Launchpeg__InvalidJoeFeeCollector",
      "type": "error"
    },
    {
      "inputs": [],
      "name": "Launchpeg__InvalidMaxBatchSize",
      "type": "error"
    },
    {
      "inputs": [],
      "name": "Launchpeg__InvalidPercent",
      "type": "error"
    },
    {
      "inputs": [],
      "name": "Launchpeg__InvalidProjectOwner",
      "type": "error"
    },
    {
      "inputs": [],
      "name": "Launchpeg__InvalidQuantity",
      "type": "error"
    },
    {
      "inputs": [],
      "name": "Launchpeg__InvalidRoyaltyInfo",
      "type": "error"
    },
    {
      "inputs": [],
      "name": "Launchpeg__InvalidStartTime",
      "type": "error"
    },
    {
      "inputs": [],
      "name": "Launchpeg__JoeFeeAlreadyInitialized",
      "type": "error"
    },
    {
      "inputs": [],
      "name": "Launchpeg__LargerCollectionSizeNeeded",
      "type": "error"
    },
    {
      "inputs": [],
      "name": "Launchpeg__MaxSupplyForBatchMintReached",
      "type": "error"
    },
    {
      "inputs": [],
      "name": "Launchpeg__MaxSupplyForDevReached",
      "type": "error"
    },
    {
      "inputs": [],
      "name": "Launchpeg__MaxSupplyReached",
      "type": "error"
    },
    {
      "inputs": [],
      "name": "Launchpeg__NotEligibleForAllowlistMint",
      "type": "error"
    },
    {
      "inputs": [
        {
          "internalType": "uint256",
          "name": "avaxSent",
          "type": "uint256"
        }
      ],
      "name": "Launchpeg__NotEnoughAVAX",
      "type": "error"
    },
    {
      "inputs": [],
      "name": "Launchpeg__NotInitialized",
      "type": "error"
    },
    {
      "inputs": [],
      "name": "Launchpeg__PublicSaleBeforeAllowlist",
      "type": "error"
    },
    {
      "inputs": [],
      "name": "Launchpeg__PublicSaleEndBeforePublicSaleStart",
      "type": "error"
    },
    {
      "inputs": [],
      "name": "Launchpeg__RevealNextBatchNotAvailable",
      "type": "error"
    },
    {
      "inputs": [],
      "name": "Launchpeg__TransferFailed",
      "type": "error"
    },
    {
      "inputs": [],
      "name": "Launchpeg__Unauthorized",
      "type": "error"
    },
    {
      "inputs": [],
      "name": "Launchpeg__WithdrawAVAXNotAvailable",
      "type": "error"
    },
    {
      "inputs": [],
      "name": "Launchpeg__WrongAddressesAndNumSlotsLength",
      "type": "error"
    },
    {
      "inputs": [],
      "name": "Launchpeg__WrongPhase",
      "type": "error"
    },
    {
      "inputs": [],
      "name": "MintToZeroAddress",
      "type": "error"
    },
    {
      "inputs": [],
      "name": "MintZeroQuantity",
      "type": "error"
    },
    {
      "inputs": [],
      "name": "OwnerQueryForNonexistentToken",
      "type": "error"
    },
    {
      "inputs": [],
      "name": "PendingOwnableUpgradeable__AddressZero",
      "type": "error"
    },
    {
      "inputs": [],
      "name": "PendingOwnableUpgradeable__NoPendingOwner",
      "type": "error"
    },
    {
      "inputs": [],
      "name": "PendingOwnableUpgradeable__NotOwner",
      "type": "error"
    },
    {
      "inputs": [],
      "name": "PendingOwnableUpgradeable__NotPendingOwner",
      "type": "error"
    },
    {
      "inputs": [],
      "name": "PendingOwnableUpgradeable__PendingOwnerAlreadySet",
      "type": "error"
    },
    {
      "inputs": [],
      "name": "SafeAccessControlEnumerableUpgradeable__RoleIsDefaultAdmin",
      "type": "error"
    },
    {
      "inputs": [
        {
          "internalType": "bytes32",
          "name": "role",
          "type": "bytes32"
        },
        {
          "internalType": "address",
          "name": "sender",
          "type": "address"
        }
      ],
      "name": "SafeAccessControlEnumerableUpgradeable__SenderMissingRoleAndIsNotOwner",
      "type": "error"
    },
    {
      "inputs": [],
      "name": "SafePausableUpgradeable__AlreadyPaused",
      "type": "error"
    },
    {
      "inputs": [],
      "name": "SafePausableUpgradeable__AlreadyUnpaused",
      "type": "error"
    },
    {
      "inputs": [],
      "name": "TransferCallerNotOwnerNorApproved",
      "type": "error"
    },
    {
      "inputs": [],
      "name": "TransferFromIncorrectOwner",
      "type": "error"
    },
    {
      "inputs": [],
      "name": "TransferToNonERC721ReceiverImplementer",
      "type": "error"
    },
    {
      "inputs": [],
      "name": "TransferToZeroAddress",
      "type": "error"
    },
    {
      "anonymous": false,
      "inputs": [],
      "name": "AllowlistSeeded",
      "type": "event"
    },
    {
      "anonymous": false,
      "inputs": [
        {
          "indexed": false,
          "internalType": "uint256",
          "name": "allowlistStartTime",
          "type": "uint256"
        }
      ],
      "name": "AllowlistStartTimeSet",
      "type": "event"
    },
    {
      "anonymous": false,
      "inputs": [
        {
          "indexed": true,
          "internalType": "address",
          "name": "owner",
          "type": "address"
        },
        {
          "indexed": true,
          "internalType": "address",
          "name": "approved",
          "type": "address"
        },
        {
          "indexed": true,
          "internalType": "uint256",
          "name": "tokenId",
          "type": "uint256"
        }
      ],
      "name": "Approval",
      "type": "event"
    },
    {
      "anonymous": false,
      "inputs": [
        {
          "indexed": true,
          "internalType": "address",
          "name": "owner",
          "type": "address"
        },
        {
          "indexed": true,
          "internalType": "address",
          "name": "operator",
          "type": "address"
        },
        {
          "indexed": false,
          "internalType": "bool",
          "name": "approved",
          "type": "bool"
        }
      ],
      "name": "ApprovalForAll",
      "type": "event"
    },
    {
      "anonymous": false,
      "inputs": [
        {
          "indexed": true,
          "internalType": "address",
          "name": "sender",
          "type": "address"
        },
        {
          "indexed": false,
          "internalType": "uint256",
          "name": "amount",
          "type": "uint256"
        },
        {
          "indexed": false,
          "internalType": "uint256",
          "name": "fee",
          "type": "uint256"
        }
      ],
      "name": "AvaxWithdraw",
      "type": "event"
    },
    {
      "anonymous": false,
      "inputs": [
        {
          "indexed": false,
          "internalType": "string",
          "name": "baseURI",
          "type": "string"
        }
      ],
      "name": "BaseURISet",
      "type": "event"
    },
    {
      "anonymous": false,
      "inputs": [
        {
          "indexed": true,
          "internalType": "address",
          "name": "receiver",
          "type": "address"
        },
        {
          "indexed": false,
          "internalType": "uint256",
          "name": "feePercent",
          "type": "uint256"
        }
      ],
      "name": "DefaultRoyaltySet",
      "type": "event"
    },
    {
      "anonymous": false,
      "inputs": [
        {
          "indexed": true,
          "internalType": "address",
          "name": "sender",
          "type": "address"
        },
        {
          "indexed": false,
          "internalType": "uint256",
          "name": "quantity",
          "type": "uint256"
        }
      ],
      "name": "DevMint",
      "type": "event"
    },
    {
      "anonymous": false,
      "inputs": [
        {
          "indexed": false,
          "internalType": "uint256",
          "name": "preMintStartTime",
          "type": "uint256"
        },
        {
          "indexed": false,
          "internalType": "uint256",
          "name": "allowlistStartTime",
          "type": "uint256"
        },
        {
          "indexed": false,
          "internalType": "uint256",
          "name": "publicSaleStartTime",
          "type": "uint256"
        },
        {
          "indexed": false,
          "internalType": "uint256",
          "name": "publicSaleEndTime",
          "type": "uint256"
        },
        {
          "indexed": false,
          "internalType": "uint256",
          "name": "allowlistPrice",
          "type": "uint256"
        },
        {
          "indexed": false,
          "internalType": "uint256",
          "name": "salePrice",
          "type": "uint256"
        }
      ],
      "name": "Initialized",
      "type": "event"
    },
    {
      "anonymous": false,
      "inputs": [
        {
          "indexed": false,
          "internalType": "uint256",
          "name": "feePercent",
          "type": "uint256"
        },
        {
          "indexed": false,
          "internalType": "address",
          "name": "feeCollector",
          "type": "address"
        }
      ],
      "name": "JoeFeeInitialized",
      "type": "event"
    },
    {
      "anonymous": false,
      "inputs": [
        {
          "indexed": true,
          "internalType": "address",
          "name": "sender",
          "type": "address"
        },
        {
          "indexed": false,
          "internalType": "uint256",
          "name": "quantity",
          "type": "uint256"
        },
        {
          "indexed": false,
          "internalType": "uint256",
          "name": "price",
          "type": "uint256"
        },
        {
          "indexed": false,
          "internalType": "uint256",
          "name": "startTokenId",
          "type": "uint256"
        },
        {
          "indexed": false,
          "internalType": "enum IBaseLaunchpeg.Phase",
          "name": "phase",
          "type": "uint8"
        }
      ],
      "name": "Mint",
      "type": "event"
    },
    {
      "anonymous": false,
      "inputs": [
        {
          "indexed": true,
          "internalType": "address",
          "name": "previousOwner",
          "type": "address"
        },
        {
          "indexed": true,
          "internalType": "address",
          "name": "newOwner",
          "type": "address"
        }
      ],
      "name": "OwnershipTransferred",
      "type": "event"
    },
    {
      "anonymous": false,
      "inputs": [
        {
          "indexed": false,
          "internalType": "address",
          "name": "account",
          "type": "address"
        }
      ],
      "name": "Paused",
      "type": "event"
    },
    {
      "anonymous": false,
      "inputs": [
        {
          "indexed": true,
          "internalType": "address",
          "name": "pendingOwner",
          "type": "address"
        }
      ],
      "name": "PendingOwnerSet",
      "type": "event"
    },
    {
      "anonymous": false,
      "inputs": [
        {
          "indexed": true,
          "internalType": "address",
          "name": "sender",
          "type": "address"
        },
        {
          "indexed": false,
          "internalType": "uint256",
          "name": "quantity",
          "type": "uint256"
        },
        {
          "indexed": false,
          "internalType": "uint256",
          "name": "price",
          "type": "uint256"
        }
      ],
      "name": "PreMint",
      "type": "event"
    },
    {
      "anonymous": false,
      "inputs": [
        {
          "indexed": false,
          "internalType": "uint256",
          "name": "preMintStartTime",
          "type": "uint256"
        }
      ],
      "name": "PreMintStartTimeSet",
      "type": "event"
    },
    {
      "anonymous": false,
      "inputs": [
        {
          "indexed": false,
          "internalType": "uint256",
          "name": "publicSaleEndTime",
          "type": "uint256"
        }
      ],
      "name": "PublicSaleEndTimeSet",
      "type": "event"
    },
    {
      "anonymous": false,
      "inputs": [
        {
          "indexed": false,
          "internalType": "uint256",
          "name": "publicSaleStartTime",
          "type": "uint256"
        }
      ],
      "name": "PublicSaleStartTimeSet",
      "type": "event"
    },
    {
      "anonymous": false,
      "inputs": [
        {
          "indexed": true,
          "internalType": "bytes32",
          "name": "role",
          "type": "bytes32"
        },
        {
          "indexed": true,
          "internalType": "bytes32",
          "name": "previousAdminRole",
          "type": "bytes32"
        },
        {
          "indexed": true,
          "internalType": "bytes32",
          "name": "newAdminRole",
          "type": "bytes32"
        }
      ],
      "name": "RoleAdminChanged",
      "type": "event"
    },
    {
      "anonymous": false,
      "inputs": [
        {
          "indexed": true,
          "internalType": "bytes32",
          "name": "role",
          "type": "bytes32"
        },
        {
          "indexed": true,
          "internalType": "address",
          "name": "account",
          "type": "address"
        },
        {
          "indexed": true,
          "internalType": "address",
          "name": "sender",
          "type": "address"
        }
      ],
      "name": "RoleGranted",
      "type": "event"
    },
    {
      "anonymous": false,
      "inputs": [
        {
          "indexed": true,
          "internalType": "bytes32",
          "name": "role",
          "type": "bytes32"
        },
        {
          "indexed": true,
          "internalType": "address",
          "name": "account",
          "type": "address"
        },
        {
          "indexed": true,
          "internalType": "address",
          "name": "sender",
          "type": "address"
        }
      ],
      "name": "RoleRevoked",
      "type": "event"
    },
    {
      "anonymous": false,
      "inputs": [
        {
          "indexed": true,
          "internalType": "address",
          "name": "from",
          "type": "address"
        },
        {
          "indexed": true,
          "internalType": "address",
          "name": "to",
          "type": "address"
        },
        {
          "indexed": true,
          "internalType": "uint256",
          "name": "tokenId",
          "type": "uint256"
        }
      ],
      "name": "Transfer",
      "type": "event"
    },
    {
      "anonymous": false,
      "inputs": [
        {
          "indexed": false,
          "internalType": "address",
          "name": "account",
          "type": "address"
        }
      ],
      "name": "Unpaused",
      "type": "event"
    },
    {
      "anonymous": false,
      "inputs": [
        {
          "indexed": false,
          "internalType": "string",
          "name": "unrevealedURI",
          "type": "string"
        }
      ],
      "name": "UnrevealedURISet",
      "type": "event"
    },
    {
      "anonymous": false,
      "inputs": [
        {
          "indexed": false,
          "internalType": "uint256",
          "name": "withdrawAVAXStartTime",
          "type": "uint256"
        }
      ],
      "name": "WithdrawAVAXStartTimeSet",
      "type": "event"
    },
    {
      "inputs": [],
      "name": "BASIS_POINT_PRECISION",
      "outputs": [
        {
          "internalType": "uint256",
          "name": "",
          "type": "uint256"
        }
      ],
      "stateMutability": "view",
      "type": "function"
    },
    {
      "inputs": [],
      "name": "DEFAULT_ADMIN_ROLE",
      "outputs": [
        {
          "internalType": "bytes32",
          "name": "",
          "type": "bytes32"
        }
      ],
      "stateMutability": "view",
      "type": "function"
    },
    {
      "inputs": [],
      "name": "PAUSER_ADMIN_ROLE",
      "outputs": [
        {
          "internalType": "bytes32",
          "name": "",
          "type": "bytes32"
        }
      ],
      "stateMutability": "view",
      "type": "function"
    },
    {
      "inputs": [],
      "name": "PAUSER_ROLE",
      "outputs": [
        {
          "internalType": "bytes32",
          "name": "",
          "type": "bytes32"
        }
      ],
      "stateMutability": "view",
      "type": "function"
    },
    {
      "inputs": [],
      "name": "PROJECT_OWNER_ROLE",
      "outputs": [
        {
          "internalType": "bytes32",
          "name": "",
          "type": "bytes32"
        }
      ],
      "stateMutability": "view",
      "type": "function"
    },
    {
      "inputs": [],
      "name": "UNPAUSER_ADMIN_ROLE",
      "outputs": [
        {
          "internalType": "bytes32",
          "name": "",
          "type": "bytes32"
        }
      ],
      "stateMutability": "view",
      "type": "function"
    },
    {
      "inputs": [],
      "name": "UNPAUSER_ROLE",
      "outputs": [
        {
          "internalType": "bytes32",
          "name": "",
          "type": "bytes32"
        }
      ],
      "stateMutability": "view",
      "type": "function"
    },
    {
      "inputs": [
        {
          "internalType": "address",
          "name": "",
          "type": "address"
        }
      ],
      "name": "allowlist",
      "outputs": [
        {
          "internalType": "uint256",
          "name": "",
          "type": "uint256"
        }
      ],
      "stateMutability": "view",
      "type": "function"
    },
    {
      "inputs": [
        {
          "internalType": "uint256",
          "name": "_quantity",
          "type": "uint256"
        }
      ],
      "name": "allowlistMint",
      "outputs": [],
      "stateMutability": "payable",
      "type": "function"
    },
    {
      "inputs": [],
      "name": "allowlistPrice",
      "outputs": [
        {
          "internalType": "uint256",
          "name": "",
          "type": "uint256"
        }
      ],
      "stateMutability": "view",
      "type": "function"
    },
    {
      "inputs": [],
      "name": "allowlistStartTime",
      "outputs": [
        {
          "internalType": "uint256",
          "name": "",
          "type": "uint256"
        }
      ],
      "stateMutability": "view",
      "type": "function"
    },
    {
      "inputs": [],
      "name": "amountBatchMinted",
      "outputs": [
        {
          "internalType": "uint256",
          "name": "",
          "type": "uint256"
        }
      ],
      "stateMutability": "view",
      "type": "function"
    },
    {
      "inputs": [],
      "name": "amountForAllowlist",
      "outputs": [
        {
          "internalType": "uint256",
          "name": "",
          "type": "uint256"
        }
      ],
      "stateMutability": "view",
      "type": "function"
    },
    {
      "inputs": [],
      "name": "amountForDevs",
      "outputs": [
        {
          "internalType": "uint256",
          "name": "",
          "type": "uint256"
        }
      ],
      "stateMutability": "view",
      "type": "function"
    },
    {
      "inputs": [],
      "name": "amountMintedByDevs",
      "outputs": [
        {
          "internalType": "uint256",
          "name": "",
          "type": "uint256"
        }
      ],
      "stateMutability": "view",
      "type": "function"
    },
    {
      "inputs": [],
      "name": "amountMintedDuringAllowlist",
      "outputs": [
        {
          "internalType": "uint256",
          "name": "",
          "type": "uint256"
        }
      ],
      "stateMutability": "view",
      "type": "function"
    },
    {
      "inputs": [],
      "name": "amountMintedDuringPreMint",
      "outputs": [
        {
          "internalType": "uint256",
          "name": "",
          "type": "uint256"
        }
      ],
      "stateMutability": "view",
      "type": "function"
    },
    {
      "inputs": [],
      "name": "amountMintedDuringPublicSale",
      "outputs": [
        {
          "internalType": "uint256",
          "name": "",
          "type": "uint256"
        }
      ],
      "stateMutability": "view",
      "type": "function"
    },
    {
      "inputs": [
        {
          "internalType": "address",
          "name": "to",
          "type": "address"
        },
        {
          "internalType": "uint256",
          "name": "tokenId",
          "type": "uint256"
        }
      ],
      "name": "approve",
      "outputs": [],
      "stateMutability": "nonpayable",
      "type": "function"
    },
    {
      "inputs": [
        {
          "internalType": "address",
          "name": "owner",
          "type": "address"
        }
      ],
      "name": "balanceOf",
      "outputs": [
        {
          "internalType": "uint256",
          "name": "",
          "type": "uint256"
        }
      ],
      "stateMutability": "view",
      "type": "function"
    },
    {
      "inputs": [],
      "name": "baseURI",
      "outputs": [
        {
          "internalType": "string",
          "name": "",
          "type": "string"
        }
      ],
      "stateMutability": "view",
      "type": "function"
    },
    {
      "inputs": [
        {
          "internalType": "uint256",
          "name": "_maxQuantity",
          "type": "uint256"
        }
      ],
      "name": "batchMintPreMintedNFTs",
      "outputs": [],
      "stateMutability": "nonpayable",
      "type": "function"
    },
    {
      "inputs": [],
      "name": "batchReveal",
      "outputs": [
        {
          "internalType": "contract IBatchReveal",
          "name": "",
          "type": "address"
        }
      ],
      "stateMutability": "view",
      "type": "function"
    },
    {
      "inputs": [],
      "name": "becomeOwner",
      "outputs": [],
      "stateMutability": "nonpayable",
      "type": "function"
    },
    {
      "inputs": [],
      "name": "collectionSize",
      "outputs": [
        {
          "internalType": "uint256",
          "name": "",
          "type": "uint256"
        }
      ],
      "stateMutability": "view",
      "type": "function"
    },
    {
      "inputs": [],
      "name": "currentPhase",
      "outputs": [
        {
          "internalType": "enum IBaseLaunchpeg.Phase",
          "name": "",
          "type": "uint8"
        }
      ],
      "stateMutability": "view",
      "type": "function"
    },
    {
      "inputs": [
        {
          "internalType": "uint256",
          "name": "_quantity",
          "type": "uint256"
        }
      ],
      "name": "devMint",
      "outputs": [],
      "stateMutability": "nonpayable",
      "type": "function"
    },
    {
      "inputs": [
        {
          "internalType": "uint256",
          "name": "tokenId",
          "type": "uint256"
        }
      ],
      "name": "getApproved",
      "outputs": [
        {
          "internalType": "address",
          "name": "",
          "type": "address"
        }
      ],
      "stateMutability": "view",
      "type": "function"
    },
    {
      "inputs": [
        {
          "internalType": "uint256",
          "name": "_tokenId",
          "type": "uint256"
        }
      ],
      "name": "getOwnershipData",
      "outputs": [
        {
          "components": [
            {
              "internalType": "address",
              "name": "addr",
              "type": "address"
            },
            {
              "internalType": "uint64",
              "name": "startTimestamp",
              "type": "uint64"
            },
            {
              "internalType": "bool",
              "name": "burned",
              "type": "bool"
            }
          ],
          "internalType": "struct ERC721AUpgradeable.TokenOwnership",
          "name": "",
          "type": "tuple"
        }
      ],
      "stateMutability": "view",
      "type": "function"
    },
    {
      "inputs": [
        {
          "internalType": "bytes32",
          "name": "role",
          "type": "bytes32"
        }
      ],
      "name": "getRoleAdmin",
      "outputs": [
        {
          "internalType": "bytes32",
          "name": "",
          "type": "bytes32"
        }
      ],
      "stateMutability": "view",
      "type": "function"
    },
    {
      "inputs": [
        {
          "internalType": "bytes32",
          "name": "role",
          "type": "bytes32"
        },
        {
          "internalType": "uint256",
          "name": "index",
          "type": "uint256"
        }
      ],
      "name": "getRoleMember",
      "outputs": [
        {
          "internalType": "address",
          "name": "",
          "type": "address"
        }
      ],
      "stateMutability": "view",
      "type": "function"
    },
    {
      "inputs": [
        {
          "internalType": "bytes32",
          "name": "role",
          "type": "bytes32"
        }
      ],
      "name": "getRoleMemberCount",
      "outputs": [
        {
          "internalType": "uint256",
          "name": "",
          "type": "uint256"
        }
      ],
      "stateMutability": "view",
      "type": "function"
    },
    {
      "inputs": [
        {
          "internalType": "bytes32",
          "name": "role",
          "type": "bytes32"
        },
        {
          "internalType": "address",
          "name": "account",
          "type": "address"
        }
      ],
      "name": "grantRole",
      "outputs": [],
      "stateMutability": "nonpayable",
      "type": "function"
    },
    {
      "inputs": [],
      "name": "hasBatchToReveal",
      "outputs": [
        {
          "internalType": "bool",
          "name": "",
          "type": "bool"
        },
        {
          "internalType": "uint256",
          "name": "",
          "type": "uint256"
        }
      ],
      "stateMutability": "view",
      "type": "function"
    },
    {
      "inputs": [
        {
          "internalType": "bytes32",
          "name": "role",
          "type": "bytes32"
        },
        {
          "internalType": "address",
          "name": "account",
          "type": "address"
        }
      ],
      "name": "hasRole",
      "outputs": [
        {
          "internalType": "bool",
          "name": "",
          "type": "bool"
        }
      ],
      "stateMutability": "view",
      "type": "function"
    },
    {
      "inputs": [
        {
          "internalType": "string",
          "name": "_name",
          "type": "string"
        },
        {
          "internalType": "string",
          "name": "_symbol",
          "type": "string"
        },
        {
          "internalType": "address",
          "name": "_projectOwner",
          "type": "address"
        },
        {
          "internalType": "address",
          "name": "_royaltyReceiver",
          "type": "address"
        },
        {
          "internalType": "uint256",
          "name": "_maxBatchSize",
          "type": "uint256"
        },
        {
          "internalType": "uint256",
          "name": "_collectionSize",
          "type": "uint256"
        },
        {
          "internalType": "uint256",
          "name": "_amountForDevs",
          "type": "uint256"
        },
        {
          "internalType": "uint256",
          "name": "_amountForAllowlist",
          "type": "uint256"
        }
      ],
      "name": "initialize",
      "outputs": [],
      "stateMutability": "nonpayable",
      "type": "function"
    },
    {
      "inputs": [
        {
          "internalType": "uint256",
          "name": "_joeFeePercent",
          "type": "uint256"
        },
        {
          "internalType": "address",
          "name": "_joeFeeCollector",
          "type": "address"
        }
      ],
      "name": "initializeJoeFee",
      "outputs": [],
      "stateMutability": "nonpayable",
      "type": "function"
    },
    {
      "inputs": [
        {
          "internalType": "uint256",
          "name": "_preMintStartTime",
          "type": "uint256"
        },
        {
          "internalType": "uint256",
          "name": "_allowlistStartTime",
          "type": "uint256"
        },
        {
          "internalType": "uint256",
          "name": "_publicSaleStartTime",
          "type": "uint256"
        },
        {
          "internalType": "uint256",
          "name": "_publicSaleEndTime",
          "type": "uint256"
        },
        {
          "internalType": "uint256",
          "name": "_allowlistPrice",
          "type": "uint256"
        },
        {
          "internalType": "uint256",
          "name": "_salePrice",
          "type": "uint256"
        }
      ],
      "name": "initializePhases",
      "outputs": [],
      "stateMutability": "nonpayable",
      "type": "function"
    },
    {
      "inputs": [
        {
          "internalType": "address",
          "name": "owner",
          "type": "address"
        },
        {
          "internalType": "address",
          "name": "operator",
          "type": "address"
        }
      ],
      "name": "isApprovedForAll",
      "outputs": [
        {
          "internalType": "bool",
          "name": "",
          "type": "bool"
        }
      ],
      "stateMutability": "view",
      "type": "function"
    },
    {
      "inputs": [],
      "name": "joeFeeCollector",
      "outputs": [
        {
          "internalType": "address",
          "name": "",
          "type": "address"
        }
      ],
      "stateMutability": "view",
      "type": "function"
    },
    {
      "inputs": [],
      "name": "joeFeePercent",
      "outputs": [
        {
          "internalType": "uint256",
          "name": "",
          "type": "uint256"
        }
      ],
      "stateMutability": "view",
      "type": "function"
    },
    {
      "inputs": [],
      "name": "maxBatchSize",
      "outputs": [
        {
          "internalType": "uint256",
          "name": "",
          "type": "uint256"
        }
      ],
      "stateMutability": "view",
      "type": "function"
    },
    {
      "inputs": [],
      "name": "maxPerAddressDuringMint",
      "outputs": [
        {
          "internalType": "uint256",
          "name": "",
          "type": "uint256"
        }
      ],
      "stateMutability": "view",
      "type": "function"
    },
    {
      "inputs": [],
      "name": "name",
      "outputs": [
        {
          "internalType": "string",
          "name": "",
          "type": "string"
        }
      ],
      "stateMutability": "view",
      "type": "function"
    },
    {
      "inputs": [
        {
          "internalType": "address",
          "name": "_owner",
          "type": "address"
        }
      ],
      "name": "numberMinted",
      "outputs": [
        {
          "internalType": "uint256",
          "name": "",
          "type": "uint256"
        }
      ],
      "stateMutability": "view",
      "type": "function"
    },
    {
      "inputs": [
        {
          "internalType": "address",
          "name": "_owner",
          "type": "address"
        }
      ],
      "name": "numberMintedWithPreMint",
      "outputs": [
        {
          "internalType": "uint256",
          "name": "",
          "type": "uint256"
        }
      ],
      "stateMutability": "view",
      "type": "function"
    },
    {
      "inputs": [],
      "name": "owner",
      "outputs": [
        {
          "internalType": "address",
          "name": "",
          "type": "address"
        }
      ],
      "stateMutability": "view",
      "type": "function"
    },
    {
      "inputs": [
        {
          "internalType": "uint256",
          "name": "tokenId",
          "type": "uint256"
        }
      ],
      "name": "ownerOf",
      "outputs": [
        {
          "internalType": "address",
          "name": "",
          "type": "address"
        }
      ],
      "stateMutability": "view",
      "type": "function"
    },
    {
      "inputs": [],
      "name": "pause",
      "outputs": [],
      "stateMutability": "nonpayable",
      "type": "function"
    },
    {
      "inputs": [],
      "name": "paused",
      "outputs": [
        {
          "internalType": "bool",
          "name": "",
          "type": "bool"
        }
      ],
      "stateMutability": "view",
      "type": "function"
    },
    {
      "inputs": [],
      "name": "pendingOwner",
      "outputs": [
        {
          "internalType": "address",
          "name": "",
          "type": "address"
        }
      ],
      "stateMutability": "view",
      "type": "function"
    },
    {
      "inputs": [
        {
          "internalType": "uint256",
          "name": "_quantity",
          "type": "uint256"
        }
      ],
      "name": "preMint",
      "outputs": [],
      "stateMutability": "payable",
      "type": "function"
    },
    {
      "inputs": [],
      "name": "preMintStartTime",
      "outputs": [
        {
          "internalType": "uint256",
          "name": "",
          "type": "uint256"
        }
      ],
      "stateMutability": "view",
      "type": "function"
    },
    {
      "inputs": [],
      "name": "publicSaleEndTime",
      "outputs": [
        {
          "internalType": "uint256",
          "name": "",
          "type": "uint256"
        }
      ],
      "stateMutability": "view",
      "type": "function"
    },
    {
      "inputs": [
        {
          "internalType": "uint256",
          "name": "_quantity",
          "type": "uint256"
        }
      ],
      "name": "publicSaleMint",
      "outputs": [],
      "stateMutability": "payable",
      "type": "function"
    },
    {
      "inputs": [],
      "name": "publicSaleStartTime",
      "outputs": [
        {
          "internalType": "uint256",
          "name": "",
          "type": "uint256"
        }
      ],
      "stateMutability": "view",
      "type": "function"
    },
    {
      "inputs": [],
      "name": "renounceOwnership",
      "outputs": [],
      "stateMutability": "nonpayable",
      "type": "function"
    },
    {
      "inputs": [
        {
          "internalType": "bytes32",
          "name": "role",
          "type": "bytes32"
        },
        {
          "internalType": "address",
          "name": "account",
          "type": "address"
        }
      ],
      "name": "renounceRole",
      "outputs": [],
      "stateMutability": "nonpayable",
      "type": "function"
    },
    {
      "inputs": [],
      "name": "revealNextBatch",
      "outputs": [],
      "stateMutability": "nonpayable",
      "type": "function"
    },
    {
      "inputs": [],
      "name": "revokePendingOwner",
      "outputs": [],
      "stateMutability": "nonpayable",
      "type": "function"
    },
    {
      "inputs": [
        {
          "internalType": "bytes32",
          "name": "role",
          "type": "bytes32"
        },
        {
          "internalType": "address",
          "name": "account",
          "type": "address"
        }
      ],
      "name": "revokeRole",
      "outputs": [],
      "stateMutability": "nonpayable",
      "type": "function"
    },
    {
      "inputs": [
        {
          "internalType": "uint256",
          "name": "_tokenId",
          "type": "uint256"
        },
        {
          "internalType": "uint256",
          "name": "_salePrice",
          "type": "uint256"
        }
      ],
      "name": "royaltyInfo",
      "outputs": [
        {
          "internalType": "address",
          "name": "",
          "type": "address"
        },
        {
          "internalType": "uint256",
          "name": "",
          "type": "uint256"
        }
      ],
      "stateMutability": "view",
      "type": "function"
    },
    {
      "inputs": [
        {
          "internalType": "address",
          "name": "from",
          "type": "address"
        },
        {
          "internalType": "address",
          "name": "to",
          "type": "address"
        },
        {
          "internalType": "uint256",
          "name": "tokenId",
          "type": "uint256"
        }
      ],
      "name": "safeTransferFrom",
      "outputs": [],
      "stateMutability": "nonpayable",
      "type": "function"
    },
    {
      "inputs": [
        {
          "internalType": "address",
          "name": "from",
          "type": "address"
        },
        {
          "internalType": "address",
          "name": "to",
          "type": "address"
        },
        {
          "internalType": "uint256",
          "name": "tokenId",
          "type": "uint256"
        },
        {
          "internalType": "bytes",
          "name": "_data",
          "type": "bytes"
        }
      ],
      "name": "safeTransferFrom",
      "outputs": [],
      "stateMutability": "nonpayable",
      "type": "function"
    },
    {
      "inputs": [],
      "name": "salePrice",
      "outputs": [
        {
          "internalType": "uint256",
          "name": "",
          "type": "uint256"
        }
      ],
      "stateMutability": "view",
      "type": "function"
    },
    {
      "inputs": [
        {
          "internalType": "address[]",
          "name": "_addresses",
          "type": "address[]"
        },
        {
          "internalType": "uint256[]",
          "name": "_numNfts",
          "type": "uint256[]"
        }
      ],
      "name": "seedAllowlist",
      "outputs": [],
      "stateMutability": "nonpayable",
      "type": "function"
    },
    {
      "inputs": [
        {
          "internalType": "uint256",
          "name": "_allowlistStartTime",
          "type": "uint256"
        }
      ],
      "name": "setAllowlistStartTime",
      "outputs": [],
      "stateMutability": "nonpayable",
      "type": "function"
    },
    {
      "inputs": [
        {
          "internalType": "address",
          "name": "operator",
          "type": "address"
        },
        {
          "internalType": "bool",
          "name": "approved",
          "type": "bool"
        }
      ],
      "name": "setApprovalForAll",
      "outputs": [],
      "stateMutability": "nonpayable",
      "type": "function"
    },
    {
      "inputs": [
        {
          "internalType": "string",
          "name": "_baseURI",
          "type": "string"
        }
      ],
      "name": "setBaseURI",
      "outputs": [],
      "stateMutability": "nonpayable",
      "type": "function"
    },
    {
      "inputs": [
        {
          "internalType": "address",
          "name": "_batchReveal",
          "type": "address"
        }
      ],
      "name": "setBatchReveal",
      "outputs": [],
      "stateMutability": "nonpayable",
      "type": "function"
    },
    {
      "inputs": [
        {
          "internalType": "address",
          "name": "pendingOwner_",
          "type": "address"
        }
      ],
      "name": "setPendingOwner",
      "outputs": [],
      "stateMutability": "nonpayable",
      "type": "function"
    },
    {
      "inputs": [
        {
          "internalType": "uint256",
          "name": "_preMintStartTime",
          "type": "uint256"
        }
      ],
      "name": "setPreMintStartTime",
      "outputs": [],
      "stateMutability": "nonpayable",
      "type": "function"
    },
    {
      "inputs": [
        {
          "internalType": "uint256",
          "name": "_publicSaleEndTime",
          "type": "uint256"
        }
      ],
      "name": "setPublicSaleEndTime",
      "outputs": [],
      "stateMutability": "nonpayable",
      "type": "function"
    },
    {
      "inputs": [
        {
          "internalType": "uint256",
          "name": "_publicSaleStartTime",
          "type": "uint256"
        }
      ],
      "name": "setPublicSaleStartTime",
      "outputs": [],
      "stateMutability": "nonpayable",
      "type": "function"
    },
    {
      "inputs": [
        {
          "internalType": "address",
          "name": "_receiver",
          "type": "address"
        },
        {
          "internalType": "uint96",
          "name": "_feePercent",
          "type": "uint96"
        }
      ],
      "name": "setRoyaltyInfo",
      "outputs": [],
      "stateMutability": "nonpayable",
      "type": "function"
    },
    {
      "inputs": [
        {
          "internalType": "string",
          "name": "_unrevealedURI",
          "type": "string"
        }
      ],
      "name": "setUnrevealedURI",
      "outputs": [],
      "stateMutability": "nonpayable",
      "type": "function"
    },
    {
      "inputs": [
        {
          "internalType": "uint256",
          "name": "_withdrawAVAXStartTime",
          "type": "uint256"
        }
      ],
      "name": "setWithdrawAVAXStartTime",
      "outputs": [],
      "stateMutability": "nonpayable",
      "type": "function"
    },
    {
      "inputs": [
        {
          "internalType": "bytes4",
          "name": "_interfaceId",
          "type": "bytes4"
        }
      ],
      "name": "supportsInterface",
      "outputs": [
        {
          "internalType": "bool",
          "name": "",
          "type": "bool"
        }
      ],
      "stateMutability": "view",
      "type": "function"
    },
    {
      "inputs": [],
      "name": "symbol",
      "outputs": [
        {
          "internalType": "string",
          "name": "",
          "type": "string"
        }
      ],
      "stateMutability": "view",
      "type": "function"
    },
    {
      "inputs": [
        {
          "internalType": "uint256",
          "name": "_id",
          "type": "uint256"
        }
      ],
      "name": "tokenURI",
      "outputs": [
        {
          "internalType": "string",
          "name": "",
          "type": "string"
        }
      ],
      "stateMutability": "view",
      "type": "function"
    },
    {
      "inputs": [],
      "name": "totalSupply",
      "outputs": [
        {
          "internalType": "uint256",
          "name": "",
          "type": "uint256"
        }
      ],
      "stateMutability": "view",
      "type": "function"
    },
    {
      "inputs": [
        {
          "internalType": "address",
          "name": "from",
          "type": "address"
        },
        {
          "internalType": "address",
          "name": "to",
          "type": "address"
        },
        {
          "internalType": "uint256",
          "name": "tokenId",
          "type": "uint256"
        }
      ],
      "name": "transferFrom",
      "outputs": [],
      "stateMutability": "nonpayable",
      "type": "function"
    },
    {
      "inputs": [],
      "name": "unpause",
      "outputs": [],
      "stateMutability": "nonpayable",
      "type": "function"
    },
    {
      "inputs": [],
      "name": "unrevealedURI",
      "outputs": [
        {
          "internalType": "string",
          "name": "",
          "type": "string"
        }
      ],
      "stateMutability": "view",
      "type": "function"
    },
    {
      "inputs": [
        {
          "internalType": "address",
          "name": "",
          "type": "address"
        }
      ],
      "name": "userAddressToPreMintAmount",
      "outputs": [
        {
          "internalType": "uint256",
          "name": "",
          "type": "uint256"
        }
      ],
      "stateMutability": "view",
      "type": "function"
    },
    {
      "inputs": [
        {
          "internalType": "address",
          "name": "_to",
          "type": "address"
        }
      ],
      "name": "withdrawAVAX",
      "outputs": [],
      "stateMutability": "nonpayable",
      "type": "function"
    },
    {
      "inputs": [],
      "name": "withdrawAVAXStartTime",
      "outputs": [
        {
          "internalType": "uint256",
          "name": "",
          "type": "uint256"
        }
      ],
      "stateMutability": "view",
      "type": "function"
    }
  ],
  "transactionHash": "0x9bc0cc3ba0e95fed5a2ee9333717b2af64ead32e39de25da3deb3b10a6ece23b",
  "args": [],
  "numDeployments": 9,
  "solcInputHash": "9d21c1a763ce0d94877fbf85becde524",
  "bytecode": "0x608060405234801561001057600080fd5b506152af806100206000396000f3fe6080604052600436106104c05760003560e01c8063715018a611610276578063c180526a1161014f578063e30c3978116100c1578063f35e231c11610085578063f35e231c14610ee1578063f51f96dd14610f01578063f9dca98914610f18578063fb1bb9de14610f2d578063fbe1aa5114610f61578063fe2c7fee14610f7857600080fd5b8063e30c397814610e06578063e4b26d8414610e24578063e63ab1e914610e44578063e985e9c514610e78578063ecbbfea314610ec157600080fd5b8063ca15c87311610113578063ca15c87314610d4b578063d3486d5b14610d6b578063d547741f14610d99578063d62b630314610db9578063d9a6f70514610dd0578063dc33e68114610de657600080fd5b8063c180526a14610cca578063c42069ec14610cdd578063c5482fe314610cfd578063c792e16714610d14578063c87b56dd14610d2b57600080fd5b8063984b67d6116101e8578063a7cd52cb116101ac578063a7cd52cb14610c07578063aec3922b14610c35578063b05863d514610c55578063b3ab66b014610c75578063b88d4fde14610c88578063be62da0e14610ca857600080fd5b8063984b67d614610b72578063995b94f214610b92578063a1ef0e5414610bb2578063a217fddf14610bd2578063a22cb46514610be757600080fd5b80639010d07c1161023a5780639010d07c14610a9957806390967a5214610ab957806391d1485414610ad05780639231ab2a14610af057806395d89b4114610b46578063963331d814610b5b57600080fd5b8063715018a614610a275780638456cb5914610a3c5780638ad433ac14610a515780638bc35c2f14610a645780638da5cb5b14610a7b57600080fd5b8063375a069a116103a85780635c975abb1161031a5780636bb7b1d9116102de5780636bb7b1d9146109725780636c0360eb146109895780636d5d40c61461099e5780637035bf18146109be57806370a08231146109d357806370a95250146109f357600080fd5b80635c975abb146108f9578063622f1c471461091157806362f4fb2d146109265780636352211e1461093d57806367ab8a4e1461095d57600080fd5b806345afb0021161036c57806345afb0021461085357806345c0f5331461087357806355f804b31461088a57806359d7bc4d146108aa5780635bb21376146108c15780635c7034af146108e257600080fd5b8063375a069a146107d05780633ba8671f146107f05780633cc4cadb146108075780633f4ba83a1461081e57806342842e0e1461083357600080fd5b80631c0310a51161044157806325a004731161040557806325a00473146106ef5780632913daa0146107235780632a55205a1461073a5780632e8f1f50146107795780632f2ff15d1461079057806336568abe146107b057600080fd5b80631c0310a5146106475780631e4d185f1461066757806321cc16111461067e57806323b872dd1461069f578063248a9ca3146106bf57600080fd5b806306fdde031161048857806306fdde031461058a578063081812fc146105ac578063095ea7b3146105e45780630c2c39a31461060457806318160ddd1461062457600080fd5b806301ffc9a7146104c557806302fa7c47146104fa57806303851c281461051c57806303b674d314610548578063055ad42e14610568575b600080fd5b3480156104d157600080fd5b506104e56104e0366004614cb6565b610f98565b60405190151581526020015b60405180910390f35b34801561050657600080fd5b5061051a610515366004614b6a565b610fc3565b005b34801561052857600080fd5b5061053161106f565b6040805192151583526020830191909152016104f1565b34801561055457600080fd5b5061051a610563366004614c58565b611131565b34801561057457600080fd5b5061057d611202565b6040516104f19190614f73565b34801561059657600080fd5b5061059f6112c3565b6040516104f19190614f81565b3480156105b857600080fd5b506105cc6105c7366004614c58565b611355565b6040516001600160a01b0390911681526020016104f1565b3480156105f057600080fd5b5061051a6105ff366004614b40565b611399565b34801561061057600080fd5b5061051a61061f366004614c58565b611427565b34801561063057600080fd5b50606654606554035b6040519081526020016104f1565b34801561065357600080fd5b5061051a610662366004614a04565b6114a9565b34801561067357600080fd5b506106396101a75481565b34801561068a57600080fd5b50610193546105cc906001600160a01b031681565b3480156106ab57600080fd5b5061051a6106ba366004614a52565b61173e565b3480156106cb57600080fd5b506106396106da366004614c58565b60009081526099602052604090206001015490565b3480156106fb57600080fd5b506106397fe0e65c783ac33ff1c5ccf4399c9185066773921d6f8d050bf80781603021f09781565b34801561072f57600080fd5b506106396101975481565b34801561074657600080fd5b5061075a610755366004614c94565b611749565b604080516001600160a01b0390931683526020830191909152016104f1565b34801561078557600080fd5b506106396101a05481565b34801561079c57600080fd5b5061051a6107ab366004614c71565b6117f9565b3480156107bc57600080fd5b5061051a6107cb366004614c71565b611883565b3480156107dc57600080fd5b5061051a6107eb366004614c58565b6118ac565b3480156107fc57600080fd5b506106396101a15481565b34801561081357600080fd5b506106396101a25481565b34801561082a57600080fd5b5061051a611a7a565b34801561083f57600080fd5b5061051a61084e366004614a52565b611b2a565b34801561085f57600080fd5b5061051a61086e366004614c58565b611b45565b34801561087f57600080fd5b506106396101945481565b34801561089657600080fd5b5061051a6108a5366004614cf0565b611bd3565b3480156108b657600080fd5b506106396101a55481565b3480156108cd57600080fd5b5061019a546105cc906001600160a01b031681565b3480156108ee57600080fd5b5061063961019f5481565b34801561090557600080fd5b5060fd5460ff166104e5565b34801561091d57600080fd5b5061051a611c49565b34801561093257600080fd5b506106396101a45481565b34801561094957600080fd5b506105cc610958366004614c58565b611d73565b34801561096957600080fd5b5061051a611d85565b34801561097e57600080fd5b506106396101a65481565b34801561099557600080fd5b5061059f611de3565b3480156109aa57600080fd5b5061051a6109b9366004614c58565b611e72565b3480156109ca57600080fd5b5061059f611f3c565b3480156109df57600080fd5b506106396109ee366004614a04565b611f4a565b3480156109ff57600080fd5b506106397fe516f7ac9747f401e208331379a0bafe3c9c4dbb6501fd23bcef278f7ebaf4e581565b348015610a3357600080fd5b5061051a611f98565b348015610a4857600080fd5b5061051a611fcd565b61051a610a5f366004614c58565b61207b565b348015610a7057600080fd5b506106396101985481565b348015610a8757600080fd5b506097546001600160a01b03166105cc565b348015610aa557600080fd5b506105cc610ab4366004614c94565b6120e1565b348015610ac557600080fd5b506106396101ab5481565b348015610adc57600080fd5b506104e5610aeb366004614c71565b612100565b348015610afc57600080fd5b50610b10610b0b366004614c58565b61212b565b6040805182516001600160a01b031681526020808401516001600160401b031690820152918101511515908201526060016104f1565b348015610b5257600080fd5b5061059f612151565b348015610b6757600080fd5b506106396101a35481565b348015610b7e57600080fd5b5061051a610b8d366004614c58565b612160565b348015610b9e57600080fd5b5061051a610bad366004614d61565b612227565b348015610bbe57600080fd5b5061051a610bcd366004614c58565b6122f8565b348015610bde57600080fd5b50610639600081565b348015610bf357600080fd5b5061051a610c02366004614b09565b61239e565b348015610c1357600080fd5b50610639610c22366004614a04565b61019d6020526000908152604090205481565b348015610c4157600080fd5b50610639610c50366004614a04565b612434565b348015610c6157600080fd5b5061051a610c70366004614ba2565b612473565b61051a610c83366004614c58565b61256c565b348015610c9457600080fd5b5061051a610ca3366004614a8e565b6126fe565b348015610cb457600080fd5b5061063960008051602061525a83398151915281565b61051a610cd8366004614c58565b612749565b348015610ce957600080fd5b5061051a610cf8366004614a04565b6128f3565b348015610d0957600080fd5b506106396101995481565b348015610d2057600080fd5b506106396101a85481565b348015610d3757600080fd5b5061059f610d46366004614c58565b612978565b348015610d5757600080fd5b50610639610d66366004614c58565b612b69565b348015610d7757600080fd5b50610639610d86366004614a04565b61019e6020526000908152604090205481565b348015610da557600080fd5b5061051a610db4366004614c71565b612b80565b348015610dc557600080fd5b506106396101965481565b348015610ddc57600080fd5b5061063961271081565b348015610df257600080fd5b50610639610e01366004614a04565b612c04565b348015610e1257600080fd5b506098546001600160a01b03166105cc565b348015610e3057600080fd5b5061051a610e3f366004614a04565b612c32565b348015610e5057600080fd5b506106397f65d7a28e3265b37a6474929f336521b332c1681b933f6cb9f3376673440d862a81565b348015610e8457600080fd5b506104e5610e93366004614a1f565b6001600160a01b039182166000908152606c6020908152604080832093909416825291909152205460ff1690565b348015610ecd57600080fd5b5061051a610edc366004614c71565b612c80565b348015610eed57600080fd5b5061051a610efc366004614e22565b612d7c565b348015610f0d57600080fd5b506106396101ac5481565b348015610f2457600080fd5b5061051a612f09565b348015610f3957600080fd5b506106397f427da25fe773164f88948d3e215c94b6554e2ed5e5f203a821c9f2f6131cf75a81565b348015610f6d57600080fd5b506106396101955481565b348015610f8457600080fd5b5061051a610f93366004614cf0565b612f48565b60006001600160e01b03198216633502dbf760e11b1480610fbd5750610fbd82612fb2565b92915050565b6097546001600160a01b03163314610fee57604051630202a8bf60e61b815260040160405180910390fd5b6109c4816001600160601b0316111561101a576040516306f644f160e31b815260040160405180910390fd5b6110248282613013565b6040516001600160601b03821681526001600160a01b038316907fd85b7816dca44c313f0fdadd9567f99f3620a2fac7c21a8a7872e1ac4d10fe559060200160405180910390a25050565b6101935460009081906001600160a01b031661108e5750600091829150565b610193546001600160a01b031663ad9e22af306110ae6066546065540390565b6040516001600160e01b031960e085901b1681526001600160a01b0390921660048301526024820152604401604080518083038186803b1580156110f157600080fd5b505afa158015611105573d6000803e3d6000fd5b505050506040513d601f19601f820116820180604052508101906111299190614c2a565b915091509091565b6097546001600160a01b0316331461115c57604051630202a8bf60e61b815260040160405180910390fd5b6101a55461117d576040516356a4234d60e11b815260040160405180910390fd5b6101a4548110156111a1576040516312d3f13560e01b815260040160405180910390fd5b806101a65410156111c5576040516335bcfe2b60e21b815260040160405180910390fd5b6101a58190556040518181527f9bcdfa29202b48178635d9cf5c57896f671198685cf6b8ddb5e20f3eb4bb1e60906020015b60405180910390a150565b60006101a4546000148061121757506101a554155b8061122357506101a654155b8061122f57506101a754155b8061123c57506101a45442105b156112475750600090565b61019454606654606554031061125d5750600590565b6101a454421015801561127257506101a55442105b1561127d5750600290565b6101a554421015801561129257506101a65442105b1561129d5750600390565b6101a65442101580156112b257506101a75442105b156112bd5750600490565b50600590565b6060606780546112d290615147565b80601f01602080910402602001604051908101604052809291908181526020018280546112fe90615147565b801561134b5780601f106113205761010080835404028352916020019161134b565b820191906000526020600020905b81548152906001019060200180831161132e57829003601f168201915b5050505050905090565b600061136082613111565b61137d576040516333d1c03960e21b815260040160405180910390fd5b506000908152606b60205260409020546001600160a01b031690565b60006113a482611d73565b9050806001600160a01b0316836001600160a01b031614156113d95760405163250fdee360e21b815260040160405180910390fd5b336001600160a01b038216148015906113f957506113f78133610e93565b155b15611417576040516367d9dca160e11b815260040160405180910390fd5b61142283838361313d565b505050565b6097546001600160a01b0316331461145257604051630202a8bf60e61b815260040160405180910390fd5b4281101561147357604051639db169d760e01b815260040160405180910390fd5b6101a88190556040518181527f90513fea331bb55e4ca73a8d0c053a255347ccb17c621338052705ea997383b3906020016111f7565b60008051602061525a8339815191526114ca6097546001600160a01b031690565b6001600160a01b0316336001600160a01b0316141580156114f257506114f08133612100565b155b1561151e5760405163f9019a8d60e01b8152600481018290523360248201526044015b60405180910390fd5b600261012f5414156115725760405162461bcd60e51b815260206004820152601f60248201527f5265656e7472616e637947756172643a207265656e7472616e742063616c6c006044820152606401611515565b600261012f5560fd5460ff161561159b5760405162461bcd60e51b815260040161151590615019565b426101a85411806115ad57506101a854155b156115cb57604051633bd1a57d60e11b815260040160405180910390fd5b61019954479060009081901561167b5761271061019954846115ed91906150e5565b6115f791906150d1565b91506116038284615104565b61019a546040519194506001600160a01b0316908390600081818185875af1925050503d8060008114611652576040519150601f19603f3d011682016040523d82523d6000602084013e611657565b606091505b5050809150508061167b57604051633aa9e60d60e21b815260040160405180910390fd5b6040516001600160a01b038616908490600081818185875af1925050503d80600081146116c4576040519150601f19603f3d011682016040523d82523d6000602084013e6116c9565b606091505b505080915050806116ed57604051633aa9e60d60e21b815260040160405180910390fd5b60408051848152602081018490526001600160a01b038716917f12eb5d7ccd4ce398edc94007dfbaa22fa2ac8775a3633530f36053ad765262f4910160405180910390a25050600161012f55505050565b611422838383613199565b6000828152610162602090815260408083208151808301909252546001600160a01b038116808352600160a01b9091046001600160601b03169282019290925282916117c0575060408051808201909152610161546001600160a01b0381168252600160a01b90046001600160601b031660208201525b6020810151600090612710906117df906001600160601b0316876150e5565b6117e991906150d1565b91519350909150505b9250929050565b81806118185760405163e466584960e01b815260040160405180910390fd5b6000838152609960205260409020600101546097546001600160a01b0316331480159061184c575061184a8133612100565b155b156118735760405163f9019a8d60e01b815260048101829052336024820152604401611515565b61187d8484613387565b50505050565b81806118a25760405163e466584960e01b815260040160405180910390fd5b61142283836133a9565b60008051602061525a8339815191526118cd6097546001600160a01b031690565b6001600160a01b0316336001600160a01b0316141580156118f557506118f38133612100565b155b1561191c5760405163f9019a8d60e01b815260048101829052336024820152604401611515565b60fd5460ff161561193f5760405162461bcd60e51b815260040161151590615019565b610194548261194c613423565b61195691906150b9565b111561197557604051631eddc6a360e11b815260040160405180910390fd5b610195548261019f5461198891906150b9565b11156119a75760405163011310dd60e31b815260040160405180910390fd5b8161019f546119b691906150b9565b61019f55610197546000906119cb90846150d1565b905060005b81811015611a09576119f73361019754604051806020016040528060008152506000613453565b80611a0181615182565b9150506119d0565b5060006101975484611a1b919061519d565b90508015611a3f57611a3f3382604051806020016040528060008152506000613453565b60405184815233907f7d8400f0e58ae2e14f85b63f3afb0ca5b29328d8f48046b205fc7f174cf9b5ed9060200160405180910390a250505050565b7f427da25fe773164f88948d3e215c94b6554e2ed5e5f203a821c9f2f6131cf75a611aad6097546001600160a01b031690565b6001600160a01b0316336001600160a01b031614158015611ad55750611ad38133612100565b155b15611afc5760405163f9019a8d60e01b815260048101829052336024820152604401611515565b60fd5460ff16611b1f57604051637514f14160e11b815260040160405180910390fd5b611b2761361e565b50565b611422838383604051806020016040528060008152506126fe565b60fd5460ff1615611b685760405162461bcd60e51b815260040161151590615019565b6000611b72611202565b90506003816005811115611b8857611b886151dd565b14158015611ba857506004816005811115611ba557611ba56151dd565b14155b15611bc6576040516338df794b60e01b815260040160405180910390fd5b611bcf826136b1565b5050565b6097546001600160a01b03163314611bfe57604051630202a8bf60e61b815260040160405180910390fd5b611c0b61019b8383614807565b507ff9c7803e94e0d3c02900d8a90893a6d5e90dd04d32a4cfe825520f82bf9f32f661019b604051611c3d9190614f94565b60405180910390a15050565b323314611c6957604051633059e46160e21b815260040160405180910390fd5b60fd5460ff1615611c8c5760405162461bcd60e51b815260040161151590615019565b610193546001600160a01b0316611cb65760405163114d098b60e31b815260040160405180910390fd5b610193546001600160a01b031663fbbc872b30611cd66066546065540390565b6040516001600160e01b031960e085901b1681526001600160a01b0390921660048301526024820152604401602060405180830381600087803b158015611d1c57600080fd5b505af1158015611d30573d6000803e3d6000fd5b505050506040513d601f19601f82011682018060405250810190611d549190614c0d565b611d715760405163fc58cf3f60e01b815260040160405180910390fd5b565b6000611d7e826138f5565b5192915050565b6097546001600160a01b03163314611db057604051630202a8bf60e61b815260040160405180910390fd5b6098546001600160a01b0316611dd95760405163128be5bf60e31b815260040160405180910390fd5b611d716000613a0f565b61019b8054611df190615147565b80601f0160208091040260200160405190810160405280929190818152602001828054611e1d90615147565b8015611e6a5780601f10611e3f57610100808354040283529160200191611e6a565b820191906000526020600020905b815481529060010190602001808311611e4d57829003601f168201915b505050505081565b6097546001600160a01b03163314611e9d57604051630202a8bf60e61b815260040160405180910390fd5b6101a654611ebe576040516356a4234d60e11b815260040160405180910390fd5b6101a554811015611ee2576040516335bcfe2b60e21b815260040160405180910390fd5b806101a7541015611f0657604051631e3804ab60e21b815260040160405180910390fd5b6101a68190556040518181527f4fe26bfd1cf59c4428b13357bea5ab8239f9889b3f94cd575f98b4c6811dcdc5906020016111f7565b61019c8054611df190615147565b60006001600160a01b038216611f73576040516323d3ad8160e21b815260040160405180910390fd5b506001600160a01b03166000908152606a60205260409020546001600160401b031690565b6097546001600160a01b03163314611fc357604051630202a8bf60e61b815260040160405180910390fd5b611d716000613a59565b7f65d7a28e3265b37a6474929f336521b332c1681b933f6cb9f3376673440d862a6120006097546001600160a01b031690565b6001600160a01b0316336001600160a01b03161415801561202857506120268133612100565b155b1561204f5760405163f9019a8d60e01b815260048101829052336024820152604401611515565b60fd5460ff1615612073576040516329c0c03160e11b815260040160405180910390fd5b611b27613a98565b60fd5460ff161561209e5760405162461bcd60e51b815260040161151590615019565b6002806120a9611202565b60058111156120ba576120ba6151dd565b146120d8576040516338df794b60e01b815260040160405180910390fd5b611bcf82613af0565b600082815260cb602052604081206120f99083613cd7565b9392505050565b60009182526099602090815260408084206001600160a01b0393909316845291905290205460ff1690565b6040805160608101825260008082526020820181905291810191909152610fbd826138f5565b6060606880546112d290615147565b6097546001600160a01b0316331461218b57604051630202a8bf60e61b815260040160405180910390fd5b6101a4546121ac576040516356a4234d60e11b815260040160405180910390fd5b428110156121cd57604051639db169d760e01b815260040160405180910390fd5b806101a55410156121f1576040516312d3f13560e01b815260040160405180910390fd5b6101a48190556040518181527f9776e1b1502b2f97161fccc0d9f830da6ad81a796cf67c136801fd59dd0444cd906020016111f7565b600054610100900460ff166122425760005460ff1615612246565b303b155b6122a95760405162461bcd60e51b815260206004820152602e60248201527f496e697469616c697a61626c653a20636f6e747261637420697320616c72656160448201526d191e481a5b9a5d1a585b1a5e995960921b6064820152608401611515565b600054610100900460ff161580156122cb576000805461ffff19166101011790555b6122db8989898989898989613ce3565b80156122ed576000805461ff00191690555b505050505050505050565b6097546001600160a01b0316331461232357604051630202a8bf60e61b815260040160405180910390fd5b6101a754612344576040516356a4234d60e11b815260040160405180910390fd5b6101a65481101561236857604051631e3804ab60e21b815260040160405180910390fd5b6101a78190556040518181527fdb76c49adfe8600a5db82e1d85e7c1f7565676dac577c6a39744e9c95ad68e3c906020016111f7565b6001600160a01b0382163314156123c85760405163b06307db60e01b815260040160405180910390fd5b336000818152606c602090815260408083206001600160a01b03871680855290835292819020805460ff191686151590811790915590519081529192917f17307eab39ab6107e8899845ad3d59bd9653f200f220920489ca2b5937696c31910160405180910390a35050565b6001600160a01b038116600090815261019e6020908152604080832054606a909252822054600160401b90046001600160401b0316610fbd91906150b9565b6097546001600160a01b0316331461249e57604051630202a8bf60e61b815260040160405180910390fd5b828181146124bf57604051638d62a9d560e01b815260040160405180910390fd5b60005b8181101561253b578383828181106124dc576124dc615209565b9050602002013561019d60008888858181106124fa576124fa615209565b905060200201602081019061250f9190614a04565b6001600160a01b031681526020810191909152604001600020558061253381615182565b9150506124c2565b506040517f0df27beb8d16f5e61d125286ba69a986a702ac83921bb1864629ca5e662e84d490600090a15050505050565b32331461258c57604051633059e46160e21b815260040160405180910390fd5b60fd5460ff16156125af5760405162461bcd60e51b815260040161151590615019565b6004806125ba611202565b60058111156125cb576125cb6151dd565b146125e9576040516338df794b60e01b815260040160405180910390fd5b61019854826125f733612434565b61260191906150b9565b1115612620576040516335e62b7b60e21b815260040160405180910390fd5b610194548261262d613423565b61263791906150b9565b111561265657604051631eddc6a360e11b815260040160405180910390fd5b6000826101ac5461266791906150e5565b90506126853384604051806020016040528060008152506000613453565b826101a3600082825461269891906150b9565b90915550506101ac5433907fbb20f716bd7ca9427b818f6de485952ab3a5acec2559fb794e3f9a4d9f70e722908590816126d160655490565b6126db9190615104565b60046040516126ed949392919061508e565b60405180910390a261142281613df0565b612709848484613199565b6001600160a01b0383163b1515801561272b575061272984848484613e8b565b155b1561187d576040516368d2bf6b60e11b815260040160405180910390fd5b60fd5460ff161561276c5760405162461bcd60e51b815260040161151590615019565b600380612777611202565b6005811115612788576127886151dd565b146127a6576040516338df794b60e01b815260040160405180910390fd5b33600090815261019d60205260409020548211156127d7576040516390e50aa560e01b815260040160405180910390fd5b61019454826127e4613423565b6127ee91906150b9565b1180612818575061019654826101a2546101a05461280c91906150b9565b61281691906150b9565b115b1561283657604051631eddc6a360e11b815260040160405180910390fd5b33600090815261019d602052604081208054849290612856908490615104565b90915550506101ab5460009061286d9084906150e5565b905061288b3384604051806020016040528060008152506000613453565b826101a2600082825461289e91906150b9565b90915550506101ab5433907fbb20f716bd7ca9427b818f6de485952ab3a5acec2559fb794e3f9a4d9f70e722908590816128d760655490565b6128e19190615104565b60036040516126ed949392919061508e565b6097546001600160a01b0316331461291e57604051630202a8bf60e61b815260040160405180910390fd5b6001600160a01b038116612945576040516386850cc360e01b815260040160405180910390fd5b6098546001600160a01b03161561296f5760405163033c108960e01b815260040160405180910390fd5b611b2781613a0f565b610193546060906001600160a01b03166129bf5761019b61299883613f83565b6040516020016129a9929190614eb3565b6040516020818303038152906040529050919050565b61019354604051635e1578db60e11b81523060048201526001600160a01b039091169063bc2af1b69060240160206040518083038186803b158015612a0357600080fd5b505afa158015612a17573d6000803e3d6000fd5b505050506040513d601f19601f82011682018060405250810190612a3b9190614e09565b8210612ad45761019c8054612a4f90615147565b80601f0160208091040260200160405190810160405280929190818152602001828054612a7b90615147565b8015612ac85780601f10612a9d57610100808354040283529160200191612ac8565b820191906000526020600020905b815481529060010190602001808311612aab57829003601f168201915b50505050509050919050565b61019354604051631f4b3c0160e11b81523060048201526024810184905261019b91612998916001600160a01b0390911690633e9678029060440160206040518083038186803b158015612b2757600080fd5b505afa158015612b3b573d6000803e3d6000fd5b505050506040513d601f19601f82011682018060405250810190612b5f9190614e09565b613f83565b919050565b600081815260cb60205260408120610fbd90614080565b8180612b9f5760405163e466584960e01b815260040160405180910390fd5b6000838152609960205260409020600101546097546001600160a01b03163314801590612bd35750612bd18133612100565b155b15612bfa5760405163f9019a8d60e01b815260048101829052336024820152604401611515565b61187d848461408a565b6001600160a01b0381166000908152606a6020526040812054600160401b90046001600160401b0316610fbd565b6097546001600160a01b03163314612c5d57604051630202a8bf60e61b815260040160405180910390fd5b61019380546001600160a01b0319166001600160a01b0392909216919091179055565b6097546001600160a01b03163314612cab57604051630202a8bf60e61b815260040160405180910390fd5b61019a546001600160a01b031615612cd6576040516345db6e6960e11b815260040160405180910390fd5b612710821115612cf9576040516346b7d95d60e11b815260040160405180910390fd5b6001600160a01b038116612d2057604051631a1b629760e21b815260040160405180910390fd5b61019982905561019a80546001600160a01b0319166001600160a01b0383169081179091556040805184815260208101929092527fd7d086964f00d2604a80288c460231fe9cfc8e9605e838d49017401111f63adb9101611c3d565b6097546001600160a01b03163314612da757604051630202a8bf60e61b815260040160405180910390fd5b600080612db2611202565b6005811115612dc357612dc36151dd565b14612de1576040516338df794b60e01b815260040160405180910390fd5b42871015612e0257604051639db169d760e01b815260040160405180910390fd5b86861015612e23576040516312d3f13560e01b815260040160405180910390fd5b85851015612e44576040516335bcfe2b60e21b815260040160405180910390fd5b84841015612e6557604051631e3804ab60e21b815260040160405180910390fd5b81831115612e8657604051631da61f9760e11b815260040160405180910390fd5b6101ac8290556101ab8390556101a48790556101a58690556101a68590556101a78490556040805188815260208101889052908101869052606081018590526080810184905260a081018390527f880fa85ac6969827fc8f6a2a8b236fc9789ece8c82b41b17d0865b747de1b9139060c00160405180910390a150505050505050565b6098546001600160a01b031633141580612f21575033155b15612f3f5760405163134aa98760e31b815260040160405180910390fd5b611d7133613a59565b6097546001600160a01b03163314612f7357604051630202a8bf60e61b815260040160405180910390fd5b612f8061019c8383614807565b507f4012c6d278d4b460acbc560e9fa4425e187c3b40c848b8dfa248139729efee4361019c604051611c3d9190614f94565b60006001600160e01b0319821663d5b7d1ad60e01b1480612fd75750612fd7826140ac565b80612fe65750612fe6826140ec565b80612ff55750612ff582614111565b80613004575061300482614127565b80610fbd5750610fbd826140ec565b6127106001600160601b03821611156130815760405162461bcd60e51b815260206004820152602a60248201527f455243323938313a20726f79616c7479206665652077696c6c206578636565646044820152692073616c65507269636560b01b6064820152608401611515565b6001600160a01b0382166130d75760405162461bcd60e51b815260206004820152601960248201527f455243323938313a20696e76616c6964207265636569766572000000000000006044820152606401611515565b604080518082019091526001600160a01b039092168083526001600160601b039091166020909201829052600160a01b9091021761016155565b600060655482108015610fbd575050600090815260696020526040902054600160e01b900460ff161590565b6000828152606b602052604080822080546001600160a01b0319166001600160a01b0387811691821790925591518593918516917f8c5be1e5ebec7d5bd14f71427d1e84f3dd0314c0f7b2291e5b200ac8c7c3b92591a4505050565b60006131a4826138f5565b9050836001600160a01b031681600001516001600160a01b0316146131db5760405162a1148160e81b815260040160405180910390fd5b6000336001600160a01b03861614806131f957506131f98533610e93565b8061321457503361320984611355565b6001600160a01b0316145b90508061323457604051632ce44b5f60e11b815260040160405180910390fd5b6001600160a01b03841661325b57604051633a954ecd60e21b815260040160405180910390fd5b6132676000848761313d565b6001600160a01b038581166000908152606a60209081526040808320805467ffffffffffffffff198082166001600160401b0392831660001901831617909255898616808652838620805493841693831660019081018416949094179055898652606990945282852080546001600160e01b031916909417600160a01b4290921691909102178355870180845292208054919390911661333b57606554821461333b57805460208601516001600160401b0316600160a01b026001600160e01b03199091166001600160a01b038a16171781555b50505082846001600160a01b0316866001600160a01b03167fddf252ad1be2c89b69c2b068fc378daa952ba7f163c4a11628f55a4df523b3ef60405160405180910390a45b5050505050565b613391828261414c565b600082815260cb6020526040902061142290826141d2565b6001600160a01b03811633146134195760405162461bcd60e51b815260206004820152602f60248201527f416363657373436f6e74726f6c3a2063616e206f6e6c792072656e6f756e636560448201526e103937b632b9903337b91039b2b63360891b6064820152608401611515565b611bcf828261408a565b60006101a1546101a05461343a6066546065540390565b61344491906150b9565b61344e9190615104565b905090565b6065546001600160a01b03851661347c57604051622e076360e81b815260040160405180910390fd5b8361349a5760405163b562e8dd60e01b815260040160405180910390fd5b6001600160a01b0385166000818152606a6020908152604080832080546fffffffffffffffffffffffffffffffff1981166001600160401b038083168c018116918217600160401b67ffffffffffffffff1990941690921783900481168c01811690920217909155858452606990925290912080546001600160e01b031916909217600160a01b42909216919091021790558080850183801561354657506001600160a01b0387163b15155b156135cf575b60405182906001600160a01b038916906000907fddf252ad1be2c89b69c2b068fc378daa952ba7f163c4a11628f55a4df523b3ef908290a46135976000888480600101955088613e8b565b6135b4576040516368d2bf6b60e11b815260040160405180910390fd5b8082141561354c5782606554146135ca57600080fd5b613615565b5b6040516001830192906001600160a01b038916906000907fddf252ad1be2c89b69c2b068fc378daa952ba7f163c4a11628f55a4df523b3ef908290a4808214156135d0575b50606555613380565b60fd5460ff166136675760405162461bcd60e51b815260206004820152601460248201527314185d5cd8589b194e881b9bdd081c185d5cd95960621b6044820152606401611515565b60fd805460ff191690557f5db9ee0a495bf2e6ff9c91a7834c1ba4fdd244a5e8aa4e537bd38aeae4b073aa335b6040516001600160a01b03909116815260200160405180910390a1565b806136cf57604051636e5fd58f60e01b815260040160405180910390fd5b6101a1546101a05414156136f65760405163aa9eff6760e01b815260040160405180910390fd5b8060006137036101ab5490565b6101aa546101a9549192506000918291905b80821080156137245750600086115b156138c85760006101a9838154811061373f5761373f615209565b60009182526020918290206040805180820190915260029092020180546001600160a01b0316808352600190910154928201839052965091508710156137c257869350836101a9848154811061379757613797615209565b906000526020600020906002020160010160008282546137b79190615104565b9091555061380c9050565b806020015193506101a983815481106137dd576137dd615209565b60009182526020822060029091020180546001600160a01b0319168155600101558261380881615182565b9350505b6138168488615104565b6001600160a01b038616600090815261019e6020526040812080549299508692909190613844908490615104565b925050819055506138678585604051806020016040528060008152506000613453565b846001600160a01b03167fbb20f716bd7ca9427b818f6de485952ab3a5acec2559fb794e3f9a4d9f70e72285888761389e60655490565b6138a89190615104565b60026040516138ba949392919061508e565b60405180910390a250613715565b6138d28688615104565b6101a160008282546138e491906150b9565b9091555050506101aa555050505050565b6040805160608101825260008082526020820181905291810191909152816065548110156139f657600081815260696020908152604091829020825160608101845290546001600160a01b0381168252600160a01b81046001600160401b031692820192909252600160e01b90910460ff161515918101829052906139f45780516001600160a01b03161561398b579392505050565b5060001901600081815260696020908152604091829020825160608101845290546001600160a01b038116808352600160a01b82046001600160401b031693830193909352600160e01b900460ff16151592810192909252156139ef579392505050565b61398b565b505b604051636f96cda160e11b815260040160405180910390fd5b609880546001600160a01b0319166001600160a01b0383169081179091556040517f68f49b346b94582a8b5f9d10e3fe3365318fe8f191ff8dce7c59c6cad06b02f590600090a250565b613a756000613a706097546001600160a01b031690565b61408a565b6001600160a01b03811615613a8f57613a8f600082613387565b611b27816141e7565b60fd5460ff1615613abb5760405162461bcd60e51b815260040161151590615019565b60fd805460ff191660011790557f62e78cea01bee320cd4e420270b5ea74000d11b0c9f74754ebdbfc544b05a2586136943390565b80613b0e57604051636e5fd58f60e01b815260040160405180910390fd5b33600090815261019d6020526040902054811115613b3f576040516390e50aa560e01b815260040160405180910390fd5b6101945481613b4c613423565b613b5691906150b9565b1180613b72575061019654816101a054613b7091906150b9565b115b15613b9057604051631eddc6a360e11b815260040160405180910390fd5b33600090815261019d602052604081208054839290613bb0908490615104565b909155505033600090815261019e602052604081208054839290613bd59084906150b9565b92505081905550806101a06000828254613bef91906150b9565b909155505060408051808201909152338152602081018281526101a98054600181018255600091825292517f46e9bb78ef9a1e3ee9f53f39e4c4ee2bed6dca07e6229ea5dcb5d0732af60d17600290940293840180546001600160a01b0319166001600160a01b0390921691909117905590517f46e9bb78ef9a1e3ee9f53f39e4c4ee2bed6dca07e6229ea5dcb5d0732af60d18909201919091556101ab5490506000613c9c83836150e5565b604080518581526020810185905291925033917faaa4209473b0e01252afb37fc6a883231b6189d78f5fb75fec9d8345d716d6ba91016126ed565b60006120f98383614244565b600054610100900460ff16613d0a5760405162461bcd60e51b815260040161151590615043565b613d1261426e565b613d1a6142ad565b613d226142dc565b613d2c8888614303565b6001600160a01b038616613d53576040516331ae7ba360e21b815260040160405180910390fd5b821580613d68575082613d6682846150b9565b115b15613d8657604051631a231d4360e21b815260040160405180910390fd5b82841115613da757604051631ddf40b160e01b815260040160405180910390fd5b613dbf60008051602061525a833981519152876117f9565b613dcb856101f4613013565b6101978490556101949290925561019892909255610195919091556101965550505050565b80341015613e1357604051639968ec3d60e01b8152346004820152602401611515565b80341115611b2757600033613e288334615104565b604051600081818185875af1925050503d8060008114613e64576040519150601f19603f3d011682016040523d82523d6000602084013e613e69565b606091505b5050905080611bcf57604051633aa9e60d60e21b815260040160405180910390fd5b604051630a85bd0160e11b81526000906001600160a01b0385169063150b7a0290613ec0903390899088908890600401614f36565b602060405180830381600087803b158015613eda57600080fd5b505af1925050508015613f0a575060408051601f3d908101601f19168201909252613f0791810190614cd3565b60015b613f65573d808015613f38576040519150601f19603f3d011682016040523d82523d6000602084013e613f3d565b606091505b508051613f5d576040516368d2bf6b60e11b815260040160405180910390fd5b805181602001fd5b6001600160e01b031916630a85bd0160e11b1490505b949350505050565b606081613fa75750506040805180820190915260018152600360fc1b602082015290565b8160005b8115613fd15780613fbb81615182565b9150613fca9050600a836150d1565b9150613fab565b6000816001600160401b03811115613feb57613feb61521f565b6040519080825280601f01601f191660200182016040528015614015576020820181803683370190505b5090505b8415613f7b5761402a600183615104565b9150614037600a8661519d565b6140429060306150b9565b60f81b81838151811061405757614057615209565b60200101906001600160f81b031916908160001a905350614079600a866150d1565b9450614019565b6000610fbd825490565b6140948282614334565b600082815260cb60205260409020611422908261439b565b60006001600160e01b031982166380ac58cd60e01b14806140dd57506001600160e01b03198216635b5e139f60e01b145b80610fbd5750610fbd82614111565b60006001600160e01b0319821663152a902d60e11b1480610fbd5750610fbd82614127565b6001600160e01b0319166301ffc9a760e01b1490565b60006001600160e01b0319821663f3353d7760e01b1480610fbd5750610fbd826143b0565b6141568282612100565b611bcf5760008281526099602090815260408083206001600160a01b03851684529091529020805460ff1916600117905561418e3390565b6001600160a01b0316816001600160a01b0316837f2f8788117e7eff1d82e926ec794901d17c78024a50270940304540a733656f0d60405160405180910390a45050565b60006120f9836001600160a01b0384166143ca565b609780546001600160a01b038381166001600160a01b03198084168217909455609880549094169093556040519116919082907f8be0079c531659141344cd1fd0a4f28419497f9722a3daafe3b4186f6b6457e090600090a35050565b600082600001828154811061425b5761425b615209565b9060005260206000200154905092915050565b600054610100900460ff166142955760405162461bcd60e51b815260040161151590615043565b61429d614419565b6142a5614458565b611d71614487565b600054610100900460ff166142d45760405162461bcd60e51b815260040161151590615043565b611d71614542565b600054610100900460ff16611d715760405162461bcd60e51b815260040161151590615043565b600054610100900460ff1661432a5760405162461bcd60e51b815260040161151590615043565b611bcf8282614571565b61433e8282612100565b15611bcf5760008281526099602090815260408083206001600160a01b0385168085529252808320805460ff1916905551339285917ff6391f5c32d9c69d2a47ea670b442974b53935d1edc7fd64eb21e047a839171b9190a45050565b60006120f9836001600160a01b0384166145c9565b60006143bb826146bc565b80610fbd5750610fbd826146e1565b600081815260018301602052604081205461441157508154600181810184556000848152602080822090930184905584548482528286019093526040902091909155610fbd565b506000610fbd565b600054610100900460ff166144405760405162461bcd60e51b815260040161151590615043565b614448614706565b6144506142dc565b611d716142dc565b600054610100900460ff1661447f5760405162461bcd60e51b815260040161151590615043565b611d7161473d565b600054610100900460ff166144ae5760405162461bcd60e51b815260040161151590615043565b6144f87f65d7a28e3265b37a6474929f336521b332c1681b933f6cb9f3376673440d862a7fe0e65c783ac33ff1c5ccf4399c9185066773921d6f8d050bf80781603021f097614770565b611d717f427da25fe773164f88948d3e215c94b6554e2ed5e5f203a821c9f2f6131cf75a7fe516f7ac9747f401e208331379a0bafe3c9c4dbb6501fd23bcef278f7ebaf4e5614770565b600054610100900460ff166145695760405162461bcd60e51b815260040161151590615043565b600161012f55565b600054610100900460ff166145985760405162461bcd60e51b815260040161151590615043565b81516145ab90606790602085019061488b565b5080516145bf90606890602084019061488b565b5060006065555050565b600081815260018301602052604081205480156146b25760006145ed600183615104565b855490915060009061460190600190615104565b905081811461466657600086600001828154811061462157614621615209565b906000526020600020015490508087600001848154811061464457614644615209565b6000918252602080832090910192909255918252600188019052604090208390555b8554869080614677576146776151f3565b600190038181906000526020600020016000905590558560010160008681526020019081526020016000206000905560019350505050610fbd565b6000915050610fbd565b60006001600160e01b031982166322d7505760e11b1480610fbd5750610fbd826140ac565b60006001600160e01b03198216635a05180f60e01b1480610fbd5750610fbd826147bb565b600054610100900460ff1661472d5760405162461bcd60e51b815260040161151590615043565b6147356142dc565b611d716147e0565b600054610100900460ff166147645760405162461bcd60e51b815260040161151590615043565b60fd805460ff19169055565b600082815260996020526040808220600101805490849055905190918391839186917fbd79b86ffe0ab8e8776151514217cd7cacd52c909f66475c3af44e129f0b00ff9190a4505050565b60006001600160e01b03198216637965db0b60e01b1480610fbd5750610fbd826146bc565b600054610100900460ff16612f3f5760405162461bcd60e51b815260040161151590615043565b82805461481390615147565b90600052602060002090601f016020900481019282614835576000855561487b565b82601f1061484e5782800160ff1982351617855561487b565b8280016001018555821561487b579182015b8281111561487b578235825591602001919060010190614860565b506148879291506148ff565b5090565b82805461489790615147565b90600052602060002090601f0160209004810192826148b9576000855561487b565b82601f106148d257805160ff191683800117855561487b565b8280016001018555821561487b579182015b8281111561487b5782518255916020019190600101906148e4565b5b808211156148875760008155600101614900565b60006001600160401b038084111561492e5761492e61521f565b604051601f8501601f19908116603f011681019082821181831017156149565761495661521f565b8160405280935085815286868601111561496f57600080fd5b858560208301376000602087830101525050509392505050565b80356001600160a01b0381168114612b6457600080fd5b60008083601f8401126149b257600080fd5b5081356001600160401b038111156149c957600080fd5b6020830191508360208260051b85010111156117f257600080fd5b600082601f8301126149f557600080fd5b6120f983833560208501614914565b600060208284031215614a1657600080fd5b6120f982614989565b60008060408385031215614a3257600080fd5b614a3b83614989565b9150614a4960208401614989565b90509250929050565b600080600060608486031215614a6757600080fd5b614a7084614989565b9250614a7e60208501614989565b9150604084013590509250925092565b60008060008060808587031215614aa457600080fd5b614aad85614989565b9350614abb60208601614989565b92506040850135915060608501356001600160401b03811115614add57600080fd5b8501601f81018713614aee57600080fd5b614afd87823560208401614914565b91505092959194509250565b60008060408385031215614b1c57600080fd5b614b2583614989565b91506020830135614b3581615235565b809150509250929050565b60008060408385031215614b5357600080fd5b614b5c83614989565b946020939093013593505050565b60008060408385031215614b7d57600080fd5b614b8683614989565b915060208301356001600160601b0381168114614b3557600080fd5b60008060008060408587031215614bb857600080fd5b84356001600160401b0380821115614bcf57600080fd5b614bdb888389016149a0565b90965094506020870135915080821115614bf457600080fd5b50614c01878288016149a0565b95989497509550505050565b600060208284031215614c1f57600080fd5b81516120f981615235565b60008060408385031215614c3d57600080fd5b8251614c4881615235565b6020939093015192949293505050565b600060208284031215614c6a57600080fd5b5035919050565b60008060408385031215614c8457600080fd5b82359150614a4960208401614989565b60008060408385031215614ca757600080fd5b50508035926020909101359150565b600060208284031215614cc857600080fd5b81356120f981615243565b600060208284031215614ce557600080fd5b81516120f981615243565b60008060208385031215614d0357600080fd5b82356001600160401b0380821115614d1a57600080fd5b818501915085601f830112614d2e57600080fd5b813581811115614d3d57600080fd5b866020828501011115614d4f57600080fd5b60209290920196919550909350505050565b600080600080600080600080610100898b031215614d7e57600080fd5b88356001600160401b0380821115614d9557600080fd5b614da18c838d016149e4565b995060208b0135915080821115614db757600080fd5b50614dc48b828c016149e4565b975050614dd360408a01614989565b9550614de160608a01614989565b979a969950949760808101359660a0820135965060c0820135955060e0909101359350915050565b600060208284031215614e1b57600080fd5b5051919050565b60008060008060008060c08789031215614e3b57600080fd5b505084359660208601359650604086013595606081013595506080810135945060a0013592509050565b60008151808452614e7d81602086016020860161511b565b601f01601f19169290920160200192915050565b60068110614eaf57634e487b7160e01b600052602160045260246000fd5b9052565b6000808454614ec181615147565b60018281168015614ed95760018114614eea57614f19565b60ff19841687528287019450614f19565b8860005260208060002060005b85811015614f105781548a820152908401908201614ef7565b50505082870194505b505050508351614f2d81836020880161511b565b01949350505050565b6001600160a01b0385811682528416602082015260408101839052608060608201819052600090614f6990830184614e65565b9695505050505050565b60208101610fbd8284614e91565b6020815260006120f96020830184614e65565b6000602080835260008454614fa881615147565b80848701526040600180841660008114614fc95760018114614fdd5761500b565b60ff1985168984015260608901955061500b565b896000528660002060005b858110156150035781548b8201860152908301908801614fe8565b8a0184019650505b509398975050505050505050565b60208082526010908201526f14185d5cd8589b194e881c185d5cd95960821b604082015260600190565b6020808252602b908201527f496e697469616c697a61626c653a20636f6e7472616374206973206e6f74206960408201526a6e697469616c697a696e6760a81b606082015260800190565b8481526020810184905260408101839052608081016150b06060830184614e91565b95945050505050565b600082198211156150cc576150cc6151b1565b500190565b6000826150e0576150e06151c7565b500490565b60008160001904831182151516156150ff576150ff6151b1565b500290565b600082821015615116576151166151b1565b500390565b60005b8381101561513657818101518382015260200161511e565b8381111561187d5750506000910152565b600181811c9082168061515b57607f821691505b6020821081141561517c57634e487b7160e01b600052602260045260246000fd5b50919050565b6000600019821415615196576151966151b1565b5060010190565b6000826151ac576151ac6151c7565b500690565b634e487b7160e01b600052601160045260246000fd5b634e487b7160e01b600052601260045260246000fd5b634e487b7160e01b600052602160045260246000fd5b634e487b7160e01b600052603160045260246000fd5b634e487b7160e01b600052603260045260246000fd5b634e487b7160e01b600052604160045260246000fd5b8015158114611b2757600080fd5b6001600160e01b031981168114611b2757600080fdfe770fadb28e0e3026382976ee8b810cb0eb8666922148dd9e10b20cfb9b477ba8a2646970667358221220471e20034e2a7d336d34488f56f20903e69e55acee6830a2a1472cfa800c8de964736f6c63430008060033",
  "devdoc": {
    "author": "Trader Joe",
    "events": {
      "Initialized(uint256,uint256,uint256,uint256,uint256,uint256)": {
        "details": "Emitted on initializePhases()",
        "params": {
          "allowlistPrice": "Price of the allowlist sale in Avax",
          "allowlistStartTime": "Allowlist mint start time in seconds",
          "preMintStartTime": "Pre-mint start time in seconds",
          "publicSaleEndTime": "Public sale end time in seconds",
          "publicSaleStartTime": "Public sale start time in seconds",
          "salePrice": "Price of the public sale in Avax"
        }
      }
    },
    "kind": "dev",
    "methods": {
      "allowlistMint(uint256)": {
        "params": {
          "_quantity": "Quantity of NFTs to mint"
        }
      },
      "approve(address,uint256)": {
        "details": "See {IERC721-approve}."
      },
      "balanceOf(address)": {
        "details": "See {IERC721-balanceOf}."
      },
      "batchMintPreMintedNFTs(uint256)": {
        "params": {
          "_maxQuantity": "Max quantity of NFTs to mint"
        }
      },
      "currentPhase()": {
        "returns": {
          "_0": "phase Current phase"
        }
      },
      "devMint(uint256)": {
        "details": "Can only mint up to `amountForDevs`",
        "params": {
          "_quantity": "Quantity of NFTs to mint"
        }
      },
      "getApproved(uint256)": {
        "details": "See {IERC721-getApproved}."
      },
      "getOwnershipData(uint256)": {
        "params": {
          "_tokenId": "Token ID"
        },
        "returns": {
          "_0": "TokenOwnership Ownership struct for a specific token ID"
        }
      },
      "getRoleAdmin(bytes32)": {
        "details": "Returns the admin role that controls `role`. See {grantRole} and {revokeRole}. To change a role's admin, use {_setRoleAdmin}."
      },
      "getRoleMember(bytes32,uint256)": {
        "details": "Returns one of the accounts that have `role`. `index` must be a value between 0 and {getRoleMemberCount}, non-inclusive. Role bearers are not sorted in any particular way, and their ordering may change at any point. WARNING: When using {getRoleMember} and {getRoleMemberCount}, make sure you perform all queries on the same block. See the following https://forum.openzeppelin.com/t/iterating-over-elements-on-enumerableset-in-openzeppelin-contracts/2296[forum post] for more information."
      },
      "getRoleMemberCount(bytes32)": {
        "details": "Returns the number of accounts that have `role`. Can be used together with {getRoleMember} to enumerate all bearers of a role."
      },
      "grantRole(bytes32,address)": {
        "details": "If `account` had not been already granted `role`, emits a {RoleGranted} event. Requirements: - the caller must be the `owner` or have ``role``'s admin role. - the role granted can't be `DEFAULT_ADMIN`",
        "params": {
          "account": "The address of the account",
          "role": "The role to grant"
        }
      },
      "hasBatchToReveal()": {
        "returns": {
          "_0": "bool Whether reveal can be triggered or not",
          "_1": "uint256 The number of the next batch that will be revealed"
        }
      },
      "hasRole(bytes32,address)": {
        "details": "Returns `true` if `account` has been granted `role`."
      },
      "initialize(string,string,address,address,uint256,uint256,uint256,uint256)": {
        "params": {
          "_amountForAllowlist": "Amount of NFTs available for the allowlist mint (e.g 1000)",
          "_amountForDevs": "Amount of NFTs reserved for `projectOwner` (e.g 200)",
          "_collectionSize": "The collection size (e.g 10000)",
          "_maxBatchSize": "Max amount of NFTs that can be minted at once",
          "_name": "ERC721 name",
          "_projectOwner": "The project owner",
          "_royaltyReceiver": "Royalty fee collector",
          "_symbol": "ERC721 symbol"
        }
      },
      "initializeJoeFee(uint256,address)": {
        "params": {
          "_joeFeeCollector": "The address to which the fees on the sale will be sent",
          "_joeFeePercent": "The fees collected by Joepegs on the sale benefits"
        }
      },
      "initializePhases(uint256,uint256,uint256,uint256,uint256,uint256)": {
        "details": "Can only be called once",
        "params": {
          "_allowlistPrice": "Price of the allowlist sale in Avax",
          "_allowlistStartTime": "Allowlist mint start time in seconds",
          "_preMintStartTime": "Pre-mint start time in seconds",
          "_publicSaleEndTime": "Public sale end time in seconds",
          "_publicSaleStartTime": "Public sale start time in seconds",
          "_salePrice": "Price of the public sale in Avax"
        }
      },
      "isApprovedForAll(address,address)": {
        "details": "See {IERC721-isApprovedForAll}."
      },
      "name()": {
        "details": "See {IERC721Metadata-name}."
      },
      "numberMinted(address)": {
        "params": {
          "_owner": "The owner of the NFTs"
        },
        "returns": {
          "_0": "numberMinted Number of NFTs minted"
        }
      },
      "owner()": {
        "returns": {
          "_0": "The address of the current owner"
        }
      },
      "ownerOf(uint256)": {
        "details": "See {IERC721-ownerOf}."
      },
      "pause()": {
        "details": "Sensible part of a contract might be pausable for security reasons. Requirements: - the caller must be the `owner` or have the ``role`` role. - the contrat needs to be unpaused."
      },
      "paused()": {
        "details": "Returns true if the contract is paused, and false otherwise."
      },
      "pendingOwner()": {
        "returns": {
          "_0": "The address of the current pending owner"
        }
      },
      "preMint(uint256)": {
        "params": {
          "_quantity": "Quantity of NFTs to mint"
        }
      },
      "publicSaleMint(uint256)": {
        "params": {
          "_quantity": "Quantity of NFTs to mint"
        }
      },
      "renounceRole(bytes32,address)": {
        "details": "Roles are often managed via {grantRole} and {revokeRole}: this function's purpose is to provide a mechanism for accounts to lose their privileges if they are compromised (such as when a trusted device is misplaced). If the calling account had been revoked `role`, emits a {RoleRevoked} event. Requirements: - the caller must be `account`. - the role renounced can't be `DEFAULT_ADMIN`",
        "params": {
          "account": "The address of the account",
          "role": "The role to renounce"
        }
      },
      "revokeRole(bytes32,address)": {
        "details": "If `account` had been granted `role`, emits a {RoleRevoked} event. Requirements: - the caller must be the `owner` or have ``role``'s admin role. - the role revoked can't be `DEFAULT_ADMIN`",
        "params": {
          "account": "The address of the account",
          "role": "The role to revoke"
        }
      },
      "royaltyInfo(uint256,uint256)": {
        "details": "Returns how much royalty is owed and to whom, based on a sale price that may be denominated in any unit of exchange. The royalty amount is denominated and should be payed in that same unit of exchange."
      },
      "safeTransferFrom(address,address,uint256)": {
        "details": "See {IERC721-safeTransferFrom}."
      },
      "safeTransferFrom(address,address,uint256,bytes)": {
        "details": "See {IERC721-safeTransferFrom}."
      },
      "seedAllowlist(address[],uint256[])": {
        "params": {
          "_addresses": "List of addresses allowed to mint during the allowlist phase",
          "_numNfts": "List of NFT quantities mintable per address"
        }
      },
      "setAllowlistStartTime(uint256)": {
        "details": "Only callable by owner",
        "params": {
          "_allowlistStartTime": "New allowlist start time"
        }
      },
      "setApprovalForAll(address,bool)": {
        "details": "See {IERC721-setApprovalForAll}."
      },
      "setBaseURI(string)": {
        "details": "This sets the URI for revealed tokens Only callable by project owner",
        "params": {
          "_baseURI": "Base URI to be set"
        }
      },
      "setBatchReveal(address)": {
        "details": "Can be set to zero address to disable batch reveal"
      },
      "setPreMintStartTime(uint256)": {
        "details": "Only callable by owner",
        "params": {
          "_preMintStartTime": "New pre-mint start time"
        }
      },
      "setPublicSaleEndTime(uint256)": {
        "details": "Only callable by owner",
        "params": {
          "_publicSaleEndTime": "New public sale end time"
        }
      },
      "setPublicSaleStartTime(uint256)": {
        "details": "Only callable by owner",
        "params": {
          "_publicSaleStartTime": "New public sale start time"
        }
      },
      "setRoyaltyInfo(address,uint96)": {
        "params": {
          "_feePercent": "Royalty fee percent in basis point",
          "_receiver": "Royalty fee collector"
        }
      },
      "setUnrevealedURI(string)": {
        "details": "Only callable by project owner",
        "params": {
          "_unrevealedURI": "Unrevealed URI to be set"
        }
      },
      "setWithdrawAVAXStartTime(uint256)": {
        "params": {
          "_withdrawAVAXStartTime": "New public sale end time"
        }
      },
      "supportsInterface(bytes4)": {
        "details": "Returns true if this contract implements the interface defined by `interfaceId`. See the corresponding https://eips.ethereum.org/EIPS/eip-165#how-interfaces-are-identified[EIP section] to learn more about how these IDs are created. This function call must use less than 30 000 gas.",
        "params": {
          "_interfaceId": "InterfaceId to consider. Comes from type(Interface).interfaceId"
        },
        "returns": {
          "_0": "isInterfaceSupported True if the considered interface is supported"
        }
      },
      "symbol()": {
        "details": "See {IERC721Metadata-symbol}."
      },
      "tokenURI(uint256)": {
        "params": {
          "_id": "Token id"
        },
        "returns": {
          "_0": "URI Token URI"
        }
      },
      "totalSupply()": {
        "details": "Burned tokens are calculated here, use _totalMinted() if you want to count just minted tokens."
      },
      "transferFrom(address,address,uint256)": {
        "details": "See {IERC721-transferFrom}."
      },
      "unpause()": {
        "details": "Sensible part of a contract might be pausable for security reasons. Requirements: - the caller must be the `owner` or have the ``role`` role. - the contrat needs to be unpaused."
      },
      "withdrawAVAX(address)": {
        "params": {
          "_to": "Recipient of the earned AVAX"
        }
      }
    },
    "stateVariables": {
      "allowlistPrice": {
        "details": "allowlistPrice is scaled to 1e18"
      },
      "salePrice": {
        "details": "salePrice is scaled to 1e18"
      }
    },
    "title": "FlatLaunchpeg",
    "version": 1
  },
  "userdoc": {
    "kind": "user",
    "methods": {
      "BASIS_POINT_PRECISION()": {
        "notice": "Percentage base point"
      },
      "PROJECT_OWNER_ROLE()": {
        "notice": "Role granted to project owners"
      },
      "allowlist(address)": {
        "notice": "The amount of NFTs each allowed address can mint during the pre-mint or allowlist mint"
      },
      "allowlistMint(uint256)": {
        "notice": "Mint NFTs during the allowlist mint"
      },
      "allowlistPrice()": {
        "notice": "Price of one NFT for people on the mint list"
      },
      "allowlistStartTime()": {
        "notice": "Start time of the allowlist mint in seconds"
      },
      "amountBatchMinted()": {
        "notice": "Tracks the amount of NFTs batch minted"
      },
      "amountForAllowlist()": {
        "notice": "Amount of NFTs available for the allowlist mint (e.g 1000)"
      },
      "amountForDevs()": {
        "notice": "Amount of NFTs reserved for the project owner (e.g 200)"
      },
      "amountMintedByDevs()": {
        "notice": "Tracks the amount of NFTs minted by `projectOwner`"
      },
      "amountMintedDuringAllowlist()": {
        "notice": "Tracks the amount of NFTs minted on Allowlist phase"
      },
      "amountMintedDuringPreMint()": {
        "notice": "Tracks the amount of NFTs minted in the Pre-Mint phase"
      },
      "amountMintedDuringPublicSale()": {
        "notice": "Tracks the amount of NFTs minted on Public Sale phase"
      },
      "baseURI()": {
        "notice": "Token URI after collection reveal"
      },
      "batchMintPreMintedNFTs(uint256)": {
        "notice": "Batch mint NFTs requested during the pre-mint"
      },
      "becomeOwner()": {
        "notice": "Transfers the ownership to the new owner (`pendingOwner`). Can only be called by the pending owner"
      },
      "collectionSize()": {
        "notice": "The collection size (e.g 10000)"
      },
      "currentPhase()": {
        "notice": "Returns the current phase"
      },
      "devMint(uint256)": {
        "notice": "Mint NFTs to the project owner"
      },
      "getOwnershipData(uint256)": {
        "notice": "Returns the ownership data of a specific token ID"
      },
      "grantRole(bytes32,address)": {
        "notice": "Grants `role` to `account`."
      },
      "hasBatchToReveal()": {
        "notice": "Tells you if a batch can be revealed"
      },
      "initialize(string,string,address,address,uint256,uint256,uint256,uint256)": {
        "notice": "FlatLaunchpeg initialization Can only be called once"
      },
      "initializeJoeFee(uint256,address)": {
        "notice": "Initialize the sales fee percent taken by Joepegs and address that collects the fees"
      },
      "initializePhases(uint256,uint256,uint256,uint256,uint256,uint256)": {
        "notice": "Initialize the two phases of the sale"
      },
      "joeFeeCollector()": {
        "notice": "The address to which the fees on the sale will be sent"
      },
      "joeFeePercent()": {
        "notice": "The fees collected by Joepegs on the sale benefits"
      },
      "maxBatchSize()": {
        "notice": "Max amount of NFTs that can be minted at once"
      },
      "maxPerAddressDuringMint()": {
        "notice": "Max amount of NFTs an address can mint"
      },
      "numberMinted(address)": {
        "notice": "Returns the number of NFTs minted by a specific address"
      },
      "owner()": {
        "notice": "Returns the address of the current owner"
      },
      "pause()": {
        "notice": "Pauses the contract."
      },
      "pendingOwner()": {
        "notice": "Returns the address of the current pending owner"
      },
      "preMint(uint256)": {
        "notice": "Mint NFTs during the pre-mint"
      },
      "preMintStartTime()": {
        "notice": "Start time of the pre-mint in seconds"
      },
      "publicSaleEndTime()": {
        "notice": "End time of the public sale in seconds"
      },
      "publicSaleMint(uint256)": {
        "notice": "Mint NFTs during the public sale"
      },
      "publicSaleStartTime()": {
        "notice": "Start time of the public sale in seconds"
      },
      "renounceOwnership()": {
        "notice": "Leaves the contract without owner. It will not be possible to call `onlyOwner` functions anymore. Can only be called by the current owner. NOTE: Renouncing ownership will leave the contract without an owner, thereby removing any functionality that is only available to the owner."
      },
      "renounceRole(bytes32,address)": {
        "notice": "Revokes `role` from the calling account."
      },
      "revealNextBatch()": {
        "notice": "Reveals the next batch if the reveal conditions are met"
      },
      "revokePendingOwner()": {
        "notice": "Revoke the pending owner address. This address will not be able to call {becomeOwner} to become the owner anymore. Can only be called by the owner"
      },
      "revokeRole(bytes32,address)": {
        "notice": "Revokes `role` from `account`."
      },
      "salePrice()": {
        "notice": "Price of one NFT during the public sale"
      },
      "seedAllowlist(address[],uint256[])": {
        "notice": "Set amount of NFTs mintable per address during the allowlist phase"
      },
      "setAllowlistStartTime(uint256)": {
        "notice": "Set the allowlist start time. Can only be set after phases have been initialized."
      },
      "setBaseURI(string)": {
        "notice": "Set the base URI"
      },
      "setBatchReveal(address)": {
        "notice": "Update batch reveal"
      },
      "setPendingOwner(address)": {
        "notice": "Sets the pending owner address. This address will be able to become the owner of this contract by calling {becomeOwner}"
      },
      "setPreMintStartTime(uint256)": {
        "notice": "Set the pre-mint start time. Can only be set after phases have been initialized."
      },
      "setPublicSaleEndTime(uint256)": {
        "notice": "Set the public sale end time. Can only be set after phases have been initialized."
      },
      "setPublicSaleStartTime(uint256)": {
        "notice": "Set the public sale start time. Can only be set after phases have been initialized."
      },
      "setRoyaltyInfo(address,uint96)": {
        "notice": "Set the royalty fee"
      },
      "setUnrevealedURI(string)": {
        "notice": "Set the unrevealed URI"
      },
      "setWithdrawAVAXStartTime(uint256)": {
        "notice": "Set the withdraw AVAX start time."
      },
      "tokenURI(uint256)": {
        "notice": "Returns the Uniform Resource Identifier (URI) for `tokenId` token."
      },
      "unpause()": {
        "notice": "Unpauses the contract."
      },
      "unrevealedURI()": {
        "notice": "Token URI before the collection reveal"
      },
      "withdrawAVAX(address)": {
        "notice": "Withdraw AVAX to the given recipient"
      },
      "withdrawAVAXStartTime()": {
        "notice": "Start time when funds can be withdrawn"
      }
    },
    "notice": "Implements a simple minting NFT contract with an allowlist and public sale phase.",
    "version": 1
  },
  "storageLayout": {
    "storage": [
      {
        "astId": 810,
        "contract": "contracts/FlatLaunchpeg.sol:FlatLaunchpeg",
        "label": "_initialized",
        "offset": 0,
        "slot": "0",
        "type": "t_bool"
      },
      {
        "astId": 813,
        "contract": "contracts/FlatLaunchpeg.sol:FlatLaunchpeg",
        "label": "_initializing",
        "offset": 1,
        "slot": "0",
        "type": "t_bool"
      },
      {
        "astId": 1710,
        "contract": "contracts/FlatLaunchpeg.sol:FlatLaunchpeg",
        "label": "__gap",
        "offset": 0,
        "slot": "1",
        "type": "t_array(t_uint256)50_storage"
      },
      {
        "astId": 1957,
        "contract": "contracts/FlatLaunchpeg.sol:FlatLaunchpeg",
        "label": "__gap",
        "offset": 0,
        "slot": "51",
        "type": "t_array(t_uint256)50_storage"
      },
      {
        "astId": 11862,
        "contract": "contracts/FlatLaunchpeg.sol:FlatLaunchpeg",
        "label": "_currentIndex",
        "offset": 0,
        "slot": "101",
        "type": "t_uint256"
      },
      {
        "astId": 11864,
        "contract": "contracts/FlatLaunchpeg.sol:FlatLaunchpeg",
        "label": "_burnCounter",
        "offset": 0,
        "slot": "102",
        "type": "t_uint256"
      },
      {
        "astId": 11866,
        "contract": "contracts/FlatLaunchpeg.sol:FlatLaunchpeg",
        "label": "_name",
        "offset": 0,
        "slot": "103",
        "type": "t_string_storage"
      },
      {
        "astId": 11868,
        "contract": "contracts/FlatLaunchpeg.sol:FlatLaunchpeg",
        "label": "_symbol",
        "offset": 0,
        "slot": "104",
        "type": "t_string_storage"
      },
      {
        "astId": 11873,
        "contract": "contracts/FlatLaunchpeg.sol:FlatLaunchpeg",
        "label": "_ownerships",
        "offset": 0,
        "slot": "105",
        "type": "t_mapping(t_uint256,t_struct(TokenOwnership)11851_storage)"
      },
      {
        "astId": 11878,
        "contract": "contracts/FlatLaunchpeg.sol:FlatLaunchpeg",
        "label": "_addressData",
        "offset": 0,
        "slot": "106",
        "type": "t_mapping(t_address,t_struct(AddressData)11860_storage)"
      },
      {
        "astId": 11882,
        "contract": "contracts/FlatLaunchpeg.sol:FlatLaunchpeg",
        "label": "_tokenApprovals",
        "offset": 0,
        "slot": "107",
        "type": "t_mapping(t_uint256,t_address)"
      },
      {
        "astId": 11888,
        "contract": "contracts/FlatLaunchpeg.sol:FlatLaunchpeg",
        "label": "_operatorApprovals",
        "offset": 0,
        "slot": "108",
        "type": "t_mapping(t_address,t_mapping(t_address,t_bool))"
      },
      {
        "astId": 13136,
        "contract": "contracts/FlatLaunchpeg.sol:FlatLaunchpeg",
        "label": "__gap",
        "offset": 0,
        "slot": "109",
        "type": "t_array(t_uint256)42_storage"
      },
      {
        "astId": 11240,
        "contract": "contracts/FlatLaunchpeg.sol:FlatLaunchpeg",
        "label": "_owner",
        "offset": 0,
        "slot": "151",
        "type": "t_address"
      },
      {
        "astId": 11242,
        "contract": "contracts/FlatLaunchpeg.sol:FlatLaunchpeg",
        "label": "_pendingOwner",
        "offset": 0,
        "slot": "152",
        "type": "t_address"
      },
      {
        "astId": 273,
        "contract": "contracts/FlatLaunchpeg.sol:FlatLaunchpeg",
        "label": "_roles",
        "offset": 0,
        "slot": "153",
        "type": "t_mapping(t_bytes32,t_struct(RoleData)268_storage)"
      },
      {
        "astId": 561,
        "contract": "contracts/FlatLaunchpeg.sol:FlatLaunchpeg",
        "label": "__gap",
        "offset": 0,
        "slot": "154",
        "type": "t_array(t_uint256)49_storage"
      },
      {
        "astId": 122,
        "contract": "contracts/FlatLaunchpeg.sol:FlatLaunchpeg",
        "label": "_roleMembers",
        "offset": 0,
        "slot": "203",
        "type": "t_mapping(t_bytes32,t_struct(AddressSet)2282_storage)"
      },
      {
        "astId": 232,
        "contract": "contracts/FlatLaunchpeg.sol:FlatLaunchpeg",
        "label": "__gap",
        "offset": 0,
        "slot": "204",
        "type": "t_array(t_uint256)49_storage"
      },
      {
        "astId": 898,
        "contract": "contracts/FlatLaunchpeg.sol:FlatLaunchpeg",
        "label": "_paused",
        "offset": 0,
        "slot": "253",
        "type": "t_bool"
      },
      {
        "astId": 987,
        "contract": "contracts/FlatLaunchpeg.sol:FlatLaunchpeg",
        "label": "__gap",
        "offset": 0,
        "slot": "254",
        "type": "t_array(t_uint256)49_storage"
      },
      {
        "astId": 1002,
        "contract": "contracts/FlatLaunchpeg.sol:FlatLaunchpeg",
        "label": "_status",
        "offset": 0,
        "slot": "303",
        "type": "t_uint256"
      },
      {
        "astId": 1046,
        "contract": "contracts/FlatLaunchpeg.sol:FlatLaunchpeg",
        "label": "__gap",
        "offset": 0,
        "slot": "304",
        "type": "t_array(t_uint256)49_storage"
      },
      {
        "astId": 1240,
        "contract": "contracts/FlatLaunchpeg.sol:FlatLaunchpeg",
        "label": "_defaultRoyaltyInfo",
        "offset": 0,
        "slot": "353",
        "type": "t_struct(RoyaltyInfo)1237_storage"
      },
      {
        "astId": 1245,
        "contract": "contracts/FlatLaunchpeg.sol:FlatLaunchpeg",
        "label": "_tokenRoyaltyInfo",
        "offset": 0,
        "slot": "354",
        "type": "t_mapping(t_uint256,t_struct(RoyaltyInfo)1237_storage)"
      },
      {
        "astId": 1425,
        "contract": "contracts/FlatLaunchpeg.sol:FlatLaunchpeg",
        "label": "__gap",
        "offset": 0,
        "slot": "355",
        "type": "t_array(t_uint256)48_storage"
      },
      {
        "astId": 3275,
        "contract": "contracts/FlatLaunchpeg.sol:FlatLaunchpeg",
        "label": "batchReveal",
        "offset": 0,
        "slot": "403",
        "type": "t_contract(IBatchReveal)10759"
      },
      {
        "astId": 3286,
        "contract": "contracts/FlatLaunchpeg.sol:FlatLaunchpeg",
        "label": "collectionSize",
        "offset": 0,
        "slot": "404",
        "type": "t_uint256"
      },
      {
        "astId": 3290,
        "contract": "contracts/FlatLaunchpeg.sol:FlatLaunchpeg",
        "label": "amountForDevs",
        "offset": 0,
        "slot": "405",
        "type": "t_uint256"
      },
      {
        "astId": 3294,
        "contract": "contracts/FlatLaunchpeg.sol:FlatLaunchpeg",
        "label": "amountForAllowlist",
        "offset": 0,
        "slot": "406",
        "type": "t_uint256"
      },
      {
        "astId": 3298,
        "contract": "contracts/FlatLaunchpeg.sol:FlatLaunchpeg",
        "label": "maxBatchSize",
        "offset": 0,
        "slot": "407",
        "type": "t_uint256"
      },
      {
        "astId": 3302,
        "contract": "contracts/FlatLaunchpeg.sol:FlatLaunchpeg",
        "label": "maxPerAddressDuringMint",
        "offset": 0,
        "slot": "408",
        "type": "t_uint256"
      },
      {
        "astId": 3306,
        "contract": "contracts/FlatLaunchpeg.sol:FlatLaunchpeg",
        "label": "joeFeePercent",
        "offset": 0,
        "slot": "409",
        "type": "t_uint256"
      },
      {
        "astId": 3310,
        "contract": "contracts/FlatLaunchpeg.sol:FlatLaunchpeg",
        "label": "joeFeeCollector",
        "offset": 0,
        "slot": "410",
        "type": "t_address"
      },
      {
        "astId": 3318,
        "contract": "contracts/FlatLaunchpeg.sol:FlatLaunchpeg",
        "label": "baseURI",
        "offset": 0,
        "slot": "411",
        "type": "t_string_storage"
      },
      {
        "astId": 3322,
        "contract": "contracts/FlatLaunchpeg.sol:FlatLaunchpeg",
        "label": "unrevealedURI",
        "offset": 0,
        "slot": "412",
        "type": "t_string_storage"
      },
      {
        "astId": 3328,
        "contract": "contracts/FlatLaunchpeg.sol:FlatLaunchpeg",
        "label": "allowlist",
        "offset": 0,
        "slot": "413",
        "type": "t_mapping(t_address,t_uint256)"
      },
      {
        "astId": 3333,
        "contract": "contracts/FlatLaunchpeg.sol:FlatLaunchpeg",
        "label": "userAddressToPreMintAmount",
        "offset": 0,
        "slot": "414",
        "type": "t_mapping(t_address,t_uint256)"
      },
      {
        "astId": 3337,
        "contract": "contracts/FlatLaunchpeg.sol:FlatLaunchpeg",
        "label": "amountMintedByDevs",
        "offset": 0,
        "slot": "415",
        "type": "t_uint256"
      },
      {
        "astId": 3341,
        "contract": "contracts/FlatLaunchpeg.sol:FlatLaunchpeg",
        "label": "amountMintedDuringPreMint",
        "offset": 0,
        "slot": "416",
        "type": "t_uint256"
      },
      {
        "astId": 3345,
        "contract": "contracts/FlatLaunchpeg.sol:FlatLaunchpeg",
        "label": "amountBatchMinted",
        "offset": 0,
        "slot": "417",
        "type": "t_uint256"
      },
      {
        "astId": 3349,
        "contract": "contracts/FlatLaunchpeg.sol:FlatLaunchpeg",
        "label": "amountMintedDuringAllowlist",
        "offset": 0,
        "slot": "418",
        "type": "t_uint256"
      },
      {
        "astId": 3353,
        "contract": "contracts/FlatLaunchpeg.sol:FlatLaunchpeg",
        "label": "amountMintedDuringPublicSale",
        "offset": 0,
        "slot": "419",
        "type": "t_uint256"
      },
      {
        "astId": 3357,
        "contract": "contracts/FlatLaunchpeg.sol:FlatLaunchpeg",
        "label": "preMintStartTime",
        "offset": 0,
        "slot": "420",
        "type": "t_uint256"
      },
      {
        "astId": 3361,
        "contract": "contracts/FlatLaunchpeg.sol:FlatLaunchpeg",
        "label": "allowlistStartTime",
        "offset": 0,
        "slot": "421",
        "type": "t_uint256"
      },
      {
        "astId": 3365,
        "contract": "contracts/FlatLaunchpeg.sol:FlatLaunchpeg",
        "label": "publicSaleStartTime",
        "offset": 0,
        "slot": "422",
        "type": "t_uint256"
      },
      {
        "astId": 3369,
        "contract": "contracts/FlatLaunchpeg.sol:FlatLaunchpeg",
        "label": "publicSaleEndTime",
        "offset": 0,
        "slot": "423",
        "type": "t_uint256"
      },
      {
        "astId": 3373,
        "contract": "contracts/FlatLaunchpeg.sol:FlatLaunchpeg",
        "label": "withdrawAVAXStartTime",
        "offset": 0,
        "slot": "424",
        "type": "t_uint256"
      },
      {
        "astId": 3378,
        "contract": "contracts/FlatLaunchpeg.sol:FlatLaunchpeg",
        "label": "preMintQueue",
        "offset": 0,
        "slot": "425",
        "type": "t_array(t_struct(PreMintData)3386_storage)dyn_storage"
      },
      {
        "astId": 3381,
        "contract": "contracts/FlatLaunchpeg.sol:FlatLaunchpeg",
        "label": "preMintQueueIdx",
        "offset": 0,
        "slot": "426",
        "type": "t_uint256"
      },
      {
        "astId": 6173,
        "contract": "contracts/FlatLaunchpeg.sol:FlatLaunchpeg",
        "label": "allowlistPrice",
        "offset": 0,
        "slot": "427",
        "type": "t_uint256"
      },
      {
        "astId": 6177,
        "contract": "contracts/FlatLaunchpeg.sol:FlatLaunchpeg",
        "label": "salePrice",
        "offset": 0,
        "slot": "428",
        "type": "t_uint256"
      }
    ],
    "types": {
      "t_address": {
        "encoding": "inplace",
        "label": "address",
        "numberOfBytes": "20"
      },
      "t_array(t_bytes32)dyn_storage": {
        "base": "t_bytes32",
        "encoding": "dynamic_array",
        "label": "bytes32[]",
        "numberOfBytes": "32"
      },
      "t_array(t_struct(PreMintData)3386_storage)dyn_storage": {
        "base": "t_struct(PreMintData)3386_storage",
        "encoding": "dynamic_array",
        "label": "struct BaseLaunchpeg.PreMintData[]",
        "numberOfBytes": "32"
      },
      "t_array(t_uint256)42_storage": {
        "base": "t_uint256",
        "encoding": "inplace",
        "label": "uint256[42]",
        "numberOfBytes": "1344"
      },
      "t_array(t_uint256)48_storage": {
        "base": "t_uint256",
        "encoding": "inplace",
        "label": "uint256[48]",
        "numberOfBytes": "1536"
      },
      "t_array(t_uint256)49_storage": {
        "base": "t_uint256",
        "encoding": "inplace",
        "label": "uint256[49]",
        "numberOfBytes": "1568"
      },
      "t_array(t_uint256)50_storage": {
        "base": "t_uint256",
        "encoding": "inplace",
        "label": "uint256[50]",
        "numberOfBytes": "1600"
      },
      "t_bool": {
        "encoding": "inplace",
        "label": "bool",
        "numberOfBytes": "1"
      },
      "t_bytes32": {
        "encoding": "inplace",
        "label": "bytes32",
        "numberOfBytes": "32"
      },
      "t_contract(IBatchReveal)10759": {
        "encoding": "inplace",
        "label": "contract IBatchReveal",
        "numberOfBytes": "20"
      },
      "t_mapping(t_address,t_bool)": {
        "encoding": "mapping",
        "key": "t_address",
        "label": "mapping(address => bool)",
        "numberOfBytes": "32",
        "value": "t_bool"
      },
      "t_mapping(t_address,t_mapping(t_address,t_bool))": {
        "encoding": "mapping",
        "key": "t_address",
        "label": "mapping(address => mapping(address => bool))",
        "numberOfBytes": "32",
        "value": "t_mapping(t_address,t_bool)"
      },
      "t_mapping(t_address,t_struct(AddressData)11860_storage)": {
        "encoding": "mapping",
        "key": "t_address",
        "label": "mapping(address => struct ERC721AUpgradeable.AddressData)",
        "numberOfBytes": "32",
        "value": "t_struct(AddressData)11860_storage"
      },
      "t_mapping(t_address,t_uint256)": {
        "encoding": "mapping",
        "key": "t_address",
        "label": "mapping(address => uint256)",
        "numberOfBytes": "32",
        "value": "t_uint256"
      },
      "t_mapping(t_bytes32,t_struct(AddressSet)2282_storage)": {
        "encoding": "mapping",
        "key": "t_bytes32",
        "label": "mapping(bytes32 => struct EnumerableSetUpgradeable.AddressSet)",
        "numberOfBytes": "32",
        "value": "t_struct(AddressSet)2282_storage"
      },
      "t_mapping(t_bytes32,t_struct(RoleData)268_storage)": {
        "encoding": "mapping",
        "key": "t_bytes32",
        "label": "mapping(bytes32 => struct AccessControlUpgradeable.RoleData)",
        "numberOfBytes": "32",
        "value": "t_struct(RoleData)268_storage"
      },
      "t_mapping(t_bytes32,t_uint256)": {
        "encoding": "mapping",
        "key": "t_bytes32",
        "label": "mapping(bytes32 => uint256)",
        "numberOfBytes": "32",
        "value": "t_uint256"
      },
      "t_mapping(t_uint256,t_address)": {
        "encoding": "mapping",
        "key": "t_uint256",
        "label": "mapping(uint256 => address)",
        "numberOfBytes": "32",
        "value": "t_address"
      },
      "t_mapping(t_uint256,t_struct(RoyaltyInfo)1237_storage)": {
        "encoding": "mapping",
        "key": "t_uint256",
        "label": "mapping(uint256 => struct ERC2981Upgradeable.RoyaltyInfo)",
        "numberOfBytes": "32",
        "value": "t_struct(RoyaltyInfo)1237_storage"
      },
      "t_mapping(t_uint256,t_struct(TokenOwnership)11851_storage)": {
        "encoding": "mapping",
        "key": "t_uint256",
        "label": "mapping(uint256 => struct ERC721AUpgradeable.TokenOwnership)",
        "numberOfBytes": "32",
        "value": "t_struct(TokenOwnership)11851_storage"
      },
      "t_string_storage": {
        "encoding": "bytes",
        "label": "string",
        "numberOfBytes": "32"
      },
      "t_struct(AddressData)11860_storage": {
        "encoding": "inplace",
        "label": "struct ERC721AUpgradeable.AddressData",
        "members": [
          {
            "astId": 11853,
            "contract": "contracts/FlatLaunchpeg.sol:FlatLaunchpeg",
            "label": "balance",
            "offset": 0,
            "slot": "0",
            "type": "t_uint64"
          },
          {
            "astId": 11855,
            "contract": "contracts/FlatLaunchpeg.sol:FlatLaunchpeg",
            "label": "numberMinted",
            "offset": 8,
            "slot": "0",
            "type": "t_uint64"
          },
          {
            "astId": 11857,
            "contract": "contracts/FlatLaunchpeg.sol:FlatLaunchpeg",
            "label": "numberBurned",
            "offset": 16,
            "slot": "0",
            "type": "t_uint64"
          },
          {
            "astId": 11859,
            "contract": "contracts/FlatLaunchpeg.sol:FlatLaunchpeg",
            "label": "aux",
            "offset": 24,
            "slot": "0",
            "type": "t_uint64"
          }
        ],
        "numberOfBytes": "32"
      },
      "t_struct(AddressSet)2282_storage": {
        "encoding": "inplace",
        "label": "struct EnumerableSetUpgradeable.AddressSet",
        "members": [
          {
            "astId": 2281,
            "contract": "contracts/FlatLaunchpeg.sol:FlatLaunchpeg",
            "label": "_inner",
            "offset": 0,
            "slot": "0",
            "type": "t_struct(Set)1981_storage"
          }
        ],
        "numberOfBytes": "64"
      },
      "t_struct(PreMintData)3386_storage": {
        "encoding": "inplace",
        "label": "struct BaseLaunchpeg.PreMintData",
        "members": [
          {
            "astId": 3383,
            "contract": "contracts/FlatLaunchpeg.sol:FlatLaunchpeg",
            "label": "sender",
            "offset": 0,
            "slot": "0",
            "type": "t_address"
          },
          {
            "astId": 3385,
            "contract": "contracts/FlatLaunchpeg.sol:FlatLaunchpeg",
            "label": "quantity",
            "offset": 0,
            "slot": "1",
            "type": "t_uint256"
          }
        ],
        "numberOfBytes": "64"
      },
      "t_struct(RoleData)268_storage": {
        "encoding": "inplace",
        "label": "struct AccessControlUpgradeable.RoleData",
        "members": [
          {
            "astId": 265,
            "contract": "contracts/FlatLaunchpeg.sol:FlatLaunchpeg",
            "label": "members",
            "offset": 0,
            "slot": "0",
            "type": "t_mapping(t_address,t_bool)"
          },
          {
            "astId": 267,
            "contract": "contracts/FlatLaunchpeg.sol:FlatLaunchpeg",
            "label": "adminRole",
            "offset": 0,
            "slot": "1",
            "type": "t_bytes32"
          }
        ],
        "numberOfBytes": "64"
      },
      "t_struct(RoyaltyInfo)1237_storage": {
        "encoding": "inplace",
        "label": "struct ERC2981Upgradeable.RoyaltyInfo",
        "members": [
          {
            "astId": 1234,
            "contract": "contracts/FlatLaunchpeg.sol:FlatLaunchpeg",
            "label": "receiver",
            "offset": 0,
            "slot": "0",
            "type": "t_address"
          },
          {
            "astId": 1236,
            "contract": "contracts/FlatLaunchpeg.sol:FlatLaunchpeg",
            "label": "royaltyFraction",
            "offset": 20,
            "slot": "0",
            "type": "t_uint96"
          }
        ],
        "numberOfBytes": "32"
      },
      "t_struct(Set)1981_storage": {
        "encoding": "inplace",
        "label": "struct EnumerableSetUpgradeable.Set",
        "members": [
          {
            "astId": 1976,
            "contract": "contracts/FlatLaunchpeg.sol:FlatLaunchpeg",
            "label": "_values",
            "offset": 0,
            "slot": "0",
            "type": "t_array(t_bytes32)dyn_storage"
          },
          {
            "astId": 1980,
            "contract": "contracts/FlatLaunchpeg.sol:FlatLaunchpeg",
            "label": "_indexes",
            "offset": 0,
            "slot": "1",
            "type": "t_mapping(t_bytes32,t_uint256)"
          }
        ],
        "numberOfBytes": "64"
      },
      "t_struct(TokenOwnership)11851_storage": {
        "encoding": "inplace",
        "label": "struct ERC721AUpgradeable.TokenOwnership",
        "members": [
          {
            "astId": 11846,
            "contract": "contracts/FlatLaunchpeg.sol:FlatLaunchpeg",
            "label": "addr",
            "offset": 0,
            "slot": "0",
            "type": "t_address"
          },
          {
            "astId": 11848,
            "contract": "contracts/FlatLaunchpeg.sol:FlatLaunchpeg",
            "label": "startTimestamp",
            "offset": 20,
            "slot": "0",
            "type": "t_uint64"
          },
          {
            "astId": 11850,
            "contract": "contracts/FlatLaunchpeg.sol:FlatLaunchpeg",
            "label": "burned",
            "offset": 28,
            "slot": "0",
            "type": "t_bool"
          }
        ],
        "numberOfBytes": "32"
      },
      "t_uint256": {
        "encoding": "inplace",
        "label": "uint256",
        "numberOfBytes": "32"
      },
      "t_uint64": {
        "encoding": "inplace",
        "label": "uint64",
        "numberOfBytes": "8"
      },
      "t_uint96": {
        "encoding": "inplace",
        "label": "uint96",
        "numberOfBytes": "12"
      }
    }
  }
}