{
  "address": "0x47485bA0619bf7d1f64F94C08Afd566AB942E16d",
  "abi": [
    {
      "inputs": [],
      "name": "ApprovalCallerNotOwnerNorApproved",
      "type": "error"
    },
    {
      "inputs": [],
      "name": "ApprovalQueryForNonexistentToken",
      "type": "error"
    },
    {
      "inputs": [],
      "name": "ApprovalToCurrentOwner",
      "type": "error"
    },
    {
      "inputs": [],
      "name": "ApproveToCaller",
      "type": "error"
    },
    {
      "inputs": [],
      "name": "BalanceQueryForZeroAddress",
      "type": "error"
    },
    {
      "inputs": [],
      "name": "Launchpeg__AllowlistBeforePreMint",
      "type": "error"
    },
    {
      "inputs": [],
      "name": "Launchpeg__BatchRevealDisabled",
      "type": "error"
    },
    {
      "inputs": [],
      "name": "Launchpeg__CanNotMintThisMany",
      "type": "error"
    },
    {
      "inputs": [],
      "name": "Launchpeg__InvalidAllowlistPrice",
      "type": "error"
    },
    {
      "inputs": [],
      "name": "Launchpeg__InvalidJoeFeeCollector",
      "type": "error"
    },
    {
      "inputs": [],
      "name": "Launchpeg__InvalidMaxBatchSize",
      "type": "error"
    },
    {
      "inputs": [],
      "name": "Launchpeg__InvalidPercent",
      "type": "error"
    },
    {
      "inputs": [],
      "name": "Launchpeg__InvalidProjectOwner",
      "type": "error"
    },
    {
      "inputs": [],
      "name": "Launchpeg__InvalidQuantity",
      "type": "error"
    },
    {
      "inputs": [],
      "name": "Launchpeg__InvalidRoyaltyInfo",
      "type": "error"
    },
    {
      "inputs": [],
      "name": "Launchpeg__InvalidStartTime",
      "type": "error"
    },
    {
      "inputs": [],
      "name": "Launchpeg__JoeFeeAlreadyInitialized",
      "type": "error"
    },
    {
      "inputs": [],
      "name": "Launchpeg__LargerCollectionSizeNeeded",
      "type": "error"
    },
    {
      "inputs": [],
      "name": "Launchpeg__MaxSupplyForBatchMintReached",
      "type": "error"
    },
    {
      "inputs": [],
      "name": "Launchpeg__MaxSupplyForDevReached",
      "type": "error"
    },
    {
      "inputs": [],
      "name": "Launchpeg__MaxSupplyReached",
      "type": "error"
    },
    {
      "inputs": [],
      "name": "Launchpeg__NotEligibleForAllowlistMint",
      "type": "error"
    },
    {
      "inputs": [
        {
          "internalType": "uint256",
          "name": "avaxSent",
          "type": "uint256"
        }
      ],
      "name": "Launchpeg__NotEnoughAVAX",
      "type": "error"
    },
    {
      "inputs": [],
      "name": "Launchpeg__NotInitialized",
      "type": "error"
    },
    {
      "inputs": [],
      "name": "Launchpeg__PublicSaleBeforeAllowlist",
      "type": "error"
    },
    {
      "inputs": [],
      "name": "Launchpeg__PublicSaleEndBeforePublicSaleStart",
      "type": "error"
    },
    {
      "inputs": [],
      "name": "Launchpeg__RevealNextBatchNotAvailable",
      "type": "error"
    },
    {
      "inputs": [],
      "name": "Launchpeg__TransferFailed",
      "type": "error"
    },
    {
      "inputs": [],
      "name": "Launchpeg__Unauthorized",
      "type": "error"
    },
    {
      "inputs": [],
      "name": "Launchpeg__WithdrawAVAXNotAvailable",
      "type": "error"
    },
    {
      "inputs": [],
      "name": "Launchpeg__WrongAddressesAndNumSlotsLength",
      "type": "error"
    },
    {
      "inputs": [],
      "name": "Launchpeg__WrongPhase",
      "type": "error"
    },
    {
      "inputs": [],
      "name": "MintToZeroAddress",
      "type": "error"
    },
    {
      "inputs": [],
      "name": "MintZeroQuantity",
      "type": "error"
    },
    {
      "inputs": [],
      "name": "OwnerQueryForNonexistentToken",
      "type": "error"
    },
    {
      "inputs": [],
      "name": "PendingOwnableUpgradeable__AddressZero",
      "type": "error"
    },
    {
      "inputs": [],
      "name": "PendingOwnableUpgradeable__NoPendingOwner",
      "type": "error"
    },
    {
      "inputs": [],
      "name": "PendingOwnableUpgradeable__NotOwner",
      "type": "error"
    },
    {
      "inputs": [],
      "name": "PendingOwnableUpgradeable__NotPendingOwner",
      "type": "error"
    },
    {
      "inputs": [],
      "name": "PendingOwnableUpgradeable__PendingOwnerAlreadySet",
      "type": "error"
    },
    {
      "inputs": [],
      "name": "SafeAccessControlEnumerableUpgradeable__RoleIsDefaultAdmin",
      "type": "error"
    },
    {
      "inputs": [
        {
          "internalType": "bytes32",
          "name": "role",
          "type": "bytes32"
        },
        {
          "internalType": "address",
          "name": "sender",
          "type": "address"
        }
      ],
      "name": "SafeAccessControlEnumerableUpgradeable__SenderMissingRoleAndIsNotOwner",
      "type": "error"
    },
    {
      "inputs": [],
      "name": "SafePausableUpgradeable__AlreadyPaused",
      "type": "error"
    },
    {
      "inputs": [],
      "name": "SafePausableUpgradeable__AlreadyUnpaused",
      "type": "error"
    },
    {
      "inputs": [],
      "name": "TransferCallerNotOwnerNorApproved",
      "type": "error"
    },
    {
      "inputs": [],
      "name": "TransferFromIncorrectOwner",
      "type": "error"
    },
    {
      "inputs": [],
      "name": "TransferToNonERC721ReceiverImplementer",
      "type": "error"
    },
    {
      "inputs": [],
      "name": "TransferToZeroAddress",
      "type": "error"
    },
    {
      "anonymous": false,
      "inputs": [],
      "name": "AllowlistSeeded",
      "type": "event"
    },
    {
      "anonymous": false,
      "inputs": [
        {
          "indexed": false,
          "internalType": "uint256",
          "name": "allowlistStartTime",
          "type": "uint256"
        }
      ],
      "name": "AllowlistStartTimeSet",
      "type": "event"
    },
    {
      "anonymous": false,
      "inputs": [
        {
          "indexed": true,
          "internalType": "address",
          "name": "owner",
          "type": "address"
        },
        {
          "indexed": true,
          "internalType": "address",
          "name": "approved",
          "type": "address"
        },
        {
          "indexed": true,
          "internalType": "uint256",
          "name": "tokenId",
          "type": "uint256"
        }
      ],
      "name": "Approval",
      "type": "event"
    },
    {
      "anonymous": false,
      "inputs": [
        {
          "indexed": true,
          "internalType": "address",
          "name": "owner",
          "type": "address"
        },
        {
          "indexed": true,
          "internalType": "address",
          "name": "operator",
          "type": "address"
        },
        {
          "indexed": false,
          "internalType": "bool",
          "name": "approved",
          "type": "bool"
        }
      ],
      "name": "ApprovalForAll",
      "type": "event"
    },
    {
      "anonymous": false,
      "inputs": [
        {
          "indexed": true,
          "internalType": "address",
          "name": "sender",
          "type": "address"
        },
        {
          "indexed": false,
          "internalType": "uint256",
          "name": "amount",
          "type": "uint256"
        },
        {
          "indexed": false,
          "internalType": "uint256",
          "name": "fee",
          "type": "uint256"
        }
      ],
      "name": "AvaxWithdraw",
      "type": "event"
    },
    {
      "anonymous": false,
      "inputs": [
        {
          "indexed": false,
          "internalType": "string",
          "name": "baseURI",
          "type": "string"
        }
      ],
      "name": "BaseURISet",
      "type": "event"
    },
    {
      "anonymous": false,
      "inputs": [
        {
          "indexed": true,
          "internalType": "address",
          "name": "receiver",
          "type": "address"
        },
        {
          "indexed": false,
          "internalType": "uint256",
          "name": "feePercent",
          "type": "uint256"
        }
      ],
      "name": "DefaultRoyaltySet",
      "type": "event"
    },
    {
      "anonymous": false,
      "inputs": [
        {
          "indexed": true,
          "internalType": "address",
          "name": "sender",
          "type": "address"
        },
        {
          "indexed": false,
          "internalType": "uint256",
          "name": "quantity",
          "type": "uint256"
        }
      ],
      "name": "DevMint",
      "type": "event"
    },
    {
      "anonymous": false,
      "inputs": [
        {
          "indexed": false,
          "internalType": "uint256",
          "name": "preMintStartTime",
          "type": "uint256"
        },
        {
          "indexed": false,
          "internalType": "uint256",
          "name": "allowlistStartTime",
          "type": "uint256"
        },
        {
          "indexed": false,
          "internalType": "uint256",
          "name": "publicSaleStartTime",
          "type": "uint256"
        },
        {
          "indexed": false,
          "internalType": "uint256",
          "name": "publicSaleEndTime",
          "type": "uint256"
        },
        {
          "indexed": false,
          "internalType": "uint256",
          "name": "allowlistPrice",
          "type": "uint256"
        },
        {
          "indexed": false,
          "internalType": "uint256",
          "name": "salePrice",
          "type": "uint256"
        }
      ],
      "name": "Initialized",
      "type": "event"
    },
    {
      "anonymous": false,
      "inputs": [
        {
          "indexed": false,
          "internalType": "uint256",
          "name": "feePercent",
          "type": "uint256"
        },
        {
          "indexed": false,
          "internalType": "address",
          "name": "feeCollector",
          "type": "address"
        }
      ],
      "name": "JoeFeeInitialized",
      "type": "event"
    },
    {
      "anonymous": false,
      "inputs": [
        {
          "indexed": true,
          "internalType": "address",
          "name": "sender",
          "type": "address"
        },
        {
          "indexed": false,
          "internalType": "uint256",
          "name": "quantity",
          "type": "uint256"
        },
        {
          "indexed": false,
          "internalType": "uint256",
          "name": "price",
          "type": "uint256"
        },
        {
          "indexed": false,
          "internalType": "uint256",
          "name": "startTokenId",
          "type": "uint256"
        },
        {
          "indexed": false,
          "internalType": "enum IBaseLaunchpeg.Phase",
          "name": "phase",
          "type": "uint8"
        }
      ],
      "name": "Mint",
      "type": "event"
    },
    {
      "anonymous": false,
      "inputs": [
        {
          "indexed": true,
          "internalType": "address",
          "name": "previousOwner",
          "type": "address"
        },
        {
          "indexed": true,
          "internalType": "address",
          "name": "newOwner",
          "type": "address"
        }
      ],
      "name": "OwnershipTransferred",
      "type": "event"
    },
    {
      "anonymous": false,
      "inputs": [
        {
          "indexed": false,
          "internalType": "address",
          "name": "account",
          "type": "address"
        }
      ],
      "name": "Paused",
      "type": "event"
    },
    {
      "anonymous": false,
      "inputs": [
        {
          "indexed": true,
          "internalType": "address",
          "name": "pendingOwner",
          "type": "address"
        }
      ],
      "name": "PendingOwnerSet",
      "type": "event"
    },
    {
      "anonymous": false,
      "inputs": [
        {
          "indexed": true,
          "internalType": "address",
          "name": "sender",
          "type": "address"
        },
        {
          "indexed": false,
          "internalType": "uint256",
          "name": "quantity",
          "type": "uint256"
        },
        {
          "indexed": false,
          "internalType": "uint256",
          "name": "price",
          "type": "uint256"
        }
      ],
      "name": "PreMint",
      "type": "event"
    },
    {
      "anonymous": false,
      "inputs": [
        {
          "indexed": false,
          "internalType": "uint256",
          "name": "preMintStartTime",
          "type": "uint256"
        }
      ],
      "name": "PreMintStartTimeSet",
      "type": "event"
    },
    {
      "anonymous": false,
      "inputs": [
        {
          "indexed": false,
          "internalType": "uint256",
          "name": "publicSaleEndTime",
          "type": "uint256"
        }
      ],
      "name": "PublicSaleEndTimeSet",
      "type": "event"
    },
    {
      "anonymous": false,
      "inputs": [
        {
          "indexed": false,
          "internalType": "uint256",
          "name": "publicSaleStartTime",
          "type": "uint256"
        }
      ],
      "name": "PublicSaleStartTimeSet",
      "type": "event"
    },
    {
      "anonymous": false,
      "inputs": [
        {
          "indexed": true,
          "internalType": "bytes32",
          "name": "role",
          "type": "bytes32"
        },
        {
          "indexed": true,
          "internalType": "bytes32",
          "name": "previousAdminRole",
          "type": "bytes32"
        },
        {
          "indexed": true,
          "internalType": "bytes32",
          "name": "newAdminRole",
          "type": "bytes32"
        }
      ],
      "name": "RoleAdminChanged",
      "type": "event"
    },
    {
      "anonymous": false,
      "inputs": [
        {
          "indexed": true,
          "internalType": "bytes32",
          "name": "role",
          "type": "bytes32"
        },
        {
          "indexed": true,
          "internalType": "address",
          "name": "account",
          "type": "address"
        },
        {
          "indexed": true,
          "internalType": "address",
          "name": "sender",
          "type": "address"
        }
      ],
      "name": "RoleGranted",
      "type": "event"
    },
    {
      "anonymous": false,
      "inputs": [
        {
          "indexed": true,
          "internalType": "bytes32",
          "name": "role",
          "type": "bytes32"
        },
        {
          "indexed": true,
          "internalType": "address",
          "name": "account",
          "type": "address"
        },
        {
          "indexed": true,
          "internalType": "address",
          "name": "sender",
          "type": "address"
        }
      ],
      "name": "RoleRevoked",
      "type": "event"
    },
    {
      "anonymous": false,
      "inputs": [
        {
          "indexed": true,
          "internalType": "address",
          "name": "from",
          "type": "address"
        },
        {
          "indexed": true,
          "internalType": "address",
          "name": "to",
          "type": "address"
        },
        {
          "indexed": true,
          "internalType": "uint256",
          "name": "tokenId",
          "type": "uint256"
        }
      ],
      "name": "Transfer",
      "type": "event"
    },
    {
      "anonymous": false,
      "inputs": [
        {
          "indexed": false,
          "internalType": "address",
          "name": "account",
          "type": "address"
        }
      ],
      "name": "Unpaused",
      "type": "event"
    },
    {
      "anonymous": false,
      "inputs": [
        {
          "indexed": false,
          "internalType": "string",
          "name": "unrevealedURI",
          "type": "string"
        }
      ],
      "name": "UnrevealedURISet",
      "type": "event"
    },
    {
      "anonymous": false,
      "inputs": [
        {
          "indexed": false,
          "internalType": "uint256",
          "name": "withdrawAVAXStartTime",
          "type": "uint256"
        }
      ],
      "name": "WithdrawAVAXStartTimeSet",
      "type": "event"
    },
    {
      "inputs": [],
      "name": "BASIS_POINT_PRECISION",
      "outputs": [
        {
          "internalType": "uint256",
          "name": "",
          "type": "uint256"
        }
      ],
      "stateMutability": "view",
      "type": "function"
    },
    {
      "inputs": [],
      "name": "DEFAULT_ADMIN_ROLE",
      "outputs": [
        {
          "internalType": "bytes32",
          "name": "",
          "type": "bytes32"
        }
      ],
      "stateMutability": "view",
      "type": "function"
    },
    {
      "inputs": [],
      "name": "PAUSER_ADMIN_ROLE",
      "outputs": [
        {
          "internalType": "bytes32",
          "name": "",
          "type": "bytes32"
        }
      ],
      "stateMutability": "view",
      "type": "function"
    },
    {
      "inputs": [],
      "name": "PAUSER_ROLE",
      "outputs": [
        {
          "internalType": "bytes32",
          "name": "",
          "type": "bytes32"
        }
      ],
      "stateMutability": "view",
      "type": "function"
    },
    {
      "inputs": [],
      "name": "PROJECT_OWNER_ROLE",
      "outputs": [
        {
          "internalType": "bytes32",
          "name": "",
          "type": "bytes32"
        }
      ],
      "stateMutability": "view",
      "type": "function"
    },
    {
      "inputs": [],
      "name": "UNPAUSER_ADMIN_ROLE",
      "outputs": [
        {
          "internalType": "bytes32",
          "name": "",
          "type": "bytes32"
        }
      ],
      "stateMutability": "view",
      "type": "function"
    },
    {
      "inputs": [],
      "name": "UNPAUSER_ROLE",
      "outputs": [
        {
          "internalType": "bytes32",
          "name": "",
          "type": "bytes32"
        }
      ],
      "stateMutability": "view",
      "type": "function"
    },
    {
      "inputs": [
        {
          "internalType": "address",
          "name": "",
          "type": "address"
        }
      ],
      "name": "allowlist",
      "outputs": [
        {
          "internalType": "uint256",
          "name": "",
          "type": "uint256"
        }
      ],
      "stateMutability": "view",
      "type": "function"
    },
    {
      "inputs": [
        {
          "internalType": "uint256",
          "name": "_quantity",
          "type": "uint256"
        }
      ],
      "name": "allowlistMint",
      "outputs": [],
      "stateMutability": "payable",
      "type": "function"
    },
    {
      "inputs": [],
      "name": "allowlistPrice",
      "outputs": [
        {
          "internalType": "uint256",
          "name": "",
          "type": "uint256"
        }
      ],
      "stateMutability": "view",
      "type": "function"
    },
    {
      "inputs": [],
      "name": "allowlistStartTime",
      "outputs": [
        {
          "internalType": "uint256",
          "name": "",
          "type": "uint256"
        }
      ],
      "stateMutability": "view",
      "type": "function"
    },
    {
      "inputs": [],
      "name": "amountBatchMinted",
      "outputs": [
        {
          "internalType": "uint256",
          "name": "",
          "type": "uint256"
        }
      ],
      "stateMutability": "view",
      "type": "function"
    },
    {
      "inputs": [],
      "name": "amountForAllowlist",
      "outputs": [
        {
          "internalType": "uint256",
          "name": "",
          "type": "uint256"
        }
      ],
      "stateMutability": "view",
      "type": "function"
    },
    {
      "inputs": [],
      "name": "amountForDevs",
      "outputs": [
        {
          "internalType": "uint256",
          "name": "",
          "type": "uint256"
        }
      ],
      "stateMutability": "view",
      "type": "function"
    },
    {
      "inputs": [],
      "name": "amountMintedByDevs",
      "outputs": [
        {
          "internalType": "uint256",
          "name": "",
          "type": "uint256"
        }
      ],
      "stateMutability": "view",
      "type": "function"
    },
    {
      "inputs": [],
      "name": "amountMintedDuringAllowlist",
      "outputs": [
        {
          "internalType": "uint256",
          "name": "",
          "type": "uint256"
        }
      ],
      "stateMutability": "view",
      "type": "function"
    },
    {
      "inputs": [],
      "name": "amountMintedDuringPreMint",
      "outputs": [
        {
          "internalType": "uint256",
          "name": "",
          "type": "uint256"
        }
      ],
      "stateMutability": "view",
      "type": "function"
    },
    {
      "inputs": [],
      "name": "amountMintedDuringPublicSale",
      "outputs": [
        {
          "internalType": "uint256",
          "name": "",
          "type": "uint256"
        }
      ],
      "stateMutability": "view",
      "type": "function"
    },
    {
      "inputs": [
        {
          "internalType": "address",
          "name": "to",
          "type": "address"
        },
        {
          "internalType": "uint256",
          "name": "tokenId",
          "type": "uint256"
        }
      ],
      "name": "approve",
      "outputs": [],
      "stateMutability": "nonpayable",
      "type": "function"
    },
    {
      "inputs": [
        {
          "internalType": "address",
          "name": "owner",
          "type": "address"
        }
      ],
      "name": "balanceOf",
      "outputs": [
        {
          "internalType": "uint256",
          "name": "",
          "type": "uint256"
        }
      ],
      "stateMutability": "view",
      "type": "function"
    },
    {
      "inputs": [],
      "name": "baseURI",
      "outputs": [
        {
          "internalType": "string",
          "name": "",
          "type": "string"
        }
      ],
      "stateMutability": "view",
      "type": "function"
    },
    {
      "inputs": [
        {
          "internalType": "uint256",
          "name": "_maxQuantity",
          "type": "uint256"
        }
      ],
      "name": "batchMintPreMintedNFTs",
      "outputs": [],
      "stateMutability": "nonpayable",
      "type": "function"
    },
    {
      "inputs": [],
      "name": "batchReveal",
      "outputs": [
        {
          "internalType": "contract IBatchReveal",
          "name": "",
          "type": "address"
        }
      ],
      "stateMutability": "view",
      "type": "function"
    },
    {
      "inputs": [],
      "name": "becomeOwner",
      "outputs": [],
      "stateMutability": "nonpayable",
      "type": "function"
    },
    {
      "inputs": [],
      "name": "collectionSize",
      "outputs": [
        {
          "internalType": "uint256",
          "name": "",
          "type": "uint256"
        }
      ],
      "stateMutability": "view",
      "type": "function"
    },
    {
      "inputs": [],
      "name": "currentPhase",
      "outputs": [
        {
          "internalType": "enum IBaseLaunchpeg.Phase",
          "name": "",
          "type": "uint8"
        }
      ],
      "stateMutability": "view",
      "type": "function"
    },
    {
      "inputs": [
        {
          "internalType": "uint256",
          "name": "_quantity",
          "type": "uint256"
        }
      ],
      "name": "devMint",
      "outputs": [],
      "stateMutability": "nonpayable",
      "type": "function"
    },
    {
      "inputs": [
        {
          "internalType": "uint256",
          "name": "tokenId",
          "type": "uint256"
        }
      ],
      "name": "getApproved",
      "outputs": [
        {
          "internalType": "address",
          "name": "",
          "type": "address"
        }
      ],
      "stateMutability": "view",
      "type": "function"
    },
    {
      "inputs": [
        {
          "internalType": "uint256",
          "name": "_tokenId",
          "type": "uint256"
        }
      ],
      "name": "getOwnershipData",
      "outputs": [
        {
          "components": [
            {
              "internalType": "address",
              "name": "addr",
              "type": "address"
            },
            {
              "internalType": "uint64",
              "name": "startTimestamp",
              "type": "uint64"
            },
            {
              "internalType": "bool",
              "name": "burned",
              "type": "bool"
            }
          ],
          "internalType": "struct ERC721AUpgradeable.TokenOwnership",
          "name": "",
          "type": "tuple"
        }
      ],
      "stateMutability": "view",
      "type": "function"
    },
    {
      "inputs": [
        {
          "internalType": "bytes32",
          "name": "role",
          "type": "bytes32"
        }
      ],
      "name": "getRoleAdmin",
      "outputs": [
        {
          "internalType": "bytes32",
          "name": "",
          "type": "bytes32"
        }
      ],
      "stateMutability": "view",
      "type": "function"
    },
    {
      "inputs": [
        {
          "internalType": "bytes32",
          "name": "role",
          "type": "bytes32"
        },
        {
          "internalType": "uint256",
          "name": "index",
          "type": "uint256"
        }
      ],
      "name": "getRoleMember",
      "outputs": [
        {
          "internalType": "address",
          "name": "",
          "type": "address"
        }
      ],
      "stateMutability": "view",
      "type": "function"
    },
    {
      "inputs": [
        {
          "internalType": "bytes32",
          "name": "role",
          "type": "bytes32"
        }
      ],
      "name": "getRoleMemberCount",
      "outputs": [
        {
          "internalType": "uint256",
          "name": "",
          "type": "uint256"
        }
      ],
      "stateMutability": "view",
      "type": "function"
    },
    {
      "inputs": [
        {
          "internalType": "bytes32",
          "name": "role",
          "type": "bytes32"
        },
        {
          "internalType": "address",
          "name": "account",
          "type": "address"
        }
      ],
      "name": "grantRole",
      "outputs": [],
      "stateMutability": "nonpayable",
      "type": "function"
    },
    {
      "inputs": [],
      "name": "hasBatchToReveal",
      "outputs": [
        {
          "internalType": "bool",
          "name": "",
          "type": "bool"
        },
        {
          "internalType": "uint256",
          "name": "",
          "type": "uint256"
        }
      ],
      "stateMutability": "view",
      "type": "function"
    },
    {
      "inputs": [
        {
          "internalType": "bytes32",
          "name": "role",
          "type": "bytes32"
        },
        {
          "internalType": "address",
          "name": "account",
          "type": "address"
        }
      ],
      "name": "hasRole",
      "outputs": [
        {
          "internalType": "bool",
          "name": "",
          "type": "bool"
        }
      ],
      "stateMutability": "view",
      "type": "function"
    },
    {
      "inputs": [
        {
          "internalType": "string",
          "name": "_name",
          "type": "string"
        },
        {
          "internalType": "string",
          "name": "_symbol",
          "type": "string"
        },
        {
          "internalType": "address",
          "name": "_projectOwner",
          "type": "address"
        },
        {
          "internalType": "address",
          "name": "_royaltyReceiver",
          "type": "address"
        },
        {
          "internalType": "uint256",
          "name": "_maxBatchSize",
          "type": "uint256"
        },
        {
          "internalType": "uint256",
          "name": "_collectionSize",
          "type": "uint256"
        },
        {
          "internalType": "uint256",
          "name": "_amountForDevs",
          "type": "uint256"
        },
        {
          "internalType": "uint256",
          "name": "_amountForAllowlist",
          "type": "uint256"
        }
      ],
      "name": "initialize",
      "outputs": [],
      "stateMutability": "nonpayable",
      "type": "function"
    },
    {
      "inputs": [
        {
          "internalType": "uint256",
          "name": "_joeFeePercent",
          "type": "uint256"
        },
        {
          "internalType": "address",
          "name": "_joeFeeCollector",
          "type": "address"
        }
      ],
      "name": "initializeJoeFee",
      "outputs": [],
      "stateMutability": "nonpayable",
      "type": "function"
    },
    {
      "inputs": [
        {
          "internalType": "uint256",
          "name": "_preMintStartTime",
          "type": "uint256"
        },
        {
          "internalType": "uint256",
          "name": "_allowlistStartTime",
          "type": "uint256"
        },
        {
          "internalType": "uint256",
          "name": "_publicSaleStartTime",
          "type": "uint256"
        },
        {
          "internalType": "uint256",
          "name": "_publicSaleEndTime",
          "type": "uint256"
        },
        {
          "internalType": "uint256",
          "name": "_allowlistPrice",
          "type": "uint256"
        },
        {
          "internalType": "uint256",
          "name": "_salePrice",
          "type": "uint256"
        }
      ],
      "name": "initializePhases",
      "outputs": [],
      "stateMutability": "nonpayable",
      "type": "function"
    },
    {
      "inputs": [
        {
          "internalType": "address",
          "name": "owner",
          "type": "address"
        },
        {
          "internalType": "address",
          "name": "operator",
          "type": "address"
        }
      ],
      "name": "isApprovedForAll",
      "outputs": [
        {
          "internalType": "bool",
          "name": "",
          "type": "bool"
        }
      ],
      "stateMutability": "view",
      "type": "function"
    },
    {
      "inputs": [],
      "name": "joeFeeCollector",
      "outputs": [
        {
          "internalType": "address",
          "name": "",
          "type": "address"
        }
      ],
      "stateMutability": "view",
      "type": "function"
    },
    {
      "inputs": [],
      "name": "joeFeePercent",
      "outputs": [
        {
          "internalType": "uint256",
          "name": "",
          "type": "uint256"
        }
      ],
      "stateMutability": "view",
      "type": "function"
    },
    {
      "inputs": [],
      "name": "maxBatchSize",
      "outputs": [
        {
          "internalType": "uint256",
          "name": "",
          "type": "uint256"
        }
      ],
      "stateMutability": "view",
      "type": "function"
    },
    {
      "inputs": [],
      "name": "maxPerAddressDuringMint",
      "outputs": [
        {
          "internalType": "uint256",
          "name": "",
          "type": "uint256"
        }
      ],
      "stateMutability": "view",
      "type": "function"
    },
    {
      "inputs": [],
      "name": "name",
      "outputs": [
        {
          "internalType": "string",
          "name": "",
          "type": "string"
        }
      ],
      "stateMutability": "view",
      "type": "function"
    },
    {
      "inputs": [
        {
          "internalType": "address",
          "name": "_owner",
          "type": "address"
        }
      ],
      "name": "numberMinted",
      "outputs": [
        {
          "internalType": "uint256",
          "name": "",
          "type": "uint256"
        }
      ],
      "stateMutability": "view",
      "type": "function"
    },
    {
      "inputs": [],
      "name": "owner",
      "outputs": [
        {
          "internalType": "address",
          "name": "",
          "type": "address"
        }
      ],
      "stateMutability": "view",
      "type": "function"
    },
    {
      "inputs": [
        {
          "internalType": "uint256",
          "name": "tokenId",
          "type": "uint256"
        }
      ],
      "name": "ownerOf",
      "outputs": [
        {
          "internalType": "address",
          "name": "",
          "type": "address"
        }
      ],
      "stateMutability": "view",
      "type": "function"
    },
    {
      "inputs": [],
      "name": "pause",
      "outputs": [],
      "stateMutability": "nonpayable",
      "type": "function"
    },
    {
      "inputs": [],
      "name": "paused",
      "outputs": [
        {
          "internalType": "bool",
          "name": "",
          "type": "bool"
        }
      ],
      "stateMutability": "view",
      "type": "function"
    },
    {
      "inputs": [],
      "name": "pendingOwner",
      "outputs": [
        {
          "internalType": "address",
          "name": "",
          "type": "address"
        }
      ],
      "stateMutability": "view",
      "type": "function"
    },
    {
      "inputs": [
        {
          "internalType": "uint256",
          "name": "_quantity",
          "type": "uint256"
        }
      ],
      "name": "preMint",
      "outputs": [],
      "stateMutability": "payable",
      "type": "function"
    },
    {
      "inputs": [],
      "name": "preMintStartTime",
      "outputs": [
        {
          "internalType": "uint256",
          "name": "",
          "type": "uint256"
        }
      ],
      "stateMutability": "view",
      "type": "function"
    },
    {
      "inputs": [],
      "name": "publicSaleEndTime",
      "outputs": [
        {
          "internalType": "uint256",
          "name": "",
          "type": "uint256"
        }
      ],
      "stateMutability": "view",
      "type": "function"
    },
    {
      "inputs": [
        {
          "internalType": "uint256",
          "name": "_quantity",
          "type": "uint256"
        }
      ],
      "name": "publicSaleMint",
      "outputs": [],
      "stateMutability": "payable",
      "type": "function"
    },
    {
      "inputs": [],
      "name": "publicSaleStartTime",
      "outputs": [
        {
          "internalType": "uint256",
          "name": "",
          "type": "uint256"
        }
      ],
      "stateMutability": "view",
      "type": "function"
    },
    {
      "inputs": [],
      "name": "renounceOwnership",
      "outputs": [],
      "stateMutability": "nonpayable",
      "type": "function"
    },
    {
      "inputs": [
        {
          "internalType": "bytes32",
          "name": "role",
          "type": "bytes32"
        },
        {
          "internalType": "address",
          "name": "account",
          "type": "address"
        }
      ],
      "name": "renounceRole",
      "outputs": [],
      "stateMutability": "nonpayable",
      "type": "function"
    },
    {
      "inputs": [],
      "name": "revealNextBatch",
      "outputs": [],
      "stateMutability": "nonpayable",
      "type": "function"
    },
    {
      "inputs": [],
      "name": "revokePendingOwner",
      "outputs": [],
      "stateMutability": "nonpayable",
      "type": "function"
    },
    {
      "inputs": [
        {
          "internalType": "bytes32",
          "name": "role",
          "type": "bytes32"
        },
        {
          "internalType": "address",
          "name": "account",
          "type": "address"
        }
      ],
      "name": "revokeRole",
      "outputs": [],
      "stateMutability": "nonpayable",
      "type": "function"
    },
    {
      "inputs": [
        {
          "internalType": "uint256",
          "name": "_tokenId",
          "type": "uint256"
        },
        {
          "internalType": "uint256",
          "name": "_salePrice",
          "type": "uint256"
        }
      ],
      "name": "royaltyInfo",
      "outputs": [
        {
          "internalType": "address",
          "name": "",
          "type": "address"
        },
        {
          "internalType": "uint256",
          "name": "",
          "type": "uint256"
        }
      ],
      "stateMutability": "view",
      "type": "function"
    },
    {
      "inputs": [
        {
          "internalType": "address",
          "name": "from",
          "type": "address"
        },
        {
          "internalType": "address",
          "name": "to",
          "type": "address"
        },
        {
          "internalType": "uint256",
          "name": "tokenId",
          "type": "uint256"
        }
      ],
      "name": "safeTransferFrom",
      "outputs": [],
      "stateMutability": "nonpayable",
      "type": "function"
    },
    {
      "inputs": [
        {
          "internalType": "address",
          "name": "from",
          "type": "address"
        },
        {
          "internalType": "address",
          "name": "to",
          "type": "address"
        },
        {
          "internalType": "uint256",
          "name": "tokenId",
          "type": "uint256"
        },
        {
          "internalType": "bytes",
          "name": "_data",
          "type": "bytes"
        }
      ],
      "name": "safeTransferFrom",
      "outputs": [],
      "stateMutability": "nonpayable",
      "type": "function"
    },
    {
      "inputs": [],
      "name": "salePrice",
      "outputs": [
        {
          "internalType": "uint256",
          "name": "",
          "type": "uint256"
        }
      ],
      "stateMutability": "view",
      "type": "function"
    },
    {
      "inputs": [
        {
          "internalType": "address[]",
          "name": "_addresses",
          "type": "address[]"
        },
        {
          "internalType": "uint256[]",
          "name": "_numNfts",
          "type": "uint256[]"
        }
      ],
      "name": "seedAllowlist",
      "outputs": [],
      "stateMutability": "nonpayable",
      "type": "function"
    },
    {
      "inputs": [
        {
          "internalType": "uint256",
          "name": "_allowlistStartTime",
          "type": "uint256"
        }
      ],
      "name": "setAllowlistStartTime",
      "outputs": [],
      "stateMutability": "nonpayable",
      "type": "function"
    },
    {
      "inputs": [
        {
          "internalType": "address",
          "name": "operator",
          "type": "address"
        },
        {
          "internalType": "bool",
          "name": "approved",
          "type": "bool"
        }
      ],
      "name": "setApprovalForAll",
      "outputs": [],
      "stateMutability": "nonpayable",
      "type": "function"
    },
    {
      "inputs": [
        {
          "internalType": "string",
          "name": "_baseURI",
          "type": "string"
        }
      ],
      "name": "setBaseURI",
      "outputs": [],
      "stateMutability": "nonpayable",
      "type": "function"
    },
    {
      "inputs": [
        {
          "internalType": "address",
          "name": "_batchReveal",
          "type": "address"
        }
      ],
      "name": "setBatchReveal",
      "outputs": [],
      "stateMutability": "nonpayable",
      "type": "function"
    },
    {
      "inputs": [
        {
          "internalType": "address",
          "name": "pendingOwner_",
          "type": "address"
        }
      ],
      "name": "setPendingOwner",
      "outputs": [],
      "stateMutability": "nonpayable",
      "type": "function"
    },
    {
      "inputs": [
        {
          "internalType": "uint256",
          "name": "_preMintStartTime",
          "type": "uint256"
        }
      ],
      "name": "setPreMintStartTime",
      "outputs": [],
      "stateMutability": "nonpayable",
      "type": "function"
    },
    {
      "inputs": [
        {
          "internalType": "uint256",
          "name": "_publicSaleEndTime",
          "type": "uint256"
        }
      ],
      "name": "setPublicSaleEndTime",
      "outputs": [],
      "stateMutability": "nonpayable",
      "type": "function"
    },
    {
      "inputs": [
        {
          "internalType": "uint256",
          "name": "_publicSaleStartTime",
          "type": "uint256"
        }
      ],
      "name": "setPublicSaleStartTime",
      "outputs": [],
      "stateMutability": "nonpayable",
      "type": "function"
    },
    {
      "inputs": [
        {
          "internalType": "address",
          "name": "_receiver",
          "type": "address"
        },
        {
          "internalType": "uint96",
          "name": "_feePercent",
          "type": "uint96"
        }
      ],
      "name": "setRoyaltyInfo",
      "outputs": [],
      "stateMutability": "nonpayable",
      "type": "function"
    },
    {
      "inputs": [
        {
          "internalType": "string",
          "name": "_unrevealedURI",
          "type": "string"
        }
      ],
      "name": "setUnrevealedURI",
      "outputs": [],
      "stateMutability": "nonpayable",
      "type": "function"
    },
    {
      "inputs": [
        {
          "internalType": "uint256",
          "name": "_withdrawAVAXStartTime",
          "type": "uint256"
        }
      ],
      "name": "setWithdrawAVAXStartTime",
      "outputs": [],
      "stateMutability": "nonpayable",
      "type": "function"
    },
    {
      "inputs": [
        {
          "internalType": "bytes4",
          "name": "_interfaceId",
          "type": "bytes4"
        }
      ],
      "name": "supportsInterface",
      "outputs": [
        {
          "internalType": "bool",
          "name": "",
          "type": "bool"
        }
      ],
      "stateMutability": "view",
      "type": "function"
    },
    {
      "inputs": [],
      "name": "symbol",
      "outputs": [
        {
          "internalType": "string",
          "name": "",
          "type": "string"
        }
      ],
      "stateMutability": "view",
      "type": "function"
    },
    {
      "inputs": [
        {
          "internalType": "uint256",
          "name": "_id",
          "type": "uint256"
        }
      ],
      "name": "tokenURI",
      "outputs": [
        {
          "internalType": "string",
          "name": "",
          "type": "string"
        }
      ],
      "stateMutability": "view",
      "type": "function"
    },
    {
      "inputs": [],
      "name": "totalSupply",
      "outputs": [
        {
          "internalType": "uint256",
          "name": "",
          "type": "uint256"
        }
      ],
      "stateMutability": "view",
      "type": "function"
    },
    {
      "inputs": [
        {
          "internalType": "address",
          "name": "from",
          "type": "address"
        },
        {
          "internalType": "address",
          "name": "to",
          "type": "address"
        },
        {
          "internalType": "uint256",
          "name": "tokenId",
          "type": "uint256"
        }
      ],
      "name": "transferFrom",
      "outputs": [],
      "stateMutability": "nonpayable",
      "type": "function"
    },
    {
      "inputs": [],
      "name": "unpause",
      "outputs": [],
      "stateMutability": "nonpayable",
      "type": "function"
    },
    {
      "inputs": [],
      "name": "unrevealedURI",
      "outputs": [
        {
          "internalType": "string",
          "name": "",
          "type": "string"
        }
      ],
      "stateMutability": "view",
      "type": "function"
    },
    {
      "inputs": [
        {
          "internalType": "address",
          "name": "",
          "type": "address"
        }
      ],
      "name": "userAddressToPreMintAmount",
      "outputs": [
        {
          "internalType": "uint256",
          "name": "",
          "type": "uint256"
        }
      ],
      "stateMutability": "view",
      "type": "function"
    },
    {
      "inputs": [
        {
          "internalType": "address",
          "name": "_to",
          "type": "address"
        }
      ],
      "name": "withdrawAVAX",
      "outputs": [],
      "stateMutability": "nonpayable",
      "type": "function"
    },
    {
      "inputs": [],
      "name": "withdrawAVAXStartTime",
      "outputs": [
        {
          "internalType": "uint256",
          "name": "",
          "type": "uint256"
        }
      ],
      "stateMutability": "view",
      "type": "function"
    }
  ],
  "transactionHash": "0xbabbea629f605d43793e979acba156d643b306884f2694323df8f6954ad7840e",
  "args": [],
  "numDeployments": 8,
  "solcInputHash": "ad8a94c0474fe8bac41f9226c6b7e6de",
  "bytecode": "0x608060405234801561001057600080fd5b50615284806100206000396000f3fe6080604052600436106104b55760003560e01c8063715018a61161026b578063c180526a1161014f578063e30c3978116100c1578063f35e231c11610085578063f35e231c14610eb6578063f51f96dd14610ed6578063f9dca98914610eed578063fb1bb9de14610f02578063fbe1aa5114610f36578063fe2c7fee14610f4d57600080fd5b8063e30c397814610ddb578063e4b26d8414610df9578063e63ab1e914610e19578063e985e9c514610e4d578063ecbbfea314610e9657600080fd5b8063ca15c87311610113578063ca15c87314610d20578063d3486d5b14610d40578063d547741f14610d6e578063d62b630314610d8e578063d9a6f70514610da5578063dc33e68114610dbb57600080fd5b8063c180526a14610c9f578063c42069ec14610cb2578063c5482fe314610cd2578063c792e16714610ce9578063c87b56dd14610d0057600080fd5b8063963331d8116101e8578063a22cb465116101ac578063a22cb46514610bdc578063a7cd52cb14610bfc578063b05863d514610c2a578063b3ab66b014610c4a578063b88d4fde14610c5d578063be62da0e14610c7d57600080fd5b8063963331d814610b50578063984b67d614610b67578063995b94f214610b87578063a1ef0e5414610ba7578063a217fddf14610bc757600080fd5b80639010d07c1161022f5780639010d07c14610a8e57806390967a5214610aae57806391d1485414610ac55780639231ab2a14610ae557806395d89b4114610b3b57600080fd5b8063715018a614610a1c5780638456cb5914610a315780638ad433ac14610a465780638bc35c2f14610a595780638da5cb5b14610a7057600080fd5b8063375a069a1161039d5780635c975abb1161030f5780636bb7b1d9116102d35780636bb7b1d9146109675780636c0360eb1461097e5780636d5d40c6146109935780637035bf18146109b357806370a08231146109c857806370a95250146109e857600080fd5b80635c975abb146108ee578063622f1c471461090657806362f4fb2d1461091b5780636352211e1461093257806367ab8a4e1461095257600080fd5b806345afb0021161036157806345afb0021461084857806345c0f5331461086857806355f804b31461087f57806359d7bc4d1461089f5780635bb21376146108b65780635c7034af146108d757600080fd5b8063375a069a146107c55780633ba8671f146107e55780633cc4cadb146107fc5780633f4ba83a1461081357806342842e0e1461082857600080fd5b80631c0310a51161043657806325a00473116103fa57806325a00473146106e45780632913daa0146107185780632a55205a1461072f5780632e8f1f501461076e5780632f2ff15d1461078557806336568abe146107a557600080fd5b80631c0310a51461063c5780631e4d185f1461065c57806321cc16111461067357806323b872dd14610694578063248a9ca3146106b457600080fd5b806306fdde031161047d57806306fdde031461057f578063081812fc146105a1578063095ea7b3146105d95780630c2c39a3146105f957806318160ddd1461061957600080fd5b806301ffc9a7146104ba57806302fa7c47146104ef57806303851c281461051157806303b674d31461053d578063055ad42e1461055d575b600080fd5b3480156104c657600080fd5b506104da6104d5366004614c8b565b610f6d565b60405190151581526020015b60405180910390f35b3480156104fb57600080fd5b5061050f61050a366004614b3f565b610f98565b005b34801561051d57600080fd5b50610526611044565b6040805192151583526020830191909152016104e6565b34801561054957600080fd5b5061050f610558366004614c2d565b611106565b34801561056957600080fd5b506105726111d7565b6040516104e69190614f48565b34801561058b57600080fd5b50610594611298565b6040516104e69190614f56565b3480156105ad57600080fd5b506105c16105bc366004614c2d565b61132a565b6040516001600160a01b0390911681526020016104e6565b3480156105e557600080fd5b5061050f6105f4366004614b15565b61136e565b34801561060557600080fd5b5061050f610614366004614c2d565b6113fc565b34801561062557600080fd5b50606654606554035b6040519081526020016104e6565b34801561064857600080fd5b5061050f6106573660046149d9565b61147e565b34801561066857600080fd5b5061062e6101a75481565b34801561067f57600080fd5b50610193546105c1906001600160a01b031681565b3480156106a057600080fd5b5061050f6106af366004614a27565b611713565b3480156106c057600080fd5b5061062e6106cf366004614c2d565b60009081526099602052604090206001015490565b3480156106f057600080fd5b5061062e7fe0e65c783ac33ff1c5ccf4399c9185066773921d6f8d050bf80781603021f09781565b34801561072457600080fd5b5061062e6101975481565b34801561073b57600080fd5b5061074f61074a366004614c69565b61171e565b604080516001600160a01b0390931683526020830191909152016104e6565b34801561077a57600080fd5b5061062e6101a05481565b34801561079157600080fd5b5061050f6107a0366004614c46565b6117ce565b3480156107b157600080fd5b5061050f6107c0366004614c46565b611858565b3480156107d157600080fd5b5061050f6107e0366004614c2d565b611881565b3480156107f157600080fd5b5061062e6101a15481565b34801561080857600080fd5b5061062e6101a25481565b34801561081f57600080fd5b5061050f611a4f565b34801561083457600080fd5b5061050f610843366004614a27565b611aff565b34801561085457600080fd5b5061050f610863366004614c2d565b611b1a565b34801561087457600080fd5b5061062e6101945481565b34801561088b57600080fd5b5061050f61089a366004614cc5565b611ba8565b3480156108ab57600080fd5b5061062e6101a55481565b3480156108c257600080fd5b5061019a546105c1906001600160a01b031681565b3480156108e357600080fd5b5061062e61019f5481565b3480156108fa57600080fd5b5060fd5460ff166104da565b34801561091257600080fd5b5061050f611c1e565b34801561092757600080fd5b5061062e6101a45481565b34801561093e57600080fd5b506105c161094d366004614c2d565b611d48565b34801561095e57600080fd5b5061050f611d5a565b34801561097357600080fd5b5061062e6101a65481565b34801561098a57600080fd5b50610594611db8565b34801561099f57600080fd5b5061050f6109ae366004614c2d565b611e47565b3480156109bf57600080fd5b50610594611f11565b3480156109d457600080fd5b5061062e6109e33660046149d9565b611f1f565b3480156109f457600080fd5b5061062e7fe516f7ac9747f401e208331379a0bafe3c9c4dbb6501fd23bcef278f7ebaf4e581565b348015610a2857600080fd5b5061050f611f6d565b348015610a3d57600080fd5b5061050f611fa2565b61050f610a54366004614c2d565b612050565b348015610a6557600080fd5b5061062e6101985481565b348015610a7c57600080fd5b506097546001600160a01b03166105c1565b348015610a9a57600080fd5b506105c1610aa9366004614c69565b6120b6565b348015610aba57600080fd5b5061062e6101ab5481565b348015610ad157600080fd5b506104da610ae0366004614c46565b6120d5565b348015610af157600080fd5b50610b05610b00366004614c2d565b612100565b6040805182516001600160a01b031681526020808401516001600160401b031690820152918101511515908201526060016104e6565b348015610b4757600080fd5b50610594612126565b348015610b5c57600080fd5b5061062e6101a35481565b348015610b7357600080fd5b5061050f610b82366004614c2d565b612135565b348015610b9357600080fd5b5061050f610ba2366004614d36565b6121fc565b348015610bb357600080fd5b5061050f610bc2366004614c2d565b6122cd565b348015610bd357600080fd5b5061062e600081565b348015610be857600080fd5b5061050f610bf7366004614ade565b612373565b348015610c0857600080fd5b5061062e610c173660046149d9565b61019d6020526000908152604090205481565b348015610c3657600080fd5b5061050f610c45366004614b77565b612409565b61050f610c58366004614c2d565b612502565b348015610c6957600080fd5b5061050f610c78366004614a63565b612694565b348015610c8957600080fd5b5061062e60008051602061522f83398151915281565b61050f610cad366004614c2d565b6126df565b348015610cbe57600080fd5b5061050f610ccd3660046149d9565b612889565b348015610cde57600080fd5b5061062e6101995481565b348015610cf557600080fd5b5061062e6101a85481565b348015610d0c57600080fd5b50610594610d1b366004614c2d565b61290e565b348015610d2c57600080fd5b5061062e610d3b366004614c2d565b612aff565b348015610d4c57600080fd5b5061062e610d5b3660046149d9565b61019e6020526000908152604090205481565b348015610d7a57600080fd5b5061050f610d89366004614c46565b612b16565b348015610d9a57600080fd5b5061062e6101965481565b348015610db157600080fd5b5061062e61271081565b348015610dc757600080fd5b5061062e610dd63660046149d9565b612b9a565b348015610de757600080fd5b506098546001600160a01b03166105c1565b348015610e0557600080fd5b5061050f610e143660046149d9565b612bc8565b348015610e2557600080fd5b5061062e7f65d7a28e3265b37a6474929f336521b332c1681b933f6cb9f3376673440d862a81565b348015610e5957600080fd5b506104da610e683660046149f4565b6001600160a01b039182166000908152606c6020908152604080832093909416825291909152205460ff1690565b348015610ea257600080fd5b5061050f610eb1366004614c46565b612c16565b348015610ec257600080fd5b5061050f610ed1366004614df7565b612d12565b348015610ee257600080fd5b5061062e6101ac5481565b348015610ef957600080fd5b5061050f612e9f565b348015610f0e57600080fd5b5061062e7f427da25fe773164f88948d3e215c94b6554e2ed5e5f203a821c9f2f6131cf75a81565b348015610f4257600080fd5b5061062e6101955481565b348015610f5957600080fd5b5061050f610f68366004614cc5565b612ede565b60006001600160e01b03198216633502dbf760e11b1480610f925750610f9282612f48565b92915050565b6097546001600160a01b03163314610fc357604051630202a8bf60e61b815260040160405180910390fd5b6109c4816001600160601b03161115610fef576040516306f644f160e31b815260040160405180910390fd5b610ff98282612fa9565b6040516001600160601b03821681526001600160a01b038316907fd85b7816dca44c313f0fdadd9567f99f3620a2fac7c21a8a7872e1ac4d10fe559060200160405180910390a25050565b6101935460009081906001600160a01b03166110635750600091829150565b610193546001600160a01b031663ad9e22af306110836066546065540390565b6040516001600160e01b031960e085901b1681526001600160a01b0390921660048301526024820152604401604080518083038186803b1580156110c657600080fd5b505afa1580156110da573d6000803e3d6000fd5b505050506040513d601f19601f820116820180604052508101906110fe9190614bff565b915091509091565b6097546001600160a01b0316331461113157604051630202a8bf60e61b815260040160405180910390fd5b6101a554611152576040516356a4234d60e11b815260040160405180910390fd5b6101a454811015611176576040516312d3f13560e01b815260040160405180910390fd5b806101a654101561119a576040516335bcfe2b60e21b815260040160405180910390fd5b6101a58190556040518181527f9bcdfa29202b48178635d9cf5c57896f671198685cf6b8ddb5e20f3eb4bb1e60906020015b60405180910390a150565b60006101a454600014806111ec57506101a554155b806111f857506101a654155b8061120457506101a754155b8061121157506101a45442105b1561121c5750600090565b6101945460665460655403106112325750600590565b6101a454421015801561124757506101a55442105b156112525750600290565b6101a554421015801561126757506101a65442105b156112725750600390565b6101a654421015801561128757506101a75442105b156112925750600490565b50600590565b6060606780546112a79061511c565b80601f01602080910402602001604051908101604052809291908181526020018280546112d39061511c565b80156113205780601f106112f557610100808354040283529160200191611320565b820191906000526020600020905b81548152906001019060200180831161130357829003601f168201915b5050505050905090565b6000611335826130a7565b611352576040516333d1c03960e21b815260040160405180910390fd5b506000908152606b60205260409020546001600160a01b031690565b600061137982611d48565b9050806001600160a01b0316836001600160a01b031614156113ae5760405163250fdee360e21b815260040160405180910390fd5b336001600160a01b038216148015906113ce57506113cc8133610e68565b155b156113ec576040516367d9dca160e11b815260040160405180910390fd5b6113f78383836130d3565b505050565b6097546001600160a01b0316331461142757604051630202a8bf60e61b815260040160405180910390fd5b4281101561144857604051639db169d760e01b815260040160405180910390fd5b6101a88190556040518181527f90513fea331bb55e4ca73a8d0c053a255347ccb17c621338052705ea997383b3906020016111cc565b60008051602061522f83398151915261149f6097546001600160a01b031690565b6001600160a01b0316336001600160a01b0316141580156114c757506114c581336120d5565b155b156114f35760405163f9019a8d60e01b8152600481018290523360248201526044015b60405180910390fd5b600261012f5414156115475760405162461bcd60e51b815260206004820152601f60248201527f5265656e7472616e637947756172643a207265656e7472616e742063616c6c0060448201526064016114ea565b600261012f5560fd5460ff16156115705760405162461bcd60e51b81526004016114ea90614fee565b426101a854118061158257506101a854155b156115a057604051633bd1a57d60e11b815260040160405180910390fd5b6101995447906000908190156116505761271061019954846115c291906150ba565b6115cc91906150a6565b91506115d882846150d9565b61019a546040519194506001600160a01b0316908390600081818185875af1925050503d8060008114611627576040519150601f19603f3d011682016040523d82523d6000602084013e61162c565b606091505b5050809150508061165057604051633aa9e60d60e21b815260040160405180910390fd5b6040516001600160a01b038616908490600081818185875af1925050503d8060008114611699576040519150601f19603f3d011682016040523d82523d6000602084013e61169e565b606091505b505080915050806116c257604051633aa9e60d60e21b815260040160405180910390fd5b60408051848152602081018490526001600160a01b038716917f12eb5d7ccd4ce398edc94007dfbaa22fa2ac8775a3633530f36053ad765262f4910160405180910390a25050600161012f55505050565b6113f783838361312f565b6000828152610162602090815260408083208151808301909252546001600160a01b038116808352600160a01b9091046001600160601b0316928201929092528291611795575060408051808201909152610161546001600160a01b0381168252600160a01b90046001600160601b031660208201525b6020810151600090612710906117b4906001600160601b0316876150ba565b6117be91906150a6565b91519350909150505b9250929050565b81806117ed5760405163e466584960e01b815260040160405180910390fd5b6000838152609960205260409020600101546097546001600160a01b03163314801590611821575061181f81336120d5565b155b156118485760405163f9019a8d60e01b8152600481018290523360248201526044016114ea565b611852848461331d565b50505050565b81806118775760405163e466584960e01b815260040160405180910390fd5b6113f7838361333f565b60008051602061522f8339815191526118a26097546001600160a01b031690565b6001600160a01b0316336001600160a01b0316141580156118ca57506118c881336120d5565b155b156118f15760405163f9019a8d60e01b8152600481018290523360248201526044016114ea565b60fd5460ff16156119145760405162461bcd60e51b81526004016114ea90614fee565b61019454826119216133b9565b61192b919061508e565b111561194a57604051631eddc6a360e11b815260040160405180910390fd5b610195548261019f5461195d919061508e565b111561197c5760405163011310dd60e31b815260040160405180910390fd5b8161019f5461198b919061508e565b61019f55610197546000906119a090846150a6565b905060005b818110156119de576119cc33610197546040518060200160405280600081525060006133e9565b806119d681615157565b9150506119a5565b50600061019754846119f09190615172565b90508015611a1457611a1433826040518060200160405280600081525060006133e9565b60405184815233907f7d8400f0e58ae2e14f85b63f3afb0ca5b29328d8f48046b205fc7f174cf9b5ed9060200160405180910390a250505050565b7f427da25fe773164f88948d3e215c94b6554e2ed5e5f203a821c9f2f6131cf75a611a826097546001600160a01b031690565b6001600160a01b0316336001600160a01b031614158015611aaa5750611aa881336120d5565b155b15611ad15760405163f9019a8d60e01b8152600481018290523360248201526044016114ea565b60fd5460ff16611af457604051637514f14160e11b815260040160405180910390fd5b611afc6135b4565b50565b6113f783838360405180602001604052806000815250612694565b60fd5460ff1615611b3d5760405162461bcd60e51b81526004016114ea90614fee565b6000611b476111d7565b90506003816005811115611b5d57611b5d6151b2565b14158015611b7d57506004816005811115611b7a57611b7a6151b2565b14155b15611b9b576040516338df794b60e01b815260040160405180910390fd5b611ba482613647565b5050565b6097546001600160a01b03163314611bd357604051630202a8bf60e61b815260040160405180910390fd5b611be061019b83836147dc565b507ff9c7803e94e0d3c02900d8a90893a6d5e90dd04d32a4cfe825520f82bf9f32f661019b604051611c129190614f69565b60405180910390a15050565b323314611c3e57604051633059e46160e21b815260040160405180910390fd5b60fd5460ff1615611c615760405162461bcd60e51b81526004016114ea90614fee565b610193546001600160a01b0316611c8b5760405163114d098b60e31b815260040160405180910390fd5b610193546001600160a01b031663fbbc872b30611cab6066546065540390565b6040516001600160e01b031960e085901b1681526001600160a01b0390921660048301526024820152604401602060405180830381600087803b158015611cf157600080fd5b505af1158015611d05573d6000803e3d6000fd5b505050506040513d601f19601f82011682018060405250810190611d299190614be2565b611d465760405163fc58cf3f60e01b815260040160405180910390fd5b565b6000611d538261388b565b5192915050565b6097546001600160a01b03163314611d8557604051630202a8bf60e61b815260040160405180910390fd5b6098546001600160a01b0316611dae5760405163128be5bf60e31b815260040160405180910390fd5b611d4660006139a5565b61019b8054611dc69061511c565b80601f0160208091040260200160405190810160405280929190818152602001828054611df29061511c565b8015611e3f5780601f10611e1457610100808354040283529160200191611e3f565b820191906000526020600020905b815481529060010190602001808311611e2257829003601f168201915b505050505081565b6097546001600160a01b03163314611e7257604051630202a8bf60e61b815260040160405180910390fd5b6101a654611e93576040516356a4234d60e11b815260040160405180910390fd5b6101a554811015611eb7576040516335bcfe2b60e21b815260040160405180910390fd5b806101a7541015611edb57604051631e3804ab60e21b815260040160405180910390fd5b6101a68190556040518181527f4fe26bfd1cf59c4428b13357bea5ab8239f9889b3f94cd575f98b4c6811dcdc5906020016111cc565b61019c8054611dc69061511c565b60006001600160a01b038216611f48576040516323d3ad8160e21b815260040160405180910390fd5b506001600160a01b03166000908152606a60205260409020546001600160401b031690565b6097546001600160a01b03163314611f9857604051630202a8bf60e61b815260040160405180910390fd5b611d4660006139ef565b7f65d7a28e3265b37a6474929f336521b332c1681b933f6cb9f3376673440d862a611fd56097546001600160a01b031690565b6001600160a01b0316336001600160a01b031614158015611ffd5750611ffb81336120d5565b155b156120245760405163f9019a8d60e01b8152600481018290523360248201526044016114ea565b60fd5460ff1615612048576040516329c0c03160e11b815260040160405180910390fd5b611afc613a2e565b60fd5460ff16156120735760405162461bcd60e51b81526004016114ea90614fee565b60028061207e6111d7565b600581111561208f5761208f6151b2565b146120ad576040516338df794b60e01b815260040160405180910390fd5b611ba482613a86565b600082815260cb602052604081206120ce9083613c6d565b9392505050565b60009182526099602090815260408084206001600160a01b0393909316845291905290205460ff1690565b6040805160608101825260008082526020820181905291810191909152610f928261388b565b6060606880546112a79061511c565b6097546001600160a01b0316331461216057604051630202a8bf60e61b815260040160405180910390fd5b6101a454612181576040516356a4234d60e11b815260040160405180910390fd5b428110156121a257604051639db169d760e01b815260040160405180910390fd5b806101a55410156121c6576040516312d3f13560e01b815260040160405180910390fd5b6101a48190556040518181527f9776e1b1502b2f97161fccc0d9f830da6ad81a796cf67c136801fd59dd0444cd906020016111cc565b600054610100900460ff166122175760005460ff161561221b565b303b155b61227e5760405162461bcd60e51b815260206004820152602e60248201527f496e697469616c697a61626c653a20636f6e747261637420697320616c72656160448201526d191e481a5b9a5d1a585b1a5e995960921b60648201526084016114ea565b600054610100900460ff161580156122a0576000805461ffff19166101011790555b6122b08989898989898989613c79565b80156122c2576000805461ff00191690555b505050505050505050565b6097546001600160a01b031633146122f857604051630202a8bf60e61b815260040160405180910390fd5b6101a754612319576040516356a4234d60e11b815260040160405180910390fd5b6101a65481101561233d57604051631e3804ab60e21b815260040160405180910390fd5b6101a78190556040518181527fdb76c49adfe8600a5db82e1d85e7c1f7565676dac577c6a39744e9c95ad68e3c906020016111cc565b6001600160a01b03821633141561239d5760405163b06307db60e01b815260040160405180910390fd5b336000818152606c602090815260408083206001600160a01b03871680855290835292819020805460ff191686151590811790915590519081529192917f17307eab39ab6107e8899845ad3d59bd9653f200f220920489ca2b5937696c31910160405180910390a35050565b6097546001600160a01b0316331461243457604051630202a8bf60e61b815260040160405180910390fd5b8281811461245557604051638d62a9d560e01b815260040160405180910390fd5b60005b818110156124d157838382818110612472576124726151de565b9050602002013561019d6000888885818110612490576124906151de565b90506020020160208101906124a591906149d9565b6001600160a01b03168152602081019190915260400160002055806124c981615157565b915050612458565b506040517f0df27beb8d16f5e61d125286ba69a986a702ac83921bb1864629ca5e662e84d490600090a15050505050565b32331461252257604051633059e46160e21b815260040160405180910390fd5b60fd5460ff16156125455760405162461bcd60e51b81526004016114ea90614fee565b6004806125506111d7565b6005811115612561576125616151b2565b1461257f576040516338df794b60e01b815260040160405180910390fd5b610198548261258d33613d86565b612597919061508e565b11156125b6576040516335e62b7b60e21b815260040160405180910390fd5b61019454826125c36133b9565b6125cd919061508e565b11156125ec57604051631eddc6a360e11b815260040160405180910390fd5b6000826101ac546125fd91906150ba565b905061261b33846040518060200160405280600081525060006133e9565b826101a3600082825461262e919061508e565b90915550506101ac5433907fbb20f716bd7ca9427b818f6de485952ab3a5acec2559fb794e3f9a4d9f70e7229085908161266760655490565b61267191906150d9565b60046040516126839493929190615063565b60405180910390a26113f781613dc5565b61269f84848461312f565b6001600160a01b0383163b151580156126c157506126bf84848484613e60565b155b15611852576040516368d2bf6b60e11b815260040160405180910390fd5b60fd5460ff16156127025760405162461bcd60e51b81526004016114ea90614fee565b60038061270d6111d7565b600581111561271e5761271e6151b2565b1461273c576040516338df794b60e01b815260040160405180910390fd5b33600090815261019d602052604090205482111561276d576040516390e50aa560e01b815260040160405180910390fd5b610194548261277a6133b9565b612784919061508e565b11806127ae575061019654826101a2546101a0546127a2919061508e565b6127ac919061508e565b115b156127cc57604051631eddc6a360e11b815260040160405180910390fd5b33600090815261019d6020526040812080548492906127ec9084906150d9565b90915550506101ab546000906128039084906150ba565b905061282133846040518060200160405280600081525060006133e9565b826101a26000828254612834919061508e565b90915550506101ab5433907fbb20f716bd7ca9427b818f6de485952ab3a5acec2559fb794e3f9a4d9f70e7229085908161286d60655490565b61287791906150d9565b60036040516126839493929190615063565b6097546001600160a01b031633146128b457604051630202a8bf60e61b815260040160405180910390fd5b6001600160a01b0381166128db576040516386850cc360e01b815260040160405180910390fd5b6098546001600160a01b0316156129055760405163033c108960e01b815260040160405180910390fd5b611afc816139a5565b610193546060906001600160a01b03166129555761019b61292e83613f58565b60405160200161293f929190614e88565b6040516020818303038152906040529050919050565b61019354604051635e1578db60e11b81523060048201526001600160a01b039091169063bc2af1b69060240160206040518083038186803b15801561299957600080fd5b505afa1580156129ad573d6000803e3d6000fd5b505050506040513d601f19601f820116820180604052508101906129d19190614dde565b8210612a6a5761019c80546129e59061511c565b80601f0160208091040260200160405190810160405280929190818152602001828054612a119061511c565b8015612a5e5780601f10612a3357610100808354040283529160200191612a5e565b820191906000526020600020905b815481529060010190602001808311612a4157829003601f168201915b50505050509050919050565b61019354604051631f4b3c0160e11b81523060048201526024810184905261019b9161292e916001600160a01b0390911690633e9678029060440160206040518083038186803b158015612abd57600080fd5b505afa158015612ad1573d6000803e3d6000fd5b505050506040513d601f19601f82011682018060405250810190612af59190614dde565b613f58565b919050565b600081815260cb60205260408120610f9290614055565b8180612b355760405163e466584960e01b815260040160405180910390fd5b6000838152609960205260409020600101546097546001600160a01b03163314801590612b695750612b6781336120d5565b155b15612b905760405163f9019a8d60e01b8152600481018290523360248201526044016114ea565b611852848461405f565b6001600160a01b0381166000908152606a6020526040812054600160401b90046001600160401b0316610f92565b6097546001600160a01b03163314612bf357604051630202a8bf60e61b815260040160405180910390fd5b61019380546001600160a01b0319166001600160a01b0392909216919091179055565b6097546001600160a01b03163314612c4157604051630202a8bf60e61b815260040160405180910390fd5b61019a546001600160a01b031615612c6c576040516345db6e6960e11b815260040160405180910390fd5b612710821115612c8f576040516346b7d95d60e11b815260040160405180910390fd5b6001600160a01b038116612cb657604051631a1b629760e21b815260040160405180910390fd5b61019982905561019a80546001600160a01b0319166001600160a01b0383169081179091556040805184815260208101929092527fd7d086964f00d2604a80288c460231fe9cfc8e9605e838d49017401111f63adb9101611c12565b6097546001600160a01b03163314612d3d57604051630202a8bf60e61b815260040160405180910390fd5b600080612d486111d7565b6005811115612d5957612d596151b2565b14612d77576040516338df794b60e01b815260040160405180910390fd5b42871015612d9857604051639db169d760e01b815260040160405180910390fd5b86861015612db9576040516312d3f13560e01b815260040160405180910390fd5b85851015612dda576040516335bcfe2b60e21b815260040160405180910390fd5b84841015612dfb57604051631e3804ab60e21b815260040160405180910390fd5b81831115612e1c57604051631da61f9760e11b815260040160405180910390fd5b6101ac8290556101ab8390556101a48790556101a58690556101a68590556101a78490556040805188815260208101889052908101869052606081018590526080810184905260a081018390527f880fa85ac6969827fc8f6a2a8b236fc9789ece8c82b41b17d0865b747de1b9139060c00160405180910390a150505050505050565b6098546001600160a01b031633141580612eb7575033155b15612ed55760405163134aa98760e31b815260040160405180910390fd5b611d46336139ef565b6097546001600160a01b03163314612f0957604051630202a8bf60e61b815260040160405180910390fd5b612f1661019c83836147dc565b507f4012c6d278d4b460acbc560e9fa4425e187c3b40c848b8dfa248139729efee4361019c604051611c129190614f69565b60006001600160e01b03198216633dba21c360e11b1480612f6d5750612f6d82614081565b80612f7c5750612f7c826140c1565b80612f8b5750612f8b826140e6565b80612f9a5750612f9a826140fc565b80610f925750610f92826140c1565b6127106001600160601b03821611156130175760405162461bcd60e51b815260206004820152602a60248201527f455243323938313a20726f79616c7479206665652077696c6c206578636565646044820152692073616c65507269636560b01b60648201526084016114ea565b6001600160a01b03821661306d5760405162461bcd60e51b815260206004820152601960248201527f455243323938313a20696e76616c69642072656365697665720000000000000060448201526064016114ea565b604080518082019091526001600160a01b039092168083526001600160601b039091166020909201829052600160a01b9091021761016155565b600060655482108015610f92575050600090815260696020526040902054600160e01b900460ff161590565b6000828152606b602052604080822080546001600160a01b0319166001600160a01b0387811691821790925591518593918516917f8c5be1e5ebec7d5bd14f71427d1e84f3dd0314c0f7b2291e5b200ac8c7c3b92591a4505050565b600061313a8261388b565b9050836001600160a01b031681600001516001600160a01b0316146131715760405162a1148160e81b815260040160405180910390fd5b6000336001600160a01b038616148061318f575061318f8533610e68565b806131aa57503361319f8461132a565b6001600160a01b0316145b9050806131ca57604051632ce44b5f60e11b815260040160405180910390fd5b6001600160a01b0384166131f157604051633a954ecd60e21b815260040160405180910390fd5b6131fd600084876130d3565b6001600160a01b038581166000908152606a60209081526040808320805467ffffffffffffffff198082166001600160401b0392831660001901831617909255898616808652838620805493841693831660019081018416949094179055898652606990945282852080546001600160e01b031916909417600160a01b429092169190910217835587018084529220805491939091166132d15760655482146132d157805460208601516001600160401b0316600160a01b026001600160e01b03199091166001600160a01b038a16171781555b50505082846001600160a01b0316866001600160a01b03167fddf252ad1be2c89b69c2b068fc378daa952ba7f163c4a11628f55a4df523b3ef60405160405180910390a45b5050505050565b6133278282614121565b600082815260cb602052604090206113f790826141a7565b6001600160a01b03811633146133af5760405162461bcd60e51b815260206004820152602f60248201527f416363657373436f6e74726f6c3a2063616e206f6e6c792072656e6f756e636560448201526e103937b632b9903337b91039b2b63360891b60648201526084016114ea565b611ba4828261405f565b60006101a1546101a0546133d06066546065540390565b6133da919061508e565b6133e491906150d9565b905090565b6065546001600160a01b03851661341257604051622e076360e81b815260040160405180910390fd5b836134305760405163b562e8dd60e01b815260040160405180910390fd5b6001600160a01b0385166000818152606a6020908152604080832080546fffffffffffffffffffffffffffffffff1981166001600160401b038083168c018116918217600160401b67ffffffffffffffff1990941690921783900481168c01811690920217909155858452606990925290912080546001600160e01b031916909217600160a01b4290921691909102179055808085018380156134dc57506001600160a01b0387163b15155b15613565575b60405182906001600160a01b038916906000907fddf252ad1be2c89b69c2b068fc378daa952ba7f163c4a11628f55a4df523b3ef908290a461352d6000888480600101955088613e60565b61354a576040516368d2bf6b60e11b815260040160405180910390fd5b808214156134e257826065541461356057600080fd5b6135ab565b5b6040516001830192906001600160a01b038916906000907fddf252ad1be2c89b69c2b068fc378daa952ba7f163c4a11628f55a4df523b3ef908290a480821415613566575b50606555613316565b60fd5460ff166135fd5760405162461bcd60e51b815260206004820152601460248201527314185d5cd8589b194e881b9bdd081c185d5cd95960621b60448201526064016114ea565b60fd805460ff191690557f5db9ee0a495bf2e6ff9c91a7834c1ba4fdd244a5e8aa4e537bd38aeae4b073aa335b6040516001600160a01b03909116815260200160405180910390a1565b8061366557604051636e5fd58f60e01b815260040160405180910390fd5b6101a1546101a054141561368c5760405163aa9eff6760e01b815260040160405180910390fd5b8060006136996101ab5490565b6101aa546101a9549192506000918291905b80821080156136ba5750600086115b1561385e5760006101a983815481106136d5576136d56151de565b60009182526020918290206040805180820190915260029092020180546001600160a01b03168083526001909101549282018390529650915087101561375857869350836101a9848154811061372d5761372d6151de565b9060005260206000209060020201600101600082825461374d91906150d9565b909155506137a29050565b806020015193506101a98381548110613773576137736151de565b60009182526020822060029091020180546001600160a01b0319168155600101558261379e81615157565b9350505b6137ac84886150d9565b6001600160a01b038616600090815261019e60205260408120805492995086929091906137da9084906150d9565b925050819055506137fd85856040518060200160405280600081525060006133e9565b846001600160a01b03167fbb20f716bd7ca9427b818f6de485952ab3a5acec2559fb794e3f9a4d9f70e72285888761383460655490565b61383e91906150d9565b60026040516138509493929190615063565b60405180910390a2506136ab565b61386886886150d9565b6101a1600082825461387a919061508e565b9091555050506101aa555050505050565b60408051606081018252600080825260208201819052918101919091528160655481101561398c57600081815260696020908152604091829020825160608101845290546001600160a01b0381168252600160a01b81046001600160401b031692820192909252600160e01b90910460ff1615159181018290529061398a5780516001600160a01b031615613921579392505050565b5060001901600081815260696020908152604091829020825160608101845290546001600160a01b038116808352600160a01b82046001600160401b031693830193909352600160e01b900460ff1615159281019290925215613985579392505050565b613921565b505b604051636f96cda160e11b815260040160405180910390fd5b609880546001600160a01b0319166001600160a01b0383169081179091556040517f68f49b346b94582a8b5f9d10e3fe3365318fe8f191ff8dce7c59c6cad06b02f590600090a250565b613a0b6000613a066097546001600160a01b031690565b61405f565b6001600160a01b03811615613a2557613a2560008261331d565b611afc816141bc565b60fd5460ff1615613a515760405162461bcd60e51b81526004016114ea90614fee565b60fd805460ff191660011790557f62e78cea01bee320cd4e420270b5ea74000d11b0c9f74754ebdbfc544b05a25861362a3390565b80613aa457604051636e5fd58f60e01b815260040160405180910390fd5b33600090815261019d6020526040902054811115613ad5576040516390e50aa560e01b815260040160405180910390fd5b6101945481613ae26133b9565b613aec919061508e565b1180613b08575061019654816101a054613b06919061508e565b115b15613b2657604051631eddc6a360e11b815260040160405180910390fd5b33600090815261019d602052604081208054839290613b469084906150d9565b909155505033600090815261019e602052604081208054839290613b6b90849061508e565b92505081905550806101a06000828254613b85919061508e565b909155505060408051808201909152338152602081018281526101a98054600181018255600091825292517f46e9bb78ef9a1e3ee9f53f39e4c4ee2bed6dca07e6229ea5dcb5d0732af60d17600290940293840180546001600160a01b0319166001600160a01b0390921691909117905590517f46e9bb78ef9a1e3ee9f53f39e4c4ee2bed6dca07e6229ea5dcb5d0732af60d18909201919091556101ab5490506000613c3283836150ba565b604080518581526020810185905291925033917faaa4209473b0e01252afb37fc6a883231b6189d78f5fb75fec9d8345d716d6ba9101612683565b60006120ce8383614219565b600054610100900460ff16613ca05760405162461bcd60e51b81526004016114ea90615018565b613ca8614243565b613cb0614282565b613cb86142b1565b613cc288886142d8565b6001600160a01b038616613ce9576040516331ae7ba360e21b815260040160405180910390fd5b821580613cfe575082613cfc828461508e565b115b15613d1c57604051631a231d4360e21b815260040160405180910390fd5b82841115613d3d57604051631ddf40b160e01b815260040160405180910390fd5b613d5560008051602061522f833981519152876117ce565b613d61856101f4612fa9565b6101978490556101949290925561019892909255610195919091556101965550505050565b6001600160a01b038116600090815261019e6020908152604080832054606a909252822054600160401b90046001600160401b0316610f92919061508e565b80341015613de857604051639968ec3d60e01b81523460048201526024016114ea565b80341115611afc57600033613dfd83346150d9565b604051600081818185875af1925050503d8060008114613e39576040519150601f19603f3d011682016040523d82523d6000602084013e613e3e565b606091505b5050905080611ba457604051633aa9e60d60e21b815260040160405180910390fd5b604051630a85bd0160e11b81526000906001600160a01b0385169063150b7a0290613e95903390899088908890600401614f0b565b602060405180830381600087803b158015613eaf57600080fd5b505af1925050508015613edf575060408051601f3d908101601f19168201909252613edc91810190614ca8565b60015b613f3a573d808015613f0d576040519150601f19603f3d011682016040523d82523d6000602084013e613f12565b606091505b508051613f32576040516368d2bf6b60e11b815260040160405180910390fd5b805181602001fd5b6001600160e01b031916630a85bd0160e11b1490505b949350505050565b606081613f7c5750506040805180820190915260018152600360fc1b602082015290565b8160005b8115613fa65780613f9081615157565b9150613f9f9050600a836150a6565b9150613f80565b6000816001600160401b03811115613fc057613fc06151f4565b6040519080825280601f01601f191660200182016040528015613fea576020820181803683370190505b5090505b8415613f5057613fff6001836150d9565b915061400c600a86615172565b61401790603061508e565b60f81b81838151811061402c5761402c6151de565b60200101906001600160f81b031916908160001a90535061404e600a866150a6565b9450613fee565b6000610f92825490565b6140698282614309565b600082815260cb602052604090206113f79082614370565b60006001600160e01b031982166380ac58cd60e01b14806140b257506001600160e01b03198216635b5e139f60e01b145b80610f925750610f92826140e6565b60006001600160e01b0319821663152a902d60e11b1480610f925750610f92826140fc565b6001600160e01b0319166301ffc9a760e01b1490565b60006001600160e01b0319821663f3353d7760e01b1480610f925750610f9282614385565b61412b82826120d5565b611ba45760008281526099602090815260408083206001600160a01b03851684529091529020805460ff191660011790556141633390565b6001600160a01b0316816001600160a01b0316837f2f8788117e7eff1d82e926ec794901d17c78024a50270940304540a733656f0d60405160405180910390a45050565b60006120ce836001600160a01b03841661439f565b609780546001600160a01b038381166001600160a01b03198084168217909455609880549094169093556040519116919082907f8be0079c531659141344cd1fd0a4f28419497f9722a3daafe3b4186f6b6457e090600090a35050565b6000826000018281548110614230576142306151de565b9060005260206000200154905092915050565b600054610100900460ff1661426a5760405162461bcd60e51b81526004016114ea90615018565b6142726143ee565b61427a61442d565b611d4661445c565b600054610100900460ff166142a95760405162461bcd60e51b81526004016114ea90615018565b611d46614517565b600054610100900460ff16611d465760405162461bcd60e51b81526004016114ea90615018565b600054610100900460ff166142ff5760405162461bcd60e51b81526004016114ea90615018565b611ba48282614546565b61431382826120d5565b15611ba45760008281526099602090815260408083206001600160a01b0385168085529252808320805460ff1916905551339285917ff6391f5c32d9c69d2a47ea670b442974b53935d1edc7fd64eb21e047a839171b9190a45050565b60006120ce836001600160a01b03841661459e565b600061439082614691565b80610f925750610f92826146b6565b60008181526001830160205260408120546143e657508154600181810184556000848152602080822090930184905584548482528286019093526040902091909155610f92565b506000610f92565b600054610100900460ff166144155760405162461bcd60e51b81526004016114ea90615018565b61441d6146db565b6144256142b1565b611d466142b1565b600054610100900460ff166144545760405162461bcd60e51b81526004016114ea90615018565b611d46614712565b600054610100900460ff166144835760405162461bcd60e51b81526004016114ea90615018565b6144cd7f65d7a28e3265b37a6474929f336521b332c1681b933f6cb9f3376673440d862a7fe0e65c783ac33ff1c5ccf4399c9185066773921d6f8d050bf80781603021f097614745565b611d467f427da25fe773164f88948d3e215c94b6554e2ed5e5f203a821c9f2f6131cf75a7fe516f7ac9747f401e208331379a0bafe3c9c4dbb6501fd23bcef278f7ebaf4e5614745565b600054610100900460ff1661453e5760405162461bcd60e51b81526004016114ea90615018565b600161012f55565b600054610100900460ff1661456d5760405162461bcd60e51b81526004016114ea90615018565b8151614580906067906020850190614860565b508051614594906068906020840190614860565b5060006065555050565b600081815260018301602052604081205480156146875760006145c26001836150d9565b85549091506000906145d6906001906150d9565b905081811461463b5760008660000182815481106145f6576145f66151de565b9060005260206000200154905080876000018481548110614619576146196151de565b6000918252602080832090910192909255918252600188019052604090208390555b855486908061464c5761464c6151c8565b600190038181906000526020600020016000905590558560010160008681526020019081526020016000206000905560019350505050610f92565b6000915050610f92565b60006001600160e01b031982166322d7505760e11b1480610f925750610f9282614081565b60006001600160e01b03198216635a05180f60e01b1480610f925750610f9282614790565b600054610100900460ff166147025760405162461bcd60e51b81526004016114ea90615018565b61470a6142b1565b611d466147b5565b600054610100900460ff166147395760405162461bcd60e51b81526004016114ea90615018565b60fd805460ff19169055565b600082815260996020526040808220600101805490849055905190918391839186917fbd79b86ffe0ab8e8776151514217cd7cacd52c909f66475c3af44e129f0b00ff9190a4505050565b60006001600160e01b03198216637965db0b60e01b1480610f925750610f9282614691565b600054610100900460ff16612ed55760405162461bcd60e51b81526004016114ea90615018565b8280546147e89061511c565b90600052602060002090601f01602090048101928261480a5760008555614850565b82601f106148235782800160ff19823516178555614850565b82800160010185558215614850579182015b82811115614850578235825591602001919060010190614835565b5061485c9291506148d4565b5090565b82805461486c9061511c565b90600052602060002090601f01602090048101928261488e5760008555614850565b82601f106148a757805160ff1916838001178555614850565b82800160010185558215614850579182015b828111156148505782518255916020019190600101906148b9565b5b8082111561485c57600081556001016148d5565b60006001600160401b0380841115614903576149036151f4565b604051601f8501601f19908116603f0116810190828211818310171561492b5761492b6151f4565b8160405280935085815286868601111561494457600080fd5b858560208301376000602087830101525050509392505050565b80356001600160a01b0381168114612afa57600080fd5b60008083601f84011261498757600080fd5b5081356001600160401b0381111561499e57600080fd5b6020830191508360208260051b85010111156117c757600080fd5b600082601f8301126149ca57600080fd5b6120ce838335602085016148e9565b6000602082840312156149eb57600080fd5b6120ce8261495e565b60008060408385031215614a0757600080fd5b614a108361495e565b9150614a1e6020840161495e565b90509250929050565b600080600060608486031215614a3c57600080fd5b614a458461495e565b9250614a536020850161495e565b9150604084013590509250925092565b60008060008060808587031215614a7957600080fd5b614a828561495e565b9350614a906020860161495e565b92506040850135915060608501356001600160401b03811115614ab257600080fd5b8501601f81018713614ac357600080fd5b614ad2878235602084016148e9565b91505092959194509250565b60008060408385031215614af157600080fd5b614afa8361495e565b91506020830135614b0a8161520a565b809150509250929050565b60008060408385031215614b2857600080fd5b614b318361495e565b946020939093013593505050565b60008060408385031215614b5257600080fd5b614b5b8361495e565b915060208301356001600160601b0381168114614b0a57600080fd5b60008060008060408587031215614b8d57600080fd5b84356001600160401b0380821115614ba457600080fd5b614bb088838901614975565b90965094506020870135915080821115614bc957600080fd5b50614bd687828801614975565b95989497509550505050565b600060208284031215614bf457600080fd5b81516120ce8161520a565b60008060408385031215614c1257600080fd5b8251614c1d8161520a565b6020939093015192949293505050565b600060208284031215614c3f57600080fd5b5035919050565b60008060408385031215614c5957600080fd5b82359150614a1e6020840161495e565b60008060408385031215614c7c57600080fd5b50508035926020909101359150565b600060208284031215614c9d57600080fd5b81356120ce81615218565b600060208284031215614cba57600080fd5b81516120ce81615218565b60008060208385031215614cd857600080fd5b82356001600160401b0380821115614cef57600080fd5b818501915085601f830112614d0357600080fd5b813581811115614d1257600080fd5b866020828501011115614d2457600080fd5b60209290920196919550909350505050565b600080600080600080600080610100898b031215614d5357600080fd5b88356001600160401b0380821115614d6a57600080fd5b614d768c838d016149b9565b995060208b0135915080821115614d8c57600080fd5b50614d998b828c016149b9565b975050614da860408a0161495e565b9550614db660608a0161495e565b979a969950949760808101359660a0820135965060c0820135955060e0909101359350915050565b600060208284031215614df057600080fd5b5051919050565b60008060008060008060c08789031215614e1057600080fd5b505084359660208601359650604086013595606081013595506080810135945060a0013592509050565b60008151808452614e528160208601602086016150f0565b601f01601f19169290920160200192915050565b60068110614e8457634e487b7160e01b600052602160045260246000fd5b9052565b6000808454614e968161511c565b60018281168015614eae5760018114614ebf57614eee565b60ff19841687528287019450614eee565b8860005260208060002060005b85811015614ee55781548a820152908401908201614ecc565b50505082870194505b505050508351614f028183602088016150f0565b01949350505050565b6001600160a01b0385811682528416602082015260408101839052608060608201819052600090614f3e90830184614e3a565b9695505050505050565b60208101610f928284614e66565b6020815260006120ce6020830184614e3a565b6000602080835260008454614f7d8161511c565b80848701526040600180841660008114614f9e5760018114614fb257614fe0565b60ff19851689840152606089019550614fe0565b896000528660002060005b85811015614fd85781548b8201860152908301908801614fbd565b8a0184019650505b509398975050505050505050565b60208082526010908201526f14185d5cd8589b194e881c185d5cd95960821b604082015260600190565b6020808252602b908201527f496e697469616c697a61626c653a20636f6e7472616374206973206e6f74206960408201526a6e697469616c697a696e6760a81b606082015260800190565b8481526020810184905260408101839052608081016150856060830184614e66565b95945050505050565b600082198211156150a1576150a1615186565b500190565b6000826150b5576150b561519c565b500490565b60008160001904831182151516156150d4576150d4615186565b500290565b6000828210156150eb576150eb615186565b500390565b60005b8381101561510b5781810151838201526020016150f3565b838111156118525750506000910152565b600181811c9082168061513057607f821691505b6020821081141561515157634e487b7160e01b600052602260045260246000fd5b50919050565b600060001982141561516b5761516b615186565b5060010190565b6000826151815761518161519c565b500690565b634e487b7160e01b600052601160045260246000fd5b634e487b7160e01b600052601260045260246000fd5b634e487b7160e01b600052602160045260246000fd5b634e487b7160e01b600052603160045260246000fd5b634e487b7160e01b600052603260045260246000fd5b634e487b7160e01b600052604160045260246000fd5b8015158114611afc57600080fd5b6001600160e01b031981168114611afc57600080fdfe770fadb28e0e3026382976ee8b810cb0eb8666922148dd9e10b20cfb9b477ba8a26469706673582212202c8dd6328dfaa99827ca40c4d8c1f6fc66c34df15132f486e43c1f8ec1d224a864736f6c63430008060033",
  "devdoc": {
    "author": "Trader Joe",
    "events": {
      "Initialized(uint256,uint256,uint256,uint256,uint256,uint256)": {
        "details": "Emitted on initializePhases()",
        "params": {
          "allowlistPrice": "Price of the allowlist sale in Avax",
          "allowlistStartTime": "Allowlist mint start time in seconds",
          "preMintStartTime": "Pre-mint start time in seconds",
          "publicSaleEndTime": "Public sale end time in seconds",
          "publicSaleStartTime": "Public sale start time in seconds",
          "salePrice": "Price of the public sale in Avax"
        }
      }
    },
    "kind": "dev",
    "methods": {
      "allowlistMint(uint256)": {
        "params": {
          "_quantity": "Quantity of NFTs to mint"
        }
      },
      "approve(address,uint256)": {
        "details": "See {IERC721-approve}."
      },
      "balanceOf(address)": {
        "details": "See {IERC721-balanceOf}."
      },
      "batchMintPreMintedNFTs(uint256)": {
        "params": {
          "_maxQuantity": "Max quantity of NFTs to mint"
        }
      },
      "currentPhase()": {
        "returns": {
          "_0": "phase Current phase"
        }
      },
      "devMint(uint256)": {
        "details": "Can only mint up to `amountForDevs`",
        "params": {
          "_quantity": "Quantity of NFTs to mint"
        }
      },
      "getApproved(uint256)": {
        "details": "See {IERC721-getApproved}."
      },
      "getOwnershipData(uint256)": {
        "params": {
          "_tokenId": "Token ID"
        },
        "returns": {
          "_0": "TokenOwnership Ownership struct for a specific token ID"
        }
      },
      "getRoleAdmin(bytes32)": {
        "details": "Returns the admin role that controls `role`. See {grantRole} and {revokeRole}. To change a role's admin, use {_setRoleAdmin}."
      },
      "getRoleMember(bytes32,uint256)": {
        "details": "Returns one of the accounts that have `role`. `index` must be a value between 0 and {getRoleMemberCount}, non-inclusive. Role bearers are not sorted in any particular way, and their ordering may change at any point. WARNING: When using {getRoleMember} and {getRoleMemberCount}, make sure you perform all queries on the same block. See the following https://forum.openzeppelin.com/t/iterating-over-elements-on-enumerableset-in-openzeppelin-contracts/2296[forum post] for more information."
      },
      "getRoleMemberCount(bytes32)": {
        "details": "Returns the number of accounts that have `role`. Can be used together with {getRoleMember} to enumerate all bearers of a role."
      },
      "grantRole(bytes32,address)": {
        "details": "If `account` had not been already granted `role`, emits a {RoleGranted} event. Requirements: - the caller must be the `owner` or have ``role``'s admin role. - the role granted can't be `DEFAULT_ADMIN`",
        "params": {
          "account": "The address of the account",
          "role": "The role to grant"
        }
      },
      "hasBatchToReveal()": {
        "returns": {
          "_0": "bool Whether reveal can be triggered or not",
          "_1": "uint256 The number of the next batch that will be revealed"
        }
      },
      "hasRole(bytes32,address)": {
        "details": "Returns `true` if `account` has been granted `role`."
      },
      "initialize(string,string,address,address,uint256,uint256,uint256,uint256)": {
        "params": {
          "_amountForAllowlist": "Amount of NFTs available for the allowlist mint (e.g 1000)",
          "_amountForDevs": "Amount of NFTs reserved for `projectOwner` (e.g 200)",
          "_collectionSize": "The collection size (e.g 10000)",
          "_maxBatchSize": "Max amount of NFTs that can be minted at once",
          "_name": "ERC721 name",
          "_projectOwner": "The project owner",
          "_royaltyReceiver": "Royalty fee collector",
          "_symbol": "ERC721 symbol"
        }
      },
      "initializeJoeFee(uint256,address)": {
        "params": {
          "_joeFeeCollector": "The address to which the fees on the sale will be sent",
          "_joeFeePercent": "The fees collected by Joepegs on the sale benefits"
        }
      },
      "initializePhases(uint256,uint256,uint256,uint256,uint256,uint256)": {
        "details": "Can only be called once",
        "params": {
          "_allowlistPrice": "Price of the allowlist sale in Avax",
          "_allowlistStartTime": "Allowlist mint start time in seconds",
          "_preMintStartTime": "Pre-mint start time in seconds",
          "_publicSaleEndTime": "Public sale end time in seconds",
          "_publicSaleStartTime": "Public sale start time in seconds",
          "_salePrice": "Price of the public sale in Avax"
        }
      },
      "isApprovedForAll(address,address)": {
        "details": "See {IERC721-isApprovedForAll}."
      },
      "name()": {
        "details": "See {IERC721Metadata-name}."
      },
      "numberMinted(address)": {
        "params": {
          "_owner": "The owner of the NFTs"
        },
        "returns": {
          "_0": "numberMinted Number of NFTs minted"
        }
      },
      "owner()": {
        "returns": {
          "_0": "The address of the current owner"
        }
      },
      "ownerOf(uint256)": {
        "details": "See {IERC721-ownerOf}."
      },
      "pause()": {
        "details": "Sensible part of a contract might be pausable for security reasons. Requirements: - the caller must be the `owner` or have the ``role`` role. - the contrat needs to be unpaused."
      },
      "paused()": {
        "details": "Returns true if the contract is paused, and false otherwise."
      },
      "pendingOwner()": {
        "returns": {
          "_0": "The address of the current pending owner"
        }
      },
      "preMint(uint256)": {
        "params": {
          "_quantity": "Quantity of NFTs to mint"
        }
      },
      "publicSaleMint(uint256)": {
        "params": {
          "_quantity": "Quantity of NFTs to mint"
        }
      },
      "renounceRole(bytes32,address)": {
        "details": "Roles are often managed via {grantRole} and {revokeRole}: this function's purpose is to provide a mechanism for accounts to lose their privileges if they are compromised (such as when a trusted device is misplaced). If the calling account had been revoked `role`, emits a {RoleRevoked} event. Requirements: - the caller must be `account`. - the role renounced can't be `DEFAULT_ADMIN`",
        "params": {
          "account": "The address of the account",
          "role": "The role to renounce"
        }
      },
      "revokeRole(bytes32,address)": {
        "details": "If `account` had been granted `role`, emits a {RoleRevoked} event. Requirements: - the caller must be the `owner` or have ``role``'s admin role. - the role revoked can't be `DEFAULT_ADMIN`",
        "params": {
          "account": "The address of the account",
          "role": "The role to revoke"
        }
      },
      "royaltyInfo(uint256,uint256)": {
        "details": "Returns how much royalty is owed and to whom, based on a sale price that may be denominated in any unit of exchange. The royalty amount is denominated and should be payed in that same unit of exchange."
      },
      "safeTransferFrom(address,address,uint256)": {
        "details": "See {IERC721-safeTransferFrom}."
      },
      "safeTransferFrom(address,address,uint256,bytes)": {
        "details": "See {IERC721-safeTransferFrom}."
      },
      "seedAllowlist(address[],uint256[])": {
        "params": {
          "_addresses": "List of addresses allowed to mint during the allowlist phase",
          "_numNfts": "List of NFT quantities mintable per address"
        }
      },
      "setAllowlistStartTime(uint256)": {
        "details": "Only callable by owner",
        "params": {
          "_allowlistStartTime": "New allowlist start time"
        }
      },
      "setApprovalForAll(address,bool)": {
        "details": "See {IERC721-setApprovalForAll}."
      },
      "setBaseURI(string)": {
        "details": "This sets the URI for revealed tokens Only callable by project owner",
        "params": {
          "_baseURI": "Base URI to be set"
        }
      },
      "setBatchReveal(address)": {
        "details": "Can be set to zero address to disable batch reveal"
      },
      "setPreMintStartTime(uint256)": {
        "details": "Only callable by owner",
        "params": {
          "_preMintStartTime": "New pre-mint start time"
        }
      },
      "setPublicSaleEndTime(uint256)": {
        "details": "Only callable by owner",
        "params": {
          "_publicSaleEndTime": "New public sale end time"
        }
      },
      "setPublicSaleStartTime(uint256)": {
        "details": "Only callable by owner",
        "params": {
          "_publicSaleStartTime": "New public sale start time"
        }
      },
      "setRoyaltyInfo(address,uint96)": {
        "params": {
          "_feePercent": "Royalty fee percent in basis point",
          "_receiver": "Royalty fee collector"
        }
      },
      "setUnrevealedURI(string)": {
        "details": "Only callable by project owner",
        "params": {
          "_unrevealedURI": "Unrevealed URI to be set"
        }
      },
      "setWithdrawAVAXStartTime(uint256)": {
        "params": {
          "_withdrawAVAXStartTime": "New public sale end time"
        }
      },
      "supportsInterface(bytes4)": {
        "details": "Returns true if this contract implements the interface defined by `interfaceId`. See the corresponding https://eips.ethereum.org/EIPS/eip-165#how-interfaces-are-identified[EIP section] to learn more about how these IDs are created. This function call must use less than 30 000 gas.",
        "params": {
          "_interfaceId": "InterfaceId to consider. Comes from type(Interface).interfaceId"
        },
        "returns": {
          "_0": "isInterfaceSupported True if the considered interface is supported"
        }
      },
      "symbol()": {
        "details": "See {IERC721Metadata-symbol}."
      },
      "tokenURI(uint256)": {
        "params": {
          "_id": "Token id"
        },
        "returns": {
          "_0": "URI Token URI"
        }
      },
      "totalSupply()": {
        "details": "Burned tokens are calculated here, use _totalMinted() if you want to count just minted tokens."
      },
      "transferFrom(address,address,uint256)": {
        "details": "See {IERC721-transferFrom}."
      },
      "unpause()": {
        "details": "Sensible part of a contract might be pausable for security reasons. Requirements: - the caller must be the `owner` or have the ``role`` role. - the contrat needs to be unpaused."
      },
      "withdrawAVAX(address)": {
        "params": {
          "_to": "Recipient of the earned AVAX"
        }
      }
    },
    "stateVariables": {
      "allowlistPrice": {
        "details": "allowlistPrice is scaled to 1e18"
      },
      "salePrice": {
        "details": "salePrice is scaled to 1e18"
      }
    },
    "title": "FlatLaunchpeg",
    "version": 1
  },
  "userdoc": {
    "kind": "user",
    "methods": {
      "BASIS_POINT_PRECISION()": {
        "notice": "Percentage base point"
      },
      "PROJECT_OWNER_ROLE()": {
        "notice": "Role granted to project owners"
      },
      "allowlist(address)": {
        "notice": "The amount of NFTs each allowed address can mint during the pre-mint or allowlist mint"
      },
      "allowlistMint(uint256)": {
        "notice": "Mint NFTs during the allowlist mint"
      },
      "allowlistPrice()": {
        "notice": "Price of one NFT for people on the mint list"
      },
      "allowlistStartTime()": {
        "notice": "Start time of the allowlist mint in seconds"
      },
      "amountBatchMinted()": {
        "notice": "Tracks the amount of NFTs batch minted"
      },
      "amountForAllowlist()": {
        "notice": "Amount of NFTs available for the allowlist mint (e.g 1000)"
      },
      "amountForDevs()": {
        "notice": "Amount of NFTs reserved for the project owner (e.g 200)"
      },
      "amountMintedByDevs()": {
        "notice": "Tracks the amount of NFTs minted by `projectOwner`"
      },
      "amountMintedDuringAllowlist()": {
        "notice": "Tracks the amount of NFTs minted on Allowlist phase"
      },
      "amountMintedDuringPreMint()": {
        "notice": "Tracks the amount of NFTs minted in the Pre-Mint phase"
      },
      "amountMintedDuringPublicSale()": {
        "notice": "Tracks the amount of NFTs minted on Public Sale phase"
      },
      "baseURI()": {
        "notice": "Token URI after collection reveal"
      },
      "batchMintPreMintedNFTs(uint256)": {
        "notice": "Batch mint NFTs requested during the pre-mint"
      },
      "becomeOwner()": {
        "notice": "Transfers the ownership to the new owner (`pendingOwner`). Can only be called by the pending owner"
      },
      "collectionSize()": {
        "notice": "The collection size (e.g 10000)"
      },
      "currentPhase()": {
        "notice": "Returns the current phase"
      },
      "devMint(uint256)": {
        "notice": "Mint NFTs to the project owner"
      },
      "getOwnershipData(uint256)": {
        "notice": "Returns the ownership data of a specific token ID"
      },
      "grantRole(bytes32,address)": {
        "notice": "Grants `role` to `account`."
      },
      "hasBatchToReveal()": {
        "notice": "Tells you if a batch can be revealed"
      },
      "initialize(string,string,address,address,uint256,uint256,uint256,uint256)": {
        "notice": "FlatLaunchpeg initialization Can only be called once"
      },
      "initializeJoeFee(uint256,address)": {
        "notice": "Initialize the sales fee percent taken by Joepegs and address that collects the fees"
      },
      "initializePhases(uint256,uint256,uint256,uint256,uint256,uint256)": {
        "notice": "Initialize the two phases of the sale"
      },
      "joeFeeCollector()": {
        "notice": "The address to which the fees on the sale will be sent"
      },
      "joeFeePercent()": {
        "notice": "The fees collected by Joepegs on the sale benefits"
      },
      "maxBatchSize()": {
        "notice": "Max amount of NFTs that can be minted at once"
      },
      "maxPerAddressDuringMint()": {
        "notice": "Max amount of NFTs an address can mint"
      },
      "numberMinted(address)": {
        "notice": "Returns the number of NFTs minted by a specific address"
      },
      "owner()": {
        "notice": "Returns the address of the current owner"
      },
      "pause()": {
        "notice": "Pauses the contract."
      },
      "pendingOwner()": {
        "notice": "Returns the address of the current pending owner"
      },
      "preMint(uint256)": {
        "notice": "Mint NFTs during the pre-mint"
      },
      "preMintStartTime()": {
        "notice": "Start time of the pre-mint in seconds"
      },
      "publicSaleEndTime()": {
        "notice": "End time of the public sale in seconds"
      },
      "publicSaleMint(uint256)": {
        "notice": "Mint NFTs during the public sale"
      },
      "publicSaleStartTime()": {
        "notice": "Start time of the public sale in seconds"
      },
      "renounceOwnership()": {
        "notice": "Leaves the contract without owner. It will not be possible to call `onlyOwner` functions anymore. Can only be called by the current owner. NOTE: Renouncing ownership will leave the contract without an owner, thereby removing any functionality that is only available to the owner."
      },
      "renounceRole(bytes32,address)": {
        "notice": "Revokes `role` from the calling account."
      },
      "revealNextBatch()": {
        "notice": "Reveals the next batch if the reveal conditions are met"
      },
      "revokePendingOwner()": {
        "notice": "Revoke the pending owner address. This address will not be able to call {becomeOwner} to become the owner anymore. Can only be called by the owner"
      },
      "revokeRole(bytes32,address)": {
        "notice": "Revokes `role` from `account`."
      },
      "salePrice()": {
        "notice": "Price of one NFT during the public sale"
      },
      "seedAllowlist(address[],uint256[])": {
        "notice": "Set amount of NFTs mintable per address during the allowlist phase"
      },
      "setAllowlistStartTime(uint256)": {
        "notice": "Set the allowlist start time. Can only be set after phases have been initialized."
      },
      "setBaseURI(string)": {
        "notice": "Set the base URI"
      },
      "setBatchReveal(address)": {
        "notice": "Update batch reveal"
      },
      "setPendingOwner(address)": {
        "notice": "Sets the pending owner address. This address will be able to become the owner of this contract by calling {becomeOwner}"
      },
      "setPreMintStartTime(uint256)": {
        "notice": "Set the pre-mint start time. Can only be set after phases have been initialized."
      },
      "setPublicSaleEndTime(uint256)": {
        "notice": "Set the public sale end time. Can only be set after phases have been initialized."
      },
      "setPublicSaleStartTime(uint256)": {
        "notice": "Set the public sale start time. Can only be set after phases have been initialized."
      },
      "setRoyaltyInfo(address,uint96)": {
        "notice": "Set the royalty fee"
      },
      "setUnrevealedURI(string)": {
        "notice": "Set the unrevealed URI"
      },
      "setWithdrawAVAXStartTime(uint256)": {
        "notice": "Set the withdraw AVAX start time."
      },
      "tokenURI(uint256)": {
        "notice": "Returns the Uniform Resource Identifier (URI) for `tokenId` token."
      },
      "unpause()": {
        "notice": "Unpauses the contract."
      },
      "unrevealedURI()": {
        "notice": "Token URI before the collection reveal"
      },
      "withdrawAVAX(address)": {
        "notice": "Withdraw AVAX to the given recipient"
      },
      "withdrawAVAXStartTime()": {
        "notice": "Start time when funds can be withdrawn"
      }
    },
    "notice": "Implements a simple minting NFT contract with an allowlist and public sale phase.",
    "version": 1
  },
  "storageLayout": {
    "storage": [
      {
        "astId": 810,
        "contract": "contracts/FlatLaunchpeg.sol:FlatLaunchpeg",
        "label": "_initialized",
        "offset": 0,
        "slot": "0",
        "type": "t_bool"
      },
      {
        "astId": 813,
        "contract": "contracts/FlatLaunchpeg.sol:FlatLaunchpeg",
        "label": "_initializing",
        "offset": 1,
        "slot": "0",
        "type": "t_bool"
      },
      {
        "astId": 1710,
        "contract": "contracts/FlatLaunchpeg.sol:FlatLaunchpeg",
        "label": "__gap",
        "offset": 0,
        "slot": "1",
        "type": "t_array(t_uint256)50_storage"
      },
      {
        "astId": 1957,
        "contract": "contracts/FlatLaunchpeg.sol:FlatLaunchpeg",
        "label": "__gap",
        "offset": 0,
        "slot": "51",
        "type": "t_array(t_uint256)50_storage"
      },
      {
        "astId": 11650,
        "contract": "contracts/FlatLaunchpeg.sol:FlatLaunchpeg",
        "label": "_currentIndex",
        "offset": 0,
        "slot": "101",
        "type": "t_uint256"
      },
      {
        "astId": 11652,
        "contract": "contracts/FlatLaunchpeg.sol:FlatLaunchpeg",
        "label": "_burnCounter",
        "offset": 0,
        "slot": "102",
        "type": "t_uint256"
      },
      {
        "astId": 11654,
        "contract": "contracts/FlatLaunchpeg.sol:FlatLaunchpeg",
        "label": "_name",
        "offset": 0,
        "slot": "103",
        "type": "t_string_storage"
      },
      {
        "astId": 11656,
        "contract": "contracts/FlatLaunchpeg.sol:FlatLaunchpeg",
        "label": "_symbol",
        "offset": 0,
        "slot": "104",
        "type": "t_string_storage"
      },
      {
        "astId": 11661,
        "contract": "contracts/FlatLaunchpeg.sol:FlatLaunchpeg",
        "label": "_ownerships",
        "offset": 0,
        "slot": "105",
        "type": "t_mapping(t_uint256,t_struct(TokenOwnership)11639_storage)"
      },
      {
        "astId": 11666,
        "contract": "contracts/FlatLaunchpeg.sol:FlatLaunchpeg",
        "label": "_addressData",
        "offset": 0,
        "slot": "106",
        "type": "t_mapping(t_address,t_struct(AddressData)11648_storage)"
      },
      {
        "astId": 11670,
        "contract": "contracts/FlatLaunchpeg.sol:FlatLaunchpeg",
        "label": "_tokenApprovals",
        "offset": 0,
        "slot": "107",
        "type": "t_mapping(t_uint256,t_address)"
      },
      {
        "astId": 11676,
        "contract": "contracts/FlatLaunchpeg.sol:FlatLaunchpeg",
        "label": "_operatorApprovals",
        "offset": 0,
        "slot": "108",
        "type": "t_mapping(t_address,t_mapping(t_address,t_bool))"
      },
      {
        "astId": 12924,
        "contract": "contracts/FlatLaunchpeg.sol:FlatLaunchpeg",
        "label": "__gap",
        "offset": 0,
        "slot": "109",
        "type": "t_array(t_uint256)42_storage"
      },
      {
        "astId": 11028,
        "contract": "contracts/FlatLaunchpeg.sol:FlatLaunchpeg",
        "label": "_owner",
        "offset": 0,
        "slot": "151",
        "type": "t_address"
      },
      {
        "astId": 11030,
        "contract": "contracts/FlatLaunchpeg.sol:FlatLaunchpeg",
        "label": "_pendingOwner",
        "offset": 0,
        "slot": "152",
        "type": "t_address"
      },
      {
        "astId": 273,
        "contract": "contracts/FlatLaunchpeg.sol:FlatLaunchpeg",
        "label": "_roles",
        "offset": 0,
        "slot": "153",
        "type": "t_mapping(t_bytes32,t_struct(RoleData)268_storage)"
      },
      {
        "astId": 561,
        "contract": "contracts/FlatLaunchpeg.sol:FlatLaunchpeg",
        "label": "__gap",
        "offset": 0,
        "slot": "154",
        "type": "t_array(t_uint256)49_storage"
      },
      {
        "astId": 122,
        "contract": "contracts/FlatLaunchpeg.sol:FlatLaunchpeg",
        "label": "_roleMembers",
        "offset": 0,
        "slot": "203",
        "type": "t_mapping(t_bytes32,t_struct(AddressSet)2282_storage)"
      },
      {
        "astId": 232,
        "contract": "contracts/FlatLaunchpeg.sol:FlatLaunchpeg",
        "label": "__gap",
        "offset": 0,
        "slot": "204",
        "type": "t_array(t_uint256)49_storage"
      },
      {
        "astId": 898,
        "contract": "contracts/FlatLaunchpeg.sol:FlatLaunchpeg",
        "label": "_paused",
        "offset": 0,
        "slot": "253",
        "type": "t_bool"
      },
      {
        "astId": 987,
        "contract": "contracts/FlatLaunchpeg.sol:FlatLaunchpeg",
        "label": "__gap",
        "offset": 0,
        "slot": "254",
        "type": "t_array(t_uint256)49_storage"
      },
      {
        "astId": 1002,
        "contract": "contracts/FlatLaunchpeg.sol:FlatLaunchpeg",
        "label": "_status",
        "offset": 0,
        "slot": "303",
        "type": "t_uint256"
      },
      {
        "astId": 1046,
        "contract": "contracts/FlatLaunchpeg.sol:FlatLaunchpeg",
        "label": "__gap",
        "offset": 0,
        "slot": "304",
        "type": "t_array(t_uint256)49_storage"
      },
      {
        "astId": 1240,
        "contract": "contracts/FlatLaunchpeg.sol:FlatLaunchpeg",
        "label": "_defaultRoyaltyInfo",
        "offset": 0,
        "slot": "353",
        "type": "t_struct(RoyaltyInfo)1237_storage"
      },
      {
        "astId": 1245,
        "contract": "contracts/FlatLaunchpeg.sol:FlatLaunchpeg",
        "label": "_tokenRoyaltyInfo",
        "offset": 0,
        "slot": "354",
        "type": "t_mapping(t_uint256,t_struct(RoyaltyInfo)1237_storage)"
      },
      {
        "astId": 1425,
        "contract": "contracts/FlatLaunchpeg.sol:FlatLaunchpeg",
        "label": "__gap",
        "offset": 0,
        "slot": "355",
        "type": "t_array(t_uint256)48_storage"
      },
      {
        "astId": 3275,
        "contract": "contracts/FlatLaunchpeg.sol:FlatLaunchpeg",
        "label": "batchReveal",
        "offset": 0,
        "slot": "403",
        "type": "t_contract(IBatchReveal)10547"
      },
      {
        "astId": 3286,
        "contract": "contracts/FlatLaunchpeg.sol:FlatLaunchpeg",
        "label": "collectionSize",
        "offset": 0,
        "slot": "404",
        "type": "t_uint256"
      },
      {
        "astId": 3290,
        "contract": "contracts/FlatLaunchpeg.sol:FlatLaunchpeg",
        "label": "amountForDevs",
        "offset": 0,
        "slot": "405",
        "type": "t_uint256"
      },
      {
        "astId": 3294,
        "contract": "contracts/FlatLaunchpeg.sol:FlatLaunchpeg",
        "label": "amountForAllowlist",
        "offset": 0,
        "slot": "406",
        "type": "t_uint256"
      },
      {
        "astId": 3298,
        "contract": "contracts/FlatLaunchpeg.sol:FlatLaunchpeg",
        "label": "maxBatchSize",
        "offset": 0,
        "slot": "407",
        "type": "t_uint256"
      },
      {
        "astId": 3302,
        "contract": "contracts/FlatLaunchpeg.sol:FlatLaunchpeg",
        "label": "maxPerAddressDuringMint",
        "offset": 0,
        "slot": "408",
        "type": "t_uint256"
      },
      {
        "astId": 3306,
        "contract": "contracts/FlatLaunchpeg.sol:FlatLaunchpeg",
        "label": "joeFeePercent",
        "offset": 0,
        "slot": "409",
        "type": "t_uint256"
      },
      {
        "astId": 3310,
        "contract": "contracts/FlatLaunchpeg.sol:FlatLaunchpeg",
        "label": "joeFeeCollector",
        "offset": 0,
        "slot": "410",
        "type": "t_address"
      },
      {
        "astId": 3318,
        "contract": "contracts/FlatLaunchpeg.sol:FlatLaunchpeg",
        "label": "baseURI",
        "offset": 0,
        "slot": "411",
        "type": "t_string_storage"
      },
      {
        "astId": 3322,
        "contract": "contracts/FlatLaunchpeg.sol:FlatLaunchpeg",
        "label": "unrevealedURI",
        "offset": 0,
        "slot": "412",
        "type": "t_string_storage"
      },
      {
        "astId": 3328,
        "contract": "contracts/FlatLaunchpeg.sol:FlatLaunchpeg",
        "label": "allowlist",
        "offset": 0,
        "slot": "413",
        "type": "t_mapping(t_address,t_uint256)"
      },
      {
        "astId": 3333,
        "contract": "contracts/FlatLaunchpeg.sol:FlatLaunchpeg",
        "label": "userAddressToPreMintAmount",
        "offset": 0,
        "slot": "414",
        "type": "t_mapping(t_address,t_uint256)"
      },
      {
        "astId": 3337,
        "contract": "contracts/FlatLaunchpeg.sol:FlatLaunchpeg",
        "label": "amountMintedByDevs",
        "offset": 0,
        "slot": "415",
        "type": "t_uint256"
      },
      {
        "astId": 3341,
        "contract": "contracts/FlatLaunchpeg.sol:FlatLaunchpeg",
        "label": "amountMintedDuringPreMint",
        "offset": 0,
        "slot": "416",
        "type": "t_uint256"
      },
      {
        "astId": 3345,
        "contract": "contracts/FlatLaunchpeg.sol:FlatLaunchpeg",
        "label": "amountBatchMinted",
        "offset": 0,
        "slot": "417",
        "type": "t_uint256"
      },
      {
        "astId": 3349,
        "contract": "contracts/FlatLaunchpeg.sol:FlatLaunchpeg",
        "label": "amountMintedDuringAllowlist",
        "offset": 0,
        "slot": "418",
        "type": "t_uint256"
      },
      {
        "astId": 3353,
        "contract": "contracts/FlatLaunchpeg.sol:FlatLaunchpeg",
        "label": "amountMintedDuringPublicSale",
        "offset": 0,
        "slot": "419",
        "type": "t_uint256"
      },
      {
        "astId": 3357,
        "contract": "contracts/FlatLaunchpeg.sol:FlatLaunchpeg",
        "label": "preMintStartTime",
        "offset": 0,
        "slot": "420",
        "type": "t_uint256"
      },
      {
        "astId": 3361,
        "contract": "contracts/FlatLaunchpeg.sol:FlatLaunchpeg",
        "label": "allowlistStartTime",
        "offset": 0,
        "slot": "421",
        "type": "t_uint256"
      },
      {
        "astId": 3365,
        "contract": "contracts/FlatLaunchpeg.sol:FlatLaunchpeg",
        "label": "publicSaleStartTime",
        "offset": 0,
        "slot": "422",
        "type": "t_uint256"
      },
      {
        "astId": 3369,
        "contract": "contracts/FlatLaunchpeg.sol:FlatLaunchpeg",
        "label": "publicSaleEndTime",
        "offset": 0,
        "slot": "423",
        "type": "t_uint256"
      },
      {
        "astId": 3373,
        "contract": "contracts/FlatLaunchpeg.sol:FlatLaunchpeg",
        "label": "withdrawAVAXStartTime",
        "offset": 0,
        "slot": "424",
        "type": "t_uint256"
      },
      {
        "astId": 3378,
        "contract": "contracts/FlatLaunchpeg.sol:FlatLaunchpeg",
        "label": "preMintQueue",
        "offset": 0,
        "slot": "425",
        "type": "t_array(t_struct(PreMintData)3386_storage)dyn_storage"
      },
      {
        "astId": 3381,
        "contract": "contracts/FlatLaunchpeg.sol:FlatLaunchpeg",
        "label": "preMintQueueIdx",
        "offset": 0,
        "slot": "426",
        "type": "t_uint256"
      },
      {
        "astId": 6172,
        "contract": "contracts/FlatLaunchpeg.sol:FlatLaunchpeg",
        "label": "allowlistPrice",
        "offset": 0,
        "slot": "427",
        "type": "t_uint256"
      },
      {
        "astId": 6176,
        "contract": "contracts/FlatLaunchpeg.sol:FlatLaunchpeg",
        "label": "salePrice",
        "offset": 0,
        "slot": "428",
        "type": "t_uint256"
      }
    ],
    "types": {
      "t_address": {
        "encoding": "inplace",
        "label": "address",
        "numberOfBytes": "20"
      },
      "t_array(t_bytes32)dyn_storage": {
        "base": "t_bytes32",
        "encoding": "dynamic_array",
        "label": "bytes32[]",
        "numberOfBytes": "32"
      },
      "t_array(t_struct(PreMintData)3386_storage)dyn_storage": {
        "base": "t_struct(PreMintData)3386_storage",
        "encoding": "dynamic_array",
        "label": "struct BaseLaunchpeg.PreMintData[]",
        "numberOfBytes": "32"
      },
      "t_array(t_uint256)42_storage": {
        "base": "t_uint256",
        "encoding": "inplace",
        "label": "uint256[42]",
        "numberOfBytes": "1344"
      },
      "t_array(t_uint256)48_storage": {
        "base": "t_uint256",
        "encoding": "inplace",
        "label": "uint256[48]",
        "numberOfBytes": "1536"
      },
      "t_array(t_uint256)49_storage": {
        "base": "t_uint256",
        "encoding": "inplace",
        "label": "uint256[49]",
        "numberOfBytes": "1568"
      },
      "t_array(t_uint256)50_storage": {
        "base": "t_uint256",
        "encoding": "inplace",
        "label": "uint256[50]",
        "numberOfBytes": "1600"
      },
      "t_bool": {
        "encoding": "inplace",
        "label": "bool",
        "numberOfBytes": "1"
      },
      "t_bytes32": {
        "encoding": "inplace",
        "label": "bytes32",
        "numberOfBytes": "32"
      },
      "t_contract(IBatchReveal)10547": {
        "encoding": "inplace",
        "label": "contract IBatchReveal",
        "numberOfBytes": "20"
      },
      "t_mapping(t_address,t_bool)": {
        "encoding": "mapping",
        "key": "t_address",
        "label": "mapping(address => bool)",
        "numberOfBytes": "32",
        "value": "t_bool"
      },
      "t_mapping(t_address,t_mapping(t_address,t_bool))": {
        "encoding": "mapping",
        "key": "t_address",
        "label": "mapping(address => mapping(address => bool))",
        "numberOfBytes": "32",
        "value": "t_mapping(t_address,t_bool)"
      },
      "t_mapping(t_address,t_struct(AddressData)11648_storage)": {
        "encoding": "mapping",
        "key": "t_address",
        "label": "mapping(address => struct ERC721AUpgradeable.AddressData)",
        "numberOfBytes": "32",
        "value": "t_struct(AddressData)11648_storage"
      },
      "t_mapping(t_address,t_uint256)": {
        "encoding": "mapping",
        "key": "t_address",
        "label": "mapping(address => uint256)",
        "numberOfBytes": "32",
        "value": "t_uint256"
      },
      "t_mapping(t_bytes32,t_struct(AddressSet)2282_storage)": {
        "encoding": "mapping",
        "key": "t_bytes32",
        "label": "mapping(bytes32 => struct EnumerableSetUpgradeable.AddressSet)",
        "numberOfBytes": "32",
        "value": "t_struct(AddressSet)2282_storage"
      },
      "t_mapping(t_bytes32,t_struct(RoleData)268_storage)": {
        "encoding": "mapping",
        "key": "t_bytes32",
        "label": "mapping(bytes32 => struct AccessControlUpgradeable.RoleData)",
        "numberOfBytes": "32",
        "value": "t_struct(RoleData)268_storage"
      },
      "t_mapping(t_bytes32,t_uint256)": {
        "encoding": "mapping",
        "key": "t_bytes32",
        "label": "mapping(bytes32 => uint256)",
        "numberOfBytes": "32",
        "value": "t_uint256"
      },
      "t_mapping(t_uint256,t_address)": {
        "encoding": "mapping",
        "key": "t_uint256",
        "label": "mapping(uint256 => address)",
        "numberOfBytes": "32",
        "value": "t_address"
      },
      "t_mapping(t_uint256,t_struct(RoyaltyInfo)1237_storage)": {
        "encoding": "mapping",
        "key": "t_uint256",
        "label": "mapping(uint256 => struct ERC2981Upgradeable.RoyaltyInfo)",
        "numberOfBytes": "32",
        "value": "t_struct(RoyaltyInfo)1237_storage"
      },
      "t_mapping(t_uint256,t_struct(TokenOwnership)11639_storage)": {
        "encoding": "mapping",
        "key": "t_uint256",
        "label": "mapping(uint256 => struct ERC721AUpgradeable.TokenOwnership)",
        "numberOfBytes": "32",
        "value": "t_struct(TokenOwnership)11639_storage"
      },
      "t_string_storage": {
        "encoding": "bytes",
        "label": "string",
        "numberOfBytes": "32"
      },
      "t_struct(AddressData)11648_storage": {
        "encoding": "inplace",
        "label": "struct ERC721AUpgradeable.AddressData",
        "members": [
          {
            "astId": 11641,
            "contract": "contracts/FlatLaunchpeg.sol:FlatLaunchpeg",
            "label": "balance",
            "offset": 0,
            "slot": "0",
            "type": "t_uint64"
          },
          {
            "astId": 11643,
            "contract": "contracts/FlatLaunchpeg.sol:FlatLaunchpeg",
            "label": "numberMinted",
            "offset": 8,
            "slot": "0",
            "type": "t_uint64"
          },
          {
            "astId": 11645,
            "contract": "contracts/FlatLaunchpeg.sol:FlatLaunchpeg",
            "label": "numberBurned",
            "offset": 16,
            "slot": "0",
            "type": "t_uint64"
          },
          {
            "astId": 11647,
            "contract": "contracts/FlatLaunchpeg.sol:FlatLaunchpeg",
            "label": "aux",
            "offset": 24,
            "slot": "0",
            "type": "t_uint64"
          }
        ],
        "numberOfBytes": "32"
      },
      "t_struct(AddressSet)2282_storage": {
        "encoding": "inplace",
        "label": "struct EnumerableSetUpgradeable.AddressSet",
        "members": [
          {
            "astId": 2281,
            "contract": "contracts/FlatLaunchpeg.sol:FlatLaunchpeg",
            "label": "_inner",
            "offset": 0,
            "slot": "0",
            "type": "t_struct(Set)1981_storage"
          }
        ],
        "numberOfBytes": "64"
      },
      "t_struct(PreMintData)3386_storage": {
        "encoding": "inplace",
        "label": "struct BaseLaunchpeg.PreMintData",
        "members": [
          {
            "astId": 3383,
            "contract": "contracts/FlatLaunchpeg.sol:FlatLaunchpeg",
            "label": "sender",
            "offset": 0,
            "slot": "0",
            "type": "t_address"
          },
          {
            "astId": 3385,
            "contract": "contracts/FlatLaunchpeg.sol:FlatLaunchpeg",
            "label": "quantity",
            "offset": 0,
            "slot": "1",
            "type": "t_uint256"
          }
        ],
        "numberOfBytes": "64"
      },
      "t_struct(RoleData)268_storage": {
        "encoding": "inplace",
        "label": "struct AccessControlUpgradeable.RoleData",
        "members": [
          {
            "astId": 265,
            "contract": "contracts/FlatLaunchpeg.sol:FlatLaunchpeg",
            "label": "members",
            "offset": 0,
            "slot": "0",
            "type": "t_mapping(t_address,t_bool)"
          },
          {
            "astId": 267,
            "contract": "contracts/FlatLaunchpeg.sol:FlatLaunchpeg",
            "label": "adminRole",
            "offset": 0,
            "slot": "1",
            "type": "t_bytes32"
          }
        ],
        "numberOfBytes": "64"
      },
      "t_struct(RoyaltyInfo)1237_storage": {
        "encoding": "inplace",
        "label": "struct ERC2981Upgradeable.RoyaltyInfo",
        "members": [
          {
            "astId": 1234,
            "contract": "contracts/FlatLaunchpeg.sol:FlatLaunchpeg",
            "label": "receiver",
            "offset": 0,
            "slot": "0",
            "type": "t_address"
          },
          {
            "astId": 1236,
            "contract": "contracts/FlatLaunchpeg.sol:FlatLaunchpeg",
            "label": "royaltyFraction",
            "offset": 20,
            "slot": "0",
            "type": "t_uint96"
          }
        ],
        "numberOfBytes": "32"
      },
      "t_struct(Set)1981_storage": {
        "encoding": "inplace",
        "label": "struct EnumerableSetUpgradeable.Set",
        "members": [
          {
            "astId": 1976,
            "contract": "contracts/FlatLaunchpeg.sol:FlatLaunchpeg",
            "label": "_values",
            "offset": 0,
            "slot": "0",
            "type": "t_array(t_bytes32)dyn_storage"
          },
          {
            "astId": 1980,
            "contract": "contracts/FlatLaunchpeg.sol:FlatLaunchpeg",
            "label": "_indexes",
            "offset": 0,
            "slot": "1",
            "type": "t_mapping(t_bytes32,t_uint256)"
          }
        ],
        "numberOfBytes": "64"
      },
      "t_struct(TokenOwnership)11639_storage": {
        "encoding": "inplace",
        "label": "struct ERC721AUpgradeable.TokenOwnership",
        "members": [
          {
            "astId": 11634,
            "contract": "contracts/FlatLaunchpeg.sol:FlatLaunchpeg",
            "label": "addr",
            "offset": 0,
            "slot": "0",
            "type": "t_address"
          },
          {
            "astId": 11636,
            "contract": "contracts/FlatLaunchpeg.sol:FlatLaunchpeg",
            "label": "startTimestamp",
            "offset": 20,
            "slot": "0",
            "type": "t_uint64"
          },
          {
            "astId": 11638,
            "contract": "contracts/FlatLaunchpeg.sol:FlatLaunchpeg",
            "label": "burned",
            "offset": 28,
            "slot": "0",
            "type": "t_bool"
          }
        ],
        "numberOfBytes": "32"
      },
      "t_uint256": {
        "encoding": "inplace",
        "label": "uint256",
        "numberOfBytes": "32"
      },
      "t_uint64": {
        "encoding": "inplace",
        "label": "uint64",
        "numberOfBytes": "8"
      },
      "t_uint96": {
        "encoding": "inplace",
        "label": "uint96",
        "numberOfBytes": "12"
      }
    }
  }
}