{
  "address": "0xDafDc4f3Aec07356bbAb1383D58CD7C6Ec392B37",
  "abi": [
    {
      "inputs": [
        {
          "internalType": "address",
          "name": "_launchpegFactory",
          "type": "address"
        },
        {
          "internalType": "address",
          "name": "_batchReveal",
          "type": "address"
        }
      ],
      "stateMutability": "nonpayable",
      "type": "constructor"
    },
    {
      "inputs": [],
      "name": "LaunchpegLens__InvalidContract",
      "type": "error"
    },
    {
      "inputs": [],
      "name": "batchReveal",
      "outputs": [
        {
          "internalType": "address",
          "name": "",
          "type": "address"
        }
      ],
      "stateMutability": "view",
      "type": "function"
    },
    {
      "inputs": [],
      "name": "flatLaunchpegInterface",
      "outputs": [
        {
          "internalType": "bytes4",
          "name": "",
          "type": "bytes4"
        }
      ],
      "stateMutability": "view",
      "type": "function"
    },
    {
      "inputs": [
        {
          "internalType": "uint8",
          "name": "_type",
          "type": "uint8"
        },
        {
          "internalType": "uint256",
          "name": "_number",
          "type": "uint256"
        },
        {
          "internalType": "uint256",
          "name": "_limit",
          "type": "uint256"
        },
        {
          "internalType": "address",
          "name": "_user",
          "type": "address"
        }
      ],
      "name": "getAllLaunchpegsFromType",
      "outputs": [
        {
          "components": [
            {
              "internalType": "address",
              "name": "id",
              "type": "address"
            },
            {
              "internalType": "enum LaunchpegLens.LaunchpegType",
              "name": "launchType",
              "type": "uint8"
            },
            {
              "components": [
                {
                  "internalType": "string",
                  "name": "name",
                  "type": "string"
                },
                {
                  "internalType": "string",
                  "name": "symbol",
                  "type": "string"
                },
                {
                  "internalType": "uint256",
                  "name": "collectionSize",
                  "type": "uint256"
                },
                {
                  "internalType": "uint256",
                  "name": "maxBatchSize",
                  "type": "uint256"
                },
                {
                  "internalType": "uint256",
                  "name": "totalSupply",
                  "type": "uint256"
                },
                {
                  "internalType": "string",
                  "name": "unrevealedURI",
                  "type": "string"
                },
                {
                  "internalType": "string",
                  "name": "baseURI",
                  "type": "string"
                }
              ],
              "internalType": "struct LaunchpegLens.CollectionData",
              "name": "collectionData",
              "type": "tuple"
            },
            {
              "components": [
                {
                  "internalType": "uint256",
                  "name": "amountForAuction",
                  "type": "uint256"
                },
                {
                  "internalType": "uint256",
                  "name": "amountForAllowlist",
                  "type": "uint256"
                },
                {
                  "internalType": "uint256",
                  "name": "amountForDevs",
                  "type": "uint256"
                },
                {
                  "internalType": "uint256",
                  "name": "auctionSaleStartTime",
                  "type": "uint256"
                },
                {
                  "internalType": "uint256",
                  "name": "preMintStartTime",
                  "type": "uint256"
                },
                {
                  "internalType": "uint256",
                  "name": "allowlistStartTime",
                  "type": "uint256"
                },
                {
                  "internalType": "uint256",
                  "name": "publicSaleStartTime",
                  "type": "uint256"
                },
                {
                  "internalType": "uint256",
                  "name": "publicSaleEndTime",
                  "type": "uint256"
                },
                {
                  "internalType": "uint256",
                  "name": "auctionStartPrice",
                  "type": "uint256"
                },
                {
                  "internalType": "uint256",
                  "name": "auctionEndPrice",
                  "type": "uint256"
                },
                {
                  "internalType": "uint256",
                  "name": "auctionSaleDuration",
                  "type": "uint256"
                },
                {
                  "internalType": "uint256",
                  "name": "auctionDropInterval",
                  "type": "uint256"
                },
                {
                  "internalType": "uint256",
                  "name": "auctionDropPerStep",
                  "type": "uint256"
                },
                {
                  "internalType": "uint256",
                  "name": "allowlistDiscountPercent",
                  "type": "uint256"
                },
                {
                  "internalType": "uint256",
                  "name": "publicSaleDiscountPercent",
                  "type": "uint256"
                },
                {
                  "internalType": "enum IBaseLaunchpeg.Phase",
                  "name": "currentPhase",
                  "type": "uint8"
                },
                {
                  "internalType": "uint256",
                  "name": "auctionPrice",
                  "type": "uint256"
                },
                {
                  "internalType": "uint256",
                  "name": "allowlistPrice",
                  "type": "uint256"
                },
                {
                  "internalType": "uint256",
                  "name": "publicSalePrice",
                  "type": "uint256"
                },
                {
                  "internalType": "uint256",
                  "name": "amountMintedDuringAuction",
                  "type": "uint256"
                },
                {
                  "internalType": "uint256",
                  "name": "lastAuctionPrice",
                  "type": "uint256"
                },
                {
                  "internalType": "uint256",
                  "name": "amountMintedDuringPreMint",
                  "type": "uint256"
                },
                {
                  "internalType": "uint256",
                  "name": "amountMintedDuringAllowlist",
                  "type": "uint256"
                },
                {
                  "internalType": "uint256",
                  "name": "amountMintedDuringPublicSale",
                  "type": "uint256"
                }
              ],
              "internalType": "struct LaunchpegLens.LaunchpegData",
              "name": "launchpegData",
              "type": "tuple"
            },
            {
              "components": [
                {
                  "internalType": "enum IBaseLaunchpeg.Phase",
                  "name": "currentPhase",
                  "type": "uint8"
                },
                {
                  "internalType": "uint256",
                  "name": "amountForAllowlist",
                  "type": "uint256"
                },
                {
                  "internalType": "uint256",
                  "name": "amountForDevs",
                  "type": "uint256"
                },
                {
                  "internalType": "uint256",
                  "name": "preMintStartTime",
                  "type": "uint256"
                },
                {
                  "internalType": "uint256",
                  "name": "allowlistStartTime",
                  "type": "uint256"
                },
                {
                  "internalType": "uint256",
                  "name": "publicSaleStartTime",
                  "type": "uint256"
                },
                {
                  "internalType": "uint256",
                  "name": "publicSaleEndTime",
                  "type": "uint256"
                },
                {
                  "internalType": "uint256",
                  "name": "allowlistPrice",
                  "type": "uint256"
                },
                {
                  "internalType": "uint256",
                  "name": "salePrice",
                  "type": "uint256"
                },
                {
                  "internalType": "uint256",
                  "name": "amountMintedDuringPreMint",
                  "type": "uint256"
                },
                {
                  "internalType": "uint256",
                  "name": "amountMintedDuringAllowlist",
                  "type": "uint256"
                },
                {
                  "internalType": "uint256",
                  "name": "amountMintedDuringPublicSale",
                  "type": "uint256"
                }
              ],
              "internalType": "struct LaunchpegLens.FlatLaunchpegData",
              "name": "flatLaunchpegData",
              "type": "tuple"
            },
            {
              "components": [
                {
                  "internalType": "uint256",
                  "name": "revealBatchSize",
                  "type": "uint256"
                },
                {
                  "internalType": "uint256",
                  "name": "lastTokenRevealed",
                  "type": "uint256"
                },
                {
                  "internalType": "uint256",
                  "name": "revealStartTime",
                  "type": "uint256"
                },
                {
                  "internalType": "uint256",
                  "name": "revealInterval",
                  "type": "uint256"
                }
              ],
              "internalType": "struct LaunchpegLens.RevealData",
              "name": "revealData",
              "type": "tuple"
            },
            {
              "components": [
                {
                  "internalType": "uint256",
                  "name": "balanceOf",
                  "type": "uint256"
                },
                {
                  "internalType": "uint256",
                  "name": "numberMinted",
                  "type": "uint256"
                },
                {
                  "internalType": "uint256",
                  "name": "numberMintedWithPreMint",
                  "type": "uint256"
                },
                {
                  "internalType": "uint256",
                  "name": "allowanceForAllowlistMint",
                  "type": "uint256"
                }
              ],
              "internalType": "struct LaunchpegLens.UserData",
              "name": "userData",
              "type": "tuple"
            },
            {
              "components": [
                {
                  "internalType": "address[]",
                  "name": "projectOwners",
                  "type": "address[]"
                },
                {
                  "internalType": "uint256",
                  "name": "amountMintedByDevs",
                  "type": "uint256"
                },
                {
                  "internalType": "uint256",
                  "name": "withdrawAVAXStartTime",
                  "type": "uint256"
                },
                {
                  "internalType": "uint256",
                  "name": "launchpegBalanceAVAX",
                  "type": "uint256"
                }
              ],
              "internalType": "struct LaunchpegLens.ProjectOwnerData",
              "name": "projectOwnerData",
              "type": "tuple"
            }
          ],
          "internalType": "struct LaunchpegLens.LensData[]",
          "name": "",
          "type": "tuple[]"
        }
      ],
      "stateMutability": "view",
      "type": "function"
    },
    {
      "inputs": [
        {
          "internalType": "address",
          "name": "_launchpeg",
          "type": "address"
        },
        {
          "internalType": "address",
          "name": "_user",
          "type": "address"
        }
      ],
      "name": "getLaunchpegData",
      "outputs": [
        {
          "components": [
            {
              "internalType": "address",
              "name": "id",
              "type": "address"
            },
            {
              "internalType": "enum LaunchpegLens.LaunchpegType",
              "name": "launchType",
              "type": "uint8"
            },
            {
              "components": [
                {
                  "internalType": "string",
                  "name": "name",
                  "type": "string"
                },
                {
                  "internalType": "string",
                  "name": "symbol",
                  "type": "string"
                },
                {
                  "internalType": "uint256",
                  "name": "collectionSize",
                  "type": "uint256"
                },
                {
                  "internalType": "uint256",
                  "name": "maxBatchSize",
                  "type": "uint256"
                },
                {
                  "internalType": "uint256",
                  "name": "totalSupply",
                  "type": "uint256"
                },
                {
                  "internalType": "string",
                  "name": "unrevealedURI",
                  "type": "string"
                },
                {
                  "internalType": "string",
                  "name": "baseURI",
                  "type": "string"
                }
              ],
              "internalType": "struct LaunchpegLens.CollectionData",
              "name": "collectionData",
              "type": "tuple"
            },
            {
              "components": [
                {
                  "internalType": "uint256",
                  "name": "amountForAuction",
                  "type": "uint256"
                },
                {
                  "internalType": "uint256",
                  "name": "amountForAllowlist",
                  "type": "uint256"
                },
                {
                  "internalType": "uint256",
                  "name": "amountForDevs",
                  "type": "uint256"
                },
                {
                  "internalType": "uint256",
                  "name": "auctionSaleStartTime",
                  "type": "uint256"
                },
                {
                  "internalType": "uint256",
                  "name": "preMintStartTime",
                  "type": "uint256"
                },
                {
                  "internalType": "uint256",
                  "name": "allowlistStartTime",
                  "type": "uint256"
                },
                {
                  "internalType": "uint256",
                  "name": "publicSaleStartTime",
                  "type": "uint256"
                },
                {
                  "internalType": "uint256",
                  "name": "publicSaleEndTime",
                  "type": "uint256"
                },
                {
                  "internalType": "uint256",
                  "name": "auctionStartPrice",
                  "type": "uint256"
                },
                {
                  "internalType": "uint256",
                  "name": "auctionEndPrice",
                  "type": "uint256"
                },
                {
                  "internalType": "uint256",
                  "name": "auctionSaleDuration",
                  "type": "uint256"
                },
                {
                  "internalType": "uint256",
                  "name": "auctionDropInterval",
                  "type": "uint256"
                },
                {
                  "internalType": "uint256",
                  "name": "auctionDropPerStep",
                  "type": "uint256"
                },
                {
                  "internalType": "uint256",
                  "name": "allowlistDiscountPercent",
                  "type": "uint256"
                },
                {
                  "internalType": "uint256",
                  "name": "publicSaleDiscountPercent",
                  "type": "uint256"
                },
                {
                  "internalType": "enum IBaseLaunchpeg.Phase",
                  "name": "currentPhase",
                  "type": "uint8"
                },
                {
                  "internalType": "uint256",
                  "name": "auctionPrice",
                  "type": "uint256"
                },
                {
                  "internalType": "uint256",
                  "name": "allowlistPrice",
                  "type": "uint256"
                },
                {
                  "internalType": "uint256",
                  "name": "publicSalePrice",
                  "type": "uint256"
                },
                {
                  "internalType": "uint256",
                  "name": "amountMintedDuringAuction",
                  "type": "uint256"
                },
                {
                  "internalType": "uint256",
                  "name": "lastAuctionPrice",
                  "type": "uint256"
                },
                {
                  "internalType": "uint256",
                  "name": "amountMintedDuringPreMint",
                  "type": "uint256"
                },
                {
                  "internalType": "uint256",
                  "name": "amountMintedDuringAllowlist",
                  "type": "uint256"
                },
                {
                  "internalType": "uint256",
                  "name": "amountMintedDuringPublicSale",
                  "type": "uint256"
                }
              ],
              "internalType": "struct LaunchpegLens.LaunchpegData",
              "name": "launchpegData",
              "type": "tuple"
            },
            {
              "components": [
                {
                  "internalType": "enum IBaseLaunchpeg.Phase",
                  "name": "currentPhase",
                  "type": "uint8"
                },
                {
                  "internalType": "uint256",
                  "name": "amountForAllowlist",
                  "type": "uint256"
                },
                {
                  "internalType": "uint256",
                  "name": "amountForDevs",
                  "type": "uint256"
                },
                {
                  "internalType": "uint256",
                  "name": "preMintStartTime",
                  "type": "uint256"
                },
                {
                  "internalType": "uint256",
                  "name": "allowlistStartTime",
                  "type": "uint256"
                },
                {
                  "internalType": "uint256",
                  "name": "publicSaleStartTime",
                  "type": "uint256"
                },
                {
                  "internalType": "uint256",
                  "name": "publicSaleEndTime",
                  "type": "uint256"
                },
                {
                  "internalType": "uint256",
                  "name": "allowlistPrice",
                  "type": "uint256"
                },
                {
                  "internalType": "uint256",
                  "name": "salePrice",
                  "type": "uint256"
                },
                {
                  "internalType": "uint256",
                  "name": "amountMintedDuringPreMint",
                  "type": "uint256"
                },
                {
                  "internalType": "uint256",
                  "name": "amountMintedDuringAllowlist",
                  "type": "uint256"
                },
                {
                  "internalType": "uint256",
                  "name": "amountMintedDuringPublicSale",
                  "type": "uint256"
                }
              ],
              "internalType": "struct LaunchpegLens.FlatLaunchpegData",
              "name": "flatLaunchpegData",
              "type": "tuple"
            },
            {
              "components": [
                {
                  "internalType": "uint256",
                  "name": "revealBatchSize",
                  "type": "uint256"
                },
                {
                  "internalType": "uint256",
                  "name": "lastTokenRevealed",
                  "type": "uint256"
                },
                {
                  "internalType": "uint256",
                  "name": "revealStartTime",
                  "type": "uint256"
                },
                {
                  "internalType": "uint256",
                  "name": "revealInterval",
                  "type": "uint256"
                }
              ],
              "internalType": "struct LaunchpegLens.RevealData",
              "name": "revealData",
              "type": "tuple"
            },
            {
              "components": [
                {
                  "internalType": "uint256",
                  "name": "balanceOf",
                  "type": "uint256"
                },
                {
                  "internalType": "uint256",
                  "name": "numberMinted",
                  "type": "uint256"
                },
                {
                  "internalType": "uint256",
                  "name": "numberMintedWithPreMint",
                  "type": "uint256"
                },
                {
                  "internalType": "uint256",
                  "name": "allowanceForAllowlistMint",
                  "type": "uint256"
                }
              ],
              "internalType": "struct LaunchpegLens.UserData",
              "name": "userData",
              "type": "tuple"
            },
            {
              "components": [
                {
                  "internalType": "address[]",
                  "name": "projectOwners",
                  "type": "address[]"
                },
                {
                  "internalType": "uint256",
                  "name": "amountMintedByDevs",
                  "type": "uint256"
                },
                {
                  "internalType": "uint256",
                  "name": "withdrawAVAXStartTime",
                  "type": "uint256"
                },
                {
                  "internalType": "uint256",
                  "name": "launchpegBalanceAVAX",
                  "type": "uint256"
                }
              ],
              "internalType": "struct LaunchpegLens.ProjectOwnerData",
              "name": "projectOwnerData",
              "type": "tuple"
            }
          ],
          "internalType": "struct LaunchpegLens.LensData",
          "name": "",
          "type": "tuple"
        }
      ],
      "stateMutability": "view",
      "type": "function"
    },
    {
      "inputs": [
        {
          "internalType": "address",
          "name": "_contract",
          "type": "address"
        }
      ],
      "name": "getLaunchpegType",
      "outputs": [
        {
          "internalType": "enum LaunchpegLens.LaunchpegType",
          "name": "",
          "type": "uint8"
        }
      ],
      "stateMutability": "view",
      "type": "function"
    },
    {
      "inputs": [],
      "name": "launchpegFactory",
      "outputs": [
        {
          "internalType": "address",
          "name": "",
          "type": "address"
        }
      ],
      "stateMutability": "view",
      "type": "function"
    },
    {
      "inputs": [],
      "name": "launchpegInterface",
      "outputs": [
        {
          "internalType": "bytes4",
          "name": "",
          "type": "bytes4"
        }
      ],
      "stateMutability": "view",
      "type": "function"
    }
  ],
  "transactionHash": "0x891411cc53abe3474725cf2f0a06907a3e97948bb82dd000b71ba5deca8cbc9d",
  "args": [
    "0x970c2136bC3a89483e09744698CD8C1bE2Ed68b5",
    "0xc6B3ccaEE924F20dD0E11429c7B983BC2BB22155"
  ],
  "numDeployments": 15,
  "solcInputHash": "9fcfc79ef608d577aafb8c60da938cae",
  "bytecode": "0x6101006040523480156200001257600080fd5b5060405162002d3038038062002d30833981016040819052620000359162000087565b63399d9fdf60e11b608052633502dbf760e11b60a0526001600160601b0319606092831b811660c052911b1660e052620000bf565b80516001600160a01b03811681146200008257600080fd5b919050565b600080604083850312156200009b57600080fd5b620000a6836200006a565b9150620000b6602084016200006a565b90509250929050565b60805160e01c60e01b60a05160e01c60e01b60c05160601c60e05160601c612bfd6200013360003960008181608701528181610aaa0152610b66015260008181610152015281816101dc01526102ff01526000818161010b01526104be01526000818160cb015261040d0152612bfd6000f3fe608060405234801561001057600080fd5b506004361061007d5760003560e01c8063913418921161005b578063913418921461012d57806395d2a8441461014d578063a6a7b3ea14610174578063d0b54b3b1461019457600080fd5b806321cc1611146100825780637c50ba7a146100c65780637d4510a714610106575b600080fd5b6100a97f000000000000000000000000000000000000000000000000000000000000000081565b6040516001600160a01b0390911681526020015b60405180910390f35b6100ed7f000000000000000000000000000000000000000000000000000000000000000081565b6040516001600160e01b031990911681526020016100bd565b6100ed7f000000000000000000000000000000000000000000000000000000000000000081565b61014061013b366004612672565b6101b4565b6040516100bd9190612a72565b6100a97f000000000000000000000000000000000000000000000000000000000000000081565b6101876101823660046124a0565b6103f5565b6040516100bd9190612ad4565b6101a76101a23660046124e1565b61055c565b6040516100bd9190612ae2565b604051631ddbc6c760e21b815260ff8516600482015260609081906000906001600160a01b037f0000000000000000000000000000000000000000000000000000000000000000169063776f1b1c9060240160206040518083038186803b15801561021e57600080fd5b505afa158015610232573d6000803e3d6000fd5b505050506040513d601f19601f82011682018060405250810190610256919061253c565b905060008186116102675785610269565b815b905060008188116102835761027e8883612af5565b610286565b60005b90506102928183612af5565b67ffffffffffffffff8111156102aa576102aa612b99565b6040519080825280602002602001820160405280156102e357816020015b6102d0612273565b8152602001906001900390816102c85790505b50935060005b84518110156103e7576103b76001600160a01b037f00000000000000000000000000000000000000000000000000000000000000001663306ec7488c84610331600189612af5565b61033b9190612af5565b6040516001600160e01b031960e085901b16815260ff9092166004830152602482015260440160206040518083038186803b15801561037957600080fd5b505afa15801561038d573d6000803e3d6000fd5b505050506040513d601f19601f820116820180604052508101906103b191906124c4565b8861055c565b8582815181106103c9576103c9612b83565b602002602001018190525080806103df90612b3c565b9150506102e9565b509298975050505050505050565b6040516301ffc9a760e01b81526001600160e01b03197f00000000000000000000000000000000000000000000000000000000000000001660048201526000906001600160a01b038316906301ffc9a79060240160206040518083038186803b15801561046157600080fd5b505afa158015610475573d6000803e3d6000fd5b505050506040513d601f19601f82011682018060405250810190610499919061251a565b156104a657506001919050565b6040516301ffc9a760e01b81526001600160e01b03197f00000000000000000000000000000000000000000000000000000000000000001660048201526001600160a01b038316906301ffc9a79060240160206040518083038186803b15801561050f57600080fd5b505afa158015610523573d6000803e3d6000fd5b505050506040513d601f19601f82011682018060405250810190610547919061251a565b1561055457506002919050565b506000919050565b610564612273565b61056c612273565b6001600160a01b0384168152610581846103f5565b8160200190600281111561059757610597612b6d565b908160028111156105aa576105aa612b6d565b9052506000816020015160028111156105c5576105c5612b6d565b14156105e457604051630ca92ff360e31b815260040160405180910390fd5b836001600160a01b03166306fdde036040518163ffffffff1660e01b815260040160006040518083038186803b15801561061d57600080fd5b505afa158015610631573d6000803e3d6000fd5b505050506040513d6000823e601f3d908101601f191682016040526106599190810190612576565b816040015160000181905250836001600160a01b03166395d89b416040518163ffffffff1660e01b815260040160006040518083038186803b15801561069e57600080fd5b505afa1580156106b2573d6000803e3d6000fd5b505050506040513d6000823e601f3d908101601f191682016040526106da9190810190612576565b816040015160200181905250836001600160a01b03166345c0f5336040518163ffffffff1660e01b815260040160206040518083038186803b15801561071f57600080fd5b505afa158015610733573d6000803e3d6000fd5b505050506040513d601f19601f82011682018060405250810190610757919061253c565b81604001516040018181525050836001600160a01b0316632913daa06040518163ffffffff1660e01b815260040160206040518083038186803b15801561079d57600080fd5b505afa1580156107b1573d6000803e3d6000fd5b505050506040513d601f19601f820116820180604052508101906107d5919061253c565b81604001516060018181525050836001600160a01b03166318160ddd6040518163ffffffff1660e01b815260040160206040518083038186803b15801561081b57600080fd5b505afa15801561082f573d6000803e3d6000fd5b505050506040513d601f19601f82011682018060405250810190610853919061253c565b81604001516080018181525050836001600160a01b0316637035bf186040518163ffffffff1660e01b815260040160006040518083038186803b15801561089957600080fd5b505afa1580156108ad573d6000803e3d6000fd5b505050506040513d6000823e601f3d908101601f191682016040526108d59190810190612576565b816040015160a00181905250836001600160a01b0316636c0360eb6040518163ffffffff1660e01b815260040160006040518083038186803b15801561091a57600080fd5b505afa15801561092e573d6000803e3d6000fd5b505050506040513d6000823e601f3d908101601f191682016040526109569190810190612576565b604082015160c0015261096884612068565b8160e0015160000181905250836001600160a01b031663c792e1676040518163ffffffff1660e01b815260040160206040518083038186803b1580156109ad57600080fd5b505afa1580156109c1573d6000803e3d6000fd5b505050506040513d601f19601f820116820180604052508101906109e5919061253c565b8160e001516040018181525050836001600160a01b0316318160e001516060018181525050836001600160a01b0316635c7034af6040518163ffffffff1660e01b815260040160206040518083038186803b158015610a4357600080fd5b505afa158015610a57573d6000803e3d6000fd5b505050506040513d601f19601f82011682018060405250810190610a7b919061253c565b60e082015160200152604051630303a4b160e31b81526001600160a01b038581166004830152600091829182917f00000000000000000000000000000000000000000000000000000000000000009091169063181d25889060240160a06040518083038186803b158015610aee57600080fd5b505afa158015610b02573d6000803e3d6000fd5b505050506040513d601f19601f82011682018060405250810190610b269190612623565b60a08901805184905280516040908101849052905160600182905251635e1578db60e11b81526001600160a01b038d8116600483015293985091965094507f0000000000000000000000000000000000000000000000000000000000000000909116925063bc2af1b6915060240160206040518083038186803b158015610bac57600080fd5b505afa158015610bc0573d6000803e3d6000fd5b505050506040513d601f19601f82011682018060405250810190610be4919061253c565b60a085015160200152600184602001516002811115610c0557610c05612b6d565b141561181b57866001600160a01b031663f7df4c5a6040518163ffffffff1660e01b815260040160206040518083038186803b158015610c4457600080fd5b505afa158015610c58573d6000803e3d6000fd5b505050506040513d601f19601f82011682018060405250810190610c7c919061253c565b84606001516000018181525050866001600160a01b031663d62b63036040518163ffffffff1660e01b815260040160206040518083038186803b158015610cc257600080fd5b505afa158015610cd6573d6000803e3d6000fd5b505050506040513d601f19601f82011682018060405250810190610cfa919061253c565b84606001516020018181525050866001600160a01b031663fbe1aa516040518163ffffffff1660e01b815260040160206040518083038186803b158015610d4057600080fd5b505afa158015610d54573d6000803e3d6000fd5b505050506040513d601f19601f82011682018060405250810190610d78919061253c565b84606001516040018181525050866001600160a01b031663fab2bf586040518163ffffffff1660e01b815260040160206040518083038186803b158015610dbe57600080fd5b505afa158015610dd2573d6000803e3d6000fd5b505050506040513d601f19601f82011682018060405250810190610df6919061253c565b84606001516060018181525050866001600160a01b03166362f4fb2d6040518163ffffffff1660e01b815260040160206040518083038186803b158015610e3c57600080fd5b505afa158015610e50573d6000803e3d6000fd5b505050506040513d601f19601f82011682018060405250810190610e74919061253c565b84606001516080018181525050866001600160a01b03166359d7bc4d6040518163ffffffff1660e01b815260040160206040518083038186803b158015610eba57600080fd5b505afa158015610ece573d6000803e3d6000fd5b505050506040513d601f19601f82011682018060405250810190610ef2919061253c565b846060015160a0018181525050866001600160a01b0316636bb7b1d96040518163ffffffff1660e01b815260040160206040518083038186803b158015610f3857600080fd5b505afa158015610f4c573d6000803e3d6000fd5b505050506040513d601f19601f82011682018060405250810190610f70919061253c565b846060015160c0018181525050866001600160a01b0316631e4d185f6040518163ffffffff1660e01b815260040160206040518083038186803b158015610fb657600080fd5b505afa158015610fca573d6000803e3d6000fd5b505050506040513d601f19601f82011682018060405250810190610fee919061253c565b846060015160e0018181525050866001600160a01b031663d756985b6040518163ffffffff1660e01b815260040160206040518083038186803b15801561103457600080fd5b505afa158015611048573d6000803e3d6000fd5b505050506040513d601f19601f8201168201806040525081019061106c919061253c565b8460600151610100018181525050866001600160a01b031663a04a6ac86040518163ffffffff1660e01b815260040160206040518083038186803b1580156110b357600080fd5b505afa1580156110c7573d6000803e3d6000fd5b505050506040513d601f19601f820116820180604052508101906110eb919061253c565b8460600151610120018181525050866001600160a01b0316630a212ee26040518163ffffffff1660e01b815260040160206040518083038186803b15801561113257600080fd5b505afa158015611146573d6000803e3d6000fd5b505050506040513d601f19601f8201168201806040525081019061116a919061253c565b8460600151610140018181525050866001600160a01b031663f243669b6040518163ffffffff1660e01b815260040160206040518083038186803b1580156111b157600080fd5b505afa1580156111c5573d6000803e3d6000fd5b505050506040513d601f19601f820116820180604052508101906111e9919061253c565b8460600151610160018181525050866001600160a01b031663e6fe34b36040518163ffffffff1660e01b815260040160206040518083038186803b15801561123057600080fd5b505afa158015611244573d6000803e3d6000fd5b505050506040513d601f19601f82011682018060405250810190611268919061253c565b8460600151610180018181525050866001600160a01b031663154895106040518163ffffffff1660e01b815260040160206040518083038186803b1580156112af57600080fd5b505afa1580156112c3573d6000803e3d6000fd5b505050506040513d601f19601f820116820180604052508101906112e7919061253c565b84606001516101a0018181525050866001600160a01b03166308a3fb4e6040518163ffffffff1660e01b815260040160206040518083038186803b15801561132e57600080fd5b505afa158015611342573d6000803e3d6000fd5b505050506040513d601f19601f82011682018060405250810190611366919061253c565b84606001516101c0018181525050866001600160a01b031663055ad42e6040518163ffffffff1660e01b815260040160206040518083038186803b1580156113ad57600080fd5b505afa1580156113c1573d6000803e3d6000fd5b505050506040513d601f19601f820116820180604052508101906113e59190612555565b84606001516101e00190600581111561140057611400612b6d565b9081600581111561141357611413612b6d565b90525060608481015101516040516348be804f60e11b815260048101919091526001600160a01b0388169063917d009e9060240160206040518083038186803b15801561145f57600080fd5b505afa158015611473573d6000803e3d6000fd5b505050506040513d601f19601f82011682018060405250810190611497919061253c565b8460600151610200018181525050866001600160a01b03166390967a526040518163ffffffff1660e01b815260040160206040518083038186803b1580156114de57600080fd5b505afa1580156114f2573d6000803e3d6000fd5b505050506040513d601f19601f82011682018060405250810190611516919061253c565b8460600151610220018181525050866001600160a01b031663f51f96dd6040518163ffffffff1660e01b815260040160206040518083038186803b15801561155d57600080fd5b505afa158015611571573d6000803e3d6000fd5b505050506040513d601f19601f82011682018060405250810190611595919061253c565b8460600151610240018181525050866001600160a01b031663a54cd7dc6040518163ffffffff1660e01b815260040160206040518083038186803b1580156115dc57600080fd5b505afa1580156115f0573d6000803e3d6000fd5b505050506040513d601f19601f82011682018060405250810190611614919061253c565b8460600151610260018181525050866001600160a01b0316637a18c1fe6040518163ffffffff1660e01b815260040160206040518083038186803b15801561165b57600080fd5b505afa15801561166f573d6000803e3d6000fd5b505050506040513d601f19601f82011682018060405250810190611693919061253c565b8460600151610280018181525050866001600160a01b0316632e8f1f506040518163ffffffff1660e01b815260040160206040518083038186803b1580156116da57600080fd5b505afa1580156116ee573d6000803e3d6000fd5b505050506040513d601f19601f82011682018060405250810190611712919061253c565b84606001516102a0018181525050866001600160a01b0316633cc4cadb6040518163ffffffff1660e01b815260040160206040518083038186803b15801561175957600080fd5b505afa15801561176d573d6000803e3d6000fd5b505050506040513d601f19601f82011682018060405250810190611791919061253c565b84606001516102c0018181525050866001600160a01b031663963331d86040518163ffffffff1660e01b815260040160206040518083038186803b1580156117d857600080fd5b505afa1580156117ec573d6000803e3d6000fd5b505050506040513d601f19601f82011682018060405250810190611810919061253c565b60608501516102e001525b60028460200151600281111561183357611833612b6d565b1415611e4357866001600160a01b031663055ad42e6040518163ffffffff1660e01b815260040160206040518083038186803b15801561187257600080fd5b505afa158015611886573d6000803e3d6000fd5b505050506040513d601f19601f820116820180604052508101906118aa9190612555565b60808501519060058111156118c1576118c1612b6d565b908160058111156118d4576118d4612b6d565b81525050866001600160a01b03166390967a526040518163ffffffff1660e01b815260040160206040518083038186803b15801561191157600080fd5b505afa158015611925573d6000803e3d6000fd5b505050506040513d601f19601f82011682018060405250810190611949919061253c565b846080015160e0018181525050866001600160a01b031663f51f96dd6040518163ffffffff1660e01b815260040160206040518083038186803b15801561198f57600080fd5b505afa1580156119a3573d6000803e3d6000fd5b505050506040513d601f19601f820116820180604052508101906119c7919061253c565b8460800151610100018181525050866001600160a01b0316632e8f1f506040518163ffffffff1660e01b815260040160206040518083038186803b158015611a0e57600080fd5b505afa158015611a22573d6000803e3d6000fd5b505050506040513d601f19601f82011682018060405250810190611a46919061253c565b8460800151610120018181525050866001600160a01b0316633cc4cadb6040518163ffffffff1660e01b815260040160206040518083038186803b158015611a8d57600080fd5b505afa158015611aa1573d6000803e3d6000fd5b505050506040513d601f19601f82011682018060405250810190611ac5919061253c565b8460800151610140018181525050866001600160a01b031663963331d86040518163ffffffff1660e01b815260040160206040518083038186803b158015611b0c57600080fd5b505afa158015611b20573d6000803e3d6000fd5b505050506040513d601f19601f82011682018060405250810190611b44919061253c565b8460800151610160018181525050866001600160a01b031663d62b63036040518163ffffffff1660e01b815260040160206040518083038186803b158015611b8b57600080fd5b505afa158015611b9f573d6000803e3d6000fd5b505050506040513d601f19601f82011682018060405250810190611bc3919061253c565b84608001516020018181525050866001600160a01b031663fbe1aa516040518163ffffffff1660e01b815260040160206040518083038186803b158015611c0957600080fd5b505afa158015611c1d573d6000803e3d6000fd5b505050506040513d601f19601f82011682018060405250810190611c41919061253c565b84608001516040018181525050866001600160a01b03166362f4fb2d6040518163ffffffff1660e01b815260040160206040518083038186803b158015611c8757600080fd5b505afa158015611c9b573d6000803e3d6000fd5b505050506040513d601f19601f82011682018060405250810190611cbf919061253c565b84608001516060018181525050866001600160a01b03166359d7bc4d6040518163ffffffff1660e01b815260040160206040518083038186803b158015611d0557600080fd5b505afa158015611d19573d6000803e3d6000fd5b505050506040513d601f19601f82011682018060405250810190611d3d919061253c565b84608001516080018181525050866001600160a01b0316636bb7b1d96040518163ffffffff1660e01b815260040160206040518083038186803b158015611d8357600080fd5b505afa158015611d97573d6000803e3d6000fd5b505050506040513d601f19601f82011682018060405250810190611dbb919061253c565b846080015160a0018181525050866001600160a01b0316631e4d185f6040518163ffffffff1660e01b815260040160206040518083038186803b158015611e0157600080fd5b505afa158015611e15573d6000803e3d6000fd5b505050506040513d601f19601f82011682018060405250810190611e39919061253c565b608085015160c001525b6001600160a01b0386161561205b576040516370a0823160e01b81526001600160a01b0387811660048301528816906370a082319060240160206040518083038186803b158015611e9357600080fd5b505afa158015611ea7573d6000803e3d6000fd5b505050506040513d601f19601f82011682018060405250810190611ecb919061253c565b60c08501515260405163dc33e68160e01b81526001600160a01b03878116600483015288169063dc33e6819060240160206040518083038186803b158015611f1257600080fd5b505afa158015611f26573d6000803e3d6000fd5b505050506040513d601f19601f82011682018060405250810190611f4a919061253c565b60c08501516020015260405163aec3922b60e01b81526001600160a01b03878116600483015288169063aec3922b9060240160206040518083038186803b158015611f9457600080fd5b505afa158015611fa8573d6000803e3d6000fd5b505050506040513d601f19601f82011682018060405250810190611fcc919061253c565b60c08501516040908101919091525163a7cd52cb60e01b81526001600160a01b03878116600483015288169063a7cd52cb9060240160206040518083038186803b15801561201957600080fd5b505afa15801561202d573d6000803e3d6000fd5b505050506040513d601f19601f82011682018060405250810190612051919061253c565b60c0850151606001525b5091925050505b92915050565b60606000826001600160a01b031663be62da0e6040518163ffffffff1660e01b815260040160206040518083038186803b1580156120a557600080fd5b505afa1580156120b9573d6000803e3d6000fd5b505050506040513d601f19601f820116820180604052508101906120dd919061253c565b60405163ca15c87360e01b8152600481018290529091506000906001600160a01b0385169063ca15c8739060240160206040518083038186803b15801561212357600080fd5b505afa158015612137573d6000803e3d6000fd5b505050506040513d601f19601f8201168201806040525081019061215b919061253c565b905060008167ffffffffffffffff81111561217857612178612b99565b6040519080825280602002602001820160405280156121a1578160200160208202803683370190505b50905060005b8281101561226a57604051632404341f60e21b815260048101859052602481018290526001600160a01b03871690639010d07c9060440160206040518083038186803b1580156121f657600080fd5b505afa15801561220a573d6000803e3d6000fd5b505050506040513d601f19601f8201168201806040525081019061222e91906124c4565b82828151811061224057612240612b83565b6001600160a01b03909216602092830291909101909101528061226281612b3c565b9150506121a7565b50949350505050565b6040805161010081019091526000808252602082019081526020016122ce6040518060e00160405280606081526020016060815260200160008152602001600081526020016000815260200160608152602001606081525090565b81526020016122db6123da565b8152602001612345604080516101808101909152806000815260200160008152602001600081526020016000815260200160008152602001600081526020016000815260200160008152602001600081526020016000815260200160008152602001600081525090565b81526020016123756040518060800160405280600081526020016000815260200160008152602001600081525090565b81526020016123a56040518060800160405280600081526020016000815260200160008152602001600081525090565b81526020016123d56040518060800160405280606081526020016000815260200160008152602001600081525090565b905290565b6040518061030001604052806000815260200160008152602001600081526020016000815260200160008152602001600081526020016000815260200160008152602001600081526020016000815260200160008152602001600081526020016000815260200160008152602001600081526020016000600581111561246257612462612b6d565b815260200160008152602001600081526020016000815260200160008152602001600081526020016000815260200160008152602001600081525090565b6000602082840312156124b257600080fd5b81356124bd81612baf565b9392505050565b6000602082840312156124d657600080fd5b81516124bd81612baf565b600080604083850312156124f457600080fd5b82356124ff81612baf565b9150602083013561250f81612baf565b809150509250929050565b60006020828403121561252c57600080fd5b815180151581146124bd57600080fd5b60006020828403121561254e57600080fd5b5051919050565b60006020828403121561256757600080fd5b8151600681106124bd57600080fd5b60006020828403121561258857600080fd5b815167ffffffffffffffff808211156125a057600080fd5b818401915084601f8301126125b457600080fd5b8151818111156125c6576125c6612b99565b604051601f8201601f19908116603f011681019083821181831017156125ee576125ee612b99565b8160405282815287602084870101111561260757600080fd5b612618836020830160208801612b0c565b979650505050505050565b600080600080600060a0868803121561263b57600080fd5b85519450602086015180600f0b811461265357600080fd5b6040870151606088015160809098015196999198509695945092505050565b6000806000806080858703121561268857600080fd5b843560ff8116811461269957600080fd5b9350602085013592506040850135915060608501356126b781612baf565b939692955090935050565b600381106126d2576126d2612b6d565b9052565b600681106126d2576126d2612b6d565b600081518084526126fe816020860160208601612b0c565b601f01601f19169290920160200192915050565b6000815160e0845261272760e08501826126e6565b90506020830151848203602086015261274082826126e6565b91505060408301516040850152606083015160608501526080830151608085015260a083015184820360a086015261277882826126e6565b91505060c083015184820360c086015261279282826126e6565b95945050505050565b6127a68282516126d6565b6020810151602083015260408101516040830152606081015160608301526080810151608083015260a081015160a083015260c081015160c083015260e081015160e08301526101008082015181840152506101208082015181840152506101408082015181840152506101608082015181840152505050565b805182526020810151602083015260408101516040830152606081015160608301526080810151608083015260a081015160a083015260c081015160c083015260e081015160e08301526101008082015181840152506101208082015181840152506101408082015181840152506101608082015181840152506101808082015181840152506101a08082015181840152506101c08082015181840152506101e0808201516128d1828501826126d6565b5050610200818101519083015261022080820151908301526102408082015190830152610260808201519083015261028080820151908301526102a080820151908301526102c080820151908301526102e090810151910152565b80516001600160a01b031682526000610600602083015161295060208601826126c2565b50604083015181604086015261296882860182612712565b915050606083015161297d6060860182612820565b50608083015161299161036086018261279b565b5060a083015180516104e08601526020810151610500860152604081015161052086015260608101516105408601525060c08301518051610560860152602081015161058086015260408101516105a086015260608101516105c08601525060e08301518482036105e086015261279282828051608080845281519084018190526000916020919082019060a0860190845b81811015612a485783516001600160a01b031683529284019291840191600101612a23565b50508285015183870152604085015160408701526060850151606087015280935050505092915050565b6000602080830181845280855180835260408601915060408160051b870101925083870160005b82811015612ac757603f19888603018452612ab585835161292c565b94509285019290850190600101612a99565b5092979650505050505050565b6020810161206282846126c2565b6020815260006124bd602083018461292c565b600082821015612b0757612b07612b57565b500390565b60005b83811015612b27578181015183820152602001612b0f565b83811115612b36576000848401525b50505050565b6000600019821415612b5057612b50612b57565b5060010190565b634e487b7160e01b600052601160045260246000fd5b634e487b7160e01b600052602160045260246000fd5b634e487b7160e01b600052603260045260246000fd5b634e487b7160e01b600052604160045260246000fd5b6001600160a01b0381168114612bc457600080fd5b5056fea26469706673582212202c0c7a603af40df80bc5574f2185a09a71961b391ecba50bbbbafa86ff2a156864736f6c63430008060033",
  "devdoc": {
    "author": "Trader Joe",
    "kind": "dev",
    "methods": {
      "constructor": {
        "details": "LaunchpegLens constructor",
        "params": {
          "_batchReveal": "BatchReveal address",
          "_launchpegFactory": "LaunchpegFactory address"
        }
      },
      "getAllLaunchpegsFromType(uint8,uint256,uint256,address)": {
        "params": {
          "_limit": "Last Launchpeg index to fetch",
          "_number": "Number of Launchpeg to fetch",
          "_type": "Type of Launchpeg to consider",
          "_user": "Address to consider for NFT balances and allowlist allocations"
        },
        "returns": {
          "_0": "LensDataList List of contracts datas, in descending order"
        }
      },
      "getLaunchpegData(address,address)": {
        "params": {
          "_launchpeg": "Contract address to consider",
          "_user": "Address to consider for NFT balances and allowlist allocations"
        },
        "returns": {
          "_0": "LensData Contract data"
        }
      },
      "getLaunchpegType(address)": {
        "params": {
          "_contract": "Contract address to consider"
        },
        "returns": {
          "_0": "LaunchpegType Type of Launchpeg implementation (Dutch Auction / Flat / Unknown)"
        }
      }
    },
    "title": "Launchpeg Lens",
    "version": 1
  },
  "userdoc": {
    "kind": "user",
    "methods": {
      "batchReveal()": {
        "notice": "BatchReveal address"
      },
      "flatLaunchpegInterface()": {
        "notice": "IFlatLaunchpegInterface identifier"
      },
      "getAllLaunchpegsFromType(uint8,uint256,uint256,address)": {
        "notice": "Fetch Launchpeg data"
      },
      "getLaunchpegData(address,address)": {
        "notice": "Fetch Launchpeg data from the provided address"
      },
      "getLaunchpegType(address)": {
        "notice": "Gets the type of Launchpeg"
      },
      "launchpegFactory()": {
        "notice": "LaunchpegFactory address"
      },
      "launchpegInterface()": {
        "notice": "ILaunchpegInterface identifier"
      }
    },
    "notice": "Helper contract to fetch launchpegs data",
    "version": 1
  },
  "storageLayout": {
    "storage": [],
    "types": null
  }
}