{
  "address": "0xa2EE532d8e0ee90D2d8aF0fEc3E166242BCaad30",
  "abi": [
    {
      "inputs": [
        {
          "internalType": "address",
          "name": "_launchpegFactory",
          "type": "address"
        },
        {
          "internalType": "address",
          "name": "_batchReveal",
          "type": "address"
        }
      ],
      "stateMutability": "nonpayable",
      "type": "constructor"
    },
    {
      "inputs": [],
      "name": "LaunchpegLens__InvalidContract",
      "type": "error"
    },
    {
      "inputs": [],
      "name": "batchReveal",
      "outputs": [
        {
          "internalType": "address",
          "name": "",
          "type": "address"
        }
      ],
      "stateMutability": "view",
      "type": "function"
    },
    {
      "inputs": [],
      "name": "flatLaunchpegInterface",
      "outputs": [
        {
          "internalType": "bytes4",
          "name": "",
          "type": "bytes4"
        }
      ],
      "stateMutability": "view",
      "type": "function"
    },
    {
      "inputs": [
        {
          "internalType": "uint8",
          "name": "_type",
          "type": "uint8"
        },
        {
          "internalType": "uint256",
          "name": "_number",
          "type": "uint256"
        },
        {
          "internalType": "uint256",
          "name": "_limit",
          "type": "uint256"
        },
        {
          "internalType": "address",
          "name": "_user",
          "type": "address"
        }
      ],
      "name": "getAllLaunchpegsFromType",
      "outputs": [
        {
          "components": [
            {
              "internalType": "address",
              "name": "id",
              "type": "address"
            },
            {
              "internalType": "enum LaunchpegLens.LaunchpegType",
              "name": "launchType",
              "type": "uint8"
            },
            {
              "components": [
                {
                  "internalType": "string",
                  "name": "name",
                  "type": "string"
                },
                {
                  "internalType": "string",
                  "name": "symbol",
                  "type": "string"
                },
                {
                  "internalType": "uint256",
                  "name": "collectionSize",
                  "type": "uint256"
                },
                {
                  "internalType": "uint256",
                  "name": "maxBatchSize",
                  "type": "uint256"
                },
                {
                  "internalType": "uint256",
                  "name": "totalSupply",
                  "type": "uint256"
                },
                {
                  "internalType": "string",
                  "name": "unrevealedURI",
                  "type": "string"
                },
                {
                  "internalType": "string",
                  "name": "baseURI",
                  "type": "string"
                }
              ],
              "internalType": "struct LaunchpegLens.CollectionData",
              "name": "collectionData",
              "type": "tuple"
            },
            {
              "components": [
                {
                  "internalType": "uint256",
                  "name": "amountForAuction",
                  "type": "uint256"
                },
                {
                  "internalType": "uint256",
                  "name": "amountForAllowlist",
                  "type": "uint256"
                },
                {
                  "internalType": "uint256",
                  "name": "amountForDevs",
                  "type": "uint256"
                },
                {
                  "internalType": "uint256",
                  "name": "auctionSaleStartTime",
                  "type": "uint256"
                },
                {
                  "internalType": "uint256",
                  "name": "allowlistStartTime",
                  "type": "uint256"
                },
                {
                  "internalType": "uint256",
                  "name": "publicSaleStartTime",
                  "type": "uint256"
                },
                {
                  "internalType": "uint256",
                  "name": "auctionStartPrice",
                  "type": "uint256"
                },
                {
                  "internalType": "uint256",
                  "name": "auctionEndPrice",
                  "type": "uint256"
                },
                {
                  "internalType": "uint256",
                  "name": "auctionSaleDuration",
                  "type": "uint256"
                },
                {
                  "internalType": "uint256",
                  "name": "auctionDropInterval",
                  "type": "uint256"
                },
                {
                  "internalType": "uint256",
                  "name": "auctionDropPerStep",
                  "type": "uint256"
                },
                {
                  "internalType": "uint256",
                  "name": "allowlistDiscountPercent",
                  "type": "uint256"
                },
                {
                  "internalType": "uint256",
                  "name": "publicSaleDiscountPercent",
                  "type": "uint256"
                },
                {
                  "internalType": "enum IBaseLaunchpeg.Phase",
                  "name": "currentPhase",
                  "type": "uint8"
                },
                {
                  "internalType": "uint256",
                  "name": "auctionPrice",
                  "type": "uint256"
                },
                {
                  "internalType": "uint256",
                  "name": "allowlistPrice",
                  "type": "uint256"
                },
                {
                  "internalType": "uint256",
                  "name": "publicSalePrice",
                  "type": "uint256"
                },
                {
                  "internalType": "uint256",
                  "name": "amountMintedDuringAuction",
                  "type": "uint256"
                },
                {
                  "internalType": "uint256",
                  "name": "lastAuctionPrice",
                  "type": "uint256"
                },
                {
                  "internalType": "uint256",
                  "name": "amountMintedDuringAllowlist",
                  "type": "uint256"
                },
                {
                  "internalType": "uint256",
                  "name": "amountMintedDuringPublicSale",
                  "type": "uint256"
                }
              ],
              "internalType": "struct LaunchpegLens.LaunchpegData",
              "name": "launchpegData",
              "type": "tuple"
            },
            {
              "components": [
                {
                  "internalType": "enum IBaseLaunchpeg.Phase",
                  "name": "currentPhase",
                  "type": "uint8"
                },
                {
                  "internalType": "uint256",
                  "name": "amountForAllowlist",
                  "type": "uint256"
                },
                {
                  "internalType": "uint256",
                  "name": "amountForDevs",
                  "type": "uint256"
                },
                {
                  "internalType": "uint256",
                  "name": "allowlistStartTime",
                  "type": "uint256"
                },
                {
                  "internalType": "uint256",
                  "name": "publicSaleStartTime",
                  "type": "uint256"
                },
                {
                  "internalType": "uint256",
                  "name": "allowlistPrice",
                  "type": "uint256"
                },
                {
                  "internalType": "uint256",
                  "name": "salePrice",
                  "type": "uint256"
                },
                {
                  "internalType": "uint256",
                  "name": "amountMintedDuringAllowlist",
                  "type": "uint256"
                },
                {
                  "internalType": "uint256",
                  "name": "amountMintedDuringPublicSale",
                  "type": "uint256"
                }
              ],
              "internalType": "struct LaunchpegLens.FlatLaunchpegData",
              "name": "flatLaunchpegData",
              "type": "tuple"
            },
            {
              "components": [
                {
                  "internalType": "uint256",
                  "name": "revealBatchSize",
                  "type": "uint256"
                },
                {
                  "internalType": "uint256",
                  "name": "lastTokenRevealed",
                  "type": "uint256"
                },
                {
                  "internalType": "uint256",
                  "name": "revealStartTime",
                  "type": "uint256"
                },
                {
                  "internalType": "uint256",
                  "name": "revealInterval",
                  "type": "uint256"
                }
              ],
              "internalType": "struct LaunchpegLens.RevealData",
              "name": "revealData",
              "type": "tuple"
            },
            {
              "components": [
                {
                  "internalType": "uint256",
                  "name": "balanceOf",
                  "type": "uint256"
                },
                {
                  "internalType": "uint256",
                  "name": "numberMinted",
                  "type": "uint256"
                },
                {
                  "internalType": "uint256",
                  "name": "allowanceForAllowlistMint",
                  "type": "uint256"
                }
              ],
              "internalType": "struct LaunchpegLens.UserData",
              "name": "userData",
              "type": "tuple"
            }
          ],
          "internalType": "struct LaunchpegLens.LensData[]",
          "name": "",
          "type": "tuple[]"
        }
      ],
      "stateMutability": "view",
      "type": "function"
    },
    {
      "inputs": [
        {
          "internalType": "address",
          "name": "_launchpeg",
          "type": "address"
        },
        {
          "internalType": "address",
          "name": "_user",
          "type": "address"
        }
      ],
      "name": "getLaunchpegData",
      "outputs": [
        {
          "components": [
            {
              "internalType": "address",
              "name": "id",
              "type": "address"
            },
            {
              "internalType": "enum LaunchpegLens.LaunchpegType",
              "name": "launchType",
              "type": "uint8"
            },
            {
              "components": [
                {
                  "internalType": "string",
                  "name": "name",
                  "type": "string"
                },
                {
                  "internalType": "string",
                  "name": "symbol",
                  "type": "string"
                },
                {
                  "internalType": "uint256",
                  "name": "collectionSize",
                  "type": "uint256"
                },
                {
                  "internalType": "uint256",
                  "name": "maxBatchSize",
                  "type": "uint256"
                },
                {
                  "internalType": "uint256",
                  "name": "totalSupply",
                  "type": "uint256"
                },
                {
                  "internalType": "string",
                  "name": "unrevealedURI",
                  "type": "string"
                },
                {
                  "internalType": "string",
                  "name": "baseURI",
                  "type": "string"
                }
              ],
              "internalType": "struct LaunchpegLens.CollectionData",
              "name": "collectionData",
              "type": "tuple"
            },
            {
              "components": [
                {
                  "internalType": "uint256",
                  "name": "amountForAuction",
                  "type": "uint256"
                },
                {
                  "internalType": "uint256",
                  "name": "amountForAllowlist",
                  "type": "uint256"
                },
                {
                  "internalType": "uint256",
                  "name": "amountForDevs",
                  "type": "uint256"
                },
                {
                  "internalType": "uint256",
                  "name": "auctionSaleStartTime",
                  "type": "uint256"
                },
                {
                  "internalType": "uint256",
                  "name": "allowlistStartTime",
                  "type": "uint256"
                },
                {
                  "internalType": "uint256",
                  "name": "publicSaleStartTime",
                  "type": "uint256"
                },
                {
                  "internalType": "uint256",
                  "name": "auctionStartPrice",
                  "type": "uint256"
                },
                {
                  "internalType": "uint256",
                  "name": "auctionEndPrice",
                  "type": "uint256"
                },
                {
                  "internalType": "uint256",
                  "name": "auctionSaleDuration",
                  "type": "uint256"
                },
                {
                  "internalType": "uint256",
                  "name": "auctionDropInterval",
                  "type": "uint256"
                },
                {
                  "internalType": "uint256",
                  "name": "auctionDropPerStep",
                  "type": "uint256"
                },
                {
                  "internalType": "uint256",
                  "name": "allowlistDiscountPercent",
                  "type": "uint256"
                },
                {
                  "internalType": "uint256",
                  "name": "publicSaleDiscountPercent",
                  "type": "uint256"
                },
                {
                  "internalType": "enum IBaseLaunchpeg.Phase",
                  "name": "currentPhase",
                  "type": "uint8"
                },
                {
                  "internalType": "uint256",
                  "name": "auctionPrice",
                  "type": "uint256"
                },
                {
                  "internalType": "uint256",
                  "name": "allowlistPrice",
                  "type": "uint256"
                },
                {
                  "internalType": "uint256",
                  "name": "publicSalePrice",
                  "type": "uint256"
                },
                {
                  "internalType": "uint256",
                  "name": "amountMintedDuringAuction",
                  "type": "uint256"
                },
                {
                  "internalType": "uint256",
                  "name": "lastAuctionPrice",
                  "type": "uint256"
                },
                {
                  "internalType": "uint256",
                  "name": "amountMintedDuringAllowlist",
                  "type": "uint256"
                },
                {
                  "internalType": "uint256",
                  "name": "amountMintedDuringPublicSale",
                  "type": "uint256"
                }
              ],
              "internalType": "struct LaunchpegLens.LaunchpegData",
              "name": "launchpegData",
              "type": "tuple"
            },
            {
              "components": [
                {
                  "internalType": "enum IBaseLaunchpeg.Phase",
                  "name": "currentPhase",
                  "type": "uint8"
                },
                {
                  "internalType": "uint256",
                  "name": "amountForAllowlist",
                  "type": "uint256"
                },
                {
                  "internalType": "uint256",
                  "name": "amountForDevs",
                  "type": "uint256"
                },
                {
                  "internalType": "uint256",
                  "name": "allowlistStartTime",
                  "type": "uint256"
                },
                {
                  "internalType": "uint256",
                  "name": "publicSaleStartTime",
                  "type": "uint256"
                },
                {
                  "internalType": "uint256",
                  "name": "allowlistPrice",
                  "type": "uint256"
                },
                {
                  "internalType": "uint256",
                  "name": "salePrice",
                  "type": "uint256"
                },
                {
                  "internalType": "uint256",
                  "name": "amountMintedDuringAllowlist",
                  "type": "uint256"
                },
                {
                  "internalType": "uint256",
                  "name": "amountMintedDuringPublicSale",
                  "type": "uint256"
                }
              ],
              "internalType": "struct LaunchpegLens.FlatLaunchpegData",
              "name": "flatLaunchpegData",
              "type": "tuple"
            },
            {
              "components": [
                {
                  "internalType": "uint256",
                  "name": "revealBatchSize",
                  "type": "uint256"
                },
                {
                  "internalType": "uint256",
                  "name": "lastTokenRevealed",
                  "type": "uint256"
                },
                {
                  "internalType": "uint256",
                  "name": "revealStartTime",
                  "type": "uint256"
                },
                {
                  "internalType": "uint256",
                  "name": "revealInterval",
                  "type": "uint256"
                }
              ],
              "internalType": "struct LaunchpegLens.RevealData",
              "name": "revealData",
              "type": "tuple"
            },
            {
              "components": [
                {
                  "internalType": "uint256",
                  "name": "balanceOf",
                  "type": "uint256"
                },
                {
                  "internalType": "uint256",
                  "name": "numberMinted",
                  "type": "uint256"
                },
                {
                  "internalType": "uint256",
                  "name": "allowanceForAllowlistMint",
                  "type": "uint256"
                }
              ],
              "internalType": "struct LaunchpegLens.UserData",
              "name": "userData",
              "type": "tuple"
            }
          ],
          "internalType": "struct LaunchpegLens.LensData",
          "name": "",
          "type": "tuple"
        }
      ],
      "stateMutability": "view",
      "type": "function"
    },
    {
      "inputs": [
        {
          "internalType": "address",
          "name": "_contract",
          "type": "address"
        }
      ],
      "name": "getLaunchpegType",
      "outputs": [
        {
          "internalType": "enum LaunchpegLens.LaunchpegType",
          "name": "",
          "type": "uint8"
        }
      ],
      "stateMutability": "view",
      "type": "function"
    },
    {
      "inputs": [],
      "name": "launchpegFactory",
      "outputs": [
        {
          "internalType": "address",
          "name": "",
          "type": "address"
        }
      ],
      "stateMutability": "view",
      "type": "function"
    },
    {
      "inputs": [],
      "name": "launchpegInterface",
      "outputs": [
        {
          "internalType": "bytes4",
          "name": "",
          "type": "bytes4"
        }
      ],
      "stateMutability": "view",
      "type": "function"
    }
  ],
  "transactionHash": "0x6ace83b3087070d41fa2bba0e8d78e3cc67e5aeba5e540bb7839d6e6d563f1d3",
  "args": [
    "0x0d22EF1C5372677c8680fb485c6A1Ce43eA58eaF",
    "0xc6B3ccaEE924F20dD0E11429c7B983BC2BB22155"
  ],
  "numDeployments": 10,
  "solcInputHash": "17eec7c82eebfc51760fc925f206e66d",
  "bytecode": "0x6101006040523480156200001257600080fd5b506040516200255338038062002553833981016040819052620000359162000087565b63fa14a12960e01b608052636837c8e760e11b60a0526001600160601b0319606092831b811660c052911b1660e052620000bf565b80516001600160a01b03811681146200008257600080fd5b919050565b600080604083850312156200009b57600080fd5b620000a6836200006a565b9150620000b6602084016200006a565b90509250929050565b60805160e01c60e01b60a05160e01c60e01b60c05160601c60e05160601c61242062000133600039600081816087015281816109870152610a43015260008181610152015281816101dc01526102ff01526000818161010b01526104be01526000818160cb015261040d01526124206000f3fe608060405234801561001057600080fd5b506004361061007d5760003560e01c8063913418921161005b578063913418921461012d57806395d2a8441461014d578063a6a7b3ea14610174578063d0b54b3b1461019457600080fd5b806321cc1611146100825780637c50ba7a146100c65780637d4510a714610106575b600080fd5b6100a97f000000000000000000000000000000000000000000000000000000000000000081565b6040516001600160a01b0390911681526020015b60405180910390f35b6100ed7f000000000000000000000000000000000000000000000000000000000000000081565b6040516001600160e01b031990911681526020016100bd565b6100ed7f000000000000000000000000000000000000000000000000000000000000000081565b61014061013b366004611f62565b6101b4565b6040516100bd9190612295565b6100a97f000000000000000000000000000000000000000000000000000000000000000081565b610187610182366004611d90565b6103f5565b6040516100bd91906122f7565b6101a76101a2366004611dd1565b61055c565b6040516100bd9190612305565b604051631ddbc6c760e21b815260ff8516600482015260609081906000906001600160a01b037f0000000000000000000000000000000000000000000000000000000000000000169063776f1b1c9060240160206040518083038186803b15801561021e57600080fd5b505afa158015610232573d6000803e3d6000fd5b505050506040513d601f19601f820116820180604052508101906102569190611efa565b905060008186116102675785610269565b815b905060008188116102835761027e8883612318565b610286565b60005b90506102928183612318565b67ffffffffffffffff8111156102aa576102aa6123bc565b6040519080825280602002602001820160405280156102e357816020015b6102d0611bc5565b8152602001906001900390816102c85790505b50935060005b84518110156103e7576103b76001600160a01b037f00000000000000000000000000000000000000000000000000000000000000001663306ec7488c84610331600189612318565b61033b9190612318565b6040516001600160e01b031960e085901b16815260ff9092166004830152602482015260440160206040518083038186803b15801561037957600080fd5b505afa15801561038d573d6000803e3d6000fd5b505050506040513d601f19601f820116820180604052508101906103b19190611db4565b8861055c565b8582815181106103c9576103c96123a6565b602002602001018190525080806103df9061235f565b9150506102e9565b509298975050505050505050565b6040516301ffc9a760e01b81526001600160e01b03197f00000000000000000000000000000000000000000000000000000000000000001660048201526000906001600160a01b038316906301ffc9a79060240160206040518083038186803b15801561046157600080fd5b505afa158015610475573d6000803e3d6000fd5b505050506040513d601f19601f820116820180604052508101906104999190611e0a565b156104a657506001919050565b6040516301ffc9a760e01b81526001600160e01b03197f00000000000000000000000000000000000000000000000000000000000000001660048201526001600160a01b038316906301ffc9a79060240160206040518083038186803b15801561050f57600080fd5b505afa158015610523573d6000803e3d6000fd5b505050506040513d601f19601f820116820180604052508101906105479190611e0a565b1561055457506002919050565b506000919050565b610564611bc5565b61056c611bc5565b6001600160a01b0384168152610581846103f5565b8160200190600281111561059757610597612390565b908160028111156105aa576105aa612390565b9052506000816020015160028111156105c5576105c5612390565b14156105e457604051630ca92ff360e31b815260040160405180910390fd5b836001600160a01b03166306fdde036040518163ffffffff1660e01b815260040160006040518083038186803b15801561061d57600080fd5b505afa158015610631573d6000803e3d6000fd5b505050506040513d6000823e601f3d908101601f191682016040526106599190810190611e4d565b816040015160000181905250836001600160a01b03166395d89b416040518163ffffffff1660e01b815260040160006040518083038186803b15801561069e57600080fd5b505afa1580156106b2573d6000803e3d6000fd5b505050506040513d6000823e601f3d908101601f191682016040526106da9190810190611e4d565b816040015160200181905250836001600160a01b03166345c0f5336040518163ffffffff1660e01b815260040160206040518083038186803b15801561071f57600080fd5b505afa158015610733573d6000803e3d6000fd5b505050506040513d601f19601f820116820180604052508101906107579190611efa565b81604001516040018181525050836001600160a01b0316632913daa06040518163ffffffff1660e01b815260040160206040518083038186803b15801561079d57600080fd5b505afa1580156107b1573d6000803e3d6000fd5b505050506040513d601f19601f820116820180604052508101906107d59190611efa565b81604001516060018181525050836001600160a01b03166318160ddd6040518163ffffffff1660e01b815260040160206040518083038186803b15801561081b57600080fd5b505afa15801561082f573d6000803e3d6000fd5b505050506040513d601f19601f820116820180604052508101906108539190611efa565b81604001516080018181525050836001600160a01b0316637035bf186040518163ffffffff1660e01b815260040160006040518083038186803b15801561089957600080fd5b505afa1580156108ad573d6000803e3d6000fd5b505050506040513d6000823e601f3d908101601f191682016040526108d59190810190611e4d565b816040015160a00181905250836001600160a01b0316636c0360eb6040518163ffffffff1660e01b815260040160006040518083038186803b15801561091a57600080fd5b505afa15801561092e573d6000803e3d6000fd5b505050506040513d6000823e601f3d908101601f191682016040526109569190810190611e4d565b60408281015160c0019190915251630303a4b160e31b81526001600160a01b038581166004830152600091829182917f00000000000000000000000000000000000000000000000000000000000000009091169063181d25889060240160a06040518083038186803b1580156109cb57600080fd5b505afa1580156109df573d6000803e3d6000fd5b505050506040513d601f19601f82011682018060405250810190610a039190611f13565b60a08901805184905280516040908101849052905160600182905251635e1578db60e11b81526001600160a01b038d8116600483015293985091965094507f0000000000000000000000000000000000000000000000000000000000000000909116925063bc2af1b6915060240160206040518083038186803b158015610a8957600080fd5b505afa158015610a9d573d6000803e3d6000fd5b505050506040513d601f19601f82011682018060405250810190610ac19190611efa565b60a085015160200152600184602001516002811115610ae257610ae2612390565b141561157b57866001600160a01b031663f7df4c5a6040518163ffffffff1660e01b815260040160206040518083038186803b158015610b2157600080fd5b505afa158015610b35573d6000803e3d6000fd5b505050506040513d601f19601f82011682018060405250810190610b599190611efa565b84606001516000018181525050866001600160a01b031663d62b63036040518163ffffffff1660e01b815260040160206040518083038186803b158015610b9f57600080fd5b505afa158015610bb3573d6000803e3d6000fd5b505050506040513d601f19601f82011682018060405250810190610bd79190611efa565b84606001516020018181525050866001600160a01b031663fbe1aa516040518163ffffffff1660e01b815260040160206040518083038186803b158015610c1d57600080fd5b505afa158015610c31573d6000803e3d6000fd5b505050506040513d601f19601f82011682018060405250810190610c559190611efa565b84606001516040018181525050866001600160a01b031663fab2bf586040518163ffffffff1660e01b815260040160206040518083038186803b158015610c9b57600080fd5b505afa158015610caf573d6000803e3d6000fd5b505050506040513d601f19601f82011682018060405250810190610cd39190611efa565b84606001516060018181525050866001600160a01b03166359d7bc4d6040518163ffffffff1660e01b815260040160206040518083038186803b158015610d1957600080fd5b505afa158015610d2d573d6000803e3d6000fd5b505050506040513d601f19601f82011682018060405250810190610d519190611efa565b84606001516080018181525050866001600160a01b0316636bb7b1d96040518163ffffffff1660e01b815260040160206040518083038186803b158015610d9757600080fd5b505afa158015610dab573d6000803e3d6000fd5b505050506040513d601f19601f82011682018060405250810190610dcf9190611efa565b846060015160a0018181525050866001600160a01b031663d756985b6040518163ffffffff1660e01b815260040160206040518083038186803b158015610e1557600080fd5b505afa158015610e29573d6000803e3d6000fd5b505050506040513d601f19601f82011682018060405250810190610e4d9190611efa565b846060015160c0018181525050866001600160a01b031663a04a6ac86040518163ffffffff1660e01b815260040160206040518083038186803b158015610e9357600080fd5b505afa158015610ea7573d6000803e3d6000fd5b505050506040513d601f19601f82011682018060405250810190610ecb9190611efa565b846060015160e0018181525050866001600160a01b0316630a212ee26040518163ffffffff1660e01b815260040160206040518083038186803b158015610f1157600080fd5b505afa158015610f25573d6000803e3d6000fd5b505050506040513d601f19601f82011682018060405250810190610f499190611efa565b8460600151610100018181525050866001600160a01b031663f243669b6040518163ffffffff1660e01b815260040160206040518083038186803b158015610f9057600080fd5b505afa158015610fa4573d6000803e3d6000fd5b505050506040513d601f19601f82011682018060405250810190610fc89190611efa565b8460600151610120018181525050866001600160a01b031663e6fe34b36040518163ffffffff1660e01b815260040160206040518083038186803b15801561100f57600080fd5b505afa158015611023573d6000803e3d6000fd5b505050506040513d601f19601f820116820180604052508101906110479190611efa565b8460600151610140018181525050866001600160a01b031663154895106040518163ffffffff1660e01b815260040160206040518083038186803b15801561108e57600080fd5b505afa1580156110a2573d6000803e3d6000fd5b505050506040513d601f19601f820116820180604052508101906110c69190611efa565b8460600151610160018181525050866001600160a01b03166308a3fb4e6040518163ffffffff1660e01b815260040160206040518083038186803b15801561110d57600080fd5b505afa158015611121573d6000803e3d6000fd5b505050506040513d601f19601f820116820180604052508101906111459190611efa565b8460600151610180018181525050866001600160a01b031663055ad42e6040518163ffffffff1660e01b815260040160206040518083038186803b15801561118c57600080fd5b505afa1580156111a0573d6000803e3d6000fd5b505050506040513d601f19601f820116820180604052508101906111c49190611e2c565b84606001516101a0019060048111156111df576111df612390565b908160048111156111f2576111f2612390565b90525060608481015101516040516348be804f60e11b815260048101919091526001600160a01b0388169063917d009e9060240160206040518083038186803b15801561123e57600080fd5b505afa158015611252573d6000803e3d6000fd5b505050506040513d601f19601f820116820180604052508101906112769190611efa565b84606001516101c0018181525050866001600160a01b0316630b1019e76040518163ffffffff1660e01b815260040160206040518083038186803b1580156112bd57600080fd5b505afa1580156112d1573d6000803e3d6000fd5b505050506040513d601f19601f820116820180604052508101906112f59190611efa565b84606001516101e0018181525050866001600160a01b0316638e8bdd0d6040518163ffffffff1660e01b815260040160206040518083038186803b15801561133c57600080fd5b505afa158015611350573d6000803e3d6000fd5b505050506040513d601f19601f820116820180604052508101906113749190611efa565b8460600151610200018181525050866001600160a01b031663a54cd7dc6040518163ffffffff1660e01b815260040160206040518083038186803b1580156113bb57600080fd5b505afa1580156113cf573d6000803e3d6000fd5b505050506040513d601f19601f820116820180604052508101906113f39190611efa565b8460600151610220018181525050866001600160a01b0316637a18c1fe6040518163ffffffff1660e01b815260040160206040518083038186803b15801561143a57600080fd5b505afa15801561144e573d6000803e3d6000fd5b505050506040513d601f19601f820116820180604052508101906114729190611efa565b8460600151610240018181525050866001600160a01b0316633cc4cadb6040518163ffffffff1660e01b815260040160206040518083038186803b1580156114b957600080fd5b505afa1580156114cd573d6000803e3d6000fd5b505050506040513d601f19601f820116820180604052508101906114f19190611efa565b8460600151610260018181525050866001600160a01b031663963331d86040518163ffffffff1660e01b815260040160206040518083038186803b15801561153857600080fd5b505afa15801561154c573d6000803e3d6000fd5b505050506040513d601f19601f820116820180604052508101906115709190611efa565b606085015161028001525b60028460200151600281111561159357611593612390565b1415611a2557866001600160a01b031663055ad42e6040518163ffffffff1660e01b815260040160206040518083038186803b1580156115d257600080fd5b505afa1580156115e6573d6000803e3d6000fd5b505050506040513d601f19601f8201168201806040525081019061160a9190611e2c565b608085015190600481111561162157611621612390565b9081600481111561163457611634612390565b81525050866001600160a01b03166390967a526040518163ffffffff1660e01b815260040160206040518083038186803b15801561167157600080fd5b505afa158015611685573d6000803e3d6000fd5b505050506040513d601f19601f820116820180604052508101906116a99190611efa565b846080015160a0018181525050866001600160a01b031663f51f96dd6040518163ffffffff1660e01b815260040160206040518083038186803b1580156116ef57600080fd5b505afa158015611703573d6000803e3d6000fd5b505050506040513d601f19601f820116820180604052508101906117279190611efa565b846080015160c0018181525050866001600160a01b0316633cc4cadb6040518163ffffffff1660e01b815260040160206040518083038186803b15801561176d57600080fd5b505afa158015611781573d6000803e3d6000fd5b505050506040513d601f19601f820116820180604052508101906117a59190611efa565b846080015160e0018181525050866001600160a01b031663963331d86040518163ffffffff1660e01b815260040160206040518083038186803b1580156117eb57600080fd5b505afa1580156117ff573d6000803e3d6000fd5b505050506040513d601f19601f820116820180604052508101906118239190611efa565b8460800151610100018181525050866001600160a01b031663d62b63036040518163ffffffff1660e01b815260040160206040518083038186803b15801561186a57600080fd5b505afa15801561187e573d6000803e3d6000fd5b505050506040513d601f19601f820116820180604052508101906118a29190611efa565b84608001516020018181525050866001600160a01b031663fbe1aa516040518163ffffffff1660e01b815260040160206040518083038186803b1580156118e857600080fd5b505afa1580156118fc573d6000803e3d6000fd5b505050506040513d601f19601f820116820180604052508101906119209190611efa565b84608001516040018181525050866001600160a01b03166359d7bc4d6040518163ffffffff1660e01b815260040160206040518083038186803b15801561196657600080fd5b505afa15801561197a573d6000803e3d6000fd5b505050506040513d601f19601f8201168201806040525081019061199e9190611efa565b84608001516060018181525050866001600160a01b0316636bb7b1d96040518163ffffffff1660e01b815260040160206040518083038186803b1580156119e457600080fd5b505afa1580156119f8573d6000803e3d6000fd5b505050506040513d601f19601f82011682018060405250810190611a1c9190611efa565b60808086015101525b6001600160a01b03861615611bb8576040516370a0823160e01b81526001600160a01b0387811660048301528816906370a082319060240160206040518083038186803b158015611a7557600080fd5b505afa158015611a89573d6000803e3d6000fd5b505050506040513d601f19601f82011682018060405250810190611aad9190611efa565b60c08501515260405163dc33e68160e01b81526001600160a01b03878116600483015288169063dc33e6819060240160206040518083038186803b158015611af457600080fd5b505afa158015611b08573d6000803e3d6000fd5b505050506040513d601f19601f82011682018060405250810190611b2c9190611efa565b60c08501516020015260405163a7cd52cb60e01b81526001600160a01b03878116600483015288169063a7cd52cb9060240160206040518083038186803b158015611b7657600080fd5b505afa158015611b8a573d6000803e3d6000fd5b505050506040513d601f19601f82011682018060405250810190611bae9190611efa565b60c0850151604001525b5091925050505b92915050565b6040805160e08101909152600080825260208201908152602001611c1f6040518060e00160405280606081526020016060815260200160008152602001600081526020016000815260200160608152602001606081525090565b8152602001611c2c611cdf565b8152602001611c81604080516101208101909152806000815260200160008152602001600081526020016000815260200160008152602001600081526020016000815260200160008152602001600081525090565b8152602001611cb16040518060800160405280600081526020016000815260200160008152602001600081525090565b8152602001611cda60405180606001604052806000815260200160008152602001600081525090565b905290565b604051806102a001604052806000815260200160008152602001600081526020016000815260200160008152602001600081526020016000815260200160008152602001600081526020016000815260200160008152602001600081526020016000815260200160006004811115611d5957611d59612390565b8152602001600081526020016000815260200160008152602001600081526020016000815260200160008152602001600081525090565b600060208284031215611da257600080fd5b8135611dad816123d2565b9392505050565b600060208284031215611dc657600080fd5b8151611dad816123d2565b60008060408385031215611de457600080fd5b8235611def816123d2565b91506020830135611dff816123d2565b809150509250929050565b600060208284031215611e1c57600080fd5b81518015158114611dad57600080fd5b600060208284031215611e3e57600080fd5b815160058110611dad57600080fd5b600060208284031215611e5f57600080fd5b815167ffffffffffffffff80821115611e7757600080fd5b818401915084601f830112611e8b57600080fd5b815181811115611e9d57611e9d6123bc565b604051601f8201601f19908116603f01168101908382118183101715611ec557611ec56123bc565b81604052828152876020848701011115611ede57600080fd5b611eef83602083016020880161232f565b979650505050505050565b600060208284031215611f0c57600080fd5b5051919050565b600080600080600060a08688031215611f2b57600080fd5b85519450602086015180600f0b8114611f4357600080fd5b6040870151606088015160809098015196999198509695945092505050565b60008060008060808587031215611f7857600080fd5b843560ff81168114611f8957600080fd5b935060208501359250604085013591506060850135611fa7816123d2565b939692955090935050565b60038110611fc257611fc2612390565b9052565b60058110611fc257611fc2612390565b60008151808452611fee81602086016020860161232f565b601f01601f19169290920160200192915050565b61200d828251611fc6565b6020810151602083015260408101516040830152606081015160608301526080810151608083015260a081015160a083015260c081015160c083015260e081015160e08301526101008082015181840152505050565b805182526020810151602083015260408101516040830152606081015160608301526080810151608083015260a081015160a083015260c081015160c083015260e081015160e08301526101008082015181840152506101208082015181840152506101408082015181840152506101608082015181840152506101808082015181840152506101a0808201516120fc82850182611fc6565b50506101c081810151908301526101e08082015190830152610200808201519083015261022080820151908301526102408082015190830152610260808201519083015261028090810151910152565b600061050060018060a01b038351168452602083015161216f6020860182611fb2565b506040830151816040860152805160e0838701526121916105e0870182611fd6565b92505060208101516104ff1980878503016105208801526121b28483611fd6565b935060408301516105408801526060830151610560880152608083015161058088015260a0830151915080878503016105a08801526121f18483611fd6565b935060c0830151925080878503016105c088015250506122118282611fd6565b91505060608301516122266060860182612063565b50608083015161223a610300860182612002565b5060a083015180516104208601526020810151610440860152604081015161046086015260608101516104808601525060c083015180516104a086015260208101516104c086015260408101516104e0860152509392505050565b6000602080830181845280855180835260408601915060408160051b870101925083870160005b828110156122ea57603f198886030184526122d885835161214c565b945092850192908501906001016122bc565b5092979650505050505050565b60208101611bbf8284611fb2565b602081526000611dad602083018461214c565b60008282101561232a5761232a61237a565b500390565b60005b8381101561234a578181015183820152602001612332565b83811115612359576000848401525b50505050565b60006000198214156123735761237361237a565b5060010190565b634e487b7160e01b600052601160045260246000fd5b634e487b7160e01b600052602160045260246000fd5b634e487b7160e01b600052603260045260246000fd5b634e487b7160e01b600052604160045260246000fd5b6001600160a01b03811681146123e757600080fd5b5056fea2646970667358221220c761b0e5d5f08aa9ad14d1d75ec4484f5ee2632d5bb6d021ba77baa3e6b8512264736f6c63430008060033",
  "devdoc": {
    "author": "Trader Joe",
    "kind": "dev",
    "methods": {
      "constructor": {
        "details": "LaunchpegLens constructor",
        "params": {
          "_batchReveal": "BatchReveal address",
          "_launchpegFactory": "LaunchpegFactory address"
        }
      },
      "getAllLaunchpegsFromType(uint8,uint256,uint256,address)": {
        "params": {
          "_limit": "Last Launchpeg index to fetch",
          "_number": "Number of Launchpeg to fetch",
          "_type": "Type of Launchpeg to consider",
          "_user": "Address to consider for NFT balances and allowlist allocations"
        },
        "returns": {
          "_0": "LensDataList List of contracts datas, in descending order"
        }
      },
      "getLaunchpegData(address,address)": {
        "params": {
          "_launchpeg": "Contract address to consider",
          "_user": "Address to consider for NFT balances and allowlist allocations"
        },
        "returns": {
          "_0": "LensData Contract data"
        }
      },
      "getLaunchpegType(address)": {
        "params": {
          "_contract": "Contract address to consider"
        },
        "returns": {
          "_0": "LaunchpegType Type of Launchpeg implementation (Dutch Auction / Flat / Unknown)"
        }
      }
    },
    "title": "Launchpeg Lens",
    "version": 1
  },
  "userdoc": {
    "kind": "user",
    "methods": {
      "batchReveal()": {
        "notice": "BatchReveal address"
      },
      "flatLaunchpegInterface()": {
        "notice": "IFlatLaunchpegInterface identifier"
      },
      "getAllLaunchpegsFromType(uint8,uint256,uint256,address)": {
        "notice": "Fetch Launchpeg data"
      },
      "getLaunchpegData(address,address)": {
        "notice": "Fetch Launchpeg data from the provided address"
      },
      "getLaunchpegType(address)": {
        "notice": "Gets the type of Launchpeg"
      },
      "launchpegFactory()": {
        "notice": "LaunchpegFactory address"
      },
      "launchpegInterface()": {
        "notice": "ILaunchpegInterface identifier"
      }
    },
    "notice": "Helper contract to fetch launchpegs data",
    "version": 1
  },
  "storageLayout": {
    "storage": [],
    "types": null
  }
}