{
  "address": "0x540568016b9848815136AE359F8724d3576141E0",
  "abi": [
    {
      "inputs": [],
      "name": "LaunchpegFactory__InvalidBatchReveal",
      "type": "error"
    },
    {
      "inputs": [],
      "name": "LaunchpegFactory__InvalidImplementation",
      "type": "error"
    },
    {
      "inputs": [],
      "name": "Launchpeg__InvalidJoeFeeCollector",
      "type": "error"
    },
    {
      "inputs": [],
      "name": "Launchpeg__InvalidPercent",
      "type": "error"
    },
    {
      "anonymous": false,
      "inputs": [
        {
          "indexed": true,
          "internalType": "address",
          "name": "pauser",
          "type": "address"
        }
      ],
      "name": "AddDefaultPauser",
      "type": "event"
    },
    {
      "anonymous": false,
      "inputs": [
        {
          "indexed": true,
          "internalType": "address",
          "name": "flatLaunchpeg",
          "type": "address"
        },
        {
          "indexed": false,
          "internalType": "string",
          "name": "name",
          "type": "string"
        },
        {
          "indexed": false,
          "internalType": "string",
          "name": "symbol",
          "type": "string"
        },
        {
          "indexed": true,
          "internalType": "address",
          "name": "projectOwner",
          "type": "address"
        },
        {
          "indexed": true,
          "internalType": "address",
          "name": "royaltyReceiver",
          "type": "address"
        },
        {
          "indexed": false,
          "internalType": "uint256",
          "name": "maxBatchSize",
          "type": "uint256"
        },
        {
          "indexed": false,
          "internalType": "uint256",
          "name": "collectionSize",
          "type": "uint256"
        },
        {
          "indexed": false,
          "internalType": "uint256",
          "name": "amountForDevs",
          "type": "uint256"
        },
        {
          "indexed": false,
          "internalType": "uint256",
          "name": "amountForAllowlist",
          "type": "uint256"
        }
      ],
      "name": "FlatLaunchpegCreated",
      "type": "event"
    },
    {
      "anonymous": false,
      "inputs": [
        {
          "indexed": true,
          "internalType": "address",
          "name": "launchpeg",
          "type": "address"
        },
        {
          "indexed": false,
          "internalType": "string",
          "name": "name",
          "type": "string"
        },
        {
          "indexed": false,
          "internalType": "string",
          "name": "symbol",
          "type": "string"
        },
        {
          "indexed": true,
          "internalType": "address",
          "name": "projectOwner",
          "type": "address"
        },
        {
          "indexed": true,
          "internalType": "address",
          "name": "royaltyReceiver",
          "type": "address"
        },
        {
          "indexed": false,
          "internalType": "uint256",
          "name": "maxBatchSize",
          "type": "uint256"
        },
        {
          "indexed": false,
          "internalType": "uint256",
          "name": "collectionSize",
          "type": "uint256"
        },
        {
          "indexed": false,
          "internalType": "uint256",
          "name": "amountForAuction",
          "type": "uint256"
        },
        {
          "indexed": false,
          "internalType": "uint256",
          "name": "amountForAllowlist",
          "type": "uint256"
        },
        {
          "indexed": false,
          "internalType": "uint256",
          "name": "amountForDevs",
          "type": "uint256"
        }
      ],
      "name": "LaunchpegCreated",
      "type": "event"
    },
    {
      "anonymous": false,
      "inputs": [
        {
          "indexed": true,
          "internalType": "address",
          "name": "previousOwner",
          "type": "address"
        },
        {
          "indexed": true,
          "internalType": "address",
          "name": "newOwner",
          "type": "address"
        }
      ],
      "name": "OwnershipTransferred",
      "type": "event"
    },
    {
      "anonymous": false,
      "inputs": [
        {
          "indexed": true,
          "internalType": "address",
          "name": "pauser",
          "type": "address"
        }
      ],
      "name": "RemoveDefaultPauser",
      "type": "event"
    },
    {
      "anonymous": false,
      "inputs": [
        {
          "indexed": true,
          "internalType": "address",
          "name": "batchReveal",
          "type": "address"
        }
      ],
      "name": "SetBatchReveal",
      "type": "event"
    },
    {
      "anonymous": false,
      "inputs": [
        {
          "indexed": true,
          "internalType": "address",
          "name": "joeFeeCollector",
          "type": "address"
        }
      ],
      "name": "SetDefaultJoeFeeCollector",
      "type": "event"
    },
    {
      "anonymous": false,
      "inputs": [
        {
          "indexed": false,
          "internalType": "uint256",
          "name": "joeFeePercent",
          "type": "uint256"
        }
      ],
      "name": "SetDefaultJoeFeePercent",
      "type": "event"
    },
    {
      "anonymous": false,
      "inputs": [
        {
          "indexed": true,
          "internalType": "address",
          "name": "flatLaunchpegImplementation",
          "type": "address"
        }
      ],
      "name": "SetFlatLaunchpegImplementation",
      "type": "event"
    },
    {
      "anonymous": false,
      "inputs": [
        {
          "indexed": true,
          "internalType": "address",
          "name": "launchpegImplementation",
          "type": "address"
        }
      ],
      "name": "SetLaunchpegImplementation",
      "type": "event"
    },
    {
      "inputs": [
        {
          "internalType": "address",
          "name": "_pauser",
          "type": "address"
        }
      ],
      "name": "addDefaultPauser",
      "outputs": [
        {
          "internalType": "bool",
          "name": "",
          "type": "bool"
        }
      ],
      "stateMutability": "nonpayable",
      "type": "function"
    },
    {
      "inputs": [
        {
          "internalType": "uint256",
          "name": "",
          "type": "uint256"
        },
        {
          "internalType": "uint256",
          "name": "",
          "type": "uint256"
        }
      ],
      "name": "allLaunchpegs",
      "outputs": [
        {
          "internalType": "address",
          "name": "",
          "type": "address"
        }
      ],
      "stateMutability": "view",
      "type": "function"
    },
    {
      "inputs": [],
      "name": "batchReveal",
      "outputs": [
        {
          "internalType": "address",
          "name": "",
          "type": "address"
        }
      ],
      "stateMutability": "view",
      "type": "function"
    },
    {
      "inputs": [
        {
          "internalType": "string",
          "name": "_name",
          "type": "string"
        },
        {
          "internalType": "string",
          "name": "_symbol",
          "type": "string"
        },
        {
          "internalType": "address",
          "name": "_projectOwner",
          "type": "address"
        },
        {
          "internalType": "address",
          "name": "_royaltyReceiver",
          "type": "address"
        },
        {
          "internalType": "uint256",
          "name": "_maxBatchSize",
          "type": "uint256"
        },
        {
          "internalType": "uint256",
          "name": "_collectionSize",
          "type": "uint256"
        },
        {
          "internalType": "uint256",
          "name": "_amountForDevs",
          "type": "uint256"
        },
        {
          "internalType": "uint256",
          "name": "_amountForAllowlist",
          "type": "uint256"
        }
      ],
      "name": "createFlatLaunchpeg",
      "outputs": [
        {
          "internalType": "address",
          "name": "",
          "type": "address"
        }
      ],
      "stateMutability": "nonpayable",
      "type": "function"
    },
    {
      "inputs": [
        {
          "internalType": "string",
          "name": "_name",
          "type": "string"
        },
        {
          "internalType": "string",
          "name": "_symbol",
          "type": "string"
        },
        {
          "internalType": "address",
          "name": "_projectOwner",
          "type": "address"
        },
        {
          "internalType": "address",
          "name": "_royaltyReceiver",
          "type": "address"
        },
        {
          "internalType": "uint256",
          "name": "_maxBatchSize",
          "type": "uint256"
        },
        {
          "internalType": "uint256",
          "name": "_collectionSize",
          "type": "uint256"
        },
        {
          "internalType": "uint256",
          "name": "_amountForAuction",
          "type": "uint256"
        },
        {
          "internalType": "uint256",
          "name": "_amountForAllowlist",
          "type": "uint256"
        },
        {
          "internalType": "uint256",
          "name": "_amountForDevs",
          "type": "uint256"
        }
      ],
      "name": "createLaunchpeg",
      "outputs": [
        {
          "internalType": "address",
          "name": "",
          "type": "address"
        }
      ],
      "stateMutability": "nonpayable",
      "type": "function"
    },
    {
      "inputs": [],
      "name": "defaultPausers",
      "outputs": [
        {
          "internalType": "address[]",
          "name": "",
          "type": "address[]"
        }
      ],
      "stateMutability": "view",
      "type": "function"
    },
    {
      "inputs": [],
      "name": "flatLaunchpegImplementation",
      "outputs": [
        {
          "internalType": "address",
          "name": "",
          "type": "address"
        }
      ],
      "stateMutability": "view",
      "type": "function"
    },
    {
      "inputs": [
        {
          "internalType": "address",
          "name": "_launchpegImplementation",
          "type": "address"
        },
        {
          "internalType": "address",
          "name": "_flatLaunchpegImplementation",
          "type": "address"
        },
        {
          "internalType": "address",
          "name": "_batchReveal",
          "type": "address"
        },
        {
          "internalType": "uint256",
          "name": "_joeFeePercent",
          "type": "uint256"
        },
        {
          "internalType": "address",
          "name": "_joeFeeCollector",
          "type": "address"
        }
      ],
      "name": "initialize",
      "outputs": [],
      "stateMutability": "nonpayable",
      "type": "function"
    },
    {
      "inputs": [
        {
          "internalType": "uint256",
          "name": "",
          "type": "uint256"
        },
        {
          "internalType": "address",
          "name": "",
          "type": "address"
        }
      ],
      "name": "isLaunchpeg",
      "outputs": [
        {
          "internalType": "bool",
          "name": "",
          "type": "bool"
        }
      ],
      "stateMutability": "view",
      "type": "function"
    },
    {
      "inputs": [],
      "name": "joeFeeCollector",
      "outputs": [
        {
          "internalType": "address",
          "name": "",
          "type": "address"
        }
      ],
      "stateMutability": "view",
      "type": "function"
    },
    {
      "inputs": [],
      "name": "joeFeePercent",
      "outputs": [
        {
          "internalType": "uint256",
          "name": "",
          "type": "uint256"
        }
      ],
      "stateMutability": "view",
      "type": "function"
    },
    {
      "inputs": [],
      "name": "launchpegImplementation",
      "outputs": [
        {
          "internalType": "address",
          "name": "",
          "type": "address"
        }
      ],
      "stateMutability": "view",
      "type": "function"
    },
    {
      "inputs": [
        {
          "internalType": "uint256",
          "name": "_launchpegType",
          "type": "uint256"
        }
      ],
      "name": "numLaunchpegs",
      "outputs": [
        {
          "internalType": "uint256",
          "name": "",
          "type": "uint256"
        }
      ],
      "stateMutability": "view",
      "type": "function"
    },
    {
      "inputs": [],
      "name": "owner",
      "outputs": [
        {
          "internalType": "address",
          "name": "",
          "type": "address"
        }
      ],
      "stateMutability": "view",
      "type": "function"
    },
    {
      "inputs": [
        {
          "internalType": "address",
          "name": "_pauser",
          "type": "address"
        }
      ],
      "name": "removeDefaultPauser",
      "outputs": [
        {
          "internalType": "bool",
          "name": "",
          "type": "bool"
        }
      ],
      "stateMutability": "nonpayable",
      "type": "function"
    },
    {
      "inputs": [],
      "name": "renounceOwnership",
      "outputs": [],
      "stateMutability": "nonpayable",
      "type": "function"
    },
    {
      "inputs": [
        {
          "internalType": "address",
          "name": "_batchReveal",
          "type": "address"
        }
      ],
      "name": "setBatchReveal",
      "outputs": [],
      "stateMutability": "nonpayable",
      "type": "function"
    },
    {
      "inputs": [
        {
          "internalType": "address",
          "name": "_joeFeeCollector",
          "type": "address"
        }
      ],
      "name": "setDefaultJoeFeeCollector",
      "outputs": [],
      "stateMutability": "nonpayable",
      "type": "function"
    },
    {
      "inputs": [
        {
          "internalType": "uint256",
          "name": "_joeFeePercent",
          "type": "uint256"
        }
      ],
      "name": "setDefaultJoeFeePercent",
      "outputs": [],
      "stateMutability": "nonpayable",
      "type": "function"
    },
    {
      "inputs": [
        {
          "internalType": "address",
          "name": "_flatLaunchpegImplementation",
          "type": "address"
        }
      ],
      "name": "setFlatLaunchpegImplementation",
      "outputs": [],
      "stateMutability": "nonpayable",
      "type": "function"
    },
    {
      "inputs": [
        {
          "internalType": "address",
          "name": "_launchpegImplementation",
          "type": "address"
        }
      ],
      "name": "setLaunchpegImplementation",
      "outputs": [],
      "stateMutability": "nonpayable",
      "type": "function"
    },
    {
      "inputs": [
        {
          "internalType": "address",
          "name": "newOwner",
          "type": "address"
        }
      ],
      "name": "transferOwnership",
      "outputs": [],
      "stateMutability": "nonpayable",
      "type": "function"
    }
  ],
  "transactionHash": "0xb2f8e13dbbeea730bba8db12e15a7912c76a08414fe1870f0c296c1128ee0fe4",
  "args": [],
  "numDeployments": 1,
  "solcInputHash": "f0809a922edf8813ff23d119f252f4d1",
  "bytecode": "0x608060405234801561001057600080fd5b50611ae5806100206000396000f3fe608060405234801561001057600080fd5b50600436106101425760003560e01c80637bc860bc116100b8578063a64c90bf1161007c578063a64c90bf146102b4578063abcc7617146102c9578063c5482fe3146102f7578063cf441bfd14610300578063e4b26d8414610313578063f2fde38b1461032657600080fd5b80637bc860bc146102575780637cbe8d671461026a5780638bb4ee241461027d5780638da5cb5b14610290578063954e75c5146102a157600080fd5b8063530b97a41161010a578063530b97a4146101d557806353edb426146101e85780635bb21376146101fb5780636253c1e31461020e578063715018a614610221578063776f1b1c1461022957600080fd5b806321cc1611146101475780632265708a1461017757806328be40801461018c578063306ec748146101af57806337daf4ca146101c2575b600080fd5b60695461015a906001600160a01b031681565b6040516001600160a01b0390911681526020015b60405180910390f35b61018a610185366004611738565b610339565b005b61019f61019a36600461154a565b6103ca565b604051901515815260200161016e565b61015a6101bd36600461177d565b610449565b60685461015a906001600160a01b031681565b61018a6101e3366004611565565b610481565b61018a6101f636600461154a565b610655565b606b5461015a906001600160a01b031681565b61015a61021c366004611685565b6106f0565b61018a6109dd565b610249610237366004611738565b6000908152606d602052604090205490565b60405190815260200161016e565b61015a6102653660046115dc565b610a13565b61018a61027836600461154a565b610cfb565b60675461015a906001600160a01b031681565b6033546001600160a01b031661015a565b61018a6102af36600461154a565b610d96565b6102bc610e31565b60405161016e91906117ec565b61019f6102d7366004611751565b606c60209081526000928352604080842090915290825290205460ff1681565b610249606a5481565b61019f61030e36600461154a565b610ee1565b61018a61032136600461154a565b610f5d565b61018a61033436600461154a565b610ff8565b6033546001600160a01b0316331461036c5760405162461bcd60e51b8152600401610363906119a5565b60405180910390fd5b61271081111561038f576040516346b7d95d60e11b815260040160405180910390fd5b606a8190556040518181527f4745ea19c676a0945640ec34419fe0680d70511432fc85a2d605840ab568e6329060200160405180910390a150565b6033546000906001600160a01b031633146103f75760405162461bcd60e51b8152600401610363906119a5565b6000610404606584611093565b90508015610441576040516001600160a01b038416907f8dbca9fad5651b24d3647ebdc77124876ad193b0cc114a1d01ded1f1b1860a8790600090a25b90505b919050565b606d602052816000526040600020818154811061046557600080fd5b6000918252602090912001546001600160a01b03169150829050565b600054610100900460ff1661049c5760005460ff16156104a0565b303b155b6105035760405162461bcd60e51b815260206004820152602e60248201527f496e697469616c697a61626c653a20636f6e747261637420697320616c72656160448201526d191e481a5b9a5d1a585b1a5e995960921b6064820152608401610363565b600054610100900460ff16158015610525576000805461ffff19166101011790555b61052d6110b1565b6001600160a01b03861661055457604051637c14876160e01b815260040160405180910390fd5b6001600160a01b03851661057b57604051637c14876160e01b815260040160405180910390fd5b6001600160a01b0384166105a25760405163600dd44b60e01b815260040160405180910390fd5b6127108311156105c5576040516346b7d95d60e11b815260040160405180910390fd5b6001600160a01b0382166105ec57604051631a1b629760e21b815260040160405180910390fd5b606780546001600160a01b038089166001600160a01b0319928316179092556068805488841690831617905560698054878416908316179055606a859055606b805492851692909116919091179055801561064d576000805461ff00191690555b505050505050565b6033546001600160a01b0316331461067f5760405162461bcd60e51b8152600401610363906119a5565b6001600160a01b0381166106a657604051631a1b629760e21b815260040160405180910390fd5b606b80546001600160a01b0319166001600160a01b0383169081179091556040517fe641fd1cd94961ec6280816da07b756907548d41a011cad54123b611f984242f90600090a250565b6033546000906001600160a01b0316331461071d5760405162461bcd60e51b8152600401610363906119a5565b606754600090610735906001600160a01b03166110e0565b6001600160a01b03811660008181527f7febd347df14ea35c529e50fb2dd629d4a6226f5ccc893710fb466f8b83823fc60209081526040808320805460ff19166001908117909155606d9092527fda90043ba5b4096ba14704bc227ab0d3167da15b887e62ab2e76e37daa711356805492830181559092527f222aff5e2a5b70ad2c84bb78ff612359a2c4351891b4f8c7b27050f0d586acc90180546001600160a01b0319168317905551633d625e3360e21b81529192509063f58978cc90610812908e908e908e908e908e908e908e908e908e9060040161189d565b600060405180830381600087803b15801561082c57600080fd5b505af1158015610840573d6000803e3d6000fd5b505060695460405163392c9b6160e21b81526001600160a01b039182166004820152908416925063e4b26d849150602401600060405180830381600087803b15801561088b57600080fd5b505af115801561089f573d6000803e3d6000fd5b5050606a54606b5460405163ecbbfea360e01b815260048101929092526001600160a01b0390811660248301528416925063ecbbfea39150604401600060405180830381600087803b1580156108f457600080fd5b505af1158015610908573d6000803e3d6000fd5b50506040516331081a7b60e21b81523360048201526001600160a01b038416925063c42069ec9150602401600060405180830381600087803b15801561094d57600080fd5b505af1158015610961573d6000803e3d6000fd5b5050505061096e81611178565b876001600160a01b0316896001600160a01b0316826001600160a01b03167f1f9d8b5611391992ec4de203bc1a4f6ac6efcf804eaa81659960d389ecf444b98e8e8c8c8c8c8c6040516109c79796959493929190611955565b60405180910390a49a9950505050505050505050565b6033546001600160a01b03163314610a075760405162461bcd60e51b8152600401610363906119a5565b610a11600061128d565b565b6033546000906001600160a01b03163314610a405760405162461bcd60e51b8152600401610363906119a5565b606854600090610a58906001600160a01b03166110e0565b6001600160a01b03811660008181527fdcf345d7f6a8deb7427d0fee62009fa15100353a1c666b51bb5387b25addcfa960209081526040808320805460ff19166001908117909155606d9092527fbb98d58f7e9fdb81be27aecd01537329fa27413effec04afc2f01e87a038c2ba805492830181559092527fe8217d8c66c3dc0d53980bea050733f987f9f3f18ddc332a3718ad14cdd592f10180546001600160a01b0319168317905551634cadca7960e11b81529192509063995b94f290610b33908d908d908d908d908d908d908d908d90600401611839565b600060405180830381600087803b158015610b4d57600080fd5b505af1158015610b61573d6000803e3d6000fd5b505060695460405163392c9b6160e21b81526001600160a01b039182166004820152908416925063e4b26d849150602401600060405180830381600087803b158015610bac57600080fd5b505af1158015610bc0573d6000803e3d6000fd5b5050606a54606b5460405163ecbbfea360e01b815260048101929092526001600160a01b0390811660248301528416925063ecbbfea39150604401600060405180830381600087803b158015610c1557600080fd5b505af1158015610c29573d6000803e3d6000fd5b50506040516331081a7b60e21b81523360048201526001600160a01b038416925063c42069ec9150602401600060405180830381600087803b158015610c6e57600080fd5b505af1158015610c82573d6000803e3d6000fd5b50505050610c8f81611178565b866001600160a01b0316886001600160a01b0316826001600160a01b03167ff3ae30c363365bc3afc1d55a8019ee6e85f834f8cf0bc6e0e9b8ec3229d12de88d8d8b8b8b8b604051610ce69695949392919061190a565b60405180910390a49998505050505050505050565b6033546001600160a01b03163314610d255760405162461bcd60e51b8152600401610363906119a5565b6001600160a01b038116610d4c57604051637c14876160e01b815260040160405180910390fd5b606880546001600160a01b0319166001600160a01b0383169081179091556040517f8549b2b39c65a9c4ca6b1037f64209a139ef0fc440cd914c14088dd2a368287c90600090a250565b6033546001600160a01b03163314610dc05760405162461bcd60e51b8152600401610363906119a5565b6001600160a01b038116610de757604051637c14876160e01b815260040160405180910390fd5b606780546001600160a01b0319166001600160a01b0383169081179091556040517f8084d0fd0870539f0703b9cf74b2618239081b020be6da48c74b2a6ab670dcfb90600090a250565b60606000610e3f60656112df565b905060008167ffffffffffffffff811115610e5c57610e5c611a99565b604051908082528060200260200182016040528015610e85578160200160208202803683370190505b50905060005b82811015610eda57610e9e6065826112e9565b828281518110610eb057610eb0611a83565b6001600160a01b039092166020928302919091019091015280610ed281611a3c565b915050610e8b565b5092915050565b6033546000906001600160a01b03163314610f0e5760405162461bcd60e51b8152600401610363906119a5565b6000610f1b6065846112f5565b90508015610441576040516001600160a01b038416907fac64c52d13ed8a78d0a91b1b719438c206fe915441bb7b64430fa7dc127b053390600090a292915050565b6033546001600160a01b03163314610f875760405162461bcd60e51b8152600401610363906119a5565b6001600160a01b038116610fae5760405163600dd44b60e01b815260040160405180910390fd5b606980546001600160a01b0319166001600160a01b0383169081179091556040517f05f6bad02832e7104453b7aac929b5da9f741aa594ab6e603786c38059af4f7190600090a250565b6033546001600160a01b031633146110225760405162461bcd60e51b8152600401610363906119a5565b6001600160a01b0381166110875760405162461bcd60e51b815260206004820152602660248201527f4f776e61626c653a206e6577206f776e657220697320746865207a65726f206160448201526564647265737360d01b6064820152608401610363565b6110908161128d565b50565b60006110a8836001600160a01b03841661130a565b90505b92915050565b600054610100900460ff166110d85760405162461bcd60e51b8152600401610363906119da565b610a11611359565b6000604051733d602d80600a3d3981f3363d3d373d3d3d363d7360601b81528260601b60148201526e5af43d82803e903d91602b57fd5bf360881b60288201526037816000f09150506001600160a01b0381166104445760405162461bcd60e51b8152602060048201526016602482015275115490cc4c4d8dce8818dc99585d194819985a5b195960521b6044820152606401610363565b6000816001600160a01b031663e63ab1e96040518163ffffffff1660e01b815260040160206040518083038186803b1580156111b357600080fd5b505afa1580156111c7573d6000803e3d6000fd5b505050506040513d601f19601f820116820180604052508101906111eb91906115c3565b905060005b6111fa60656112df565b81101561128857600061120e6065836112e9565b604051632f2ff15d60e01b8152600481018590526001600160a01b03808316602483015291925090851690632f2ff15d90604401600060405180830381600087803b15801561125c57600080fd5b505af1158015611270573d6000803e3d6000fd5b5050505050808061128090611a3c565b9150506111f0565b505050565b603380546001600160a01b038381166001600160a01b0319831681179093556040519116919082907f8be0079c531659141344cd1fd0a4f28419497f9722a3daafe3b4186f6b6457e090600090a35050565b60006110ab825490565b60006110a88383611389565b60006110a8836001600160a01b0384166113b3565b6000818152600183016020526040812054611351575081546001818101845560008481526020808220909301849055845484825282860190935260409020919091556110ab565b5060006110ab565b600054610100900460ff166113805760405162461bcd60e51b8152600401610363906119da565b610a113361128d565b60008260000182815481106113a0576113a0611a83565b9060005260206000200154905092915050565b6000818152600183016020526040812054801561149c5760006113d7600183611a25565b85549091506000906113eb90600190611a25565b905081811461145057600086600001828154811061140b5761140b611a83565b906000526020600020015490508087600001848154811061142e5761142e611a83565b6000918252602080832090910192909255918252600188019052604090208390555b855486908061146157611461611a6d565b6001900381819060005260206000200160009055905585600101600086815260200190815260200160002060009055600193505050506110ab565b60009150506110ab565b80356001600160a01b038116811461044457600080fd5b600082601f8301126114ce57600080fd5b813567ffffffffffffffff808211156114e9576114e9611a99565b604051601f8301601f19908116603f0116810190828211818310171561151157611511611a99565b8160405283815286602085880101111561152a57600080fd5b836020870160208301376000602085830101528094505050505092915050565b60006020828403121561155c57600080fd5b6110a8826114a6565b600080600080600060a0868803121561157d57600080fd5b611586866114a6565b9450611594602087016114a6565b93506115a2604087016114a6565b9250606086013591506115b7608087016114a6565b90509295509295909350565b6000602082840312156115d557600080fd5b5051919050565b600080600080600080600080610100898b0312156115f957600080fd5b883567ffffffffffffffff8082111561161157600080fd5b61161d8c838d016114bd565b995060208b013591508082111561163357600080fd5b506116408b828c016114bd565b97505061164f60408a016114a6565b955061165d60608a016114a6565b979a969950949760808101359660a0820135965060c0820135955060e0909101359350915050565b60008060008060008060008060006101208a8c0312156116a457600080fd5b893567ffffffffffffffff808211156116bc57600080fd5b6116c88d838e016114bd565b9a5060208c01359150808211156116de57600080fd5b506116eb8c828d016114bd565b9850506116fa60408b016114a6565b965061170860608b016114a6565b989b979a50959860808101359760a0820135975060c0820135965060e08201359550610100909101359350915050565b60006020828403121561174a57600080fd5b5035919050565b6000806040838503121561176457600080fd5b82359150611774602084016114a6565b90509250929050565b6000806040838503121561179057600080fd5b50508035926020909101359150565b6000815180845260005b818110156117c5576020818501810151868301820152016117a9565b818111156117d7576000602083870101525b50601f01601f19169290920160200192915050565b6020808252825182820181905260009190848201906040850190845b8181101561182d5783516001600160a01b031683529284019291840191600101611808565b50909695505050505050565b600061010080835261184d8184018c61179f565b90508281036020840152611861818b61179f565b6001600160a01b03998a16604085015297909816606083015250608081019490945260a084019290925260c083015260e0909101529392505050565b60006101208083526118b18184018d61179f565b905082810360208401526118c5818c61179f565b6001600160a01b039a8b16604085015298909916606083015250608081019590955260a085019390935260c084019190915260e0830152610100909101529392505050565b60c08152600061191d60c083018961179f565b828103602084015261192f818961179f565b9150508560408301528460608301528360808301528260a0830152979650505050505050565b60e08152600061196860e083018a61179f565b828103602084015261197a818a61179f565b604084019890985250506060810194909452608084019290925260a083015260c09091015292915050565b6020808252818101527f4f776e61626c653a2063616c6c6572206973206e6f7420746865206f776e6572604082015260600190565b6020808252602b908201527f496e697469616c697a61626c653a20636f6e7472616374206973206e6f74206960408201526a6e697469616c697a696e6760a81b606082015260800190565b600082821015611a3757611a37611a57565b500390565b6000600019821415611a5057611a50611a57565b5060010190565b634e487b7160e01b600052601160045260246000fd5b634e487b7160e01b600052603160045260246000fd5b634e487b7160e01b600052603260045260246000fd5b634e487b7160e01b600052604160045260246000fdfea26469706673582212207df5e199a2f7e6b0e37752fdfd9067ece38bdcddb4fe68c9a2645ded7f4eb48f64736f6c63430008060033",
  "devdoc": {
    "author": "Trader Joe",
    "kind": "dev",
    "methods": {
      "addDefaultPauser(address)": {
        "params": {
          "_pauser": "Pauser address to add"
        },
        "returns": {
          "_0": "true if not existing pauser and successfully added, false otherwise"
        }
      },
      "createFlatLaunchpeg(string,string,address,address,uint256,uint256,uint256,uint256)": {
        "params": {
          "_amountForAllowlist": "Amount of NFTs available for the allowlist mint (e.g 1000)",
          "_amountForDevs": "Amount of NFTs reserved for `projectOwner` (e.g 200)",
          "_collectionSize": "The collection size (e.g 10000)",
          "_maxBatchSize": "Max amount of NFTs that can be minted at once",
          "_name": "ERC721 name",
          "_projectOwner": "The project owner",
          "_royaltyReceiver": "Royalty fee collector",
          "_symbol": "ERC721 symbol"
        },
        "returns": {
          "_0": "flatLaunchpeg New FlatLaunchpeg address"
        }
      },
      "createLaunchpeg(string,string,address,address,uint256,uint256,uint256,uint256,uint256)": {
        "params": {
          "_amountForAllowlist": "Amount of NFTs available for the allowlist mint (e.g 1000)",
          "_amountForAuction": "Amount of NFTs available for the auction (e.g 8000)",
          "_amountForDevs": "Amount of NFTs reserved for `projectOwner` (e.g 200)",
          "_collectionSize": "The collection size (e.g 10000)",
          "_maxBatchSize": "Max amount of NFTs that can be minted at once",
          "_name": "ERC721 name",
          "_projectOwner": "The project owner",
          "_royaltyReceiver": "Royalty fee collector",
          "_symbol": "ERC721 symbol"
        },
        "returns": {
          "_0": "launchpeg New Launchpeg address"
        }
      },
      "initialize(address,address,address,uint256,address)": {
        "details": "Uses clone factory pattern to save space",
        "params": {
          "_batchReveal": "Batch reveal address",
          "_flatLaunchpegImplementation": "FlatLaunchpeg contract to be cloned",
          "_joeFeeCollector": "Default fee collector",
          "_joeFeePercent": "Default fee percentage",
          "_launchpegImplementation": "Launchpeg contract to be cloned"
        }
      },
      "numLaunchpegs(uint256)": {
        "params": {
          "_launchpegType": "Type of Launchpeg to consider"
        },
        "returns": {
          "_0": "LaunchpegNumber The number of Launchpegs ever created"
        }
      },
      "owner()": {
        "details": "Returns the address of the current owner."
      },
      "removeDefaultPauser(address)": {
        "params": {
          "_pauser": "Pauser address to remove"
        },
        "returns": {
          "_0": "true if existing pauser and successfully removed, false otherwise"
        }
      },
      "renounceOwnership()": {
        "details": "Leaves the contract without owner. It will not be possible to call `onlyOwner` functions anymore. Can only be called by the current owner. NOTE: Renouncing ownership will leave the contract without an owner, thereby removing any functionality that is only available to the owner."
      },
      "setBatchReveal(address)": {
        "params": {
          "_batchReveal": "New batch reveal"
        }
      },
      "setDefaultJoeFeeCollector(address)": {
        "params": {
          "_joeFeeCollector": "New collector address"
        }
      },
      "setDefaultJoeFeePercent(uint256)": {
        "params": {
          "_joeFeePercent": "New joeFeePercent"
        }
      },
      "setFlatLaunchpegImplementation(address)": {
        "params": {
          "_flatLaunchpegImplementation": "New flatLaunchpegImplementation"
        }
      },
      "setLaunchpegImplementation(address)": {
        "params": {
          "_launchpegImplementation": "New launchpegImplementation"
        }
      },
      "transferOwnership(address)": {
        "details": "Transfers ownership of the contract to a new account (`newOwner`). Can only be called by the current owner."
      }
    },
    "stateVariables": {
      "_defaultPausers": {
        "details": "Default addresses with pauser role for created collections"
      },
      "joeFeePercent": {
        "details": "In basis points e.g 100 for 1%"
      }
    },
    "title": "Launchpeg Factory",
    "version": 1
  },
  "userdoc": {
    "kind": "user",
    "methods": {
      "addDefaultPauser(address)": {
        "notice": "Add a default address with pauser role"
      },
      "allLaunchpegs(uint256,uint256)": {
        "notice": "Launchpegs address list by type of Launchpeg"
      },
      "batchReveal()": {
        "notice": "Batch reveal address"
      },
      "createFlatLaunchpeg(string,string,address,address,uint256,uint256,uint256,uint256)": {
        "notice": "FlatLaunchpeg creation"
      },
      "createLaunchpeg(string,string,address,address,uint256,uint256,uint256,uint256,uint256)": {
        "notice": "Launchpeg creation"
      },
      "flatLaunchpegImplementation()": {
        "notice": "FlatLaunchpeg contract to be cloned"
      },
      "initialize(address,address,address,uint256,address)": {
        "notice": "Initializes the Launchpeg factory"
      },
      "isLaunchpeg(uint256,address)": {
        "notice": "Checks if an address is stored as a Launchpeg, by type of Launchpeg"
      },
      "joeFeeCollector()": {
        "notice": "Default fee collector"
      },
      "joeFeePercent()": {
        "notice": "Default fee percentage"
      },
      "launchpegImplementation()": {
        "notice": "Launchpeg contract to be cloned"
      },
      "numLaunchpegs(uint256)": {
        "notice": "Returns the number of Launchpegs"
      },
      "removeDefaultPauser(address)": {
        "notice": "Remove a default address with pauser role"
      },
      "setBatchReveal(address)": {
        "notice": "Set batch reveal address"
      },
      "setDefaultJoeFeeCollector(address)": {
        "notice": "Set default address to collect protocol fees"
      },
      "setDefaultJoeFeePercent(uint256)": {
        "notice": "Set percentage of protocol fees"
      },
      "setFlatLaunchpegImplementation(address)": {
        "notice": "Set address for flatLaunchpegImplementation"
      },
      "setLaunchpegImplementation(address)": {
        "notice": "Set address for launchpegImplementation"
      }
    },
    "notice": "Factory that creates Launchpeg contracts",
    "version": 1
  },
  "storageLayout": {
    "storage": [
      {
        "astId": 810,
        "contract": "contracts/LaunchpegFactory.sol:LaunchpegFactory",
        "label": "_initialized",
        "offset": 0,
        "slot": "0",
        "type": "t_bool"
      },
      {
        "astId": 813,
        "contract": "contracts/LaunchpegFactory.sol:LaunchpegFactory",
        "label": "_initializing",
        "offset": 1,
        "slot": "0",
        "type": "t_bool"
      },
      {
        "astId": 1710,
        "contract": "contracts/LaunchpegFactory.sol:LaunchpegFactory",
        "label": "__gap",
        "offset": 0,
        "slot": "1",
        "type": "t_array(t_uint256)50_storage"
      },
      {
        "astId": 671,
        "contract": "contracts/LaunchpegFactory.sol:LaunchpegFactory",
        "label": "_owner",
        "offset": 0,
        "slot": "51",
        "type": "t_address"
      },
      {
        "astId": 783,
        "contract": "contracts/LaunchpegFactory.sol:LaunchpegFactory",
        "label": "__gap",
        "offset": 0,
        "slot": "52",
        "type": "t_array(t_uint256)49_storage"
      },
      {
        "astId": 7898,
        "contract": "contracts/LaunchpegFactory.sol:LaunchpegFactory",
        "label": "_defaultPausers",
        "offset": 0,
        "slot": "101",
        "type": "t_struct(AddressSet)2961_storage"
      },
      {
        "astId": 7902,
        "contract": "contracts/LaunchpegFactory.sol:LaunchpegFactory",
        "label": "launchpegImplementation",
        "offset": 0,
        "slot": "103",
        "type": "t_address"
      },
      {
        "astId": 7906,
        "contract": "contracts/LaunchpegFactory.sol:LaunchpegFactory",
        "label": "flatLaunchpegImplementation",
        "offset": 0,
        "slot": "104",
        "type": "t_address"
      },
      {
        "astId": 7910,
        "contract": "contracts/LaunchpegFactory.sol:LaunchpegFactory",
        "label": "batchReveal",
        "offset": 0,
        "slot": "105",
        "type": "t_address"
      },
      {
        "astId": 7914,
        "contract": "contracts/LaunchpegFactory.sol:LaunchpegFactory",
        "label": "joeFeePercent",
        "offset": 0,
        "slot": "106",
        "type": "t_uint256"
      },
      {
        "astId": 7918,
        "contract": "contracts/LaunchpegFactory.sol:LaunchpegFactory",
        "label": "joeFeeCollector",
        "offset": 0,
        "slot": "107",
        "type": "t_address"
      },
      {
        "astId": 7926,
        "contract": "contracts/LaunchpegFactory.sol:LaunchpegFactory",
        "label": "isLaunchpeg",
        "offset": 0,
        "slot": "108",
        "type": "t_mapping(t_uint256,t_mapping(t_address,t_bool))"
      },
      {
        "astId": 7933,
        "contract": "contracts/LaunchpegFactory.sol:LaunchpegFactory",
        "label": "allLaunchpegs",
        "offset": 0,
        "slot": "109",
        "type": "t_mapping(t_uint256,t_array(t_address)dyn_storage)"
      }
    ],
    "types": {
      "t_address": {
        "encoding": "inplace",
        "label": "address",
        "numberOfBytes": "20"
      },
      "t_array(t_address)dyn_storage": {
        "base": "t_address",
        "encoding": "dynamic_array",
        "label": "address[]",
        "numberOfBytes": "32"
      },
      "t_array(t_bytes32)dyn_storage": {
        "base": "t_bytes32",
        "encoding": "dynamic_array",
        "label": "bytes32[]",
        "numberOfBytes": "32"
      },
      "t_array(t_uint256)49_storage": {
        "base": "t_uint256",
        "encoding": "inplace",
        "label": "uint256[49]",
        "numberOfBytes": "1568"
      },
      "t_array(t_uint256)50_storage": {
        "base": "t_uint256",
        "encoding": "inplace",
        "label": "uint256[50]",
        "numberOfBytes": "1600"
      },
      "t_bool": {
        "encoding": "inplace",
        "label": "bool",
        "numberOfBytes": "1"
      },
      "t_bytes32": {
        "encoding": "inplace",
        "label": "bytes32",
        "numberOfBytes": "32"
      },
      "t_mapping(t_address,t_bool)": {
        "encoding": "mapping",
        "key": "t_address",
        "label": "mapping(address => bool)",
        "numberOfBytes": "32",
        "value": "t_bool"
      },
      "t_mapping(t_bytes32,t_uint256)": {
        "encoding": "mapping",
        "key": "t_bytes32",
        "label": "mapping(bytes32 => uint256)",
        "numberOfBytes": "32",
        "value": "t_uint256"
      },
      "t_mapping(t_uint256,t_array(t_address)dyn_storage)": {
        "encoding": "mapping",
        "key": "t_uint256",
        "label": "mapping(uint256 => address[])",
        "numberOfBytes": "32",
        "value": "t_array(t_address)dyn_storage"
      },
      "t_mapping(t_uint256,t_mapping(t_address,t_bool))": {
        "encoding": "mapping",
        "key": "t_uint256",
        "label": "mapping(uint256 => mapping(address => bool))",
        "numberOfBytes": "32",
        "value": "t_mapping(t_address,t_bool)"
      },
      "t_struct(AddressSet)2961_storage": {
        "encoding": "inplace",
        "label": "struct EnumerableSet.AddressSet",
        "members": [
          {
            "astId": 2960,
            "contract": "contracts/LaunchpegFactory.sol:LaunchpegFactory",
            "label": "_inner",
            "offset": 0,
            "slot": "0",
            "type": "t_struct(Set)2660_storage"
          }
        ],
        "numberOfBytes": "64"
      },
      "t_struct(Set)2660_storage": {
        "encoding": "inplace",
        "label": "struct EnumerableSet.Set",
        "members": [
          {
            "astId": 2655,
            "contract": "contracts/LaunchpegFactory.sol:LaunchpegFactory",
            "label": "_values",
            "offset": 0,
            "slot": "0",
            "type": "t_array(t_bytes32)dyn_storage"
          },
          {
            "astId": 2659,
            "contract": "contracts/LaunchpegFactory.sol:LaunchpegFactory",
            "label": "_indexes",
            "offset": 0,
            "slot": "1",
            "type": "t_mapping(t_bytes32,t_uint256)"
          }
        ],
        "numberOfBytes": "64"
      },
      "t_uint256": {
        "encoding": "inplace",
        "label": "uint256",
        "numberOfBytes": "32"
      }
    }
  }
}