{
  "address": "0x123ff972A5a767FC8d4C639CC9d72ec8C6698295",
  "abi": [
    {
      "inputs": [],
      "name": "ApprovalCallerNotOwnerNorApproved",
      "type": "error"
    },
    {
      "inputs": [],
      "name": "ApprovalQueryForNonexistentToken",
      "type": "error"
    },
    {
      "inputs": [],
      "name": "ApprovalToCurrentOwner",
      "type": "error"
    },
    {
      "inputs": [],
      "name": "ApproveToCaller",
      "type": "error"
    },
    {
      "inputs": [],
      "name": "BalanceQueryForZeroAddress",
      "type": "error"
    },
    {
      "inputs": [],
      "name": "Launchpeg__AllowlistBeforeAuction",
      "type": "error"
    },
    {
      "inputs": [],
      "name": "Launchpeg__CanNotMintThisMany",
      "type": "error"
    },
    {
      "inputs": [],
      "name": "Launchpeg__EndPriceGreaterThanStartPrice",
      "type": "error"
    },
    {
      "inputs": [],
      "name": "Launchpeg__InvalidAuctionDropInterval",
      "type": "error"
    },
    {
      "inputs": [],
      "name": "Launchpeg__InvalidJoeFeeCollector",
      "type": "error"
    },
    {
      "inputs": [],
      "name": "Launchpeg__InvalidMaxBatchSize",
      "type": "error"
    },
    {
      "inputs": [],
      "name": "Launchpeg__InvalidPercent",
      "type": "error"
    },
    {
      "inputs": [],
      "name": "Launchpeg__InvalidProjectOwner",
      "type": "error"
    },
    {
      "inputs": [],
      "name": "Launchpeg__InvalidRoyaltyInfo",
      "type": "error"
    },
    {
      "inputs": [],
      "name": "Launchpeg__InvalidStartTime",
      "type": "error"
    },
    {
      "inputs": [],
      "name": "Launchpeg__JoeFeeAlreadyInitialized",
      "type": "error"
    },
    {
      "inputs": [],
      "name": "Launchpeg__LargerCollectionSizeNeeded",
      "type": "error"
    },
    {
      "inputs": [],
      "name": "Launchpeg__MaxSupplyForDevReached",
      "type": "error"
    },
    {
      "inputs": [],
      "name": "Launchpeg__MaxSupplyReached",
      "type": "error"
    },
    {
      "inputs": [],
      "name": "Launchpeg__NotEligibleForAllowlistMint",
      "type": "error"
    },
    {
      "inputs": [
        {
          "internalType": "uint256",
          "name": "avaxSent",
          "type": "uint256"
        }
      ],
      "name": "Launchpeg__NotEnoughAVAX",
      "type": "error"
    },
    {
      "inputs": [],
      "name": "Launchpeg__NotInitialized",
      "type": "error"
    },
    {
      "inputs": [],
      "name": "Launchpeg__PublicSaleBeforeAllowlist",
      "type": "error"
    },
    {
      "inputs": [],
      "name": "Launchpeg__PublicSaleEndBeforePublicSaleStart",
      "type": "error"
    },
    {
      "inputs": [],
      "name": "Launchpeg__RevealNextBatchNotAvailable",
      "type": "error"
    },
    {
      "inputs": [],
      "name": "Launchpeg__TransferFailed",
      "type": "error"
    },
    {
      "inputs": [],
      "name": "Launchpeg__Unauthorized",
      "type": "error"
    },
    {
      "inputs": [],
      "name": "Launchpeg__WithdrawAVAXNotAvailable",
      "type": "error"
    },
    {
      "inputs": [],
      "name": "Launchpeg__WrongAddressesAndNumSlotsLength",
      "type": "error"
    },
    {
      "inputs": [],
      "name": "Launchpeg__WrongPhase",
      "type": "error"
    },
    {
      "inputs": [],
      "name": "MintToZeroAddress",
      "type": "error"
    },
    {
      "inputs": [],
      "name": "MintZeroQuantity",
      "type": "error"
    },
    {
      "inputs": [],
      "name": "OwnerQueryForNonexistentToken",
      "type": "error"
    },
    {
      "inputs": [],
      "name": "PendingOwnableUpgradeable__NoPendingOwner",
      "type": "error"
    },
    {
      "inputs": [],
      "name": "PendingOwnableUpgradeable__NotOwner",
      "type": "error"
    },
    {
      "inputs": [],
      "name": "PendingOwnableUpgradeable__NotPendingOwner",
      "type": "error"
    },
    {
      "inputs": [],
      "name": "PendingOwnableUpgradeable__PendingOwnerAlreadySet",
      "type": "error"
    },
    {
      "inputs": [],
      "name": "SafeAccessControlEnumerableUpgradeable__RoleIsDefaultAdmin",
      "type": "error"
    },
    {
      "inputs": [
        {
          "internalType": "bytes32",
          "name": "role",
          "type": "bytes32"
        },
        {
          "internalType": "address",
          "name": "sender",
          "type": "address"
        }
      ],
      "name": "SafeAccessControlEnumerableUpgradeable__SenderMissingRoleAndIsNotOwner",
      "type": "error"
    },
    {
      "inputs": [],
      "name": "TransferCallerNotOwnerNorApproved",
      "type": "error"
    },
    {
      "inputs": [],
      "name": "TransferFromIncorrectOwner",
      "type": "error"
    },
    {
      "inputs": [],
      "name": "TransferToNonERC721ReceiverImplementer",
      "type": "error"
    },
    {
      "inputs": [],
      "name": "TransferToZeroAddress",
      "type": "error"
    },
    {
      "anonymous": false,
      "inputs": [],
      "name": "AllowlistSeeded",
      "type": "event"
    },
    {
      "anonymous": false,
      "inputs": [
        {
          "indexed": false,
          "internalType": "uint256",
          "name": "allowlistStartTime",
          "type": "uint256"
        }
      ],
      "name": "AllowlistStartTimeSet",
      "type": "event"
    },
    {
      "anonymous": false,
      "inputs": [
        {
          "indexed": true,
          "internalType": "address",
          "name": "owner",
          "type": "address"
        },
        {
          "indexed": true,
          "internalType": "address",
          "name": "approved",
          "type": "address"
        },
        {
          "indexed": true,
          "internalType": "uint256",
          "name": "tokenId",
          "type": "uint256"
        }
      ],
      "name": "Approval",
      "type": "event"
    },
    {
      "anonymous": false,
      "inputs": [
        {
          "indexed": true,
          "internalType": "address",
          "name": "owner",
          "type": "address"
        },
        {
          "indexed": true,
          "internalType": "address",
          "name": "operator",
          "type": "address"
        },
        {
          "indexed": false,
          "internalType": "bool",
          "name": "approved",
          "type": "bool"
        }
      ],
      "name": "ApprovalForAll",
      "type": "event"
    },
    {
      "anonymous": false,
      "inputs": [
        {
          "indexed": false,
          "internalType": "uint256",
          "name": "auctionSaleStartTime",
          "type": "uint256"
        }
      ],
      "name": "AuctionSaleStartTimeSet",
      "type": "event"
    },
    {
      "anonymous": false,
      "inputs": [
        {
          "indexed": true,
          "internalType": "address",
          "name": "sender",
          "type": "address"
        },
        {
          "indexed": false,
          "internalType": "uint256",
          "name": "amount",
          "type": "uint256"
        },
        {
          "indexed": false,
          "internalType": "uint256",
          "name": "fee",
          "type": "uint256"
        }
      ],
      "name": "AvaxWithdraw",
      "type": "event"
    },
    {
      "anonymous": false,
      "inputs": [
        {
          "indexed": false,
          "internalType": "string",
          "name": "baseURI",
          "type": "string"
        }
      ],
      "name": "BaseURISet",
      "type": "event"
    },
    {
      "anonymous": false,
      "inputs": [
        {
          "indexed": true,
          "internalType": "address",
          "name": "receiver",
          "type": "address"
        },
        {
          "indexed": false,
          "internalType": "uint256",
          "name": "feePercent",
          "type": "uint256"
        }
      ],
      "name": "DefaultRoyaltySet",
      "type": "event"
    },
    {
      "anonymous": false,
      "inputs": [
        {
          "indexed": true,
          "internalType": "address",
          "name": "sender",
          "type": "address"
        },
        {
          "indexed": false,
          "internalType": "uint256",
          "name": "quantity",
          "type": "uint256"
        }
      ],
      "name": "DevMint",
      "type": "event"
    },
    {
      "anonymous": false,
      "inputs": [
        {
          "indexed": false,
          "internalType": "uint256",
          "name": "auctionSaleStartTime",
          "type": "uint256"
        },
        {
          "indexed": false,
          "internalType": "uint256",
          "name": "auctionStartPrice",
          "type": "uint256"
        },
        {
          "indexed": false,
          "internalType": "uint256",
          "name": "auctionEndPrice",
          "type": "uint256"
        },
        {
          "indexed": false,
          "internalType": "uint256",
          "name": "auctionDropInterval",
          "type": "uint256"
        },
        {
          "indexed": false,
          "internalType": "uint256",
          "name": "allowlistStartTime",
          "type": "uint256"
        },
        {
          "indexed": false,
          "internalType": "uint256",
          "name": "allowlistDiscountPercent",
          "type": "uint256"
        },
        {
          "indexed": false,
          "internalType": "uint256",
          "name": "publicSaleStartTime",
          "type": "uint256"
        },
        {
          "indexed": false,
          "internalType": "uint256",
          "name": "publicSaleEndTime",
          "type": "uint256"
        },
        {
          "indexed": false,
          "internalType": "uint256",
          "name": "publicSaleDiscountPercent",
          "type": "uint256"
        }
      ],
      "name": "Initialized",
      "type": "event"
    },
    {
      "anonymous": false,
      "inputs": [
        {
          "indexed": false,
          "internalType": "uint256",
          "name": "feePercent",
          "type": "uint256"
        },
        {
          "indexed": false,
          "internalType": "address",
          "name": "feeCollector",
          "type": "address"
        }
      ],
      "name": "JoeFeeInitialized",
      "type": "event"
    },
    {
      "anonymous": false,
      "inputs": [
        {
          "indexed": true,
          "internalType": "address",
          "name": "sender",
          "type": "address"
        },
        {
          "indexed": false,
          "internalType": "uint256",
          "name": "quantity",
          "type": "uint256"
        },
        {
          "indexed": false,
          "internalType": "uint256",
          "name": "price",
          "type": "uint256"
        },
        {
          "indexed": false,
          "internalType": "uint256",
          "name": "startTokenId",
          "type": "uint256"
        },
        {
          "indexed": false,
          "internalType": "enum IBaseLaunchpeg.Phase",
          "name": "phase",
          "type": "uint8"
        }
      ],
      "name": "Mint",
      "type": "event"
    },
    {
      "anonymous": false,
      "inputs": [
        {
          "indexed": true,
          "internalType": "address",
          "name": "previousOwner",
          "type": "address"
        },
        {
          "indexed": true,
          "internalType": "address",
          "name": "newOwner",
          "type": "address"
        }
      ],
      "name": "OwnershipTransferred",
      "type": "event"
    },
    {
      "anonymous": false,
      "inputs": [
        {
          "indexed": true,
          "internalType": "address",
          "name": "pendingOwner",
          "type": "address"
        }
      ],
      "name": "PendingOwnerSet",
      "type": "event"
    },
    {
      "anonymous": false,
      "inputs": [
        {
          "indexed": false,
          "internalType": "uint256",
          "name": "publicSaleEndTime",
          "type": "uint256"
        }
      ],
      "name": "PublicSaleEndTimeSet",
      "type": "event"
    },
    {
      "anonymous": false,
      "inputs": [
        {
          "indexed": false,
          "internalType": "uint256",
          "name": "publicSaleStartTime",
          "type": "uint256"
        }
      ],
      "name": "PublicSaleStartTimeSet",
      "type": "event"
    },
    {
      "anonymous": false,
      "inputs": [
        {
          "indexed": true,
          "internalType": "bytes32",
          "name": "role",
          "type": "bytes32"
        },
        {
          "indexed": true,
          "internalType": "bytes32",
          "name": "previousAdminRole",
          "type": "bytes32"
        },
        {
          "indexed": true,
          "internalType": "bytes32",
          "name": "newAdminRole",
          "type": "bytes32"
        }
      ],
      "name": "RoleAdminChanged",
      "type": "event"
    },
    {
      "anonymous": false,
      "inputs": [
        {
          "indexed": true,
          "internalType": "bytes32",
          "name": "role",
          "type": "bytes32"
        },
        {
          "indexed": true,
          "internalType": "address",
          "name": "account",
          "type": "address"
        },
        {
          "indexed": true,
          "internalType": "address",
          "name": "sender",
          "type": "address"
        }
      ],
      "name": "RoleGranted",
      "type": "event"
    },
    {
      "anonymous": false,
      "inputs": [
        {
          "indexed": true,
          "internalType": "bytes32",
          "name": "role",
          "type": "bytes32"
        },
        {
          "indexed": true,
          "internalType": "address",
          "name": "account",
          "type": "address"
        },
        {
          "indexed": true,
          "internalType": "address",
          "name": "sender",
          "type": "address"
        }
      ],
      "name": "RoleRevoked",
      "type": "event"
    },
    {
      "anonymous": false,
      "inputs": [
        {
          "indexed": true,
          "internalType": "address",
          "name": "from",
          "type": "address"
        },
        {
          "indexed": true,
          "internalType": "address",
          "name": "to",
          "type": "address"
        },
        {
          "indexed": true,
          "internalType": "uint256",
          "name": "tokenId",
          "type": "uint256"
        }
      ],
      "name": "Transfer",
      "type": "event"
    },
    {
      "anonymous": false,
      "inputs": [
        {
          "indexed": false,
          "internalType": "string",
          "name": "unrevealedURI",
          "type": "string"
        }
      ],
      "name": "UnrevealedURISet",
      "type": "event"
    },
    {
      "anonymous": false,
      "inputs": [
        {
          "indexed": false,
          "internalType": "uint256",
          "name": "withdrawAVAXStartTime",
          "type": "uint256"
        }
      ],
      "name": "WithdrawAVAXStartTimeSet",
      "type": "event"
    },
    {
      "inputs": [],
      "name": "BASIS_POINT_PRECISION",
      "outputs": [
        {
          "internalType": "uint256",
          "name": "",
          "type": "uint256"
        }
      ],
      "stateMutability": "view",
      "type": "function"
    },
    {
      "inputs": [],
      "name": "DEFAULT_ADMIN_ROLE",
      "outputs": [
        {
          "internalType": "bytes32",
          "name": "",
          "type": "bytes32"
        }
      ],
      "stateMutability": "view",
      "type": "function"
    },
    {
      "inputs": [],
      "name": "PROJECT_OWNER_ROLE",
      "outputs": [
        {
          "internalType": "bytes32",
          "name": "",
          "type": "bytes32"
        }
      ],
      "stateMutability": "view",
      "type": "function"
    },
    {
      "inputs": [
        {
          "internalType": "address",
          "name": "",
          "type": "address"
        }
      ],
      "name": "allowlist",
      "outputs": [
        {
          "internalType": "uint256",
          "name": "",
          "type": "uint256"
        }
      ],
      "stateMutability": "view",
      "type": "function"
    },
    {
      "inputs": [],
      "name": "allowlistDiscountPercent",
      "outputs": [
        {
          "internalType": "uint256",
          "name": "",
          "type": "uint256"
        }
      ],
      "stateMutability": "view",
      "type": "function"
    },
    {
      "inputs": [
        {
          "internalType": "uint256",
          "name": "_quantity",
          "type": "uint256"
        }
      ],
      "name": "allowlistMint",
      "outputs": [],
      "stateMutability": "payable",
      "type": "function"
    },
    {
      "inputs": [],
      "name": "allowlistStartTime",
      "outputs": [
        {
          "internalType": "uint256",
          "name": "",
          "type": "uint256"
        }
      ],
      "stateMutability": "view",
      "type": "function"
    },
    {
      "inputs": [],
      "name": "amountForAllowlist",
      "outputs": [
        {
          "internalType": "uint256",
          "name": "",
          "type": "uint256"
        }
      ],
      "stateMutability": "view",
      "type": "function"
    },
    {
      "inputs": [],
      "name": "amountForAuction",
      "outputs": [
        {
          "internalType": "uint256",
          "name": "",
          "type": "uint256"
        }
      ],
      "stateMutability": "view",
      "type": "function"
    },
    {
      "inputs": [],
      "name": "amountForDevs",
      "outputs": [
        {
          "internalType": "uint256",
          "name": "",
          "type": "uint256"
        }
      ],
      "stateMutability": "view",
      "type": "function"
    },
    {
      "inputs": [],
      "name": "amountMintedByDevs",
      "outputs": [
        {
          "internalType": "uint256",
          "name": "",
          "type": "uint256"
        }
      ],
      "stateMutability": "view",
      "type": "function"
    },
    {
      "inputs": [],
      "name": "amountMintedDuringAllowlist",
      "outputs": [
        {
          "internalType": "uint256",
          "name": "",
          "type": "uint256"
        }
      ],
      "stateMutability": "view",
      "type": "function"
    },
    {
      "inputs": [],
      "name": "amountMintedDuringAuction",
      "outputs": [
        {
          "internalType": "uint256",
          "name": "",
          "type": "uint256"
        }
      ],
      "stateMutability": "view",
      "type": "function"
    },
    {
      "inputs": [],
      "name": "amountMintedDuringPublicSale",
      "outputs": [
        {
          "internalType": "uint256",
          "name": "",
          "type": "uint256"
        }
      ],
      "stateMutability": "view",
      "type": "function"
    },
    {
      "inputs": [
        {
          "internalType": "address",
          "name": "to",
          "type": "address"
        },
        {
          "internalType": "uint256",
          "name": "tokenId",
          "type": "uint256"
        }
      ],
      "name": "approve",
      "outputs": [],
      "stateMutability": "nonpayable",
      "type": "function"
    },
    {
      "inputs": [],
      "name": "auctionDropInterval",
      "outputs": [
        {
          "internalType": "uint256",
          "name": "",
          "type": "uint256"
        }
      ],
      "stateMutability": "view",
      "type": "function"
    },
    {
      "inputs": [],
      "name": "auctionDropPerStep",
      "outputs": [
        {
          "internalType": "uint256",
          "name": "",
          "type": "uint256"
        }
      ],
      "stateMutability": "view",
      "type": "function"
    },
    {
      "inputs": [],
      "name": "auctionEndPrice",
      "outputs": [
        {
          "internalType": "uint256",
          "name": "",
          "type": "uint256"
        }
      ],
      "stateMutability": "view",
      "type": "function"
    },
    {
      "inputs": [
        {
          "internalType": "uint256",
          "name": "_quantity",
          "type": "uint256"
        }
      ],
      "name": "auctionMint",
      "outputs": [],
      "stateMutability": "payable",
      "type": "function"
    },
    {
      "inputs": [],
      "name": "auctionSaleDuration",
      "outputs": [
        {
          "internalType": "uint256",
          "name": "",
          "type": "uint256"
        }
      ],
      "stateMutability": "view",
      "type": "function"
    },
    {
      "inputs": [],
      "name": "auctionSaleStartTime",
      "outputs": [
        {
          "internalType": "uint256",
          "name": "",
          "type": "uint256"
        }
      ],
      "stateMutability": "view",
      "type": "function"
    },
    {
      "inputs": [],
      "name": "auctionStartPrice",
      "outputs": [
        {
          "internalType": "uint256",
          "name": "",
          "type": "uint256"
        }
      ],
      "stateMutability": "view",
      "type": "function"
    },
    {
      "inputs": [
        {
          "internalType": "address",
          "name": "owner",
          "type": "address"
        }
      ],
      "name": "balanceOf",
      "outputs": [
        {
          "internalType": "uint256",
          "name": "",
          "type": "uint256"
        }
      ],
      "stateMutability": "view",
      "type": "function"
    },
    {
      "inputs": [],
      "name": "baseURI",
      "outputs": [
        {
          "internalType": "string",
          "name": "",
          "type": "string"
        }
      ],
      "stateMutability": "view",
      "type": "function"
    },
    {
      "inputs": [],
      "name": "batchReveal",
      "outputs": [
        {
          "internalType": "contract IBatchReveal",
          "name": "",
          "type": "address"
        }
      ],
      "stateMutability": "view",
      "type": "function"
    },
    {
      "inputs": [],
      "name": "becomeOwner",
      "outputs": [],
      "stateMutability": "nonpayable",
      "type": "function"
    },
    {
      "inputs": [],
      "name": "collectionSize",
      "outputs": [
        {
          "internalType": "uint256",
          "name": "",
          "type": "uint256"
        }
      ],
      "stateMutability": "view",
      "type": "function"
    },
    {
      "inputs": [],
      "name": "currentPhase",
      "outputs": [
        {
          "internalType": "enum IBaseLaunchpeg.Phase",
          "name": "",
          "type": "uint8"
        }
      ],
      "stateMutability": "view",
      "type": "function"
    },
    {
      "inputs": [
        {
          "internalType": "uint256",
          "name": "_quantity",
          "type": "uint256"
        }
      ],
      "name": "devMint",
      "outputs": [],
      "stateMutability": "nonpayable",
      "type": "function"
    },
    {
      "inputs": [],
      "name": "getAllowlistPrice",
      "outputs": [
        {
          "internalType": "uint256",
          "name": "",
          "type": "uint256"
        }
      ],
      "stateMutability": "view",
      "type": "function"
    },
    {
      "inputs": [
        {
          "internalType": "uint256",
          "name": "tokenId",
          "type": "uint256"
        }
      ],
      "name": "getApproved",
      "outputs": [
        {
          "internalType": "address",
          "name": "",
          "type": "address"
        }
      ],
      "stateMutability": "view",
      "type": "function"
    },
    {
      "inputs": [
        {
          "internalType": "uint256",
          "name": "_saleStartTime",
          "type": "uint256"
        }
      ],
      "name": "getAuctionPrice",
      "outputs": [
        {
          "internalType": "uint256",
          "name": "",
          "type": "uint256"
        }
      ],
      "stateMutability": "view",
      "type": "function"
    },
    {
      "inputs": [
        {
          "internalType": "uint256",
          "name": "_tokenId",
          "type": "uint256"
        }
      ],
      "name": "getOwnershipData",
      "outputs": [
        {
          "components": [
            {
              "internalType": "address",
              "name": "addr",
              "type": "address"
            },
            {
              "internalType": "uint64",
              "name": "startTimestamp",
              "type": "uint64"
            },
            {
              "internalType": "bool",
              "name": "burned",
              "type": "bool"
            }
          ],
          "internalType": "struct ERC721AUpgradeable.TokenOwnership",
          "name": "",
          "type": "tuple"
        }
      ],
      "stateMutability": "view",
      "type": "function"
    },
    {
      "inputs": [],
      "name": "getPublicSalePrice",
      "outputs": [
        {
          "internalType": "uint256",
          "name": "",
          "type": "uint256"
        }
      ],
      "stateMutability": "view",
      "type": "function"
    },
    {
      "inputs": [
        {
          "internalType": "bytes32",
          "name": "role",
          "type": "bytes32"
        }
      ],
      "name": "getRoleAdmin",
      "outputs": [
        {
          "internalType": "bytes32",
          "name": "",
          "type": "bytes32"
        }
      ],
      "stateMutability": "view",
      "type": "function"
    },
    {
      "inputs": [
        {
          "internalType": "bytes32",
          "name": "role",
          "type": "bytes32"
        },
        {
          "internalType": "uint256",
          "name": "index",
          "type": "uint256"
        }
      ],
      "name": "getRoleMember",
      "outputs": [
        {
          "internalType": "address",
          "name": "",
          "type": "address"
        }
      ],
      "stateMutability": "view",
      "type": "function"
    },
    {
      "inputs": [
        {
          "internalType": "bytes32",
          "name": "role",
          "type": "bytes32"
        }
      ],
      "name": "getRoleMemberCount",
      "outputs": [
        {
          "internalType": "uint256",
          "name": "",
          "type": "uint256"
        }
      ],
      "stateMutability": "view",
      "type": "function"
    },
    {
      "inputs": [
        {
          "internalType": "bytes32",
          "name": "role",
          "type": "bytes32"
        },
        {
          "internalType": "address",
          "name": "account",
          "type": "address"
        }
      ],
      "name": "grantRole",
      "outputs": [],
      "stateMutability": "nonpayable",
      "type": "function"
    },
    {
      "inputs": [],
      "name": "hasBatchToReveal",
      "outputs": [
        {
          "internalType": "bool",
          "name": "",
          "type": "bool"
        },
        {
          "internalType": "uint256",
          "name": "",
          "type": "uint256"
        }
      ],
      "stateMutability": "view",
      "type": "function"
    },
    {
      "inputs": [
        {
          "internalType": "bytes32",
          "name": "role",
          "type": "bytes32"
        },
        {
          "internalType": "address",
          "name": "account",
          "type": "address"
        }
      ],
      "name": "hasRole",
      "outputs": [
        {
          "internalType": "bool",
          "name": "",
          "type": "bool"
        }
      ],
      "stateMutability": "view",
      "type": "function"
    },
    {
      "inputs": [
        {
          "internalType": "string",
          "name": "_name",
          "type": "string"
        },
        {
          "internalType": "string",
          "name": "_symbol",
          "type": "string"
        },
        {
          "internalType": "address",
          "name": "_projectOwner",
          "type": "address"
        },
        {
          "internalType": "address",
          "name": "_royaltyReceiver",
          "type": "address"
        },
        {
          "internalType": "uint256",
          "name": "_maxBatchSize",
          "type": "uint256"
        },
        {
          "internalType": "uint256",
          "name": "_collectionSize",
          "type": "uint256"
        },
        {
          "internalType": "uint256",
          "name": "_amountForAuction",
          "type": "uint256"
        },
        {
          "internalType": "uint256",
          "name": "_amountForAllowlist",
          "type": "uint256"
        },
        {
          "internalType": "uint256",
          "name": "_amountForDevs",
          "type": "uint256"
        }
      ],
      "name": "initialize",
      "outputs": [],
      "stateMutability": "nonpayable",
      "type": "function"
    },
    {
      "inputs": [
        {
          "internalType": "uint256",
          "name": "_joeFeePercent",
          "type": "uint256"
        },
        {
          "internalType": "address",
          "name": "_joeFeeCollector",
          "type": "address"
        }
      ],
      "name": "initializeJoeFee",
      "outputs": [],
      "stateMutability": "nonpayable",
      "type": "function"
    },
    {
      "inputs": [
        {
          "internalType": "uint256",
          "name": "_auctionSaleStartTime",
          "type": "uint256"
        },
        {
          "internalType": "uint256",
          "name": "_auctionStartPrice",
          "type": "uint256"
        },
        {
          "internalType": "uint256",
          "name": "_auctionEndPrice",
          "type": "uint256"
        },
        {
          "internalType": "uint256",
          "name": "_auctionDropInterval",
          "type": "uint256"
        },
        {
          "internalType": "uint256",
          "name": "_allowlistStartTime",
          "type": "uint256"
        },
        {
          "internalType": "uint256",
          "name": "_allowlistDiscountPercent",
          "type": "uint256"
        },
        {
          "internalType": "uint256",
          "name": "_publicSaleStartTime",
          "type": "uint256"
        },
        {
          "internalType": "uint256",
          "name": "_publicSaleEndTime",
          "type": "uint256"
        },
        {
          "internalType": "uint256",
          "name": "_publicSaleDiscountPercent",
          "type": "uint256"
        }
      ],
      "name": "initializePhases",
      "outputs": [],
      "stateMutability": "nonpayable",
      "type": "function"
    },
    {
      "inputs": [
        {
          "internalType": "address",
          "name": "owner",
          "type": "address"
        },
        {
          "internalType": "address",
          "name": "operator",
          "type": "address"
        }
      ],
      "name": "isApprovedForAll",
      "outputs": [
        {
          "internalType": "bool",
          "name": "",
          "type": "bool"
        }
      ],
      "stateMutability": "view",
      "type": "function"
    },
    {
      "inputs": [],
      "name": "joeFeeCollector",
      "outputs": [
        {
          "internalType": "address",
          "name": "",
          "type": "address"
        }
      ],
      "stateMutability": "view",
      "type": "function"
    },
    {
      "inputs": [],
      "name": "joeFeePercent",
      "outputs": [
        {
          "internalType": "uint256",
          "name": "",
          "type": "uint256"
        }
      ],
      "stateMutability": "view",
      "type": "function"
    },
    {
      "inputs": [],
      "name": "lastAuctionPrice",
      "outputs": [
        {
          "internalType": "uint256",
          "name": "",
          "type": "uint256"
        }
      ],
      "stateMutability": "view",
      "type": "function"
    },
    {
      "inputs": [],
      "name": "maxBatchSize",
      "outputs": [
        {
          "internalType": "uint256",
          "name": "",
          "type": "uint256"
        }
      ],
      "stateMutability": "view",
      "type": "function"
    },
    {
      "inputs": [],
      "name": "maxPerAddressDuringMint",
      "outputs": [
        {
          "internalType": "uint256",
          "name": "",
          "type": "uint256"
        }
      ],
      "stateMutability": "view",
      "type": "function"
    },
    {
      "inputs": [],
      "name": "name",
      "outputs": [
        {
          "internalType": "string",
          "name": "",
          "type": "string"
        }
      ],
      "stateMutability": "view",
      "type": "function"
    },
    {
      "inputs": [
        {
          "internalType": "address",
          "name": "_owner",
          "type": "address"
        }
      ],
      "name": "numberMinted",
      "outputs": [
        {
          "internalType": "uint256",
          "name": "",
          "type": "uint256"
        }
      ],
      "stateMutability": "view",
      "type": "function"
    },
    {
      "inputs": [],
      "name": "owner",
      "outputs": [
        {
          "internalType": "address",
          "name": "",
          "type": "address"
        }
      ],
      "stateMutability": "view",
      "type": "function"
    },
    {
      "inputs": [
        {
          "internalType": "uint256",
          "name": "tokenId",
          "type": "uint256"
        }
      ],
      "name": "ownerOf",
      "outputs": [
        {
          "internalType": "address",
          "name": "",
          "type": "address"
        }
      ],
      "stateMutability": "view",
      "type": "function"
    },
    {
      "inputs": [],
      "name": "pendingOwner",
      "outputs": [
        {
          "internalType": "address",
          "name": "",
          "type": "address"
        }
      ],
      "stateMutability": "view",
      "type": "function"
    },
    {
      "inputs": [],
      "name": "publicSaleDiscountPercent",
      "outputs": [
        {
          "internalType": "uint256",
          "name": "",
          "type": "uint256"
        }
      ],
      "stateMutability": "view",
      "type": "function"
    },
    {
      "inputs": [],
      "name": "publicSaleEndTime",
      "outputs": [
        {
          "internalType": "uint256",
          "name": "",
          "type": "uint256"
        }
      ],
      "stateMutability": "view",
      "type": "function"
    },
    {
      "inputs": [
        {
          "internalType": "uint256",
          "name": "_quantity",
          "type": "uint256"
        }
      ],
      "name": "publicSaleMint",
      "outputs": [],
      "stateMutability": "payable",
      "type": "function"
    },
    {
      "inputs": [],
      "name": "publicSaleStartTime",
      "outputs": [
        {
          "internalType": "uint256",
          "name": "",
          "type": "uint256"
        }
      ],
      "stateMutability": "view",
      "type": "function"
    },
    {
      "inputs": [],
      "name": "renounceOwnership",
      "outputs": [],
      "stateMutability": "nonpayable",
      "type": "function"
    },
    {
      "inputs": [
        {
          "internalType": "bytes32",
          "name": "role",
          "type": "bytes32"
        },
        {
          "internalType": "address",
          "name": "account",
          "type": "address"
        }
      ],
      "name": "renounceRole",
      "outputs": [],
      "stateMutability": "nonpayable",
      "type": "function"
    },
    {
      "inputs": [],
      "name": "revealNextBatch",
      "outputs": [],
      "stateMutability": "nonpayable",
      "type": "function"
    },
    {
      "inputs": [],
      "name": "revokePendingOwner",
      "outputs": [],
      "stateMutability": "nonpayable",
      "type": "function"
    },
    {
      "inputs": [
        {
          "internalType": "bytes32",
          "name": "role",
          "type": "bytes32"
        },
        {
          "internalType": "address",
          "name": "account",
          "type": "address"
        }
      ],
      "name": "revokeRole",
      "outputs": [],
      "stateMutability": "nonpayable",
      "type": "function"
    },
    {
      "inputs": [
        {
          "internalType": "uint256",
          "name": "_tokenId",
          "type": "uint256"
        },
        {
          "internalType": "uint256",
          "name": "_salePrice",
          "type": "uint256"
        }
      ],
      "name": "royaltyInfo",
      "outputs": [
        {
          "internalType": "address",
          "name": "",
          "type": "address"
        },
        {
          "internalType": "uint256",
          "name": "",
          "type": "uint256"
        }
      ],
      "stateMutability": "view",
      "type": "function"
    },
    {
      "inputs": [
        {
          "internalType": "address",
          "name": "from",
          "type": "address"
        },
        {
          "internalType": "address",
          "name": "to",
          "type": "address"
        },
        {
          "internalType": "uint256",
          "name": "tokenId",
          "type": "uint256"
        }
      ],
      "name": "safeTransferFrom",
      "outputs": [],
      "stateMutability": "nonpayable",
      "type": "function"
    },
    {
      "inputs": [
        {
          "internalType": "address",
          "name": "from",
          "type": "address"
        },
        {
          "internalType": "address",
          "name": "to",
          "type": "address"
        },
        {
          "internalType": "uint256",
          "name": "tokenId",
          "type": "uint256"
        },
        {
          "internalType": "bytes",
          "name": "_data",
          "type": "bytes"
        }
      ],
      "name": "safeTransferFrom",
      "outputs": [],
      "stateMutability": "nonpayable",
      "type": "function"
    },
    {
      "inputs": [
        {
          "internalType": "address[]",
          "name": "_addresses",
          "type": "address[]"
        },
        {
          "internalType": "uint256[]",
          "name": "_numNfts",
          "type": "uint256[]"
        }
      ],
      "name": "seedAllowlist",
      "outputs": [],
      "stateMutability": "nonpayable",
      "type": "function"
    },
    {
      "inputs": [
        {
          "internalType": "uint256",
          "name": "_allowlistStartTime",
          "type": "uint256"
        }
      ],
      "name": "setAllowlistStartTime",
      "outputs": [],
      "stateMutability": "nonpayable",
      "type": "function"
    },
    {
      "inputs": [
        {
          "internalType": "address",
          "name": "operator",
          "type": "address"
        },
        {
          "internalType": "bool",
          "name": "approved",
          "type": "bool"
        }
      ],
      "name": "setApprovalForAll",
      "outputs": [],
      "stateMutability": "nonpayable",
      "type": "function"
    },
    {
      "inputs": [
        {
          "internalType": "uint256",
          "name": "_auctionSaleStartTime",
          "type": "uint256"
        }
      ],
      "name": "setAuctionSaleStartTime",
      "outputs": [],
      "stateMutability": "nonpayable",
      "type": "function"
    },
    {
      "inputs": [
        {
          "internalType": "string",
          "name": "_baseURI",
          "type": "string"
        }
      ],
      "name": "setBaseURI",
      "outputs": [],
      "stateMutability": "nonpayable",
      "type": "function"
    },
    {
      "inputs": [
        {
          "internalType": "address",
          "name": "_batchReveal",
          "type": "address"
        }
      ],
      "name": "setBatchReveal",
      "outputs": [],
      "stateMutability": "nonpayable",
      "type": "function"
    },
    {
      "inputs": [
        {
          "internalType": "address",
          "name": "pendingOwner_",
          "type": "address"
        }
      ],
      "name": "setPendingOwner",
      "outputs": [],
      "stateMutability": "nonpayable",
      "type": "function"
    },
    {
      "inputs": [
        {
          "internalType": "uint256",
          "name": "_publicSaleEndTime",
          "type": "uint256"
        }
      ],
      "name": "setPublicSaleEndTime",
      "outputs": [],
      "stateMutability": "nonpayable",
      "type": "function"
    },
    {
      "inputs": [
        {
          "internalType": "uint256",
          "name": "_publicSaleStartTime",
          "type": "uint256"
        }
      ],
      "name": "setPublicSaleStartTime",
      "outputs": [],
      "stateMutability": "nonpayable",
      "type": "function"
    },
    {
      "inputs": [
        {
          "internalType": "address",
          "name": "_receiver",
          "type": "address"
        },
        {
          "internalType": "uint96",
          "name": "_feePercent",
          "type": "uint96"
        }
      ],
      "name": "setRoyaltyInfo",
      "outputs": [],
      "stateMutability": "nonpayable",
      "type": "function"
    },
    {
      "inputs": [
        {
          "internalType": "string",
          "name": "_unrevealedURI",
          "type": "string"
        }
      ],
      "name": "setUnrevealedURI",
      "outputs": [],
      "stateMutability": "nonpayable",
      "type": "function"
    },
    {
      "inputs": [
        {
          "internalType": "uint256",
          "name": "_withdrawAVAXStartTime",
          "type": "uint256"
        }
      ],
      "name": "setWithdrawAVAXStartTime",
      "outputs": [],
      "stateMutability": "nonpayable",
      "type": "function"
    },
    {
      "inputs": [
        {
          "internalType": "bytes4",
          "name": "_interfaceId",
          "type": "bytes4"
        }
      ],
      "name": "supportsInterface",
      "outputs": [
        {
          "internalType": "bool",
          "name": "",
          "type": "bool"
        }
      ],
      "stateMutability": "view",
      "type": "function"
    },
    {
      "inputs": [],
      "name": "symbol",
      "outputs": [
        {
          "internalType": "string",
          "name": "",
          "type": "string"
        }
      ],
      "stateMutability": "view",
      "type": "function"
    },
    {
      "inputs": [
        {
          "internalType": "uint256",
          "name": "_id",
          "type": "uint256"
        }
      ],
      "name": "tokenURI",
      "outputs": [
        {
          "internalType": "string",
          "name": "",
          "type": "string"
        }
      ],
      "stateMutability": "view",
      "type": "function"
    },
    {
      "inputs": [],
      "name": "totalSupply",
      "outputs": [
        {
          "internalType": "uint256",
          "name": "",
          "type": "uint256"
        }
      ],
      "stateMutability": "view",
      "type": "function"
    },
    {
      "inputs": [
        {
          "internalType": "address",
          "name": "from",
          "type": "address"
        },
        {
          "internalType": "address",
          "name": "to",
          "type": "address"
        },
        {
          "internalType": "uint256",
          "name": "tokenId",
          "type": "uint256"
        }
      ],
      "name": "transferFrom",
      "outputs": [],
      "stateMutability": "nonpayable",
      "type": "function"
    },
    {
      "inputs": [],
      "name": "unrevealedURI",
      "outputs": [
        {
          "internalType": "string",
          "name": "",
          "type": "string"
        }
      ],
      "stateMutability": "view",
      "type": "function"
    },
    {
      "inputs": [
        {
          "internalType": "address",
          "name": "_to",
          "type": "address"
        }
      ],
      "name": "withdrawAVAX",
      "outputs": [],
      "stateMutability": "nonpayable",
      "type": "function"
    },
    {
      "inputs": [],
      "name": "withdrawAVAXStartTime",
      "outputs": [
        {
          "internalType": "uint256",
          "name": "",
          "type": "uint256"
        }
      ],
      "stateMutability": "view",
      "type": "function"
    }
  ],
  "transactionHash": "0x9a2d20ac6466a2f48f2734f16c10201fd267d7cbab8668b0e57cb77a3c321c2e",
  "args": [],
  "numDeployments": 6,
  "solcInputHash": "998ed1f16dadd0bf2df2b8839fccf950",
  "bytecode": "0x608060405234801561001057600080fd5b50614af4806100206000396000f3fe6080604052600436106104b55760003560e01c80638bc35c2f1161026b578063c42069ec1161014f578063e4b26d84116100c1578063f58978cc11610085578063f58978cc14610e4b578063f7df4c5a14610e6b578063f9dca98914610e82578063fab2bf5814610e97578063fbe1aa5114610eae578063fe2c7fee14610ec557600080fd5b8063e4b26d8414610d94578063e6fe34b314610db4578063e985e9c514610dcb578063ecbbfea314610e14578063f243669b14610e3457600080fd5b8063d547741f11610113578063d547741f14610cf2578063d62b630314610d12578063d756985b14610d29578063d9a6f70514610d40578063dc33e68114610d56578063e30c397814610d7657600080fd5b8063c42069ec14610c64578063c5482fe314610c84578063c792e16714610c9b578063c87b56dd14610cb2578063ca15c87314610cd257600080fd5b8063a1ef0e54116101e8578063b05863d5116101ac578063b05863d514610bbc578063b3ab66b014610bdc578063b88d4fde14610bef578063b9fa6ebb14610c0f578063be62da0e14610c2f578063c180526a14610c5157600080fd5b8063a1ef0e5414610b22578063a217fddf14610b42578063a22cb46514610b57578063a54cd7dc14610b77578063a7cd52cb14610b8e57600080fd5b806391d148541161022f57806391d1485414610a695780639231ab2a14610a8957806395d89b4114610adf578063963331d814610af4578063a04a6ac814610b0b57600080fd5b80638bc35c2f146109df5780638da5cb5b146109f65780638e8bdd0d14610a145780639010d07c14610a29578063917d009e14610a4957600080fd5b80632f2ff15d1161039d5780635c7034af1161030f5780636c0360eb116102d35780636c0360eb146109495780636d5d40c61461095e5780637035bf181461097e57806370a0823114610993578063715018a6146109b35780637a18c1fe146109c857600080fd5b80635c7034af146108d1578063622f1c47146108e85780636352211e146108fd57806367ab8a4e1461091d5780636bb7b1d91461093257600080fd5b806342842e0e1161036157806342842e0e1461082f57806345c0f5331461084f5780634d3554c31461086657806355f804b31461087957806359d7bc4d146108995780635bb21376146108b057600080fd5b80632f2ff15d1461079857806336568abe146107b8578063375a069a146107d8578063387b62c7146107f85780633cc4cadb1461081857600080fd5b80630b1019e7116104365780631e4d185f116103fa5780631e4d185f146106ba57806321cc1611146106d157806323b872dd146106f2578063248a9ca3146107125780632913daa0146107425780632a55205a1461075957600080fd5b80630b1019e7146106355780630c2c39a31461064a578063154895101461066a57806318160ddd146106815780631c0310a51461069a57600080fd5b806306fdde031161047d57806306fdde031461057f578063081812fc146105a157806308a3fb4e146105d9578063095ea7b3146105fe5780630a212ee21461061e57600080fd5b806301ffc9a7146104ba57806302fa7c47146104ef57806303851c281461051157806303b674d31461053d578063055ad42e1461055d575b600080fd5b3480156104c657600080fd5b506104da6104d53660046144ff565b610ee5565b60405190151581526020015b60405180910390f35b3480156104fb57600080fd5b5061050f61050a3660046143b3565b610f10565b005b34801561051d57600080fd5b50610526610fbc565b6040805192151583526020830191909152016104e6565b34801561054957600080fd5b5061050f6105583660046144a1565b611064565b34801561056957600080fd5b5061057261109b565b6040516104e691906147e2565b34801561058b57600080fd5b50610594611150565b6040516104e691906147f0565b3480156105ad57600080fd5b506105c16105bc3660046144a1565b6111e2565b6040516001600160a01b0390911681526020016104e6565b3480156105e557600080fd5b506105f061017b5481565b6040519081526020016104e6565b34801561060a57600080fd5b5061050f610619366004614389565b611226565b34801561062a57600080fd5b506105f06101775481565b34801561064157600080fd5b506105f06112b4565b34801561065657600080fd5b5061050f6106653660046144a1565b6112e8565b34801561067657600080fd5b506105f061017a5481565b34801561068d57600080fd5b50606654606554036105f0565b3480156106a657600080fd5b5061050f6106b536600461424d565b611371565b3480156106c657600080fd5b506105f06101715481565b3480156106dd57600080fd5b50610161546105c1906001600160a01b031681565b3480156106fe57600080fd5b5061050f61070d36600461429b565b6115e0565b34801561071e57600080fd5b506105f061072d3660046144a1565b60009081526099602052604090206001015490565b34801561074e57600080fd5b506105f06101655481565b34801561076557600080fd5b506107796107743660046144dd565b6115eb565b604080516001600160a01b0390931683526020830191909152016104e6565b3480156107a457600080fd5b5061050f6107b33660046144ba565b61169b565b3480156107c457600080fd5b5061050f6107d33660046144ba565b611725565b3480156107e457600080fd5b5061050f6107f33660046144a1565b61174e565b34801561080457600080fd5b5061050f6108133660046144a1565b6118fe565b34801561082457600080fd5b506105f061016d5481565b34801561083b57600080fd5b5061050f61084a36600461429b565b611932565b34801561085b57600080fd5b506105f06101625481565b61050f6108743660046144a1565b61194d565b34801561088557600080fd5b5061050f610894366004614539565b611ad0565b3480156108a557600080fd5b506105f061016f5481565b3480156108bc57600080fd5b50610168546105c1906001600160a01b031681565b3480156108dd57600080fd5b506105f061016c5481565b3480156108f457600080fd5b5061050f611b46565b34801561090957600080fd5b506105c16109183660046144a1565b611c23565b34801561092957600080fd5b5061050f611c35565b34801561093e57600080fd5b506105f06101705481565b34801561095557600080fd5b50610594611c93565b34801561096a57600080fd5b5061050f6109793660046144a1565b611d22565b34801561098a57600080fd5b50610594611d56565b34801561099f57600080fd5b506105f06109ae36600461424d565b611d64565b3480156109bf57600080fd5b5061050f611db2565b3480156109d457600080fd5b506105f061017d5481565b3480156109eb57600080fd5b506105f06101665481565b348015610a0257600080fd5b506097546001600160a01b03166105c1565b348015610a2057600080fd5b506105f0611de7565b348015610a3557600080fd5b506105c1610a443660046144dd565b611dfe565b348015610a5557600080fd5b506105f0610a643660046144a1565b611e1d565b348015610a7557600080fd5b506104da610a843660046144ba565b611e8b565b348015610a9557600080fd5b50610aa9610aa43660046144a1565b611eb6565b6040805182516001600160a01b031681526020808401516001600160401b031690820152918101511515908201526060016104e6565b348015610aeb57600080fd5b50610594611edc565b348015610b0057600080fd5b506105f061016e5481565b348015610b1757600080fd5b506105f06101765481565b348015610b2e57600080fd5b5061050f610b3d3660046144a1565b611eeb565b348015610b4e57600080fd5b506105f0600081565b348015610b6357600080fd5b5061050f610b72366004614352565b611f1f565b348015610b8357600080fd5b506105f061017c5481565b348015610b9a57600080fd5b506105f0610ba936600461424d565b61016b6020526000908152604090205481565b348015610bc857600080fd5b5061050f610bd73660046143eb565b611fb5565b61050f610bea3660046144a1565b6120ae565b348015610bfb57600080fd5b5061050f610c0a3660046142d7565b61223b565b348015610c1b57600080fd5b5061050f610c2a366004614675565b612286565b348015610c3b57600080fd5b506105f0600080516020614a9f83398151915281565b61050f610c5f3660046144a1565b6124ed565b348015610c7057600080fd5b5061050f610c7f36600461424d565b6126a7565b348015610c9057600080fd5b506105f06101675481565b348015610ca757600080fd5b506105f06101725481565b348015610cbe57600080fd5b50610594610ccd3660046144a1565b612705565b348015610cde57600080fd5b506105f0610ced3660046144a1565b6128f1565b348015610cfe57600080fd5b5061050f610d0d3660046144ba565b612908565b348015610d1e57600080fd5b506105f06101645481565b348015610d3557600080fd5b506105f06101755481565b348015610d4c57600080fd5b506105f061271081565b348015610d6257600080fd5b506105f0610d7136600461424d565b61298c565b348015610d8257600080fd5b506098546001600160a01b03166105c1565b348015610da057600080fd5b5061050f610daf36600461424d565b6129ba565b348015610dc057600080fd5b506105f06101795481565b348015610dd757600080fd5b506104da610de6366004614268565b6001600160a01b039182166000908152606c6020908152604080832093909416825291909152205460ff1690565b348015610e2057600080fd5b5061050f610e2f3660046144ba565b612a08565b348015610e4057600080fd5b506105f06101785481565b348015610e5757600080fd5b5061050f610e663660046145aa565b612b04565b348015610e7757600080fd5b506105f06101735481565b348015610e8e57600080fd5b5061050f612c11565b348015610ea357600080fd5b506105f06101745481565b348015610eba57600080fd5b506105f06101635481565b348015610ed157600080fd5b5061050f610ee0366004614539565b612c50565b60006001600160e01b0319821663fa14a12960e01b1480610f0a5750610f0a82612cba565b92915050565b6097546001600160a01b03163314610f3b57604051630202a8bf60e61b815260040160405180910390fd5b6109c4816001600160601b03161115610f67576040516306f644f160e31b815260040160405180910390fd5b610f718282612d1b565b6040516001600160601b03821681526001600160a01b038316907fd85b7816dca44c313f0fdadd9567f99f3620a2fac7c21a8a7872e1ac4d10fe559060200160405180910390a25050565b6101615460009081906001600160a01b031663ad9e22af30610fe16066546065540390565b6040516001600160e01b031960e085901b1681526001600160a01b0390921660048301526024820152604401604080518083038186803b15801561102457600080fd5b505afa158015611038573d6000803e3d6000fd5b505050506040513d601f19601f8201168201806040525081019061105c9190614473565b915091509091565b6097546001600160a01b0316331461108f57604051630202a8bf60e61b815260040160405180910390fd5b61109881612e19565b50565b600061017454600014806110b0575061016f54155b806110bc575061017054155b806110c957506101745442105b156110d45750600090565b6101625460665460655403106110ea5750600490565b6101745442101580156110ff575061016f5442105b1561110a5750600190565b61016f54421015801561111f57506101705442105b1561112a5750600290565b61017054421015801561113f57506101715442105b1561114a5750600390565b50600490565b60606067805461115f9061498c565b80601f016020809104026020016040519081016040528092919081815260200182805461118b9061498c565b80156111d85780601f106111ad576101008083540402835291602001916111d8565b820191906000526020600020905b8154815290600101906020018083116111bb57829003601f168201915b5050505050905090565b60006111ed82612eb7565b61120a576040516333d1c03960e21b815260040160405180910390fd5b506000908152606b60205260409020546001600160a01b031690565b600061123182611c23565b9050806001600160a01b0316836001600160a01b031614156112665760405163250fdee360e21b815260040160405180910390fd5b336001600160a01b0382161480159061128657506112848133610de6565b155b156112a4576040516367d9dca160e11b815260040160405180910390fd5b6112af838383612ee3565b505050565b600061271061017a5461017d546112cb919061492a565b6112d59190614916565b61017d546112e39190614949565b905090565b6097546001600160a01b0316331461131357604051630202a8bf60e61b815260040160405180910390fd5b4281101561133457604051639db169d760e01b815260040160405180910390fd5b6101728190556040518181527f90513fea331bb55e4ca73a8d0c053a255347ccb17c621338052705ea997383b3906020015b60405180910390a150565b600080516020614a9f8339815191526113926097546001600160a01b031690565b6001600160a01b0316336001600160a01b0316141580156113ba57506113b88133611e8b565b155b156113e65760405163f9019a8d60e01b8152600481018290523360248201526044015b60405180910390fd5b600260fd5414156114395760405162461bcd60e51b815260206004820152601f60248201527f5265656e7472616e637947756172643a207265656e7472616e742063616c6c0060448201526064016113dd565b600260fd5561017254421080611450575061017254155b1561146e57604051633bd1a57d60e11b815260040160405180910390fd5b61016754479060009081901561151e576127106101675484611490919061492a565b61149a9190614916565b91506114a68284614949565b610168546040519194506001600160a01b0316908390600081818185875af1925050503d80600081146114f5576040519150601f19603f3d011682016040523d82523d6000602084013e6114fa565b606091505b5050809150508061151e57604051633aa9e60d60e21b815260040160405180910390fd5b6040516001600160a01b038616908490600081818185875af1925050503d8060008114611567576040519150601f19603f3d011682016040523d82523d6000602084013e61156c565b606091505b5050809150508061159057604051633aa9e60d60e21b815260040160405180910390fd5b60408051848152602081018490526001600160a01b038716917f12eb5d7ccd4ce398edc94007dfbaa22fa2ac8775a3633530f36053ad765262f4910160405180910390a25050600160fd55505050565b6112af838383612f3f565b6000828152610130602090815260408083208151808301909252546001600160a01b038116808352600160a01b9091046001600160601b031692820192909252829161166257506040805180820190915261012f546001600160a01b0381168252600160a01b90046001600160601b031660208201525b602081015160009061271090611681906001600160601b03168761492a565b61168b9190614916565b91519350909150505b9250929050565b81806116ba5760405163e466584960e01b815260040160405180910390fd5b6000838152609960205260409020600101546097546001600160a01b031633148015906116ee57506116ec8133611e8b565b155b156117155760405163f9019a8d60e01b8152600481018290523360248201526044016113dd565b61171f848461312a565b50505050565b81806117445760405163e466584960e01b815260040160405180910390fd5b6112af838361314c565b600080516020614a9f83398151915261176f6097546001600160a01b031690565b6001600160a01b0316336001600160a01b03161415801561179757506117958133611e8b565b155b156117be5760405163f9019a8d60e01b8152600481018290523360248201526044016113dd565b61016254826117d06066546065540390565b6117da91906148fe565b11156117f957604051631eddc6a360e11b815260040160405180910390fd5b610163548261016c5461180c91906148fe565b111561182b5760405163011310dd60e31b815260040160405180910390fd5b8161016c5461183a91906148fe565b61016c556101655460009061184f9084614916565b905060005b8181101561188d5761187b33610165546040518060200160405280600081525060006131ca565b80611885816149c7565b915050611854565b506000610165548461189f91906149e2565b905080156118c3576118c333826040518060200160405280600081525060006131ca565b60405184815233907f7d8400f0e58ae2e14f85b63f3afb0ca5b29328d8f48046b205fc7f174cf9b5ed9060200160405180910390a250505050565b6097546001600160a01b0316331461192957604051630202a8bf60e61b815260040160405180910390fd5b61109881613395565b6112af8383836040518060200160405280600081525061223b565b60018061195861109b565b600481111561196957611969614a22565b14611987576040516338df794b60e01b815260040160405180910390fd5b60006119966066546065540390565b61016c54610173546119a891906148fe565b6119b29190614949565b9050806119d257604051631eddc6a360e11b815260040160405180910390fd5b828110156119de578092505b61016654836119ec3361298c565b6119f691906148fe565b1115611a15576040516335e62b7b60e21b815260040160405180910390fd5b611a2161017454611e1d565b61017d819055600090611a3590859061492a565b90508361017c54611a4691906148fe565b61017c81905550611a6933856040518060200160405280600081525060006131ca565b336001600160a01b03167fbb20f716bd7ca9427b818f6de485952ab3a5acec2559fb794e3f9a4d9f70e7228561017d5487611aa360655490565b611aad9190614949565b6001604051611abf94939291906148d3565b60405180910390a261171f81613430565b6097546001600160a01b03163314611afb57604051630202a8bf60e61b815260040160405180910390fd5b611b086101698383614050565b507ff9c7803e94e0d3c02900d8a90893a6d5e90dd04d32a4cfe825520f82bf9f32f6610169604051611b3a9190614803565b60405180910390a15050565b323314611b6657604051633059e46160e21b815260040160405180910390fd5b610161546001600160a01b031663fbbc872b30611b866066546065540390565b6040516001600160e01b031960e085901b1681526001600160a01b0390921660048301526024820152604401602060405180830381600087803b158015611bcc57600080fd5b505af1158015611be0573d6000803e3d6000fd5b505050506040513d601f19601f82011682018060405250810190611c049190614456565b611c215760405163fc58cf3f60e01b815260040160405180910390fd5b565b6000611c2e826134cb565b5192915050565b6097546001600160a01b03163314611c6057604051630202a8bf60e61b815260040160405180910390fd5b6098546001600160a01b0316611c895760405163128be5bf60e31b815260040160405180910390fd5b611c2160006135e5565b6101698054611ca19061498c565b80601f0160208091040260200160405190810160405280929190818152602001828054611ccd9061498c565b8015611d1a5780601f10611cef57610100808354040283529160200191611d1a565b820191906000526020600020905b815481529060010190602001808311611cfd57829003601f168201915b505050505081565b6097546001600160a01b03163314611d4d57604051630202a8bf60e61b815260040160405180910390fd5b6110988161362f565b61016a8054611ca19061498c565b60006001600160a01b038216611d8d576040516323d3ad8160e21b815260040160405180910390fd5b506001600160a01b03166000908152606a60205260409020546001600160401b031690565b6097546001600160a01b03163314611ddd57604051630202a8bf60e61b815260040160405180910390fd5b611c2160006136ce565b600061271061017b5461017d546112cb919061492a565b600082815260cb60205260408120611e16908361370d565b9392505050565b600081421015611e305750506101755490565b61017754611e3e8342614949565b10611e4c5750506101765490565b61017854600090611e5d8442614949565b611e679190614916565b90506101795481611e78919061492a565b61017554611e169190614949565b919050565b60009182526099602090815260408084206001600160a01b0393909316845291905290205460ff1690565b6040805160608101825260008082526020820181905291810191909152610f0a826134cb565b60606068805461115f9061498c565b6097546001600160a01b03163314611f1657604051630202a8bf60e61b815260040160405180910390fd5b61109881613719565b6001600160a01b038216331415611f495760405163b06307db60e01b815260040160405180910390fd5b336000818152606c602090815260408083206001600160a01b03871680855290835292819020805460ff191686151590811790915590519081529192917f17307eab39ab6107e8899845ad3d59bd9653f200f220920489ca2b5937696c31910160405180910390a35050565b6097546001600160a01b03163314611fe057604051630202a8bf60e61b815260040160405180910390fd5b8281811461200157604051638d62a9d560e01b815260040160405180910390fd5b60005b8181101561207d5783838281811061201e5761201e614a4e565b9050602002013561016b600088888581811061203c5761203c614a4e565b9050602002016020810190612051919061424d565b6001600160a01b0316815260208101919091526040016000205580612075816149c7565b915050612004565b506040517f0df27beb8d16f5e61d125286ba69a986a702ac83921bb1864629ca5e662e84d490600090a15050505050565b3233146120ce57604051633059e46160e21b815260040160405180910390fd5b6003806120d961109b565b60048111156120ea576120ea614a22565b14612108576040516338df794b60e01b815260040160405180910390fd5b61016c546101635461211a9190614949565b610162546121289190614949565b826121366066546065540390565b61214091906148fe565b111561215f57604051631eddc6a360e11b815260040160405180910390fd5b610166548261216d3361298c565b61217791906148fe565b1115612196576040516335e62b7b60e21b815260040160405180910390fd5b60006121a0611de7565b90506121be33846040518060200160405280600081525060006131ca565b8261016e60008282546121d191906148fe565b909155503390507fbb20f716bd7ca9427b818f6de485952ab3a5acec2559fb794e3f9a4d9f70e72284838161220560655490565b61220f9190614949565b600360405161222194939291906148d3565b60405180910390a26112af612236848361492a565b613430565b612246848484612f3f565b6001600160a01b0383163b15158015612268575061226684848484613794565b155b1561171f576040516368d2bf6b60e11b815260040160405180910390fd5b6097546001600160a01b031633146122b157604051630202a8bf60e61b815260040160405180910390fd5b6000806122bc61109b565b60048111156122cd576122cd614a22565b146122eb576040516338df794b60e01b815260040160405180910390fd5b428a101561230c57604051639db169d760e01b815260040160405180910390fd5b87891161232c576040516302f092d160e41b815260040160405180910390fd5b89861161234c57604051633688d4a160e11b815260040160405180910390fd5b8584101561236d576040516335bcfe2b60e21b815260040160405180910390fd5b8383101561238e57604051631e3804ab60e21b815260040160405180910390fd5b61271085118061239f575061271082115b156123bd576040516346b7d95d60e11b815260040160405180910390fd5b6123c78a87614949565b610177558615806123e657506004610177546123e39190614916565b87115b156124045760405163352a16bd60e11b815260040160405180910390fd5b6101748a905561017589905561017d89905561017688905561017887905561017754612431908890614916565b61243b898b614949565b6124459190614916565b6101795561016f86905561017a85905561017084905561017183905561017b829055610174546101755461017654610178546040805194855260208501939093529183015260608201526080810187905260a0810186905260c0810185905260e0810184905261010081018390527f58e0e46404ae474a97bd7a61b1842cce1f3fedb34494eaf416f2df97c01dce77906101200160405180910390a150505050505050505050565b6002806124f861109b565b600481111561250957612509614a22565b14612527576040516338df794b60e01b815260040160405180910390fd5b33600090815261016b6020526040902054821115612558576040516390e50aa560e01b815260040160405180910390fd5b600061017c546101735461256c9190614949565b905061016c54610164546101735461258491906148fe565b61258e91906148fe565b838261259d6066546065540390565b6125a791906148fe565b6125b191906148fe565b11156125d057604051631eddc6a360e11b815260040160405180910390fd5b33600090815261016b6020526040812080548592906125f0908490614949565b90915550600090506126006112b4565b9050600061260e858361492a565b905061262c33866040518060200160405280600081525060006131ca565b8461016d600082825461263f91906148fe565b909155503390507fbb20f716bd7ca9427b818f6de485952ab3a5acec2559fb794e3f9a4d9f70e72286848161267360655490565b61267d9190614949565b600260405161268f94939291906148d3565b60405180910390a26126a081613430565b5050505050565b6097546001600160a01b031633146126d257604051630202a8bf60e61b815260040160405180910390fd5b6098546001600160a01b0316156126fc5760405163033c108960e01b815260040160405180910390fd5b611098816135e5565b610161546060906001600160a01b031661274c576101696127258361388c565b604051602001612736929190614722565b6040516020818303038152906040529050919050565b61016154604051635e1578db60e11b81523060048201526001600160a01b039091169063bc2af1b69060240160206040518083038186803b15801561279057600080fd5b505afa1580156127a4573d6000803e3d6000fd5b505050506040513d601f19601f820116820180604052508101906127c8919061465c565b82106128615761016a80546127dc9061498c565b80601f01602080910402602001604051908101604052809291908181526020018280546128089061498c565b80156128555780601f1061282a57610100808354040283529160200191612855565b820191906000526020600020905b81548152906001019060200180831161283857829003601f168201915b50505050509050919050565b61016154604051631f4b3c0160e11b81523060048201526024810184905261016991612725916001600160a01b0390911690633e9678029060440160206040518083038186803b1580156128b457600080fd5b505afa1580156128c8573d6000803e3d6000fd5b505050506040513d601f19601f820116820180604052508101906128ec919061465c565b61388c565b600081815260cb60205260408120610f0a90613989565b81806129275760405163e466584960e01b815260040160405180910390fd5b6000838152609960205260409020600101546097546001600160a01b0316331480159061295b57506129598133611e8b565b155b156129825760405163f9019a8d60e01b8152600481018290523360248201526044016113dd565b61171f8484613993565b6001600160a01b0381166000908152606a6020526040812054600160401b90046001600160401b0316610f0a565b6097546001600160a01b031633146129e557604051630202a8bf60e61b815260040160405180910390fd5b61016180546001600160a01b0319166001600160a01b0392909216919091179055565b6097546001600160a01b03163314612a3357604051630202a8bf60e61b815260040160405180910390fd5b610168546001600160a01b031615612a5e576040516345db6e6960e11b815260040160405180910390fd5b612710821115612a81576040516346b7d95d60e11b815260040160405180910390fd5b6001600160a01b038116612aa857604051631a1b629760e21b815260040160405180910390fd5b61016782905561016880546001600160a01b0319166001600160a01b0383169081179091556040805184815260208101929092527fd7d086964f00d2604a80288c460231fe9cfc8e9605e838d49017401111f63adb9101611b3a565b600054610100900460ff16612b1f5760005460ff1615612b23565b303b155b612b865760405162461bcd60e51b815260206004820152602e60248201527f496e697469616c697a61626c653a20636f6e747261637420697320616c72656160448201526d191e481a5b9a5d1a585b1a5e995960921b60648201526084016113dd565b600054610100900460ff16158015612ba8576000805461ffff19166101011790555b612bb88a8a8a8a8a8a888a6139b5565b8482612bc485876148fe565b612bce91906148fe565b1115612bed57604051631a231d4360e21b815260040160405180910390fd5b6101738490558015612c05576000805461ff00191690555b50505050505050505050565b6098546001600160a01b031633141580612c29575033155b15612c475760405163134aa98760e31b815260040160405180910390fd5b611c21336136ce565b6097546001600160a01b03163314612c7b57604051630202a8bf60e61b815260040160405180910390fd5b612c8861016a8383614050565b507f4012c6d278d4b460acbc560e9fa4425e187c3b40c848b8dfa248139729efee4361016a604051611b3a9190614803565b60006001600160e01b03198216639ccbe54160e01b1480612cdf5750612cdf82613ac2565b80612cee5750612cee82613b02565b80612cfd5750612cfd82613b27565b80612d0c5750612d0c82613b3d565b80610f0a5750610f0a82613b02565b6127106001600160601b0382161115612d895760405162461bcd60e51b815260206004820152602a60248201527f455243323938313a20726f79616c7479206665652077696c6c206578636565646044820152692073616c65507269636560b01b60648201526084016113dd565b6001600160a01b038216612ddf5760405162461bcd60e51b815260206004820152601960248201527f455243323938313a20696e76616c69642072656365697665720000000000000060448201526064016113dd565b604080518082019091526001600160a01b039092168083526001600160601b039091166020909201829052600160a01b9091021761012f55565b61016f54612e3a576040516356a4234d60e11b815260040160405180910390fd5b610174548111612e5d57604051633688d4a160e11b815260040160405180910390fd5b80610170541015612e81576040516335bcfe2b60e21b815260040160405180910390fd5b61016f8190556040518181527f9bcdfa29202b48178635d9cf5c57896f671198685cf6b8ddb5e20f3eb4bb1e6090602001611366565b600060655482108015610f0a575050600090815260696020526040902054600160e01b900460ff161590565b6000828152606b602052604080822080546001600160a01b0319166001600160a01b0387811691821790925591518593918516917f8c5be1e5ebec7d5bd14f71427d1e84f3dd0314c0f7b2291e5b200ac8c7c3b92591a4505050565b6000612f4a826134cb565b9050836001600160a01b031681600001516001600160a01b031614612f815760405162a1148160e81b815260040160405180910390fd5b6000336001600160a01b0386161480612f9f5750612f9f8533610de6565b80612fba575033612faf846111e2565b6001600160a01b0316145b905080612fda57604051632ce44b5f60e11b815260040160405180910390fd5b6001600160a01b03841661300157604051633a954ecd60e21b815260040160405180910390fd5b61300d60008487612ee3565b6001600160a01b038581166000908152606a60209081526040808320805467ffffffffffffffff198082166001600160401b0392831660001901831617909255898616808652838620805493841693831660019081018416949094179055898652606990945282852080546001600160e01b031916909417600160a01b429092169190910217835587018084529220805491939091166130e15760655482146130e157805460208601516001600160401b0316600160a01b026001600160e01b03199091166001600160a01b038a16171781555b50505082846001600160a01b0316866001600160a01b03167fddf252ad1be2c89b69c2b068fc378daa952ba7f163c4a11628f55a4df523b3ef60405160405180910390a46126a0565b6131348282613b57565b600082815260cb602052604090206112af9082613bdd565b6001600160a01b03811633146131bc5760405162461bcd60e51b815260206004820152602f60248201527f416363657373436f6e74726f6c3a2063616e206f6e6c792072656e6f756e636560448201526e103937b632b9903337b91039b2b63360891b60648201526084016113dd565b6131c68282613993565b5050565b6065546001600160a01b0385166131f357604051622e076360e81b815260040160405180910390fd5b836132115760405163b562e8dd60e01b815260040160405180910390fd5b6001600160a01b0385166000818152606a6020908152604080832080546fffffffffffffffffffffffffffffffff1981166001600160401b038083168c018116918217600160401b67ffffffffffffffff1990941690921783900481168c01811690920217909155858452606990925290912080546001600160e01b031916909217600160a01b4290921691909102179055808085018380156132bd57506001600160a01b0387163b15155b15613346575b60405182906001600160a01b038916906000907fddf252ad1be2c89b69c2b068fc378daa952ba7f163c4a11628f55a4df523b3ef908290a461330e6000888480600101955088613794565b61332b576040516368d2bf6b60e11b815260040160405180910390fd5b808214156132c357826065541461334157600080fd5b61338c565b5b6040516001830192906001600160a01b038916906000907fddf252ad1be2c89b69c2b068fc378daa952ba7f163c4a11628f55a4df523b3ef908290a480821415613347575b506065556126a0565b610174546133b6576040516356a4234d60e11b815260040160405180910390fd5b428110156133d757604051639db169d760e01b815260040160405180910390fd5b8061016f54116133fa57604051633688d4a160e11b815260040160405180910390fd5b6101748190556040518181527ffb00110a4e6c0bc2323c3dd4f66784c4293e0bd3dfbf6ea9446e9efe673647c790602001611366565b8034101561345357604051639968ec3d60e01b81523460048201526024016113dd565b80341115611098576000336134688334614949565b604051600081818185875af1925050503d80600081146134a4576040519150601f19603f3d011682016040523d82523d6000602084013e6134a9565b606091505b50509050806131c657604051633aa9e60d60e21b815260040160405180910390fd5b6040805160608101825260008082526020820181905291810191909152816065548110156135cc57600081815260696020908152604091829020825160608101845290546001600160a01b0381168252600160a01b81046001600160401b031692820192909252600160e01b90910460ff161515918101829052906135ca5780516001600160a01b031615613561579392505050565b5060001901600081815260696020908152604091829020825160608101845290546001600160a01b038116808352600160a01b82046001600160401b031693830193909352600160e01b900460ff16151592810192909252156135c5579392505050565b613561565b505b604051636f96cda160e11b815260040160405180910390fd5b609880546001600160a01b0319166001600160a01b0383169081179091556040517f68f49b346b94582a8b5f9d10e3fe3365318fe8f191ff8dce7c59c6cad06b02f590600090a250565b61017054613650576040516356a4234d60e11b815260040160405180910390fd5b61016f54811015613674576040516335bcfe2b60e21b815260040160405180910390fd5b8061017154101561369857604051631e3804ab60e21b815260040160405180910390fd5b6101708190556040518181527f4fe26bfd1cf59c4428b13357bea5ab8239f9889b3f94cd575f98b4c6811dcdc590602001611366565b6136ea60006136e56097546001600160a01b031690565b613993565b6001600160a01b038116156137045761370460008261312a565b61109881613bf2565b6000611e168383613c4f565b6101715461373a576040516356a4234d60e11b815260040160405180910390fd5b6101705481101561375e57604051631e3804ab60e21b815260040160405180910390fd5b6101718190556040518181527fdb76c49adfe8600a5db82e1d85e7c1f7565676dac577c6a39744e9c95ad68e3c90602001611366565b604051630a85bd0160e11b81526000906001600160a01b0385169063150b7a02906137c99033908990889088906004016147a5565b602060405180830381600087803b1580156137e357600080fd5b505af1925050508015613813575060408051601f3d908101601f191682019092526138109181019061451c565b60015b61386e573d808015613841576040519150601f19603f3d011682016040523d82523d6000602084013e613846565b606091505b508051613866576040516368d2bf6b60e11b815260040160405180910390fd5b805181602001fd5b6001600160e01b031916630a85bd0160e11b1490505b949350505050565b6060816138b05750506040805180820190915260018152600360fc1b602082015290565b8160005b81156138da57806138c4816149c7565b91506138d39050600a83614916565b91506138b4565b6000816001600160401b038111156138f4576138f4614a64565b6040519080825280601f01601f19166020018201604052801561391e576020820181803683370190505b5090505b841561388457613933600183614949565b9150613940600a866149e2565b61394b9060306148fe565b60f81b81838151811061396057613960614a4e565b60200101906001600160f81b031916908160001a905350613982600a86614916565b9450613922565b6000610f0a825490565b61399d8282613c79565b600082815260cb602052604090206112af9082613ce0565b600054610100900460ff166139dc5760405162461bcd60e51b81526004016113dd90614888565b6139e4613cf5565b6139ec613d34565b6139f4613d63565b6139fe8888613d8a565b6001600160a01b038616613a25576040516331ae7ba360e21b815260040160405180910390fd5b821580613a3a575082613a3882846148fe565b115b15613a5857604051631a231d4360e21b815260040160405180910390fd5b82841115613a7957604051631ddf40b160e01b815260040160405180910390fd5b613a91600080516020614a9f8339815191528761169b565b613a9d856101f4612d1b565b6101658490556101629290925561016692909255610163919091556101645550505050565b60006001600160e01b031982166380ac58cd60e01b1480613af357506001600160e01b03198216635b5e139f60e01b145b80610f0a5750610f0a82613b27565b60006001600160e01b0319821663152a902d60e11b1480610f0a5750610f0a82613b3d565b6001600160e01b0319166301ffc9a760e01b1490565b6000613b4882613dbb565b80610f0a5750610f0a82613de0565b613b618282611e8b565b6131c65760008281526099602090815260408083206001600160a01b03851684529091529020805460ff19166001179055613b993390565b6001600160a01b0316816001600160a01b0316837f2f8788117e7eff1d82e926ec794901d17c78024a50270940304540a733656f0d60405160405180910390a45050565b6000611e16836001600160a01b038416613e05565b609780546001600160a01b038381166001600160a01b03198084168217909455609880549094169093556040519116919082907f8be0079c531659141344cd1fd0a4f28419497f9722a3daafe3b4186f6b6457e090600090a35050565b6000826000018281548110613c6657613c66614a4e565b9060005260206000200154905092915050565b613c838282611e8b565b156131c65760008281526099602090815260408083206001600160a01b0385168085529252808320805460ff1916905551339285917ff6391f5c32d9c69d2a47ea670b442974b53935d1edc7fd64eb21e047a839171b9190a45050565b6000611e16836001600160a01b038416613e54565b600054610100900460ff16613d1c5760405162461bcd60e51b81526004016113dd90614888565b613d24613f47565b613d2c613d63565b611c21613d63565b600054610100900460ff16613d5b5760405162461bcd60e51b81526004016113dd90614888565b611c21613f7e565b600054610100900460ff16611c215760405162461bcd60e51b81526004016113dd90614888565b600054610100900460ff16613db15760405162461bcd60e51b81526004016113dd90614888565b6131c68282613fac565b60006001600160e01b031982166322d7505760e11b1480610f0a5750610f0a82613ac2565b60006001600160e01b03198216635a05180f60e01b1480610f0a5750610f0a82614004565b6000818152600183016020526040812054613e4c57508154600181810184556000848152602080822090930184905584548482528286019093526040902091909155610f0a565b506000610f0a565b60008181526001830160205260408120548015613f3d576000613e78600183614949565b8554909150600090613e8c90600190614949565b9050818114613ef1576000866000018281548110613eac57613eac614a4e565b9060005260206000200154905080876000018481548110613ecf57613ecf614a4e565b6000918252602080832090910192909255918252600188019052604090208390555b8554869080613f0257613f02614a38565b600190038181906000526020600020016000905590558560010160008681526020019081526020016000206000905560019350505050610f0a565b6000915050610f0a565b600054610100900460ff16613f6e5760405162461bcd60e51b81526004016113dd90614888565b613f76613d63565b611c21614029565b600054610100900460ff16613fa55760405162461bcd60e51b81526004016113dd90614888565b600160fd55565b600054610100900460ff16613fd35760405162461bcd60e51b81526004016113dd90614888565b8151613fe69060679060208501906140d4565b508051613ffa9060689060208401906140d4565b5060006065555050565b60006001600160e01b03198216637965db0b60e01b1480610f0a5750610f0a82613dbb565b600054610100900460ff16612c475760405162461bcd60e51b81526004016113dd90614888565b82805461405c9061498c565b90600052602060002090601f01602090048101928261407e57600085556140c4565b82601f106140975782800160ff198235161785556140c4565b828001600101855582156140c4579182015b828111156140c45782358255916020019190600101906140a9565b506140d0929150614148565b5090565b8280546140e09061498c565b90600052602060002090601f01602090048101928261410257600085556140c4565b82601f1061411b57805160ff19168380011785556140c4565b828001600101855582156140c4579182015b828111156140c457825182559160200191906001019061412d565b5b808211156140d05760008155600101614149565b60006001600160401b038084111561417757614177614a64565b604051601f8501601f19908116603f0116810190828211818310171561419f5761419f614a64565b816040528093508581528686860111156141b857600080fd5b858560208301376000602087830101525050509392505050565b80356001600160a01b0381168114611e8657600080fd5b60008083601f8401126141fb57600080fd5b5081356001600160401b0381111561421257600080fd5b6020830191508360208260051b850101111561169457600080fd5b600082601f83011261423e57600080fd5b611e168383356020850161415d565b60006020828403121561425f57600080fd5b611e16826141d2565b6000806040838503121561427b57600080fd5b614284836141d2565b9150614292602084016141d2565b90509250929050565b6000806000606084860312156142b057600080fd5b6142b9846141d2565b92506142c7602085016141d2565b9150604084013590509250925092565b600080600080608085870312156142ed57600080fd5b6142f6856141d2565b9350614304602086016141d2565b92506040850135915060608501356001600160401b0381111561432657600080fd5b8501601f8101871361433757600080fd5b6143468782356020840161415d565b91505092959194509250565b6000806040838503121561436557600080fd5b61436e836141d2565b9150602083013561437e81614a7a565b809150509250929050565b6000806040838503121561439c57600080fd5b6143a5836141d2565b946020939093013593505050565b600080604083850312156143c657600080fd5b6143cf836141d2565b915060208301356001600160601b038116811461437e57600080fd5b6000806000806040858703121561440157600080fd5b84356001600160401b038082111561441857600080fd5b614424888389016141e9565b9096509450602087013591508082111561443d57600080fd5b5061444a878288016141e9565b95989497509550505050565b60006020828403121561446857600080fd5b8151611e1681614a7a565b6000806040838503121561448657600080fd5b825161449181614a7a565b6020939093015192949293505050565b6000602082840312156144b357600080fd5b5035919050565b600080604083850312156144cd57600080fd5b82359150614292602084016141d2565b600080604083850312156144f057600080fd5b50508035926020909101359150565b60006020828403121561451157600080fd5b8135611e1681614a88565b60006020828403121561452e57600080fd5b8151611e1681614a88565b6000806020838503121561454c57600080fd5b82356001600160401b038082111561456357600080fd5b818501915085601f83011261457757600080fd5b81358181111561458657600080fd5b86602082850101111561459857600080fd5b60209290920196919550909350505050565b60008060008060008060008060006101208a8c0312156145c957600080fd5b89356001600160401b03808211156145e057600080fd5b6145ec8d838e0161422d565b9a5060208c013591508082111561460257600080fd5b5061460f8c828d0161422d565b98505061461e60408b016141d2565b965061462c60608b016141d2565b989b979a50959860808101359760a0820135975060c0820135965060e08201359550610100909101359350915050565b60006020828403121561466e57600080fd5b5051919050565b60008060008060008060008060006101208a8c03121561469457600080fd5b505087359960208901359950604089013598606081013598506080810135975060a0810135965060c0810135955060e08101359450610100013592509050565b600081518084526146ec816020860160208601614960565b601f01601f19169290920160200192915050565b6005811061471e57634e487b7160e01b600052602160045260246000fd5b9052565b60008084546147308161498c565b60018281168015614748576001811461475957614788565b60ff19841687528287019450614788565b8860005260208060002060005b8581101561477f5781548a820152908401908201614766565b50505082870194505b50505050835161479c818360208801614960565b01949350505050565b6001600160a01b03858116825284166020820152604081018390526080606082018190526000906147d8908301846146d4565b9695505050505050565b60208101610f0a8284614700565b602081526000611e1660208301846146d4565b60006020808352600084546148178161498c565b80848701526040600180841660008114614838576001811461484c5761487a565b60ff1985168984015260608901955061487a565b896000528660002060005b858110156148725781548b8201860152908301908801614857565b8a0184019650505b509398975050505050505050565b6020808252602b908201527f496e697469616c697a61626c653a20636f6e7472616374206973206e6f74206960408201526a6e697469616c697a696e6760a81b606082015260800190565b8481526020810184905260408101839052608081016148f56060830184614700565b95945050505050565b60008219821115614911576149116149f6565b500190565b60008261492557614925614a0c565b500490565b6000816000190483118215151615614944576149446149f6565b500290565b60008282101561495b5761495b6149f6565b500390565b60005b8381101561497b578181015183820152602001614963565b8381111561171f5750506000910152565b600181811c908216806149a057607f821691505b602082108114156149c157634e487b7160e01b600052602260045260246000fd5b50919050565b60006000198214156149db576149db6149f6565b5060010190565b6000826149f1576149f1614a0c565b500690565b634e487b7160e01b600052601160045260246000fd5b634e487b7160e01b600052601260045260246000fd5b634e487b7160e01b600052602160045260246000fd5b634e487b7160e01b600052603160045260246000fd5b634e487b7160e01b600052603260045260246000fd5b634e487b7160e01b600052604160045260246000fd5b801515811461109857600080fd5b6001600160e01b03198116811461109857600080fdfe770fadb28e0e3026382976ee8b810cb0eb8666922148dd9e10b20cfb9b477ba8a2646970667358221220f1956eac9e8e411668b3293cdf23ebedfe78a5a5e9ab0068171a75b5a781485f64736f6c63430008060033",
  "devdoc": {
    "author": "Trader Joe",
    "events": {
      "AuctionSaleStartTimeSet(uint256)": {
        "details": "Emitted on setAuctionSaleStartTime()",
        "params": {
          "auctionSaleStartTime": "New auction sale start time"
        }
      },
      "Initialized(uint256,uint256,uint256,uint256,uint256,uint256,uint256,uint256,uint256)": {
        "details": "Emitted on initializePhases()",
        "params": {
          "allowlistDiscountPercent": "Discount applied to the last auction price during the allowlist mint",
          "allowlistStartTime": "allowlist mint start time in seconds",
          "auctionDropInterval": "Time elapsed between each drop in price in seconds",
          "auctionEndPrice": "Auction floor price in AVAX",
          "auctionSaleStartTime": "Auction start time in seconds",
          "auctionStartPrice": "Auction start price in AVAX",
          "publicSaleDiscountPercent": "Discount applied to the last auction price during the public sale",
          "publicSaleEndTime": "Public sale end time in seconds",
          "publicSaleStartTime": "Public sale start time in seconds"
        }
      },
      "Mint(address,uint256,uint256,uint256,uint8)": {
        "details": "Emitted on auctionMint(), allowlistMint(), publicSaleMint()",
        "params": {
          "phase": "The phase in which the mint occurs",
          "price": "Price in AVAX for the NFTs",
          "quantity": "Amount of NFTs minted",
          "sender": "The address that minted",
          "startTokenId": "The token ID of the first minted NFT: if `startTokenId` = 100 and `quantity` = 2, `sender` minted 100 and 101"
        }
      }
    },
    "kind": "dev",
    "methods": {
      "allowlistMint(uint256)": {
        "params": {
          "_quantity": "Quantity of NFTs to mint"
        }
      },
      "approve(address,uint256)": {
        "details": "See {IERC721-approve}."
      },
      "auctionMint(uint256)": {
        "details": "The price decreases every `auctionDropInterval` by `auctionDropPerStep`",
        "params": {
          "_quantity": "Quantity of NFTs to buy"
        }
      },
      "balanceOf(address)": {
        "details": "See {IERC721-balanceOf}."
      },
      "currentPhase()": {
        "returns": {
          "_0": "phase Current phase"
        }
      },
      "devMint(uint256)": {
        "details": "Can only mint up to `amountForDevs`",
        "params": {
          "_quantity": "Quantity of NFTs to mint"
        }
      },
      "getAllowlistPrice()": {
        "returns": {
          "_0": "allowlistSalePrice Mint List sale price"
        }
      },
      "getApproved(uint256)": {
        "details": "See {IERC721-getApproved}."
      },
      "getAuctionPrice(uint256)": {
        "params": {
          "_saleStartTime": "Auction sale start time"
        },
        "returns": {
          "_0": "auctionSalePrice Auction sale price"
        }
      },
      "getOwnershipData(uint256)": {
        "params": {
          "_tokenId": "Token ID"
        },
        "returns": {
          "_0": "TokenOwnership Ownership struct for a specific token ID"
        }
      },
      "getPublicSalePrice()": {
        "returns": {
          "_0": "publicSalePrice Public sale price"
        }
      },
      "getRoleAdmin(bytes32)": {
        "details": "Returns the admin role that controls `role`. See {grantRole} and {revokeRole}. To change a role's admin, use {_setRoleAdmin}."
      },
      "getRoleMember(bytes32,uint256)": {
        "details": "Returns one of the accounts that have `role`. `index` must be a value between 0 and {getRoleMemberCount}, non-inclusive. Role bearers are not sorted in any particular way, and their ordering may change at any point. WARNING: When using {getRoleMember} and {getRoleMemberCount}, make sure you perform all queries on the same block. See the following https://forum.openzeppelin.com/t/iterating-over-elements-on-enumerableset-in-openzeppelin-contracts/2296[forum post] for more information."
      },
      "getRoleMemberCount(bytes32)": {
        "details": "Returns the number of accounts that have `role`. Can be used together with {getRoleMember} to enumerate all bearers of a role."
      },
      "grantRole(bytes32,address)": {
        "details": "If `account` had not been already granted `role`, emits a {RoleGranted} event. Requirements: - the caller must be the `owner` or have ``role``'s admin role. - the role granted can't be `DEFAULT_ADMIN`",
        "params": {
          "account": "The address of the account",
          "role": "The role to grant"
        }
      },
      "hasBatchToReveal()": {
        "returns": {
          "_0": "bool Whether reveal can be triggered or not",
          "_1": "uint256 The number of the next batch that will be revealed"
        }
      },
      "hasRole(bytes32,address)": {
        "details": "Returns `true` if `account` has been granted `role`."
      },
      "initialize(string,string,address,address,uint256,uint256,uint256,uint256,uint256)": {
        "params": {
          "_amountForAllowlist": "Amount of NFTs available for the allowlist mint (e.g 1000)",
          "_amountForAuction": "Amount of NFTs available for the auction (e.g 8000)",
          "_amountForDevs": "Amount of NFTs reserved for `projectOwner` (e.g 200)",
          "_collectionSize": "The collection size (e.g 10000)",
          "_maxBatchSize": "Max amount of NFTs that can be minted at once",
          "_name": "ERC721 name",
          "_projectOwner": "The project owner",
          "_royaltyReceiver": "Royalty fee collector",
          "_symbol": "ERC721 symbol"
        }
      },
      "initializeJoeFee(uint256,address)": {
        "params": {
          "_joeFeeCollector": "The address to which the fees on the sale will be sent",
          "_joeFeePercent": "The fees collected by Joepegs on the sale benefits"
        }
      },
      "initializePhases(uint256,uint256,uint256,uint256,uint256,uint256,uint256,uint256,uint256)": {
        "details": "Can only be called once",
        "params": {
          "_allowlistDiscountPercent": "Discount applied to the last auction price during the allowlist mint",
          "_allowlistStartTime": "allowlist mint start time in seconds",
          "_auctionDropInterval": "Time elapsed between each drop in price in seconds",
          "_auctionEndPrice": "Auction floor price in AVAX",
          "_auctionSaleStartTime": "Auction start time in seconds",
          "_auctionStartPrice": "Auction start price in AVAX",
          "_publicSaleDiscountPercent": "Discount applied to the last auction price during the public sale",
          "_publicSaleEndTime": "Public sale end time in seconds",
          "_publicSaleStartTime": "Public sale start time in seconds"
        }
      },
      "isApprovedForAll(address,address)": {
        "details": "See {IERC721-isApprovedForAll}."
      },
      "name()": {
        "details": "See {IERC721Metadata-name}."
      },
      "numberMinted(address)": {
        "params": {
          "_owner": "The owner of the NFTs"
        },
        "returns": {
          "_0": "numberMinted Number of NFTs minted"
        }
      },
      "owner()": {
        "returns": {
          "_0": "The address of the current owner"
        }
      },
      "ownerOf(uint256)": {
        "details": "See {IERC721-ownerOf}."
      },
      "pendingOwner()": {
        "returns": {
          "_0": "The address of the current pending owner"
        }
      },
      "publicSaleMint(uint256)": {
        "params": {
          "_quantity": "Quantity of NFTs to mint"
        }
      },
      "renounceRole(bytes32,address)": {
        "details": "Roles are often managed via {grantRole} and {revokeRole}: this function's purpose is to provide a mechanism for accounts to lose their privileges if they are compromised (such as when a trusted device is misplaced). If the calling account had been revoked `role`, emits a {RoleRevoked} event. Requirements: - the caller must be `account`. - the role renounced can't be `DEFAULT_ADMIN`",
        "params": {
          "account": "The address of the account",
          "role": "The role to renounce"
        }
      },
      "revokeRole(bytes32,address)": {
        "details": "If `account` had been granted `role`, emits a {RoleRevoked} event. Requirements: - the caller must be the `owner` or have ``role``'s admin role. - the role revoked can't be `DEFAULT_ADMIN`",
        "params": {
          "account": "The address of the account",
          "role": "The role to revoke"
        }
      },
      "royaltyInfo(uint256,uint256)": {
        "details": "Returns how much royalty is owed and to whom, based on a sale price that may be denominated in any unit of exchange. The royalty amount is denominated and should be payed in that same unit of exchange."
      },
      "safeTransferFrom(address,address,uint256)": {
        "details": "See {IERC721-safeTransferFrom}."
      },
      "safeTransferFrom(address,address,uint256,bytes)": {
        "details": "See {IERC721-safeTransferFrom}."
      },
      "seedAllowlist(address[],uint256[])": {
        "params": {
          "_addresses": "List of addresses allowed to mint during the allowlist phase",
          "_numNfts": "List of NFT quantities mintable per address"
        }
      },
      "setAllowlistStartTime(uint256)": {
        "details": "Only callable by owner",
        "params": {
          "_allowlistStartTime": "New allowlist start time"
        }
      },
      "setApprovalForAll(address,bool)": {
        "details": "See {IERC721-setApprovalForAll}."
      },
      "setAuctionSaleStartTime(uint256)": {
        "details": "Only callable by owner",
        "params": {
          "_auctionSaleStartTime": "New auction sale start time"
        }
      },
      "setBaseURI(string)": {
        "details": "This sets the URI for revealed tokens Only callable by project owner",
        "params": {
          "_baseURI": "Base URI to be set"
        }
      },
      "setBatchReveal(address)": {
        "details": "Can be set to zero address to disable batch reveal"
      },
      "setPublicSaleEndTime(uint256)": {
        "details": "Only callable by owner",
        "params": {
          "_publicSaleEndTime": "New public sale end time"
        }
      },
      "setPublicSaleStartTime(uint256)": {
        "details": "Only callable by owner",
        "params": {
          "_publicSaleStartTime": "New public sale start time"
        }
      },
      "setRoyaltyInfo(address,uint96)": {
        "params": {
          "_feePercent": "Royalty fee percent in basis point",
          "_receiver": "Royalty fee collector"
        }
      },
      "setUnrevealedURI(string)": {
        "details": "Only callable by project owner",
        "params": {
          "_unrevealedURI": "Unrevealed URI to be set"
        }
      },
      "setWithdrawAVAXStartTime(uint256)": {
        "params": {
          "_withdrawAVAXStartTime": "New public sale end time"
        }
      },
      "supportsInterface(bytes4)": {
        "details": "Returns true if this contract implements the interface defined by `interfaceId`. See the corresponding https://eips.ethereum.org/EIPS/eip-165#how-interfaces-are-identified[EIP section] to learn more about how these IDs are created. This function call must use less than 30 000 gas.",
        "params": {
          "_interfaceId": "InterfaceId to consider. Comes from type(InterfaceContract).interfaceId"
        },
        "returns": {
          "_0": "isInterfaceSupported True if the considered interface is supported"
        }
      },
      "symbol()": {
        "details": "See {IERC721Metadata-symbol}."
      },
      "tokenURI(uint256)": {
        "params": {
          "_id": "Token id"
        },
        "returns": {
          "_0": "URI Token URI"
        }
      },
      "totalSupply()": {
        "details": "Burned tokens are calculated here, use _totalMinted() if you want to count just minted tokens."
      },
      "transferFrom(address,address,uint256)": {
        "details": "See {IERC721-transferFrom}."
      },
      "withdrawAVAX(address)": {
        "params": {
          "_to": "Recipient of the earned AVAX"
        }
      }
    },
    "stateVariables": {
      "allowlistDiscountPercent": {
        "details": "In basis points e.g 500 for 5%"
      },
      "auctionDropInterval": {
        "details": "In seconds"
      },
      "auctionEndPrice": {
        "details": "auctionEndPrice is scaled to 1e18"
      },
      "auctionSaleDuration": {
        "details": "allowlistStartTime - auctionSaleStartTime"
      },
      "auctionSaleStartTime": {
        "details": "Timestamp"
      },
      "auctionStartPrice": {
        "details": "auctionStartPrice is scaled to 1e18"
      },
      "lastAuctionPrice": {
        "details": "lastAuctionPrice is scaled to 1e18"
      },
      "publicSaleDiscountPercent": {
        "details": "In basis points e.g 2500 for 25%"
      }
    },
    "title": "Launchpeg",
    "version": 1
  },
  "userdoc": {
    "kind": "user",
    "methods": {
      "BASIS_POINT_PRECISION()": {
        "notice": "Percentage base point"
      },
      "PROJECT_OWNER_ROLE()": {
        "notice": "Role granted to project owners"
      },
      "allowlist(address)": {
        "notice": "The amount of NFTs each allowed address can mint during the allowlist mint"
      },
      "allowlistDiscountPercent()": {
        "notice": "The discount applied to the last auction price during the allowlist mint"
      },
      "allowlistMint(uint256)": {
        "notice": "Mint NFTs during the allowlist mint"
      },
      "allowlistStartTime()": {
        "notice": "Start time of the allowlist mint in seconds"
      },
      "amountForAllowlist()": {
        "notice": "Amount of NFTs available for the allowlist mint (e.g 1000)"
      },
      "amountForAuction()": {
        "notice": "Amount of NFTs available for the auction (e.g 8000) Unsold items are put up for sale during the public sale."
      },
      "amountForDevs()": {
        "notice": "Amount of NFTs reserved for the project owner (e.g 200)"
      },
      "amountMintedByDevs()": {
        "notice": "Tracks the amount of NFTs minted by `projectOwner`"
      },
      "amountMintedDuringAllowlist()": {
        "notice": "Tracks the amount of NFTs minted on Allowlist phase"
      },
      "amountMintedDuringAuction()": {
        "notice": "Tracks the amount of NFTs minted during the dutch auction"
      },
      "amountMintedDuringPublicSale()": {
        "notice": "Tracks the amount of NFTs minted on Public Sale phase"
      },
      "auctionDropInterval()": {
        "notice": "Time elapsed between each drop in price"
      },
      "auctionDropPerStep()": {
        "notice": "Amount in AVAX deducted at each interval"
      },
      "auctionEndPrice()": {
        "notice": "Auction floor price in AVAX"
      },
      "auctionMint(uint256)": {
        "notice": "Mint NFTs during the dutch auction"
      },
      "auctionSaleDuration()": {
        "notice": "Duration of the auction in seconds"
      },
      "auctionSaleStartTime()": {
        "notice": "Start time of the dutch auction in seconds"
      },
      "auctionStartPrice()": {
        "notice": "Auction start price in AVAX"
      },
      "baseURI()": {
        "notice": "Token URI after collection reveal"
      },
      "becomeOwner()": {
        "notice": "Transfers the ownership to the new owner (`pendingOwner`). Can only be called by the pending owner"
      },
      "collectionSize()": {
        "notice": "The collection size (e.g 10000)"
      },
      "currentPhase()": {
        "notice": "Returns the current phase"
      },
      "devMint(uint256)": {
        "notice": "Mint NFTs to the project owner"
      },
      "getAllowlistPrice()": {
        "notice": "Returns the price of the allowlist mint"
      },
      "getAuctionPrice(uint256)": {
        "notice": "Returns the current price of the dutch auction"
      },
      "getOwnershipData(uint256)": {
        "notice": "Returns the ownership data of a specific token ID"
      },
      "getPublicSalePrice()": {
        "notice": "Returns the price of the public sale"
      },
      "grantRole(bytes32,address)": {
        "notice": "Grants `role` to `account`."
      },
      "hasBatchToReveal()": {
        "notice": "Tells you if a batch can be revealed"
      },
      "initialize(string,string,address,address,uint256,uint256,uint256,uint256,uint256)": {
        "notice": "Launchpeg initialization Can only be called once"
      },
      "initializeJoeFee(uint256,address)": {
        "notice": "Initialize the sales fee percent taken by Joepegs and address that collects the fees"
      },
      "initializePhases(uint256,uint256,uint256,uint256,uint256,uint256,uint256,uint256,uint256)": {
        "notice": "Initialize the three phases of the sale"
      },
      "joeFeeCollector()": {
        "notice": "The address to which the fees on the sale will be sent"
      },
      "joeFeePercent()": {
        "notice": "The fees collected by Joepegs on the sale benefits"
      },
      "lastAuctionPrice()": {
        "notice": "The price of the last NFT sold during the auction"
      },
      "maxBatchSize()": {
        "notice": "Max amount of NFTs that can be minted at once"
      },
      "maxPerAddressDuringMint()": {
        "notice": "Max amount of NFTs an address can mint"
      },
      "numberMinted(address)": {
        "notice": "Returns the number of NFTs minted by a specific address"
      },
      "owner()": {
        "notice": "Returns the address of the current owner"
      },
      "pendingOwner()": {
        "notice": "Returns the address of the current pending owner"
      },
      "publicSaleDiscountPercent()": {
        "notice": "The discount applied to the last auction price during the public sale"
      },
      "publicSaleEndTime()": {
        "notice": "End time of the public sale in seconds"
      },
      "publicSaleMint(uint256)": {
        "notice": "Mint NFTs during the public sale"
      },
      "publicSaleStartTime()": {
        "notice": "Start time of the public sale in seconds"
      },
      "renounceOwnership()": {
        "notice": "Leaves the contract without owner. It will not be possible to call `onlyOwner` functions anymore. Can only be called by the current owner. NOTE: Renouncing ownership will leave the contract without an owner, thereby removing any functionality that is only available to the owner."
      },
      "renounceRole(bytes32,address)": {
        "notice": "Revokes `role` from the calling account."
      },
      "revealNextBatch()": {
        "notice": "Reveals the next batch if the reveal conditions are met"
      },
      "revokePendingOwner()": {
        "notice": "Revoke the pending owner address. This address will not be able to call {becomeOwner} to become the owner anymore. Can only be called by the owner"
      },
      "revokeRole(bytes32,address)": {
        "notice": "Revokes `role` from `account`."
      },
      "seedAllowlist(address[],uint256[])": {
        "notice": "Set amount of NFTs mintable per address during the allowlist phase"
      },
      "setAllowlistStartTime(uint256)": {
        "notice": "Set the allowlist start time. Can only be set after phases have been initialized."
      },
      "setAuctionSaleStartTime(uint256)": {
        "notice": "Set the auction sale start time. Can only be set after phases have been initialized."
      },
      "setBaseURI(string)": {
        "notice": "Set the base URI"
      },
      "setBatchReveal(address)": {
        "notice": "Update batch reveal"
      },
      "setPendingOwner(address)": {
        "notice": "Sets the pending owner address. This address will be able to become the owner of this contract by calling {becomeOwner}"
      },
      "setPublicSaleEndTime(uint256)": {
        "notice": "Set the public sale end time. Can only be set after phases have been initialized."
      },
      "setPublicSaleStartTime(uint256)": {
        "notice": "Set the public sale start time. Can only be set after phases have been initialized."
      },
      "setRoyaltyInfo(address,uint96)": {
        "notice": "Set the royalty fee"
      },
      "setUnrevealedURI(string)": {
        "notice": "Set the unrevealed URI"
      },
      "setWithdrawAVAXStartTime(uint256)": {
        "notice": "Set the withdraw AVAX start time."
      },
      "tokenURI(uint256)": {
        "notice": "Returns the Uniform Resource Identifier (URI) for `tokenId` token."
      },
      "unrevealedURI()": {
        "notice": "Token URI before the collection reveal"
      },
      "withdrawAVAX(address)": {
        "notice": "Withdraw AVAX to the given recipient"
      },
      "withdrawAVAXStartTime()": {
        "notice": "Start time when funds can be withdrawn"
      }
    },
    "notice": "Implements a fair and gas efficient NFT launch mechanism. The sale takes place in 3 phases: dutch auction, allowlist mint, public sale.",
    "version": 1
  },
  "storageLayout": {
    "storage": [
      {
        "astId": 810,
        "contract": "contracts/Launchpeg.sol:Launchpeg",
        "label": "_initialized",
        "offset": 0,
        "slot": "0",
        "type": "t_bool"
      },
      {
        "astId": 813,
        "contract": "contracts/Launchpeg.sol:Launchpeg",
        "label": "_initializing",
        "offset": 1,
        "slot": "0",
        "type": "t_bool"
      },
      {
        "astId": 1710,
        "contract": "contracts/Launchpeg.sol:Launchpeg",
        "label": "__gap",
        "offset": 0,
        "slot": "1",
        "type": "t_array(t_uint256)50_storage"
      },
      {
        "astId": 1957,
        "contract": "contracts/Launchpeg.sol:Launchpeg",
        "label": "__gap",
        "offset": 0,
        "slot": "51",
        "type": "t_array(t_uint256)50_storage"
      },
      {
        "astId": 10282,
        "contract": "contracts/Launchpeg.sol:Launchpeg",
        "label": "_currentIndex",
        "offset": 0,
        "slot": "101",
        "type": "t_uint256"
      },
      {
        "astId": 10284,
        "contract": "contracts/Launchpeg.sol:Launchpeg",
        "label": "_burnCounter",
        "offset": 0,
        "slot": "102",
        "type": "t_uint256"
      },
      {
        "astId": 10286,
        "contract": "contracts/Launchpeg.sol:Launchpeg",
        "label": "_name",
        "offset": 0,
        "slot": "103",
        "type": "t_string_storage"
      },
      {
        "astId": 10288,
        "contract": "contracts/Launchpeg.sol:Launchpeg",
        "label": "_symbol",
        "offset": 0,
        "slot": "104",
        "type": "t_string_storage"
      },
      {
        "astId": 10293,
        "contract": "contracts/Launchpeg.sol:Launchpeg",
        "label": "_ownerships",
        "offset": 0,
        "slot": "105",
        "type": "t_mapping(t_uint256,t_struct(TokenOwnership)10271_storage)"
      },
      {
        "astId": 10298,
        "contract": "contracts/Launchpeg.sol:Launchpeg",
        "label": "_addressData",
        "offset": 0,
        "slot": "106",
        "type": "t_mapping(t_address,t_struct(AddressData)10280_storage)"
      },
      {
        "astId": 10302,
        "contract": "contracts/Launchpeg.sol:Launchpeg",
        "label": "_tokenApprovals",
        "offset": 0,
        "slot": "107",
        "type": "t_mapping(t_uint256,t_address)"
      },
      {
        "astId": 10308,
        "contract": "contracts/Launchpeg.sol:Launchpeg",
        "label": "_operatorApprovals",
        "offset": 0,
        "slot": "108",
        "type": "t_mapping(t_address,t_mapping(t_address,t_bool))"
      },
      {
        "astId": 11556,
        "contract": "contracts/Launchpeg.sol:Launchpeg",
        "label": "__gap",
        "offset": 0,
        "slot": "109",
        "type": "t_array(t_uint256)42_storage"
      },
      {
        "astId": 9667,
        "contract": "contracts/Launchpeg.sol:Launchpeg",
        "label": "_owner",
        "offset": 0,
        "slot": "151",
        "type": "t_address"
      },
      {
        "astId": 9669,
        "contract": "contracts/Launchpeg.sol:Launchpeg",
        "label": "_pendingOwner",
        "offset": 0,
        "slot": "152",
        "type": "t_address"
      },
      {
        "astId": 273,
        "contract": "contracts/Launchpeg.sol:Launchpeg",
        "label": "_roles",
        "offset": 0,
        "slot": "153",
        "type": "t_mapping(t_bytes32,t_struct(RoleData)268_storage)"
      },
      {
        "astId": 561,
        "contract": "contracts/Launchpeg.sol:Launchpeg",
        "label": "__gap",
        "offset": 0,
        "slot": "154",
        "type": "t_array(t_uint256)49_storage"
      },
      {
        "astId": 122,
        "contract": "contracts/Launchpeg.sol:Launchpeg",
        "label": "_roleMembers",
        "offset": 0,
        "slot": "203",
        "type": "t_mapping(t_bytes32,t_struct(AddressSet)2282_storage)"
      },
      {
        "astId": 232,
        "contract": "contracts/Launchpeg.sol:Launchpeg",
        "label": "__gap",
        "offset": 0,
        "slot": "204",
        "type": "t_array(t_uint256)49_storage"
      },
      {
        "astId": 1002,
        "contract": "contracts/Launchpeg.sol:Launchpeg",
        "label": "_status",
        "offset": 0,
        "slot": "253",
        "type": "t_uint256"
      },
      {
        "astId": 1046,
        "contract": "contracts/Launchpeg.sol:Launchpeg",
        "label": "__gap",
        "offset": 0,
        "slot": "254",
        "type": "t_array(t_uint256)49_storage"
      },
      {
        "astId": 1240,
        "contract": "contracts/Launchpeg.sol:Launchpeg",
        "label": "_defaultRoyaltyInfo",
        "offset": 0,
        "slot": "303",
        "type": "t_struct(RoyaltyInfo)1237_storage"
      },
      {
        "astId": 1245,
        "contract": "contracts/Launchpeg.sol:Launchpeg",
        "label": "_tokenRoyaltyInfo",
        "offset": 0,
        "slot": "304",
        "type": "t_mapping(t_uint256,t_struct(RoyaltyInfo)1237_storage)"
      },
      {
        "astId": 1425,
        "contract": "contracts/Launchpeg.sol:Launchpeg",
        "label": "__gap",
        "offset": 0,
        "slot": "305",
        "type": "t_array(t_uint256)48_storage"
      },
      {
        "astId": 2676,
        "contract": "contracts/Launchpeg.sol:Launchpeg",
        "label": "batchReveal",
        "offset": 0,
        "slot": "353",
        "type": "t_contract(IBatchReveal)9155"
      },
      {
        "astId": 2687,
        "contract": "contracts/Launchpeg.sol:Launchpeg",
        "label": "collectionSize",
        "offset": 0,
        "slot": "354",
        "type": "t_uint256"
      },
      {
        "astId": 2691,
        "contract": "contracts/Launchpeg.sol:Launchpeg",
        "label": "amountForDevs",
        "offset": 0,
        "slot": "355",
        "type": "t_uint256"
      },
      {
        "astId": 2695,
        "contract": "contracts/Launchpeg.sol:Launchpeg",
        "label": "amountForAllowlist",
        "offset": 0,
        "slot": "356",
        "type": "t_uint256"
      },
      {
        "astId": 2699,
        "contract": "contracts/Launchpeg.sol:Launchpeg",
        "label": "maxBatchSize",
        "offset": 0,
        "slot": "357",
        "type": "t_uint256"
      },
      {
        "astId": 2703,
        "contract": "contracts/Launchpeg.sol:Launchpeg",
        "label": "maxPerAddressDuringMint",
        "offset": 0,
        "slot": "358",
        "type": "t_uint256"
      },
      {
        "astId": 2707,
        "contract": "contracts/Launchpeg.sol:Launchpeg",
        "label": "joeFeePercent",
        "offset": 0,
        "slot": "359",
        "type": "t_uint256"
      },
      {
        "astId": 2711,
        "contract": "contracts/Launchpeg.sol:Launchpeg",
        "label": "joeFeeCollector",
        "offset": 0,
        "slot": "360",
        "type": "t_address"
      },
      {
        "astId": 2719,
        "contract": "contracts/Launchpeg.sol:Launchpeg",
        "label": "baseURI",
        "offset": 0,
        "slot": "361",
        "type": "t_string_storage"
      },
      {
        "astId": 2723,
        "contract": "contracts/Launchpeg.sol:Launchpeg",
        "label": "unrevealedURI",
        "offset": 0,
        "slot": "362",
        "type": "t_string_storage"
      },
      {
        "astId": 2729,
        "contract": "contracts/Launchpeg.sol:Launchpeg",
        "label": "allowlist",
        "offset": 0,
        "slot": "363",
        "type": "t_mapping(t_address,t_uint256)"
      },
      {
        "astId": 2733,
        "contract": "contracts/Launchpeg.sol:Launchpeg",
        "label": "amountMintedByDevs",
        "offset": 0,
        "slot": "364",
        "type": "t_uint256"
      },
      {
        "astId": 2737,
        "contract": "contracts/Launchpeg.sol:Launchpeg",
        "label": "amountMintedDuringAllowlist",
        "offset": 0,
        "slot": "365",
        "type": "t_uint256"
      },
      {
        "astId": 2741,
        "contract": "contracts/Launchpeg.sol:Launchpeg",
        "label": "amountMintedDuringPublicSale",
        "offset": 0,
        "slot": "366",
        "type": "t_uint256"
      },
      {
        "astId": 2745,
        "contract": "contracts/Launchpeg.sol:Launchpeg",
        "label": "allowlistStartTime",
        "offset": 0,
        "slot": "367",
        "type": "t_uint256"
      },
      {
        "astId": 2749,
        "contract": "contracts/Launchpeg.sol:Launchpeg",
        "label": "publicSaleStartTime",
        "offset": 0,
        "slot": "368",
        "type": "t_uint256"
      },
      {
        "astId": 2753,
        "contract": "contracts/Launchpeg.sol:Launchpeg",
        "label": "publicSaleEndTime",
        "offset": 0,
        "slot": "369",
        "type": "t_uint256"
      },
      {
        "astId": 2757,
        "contract": "contracts/Launchpeg.sol:Launchpeg",
        "label": "withdrawAVAXStartTime",
        "offset": 0,
        "slot": "370",
        "type": "t_uint256"
      },
      {
        "astId": 5668,
        "contract": "contracts/Launchpeg.sol:Launchpeg",
        "label": "amountForAuction",
        "offset": 0,
        "slot": "371",
        "type": "t_uint256"
      },
      {
        "astId": 5672,
        "contract": "contracts/Launchpeg.sol:Launchpeg",
        "label": "auctionSaleStartTime",
        "offset": 0,
        "slot": "372",
        "type": "t_uint256"
      },
      {
        "astId": 5676,
        "contract": "contracts/Launchpeg.sol:Launchpeg",
        "label": "auctionStartPrice",
        "offset": 0,
        "slot": "373",
        "type": "t_uint256"
      },
      {
        "astId": 5680,
        "contract": "contracts/Launchpeg.sol:Launchpeg",
        "label": "auctionEndPrice",
        "offset": 0,
        "slot": "374",
        "type": "t_uint256"
      },
      {
        "astId": 5684,
        "contract": "contracts/Launchpeg.sol:Launchpeg",
        "label": "auctionSaleDuration",
        "offset": 0,
        "slot": "375",
        "type": "t_uint256"
      },
      {
        "astId": 5688,
        "contract": "contracts/Launchpeg.sol:Launchpeg",
        "label": "auctionDropInterval",
        "offset": 0,
        "slot": "376",
        "type": "t_uint256"
      },
      {
        "astId": 5692,
        "contract": "contracts/Launchpeg.sol:Launchpeg",
        "label": "auctionDropPerStep",
        "offset": 0,
        "slot": "377",
        "type": "t_uint256"
      },
      {
        "astId": 5696,
        "contract": "contracts/Launchpeg.sol:Launchpeg",
        "label": "allowlistDiscountPercent",
        "offset": 0,
        "slot": "378",
        "type": "t_uint256"
      },
      {
        "astId": 5700,
        "contract": "contracts/Launchpeg.sol:Launchpeg",
        "label": "publicSaleDiscountPercent",
        "offset": 0,
        "slot": "379",
        "type": "t_uint256"
      },
      {
        "astId": 5704,
        "contract": "contracts/Launchpeg.sol:Launchpeg",
        "label": "amountMintedDuringAuction",
        "offset": 0,
        "slot": "380",
        "type": "t_uint256"
      },
      {
        "astId": 5708,
        "contract": "contracts/Launchpeg.sol:Launchpeg",
        "label": "lastAuctionPrice",
        "offset": 0,
        "slot": "381",
        "type": "t_uint256"
      }
    ],
    "types": {
      "t_address": {
        "encoding": "inplace",
        "label": "address",
        "numberOfBytes": "20"
      },
      "t_array(t_bytes32)dyn_storage": {
        "base": "t_bytes32",
        "encoding": "dynamic_array",
        "label": "bytes32[]",
        "numberOfBytes": "32"
      },
      "t_array(t_uint256)42_storage": {
        "base": "t_uint256",
        "encoding": "inplace",
        "label": "uint256[42]",
        "numberOfBytes": "1344"
      },
      "t_array(t_uint256)48_storage": {
        "base": "t_uint256",
        "encoding": "inplace",
        "label": "uint256[48]",
        "numberOfBytes": "1536"
      },
      "t_array(t_uint256)49_storage": {
        "base": "t_uint256",
        "encoding": "inplace",
        "label": "uint256[49]",
        "numberOfBytes": "1568"
      },
      "t_array(t_uint256)50_storage": {
        "base": "t_uint256",
        "encoding": "inplace",
        "label": "uint256[50]",
        "numberOfBytes": "1600"
      },
      "t_bool": {
        "encoding": "inplace",
        "label": "bool",
        "numberOfBytes": "1"
      },
      "t_bytes32": {
        "encoding": "inplace",
        "label": "bytes32",
        "numberOfBytes": "32"
      },
      "t_contract(IBatchReveal)9155": {
        "encoding": "inplace",
        "label": "contract IBatchReveal",
        "numberOfBytes": "20"
      },
      "t_mapping(t_address,t_bool)": {
        "encoding": "mapping",
        "key": "t_address",
        "label": "mapping(address => bool)",
        "numberOfBytes": "32",
        "value": "t_bool"
      },
      "t_mapping(t_address,t_mapping(t_address,t_bool))": {
        "encoding": "mapping",
        "key": "t_address",
        "label": "mapping(address => mapping(address => bool))",
        "numberOfBytes": "32",
        "value": "t_mapping(t_address,t_bool)"
      },
      "t_mapping(t_address,t_struct(AddressData)10280_storage)": {
        "encoding": "mapping",
        "key": "t_address",
        "label": "mapping(address => struct ERC721AUpgradeable.AddressData)",
        "numberOfBytes": "32",
        "value": "t_struct(AddressData)10280_storage"
      },
      "t_mapping(t_address,t_uint256)": {
        "encoding": "mapping",
        "key": "t_address",
        "label": "mapping(address => uint256)",
        "numberOfBytes": "32",
        "value": "t_uint256"
      },
      "t_mapping(t_bytes32,t_struct(AddressSet)2282_storage)": {
        "encoding": "mapping",
        "key": "t_bytes32",
        "label": "mapping(bytes32 => struct EnumerableSetUpgradeable.AddressSet)",
        "numberOfBytes": "32",
        "value": "t_struct(AddressSet)2282_storage"
      },
      "t_mapping(t_bytes32,t_struct(RoleData)268_storage)": {
        "encoding": "mapping",
        "key": "t_bytes32",
        "label": "mapping(bytes32 => struct AccessControlUpgradeable.RoleData)",
        "numberOfBytes": "32",
        "value": "t_struct(RoleData)268_storage"
      },
      "t_mapping(t_bytes32,t_uint256)": {
        "encoding": "mapping",
        "key": "t_bytes32",
        "label": "mapping(bytes32 => uint256)",
        "numberOfBytes": "32",
        "value": "t_uint256"
      },
      "t_mapping(t_uint256,t_address)": {
        "encoding": "mapping",
        "key": "t_uint256",
        "label": "mapping(uint256 => address)",
        "numberOfBytes": "32",
        "value": "t_address"
      },
      "t_mapping(t_uint256,t_struct(RoyaltyInfo)1237_storage)": {
        "encoding": "mapping",
        "key": "t_uint256",
        "label": "mapping(uint256 => struct ERC2981Upgradeable.RoyaltyInfo)",
        "numberOfBytes": "32",
        "value": "t_struct(RoyaltyInfo)1237_storage"
      },
      "t_mapping(t_uint256,t_struct(TokenOwnership)10271_storage)": {
        "encoding": "mapping",
        "key": "t_uint256",
        "label": "mapping(uint256 => struct ERC721AUpgradeable.TokenOwnership)",
        "numberOfBytes": "32",
        "value": "t_struct(TokenOwnership)10271_storage"
      },
      "t_string_storage": {
        "encoding": "bytes",
        "label": "string",
        "numberOfBytes": "32"
      },
      "t_struct(AddressData)10280_storage": {
        "encoding": "inplace",
        "label": "struct ERC721AUpgradeable.AddressData",
        "members": [
          {
            "astId": 10273,
            "contract": "contracts/Launchpeg.sol:Launchpeg",
            "label": "balance",
            "offset": 0,
            "slot": "0",
            "type": "t_uint64"
          },
          {
            "astId": 10275,
            "contract": "contracts/Launchpeg.sol:Launchpeg",
            "label": "numberMinted",
            "offset": 8,
            "slot": "0",
            "type": "t_uint64"
          },
          {
            "astId": 10277,
            "contract": "contracts/Launchpeg.sol:Launchpeg",
            "label": "numberBurned",
            "offset": 16,
            "slot": "0",
            "type": "t_uint64"
          },
          {
            "astId": 10279,
            "contract": "contracts/Launchpeg.sol:Launchpeg",
            "label": "aux",
            "offset": 24,
            "slot": "0",
            "type": "t_uint64"
          }
        ],
        "numberOfBytes": "32"
      },
      "t_struct(AddressSet)2282_storage": {
        "encoding": "inplace",
        "label": "struct EnumerableSetUpgradeable.AddressSet",
        "members": [
          {
            "astId": 2281,
            "contract": "contracts/Launchpeg.sol:Launchpeg",
            "label": "_inner",
            "offset": 0,
            "slot": "0",
            "type": "t_struct(Set)1981_storage"
          }
        ],
        "numberOfBytes": "64"
      },
      "t_struct(RoleData)268_storage": {
        "encoding": "inplace",
        "label": "struct AccessControlUpgradeable.RoleData",
        "members": [
          {
            "astId": 265,
            "contract": "contracts/Launchpeg.sol:Launchpeg",
            "label": "members",
            "offset": 0,
            "slot": "0",
            "type": "t_mapping(t_address,t_bool)"
          },
          {
            "astId": 267,
            "contract": "contracts/Launchpeg.sol:Launchpeg",
            "label": "adminRole",
            "offset": 0,
            "slot": "1",
            "type": "t_bytes32"
          }
        ],
        "numberOfBytes": "64"
      },
      "t_struct(RoyaltyInfo)1237_storage": {
        "encoding": "inplace",
        "label": "struct ERC2981Upgradeable.RoyaltyInfo",
        "members": [
          {
            "astId": 1234,
            "contract": "contracts/Launchpeg.sol:Launchpeg",
            "label": "receiver",
            "offset": 0,
            "slot": "0",
            "type": "t_address"
          },
          {
            "astId": 1236,
            "contract": "contracts/Launchpeg.sol:Launchpeg",
            "label": "royaltyFraction",
            "offset": 20,
            "slot": "0",
            "type": "t_uint96"
          }
        ],
        "numberOfBytes": "32"
      },
      "t_struct(Set)1981_storage": {
        "encoding": "inplace",
        "label": "struct EnumerableSetUpgradeable.Set",
        "members": [
          {
            "astId": 1976,
            "contract": "contracts/Launchpeg.sol:Launchpeg",
            "label": "_values",
            "offset": 0,
            "slot": "0",
            "type": "t_array(t_bytes32)dyn_storage"
          },
          {
            "astId": 1980,
            "contract": "contracts/Launchpeg.sol:Launchpeg",
            "label": "_indexes",
            "offset": 0,
            "slot": "1",
            "type": "t_mapping(t_bytes32,t_uint256)"
          }
        ],
        "numberOfBytes": "64"
      },
      "t_struct(TokenOwnership)10271_storage": {
        "encoding": "inplace",
        "label": "struct ERC721AUpgradeable.TokenOwnership",
        "members": [
          {
            "astId": 10266,
            "contract": "contracts/Launchpeg.sol:Launchpeg",
            "label": "addr",
            "offset": 0,
            "slot": "0",
            "type": "t_address"
          },
          {
            "astId": 10268,
            "contract": "contracts/Launchpeg.sol:Launchpeg",
            "label": "startTimestamp",
            "offset": 20,
            "slot": "0",
            "type": "t_uint64"
          },
          {
            "astId": 10270,
            "contract": "contracts/Launchpeg.sol:Launchpeg",
            "label": "burned",
            "offset": 28,
            "slot": "0",
            "type": "t_bool"
          }
        ],
        "numberOfBytes": "32"
      },
      "t_uint256": {
        "encoding": "inplace",
        "label": "uint256",
        "numberOfBytes": "32"
      },
      "t_uint64": {
        "encoding": "inplace",
        "label": "uint64",
        "numberOfBytes": "8"
      },
      "t_uint96": {
        "encoding": "inplace",
        "label": "uint96",
        "numberOfBytes": "12"
      }
    }
  }
}