{
  "address": "0x4653bf053D6a2F9dA671d91d2A2E3b3C08A15705",
  "abi": [
    {
      "inputs": [],
      "name": "ApprovalCallerNotOwnerNorApproved",
      "type": "error"
    },
    {
      "inputs": [],
      "name": "ApprovalQueryForNonexistentToken",
      "type": "error"
    },
    {
      "inputs": [],
      "name": "ApprovalToCurrentOwner",
      "type": "error"
    },
    {
      "inputs": [],
      "name": "ApproveToCaller",
      "type": "error"
    },
    {
      "inputs": [],
      "name": "BalanceQueryForZeroAddress",
      "type": "error"
    },
    {
      "inputs": [],
      "name": "Launchpeg__AllowlistBeforePreMint",
      "type": "error"
    },
    {
      "inputs": [],
      "name": "Launchpeg__BatchRevealDisabled",
      "type": "error"
    },
    {
      "inputs": [],
      "name": "Launchpeg__CanNotMintThisMany",
      "type": "error"
    },
    {
      "inputs": [],
      "name": "Launchpeg__EndPriceGreaterThanStartPrice",
      "type": "error"
    },
    {
      "inputs": [],
      "name": "Launchpeg__InvalidAuctionDropInterval",
      "type": "error"
    },
    {
      "inputs": [],
      "name": "Launchpeg__InvalidJoeFeeCollector",
      "type": "error"
    },
    {
      "inputs": [],
      "name": "Launchpeg__InvalidMaxBatchSize",
      "type": "error"
    },
    {
      "inputs": [],
      "name": "Launchpeg__InvalidPercent",
      "type": "error"
    },
    {
      "inputs": [],
      "name": "Launchpeg__InvalidProjectOwner",
      "type": "error"
    },
    {
      "inputs": [],
      "name": "Launchpeg__InvalidQuantity",
      "type": "error"
    },
    {
      "inputs": [],
      "name": "Launchpeg__InvalidRoyaltyInfo",
      "type": "error"
    },
    {
      "inputs": [],
      "name": "Launchpeg__InvalidStartTime",
      "type": "error"
    },
    {
      "inputs": [],
      "name": "Launchpeg__JoeFeeAlreadyInitialized",
      "type": "error"
    },
    {
      "inputs": [],
      "name": "Launchpeg__LargerCollectionSizeNeeded",
      "type": "error"
    },
    {
      "inputs": [],
      "name": "Launchpeg__MaxSupplyForBatchMintReached",
      "type": "error"
    },
    {
      "inputs": [],
      "name": "Launchpeg__MaxSupplyForDevReached",
      "type": "error"
    },
    {
      "inputs": [],
      "name": "Launchpeg__MaxSupplyReached",
      "type": "error"
    },
    {
      "inputs": [],
      "name": "Launchpeg__NotEligibleForAllowlistMint",
      "type": "error"
    },
    {
      "inputs": [
        {
          "internalType": "uint256",
          "name": "avaxSent",
          "type": "uint256"
        }
      ],
      "name": "Launchpeg__NotEnoughAVAX",
      "type": "error"
    },
    {
      "inputs": [],
      "name": "Launchpeg__NotInitialized",
      "type": "error"
    },
    {
      "inputs": [],
      "name": "Launchpeg__PreMintBeforeAuction",
      "type": "error"
    },
    {
      "inputs": [],
      "name": "Launchpeg__PublicSaleBeforeAllowlist",
      "type": "error"
    },
    {
      "inputs": [],
      "name": "Launchpeg__PublicSaleEndBeforePublicSaleStart",
      "type": "error"
    },
    {
      "inputs": [],
      "name": "Launchpeg__RevealNextBatchNotAvailable",
      "type": "error"
    },
    {
      "inputs": [],
      "name": "Launchpeg__TransferFailed",
      "type": "error"
    },
    {
      "inputs": [],
      "name": "Launchpeg__Unauthorized",
      "type": "error"
    },
    {
      "inputs": [],
      "name": "Launchpeg__WithdrawAVAXNotAvailable",
      "type": "error"
    },
    {
      "inputs": [],
      "name": "Launchpeg__WrongAddressesAndNumSlotsLength",
      "type": "error"
    },
    {
      "inputs": [],
      "name": "Launchpeg__WrongPhase",
      "type": "error"
    },
    {
      "inputs": [],
      "name": "MintToZeroAddress",
      "type": "error"
    },
    {
      "inputs": [],
      "name": "MintZeroQuantity",
      "type": "error"
    },
    {
      "inputs": [],
      "name": "OwnerQueryForNonexistentToken",
      "type": "error"
    },
    {
      "inputs": [],
      "name": "PendingOwnableUpgradeable__AddressZero",
      "type": "error"
    },
    {
      "inputs": [],
      "name": "PendingOwnableUpgradeable__NoPendingOwner",
      "type": "error"
    },
    {
      "inputs": [],
      "name": "PendingOwnableUpgradeable__NotOwner",
      "type": "error"
    },
    {
      "inputs": [],
      "name": "PendingOwnableUpgradeable__NotPendingOwner",
      "type": "error"
    },
    {
      "inputs": [],
      "name": "PendingOwnableUpgradeable__PendingOwnerAlreadySet",
      "type": "error"
    },
    {
      "inputs": [],
      "name": "SafeAccessControlEnumerableUpgradeable__RoleIsDefaultAdmin",
      "type": "error"
    },
    {
      "inputs": [
        {
          "internalType": "bytes32",
          "name": "role",
          "type": "bytes32"
        },
        {
          "internalType": "address",
          "name": "sender",
          "type": "address"
        }
      ],
      "name": "SafeAccessControlEnumerableUpgradeable__SenderMissingRoleAndIsNotOwner",
      "type": "error"
    },
    {
      "inputs": [],
      "name": "SafePausableUpgradeable__AlreadyPaused",
      "type": "error"
    },
    {
      "inputs": [],
      "name": "SafePausableUpgradeable__AlreadyUnpaused",
      "type": "error"
    },
    {
      "inputs": [],
      "name": "TransferCallerNotOwnerNorApproved",
      "type": "error"
    },
    {
      "inputs": [],
      "name": "TransferFromIncorrectOwner",
      "type": "error"
    },
    {
      "inputs": [],
      "name": "TransferToNonERC721ReceiverImplementer",
      "type": "error"
    },
    {
      "inputs": [],
      "name": "TransferToZeroAddress",
      "type": "error"
    },
    {
      "anonymous": false,
      "inputs": [],
      "name": "AllowlistSeeded",
      "type": "event"
    },
    {
      "anonymous": false,
      "inputs": [
        {
          "indexed": false,
          "internalType": "uint256",
          "name": "allowlistStartTime",
          "type": "uint256"
        }
      ],
      "name": "AllowlistStartTimeSet",
      "type": "event"
    },
    {
      "anonymous": false,
      "inputs": [
        {
          "indexed": true,
          "internalType": "address",
          "name": "owner",
          "type": "address"
        },
        {
          "indexed": true,
          "internalType": "address",
          "name": "approved",
          "type": "address"
        },
        {
          "indexed": true,
          "internalType": "uint256",
          "name": "tokenId",
          "type": "uint256"
        }
      ],
      "name": "Approval",
      "type": "event"
    },
    {
      "anonymous": false,
      "inputs": [
        {
          "indexed": true,
          "internalType": "address",
          "name": "owner",
          "type": "address"
        },
        {
          "indexed": true,
          "internalType": "address",
          "name": "operator",
          "type": "address"
        },
        {
          "indexed": false,
          "internalType": "bool",
          "name": "approved",
          "type": "bool"
        }
      ],
      "name": "ApprovalForAll",
      "type": "event"
    },
    {
      "anonymous": false,
      "inputs": [
        {
          "indexed": false,
          "internalType": "uint256",
          "name": "auctionSaleStartTime",
          "type": "uint256"
        }
      ],
      "name": "AuctionSaleStartTimeSet",
      "type": "event"
    },
    {
      "anonymous": false,
      "inputs": [
        {
          "indexed": true,
          "internalType": "address",
          "name": "sender",
          "type": "address"
        },
        {
          "indexed": false,
          "internalType": "uint256",
          "name": "amount",
          "type": "uint256"
        },
        {
          "indexed": false,
          "internalType": "uint256",
          "name": "fee",
          "type": "uint256"
        }
      ],
      "name": "AvaxWithdraw",
      "type": "event"
    },
    {
      "anonymous": false,
      "inputs": [
        {
          "indexed": false,
          "internalType": "string",
          "name": "baseURI",
          "type": "string"
        }
      ],
      "name": "BaseURISet",
      "type": "event"
    },
    {
      "anonymous": false,
      "inputs": [
        {
          "indexed": true,
          "internalType": "address",
          "name": "receiver",
          "type": "address"
        },
        {
          "indexed": false,
          "internalType": "uint256",
          "name": "feePercent",
          "type": "uint256"
        }
      ],
      "name": "DefaultRoyaltySet",
      "type": "event"
    },
    {
      "anonymous": false,
      "inputs": [
        {
          "indexed": true,
          "internalType": "address",
          "name": "sender",
          "type": "address"
        },
        {
          "indexed": false,
          "internalType": "uint256",
          "name": "quantity",
          "type": "uint256"
        }
      ],
      "name": "DevMint",
      "type": "event"
    },
    {
      "anonymous": false,
      "inputs": [
        {
          "indexed": false,
          "internalType": "uint256",
          "name": "auctionSaleStartTime",
          "type": "uint256"
        },
        {
          "indexed": false,
          "internalType": "uint256",
          "name": "auctionStartPrice",
          "type": "uint256"
        },
        {
          "indexed": false,
          "internalType": "uint256",
          "name": "auctionEndPrice",
          "type": "uint256"
        },
        {
          "indexed": false,
          "internalType": "uint256",
          "name": "auctionDropInterval",
          "type": "uint256"
        },
        {
          "indexed": false,
          "internalType": "uint256",
          "name": "preMintStartTime",
          "type": "uint256"
        },
        {
          "indexed": false,
          "internalType": "uint256",
          "name": "allowlistStartTime",
          "type": "uint256"
        },
        {
          "indexed": false,
          "internalType": "uint256",
          "name": "allowlistDiscountPercent",
          "type": "uint256"
        },
        {
          "indexed": false,
          "internalType": "uint256",
          "name": "publicSaleStartTime",
          "type": "uint256"
        },
        {
          "indexed": false,
          "internalType": "uint256",
          "name": "publicSaleEndTime",
          "type": "uint256"
        },
        {
          "indexed": false,
          "internalType": "uint256",
          "name": "publicSaleDiscountPercent",
          "type": "uint256"
        }
      ],
      "name": "Initialized",
      "type": "event"
    },
    {
      "anonymous": false,
      "inputs": [
        {
          "indexed": false,
          "internalType": "uint256",
          "name": "feePercent",
          "type": "uint256"
        },
        {
          "indexed": false,
          "internalType": "address",
          "name": "feeCollector",
          "type": "address"
        }
      ],
      "name": "JoeFeeInitialized",
      "type": "event"
    },
    {
      "anonymous": false,
      "inputs": [
        {
          "indexed": true,
          "internalType": "address",
          "name": "sender",
          "type": "address"
        },
        {
          "indexed": false,
          "internalType": "uint256",
          "name": "quantity",
          "type": "uint256"
        },
        {
          "indexed": false,
          "internalType": "uint256",
          "name": "price",
          "type": "uint256"
        },
        {
          "indexed": false,
          "internalType": "uint256",
          "name": "startTokenId",
          "type": "uint256"
        },
        {
          "indexed": false,
          "internalType": "enum IBaseLaunchpeg.Phase",
          "name": "phase",
          "type": "uint8"
        }
      ],
      "name": "Mint",
      "type": "event"
    },
    {
      "anonymous": false,
      "inputs": [
        {
          "indexed": true,
          "internalType": "address",
          "name": "previousOwner",
          "type": "address"
        },
        {
          "indexed": true,
          "internalType": "address",
          "name": "newOwner",
          "type": "address"
        }
      ],
      "name": "OwnershipTransferred",
      "type": "event"
    },
    {
      "anonymous": false,
      "inputs": [
        {
          "indexed": false,
          "internalType": "address",
          "name": "account",
          "type": "address"
        }
      ],
      "name": "Paused",
      "type": "event"
    },
    {
      "anonymous": false,
      "inputs": [
        {
          "indexed": true,
          "internalType": "address",
          "name": "pendingOwner",
          "type": "address"
        }
      ],
      "name": "PendingOwnerSet",
      "type": "event"
    },
    {
      "anonymous": false,
      "inputs": [
        {
          "indexed": true,
          "internalType": "address",
          "name": "sender",
          "type": "address"
        },
        {
          "indexed": false,
          "internalType": "uint256",
          "name": "quantity",
          "type": "uint256"
        },
        {
          "indexed": false,
          "internalType": "uint256",
          "name": "price",
          "type": "uint256"
        }
      ],
      "name": "PreMint",
      "type": "event"
    },
    {
      "anonymous": false,
      "inputs": [
        {
          "indexed": false,
          "internalType": "uint256",
          "name": "preMintStartTime",
          "type": "uint256"
        }
      ],
      "name": "PreMintStartTimeSet",
      "type": "event"
    },
    {
      "anonymous": false,
      "inputs": [
        {
          "indexed": false,
          "internalType": "uint256",
          "name": "publicSaleEndTime",
          "type": "uint256"
        }
      ],
      "name": "PublicSaleEndTimeSet",
      "type": "event"
    },
    {
      "anonymous": false,
      "inputs": [
        {
          "indexed": false,
          "internalType": "uint256",
          "name": "publicSaleStartTime",
          "type": "uint256"
        }
      ],
      "name": "PublicSaleStartTimeSet",
      "type": "event"
    },
    {
      "anonymous": false,
      "inputs": [
        {
          "indexed": true,
          "internalType": "bytes32",
          "name": "role",
          "type": "bytes32"
        },
        {
          "indexed": true,
          "internalType": "bytes32",
          "name": "previousAdminRole",
          "type": "bytes32"
        },
        {
          "indexed": true,
          "internalType": "bytes32",
          "name": "newAdminRole",
          "type": "bytes32"
        }
      ],
      "name": "RoleAdminChanged",
      "type": "event"
    },
    {
      "anonymous": false,
      "inputs": [
        {
          "indexed": true,
          "internalType": "bytes32",
          "name": "role",
          "type": "bytes32"
        },
        {
          "indexed": true,
          "internalType": "address",
          "name": "account",
          "type": "address"
        },
        {
          "indexed": true,
          "internalType": "address",
          "name": "sender",
          "type": "address"
        }
      ],
      "name": "RoleGranted",
      "type": "event"
    },
    {
      "anonymous": false,
      "inputs": [
        {
          "indexed": true,
          "internalType": "bytes32",
          "name": "role",
          "type": "bytes32"
        },
        {
          "indexed": true,
          "internalType": "address",
          "name": "account",
          "type": "address"
        },
        {
          "indexed": true,
          "internalType": "address",
          "name": "sender",
          "type": "address"
        }
      ],
      "name": "RoleRevoked",
      "type": "event"
    },
    {
      "anonymous": false,
      "inputs": [
        {
          "indexed": true,
          "internalType": "address",
          "name": "from",
          "type": "address"
        },
        {
          "indexed": true,
          "internalType": "address",
          "name": "to",
          "type": "address"
        },
        {
          "indexed": true,
          "internalType": "uint256",
          "name": "tokenId",
          "type": "uint256"
        }
      ],
      "name": "Transfer",
      "type": "event"
    },
    {
      "anonymous": false,
      "inputs": [
        {
          "indexed": false,
          "internalType": "address",
          "name": "account",
          "type": "address"
        }
      ],
      "name": "Unpaused",
      "type": "event"
    },
    {
      "anonymous": false,
      "inputs": [
        {
          "indexed": false,
          "internalType": "string",
          "name": "unrevealedURI",
          "type": "string"
        }
      ],
      "name": "UnrevealedURISet",
      "type": "event"
    },
    {
      "anonymous": false,
      "inputs": [
        {
          "indexed": false,
          "internalType": "uint256",
          "name": "withdrawAVAXStartTime",
          "type": "uint256"
        }
      ],
      "name": "WithdrawAVAXStartTimeSet",
      "type": "event"
    },
    {
      "inputs": [],
      "name": "BASIS_POINT_PRECISION",
      "outputs": [
        {
          "internalType": "uint256",
          "name": "",
          "type": "uint256"
        }
      ],
      "stateMutability": "view",
      "type": "function"
    },
    {
      "inputs": [],
      "name": "DEFAULT_ADMIN_ROLE",
      "outputs": [
        {
          "internalType": "bytes32",
          "name": "",
          "type": "bytes32"
        }
      ],
      "stateMutability": "view",
      "type": "function"
    },
    {
      "inputs": [],
      "name": "PAUSER_ADMIN_ROLE",
      "outputs": [
        {
          "internalType": "bytes32",
          "name": "",
          "type": "bytes32"
        }
      ],
      "stateMutability": "view",
      "type": "function"
    },
    {
      "inputs": [],
      "name": "PAUSER_ROLE",
      "outputs": [
        {
          "internalType": "bytes32",
          "name": "",
          "type": "bytes32"
        }
      ],
      "stateMutability": "view",
      "type": "function"
    },
    {
      "inputs": [],
      "name": "PROJECT_OWNER_ROLE",
      "outputs": [
        {
          "internalType": "bytes32",
          "name": "",
          "type": "bytes32"
        }
      ],
      "stateMutability": "view",
      "type": "function"
    },
    {
      "inputs": [],
      "name": "UNPAUSER_ADMIN_ROLE",
      "outputs": [
        {
          "internalType": "bytes32",
          "name": "",
          "type": "bytes32"
        }
      ],
      "stateMutability": "view",
      "type": "function"
    },
    {
      "inputs": [],
      "name": "UNPAUSER_ROLE",
      "outputs": [
        {
          "internalType": "bytes32",
          "name": "",
          "type": "bytes32"
        }
      ],
      "stateMutability": "view",
      "type": "function"
    },
    {
      "inputs": [
        {
          "internalType": "address",
          "name": "",
          "type": "address"
        }
      ],
      "name": "allowlist",
      "outputs": [
        {
          "internalType": "uint256",
          "name": "",
          "type": "uint256"
        }
      ],
      "stateMutability": "view",
      "type": "function"
    },
    {
      "inputs": [],
      "name": "allowlistDiscountPercent",
      "outputs": [
        {
          "internalType": "uint256",
          "name": "",
          "type": "uint256"
        }
      ],
      "stateMutability": "view",
      "type": "function"
    },
    {
      "inputs": [
        {
          "internalType": "uint256",
          "name": "_quantity",
          "type": "uint256"
        }
      ],
      "name": "allowlistMint",
      "outputs": [],
      "stateMutability": "payable",
      "type": "function"
    },
    {
      "inputs": [],
      "name": "allowlistPrice",
      "outputs": [
        {
          "internalType": "uint256",
          "name": "",
          "type": "uint256"
        }
      ],
      "stateMutability": "view",
      "type": "function"
    },
    {
      "inputs": [],
      "name": "allowlistStartTime",
      "outputs": [
        {
          "internalType": "uint256",
          "name": "",
          "type": "uint256"
        }
      ],
      "stateMutability": "view",
      "type": "function"
    },
    {
      "inputs": [],
      "name": "amountBatchMinted",
      "outputs": [
        {
          "internalType": "uint256",
          "name": "",
          "type": "uint256"
        }
      ],
      "stateMutability": "view",
      "type": "function"
    },
    {
      "inputs": [],
      "name": "amountForAllowlist",
      "outputs": [
        {
          "internalType": "uint256",
          "name": "",
          "type": "uint256"
        }
      ],
      "stateMutability": "view",
      "type": "function"
    },
    {
      "inputs": [],
      "name": "amountForAuction",
      "outputs": [
        {
          "internalType": "uint256",
          "name": "",
          "type": "uint256"
        }
      ],
      "stateMutability": "view",
      "type": "function"
    },
    {
      "inputs": [],
      "name": "amountForDevs",
      "outputs": [
        {
          "internalType": "uint256",
          "name": "",
          "type": "uint256"
        }
      ],
      "stateMutability": "view",
      "type": "function"
    },
    {
      "inputs": [],
      "name": "amountMintedByDevs",
      "outputs": [
        {
          "internalType": "uint256",
          "name": "",
          "type": "uint256"
        }
      ],
      "stateMutability": "view",
      "type": "function"
    },
    {
      "inputs": [],
      "name": "amountMintedDuringAllowlist",
      "outputs": [
        {
          "internalType": "uint256",
          "name": "",
          "type": "uint256"
        }
      ],
      "stateMutability": "view",
      "type": "function"
    },
    {
      "inputs": [],
      "name": "amountMintedDuringAuction",
      "outputs": [
        {
          "internalType": "uint256",
          "name": "",
          "type": "uint256"
        }
      ],
      "stateMutability": "view",
      "type": "function"
    },
    {
      "inputs": [],
      "name": "amountMintedDuringPreMint",
      "outputs": [
        {
          "internalType": "uint256",
          "name": "",
          "type": "uint256"
        }
      ],
      "stateMutability": "view",
      "type": "function"
    },
    {
      "inputs": [],
      "name": "amountMintedDuringPublicSale",
      "outputs": [
        {
          "internalType": "uint256",
          "name": "",
          "type": "uint256"
        }
      ],
      "stateMutability": "view",
      "type": "function"
    },
    {
      "inputs": [
        {
          "internalType": "address",
          "name": "to",
          "type": "address"
        },
        {
          "internalType": "uint256",
          "name": "tokenId",
          "type": "uint256"
        }
      ],
      "name": "approve",
      "outputs": [],
      "stateMutability": "nonpayable",
      "type": "function"
    },
    {
      "inputs": [],
      "name": "auctionDropInterval",
      "outputs": [
        {
          "internalType": "uint256",
          "name": "",
          "type": "uint256"
        }
      ],
      "stateMutability": "view",
      "type": "function"
    },
    {
      "inputs": [],
      "name": "auctionDropPerStep",
      "outputs": [
        {
          "internalType": "uint256",
          "name": "",
          "type": "uint256"
        }
      ],
      "stateMutability": "view",
      "type": "function"
    },
    {
      "inputs": [],
      "name": "auctionEndPrice",
      "outputs": [
        {
          "internalType": "uint256",
          "name": "",
          "type": "uint256"
        }
      ],
      "stateMutability": "view",
      "type": "function"
    },
    {
      "inputs": [
        {
          "internalType": "uint256",
          "name": "_quantity",
          "type": "uint256"
        }
      ],
      "name": "auctionMint",
      "outputs": [],
      "stateMutability": "payable",
      "type": "function"
    },
    {
      "inputs": [],
      "name": "auctionSaleDuration",
      "outputs": [
        {
          "internalType": "uint256",
          "name": "",
          "type": "uint256"
        }
      ],
      "stateMutability": "view",
      "type": "function"
    },
    {
      "inputs": [],
      "name": "auctionSaleStartTime",
      "outputs": [
        {
          "internalType": "uint256",
          "name": "",
          "type": "uint256"
        }
      ],
      "stateMutability": "view",
      "type": "function"
    },
    {
      "inputs": [],
      "name": "auctionStartPrice",
      "outputs": [
        {
          "internalType": "uint256",
          "name": "",
          "type": "uint256"
        }
      ],
      "stateMutability": "view",
      "type": "function"
    },
    {
      "inputs": [
        {
          "internalType": "address",
          "name": "owner",
          "type": "address"
        }
      ],
      "name": "balanceOf",
      "outputs": [
        {
          "internalType": "uint256",
          "name": "",
          "type": "uint256"
        }
      ],
      "stateMutability": "view",
      "type": "function"
    },
    {
      "inputs": [],
      "name": "baseURI",
      "outputs": [
        {
          "internalType": "string",
          "name": "",
          "type": "string"
        }
      ],
      "stateMutability": "view",
      "type": "function"
    },
    {
      "inputs": [
        {
          "internalType": "uint256",
          "name": "_maxQuantity",
          "type": "uint256"
        }
      ],
      "name": "batchMintPreMintedNFTs",
      "outputs": [],
      "stateMutability": "nonpayable",
      "type": "function"
    },
    {
      "inputs": [],
      "name": "batchReveal",
      "outputs": [
        {
          "internalType": "contract IBatchReveal",
          "name": "",
          "type": "address"
        }
      ],
      "stateMutability": "view",
      "type": "function"
    },
    {
      "inputs": [],
      "name": "becomeOwner",
      "outputs": [],
      "stateMutability": "nonpayable",
      "type": "function"
    },
    {
      "inputs": [],
      "name": "collectionSize",
      "outputs": [
        {
          "internalType": "uint256",
          "name": "",
          "type": "uint256"
        }
      ],
      "stateMutability": "view",
      "type": "function"
    },
    {
      "inputs": [],
      "name": "currentPhase",
      "outputs": [
        {
          "internalType": "enum IBaseLaunchpeg.Phase",
          "name": "",
          "type": "uint8"
        }
      ],
      "stateMutability": "view",
      "type": "function"
    },
    {
      "inputs": [
        {
          "internalType": "uint256",
          "name": "_quantity",
          "type": "uint256"
        }
      ],
      "name": "devMint",
      "outputs": [],
      "stateMutability": "nonpayable",
      "type": "function"
    },
    {
      "inputs": [
        {
          "internalType": "uint256",
          "name": "tokenId",
          "type": "uint256"
        }
      ],
      "name": "getApproved",
      "outputs": [
        {
          "internalType": "address",
          "name": "",
          "type": "address"
        }
      ],
      "stateMutability": "view",
      "type": "function"
    },
    {
      "inputs": [
        {
          "internalType": "uint256",
          "name": "_saleStartTime",
          "type": "uint256"
        }
      ],
      "name": "getAuctionPrice",
      "outputs": [
        {
          "internalType": "uint256",
          "name": "",
          "type": "uint256"
        }
      ],
      "stateMutability": "view",
      "type": "function"
    },
    {
      "inputs": [
        {
          "internalType": "uint256",
          "name": "_tokenId",
          "type": "uint256"
        }
      ],
      "name": "getOwnershipData",
      "outputs": [
        {
          "components": [
            {
              "internalType": "address",
              "name": "addr",
              "type": "address"
            },
            {
              "internalType": "uint64",
              "name": "startTimestamp",
              "type": "uint64"
            },
            {
              "internalType": "bool",
              "name": "burned",
              "type": "bool"
            }
          ],
          "internalType": "struct ERC721AUpgradeable.TokenOwnership",
          "name": "",
          "type": "tuple"
        }
      ],
      "stateMutability": "view",
      "type": "function"
    },
    {
      "inputs": [
        {
          "internalType": "bytes32",
          "name": "role",
          "type": "bytes32"
        }
      ],
      "name": "getRoleAdmin",
      "outputs": [
        {
          "internalType": "bytes32",
          "name": "",
          "type": "bytes32"
        }
      ],
      "stateMutability": "view",
      "type": "function"
    },
    {
      "inputs": [
        {
          "internalType": "bytes32",
          "name": "role",
          "type": "bytes32"
        },
        {
          "internalType": "uint256",
          "name": "index",
          "type": "uint256"
        }
      ],
      "name": "getRoleMember",
      "outputs": [
        {
          "internalType": "address",
          "name": "",
          "type": "address"
        }
      ],
      "stateMutability": "view",
      "type": "function"
    },
    {
      "inputs": [
        {
          "internalType": "bytes32",
          "name": "role",
          "type": "bytes32"
        }
      ],
      "name": "getRoleMemberCount",
      "outputs": [
        {
          "internalType": "uint256",
          "name": "",
          "type": "uint256"
        }
      ],
      "stateMutability": "view",
      "type": "function"
    },
    {
      "inputs": [
        {
          "internalType": "bytes32",
          "name": "role",
          "type": "bytes32"
        },
        {
          "internalType": "address",
          "name": "account",
          "type": "address"
        }
      ],
      "name": "grantRole",
      "outputs": [],
      "stateMutability": "nonpayable",
      "type": "function"
    },
    {
      "inputs": [],
      "name": "hasBatchToReveal",
      "outputs": [
        {
          "internalType": "bool",
          "name": "",
          "type": "bool"
        },
        {
          "internalType": "uint256",
          "name": "",
          "type": "uint256"
        }
      ],
      "stateMutability": "view",
      "type": "function"
    },
    {
      "inputs": [
        {
          "internalType": "bytes32",
          "name": "role",
          "type": "bytes32"
        },
        {
          "internalType": "address",
          "name": "account",
          "type": "address"
        }
      ],
      "name": "hasRole",
      "outputs": [
        {
          "internalType": "bool",
          "name": "",
          "type": "bool"
        }
      ],
      "stateMutability": "view",
      "type": "function"
    },
    {
      "inputs": [
        {
          "internalType": "string",
          "name": "_name",
          "type": "string"
        },
        {
          "internalType": "string",
          "name": "_symbol",
          "type": "string"
        },
        {
          "internalType": "address",
          "name": "_projectOwner",
          "type": "address"
        },
        {
          "internalType": "address",
          "name": "_royaltyReceiver",
          "type": "address"
        },
        {
          "internalType": "uint256",
          "name": "_maxBatchSize",
          "type": "uint256"
        },
        {
          "internalType": "uint256",
          "name": "_collectionSize",
          "type": "uint256"
        },
        {
          "internalType": "uint256",
          "name": "_amountForAuction",
          "type": "uint256"
        },
        {
          "internalType": "uint256",
          "name": "_amountForAllowlist",
          "type": "uint256"
        },
        {
          "internalType": "uint256",
          "name": "_amountForDevs",
          "type": "uint256"
        }
      ],
      "name": "initialize",
      "outputs": [],
      "stateMutability": "nonpayable",
      "type": "function"
    },
    {
      "inputs": [
        {
          "internalType": "uint256",
          "name": "_joeFeePercent",
          "type": "uint256"
        },
        {
          "internalType": "address",
          "name": "_joeFeeCollector",
          "type": "address"
        }
      ],
      "name": "initializeJoeFee",
      "outputs": [],
      "stateMutability": "nonpayable",
      "type": "function"
    },
    {
      "inputs": [
        {
          "internalType": "uint256",
          "name": "_auctionSaleStartTime",
          "type": "uint256"
        },
        {
          "internalType": "uint256",
          "name": "_auctionStartPrice",
          "type": "uint256"
        },
        {
          "internalType": "uint256",
          "name": "_auctionEndPrice",
          "type": "uint256"
        },
        {
          "internalType": "uint256",
          "name": "_auctionDropInterval",
          "type": "uint256"
        },
        {
          "internalType": "uint256",
          "name": "_preMintStartTime",
          "type": "uint256"
        },
        {
          "internalType": "uint256",
          "name": "_allowlistStartTime",
          "type": "uint256"
        },
        {
          "internalType": "uint256",
          "name": "_allowlistDiscountPercent",
          "type": "uint256"
        },
        {
          "internalType": "uint256",
          "name": "_publicSaleStartTime",
          "type": "uint256"
        },
        {
          "internalType": "uint256",
          "name": "_publicSaleEndTime",
          "type": "uint256"
        },
        {
          "internalType": "uint256",
          "name": "_publicSaleDiscountPercent",
          "type": "uint256"
        }
      ],
      "name": "initializePhases",
      "outputs": [],
      "stateMutability": "nonpayable",
      "type": "function"
    },
    {
      "inputs": [
        {
          "internalType": "address",
          "name": "owner",
          "type": "address"
        },
        {
          "internalType": "address",
          "name": "operator",
          "type": "address"
        }
      ],
      "name": "isApprovedForAll",
      "outputs": [
        {
          "internalType": "bool",
          "name": "",
          "type": "bool"
        }
      ],
      "stateMutability": "view",
      "type": "function"
    },
    {
      "inputs": [],
      "name": "joeFeeCollector",
      "outputs": [
        {
          "internalType": "address",
          "name": "",
          "type": "address"
        }
      ],
      "stateMutability": "view",
      "type": "function"
    },
    {
      "inputs": [],
      "name": "joeFeePercent",
      "outputs": [
        {
          "internalType": "uint256",
          "name": "",
          "type": "uint256"
        }
      ],
      "stateMutability": "view",
      "type": "function"
    },
    {
      "inputs": [],
      "name": "lastAuctionPrice",
      "outputs": [
        {
          "internalType": "uint256",
          "name": "",
          "type": "uint256"
        }
      ],
      "stateMutability": "view",
      "type": "function"
    },
    {
      "inputs": [],
      "name": "maxBatchSize",
      "outputs": [
        {
          "internalType": "uint256",
          "name": "",
          "type": "uint256"
        }
      ],
      "stateMutability": "view",
      "type": "function"
    },
    {
      "inputs": [],
      "name": "maxPerAddressDuringMint",
      "outputs": [
        {
          "internalType": "uint256",
          "name": "",
          "type": "uint256"
        }
      ],
      "stateMutability": "view",
      "type": "function"
    },
    {
      "inputs": [],
      "name": "name",
      "outputs": [
        {
          "internalType": "string",
          "name": "",
          "type": "string"
        }
      ],
      "stateMutability": "view",
      "type": "function"
    },
    {
      "inputs": [
        {
          "internalType": "address",
          "name": "_owner",
          "type": "address"
        }
      ],
      "name": "numberMinted",
      "outputs": [
        {
          "internalType": "uint256",
          "name": "",
          "type": "uint256"
        }
      ],
      "stateMutability": "view",
      "type": "function"
    },
    {
      "inputs": [],
      "name": "owner",
      "outputs": [
        {
          "internalType": "address",
          "name": "",
          "type": "address"
        }
      ],
      "stateMutability": "view",
      "type": "function"
    },
    {
      "inputs": [
        {
          "internalType": "uint256",
          "name": "tokenId",
          "type": "uint256"
        }
      ],
      "name": "ownerOf",
      "outputs": [
        {
          "internalType": "address",
          "name": "",
          "type": "address"
        }
      ],
      "stateMutability": "view",
      "type": "function"
    },
    {
      "inputs": [],
      "name": "pause",
      "outputs": [],
      "stateMutability": "nonpayable",
      "type": "function"
    },
    {
      "inputs": [],
      "name": "paused",
      "outputs": [
        {
          "internalType": "bool",
          "name": "",
          "type": "bool"
        }
      ],
      "stateMutability": "view",
      "type": "function"
    },
    {
      "inputs": [],
      "name": "pendingOwner",
      "outputs": [
        {
          "internalType": "address",
          "name": "",
          "type": "address"
        }
      ],
      "stateMutability": "view",
      "type": "function"
    },
    {
      "inputs": [
        {
          "internalType": "uint256",
          "name": "_quantity",
          "type": "uint256"
        }
      ],
      "name": "preMint",
      "outputs": [],
      "stateMutability": "payable",
      "type": "function"
    },
    {
      "inputs": [],
      "name": "preMintStartTime",
      "outputs": [
        {
          "internalType": "uint256",
          "name": "",
          "type": "uint256"
        }
      ],
      "stateMutability": "view",
      "type": "function"
    },
    {
      "inputs": [],
      "name": "publicSaleDiscountPercent",
      "outputs": [
        {
          "internalType": "uint256",
          "name": "",
          "type": "uint256"
        }
      ],
      "stateMutability": "view",
      "type": "function"
    },
    {
      "inputs": [],
      "name": "publicSaleEndTime",
      "outputs": [
        {
          "internalType": "uint256",
          "name": "",
          "type": "uint256"
        }
      ],
      "stateMutability": "view",
      "type": "function"
    },
    {
      "inputs": [
        {
          "internalType": "uint256",
          "name": "_quantity",
          "type": "uint256"
        }
      ],
      "name": "publicSaleMint",
      "outputs": [],
      "stateMutability": "payable",
      "type": "function"
    },
    {
      "inputs": [],
      "name": "publicSaleStartTime",
      "outputs": [
        {
          "internalType": "uint256",
          "name": "",
          "type": "uint256"
        }
      ],
      "stateMutability": "view",
      "type": "function"
    },
    {
      "inputs": [],
      "name": "renounceOwnership",
      "outputs": [],
      "stateMutability": "nonpayable",
      "type": "function"
    },
    {
      "inputs": [
        {
          "internalType": "bytes32",
          "name": "role",
          "type": "bytes32"
        },
        {
          "internalType": "address",
          "name": "account",
          "type": "address"
        }
      ],
      "name": "renounceRole",
      "outputs": [],
      "stateMutability": "nonpayable",
      "type": "function"
    },
    {
      "inputs": [],
      "name": "revealNextBatch",
      "outputs": [],
      "stateMutability": "nonpayable",
      "type": "function"
    },
    {
      "inputs": [],
      "name": "revokePendingOwner",
      "outputs": [],
      "stateMutability": "nonpayable",
      "type": "function"
    },
    {
      "inputs": [
        {
          "internalType": "bytes32",
          "name": "role",
          "type": "bytes32"
        },
        {
          "internalType": "address",
          "name": "account",
          "type": "address"
        }
      ],
      "name": "revokeRole",
      "outputs": [],
      "stateMutability": "nonpayable",
      "type": "function"
    },
    {
      "inputs": [
        {
          "internalType": "uint256",
          "name": "_tokenId",
          "type": "uint256"
        },
        {
          "internalType": "uint256",
          "name": "_salePrice",
          "type": "uint256"
        }
      ],
      "name": "royaltyInfo",
      "outputs": [
        {
          "internalType": "address",
          "name": "",
          "type": "address"
        },
        {
          "internalType": "uint256",
          "name": "",
          "type": "uint256"
        }
      ],
      "stateMutability": "view",
      "type": "function"
    },
    {
      "inputs": [
        {
          "internalType": "address",
          "name": "from",
          "type": "address"
        },
        {
          "internalType": "address",
          "name": "to",
          "type": "address"
        },
        {
          "internalType": "uint256",
          "name": "tokenId",
          "type": "uint256"
        }
      ],
      "name": "safeTransferFrom",
      "outputs": [],
      "stateMutability": "nonpayable",
      "type": "function"
    },
    {
      "inputs": [
        {
          "internalType": "address",
          "name": "from",
          "type": "address"
        },
        {
          "internalType": "address",
          "name": "to",
          "type": "address"
        },
        {
          "internalType": "uint256",
          "name": "tokenId",
          "type": "uint256"
        },
        {
          "internalType": "bytes",
          "name": "_data",
          "type": "bytes"
        }
      ],
      "name": "safeTransferFrom",
      "outputs": [],
      "stateMutability": "nonpayable",
      "type": "function"
    },
    {
      "inputs": [],
      "name": "salePrice",
      "outputs": [
        {
          "internalType": "uint256",
          "name": "",
          "type": "uint256"
        }
      ],
      "stateMutability": "view",
      "type": "function"
    },
    {
      "inputs": [
        {
          "internalType": "address[]",
          "name": "_addresses",
          "type": "address[]"
        },
        {
          "internalType": "uint256[]",
          "name": "_numNfts",
          "type": "uint256[]"
        }
      ],
      "name": "seedAllowlist",
      "outputs": [],
      "stateMutability": "nonpayable",
      "type": "function"
    },
    {
      "inputs": [
        {
          "internalType": "uint256",
          "name": "_allowlistStartTime",
          "type": "uint256"
        }
      ],
      "name": "setAllowlistStartTime",
      "outputs": [],
      "stateMutability": "nonpayable",
      "type": "function"
    },
    {
      "inputs": [
        {
          "internalType": "address",
          "name": "operator",
          "type": "address"
        },
        {
          "internalType": "bool",
          "name": "approved",
          "type": "bool"
        }
      ],
      "name": "setApprovalForAll",
      "outputs": [],
      "stateMutability": "nonpayable",
      "type": "function"
    },
    {
      "inputs": [
        {
          "internalType": "uint256",
          "name": "_auctionSaleStartTime",
          "type": "uint256"
        }
      ],
      "name": "setAuctionSaleStartTime",
      "outputs": [],
      "stateMutability": "nonpayable",
      "type": "function"
    },
    {
      "inputs": [
        {
          "internalType": "string",
          "name": "_baseURI",
          "type": "string"
        }
      ],
      "name": "setBaseURI",
      "outputs": [],
      "stateMutability": "nonpayable",
      "type": "function"
    },
    {
      "inputs": [
        {
          "internalType": "address",
          "name": "_batchReveal",
          "type": "address"
        }
      ],
      "name": "setBatchReveal",
      "outputs": [],
      "stateMutability": "nonpayable",
      "type": "function"
    },
    {
      "inputs": [
        {
          "internalType": "address",
          "name": "pendingOwner_",
          "type": "address"
        }
      ],
      "name": "setPendingOwner",
      "outputs": [],
      "stateMutability": "nonpayable",
      "type": "function"
    },
    {
      "inputs": [
        {
          "internalType": "uint256",
          "name": "_preMintStartTime",
          "type": "uint256"
        }
      ],
      "name": "setPreMintStartTime",
      "outputs": [],
      "stateMutability": "nonpayable",
      "type": "function"
    },
    {
      "inputs": [
        {
          "internalType": "uint256",
          "name": "_publicSaleEndTime",
          "type": "uint256"
        }
      ],
      "name": "setPublicSaleEndTime",
      "outputs": [],
      "stateMutability": "nonpayable",
      "type": "function"
    },
    {
      "inputs": [
        {
          "internalType": "uint256",
          "name": "_publicSaleStartTime",
          "type": "uint256"
        }
      ],
      "name": "setPublicSaleStartTime",
      "outputs": [],
      "stateMutability": "nonpayable",
      "type": "function"
    },
    {
      "inputs": [
        {
          "internalType": "address",
          "name": "_receiver",
          "type": "address"
        },
        {
          "internalType": "uint96",
          "name": "_feePercent",
          "type": "uint96"
        }
      ],
      "name": "setRoyaltyInfo",
      "outputs": [],
      "stateMutability": "nonpayable",
      "type": "function"
    },
    {
      "inputs": [
        {
          "internalType": "string",
          "name": "_unrevealedURI",
          "type": "string"
        }
      ],
      "name": "setUnrevealedURI",
      "outputs": [],
      "stateMutability": "nonpayable",
      "type": "function"
    },
    {
      "inputs": [
        {
          "internalType": "uint256",
          "name": "_withdrawAVAXStartTime",
          "type": "uint256"
        }
      ],
      "name": "setWithdrawAVAXStartTime",
      "outputs": [],
      "stateMutability": "nonpayable",
      "type": "function"
    },
    {
      "inputs": [
        {
          "internalType": "bytes4",
          "name": "_interfaceId",
          "type": "bytes4"
        }
      ],
      "name": "supportsInterface",
      "outputs": [
        {
          "internalType": "bool",
          "name": "",
          "type": "bool"
        }
      ],
      "stateMutability": "view",
      "type": "function"
    },
    {
      "inputs": [],
      "name": "symbol",
      "outputs": [
        {
          "internalType": "string",
          "name": "",
          "type": "string"
        }
      ],
      "stateMutability": "view",
      "type": "function"
    },
    {
      "inputs": [
        {
          "internalType": "uint256",
          "name": "_id",
          "type": "uint256"
        }
      ],
      "name": "tokenURI",
      "outputs": [
        {
          "internalType": "string",
          "name": "",
          "type": "string"
        }
      ],
      "stateMutability": "view",
      "type": "function"
    },
    {
      "inputs": [],
      "name": "totalSupply",
      "outputs": [
        {
          "internalType": "uint256",
          "name": "",
          "type": "uint256"
        }
      ],
      "stateMutability": "view",
      "type": "function"
    },
    {
      "inputs": [
        {
          "internalType": "address",
          "name": "from",
          "type": "address"
        },
        {
          "internalType": "address",
          "name": "to",
          "type": "address"
        },
        {
          "internalType": "uint256",
          "name": "tokenId",
          "type": "uint256"
        }
      ],
      "name": "transferFrom",
      "outputs": [],
      "stateMutability": "nonpayable",
      "type": "function"
    },
    {
      "inputs": [],
      "name": "unpause",
      "outputs": [],
      "stateMutability": "nonpayable",
      "type": "function"
    },
    {
      "inputs": [],
      "name": "unrevealedURI",
      "outputs": [
        {
          "internalType": "string",
          "name": "",
          "type": "string"
        }
      ],
      "stateMutability": "view",
      "type": "function"
    },
    {
      "inputs": [
        {
          "internalType": "address",
          "name": "",
          "type": "address"
        }
      ],
      "name": "userAddressToPreMintAmount",
      "outputs": [
        {
          "internalType": "uint256",
          "name": "",
          "type": "uint256"
        }
      ],
      "stateMutability": "view",
      "type": "function"
    },
    {
      "inputs": [
        {
          "internalType": "address",
          "name": "_to",
          "type": "address"
        }
      ],
      "name": "withdrawAVAX",
      "outputs": [],
      "stateMutability": "nonpayable",
      "type": "function"
    },
    {
      "inputs": [],
      "name": "withdrawAVAXStartTime",
      "outputs": [
        {
          "internalType": "uint256",
          "name": "",
          "type": "uint256"
        }
      ],
      "stateMutability": "view",
      "type": "function"
    }
  ],
  "transactionHash": "0x4493b184e877771c89644b39f5ac4cba099fc41744db08c3a4b0c0e7fe9f18da",
  "args": [],
  "numDeployments": 8,
  "solcInputHash": "ad8a94c0474fe8bac41f9226c6b7e6de",
  "bytecode": "0x608060405234801561001057600080fd5b5061594f80620000216000396000f3fe60806040526004361061058f5760003560e01c80638456cb59116102d8578063c5482fe311610180578063e63ab1e9116100e7578063f58978cc116100a0578063fab2bf581161007a578063fab2bf5814611115578063fb1bb9de1461112c578063fbe1aa5114611160578063fe2c7fee1461117757600080fd5b8063f58978cc146110c9578063f7df4c5a146110e9578063f9dca9891461110057600080fd5b8063e63ab1e914610fe9578063e6fe34b31461101d578063e985e9c514611034578063ecbbfea31461107d578063f243669b1461109d578063f51f96dd146110b457600080fd5b8063d62b630311610139578063d62b630314610f47578063d756985b14610f5e578063d9a6f70514610f75578063dc33e68114610f8b578063e30c397814610fab578063e4b26d8414610fc957600080fd5b8063c5482fe314610e8b578063c792e16714610ea2578063c87b56dd14610eb9578063ca15c87314610ed9578063d3486d5b14610ef9578063d547741f14610f2757600080fd5b8063a04a6ac81161023f578063b05863d5116101f8578063be62da0e116101d2578063be62da0e14610e16578063c180526a14610e38578063c42069ec14610e4b578063c4d374cf14610e6b57600080fd5b8063b05863d514610dc3578063b3ab66b014610de3578063b88d4fde14610df657600080fd5b8063a04a6ac814610d12578063a1ef0e5414610d29578063a217fddf14610d49578063a22cb46514610d5e578063a54cd7dc14610d7e578063a7cd52cb14610d9557600080fd5b8063917d009e11610291578063917d009e14610c3057806391d1485414610c505780639231ab2a14610c7057806395d89b4114610cc6578063963331d814610cdb578063984b67d614610cf257600080fd5b80638456cb5914610b9e5780638ad433ac14610bb35780638bc35c2f14610bc65780638da5cb5b14610bdd5780639010d07c14610bfb57806390967a5214610c1b57600080fd5b8063387b62c71161043b5780635c975abb116103a25780636c0360eb1161035b57806370a082311161033557806370a0823114610b1e57806370a9525014610b3e578063715018a614610b725780637a18c1fe14610b8757600080fd5b80636c0360eb14610ad45780636d5d40c614610ae95780637035bf1814610b0957600080fd5b80635c975abb14610a44578063622f1c4714610a5c57806362f4fb2d14610a715780636352211e14610a8857806367ab8a4e14610aa85780636bb7b1d914610abd57600080fd5b806345c0f533116103f457806345c0f533146109ab5780634d3554c3146109c257806355f804b3146109d557806359d7bc4d146109f55780635bb2137614610a0c5780635c7034af14610a2d57600080fd5b8063387b62c7146109085780633ba8671f146109285780633cc4cadb1461093f5780633f4ba83a1461095657806342842e0e1461096b57806345afb0021461098b57600080fd5b806318160ddd116104fa57806325a00473116104b35780632e8f1f501161048d5780632e8f1f50146108915780632f2ff15d146108a857806336568abe146108c8578063375a069a146108e857600080fd5b806325a00473146108075780632913daa01461083b5780632a55205a1461085257600080fd5b806318160ddd146107465780631c0310a51461075f5780631e4d185f1461077f57806321cc16111461079657806323b872dd146107b7578063248a9ca3146107d757600080fd5b8063081812fc1161054c578063081812fc1461067b57806308a3fb4e146106b3578063095ea7b3146106d85780630a212ee2146106f85780630c2c39a31461070f578063154895101461072f57600080fd5b806301ffc9a71461059457806302fa7c47146105c957806303851c28146105eb57806303b674d314610617578063055ad42e1461063757806306fdde0314610659575b600080fd5b3480156105a057600080fd5b506105b46105af366004615307565b611197565b60405190151581526020015b60405180910390f35b3480156105d557600080fd5b506105e96105e43660046151bb565b6111c2565b005b3480156105f757600080fd5b5061060061126e565b6040805192151583526020830191909152016105c0565b34801561062357600080fd5b506105e96106323660046152a9565b611330565b34801561064357600080fd5b5061064c611401565b6040516105c091906155f3565b34801561066557600080fd5b5061066e6114e2565b6040516105c09190615601565b34801561068757600080fd5b5061069b6106963660046152a9565b611574565b6040516001600160a01b0390911681526020016105c0565b3480156106bf57600080fd5b506106ca6101b35481565b6040519081526020016105c0565b3480156106e457600080fd5b506105e96106f3366004615191565b6115b8565b34801561070457600080fd5b506106ca6101af5481565b34801561071b57600080fd5b506105e961072a3660046152a9565b611646565b34801561073b57600080fd5b506106ca6101b25481565b34801561075257600080fd5b50606654606554036106ca565b34801561076b57600080fd5b506105e961077a366004615055565b6116c8565b34801561078b57600080fd5b506106ca6101a75481565b3480156107a257600080fd5b506101935461069b906001600160a01b031681565b3480156107c357600080fd5b506105e96107d23660046150a3565b61195d565b3480156107e357600080fd5b506106ca6107f23660046152a9565b60009081526099602052604090206001015490565b34801561081357600080fd5b506106ca7fe0e65c783ac33ff1c5ccf4399c9185066773921d6f8d050bf80781603021f09781565b34801561084757600080fd5b506106ca6101975481565b34801561085e57600080fd5b5061087261086d3660046152e5565b611968565b604080516001600160a01b0390931683526020830191909152016105c0565b34801561089d57600080fd5b506106ca6101a05481565b3480156108b457600080fd5b506105e96108c33660046152c2565b611a18565b3480156108d457600080fd5b506105e96108e33660046152c2565b611aa2565b3480156108f457600080fd5b506105e96109033660046152a9565b611acb565b34801561091457600080fd5b506105e96109233660046152a9565b611c99565b34801561093457600080fd5b506106ca6101a15481565b34801561094b57600080fd5b506106ca6101a25481565b34801561096257600080fd5b506105e9611d5f565b34801561097757600080fd5b506105e96109863660046150a3565b611e0f565b34801561099757600080fd5b506105e96109a63660046152a9565b611e2a565b3480156109b757600080fd5b506106ca6101945481565b6105e96109d03660046152a9565b611eb8565b3480156109e157600080fd5b506105e96109f0366004615341565b61204c565b348015610a0157600080fd5b506106ca6101a55481565b348015610a1857600080fd5b5061019a5461069b906001600160a01b031681565b348015610a3957600080fd5b506106ca61019f5481565b348015610a5057600080fd5b5060fd5460ff166105b4565b348015610a6857600080fd5b506105e96120c2565b348015610a7d57600080fd5b506106ca6101a45481565b348015610a9457600080fd5b5061069b610aa33660046152a9565b6121ec565b348015610ab457600080fd5b506105e96121fe565b348015610ac957600080fd5b506106ca6101a65481565b348015610ae057600080fd5b5061066e61225c565b348015610af557600080fd5b506105e9610b043660046152a9565b6122eb565b348015610b1557600080fd5b5061066e6123b5565b348015610b2a57600080fd5b506106ca610b39366004615055565b6123c3565b348015610b4a57600080fd5b506106ca7fe516f7ac9747f401e208331379a0bafe3c9c4dbb6501fd23bcef278f7ebaf4e581565b348015610b7e57600080fd5b506105e9612411565b348015610b9357600080fd5b506106ca6101b55481565b348015610baa57600080fd5b506105e9612446565b6105e9610bc13660046152a9565b6124f4565b348015610bd257600080fd5b506106ca6101985481565b348015610be957600080fd5b506097546001600160a01b031661069b565b348015610c0757600080fd5b5061069b610c163660046152e5565b61255a565b348015610c2757600080fd5b506106ca612579565b348015610c3c57600080fd5b506106ca610c4b3660046152a9565b6125ad565b348015610c5c57600080fd5b506105b4610c6b3660046152c2565b61261b565b348015610c7c57600080fd5b50610c90610c8b3660046152a9565b612646565b6040805182516001600160a01b031681526020808401516001600160401b031690820152918101511515908201526060016105c0565b348015610cd257600080fd5b5061066e61266c565b348015610ce757600080fd5b506106ca6101a35481565b348015610cfe57600080fd5b506105e9610d0d3660046152a9565b61267b565b348015610d1e57600080fd5b506106ca6101ae5481565b348015610d3557600080fd5b506105e9610d443660046152a9565b612744565b348015610d5557600080fd5b506106ca600081565b348015610d6a57600080fd5b506105e9610d7936600461515a565b6127ea565b348015610d8a57600080fd5b506106ca6101b45481565b348015610da157600080fd5b506106ca610db0366004615055565b61019d6020526000908152604090205481565b348015610dcf57600080fd5b506105e9610dde3660046151f3565b612880565b6105e9610df13660046152a9565b612979565b348015610e0257600080fd5b506105e9610e113660046150df565b612af6565b348015610e2257600080fd5b506106ca6000805160206158da83398151915281565b6105e9610e463660046152a9565b612b41565b348015610e5757600080fd5b506105e9610e66366004615055565b612cdb565b348015610e7757600080fd5b506105e9610e8636600461547d565b612d60565b348015610e9757600080fd5b506106ca6101995481565b348015610eae57600080fd5b506106ca6101a85481565b348015610ec557600080fd5b5061066e610ed43660046152a9565b612ff7565b348015610ee557600080fd5b506106ca610ef43660046152a9565b6131e3565b348015610f0557600080fd5b506106ca610f14366004615055565b61019e6020526000908152604090205481565b348015610f3357600080fd5b506105e9610f423660046152c2565b6131fa565b348015610f5357600080fd5b506106ca6101965481565b348015610f6a57600080fd5b506106ca6101ad5481565b348015610f8157600080fd5b506106ca61271081565b348015610f9757600080fd5b506106ca610fa6366004615055565b61327e565b348015610fb757600080fd5b506098546001600160a01b031661069b565b348015610fd557600080fd5b506105e9610fe4366004615055565b6132ac565b348015610ff557600080fd5b506106ca7f65d7a28e3265b37a6474929f336521b332c1681b933f6cb9f3376673440d862a81565b34801561102957600080fd5b506106ca6101b15481565b34801561104057600080fd5b506105b461104f366004615070565b6001600160a01b039182166000908152606c6020908152604080832093909416825291909152205460ff1690565b34801561108957600080fd5b506105e96110983660046152c2565b6132fa565b3480156110a957600080fd5b506106ca6101b05481565b3480156110c057600080fd5b506106ca6133f6565b3480156110d557600080fd5b506105e96110e43660046153b2565b61340d565b3480156110f557600080fd5b506106ca6101ab5481565b34801561110c57600080fd5b506105e961351a565b34801561112157600080fd5b506106ca6101ac5481565b34801561113857600080fd5b506106ca7f427da25fe773164f88948d3e215c94b6554e2ed5e5f203a821c9f2f6131cf75a81565b34801561116c57600080fd5b506106ca6101955481565b34801561118357600080fd5b506105e9611192366004615341565b613559565b60006001600160e01b0319821663399d9fdf60e11b14806111bc57506111bc826135c3565b92915050565b6097546001600160a01b031633146111ed57604051630202a8bf60e61b815260040160405180910390fd5b6109c4816001600160601b03161115611219576040516306f644f160e31b815260040160405180910390fd5b6112238282613624565b6040516001600160601b03821681526001600160a01b038316907fd85b7816dca44c313f0fdadd9567f99f3620a2fac7c21a8a7872e1ac4d10fe559060200160405180910390a25050565b6101935460009081906001600160a01b031661128d5750600091829150565b610193546001600160a01b031663ad9e22af306112ad6066546065540390565b6040516001600160e01b031960e085901b1681526001600160a01b0390921660048301526024820152604401604080518083038186803b1580156112f057600080fd5b505afa158015611304573d6000803e3d6000fd5b505050506040513d601f19601f82011682018060405250810190611328919061527b565b915091509091565b6097546001600160a01b0316331461135b57604051630202a8bf60e61b815260040160405180910390fd5b6101a55461137c576040516356a4234d60e11b815260040160405180910390fd5b6101a4548110156113a0576040516312d3f13560e01b815260040160405180910390fd5b806101a65410156113c4576040516335bcfe2b60e21b815260040160405180910390fd5b6101a58190556040518181527f9bcdfa29202b48178635d9cf5c57896f671198685cf6b8ddb5e20f3eb4bb1e60906020015b60405180910390a150565b60006101ac546000148061141657506101a454155b8061142257506101a554155b8061142e57506101a654155b8061143b57506101ac5442105b156114465750600090565b61019454606654606554031061145c5750600590565b6101ac54421015801561147157506101a45442105b1561147c5750600190565b6101a454421015801561149157506101a55442105b1561149c5750600290565b6101a55442101580156114b157506101a65442105b156114bc5750600390565b6101a65442101580156114d157506101a75442105b156114dc5750600490565b50600590565b6060606780546114f1906157c7565b80601f016020809104026020016040519081016040528092919081815260200182805461151d906157c7565b801561156a5780601f1061153f5761010080835404028352916020019161156a565b820191906000526020600020905b81548152906001019060200180831161154d57829003601f168201915b5050505050905090565b600061157f82613722565b61159c576040516333d1c03960e21b815260040160405180910390fd5b506000908152606b60205260409020546001600160a01b031690565b60006115c3826121ec565b9050806001600160a01b0316836001600160a01b031614156115f85760405163250fdee360e21b815260040160405180910390fd5b336001600160a01b038216148015906116185750611616813361104f565b155b15611636576040516367d9dca160e11b815260040160405180910390fd5b61164183838361374e565b505050565b6097546001600160a01b0316331461167157604051630202a8bf60e61b815260040160405180910390fd5b4281101561169257604051639db169d760e01b815260040160405180910390fd5b6101a88190556040518181527f90513fea331bb55e4ca73a8d0c053a255347ccb17c621338052705ea997383b3906020016113f6565b6000805160206158da8339815191526116e96097546001600160a01b031690565b6001600160a01b0316336001600160a01b031614158015611711575061170f813361261b565b155b1561173d5760405163f9019a8d60e01b8152600481018290523360248201526044015b60405180910390fd5b600261012f5414156117915760405162461bcd60e51b815260206004820152601f60248201527f5265656e7472616e637947756172643a207265656e7472616e742063616c6c006044820152606401611734565b600261012f5560fd5460ff16156117ba5760405162461bcd60e51b815260040161173490615699565b426101a85411806117cc57506101a854155b156117ea57604051633bd1a57d60e11b815260040160405180910390fd5b61019954479060009081901561189a57612710610199548461180c9190615765565b6118169190615751565b91506118228284615784565b61019a546040519194506001600160a01b0316908390600081818185875af1925050503d8060008114611871576040519150601f19603f3d011682016040523d82523d6000602084013e611876565b606091505b5050809150508061189a57604051633aa9e60d60e21b815260040160405180910390fd5b6040516001600160a01b038616908490600081818185875af1925050503d80600081146118e3576040519150601f19603f3d011682016040523d82523d6000602084013e6118e8565b606091505b5050809150508061190c57604051633aa9e60d60e21b815260040160405180910390fd5b60408051848152602081018490526001600160a01b038716917f12eb5d7ccd4ce398edc94007dfbaa22fa2ac8775a3633530f36053ad765262f4910160405180910390a25050600161012f55505050565b6116418383836137aa565b6000828152610162602090815260408083208151808301909252546001600160a01b038116808352600160a01b9091046001600160601b03169282019290925282916119df575060408051808201909152610161546001600160a01b0381168252600160a01b90046001600160601b031660208201525b6020810151600090612710906119fe906001600160601b031687615765565b611a089190615751565b91519350909150505b9250929050565b8180611a375760405163e466584960e01b815260040160405180910390fd5b6000838152609960205260409020600101546097546001600160a01b03163314801590611a6b5750611a69813361261b565b155b15611a925760405163f9019a8d60e01b815260048101829052336024820152604401611734565b611a9c8484613998565b50505050565b8180611ac15760405163e466584960e01b815260040160405180910390fd5b61164183836139ba565b6000805160206158da833981519152611aec6097546001600160a01b031690565b6001600160a01b0316336001600160a01b031614158015611b145750611b12813361261b565b155b15611b3b5760405163f9019a8d60e01b815260048101829052336024820152604401611734565b60fd5460ff1615611b5e5760405162461bcd60e51b815260040161173490615699565b6101945482611b6b613a34565b611b759190615739565b1115611b9457604051631eddc6a360e11b815260040160405180910390fd5b610195548261019f54611ba79190615739565b1115611bc65760405163011310dd60e31b815260040160405180910390fd5b8161019f54611bd59190615739565b61019f5561019754600090611bea9084615751565b905060005b81811015611c2857611c163361019754604051806020016040528060008152506000613a5f565b80611c2081615802565b915050611bef565b5060006101975484611c3a919061581d565b90508015611c5e57611c5e3382604051806020016040528060008152506000613a5f565b60405184815233907f7d8400f0e58ae2e14f85b63f3afb0ca5b29328d8f48046b205fc7f174cf9b5ed9060200160405180910390a250505050565b6097546001600160a01b03163314611cc457604051630202a8bf60e61b815260040160405180910390fd5b6101ac54611ce5576040516356a4234d60e11b815260040160405180910390fd5b42811015611d0657604051639db169d760e01b815260040160405180910390fd5b806101a45411611d29576040516316c9078560e01b815260040160405180910390fd5b6101ac8190556040518181527ffb00110a4e6c0bc2323c3dd4f66784c4293e0bd3dfbf6ea9446e9efe673647c7906020016113f6565b7f427da25fe773164f88948d3e215c94b6554e2ed5e5f203a821c9f2f6131cf75a611d926097546001600160a01b031690565b6001600160a01b0316336001600160a01b031614158015611dba5750611db8813361261b565b155b15611de15760405163f9019a8d60e01b815260048101829052336024820152604401611734565b60fd5460ff16611e0457604051637514f14160e11b815260040160405180910390fd5b611e0c613c2a565b50565b61164183838360405180602001604052806000815250612af6565b60fd5460ff1615611e4d5760405162461bcd60e51b815260040161173490615699565b6000611e57611401565b90506003816005811115611e6d57611e6d61585d565b14158015611e8d57506004816005811115611e8a57611e8a61585d565b14155b15611eab576040516338df794b60e01b815260040160405180910390fd5b611eb482613cbd565b5050565b60fd5460ff1615611edb5760405162461bcd60e51b815260040161173490615699565b600180611ee6611401565b6005811115611ef757611ef761585d565b14611f15576040516338df794b60e01b815260040160405180910390fd5b6000611f246066546065540390565b61019f546101ab54611f369190615739565b611f409190615784565b905080611f6057604051631eddc6a360e11b815260040160405180910390fd5b82811015611f6c578092505b6101985483611f7a33613eed565b611f849190615739565b1115611fa3576040516335e62b7b60e21b815260040160405180910390fd5b611faf6101ac546125ad565b6101b5819055600090611fc3908590615765565b9050836101b454611fd49190615739565b6101b481905550611ff73385604051806020016040528060008152506000613a5f565b336001600160a01b03166000805160206158fa833981519152856101b5548761201f60655490565b6120299190615784565b600160405161203b949392919061570e565b60405180910390a2611a9c81613f2c565b6097546001600160a01b0316331461207757604051630202a8bf60e61b815260040160405180910390fd5b61208461019b8383614e58565b507ff9c7803e94e0d3c02900d8a90893a6d5e90dd04d32a4cfe825520f82bf9f32f661019b6040516120b69190615614565b60405180910390a15050565b3233146120e257604051633059e46160e21b815260040160405180910390fd5b60fd5460ff16156121055760405162461bcd60e51b815260040161173490615699565b610193546001600160a01b031661212f5760405163114d098b60e31b815260040160405180910390fd5b610193546001600160a01b031663fbbc872b3061214f6066546065540390565b6040516001600160e01b031960e085901b1681526001600160a01b0390921660048301526024820152604401602060405180830381600087803b15801561219557600080fd5b505af11580156121a9573d6000803e3d6000fd5b505050506040513d601f19601f820116820180604052508101906121cd919061525e565b6121ea5760405163fc58cf3f60e01b815260040160405180910390fd5b565b60006121f782613fc7565b5192915050565b6097546001600160a01b0316331461222957604051630202a8bf60e61b815260040160405180910390fd5b6098546001600160a01b03166122525760405163128be5bf60e31b815260040160405180910390fd5b6121ea60006140e1565b61019b805461226a906157c7565b80601f0160208091040260200160405190810160405280929190818152602001828054612296906157c7565b80156122e35780601f106122b8576101008083540402835291602001916122e3565b820191906000526020600020905b8154815290600101906020018083116122c657829003601f168201915b505050505081565b6097546001600160a01b0316331461231657604051630202a8bf60e61b815260040160405180910390fd5b6101a654612337576040516356a4234d60e11b815260040160405180910390fd5b6101a55481101561235b576040516335bcfe2b60e21b815260040160405180910390fd5b806101a754101561237f57604051631e3804ab60e21b815260040160405180910390fd5b6101a68190556040518181527f4fe26bfd1cf59c4428b13357bea5ab8239f9889b3f94cd575f98b4c6811dcdc5906020016113f6565b61019c805461226a906157c7565b60006001600160a01b0382166123ec576040516323d3ad8160e21b815260040160405180910390fd5b506001600160a01b03166000908152606a60205260409020546001600160401b031690565b6097546001600160a01b0316331461243c57604051630202a8bf60e61b815260040160405180910390fd5b6121ea600061412b565b7f65d7a28e3265b37a6474929f336521b332c1681b933f6cb9f3376673440d862a6124796097546001600160a01b031690565b6001600160a01b0316336001600160a01b0316141580156124a1575061249f813361261b565b155b156124c85760405163f9019a8d60e01b815260048101829052336024820152604401611734565b60fd5460ff16156124ec576040516329c0c03160e11b815260040160405180910390fd5b611e0c61416a565b60fd5460ff16156125175760405162461bcd60e51b815260040161173490615699565b600280612522611401565b60058111156125335761253361585d565b14612551576040516338df794b60e01b815260040160405180910390fd5b611eb4826141c2565b600082815260cb6020526040812061257290836143b9565b9392505050565b60006127106101b2546101b5546125909190615765565b61259a9190615751565b6101b5546125a89190615784565b905090565b6000814210156125c05750506101ad5490565b6101af546125ce8342615784565b106125dc5750506101ae5490565b6101b0546000906125ed8442615784565b6125f79190615751565b90506101b154816126089190615765565b6101ad546125729190615784565b919050565b60009182526099602090815260408084206001600160a01b0393909316845291905290205460ff1690565b60408051606081018252600080825260208201819052918101919091526111bc82613fc7565b6060606880546114f1906157c7565b6097546001600160a01b031633146126a657604051630202a8bf60e61b815260040160405180910390fd5b6101a4546126c7576040516356a4234d60e11b815260040160405180910390fd5b6101ac5481116126ea576040516316c9078560e01b815260040160405180910390fd5b806101a554101561270e576040516312d3f13560e01b815260040160405180910390fd5b6101a48190556040518181527f9776e1b1502b2f97161fccc0d9f830da6ad81a796cf67c136801fd59dd0444cd906020016113f6565b6097546001600160a01b0316331461276f57604051630202a8bf60e61b815260040160405180910390fd5b6101a754612790576040516356a4234d60e11b815260040160405180910390fd5b6101a6548110156127b457604051631e3804ab60e21b815260040160405180910390fd5b6101a78190556040518181527fdb76c49adfe8600a5db82e1d85e7c1f7565676dac577c6a39744e9c95ad68e3c906020016113f6565b6001600160a01b0382163314156128145760405163b06307db60e01b815260040160405180910390fd5b336000818152606c602090815260408083206001600160a01b03871680855290835292819020805460ff191686151590811790915590519081529192917f17307eab39ab6107e8899845ad3d59bd9653f200f220920489ca2b5937696c31910160405180910390a35050565b6097546001600160a01b031633146128ab57604051630202a8bf60e61b815260040160405180910390fd5b828181146128cc57604051638d62a9d560e01b815260040160405180910390fd5b60005b81811015612948578383828181106128e9576128e9615889565b9050602002013561019d600088888581811061290757612907615889565b905060200201602081019061291c9190615055565b6001600160a01b031681526020810191909152604001600020558061294081615802565b9150506128cf565b506040517f0df27beb8d16f5e61d125286ba69a986a702ac83921bb1864629ca5e662e84d490600090a15050505050565b32331461299957604051633059e46160e21b815260040160405180910390fd5b60fd5460ff16156129bc5760405162461bcd60e51b815260040161173490615699565b6004806129c7611401565b60058111156129d8576129d861585d565b146129f6576040516338df794b60e01b815260040160405180910390fd5b6101985482612a0433613eed565b612a0e9190615739565b1115612a2d576040516335e62b7b60e21b815260040160405180910390fd5b6101945482612a3a613a34565b612a449190615739565b1115612a6357604051631eddc6a360e11b815260040160405180910390fd5b6000612a6d6133f6565b9050612a8b3384604051806020016040528060008152506000613a5f565b826101a36000828254612a9e9190615739565b909155503390506000805160206158fa833981519152848381612ac060655490565b612aca9190615784565b6004604051612adc949392919061570e565b60405180910390a2611641612af18483615765565b613f2c565b612b018484846137aa565b6001600160a01b0383163b15158015612b235750612b21848484846143c5565b155b15611a9c576040516368d2bf6b60e11b815260040160405180910390fd5b60fd5460ff1615612b645760405162461bcd60e51b815260040161173490615699565b600380612b6f611401565b6005811115612b8057612b8061585d565b14612b9e576040516338df794b60e01b815260040160405180910390fd5b33600090815261019d6020526040902054821115612bcf576040516390e50aa560e01b815260040160405180910390fd5b6101945482612bdc613a34565b612be69190615739565b1180612c10575061019654826101a2546101a054612c049190615739565b612c0e9190615739565b115b15612c2e57604051631eddc6a360e11b815260040160405180910390fd5b33600090815261019d602052604081208054849290612c4e908490615784565b9091555060009050612c5e612579565b90506000612c6c8483615765565b9050612c8a3385604051806020016040528060008152506000613a5f565b836101a26000828254612c9d9190615739565b909155503390506000805160206158fa833981519152858481612cbf60655490565b612cc99190615784565b600360405161203b949392919061570e565b6097546001600160a01b03163314612d0657604051630202a8bf60e61b815260040160405180910390fd5b6001600160a01b038116612d2d576040516386850cc360e01b815260040160405180910390fd5b6098546001600160a01b031615612d575760405163033c108960e01b815260040160405180910390fd5b611e0c816140e1565b6097546001600160a01b03163314612d8b57604051630202a8bf60e61b815260040160405180910390fd5b600080612d96611401565b6005811115612da757612da761585d565b14612dc5576040516338df794b60e01b815260040160405180910390fd5b428b1015612de657604051639db169d760e01b815260040160405180910390fd5b888a11612e06576040516302f092d160e41b815260040160405180910390fd5b8a8711612e26576040516316c9078560e01b815260040160405180910390fd5b86861015612e47576040516312d3f13560e01b815260040160405180910390fd5b85841015612e68576040516335bcfe2b60e21b815260040160405180910390fd5b83831015612e8957604051631e3804ab60e21b815260040160405180910390fd5b612710851180612e9a575061271082115b15612eb8576040516346b7d95d60e11b815260040160405180910390fd5b612ec28b88615784565b6101af55871580612ee1575060046101af54612ede9190615751565b88115b15612eff5760405163352a16bd60e11b815260040160405180910390fd5b6101ac8b90556101ad8a90556101b58a90556101ae8990556101b08890556101af54612f2c908990615751565b612f368a8c615784565b612f409190615751565b6101b1556101a48790556101a58690556101b28590556101a68490556101a78390556101b38290556101ac546101ad546101ae546101b0546040805194855260208501939093529183015260608201526080810188905260a0810187905260c0810186905260e08101859052610100810184905261012081018390527f9bd019469ebfcf9900769492374b29fc8f19b71a9cea1e964c34778235a02ebf906101400160405180910390a15050505050505050505050565b610193546060906001600160a01b031661303e5761019b613017836144bd565b604051602001613028929190615533565b6040516020818303038152906040529050919050565b61019354604051635e1578db60e11b81523060048201526001600160a01b039091169063bc2af1b69060240160206040518083038186803b15801561308257600080fd5b505afa158015613096573d6000803e3d6000fd5b505050506040513d601f19601f820116820180604052508101906130ba9190615464565b82106131535761019c80546130ce906157c7565b80601f01602080910402602001604051908101604052809291908181526020018280546130fa906157c7565b80156131475780601f1061311c57610100808354040283529160200191613147565b820191906000526020600020905b81548152906001019060200180831161312a57829003601f168201915b50505050509050919050565b61019354604051631f4b3c0160e11b81523060048201526024810184905261019b91613017916001600160a01b0390911690633e9678029060440160206040518083038186803b1580156131a657600080fd5b505afa1580156131ba573d6000803e3d6000fd5b505050506040513d601f19601f820116820180604052508101906131de9190615464565b6144bd565b600081815260cb602052604081206111bc906145ba565b81806132195760405163e466584960e01b815260040160405180910390fd5b6000838152609960205260409020600101546097546001600160a01b0316331480159061324d575061324b813361261b565b155b156132745760405163f9019a8d60e01b815260048101829052336024820152604401611734565b611a9c84846145c4565b6001600160a01b0381166000908152606a6020526040812054600160401b90046001600160401b03166111bc565b6097546001600160a01b031633146132d757604051630202a8bf60e61b815260040160405180910390fd5b61019380546001600160a01b0319166001600160a01b0392909216919091179055565b6097546001600160a01b0316331461332557604051630202a8bf60e61b815260040160405180910390fd5b61019a546001600160a01b031615613350576040516345db6e6960e11b815260040160405180910390fd5b612710821115613373576040516346b7d95d60e11b815260040160405180910390fd5b6001600160a01b03811661339a57604051631a1b629760e21b815260040160405180910390fd5b61019982905561019a80546001600160a01b0319166001600160a01b0383169081179091556040805184815260208101929092527fd7d086964f00d2604a80288c460231fe9cfc8e9605e838d49017401111f63adb91016120b6565b60006127106101b3546101b5546125909190615765565b600054610100900460ff166134285760005460ff161561342c565b303b155b61348f5760405162461bcd60e51b815260206004820152602e60248201527f496e697469616c697a61626c653a20636f6e747261637420697320616c72656160448201526d191e481a5b9a5d1a585b1a5e995960921b6064820152608401611734565b600054610100900460ff161580156134b1576000805461ffff19166101011790555b6134c18a8a8a8a8a8a888a6145e6565b84826134cd8587615739565b6134d79190615739565b11156134f657604051631a231d4360e21b815260040160405180910390fd5b6101ab849055801561350e576000805461ff00191690555b50505050505050505050565b6098546001600160a01b031633141580613532575033155b156135505760405163134aa98760e31b815260040160405180910390fd5b6121ea3361412b565b6097546001600160a01b0316331461358457604051630202a8bf60e61b815260040160405180910390fd5b61359161019c8383614e58565b507f4012c6d278d4b460acbc560e9fa4425e187c3b40c848b8dfa248139729efee4361019c6040516120b69190615614565b60006001600160e01b03198216633dba21c360e11b14806135e857506135e8826146f3565b806135f757506135f782614733565b80613606575061360682614758565b8061361557506136158261476e565b806111bc57506111bc82614733565b6127106001600160601b03821611156136925760405162461bcd60e51b815260206004820152602a60248201527f455243323938313a20726f79616c7479206665652077696c6c206578636565646044820152692073616c65507269636560b01b6064820152608401611734565b6001600160a01b0382166136e85760405162461bcd60e51b815260206004820152601960248201527f455243323938313a20696e76616c6964207265636569766572000000000000006044820152606401611734565b604080518082019091526001600160a01b039092168083526001600160601b039091166020909201829052600160a01b9091021761016155565b6000606554821080156111bc575050600090815260696020526040902054600160e01b900460ff161590565b6000828152606b602052604080822080546001600160a01b0319166001600160a01b0387811691821790925591518593918516917f8c5be1e5ebec7d5bd14f71427d1e84f3dd0314c0f7b2291e5b200ac8c7c3b92591a4505050565b60006137b582613fc7565b9050836001600160a01b031681600001516001600160a01b0316146137ec5760405162a1148160e81b815260040160405180910390fd5b6000336001600160a01b038616148061380a575061380a853361104f565b8061382557503361381a84611574565b6001600160a01b0316145b90508061384557604051632ce44b5f60e11b815260040160405180910390fd5b6001600160a01b03841661386c57604051633a954ecd60e21b815260040160405180910390fd5b6138786000848761374e565b6001600160a01b038581166000908152606a60209081526040808320805467ffffffffffffffff198082166001600160401b0392831660001901831617909255898616808652838620805493841693831660019081018416949094179055898652606990945282852080546001600160e01b031916909417600160a01b4290921691909102178355870180845292208054919390911661394c57606554821461394c57805460208601516001600160401b0316600160a01b026001600160e01b03199091166001600160a01b038a16171781555b50505082846001600160a01b0316866001600160a01b03167fddf252ad1be2c89b69c2b068fc378daa952ba7f163c4a11628f55a4df523b3ef60405160405180910390a45b5050505050565b6139a28282614793565b600082815260cb602052604090206116419082614819565b6001600160a01b0381163314613a2a5760405162461bcd60e51b815260206004820152602f60248201527f416363657373436f6e74726f6c3a2063616e206f6e6c792072656e6f756e636560448201526e103937b632b9903337b91039b2b63360891b6064820152608401611734565b611eb482826145c4565b60006101a1546101a054613a4b6066546065540390565b613a559190615739565b6125a89190615784565b6065546001600160a01b038516613a8857604051622e076360e81b815260040160405180910390fd5b83613aa65760405163b562e8dd60e01b815260040160405180910390fd5b6001600160a01b0385166000818152606a6020908152604080832080546fffffffffffffffffffffffffffffffff1981166001600160401b038083168c018116918217600160401b67ffffffffffffffff1990941690921783900481168c01811690920217909155858452606990925290912080546001600160e01b031916909217600160a01b429092169190910217905580808501838015613b5257506001600160a01b0387163b15155b15613bdb575b60405182906001600160a01b038916906000907fddf252ad1be2c89b69c2b068fc378daa952ba7f163c4a11628f55a4df523b3ef908290a4613ba360008884806001019550886143c5565b613bc0576040516368d2bf6b60e11b815260040160405180910390fd5b80821415613b58578260655414613bd657600080fd5b613c21565b5b6040516001830192906001600160a01b038916906000907fddf252ad1be2c89b69c2b068fc378daa952ba7f163c4a11628f55a4df523b3ef908290a480821415613bdc575b50606555613991565b60fd5460ff16613c735760405162461bcd60e51b815260206004820152601460248201527314185d5cd8589b194e881b9bdd081c185d5cd95960621b6044820152606401611734565b60fd805460ff191690557f5db9ee0a495bf2e6ff9c91a7834c1ba4fdd244a5e8aa4e537bd38aeae4b073aa335b6040516001600160a01b03909116815260200160405180910390a1565b80613cdb57604051636e5fd58f60e01b815260040160405180910390fd5b6101a1546101a0541415613d025760405163aa9eff6760e01b815260040160405180910390fd5b806000613d0d61482e565b6101aa546101a9549192506000918291905b8082108015613d2e5750600086115b15613ec05760006101a98381548110613d4957613d49615889565b60009182526020918290206040805180820190915260029092020180546001600160a01b031680835260019091015492820183905296509150871015613dcc57869350836101a98481548110613da157613da1615889565b90600052602060002090600202016001016000828254613dc19190615784565b90915550613e169050565b806020015193506101a98381548110613de757613de7615889565b60009182526020822060029091020180546001600160a01b03191681556001015582613e1281615802565b9350505b613e208488615784565b6001600160a01b038616600090815261019e6020526040812080549299508692909190613e4e908490615784565b92505081905550613e718585604051806020016040528060008152506000613a5f565b846001600160a01b03166000805160206158fa833981519152858887613e9660655490565b613ea09190615784565b6002604051613eb2949392919061570e565b60405180910390a250613d1f565b613eca8688615784565b6101a16000828254613edc9190615739565b9091555050506101aa555050505050565b6001600160a01b038116600090815261019e6020908152604080832054606a909252822054600160401b90046001600160401b03166111bc9190615739565b80341015613f4f57604051639968ec3d60e01b8152346004820152602401611734565b80341115611e0c57600033613f648334615784565b604051600081818185875af1925050503d8060008114613fa0576040519150601f19603f3d011682016040523d82523d6000602084013e613fa5565b606091505b5050905080611eb457604051633aa9e60d60e21b815260040160405180910390fd5b6040805160608101825260008082526020820181905291810191909152816065548110156140c857600081815260696020908152604091829020825160608101845290546001600160a01b0381168252600160a01b81046001600160401b031692820192909252600160e01b90910460ff161515918101829052906140c65780516001600160a01b03161561405d579392505050565b5060001901600081815260696020908152604091829020825160608101845290546001600160a01b038116808352600160a01b82046001600160401b031693830193909352600160e01b900460ff16151592810192909252156140c1579392505050565b61405d565b505b604051636f96cda160e11b815260040160405180910390fd5b609880546001600160a01b0319166001600160a01b0383169081179091556040517f68f49b346b94582a8b5f9d10e3fe3365318fe8f191ff8dce7c59c6cad06b02f590600090a250565b61414760006141426097546001600160a01b031690565b6145c4565b6001600160a01b0381161561416157614161600082613998565b611e0c81614838565b60fd5460ff161561418d5760405162461bcd60e51b815260040161173490615699565b60fd805460ff191660011790557f62e78cea01bee320cd4e420270b5ea74000d11b0c9f74754ebdbfc544b05a258613ca03390565b806141e057604051636e5fd58f60e01b815260040160405180910390fd5b33600090815261019d6020526040902054811115614211576040516390e50aa560e01b815260040160405180910390fd5b610194548161421e613a34565b6142289190615739565b1180614244575061019654816101a0546142429190615739565b115b1561426257604051631eddc6a360e11b815260040160405180910390fd5b33600090815261019d602052604081208054839290614282908490615784565b909155505033600090815261019e6020526040812080548392906142a7908490615739565b92505081905550806101a060008282546142c19190615739565b909155505060408051808201909152338152602081018281526101a98054600181018255600091825292517f46e9bb78ef9a1e3ee9f53f39e4c4ee2bed6dca07e6229ea5dcb5d0732af60d17600290940293840180546001600160a01b0319166001600160a01b0390921691909117905590517f46e9bb78ef9a1e3ee9f53f39e4c4ee2bed6dca07e6229ea5dcb5d0732af60d189092019190915561436461482e565b905060006143728383615765565b604080518581526020810185905291925033917faaa4209473b0e01252afb37fc6a883231b6189d78f5fb75fec9d8345d716d6ba910160405180910390a261164181613f2c565b60006125728383614895565b604051630a85bd0160e11b81526000906001600160a01b0385169063150b7a02906143fa9033908990889088906004016155b6565b602060405180830381600087803b15801561441457600080fd5b505af1925050508015614444575060408051601f3d908101601f1916820190925261444191810190615324565b60015b61449f573d808015614472576040519150601f19603f3d011682016040523d82523d6000602084013e614477565b606091505b508051614497576040516368d2bf6b60e11b815260040160405180910390fd5b805181602001fd5b6001600160e01b031916630a85bd0160e11b1490505b949350505050565b6060816144e15750506040805180820190915260018152600360fc1b602082015290565b8160005b811561450b57806144f581615802565b91506145049050600a83615751565b91506144e5565b6000816001600160401b038111156145255761452561589f565b6040519080825280601f01601f19166020018201604052801561454f576020820181803683370190505b5090505b84156144b557614564600183615784565b9150614571600a8661581d565b61457c906030615739565b60f81b81838151811061459157614591615889565b60200101906001600160f81b031916908160001a9053506145b3600a86615751565b9450614553565b60006111bc825490565b6145ce82826148bf565b600082815260cb602052604090206116419082614926565b600054610100900460ff1661460d5760405162461bcd60e51b8152600401611734906156c3565b61461561493b565b61461d61497a565b6146256149a9565b61462f88886149d0565b6001600160a01b038616614656576040516331ae7ba360e21b815260040160405180910390fd5b82158061466b5750826146698284615739565b115b1561468957604051631a231d4360e21b815260040160405180910390fd5b828411156146aa57604051631ddf40b160e01b815260040160405180910390fd5b6146c26000805160206158da83398151915287611a18565b6146ce856101f4613624565b6101978490556101949290925561019892909255610195919091556101965550505050565b60006001600160e01b031982166380ac58cd60e01b148061472457506001600160e01b03198216635b5e139f60e01b145b806111bc57506111bc82614758565b60006001600160e01b0319821663152a902d60e11b14806111bc57506111bc8261476e565b6001600160e01b0319166301ffc9a760e01b1490565b60006001600160e01b0319821663f3353d7760e01b14806111bc57506111bc82614a01565b61479d828261261b565b611eb45760008281526099602090815260408083206001600160a01b03851684529091529020805460ff191660011790556147d53390565b6001600160a01b0316816001600160a01b0316837f2f8788117e7eff1d82e926ec794901d17c78024a50270940304540a733656f0d60405160405180910390a45050565b6000612572836001600160a01b038416614a1b565b60006125a8612579565b609780546001600160a01b038381166001600160a01b03198084168217909455609880549094169093556040519116919082907f8be0079c531659141344cd1fd0a4f28419497f9722a3daafe3b4186f6b6457e090600090a35050565b60008260000182815481106148ac576148ac615889565b9060005260206000200154905092915050565b6148c9828261261b565b15611eb45760008281526099602090815260408083206001600160a01b0385168085529252808320805460ff1916905551339285917ff6391f5c32d9c69d2a47ea670b442974b53935d1edc7fd64eb21e047a839171b9190a45050565b6000612572836001600160a01b038416614a6a565b600054610100900460ff166149625760405162461bcd60e51b8152600401611734906156c3565b61496a614b5d565b614972614b9c565b6121ea614bcb565b600054610100900460ff166149a15760405162461bcd60e51b8152600401611734906156c3565b6121ea614c86565b600054610100900460ff166121ea5760405162461bcd60e51b8152600401611734906156c3565b600054610100900460ff166149f75760405162461bcd60e51b8152600401611734906156c3565b611eb48282614cb5565b6000614a0c82614d0d565b806111bc57506111bc82614d32565b6000818152600183016020526040812054614a62575081546001818101845560008481526020808220909301849055845484825282860190935260409020919091556111bc565b5060006111bc565b60008181526001830160205260408120548015614b53576000614a8e600183615784565b8554909150600090614aa290600190615784565b9050818114614b07576000866000018281548110614ac257614ac2615889565b9060005260206000200154905080876000018481548110614ae557614ae5615889565b6000918252602080832090910192909255918252600188019052604090208390555b8554869080614b1857614b18615873565b6001900381819060005260206000200160009055905585600101600086815260200190815260200160002060009055600193505050506111bc565b60009150506111bc565b600054610100900460ff16614b845760405162461bcd60e51b8152600401611734906156c3565b614b8c614d57565b614b946149a9565b6121ea6149a9565b600054610100900460ff16614bc35760405162461bcd60e51b8152600401611734906156c3565b6121ea614d8e565b600054610100900460ff16614bf25760405162461bcd60e51b8152600401611734906156c3565b614c3c7f65d7a28e3265b37a6474929f336521b332c1681b933f6cb9f3376673440d862a7fe0e65c783ac33ff1c5ccf4399c9185066773921d6f8d050bf80781603021f097614dc1565b6121ea7f427da25fe773164f88948d3e215c94b6554e2ed5e5f203a821c9f2f6131cf75a7fe516f7ac9747f401e208331379a0bafe3c9c4dbb6501fd23bcef278f7ebaf4e5614dc1565b600054610100900460ff16614cad5760405162461bcd60e51b8152600401611734906156c3565b600161012f55565b600054610100900460ff16614cdc5760405162461bcd60e51b8152600401611734906156c3565b8151614cef906067906020850190614edc565b508051614d03906068906020840190614edc565b5060006065555050565b60006001600160e01b031982166322d7505760e11b14806111bc57506111bc826146f3565b60006001600160e01b03198216635a05180f60e01b14806111bc57506111bc82614e0c565b600054610100900460ff16614d7e5760405162461bcd60e51b8152600401611734906156c3565b614d866149a9565b6121ea614e31565b600054610100900460ff16614db55760405162461bcd60e51b8152600401611734906156c3565b60fd805460ff19169055565b600082815260996020526040808220600101805490849055905190918391839186917fbd79b86ffe0ab8e8776151514217cd7cacd52c909f66475c3af44e129f0b00ff9190a4505050565b60006001600160e01b03198216637965db0b60e01b14806111bc57506111bc82614d0d565b600054610100900460ff166135505760405162461bcd60e51b8152600401611734906156c3565b828054614e64906157c7565b90600052602060002090601f016020900481019282614e865760008555614ecc565b82601f10614e9f5782800160ff19823516178555614ecc565b82800160010185558215614ecc579182015b82811115614ecc578235825591602001919060010190614eb1565b50614ed8929150614f50565b5090565b828054614ee8906157c7565b90600052602060002090601f016020900481019282614f0a5760008555614ecc565b82601f10614f2357805160ff1916838001178555614ecc565b82800160010185558215614ecc579182015b82811115614ecc578251825591602001919060010190614f35565b5b80821115614ed85760008155600101614f51565b60006001600160401b0380841115614f7f57614f7f61589f565b604051601f8501601f19908116603f01168101908282118183101715614fa757614fa761589f565b81604052809350858152868686011115614fc057600080fd5b858560208301376000602087830101525050509392505050565b80356001600160a01b038116811461261657600080fd5b60008083601f84011261500357600080fd5b5081356001600160401b0381111561501a57600080fd5b6020830191508360208260051b8501011115611a1157600080fd5b600082601f83011261504657600080fd5b61257283833560208501614f65565b60006020828403121561506757600080fd5b61257282614fda565b6000806040838503121561508357600080fd5b61508c83614fda565b915061509a60208401614fda565b90509250929050565b6000806000606084860312156150b857600080fd5b6150c184614fda565b92506150cf60208501614fda565b9150604084013590509250925092565b600080600080608085870312156150f557600080fd5b6150fe85614fda565b935061510c60208601614fda565b92506040850135915060608501356001600160401b0381111561512e57600080fd5b8501601f8101871361513f57600080fd5b61514e87823560208401614f65565b91505092959194509250565b6000806040838503121561516d57600080fd5b61517683614fda565b91506020830135615186816158b5565b809150509250929050565b600080604083850312156151a457600080fd5b6151ad83614fda565b946020939093013593505050565b600080604083850312156151ce57600080fd5b6151d783614fda565b915060208301356001600160601b038116811461518657600080fd5b6000806000806040858703121561520957600080fd5b84356001600160401b038082111561522057600080fd5b61522c88838901614ff1565b9096509450602087013591508082111561524557600080fd5b5061525287828801614ff1565b95989497509550505050565b60006020828403121561527057600080fd5b8151612572816158b5565b6000806040838503121561528e57600080fd5b8251615299816158b5565b6020939093015192949293505050565b6000602082840312156152bb57600080fd5b5035919050565b600080604083850312156152d557600080fd5b8235915061509a60208401614fda565b600080604083850312156152f857600080fd5b50508035926020909101359150565b60006020828403121561531957600080fd5b8135612572816158c3565b60006020828403121561533657600080fd5b8151612572816158c3565b6000806020838503121561535457600080fd5b82356001600160401b038082111561536b57600080fd5b818501915085601f83011261537f57600080fd5b81358181111561538e57600080fd5b8660208285010111156153a057600080fd5b60209290920196919550909350505050565b60008060008060008060008060006101208a8c0312156153d157600080fd5b89356001600160401b03808211156153e857600080fd5b6153f48d838e01615035565b9a5060208c013591508082111561540a57600080fd5b506154178c828d01615035565b98505061542660408b01614fda565b965061543460608b01614fda565b989b979a50959860808101359760a0820135975060c0820135965060e08201359550610100909101359350915050565b60006020828403121561547657600080fd5b5051919050565b6000806000806000806000806000806101408b8d03121561549d57600080fd5b505088359a60208a01359a5060408a013599606081013599506080810135985060a0810135975060c0810135965060e081013595506101008101359450610120013592509050565b600081518084526154fd81602086016020860161579b565b601f01601f19169290920160200192915050565b6006811061552f57634e487b7160e01b600052602160045260246000fd5b9052565b6000808454615541816157c7565b60018281168015615559576001811461556a57615599565b60ff19841687528287019450615599565b8860005260208060002060005b858110156155905781548a820152908401908201615577565b50505082870194505b5050505083516155ad81836020880161579b565b01949350505050565b6001600160a01b03858116825284166020820152604081018390526080606082018190526000906155e9908301846154e5565b9695505050505050565b602081016111bc8284615511565b60208152600061257260208301846154e5565b6000602080835260008454615628816157c7565b80848701526040600180841660008114615649576001811461565d5761568b565b60ff1985168984015260608901955061568b565b896000528660002060005b858110156156835781548b8201860152908301908801615668565b8a0184019650505b509398975050505050505050565b60208082526010908201526f14185d5cd8589b194e881c185d5cd95960821b604082015260600190565b6020808252602b908201527f496e697469616c697a61626c653a20636f6e7472616374206973206e6f74206960408201526a6e697469616c697a696e6760a81b606082015260800190565b8481526020810184905260408101839052608081016157306060830184615511565b95945050505050565b6000821982111561574c5761574c615831565b500190565b60008261576057615760615847565b500490565b600081600019048311821515161561577f5761577f615831565b500290565b60008282101561579657615796615831565b500390565b60005b838110156157b657818101518382015260200161579e565b83811115611a9c5750506000910152565b600181811c908216806157db57607f821691505b602082108114156157fc57634e487b7160e01b600052602260045260246000fd5b50919050565b600060001982141561581657615816615831565b5060010190565b60008261582c5761582c615847565b500690565b634e487b7160e01b600052601160045260246000fd5b634e487b7160e01b600052601260045260246000fd5b634e487b7160e01b600052602160045260246000fd5b634e487b7160e01b600052603160045260246000fd5b634e487b7160e01b600052603260045260246000fd5b634e487b7160e01b600052604160045260246000fd5b8015158114611e0c57600080fd5b6001600160e01b031981168114611e0c57600080fdfe770fadb28e0e3026382976ee8b810cb0eb8666922148dd9e10b20cfb9b477ba8bb20f716bd7ca9427b818f6de485952ab3a5acec2559fb794e3f9a4d9f70e722a264697066735822122045578663e1b7db5e2dd4c0c81d1c38046d8b4febf2729c09b7571b4da82094d164736f6c63430008060033",
  "devdoc": {
    "author": "Trader Joe",
    "events": {
      "AuctionSaleStartTimeSet(uint256)": {
        "details": "Emitted on setAuctionSaleStartTime()",
        "params": {
          "auctionSaleStartTime": "New auction sale start time"
        }
      },
      "Initialized(uint256,uint256,uint256,uint256,uint256,uint256,uint256,uint256,uint256,uint256)": {
        "details": "Emitted on initializePhases()",
        "params": {
          "allowlistDiscountPercent": "Discount applied to the last auction price during the allowlist mint",
          "allowlistStartTime": "allowlist mint start time in seconds",
          "auctionDropInterval": "Time elapsed between each drop in price in seconds",
          "auctionEndPrice": "Auction floor price in AVAX",
          "auctionSaleStartTime": "Auction start time in seconds",
          "auctionStartPrice": "Auction start price in AVAX",
          "preMintStartTime": "Pre-mint start time in seconds",
          "publicSaleDiscountPercent": "Discount applied to the last auction price during the public sale",
          "publicSaleEndTime": "Public sale end time in seconds",
          "publicSaleStartTime": "Public sale start time in seconds"
        }
      }
    },
    "kind": "dev",
    "methods": {
      "allowlistMint(uint256)": {
        "params": {
          "_quantity": "Quantity of NFTs to mint"
        }
      },
      "allowlistPrice()": {
        "returns": {
          "_0": "allowlistSalePrice Mint List sale price"
        }
      },
      "approve(address,uint256)": {
        "details": "See {IERC721-approve}."
      },
      "auctionMint(uint256)": {
        "details": "The price decreases every `auctionDropInterval` by `auctionDropPerStep`",
        "params": {
          "_quantity": "Quantity of NFTs to buy"
        }
      },
      "balanceOf(address)": {
        "details": "See {IERC721-balanceOf}."
      },
      "batchMintPreMintedNFTs(uint256)": {
        "params": {
          "_maxQuantity": "Max quantity of NFTs to mint"
        }
      },
      "currentPhase()": {
        "returns": {
          "_0": "phase Current phase"
        }
      },
      "devMint(uint256)": {
        "details": "Can only mint up to `amountForDevs`",
        "params": {
          "_quantity": "Quantity of NFTs to mint"
        }
      },
      "getApproved(uint256)": {
        "details": "See {IERC721-getApproved}."
      },
      "getAuctionPrice(uint256)": {
        "params": {
          "_saleStartTime": "Auction sale start time"
        },
        "returns": {
          "_0": "auctionSalePrice Auction sale price"
        }
      },
      "getOwnershipData(uint256)": {
        "params": {
          "_tokenId": "Token ID"
        },
        "returns": {
          "_0": "TokenOwnership Ownership struct for a specific token ID"
        }
      },
      "getRoleAdmin(bytes32)": {
        "details": "Returns the admin role that controls `role`. See {grantRole} and {revokeRole}. To change a role's admin, use {_setRoleAdmin}."
      },
      "getRoleMember(bytes32,uint256)": {
        "details": "Returns one of the accounts that have `role`. `index` must be a value between 0 and {getRoleMemberCount}, non-inclusive. Role bearers are not sorted in any particular way, and their ordering may change at any point. WARNING: When using {getRoleMember} and {getRoleMemberCount}, make sure you perform all queries on the same block. See the following https://forum.openzeppelin.com/t/iterating-over-elements-on-enumerableset-in-openzeppelin-contracts/2296[forum post] for more information."
      },
      "getRoleMemberCount(bytes32)": {
        "details": "Returns the number of accounts that have `role`. Can be used together with {getRoleMember} to enumerate all bearers of a role."
      },
      "grantRole(bytes32,address)": {
        "details": "If `account` had not been already granted `role`, emits a {RoleGranted} event. Requirements: - the caller must be the `owner` or have ``role``'s admin role. - the role granted can't be `DEFAULT_ADMIN`",
        "params": {
          "account": "The address of the account",
          "role": "The role to grant"
        }
      },
      "hasBatchToReveal()": {
        "returns": {
          "_0": "bool Whether reveal can be triggered or not",
          "_1": "uint256 The number of the next batch that will be revealed"
        }
      },
      "hasRole(bytes32,address)": {
        "details": "Returns `true` if `account` has been granted `role`."
      },
      "initialize(string,string,address,address,uint256,uint256,uint256,uint256,uint256)": {
        "params": {
          "_amountForAllowlist": "Amount of NFTs available for the allowlist mint (e.g 1000)",
          "_amountForAuction": "Amount of NFTs available for the auction (e.g 8000)",
          "_amountForDevs": "Amount of NFTs reserved for `projectOwner` (e.g 200)",
          "_collectionSize": "The collection size (e.g 10000)",
          "_maxBatchSize": "Max amount of NFTs that can be minted at once",
          "_name": "ERC721 name",
          "_projectOwner": "The project owner",
          "_royaltyReceiver": "Royalty fee collector",
          "_symbol": "ERC721 symbol"
        }
      },
      "initializeJoeFee(uint256,address)": {
        "params": {
          "_joeFeeCollector": "The address to which the fees on the sale will be sent",
          "_joeFeePercent": "The fees collected by Joepegs on the sale benefits"
        }
      },
      "initializePhases(uint256,uint256,uint256,uint256,uint256,uint256,uint256,uint256,uint256,uint256)": {
        "details": "Can only be called once",
        "params": {
          "_allowlistDiscountPercent": "Discount applied to the last auction price during the allowlist mint",
          "_allowlistStartTime": "Allowlist mint start time in seconds",
          "_auctionDropInterval": "Time elapsed between each drop in price in seconds",
          "_auctionEndPrice": "Auction floor price in AVAX",
          "_auctionSaleStartTime": "Auction start time in seconds",
          "_auctionStartPrice": "Auction start price in AVAX",
          "_preMintStartTime": "Pre-mint start time in seconds",
          "_publicSaleDiscountPercent": "Discount applied to the last auction price during the public sale",
          "_publicSaleEndTime": "Public sale end time in seconds",
          "_publicSaleStartTime": "Public sale start time in seconds"
        }
      },
      "isApprovedForAll(address,address)": {
        "details": "See {IERC721-isApprovedForAll}."
      },
      "name()": {
        "details": "See {IERC721Metadata-name}."
      },
      "numberMinted(address)": {
        "params": {
          "_owner": "The owner of the NFTs"
        },
        "returns": {
          "_0": "numberMinted Number of NFTs minted"
        }
      },
      "owner()": {
        "returns": {
          "_0": "The address of the current owner"
        }
      },
      "ownerOf(uint256)": {
        "details": "See {IERC721-ownerOf}."
      },
      "pause()": {
        "details": "Sensible part of a contract might be pausable for security reasons. Requirements: - the caller must be the `owner` or have the ``role`` role. - the contrat needs to be unpaused."
      },
      "paused()": {
        "details": "Returns true if the contract is paused, and false otherwise."
      },
      "pendingOwner()": {
        "returns": {
          "_0": "The address of the current pending owner"
        }
      },
      "preMint(uint256)": {
        "params": {
          "_quantity": "Quantity of NFTs to mint"
        }
      },
      "publicSaleMint(uint256)": {
        "params": {
          "_quantity": "Quantity of NFTs to mint"
        }
      },
      "renounceRole(bytes32,address)": {
        "details": "Roles are often managed via {grantRole} and {revokeRole}: this function's purpose is to provide a mechanism for accounts to lose their privileges if they are compromised (such as when a trusted device is misplaced). If the calling account had been revoked `role`, emits a {RoleRevoked} event. Requirements: - the caller must be `account`. - the role renounced can't be `DEFAULT_ADMIN`",
        "params": {
          "account": "The address of the account",
          "role": "The role to renounce"
        }
      },
      "revokeRole(bytes32,address)": {
        "details": "If `account` had been granted `role`, emits a {RoleRevoked} event. Requirements: - the caller must be the `owner` or have ``role``'s admin role. - the role revoked can't be `DEFAULT_ADMIN`",
        "params": {
          "account": "The address of the account",
          "role": "The role to revoke"
        }
      },
      "royaltyInfo(uint256,uint256)": {
        "details": "Returns how much royalty is owed and to whom, based on a sale price that may be denominated in any unit of exchange. The royalty amount is denominated and should be payed in that same unit of exchange."
      },
      "safeTransferFrom(address,address,uint256)": {
        "details": "See {IERC721-safeTransferFrom}."
      },
      "safeTransferFrom(address,address,uint256,bytes)": {
        "details": "See {IERC721-safeTransferFrom}."
      },
      "salePrice()": {
        "returns": {
          "_0": "publicSalePrice Public sale price"
        }
      },
      "seedAllowlist(address[],uint256[])": {
        "params": {
          "_addresses": "List of addresses allowed to mint during the allowlist phase",
          "_numNfts": "List of NFT quantities mintable per address"
        }
      },
      "setAllowlistStartTime(uint256)": {
        "details": "Only callable by owner",
        "params": {
          "_allowlistStartTime": "New allowlist start time"
        }
      },
      "setApprovalForAll(address,bool)": {
        "details": "See {IERC721-setApprovalForAll}."
      },
      "setAuctionSaleStartTime(uint256)": {
        "details": "Only callable by owner",
        "params": {
          "_auctionSaleStartTime": "New auction sale start time"
        }
      },
      "setBaseURI(string)": {
        "details": "This sets the URI for revealed tokens Only callable by project owner",
        "params": {
          "_baseURI": "Base URI to be set"
        }
      },
      "setBatchReveal(address)": {
        "details": "Can be set to zero address to disable batch reveal"
      },
      "setPreMintStartTime(uint256)": {
        "details": "Only callable by owner",
        "params": {
          "_preMintStartTime": "New pre-mint start time"
        }
      },
      "setPublicSaleEndTime(uint256)": {
        "details": "Only callable by owner",
        "params": {
          "_publicSaleEndTime": "New public sale end time"
        }
      },
      "setPublicSaleStartTime(uint256)": {
        "details": "Only callable by owner",
        "params": {
          "_publicSaleStartTime": "New public sale start time"
        }
      },
      "setRoyaltyInfo(address,uint96)": {
        "params": {
          "_feePercent": "Royalty fee percent in basis point",
          "_receiver": "Royalty fee collector"
        }
      },
      "setUnrevealedURI(string)": {
        "details": "Only callable by project owner",
        "params": {
          "_unrevealedURI": "Unrevealed URI to be set"
        }
      },
      "setWithdrawAVAXStartTime(uint256)": {
        "params": {
          "_withdrawAVAXStartTime": "New public sale end time"
        }
      },
      "supportsInterface(bytes4)": {
        "details": "Returns true if this contract implements the interface defined by `interfaceId`. See the corresponding https://eips.ethereum.org/EIPS/eip-165#how-interfaces-are-identified[EIP section] to learn more about how these IDs are created. This function call must use less than 30 000 gas.",
        "params": {
          "_interfaceId": "InterfaceId to consider. Comes from type(InterfaceContract).interfaceId"
        },
        "returns": {
          "_0": "isInterfaceSupported True if the considered interface is supported"
        }
      },
      "symbol()": {
        "details": "See {IERC721Metadata-symbol}."
      },
      "tokenURI(uint256)": {
        "params": {
          "_id": "Token id"
        },
        "returns": {
          "_0": "URI Token URI"
        }
      },
      "totalSupply()": {
        "details": "Burned tokens are calculated here, use _totalMinted() if you want to count just minted tokens."
      },
      "transferFrom(address,address,uint256)": {
        "details": "See {IERC721-transferFrom}."
      },
      "unpause()": {
        "details": "Sensible part of a contract might be pausable for security reasons. Requirements: - the caller must be the `owner` or have the ``role`` role. - the contrat needs to be unpaused."
      },
      "withdrawAVAX(address)": {
        "params": {
          "_to": "Recipient of the earned AVAX"
        }
      }
    },
    "stateVariables": {
      "allowlistDiscountPercent": {
        "details": "In basis points e.g 500 for 5%"
      },
      "auctionDropInterval": {
        "details": "In seconds"
      },
      "auctionEndPrice": {
        "details": "auctionEndPrice is scaled to 1e18"
      },
      "auctionSaleDuration": {
        "details": "allowlistStartTime - auctionSaleStartTime"
      },
      "auctionSaleStartTime": {
        "details": "Timestamp"
      },
      "auctionStartPrice": {
        "details": "auctionStartPrice is scaled to 1e18"
      },
      "lastAuctionPrice": {
        "details": "lastAuctionPrice is scaled to 1e18"
      },
      "publicSaleDiscountPercent": {
        "details": "In basis points e.g 2500 for 25%"
      }
    },
    "title": "Launchpeg",
    "version": 1
  },
  "userdoc": {
    "kind": "user",
    "methods": {
      "BASIS_POINT_PRECISION()": {
        "notice": "Percentage base point"
      },
      "PROJECT_OWNER_ROLE()": {
        "notice": "Role granted to project owners"
      },
      "allowlist(address)": {
        "notice": "The amount of NFTs each allowed address can mint during the pre-mint or allowlist mint"
      },
      "allowlistDiscountPercent()": {
        "notice": "The discount applied to the last auction price during the allowlist mint"
      },
      "allowlistMint(uint256)": {
        "notice": "Mint NFTs during the allowlist mint"
      },
      "allowlistPrice()": {
        "notice": "Returns the price of the allowlist mint"
      },
      "allowlistStartTime()": {
        "notice": "Start time of the allowlist mint in seconds"
      },
      "amountBatchMinted()": {
        "notice": "Tracks the amount of NFTs batch minted"
      },
      "amountForAllowlist()": {
        "notice": "Amount of NFTs available for the allowlist mint (e.g 1000)"
      },
      "amountForAuction()": {
        "notice": "Amount of NFTs available for the auction (e.g 8000) Unsold items are put up for sale during the public sale."
      },
      "amountForDevs()": {
        "notice": "Amount of NFTs reserved for the project owner (e.g 200)"
      },
      "amountMintedByDevs()": {
        "notice": "Tracks the amount of NFTs minted by `projectOwner`"
      },
      "amountMintedDuringAllowlist()": {
        "notice": "Tracks the amount of NFTs minted on Allowlist phase"
      },
      "amountMintedDuringAuction()": {
        "notice": "Tracks the amount of NFTs minted during the dutch auction"
      },
      "amountMintedDuringPreMint()": {
        "notice": "Tracks the amount of NFTs minted in the Pre-Mint phase"
      },
      "amountMintedDuringPublicSale()": {
        "notice": "Tracks the amount of NFTs minted on Public Sale phase"
      },
      "auctionDropInterval()": {
        "notice": "Time elapsed between each drop in price"
      },
      "auctionDropPerStep()": {
        "notice": "Amount in AVAX deducted at each interval"
      },
      "auctionEndPrice()": {
        "notice": "Auction floor price in AVAX"
      },
      "auctionMint(uint256)": {
        "notice": "Mint NFTs during the dutch auction"
      },
      "auctionSaleDuration()": {
        "notice": "Duration of the auction in seconds"
      },
      "auctionSaleStartTime()": {
        "notice": "Start time of the dutch auction in seconds"
      },
      "auctionStartPrice()": {
        "notice": "Auction start price in AVAX"
      },
      "baseURI()": {
        "notice": "Token URI after collection reveal"
      },
      "batchMintPreMintedNFTs(uint256)": {
        "notice": "Batch mint NFTs requested during the pre-mint"
      },
      "becomeOwner()": {
        "notice": "Transfers the ownership to the new owner (`pendingOwner`). Can only be called by the pending owner"
      },
      "collectionSize()": {
        "notice": "The collection size (e.g 10000)"
      },
      "currentPhase()": {
        "notice": "Returns the current phase"
      },
      "devMint(uint256)": {
        "notice": "Mint NFTs to the project owner"
      },
      "getAuctionPrice(uint256)": {
        "notice": "Returns the current price of the dutch auction"
      },
      "getOwnershipData(uint256)": {
        "notice": "Returns the ownership data of a specific token ID"
      },
      "grantRole(bytes32,address)": {
        "notice": "Grants `role` to `account`."
      },
      "hasBatchToReveal()": {
        "notice": "Tells you if a batch can be revealed"
      },
      "initialize(string,string,address,address,uint256,uint256,uint256,uint256,uint256)": {
        "notice": "Launchpeg initialization Can only be called once"
      },
      "initializeJoeFee(uint256,address)": {
        "notice": "Initialize the sales fee percent taken by Joepegs and address that collects the fees"
      },
      "initializePhases(uint256,uint256,uint256,uint256,uint256,uint256,uint256,uint256,uint256,uint256)": {
        "notice": "Initialize the three phases of the sale"
      },
      "joeFeeCollector()": {
        "notice": "The address to which the fees on the sale will be sent"
      },
      "joeFeePercent()": {
        "notice": "The fees collected by Joepegs on the sale benefits"
      },
      "lastAuctionPrice()": {
        "notice": "The price of the last NFT sold during the auction"
      },
      "maxBatchSize()": {
        "notice": "Max amount of NFTs that can be minted at once"
      },
      "maxPerAddressDuringMint()": {
        "notice": "Max amount of NFTs an address can mint"
      },
      "numberMinted(address)": {
        "notice": "Returns the number of NFTs minted by a specific address"
      },
      "owner()": {
        "notice": "Returns the address of the current owner"
      },
      "pause()": {
        "notice": "Pauses the contract."
      },
      "pendingOwner()": {
        "notice": "Returns the address of the current pending owner"
      },
      "preMint(uint256)": {
        "notice": "Mint NFTs during the pre-mint"
      },
      "preMintStartTime()": {
        "notice": "Start time of the pre-mint in seconds"
      },
      "publicSaleDiscountPercent()": {
        "notice": "The discount applied to the last auction price during the public sale"
      },
      "publicSaleEndTime()": {
        "notice": "End time of the public sale in seconds"
      },
      "publicSaleMint(uint256)": {
        "notice": "Mint NFTs during the public sale"
      },
      "publicSaleStartTime()": {
        "notice": "Start time of the public sale in seconds"
      },
      "renounceOwnership()": {
        "notice": "Leaves the contract without owner. It will not be possible to call `onlyOwner` functions anymore. Can only be called by the current owner. NOTE: Renouncing ownership will leave the contract without an owner, thereby removing any functionality that is only available to the owner."
      },
      "renounceRole(bytes32,address)": {
        "notice": "Revokes `role` from the calling account."
      },
      "revealNextBatch()": {
        "notice": "Reveals the next batch if the reveal conditions are met"
      },
      "revokePendingOwner()": {
        "notice": "Revoke the pending owner address. This address will not be able to call {becomeOwner} to become the owner anymore. Can only be called by the owner"
      },
      "revokeRole(bytes32,address)": {
        "notice": "Revokes `role` from `account`."
      },
      "salePrice()": {
        "notice": "Returns the price of the public sale"
      },
      "seedAllowlist(address[],uint256[])": {
        "notice": "Set amount of NFTs mintable per address during the allowlist phase"
      },
      "setAllowlistStartTime(uint256)": {
        "notice": "Set the allowlist start time. Can only be set after phases have been initialized."
      },
      "setAuctionSaleStartTime(uint256)": {
        "notice": "Set the auction sale start time. Can only be set after phases have been initialized."
      },
      "setBaseURI(string)": {
        "notice": "Set the base URI"
      },
      "setBatchReveal(address)": {
        "notice": "Update batch reveal"
      },
      "setPendingOwner(address)": {
        "notice": "Sets the pending owner address. This address will be able to become the owner of this contract by calling {becomeOwner}"
      },
      "setPreMintStartTime(uint256)": {
        "notice": "Set the pre-mint start time. Can only be set after phases have been initialized."
      },
      "setPublicSaleEndTime(uint256)": {
        "notice": "Set the public sale end time. Can only be set after phases have been initialized."
      },
      "setPublicSaleStartTime(uint256)": {
        "notice": "Set the public sale start time. Can only be set after phases have been initialized."
      },
      "setRoyaltyInfo(address,uint96)": {
        "notice": "Set the royalty fee"
      },
      "setUnrevealedURI(string)": {
        "notice": "Set the unrevealed URI"
      },
      "setWithdrawAVAXStartTime(uint256)": {
        "notice": "Set the withdraw AVAX start time."
      },
      "tokenURI(uint256)": {
        "notice": "Returns the Uniform Resource Identifier (URI) for `tokenId` token."
      },
      "unpause()": {
        "notice": "Unpauses the contract."
      },
      "unrevealedURI()": {
        "notice": "Token URI before the collection reveal"
      },
      "withdrawAVAX(address)": {
        "notice": "Withdraw AVAX to the given recipient"
      },
      "withdrawAVAXStartTime()": {
        "notice": "Start time when funds can be withdrawn"
      }
    },
    "notice": "Implements a fair and gas efficient NFT launch mechanism. The sale takes place in 3 phases: dutch auction, allowlist mint, public sale.",
    "version": 1
  },
  "storageLayout": {
    "storage": [
      {
        "astId": 810,
        "contract": "contracts/Launchpeg.sol:Launchpeg",
        "label": "_initialized",
        "offset": 0,
        "slot": "0",
        "type": "t_bool"
      },
      {
        "astId": 813,
        "contract": "contracts/Launchpeg.sol:Launchpeg",
        "label": "_initializing",
        "offset": 1,
        "slot": "0",
        "type": "t_bool"
      },
      {
        "astId": 1710,
        "contract": "contracts/Launchpeg.sol:Launchpeg",
        "label": "__gap",
        "offset": 0,
        "slot": "1",
        "type": "t_array(t_uint256)50_storage"
      },
      {
        "astId": 1957,
        "contract": "contracts/Launchpeg.sol:Launchpeg",
        "label": "__gap",
        "offset": 0,
        "slot": "51",
        "type": "t_array(t_uint256)50_storage"
      },
      {
        "astId": 11650,
        "contract": "contracts/Launchpeg.sol:Launchpeg",
        "label": "_currentIndex",
        "offset": 0,
        "slot": "101",
        "type": "t_uint256"
      },
      {
        "astId": 11652,
        "contract": "contracts/Launchpeg.sol:Launchpeg",
        "label": "_burnCounter",
        "offset": 0,
        "slot": "102",
        "type": "t_uint256"
      },
      {
        "astId": 11654,
        "contract": "contracts/Launchpeg.sol:Launchpeg",
        "label": "_name",
        "offset": 0,
        "slot": "103",
        "type": "t_string_storage"
      },
      {
        "astId": 11656,
        "contract": "contracts/Launchpeg.sol:Launchpeg",
        "label": "_symbol",
        "offset": 0,
        "slot": "104",
        "type": "t_string_storage"
      },
      {
        "astId": 11661,
        "contract": "contracts/Launchpeg.sol:Launchpeg",
        "label": "_ownerships",
        "offset": 0,
        "slot": "105",
        "type": "t_mapping(t_uint256,t_struct(TokenOwnership)11639_storage)"
      },
      {
        "astId": 11666,
        "contract": "contracts/Launchpeg.sol:Launchpeg",
        "label": "_addressData",
        "offset": 0,
        "slot": "106",
        "type": "t_mapping(t_address,t_struct(AddressData)11648_storage)"
      },
      {
        "astId": 11670,
        "contract": "contracts/Launchpeg.sol:Launchpeg",
        "label": "_tokenApprovals",
        "offset": 0,
        "slot": "107",
        "type": "t_mapping(t_uint256,t_address)"
      },
      {
        "astId": 11676,
        "contract": "contracts/Launchpeg.sol:Launchpeg",
        "label": "_operatorApprovals",
        "offset": 0,
        "slot": "108",
        "type": "t_mapping(t_address,t_mapping(t_address,t_bool))"
      },
      {
        "astId": 12924,
        "contract": "contracts/Launchpeg.sol:Launchpeg",
        "label": "__gap",
        "offset": 0,
        "slot": "109",
        "type": "t_array(t_uint256)42_storage"
      },
      {
        "astId": 11028,
        "contract": "contracts/Launchpeg.sol:Launchpeg",
        "label": "_owner",
        "offset": 0,
        "slot": "151",
        "type": "t_address"
      },
      {
        "astId": 11030,
        "contract": "contracts/Launchpeg.sol:Launchpeg",
        "label": "_pendingOwner",
        "offset": 0,
        "slot": "152",
        "type": "t_address"
      },
      {
        "astId": 273,
        "contract": "contracts/Launchpeg.sol:Launchpeg",
        "label": "_roles",
        "offset": 0,
        "slot": "153",
        "type": "t_mapping(t_bytes32,t_struct(RoleData)268_storage)"
      },
      {
        "astId": 561,
        "contract": "contracts/Launchpeg.sol:Launchpeg",
        "label": "__gap",
        "offset": 0,
        "slot": "154",
        "type": "t_array(t_uint256)49_storage"
      },
      {
        "astId": 122,
        "contract": "contracts/Launchpeg.sol:Launchpeg",
        "label": "_roleMembers",
        "offset": 0,
        "slot": "203",
        "type": "t_mapping(t_bytes32,t_struct(AddressSet)2282_storage)"
      },
      {
        "astId": 232,
        "contract": "contracts/Launchpeg.sol:Launchpeg",
        "label": "__gap",
        "offset": 0,
        "slot": "204",
        "type": "t_array(t_uint256)49_storage"
      },
      {
        "astId": 898,
        "contract": "contracts/Launchpeg.sol:Launchpeg",
        "label": "_paused",
        "offset": 0,
        "slot": "253",
        "type": "t_bool"
      },
      {
        "astId": 987,
        "contract": "contracts/Launchpeg.sol:Launchpeg",
        "label": "__gap",
        "offset": 0,
        "slot": "254",
        "type": "t_array(t_uint256)49_storage"
      },
      {
        "astId": 1002,
        "contract": "contracts/Launchpeg.sol:Launchpeg",
        "label": "_status",
        "offset": 0,
        "slot": "303",
        "type": "t_uint256"
      },
      {
        "astId": 1046,
        "contract": "contracts/Launchpeg.sol:Launchpeg",
        "label": "__gap",
        "offset": 0,
        "slot": "304",
        "type": "t_array(t_uint256)49_storage"
      },
      {
        "astId": 1240,
        "contract": "contracts/Launchpeg.sol:Launchpeg",
        "label": "_defaultRoyaltyInfo",
        "offset": 0,
        "slot": "353",
        "type": "t_struct(RoyaltyInfo)1237_storage"
      },
      {
        "astId": 1245,
        "contract": "contracts/Launchpeg.sol:Launchpeg",
        "label": "_tokenRoyaltyInfo",
        "offset": 0,
        "slot": "354",
        "type": "t_mapping(t_uint256,t_struct(RoyaltyInfo)1237_storage)"
      },
      {
        "astId": 1425,
        "contract": "contracts/Launchpeg.sol:Launchpeg",
        "label": "__gap",
        "offset": 0,
        "slot": "355",
        "type": "t_array(t_uint256)48_storage"
      },
      {
        "astId": 3275,
        "contract": "contracts/Launchpeg.sol:Launchpeg",
        "label": "batchReveal",
        "offset": 0,
        "slot": "403",
        "type": "t_contract(IBatchReveal)10547"
      },
      {
        "astId": 3286,
        "contract": "contracts/Launchpeg.sol:Launchpeg",
        "label": "collectionSize",
        "offset": 0,
        "slot": "404",
        "type": "t_uint256"
      },
      {
        "astId": 3290,
        "contract": "contracts/Launchpeg.sol:Launchpeg",
        "label": "amountForDevs",
        "offset": 0,
        "slot": "405",
        "type": "t_uint256"
      },
      {
        "astId": 3294,
        "contract": "contracts/Launchpeg.sol:Launchpeg",
        "label": "amountForAllowlist",
        "offset": 0,
        "slot": "406",
        "type": "t_uint256"
      },
      {
        "astId": 3298,
        "contract": "contracts/Launchpeg.sol:Launchpeg",
        "label": "maxBatchSize",
        "offset": 0,
        "slot": "407",
        "type": "t_uint256"
      },
      {
        "astId": 3302,
        "contract": "contracts/Launchpeg.sol:Launchpeg",
        "label": "maxPerAddressDuringMint",
        "offset": 0,
        "slot": "408",
        "type": "t_uint256"
      },
      {
        "astId": 3306,
        "contract": "contracts/Launchpeg.sol:Launchpeg",
        "label": "joeFeePercent",
        "offset": 0,
        "slot": "409",
        "type": "t_uint256"
      },
      {
        "astId": 3310,
        "contract": "contracts/Launchpeg.sol:Launchpeg",
        "label": "joeFeeCollector",
        "offset": 0,
        "slot": "410",
        "type": "t_address"
      },
      {
        "astId": 3318,
        "contract": "contracts/Launchpeg.sol:Launchpeg",
        "label": "baseURI",
        "offset": 0,
        "slot": "411",
        "type": "t_string_storage"
      },
      {
        "astId": 3322,
        "contract": "contracts/Launchpeg.sol:Launchpeg",
        "label": "unrevealedURI",
        "offset": 0,
        "slot": "412",
        "type": "t_string_storage"
      },
      {
        "astId": 3328,
        "contract": "contracts/Launchpeg.sol:Launchpeg",
        "label": "allowlist",
        "offset": 0,
        "slot": "413",
        "type": "t_mapping(t_address,t_uint256)"
      },
      {
        "astId": 3333,
        "contract": "contracts/Launchpeg.sol:Launchpeg",
        "label": "userAddressToPreMintAmount",
        "offset": 0,
        "slot": "414",
        "type": "t_mapping(t_address,t_uint256)"
      },
      {
        "astId": 3337,
        "contract": "contracts/Launchpeg.sol:Launchpeg",
        "label": "amountMintedByDevs",
        "offset": 0,
        "slot": "415",
        "type": "t_uint256"
      },
      {
        "astId": 3341,
        "contract": "contracts/Launchpeg.sol:Launchpeg",
        "label": "amountMintedDuringPreMint",
        "offset": 0,
        "slot": "416",
        "type": "t_uint256"
      },
      {
        "astId": 3345,
        "contract": "contracts/Launchpeg.sol:Launchpeg",
        "label": "amountBatchMinted",
        "offset": 0,
        "slot": "417",
        "type": "t_uint256"
      },
      {
        "astId": 3349,
        "contract": "contracts/Launchpeg.sol:Launchpeg",
        "label": "amountMintedDuringAllowlist",
        "offset": 0,
        "slot": "418",
        "type": "t_uint256"
      },
      {
        "astId": 3353,
        "contract": "contracts/Launchpeg.sol:Launchpeg",
        "label": "amountMintedDuringPublicSale",
        "offset": 0,
        "slot": "419",
        "type": "t_uint256"
      },
      {
        "astId": 3357,
        "contract": "contracts/Launchpeg.sol:Launchpeg",
        "label": "preMintStartTime",
        "offset": 0,
        "slot": "420",
        "type": "t_uint256"
      },
      {
        "astId": 3361,
        "contract": "contracts/Launchpeg.sol:Launchpeg",
        "label": "allowlistStartTime",
        "offset": 0,
        "slot": "421",
        "type": "t_uint256"
      },
      {
        "astId": 3365,
        "contract": "contracts/Launchpeg.sol:Launchpeg",
        "label": "publicSaleStartTime",
        "offset": 0,
        "slot": "422",
        "type": "t_uint256"
      },
      {
        "astId": 3369,
        "contract": "contracts/Launchpeg.sol:Launchpeg",
        "label": "publicSaleEndTime",
        "offset": 0,
        "slot": "423",
        "type": "t_uint256"
      },
      {
        "astId": 3373,
        "contract": "contracts/Launchpeg.sol:Launchpeg",
        "label": "withdrawAVAXStartTime",
        "offset": 0,
        "slot": "424",
        "type": "t_uint256"
      },
      {
        "astId": 3378,
        "contract": "contracts/Launchpeg.sol:Launchpeg",
        "label": "preMintQueue",
        "offset": 0,
        "slot": "425",
        "type": "t_array(t_struct(PreMintData)3386_storage)dyn_storage"
      },
      {
        "astId": 3381,
        "contract": "contracts/Launchpeg.sol:Launchpeg",
        "label": "preMintQueueIdx",
        "offset": 0,
        "slot": "426",
        "type": "t_uint256"
      },
      {
        "astId": 6742,
        "contract": "contracts/Launchpeg.sol:Launchpeg",
        "label": "amountForAuction",
        "offset": 0,
        "slot": "427",
        "type": "t_uint256"
      },
      {
        "astId": 6746,
        "contract": "contracts/Launchpeg.sol:Launchpeg",
        "label": "auctionSaleStartTime",
        "offset": 0,
        "slot": "428",
        "type": "t_uint256"
      },
      {
        "astId": 6750,
        "contract": "contracts/Launchpeg.sol:Launchpeg",
        "label": "auctionStartPrice",
        "offset": 0,
        "slot": "429",
        "type": "t_uint256"
      },
      {
        "astId": 6754,
        "contract": "contracts/Launchpeg.sol:Launchpeg",
        "label": "auctionEndPrice",
        "offset": 0,
        "slot": "430",
        "type": "t_uint256"
      },
      {
        "astId": 6758,
        "contract": "contracts/Launchpeg.sol:Launchpeg",
        "label": "auctionSaleDuration",
        "offset": 0,
        "slot": "431",
        "type": "t_uint256"
      },
      {
        "astId": 6762,
        "contract": "contracts/Launchpeg.sol:Launchpeg",
        "label": "auctionDropInterval",
        "offset": 0,
        "slot": "432",
        "type": "t_uint256"
      },
      {
        "astId": 6766,
        "contract": "contracts/Launchpeg.sol:Launchpeg",
        "label": "auctionDropPerStep",
        "offset": 0,
        "slot": "433",
        "type": "t_uint256"
      },
      {
        "astId": 6770,
        "contract": "contracts/Launchpeg.sol:Launchpeg",
        "label": "allowlistDiscountPercent",
        "offset": 0,
        "slot": "434",
        "type": "t_uint256"
      },
      {
        "astId": 6774,
        "contract": "contracts/Launchpeg.sol:Launchpeg",
        "label": "publicSaleDiscountPercent",
        "offset": 0,
        "slot": "435",
        "type": "t_uint256"
      },
      {
        "astId": 6778,
        "contract": "contracts/Launchpeg.sol:Launchpeg",
        "label": "amountMintedDuringAuction",
        "offset": 0,
        "slot": "436",
        "type": "t_uint256"
      },
      {
        "astId": 6782,
        "contract": "contracts/Launchpeg.sol:Launchpeg",
        "label": "lastAuctionPrice",
        "offset": 0,
        "slot": "437",
        "type": "t_uint256"
      }
    ],
    "types": {
      "t_address": {
        "encoding": "inplace",
        "label": "address",
        "numberOfBytes": "20"
      },
      "t_array(t_bytes32)dyn_storage": {
        "base": "t_bytes32",
        "encoding": "dynamic_array",
        "label": "bytes32[]",
        "numberOfBytes": "32"
      },
      "t_array(t_struct(PreMintData)3386_storage)dyn_storage": {
        "base": "t_struct(PreMintData)3386_storage",
        "encoding": "dynamic_array",
        "label": "struct BaseLaunchpeg.PreMintData[]",
        "numberOfBytes": "32"
      },
      "t_array(t_uint256)42_storage": {
        "base": "t_uint256",
        "encoding": "inplace",
        "label": "uint256[42]",
        "numberOfBytes": "1344"
      },
      "t_array(t_uint256)48_storage": {
        "base": "t_uint256",
        "encoding": "inplace",
        "label": "uint256[48]",
        "numberOfBytes": "1536"
      },
      "t_array(t_uint256)49_storage": {
        "base": "t_uint256",
        "encoding": "inplace",
        "label": "uint256[49]",
        "numberOfBytes": "1568"
      },
      "t_array(t_uint256)50_storage": {
        "base": "t_uint256",
        "encoding": "inplace",
        "label": "uint256[50]",
        "numberOfBytes": "1600"
      },
      "t_bool": {
        "encoding": "inplace",
        "label": "bool",
        "numberOfBytes": "1"
      },
      "t_bytes32": {
        "encoding": "inplace",
        "label": "bytes32",
        "numberOfBytes": "32"
      },
      "t_contract(IBatchReveal)10547": {
        "encoding": "inplace",
        "label": "contract IBatchReveal",
        "numberOfBytes": "20"
      },
      "t_mapping(t_address,t_bool)": {
        "encoding": "mapping",
        "key": "t_address",
        "label": "mapping(address => bool)",
        "numberOfBytes": "32",
        "value": "t_bool"
      },
      "t_mapping(t_address,t_mapping(t_address,t_bool))": {
        "encoding": "mapping",
        "key": "t_address",
        "label": "mapping(address => mapping(address => bool))",
        "numberOfBytes": "32",
        "value": "t_mapping(t_address,t_bool)"
      },
      "t_mapping(t_address,t_struct(AddressData)11648_storage)": {
        "encoding": "mapping",
        "key": "t_address",
        "label": "mapping(address => struct ERC721AUpgradeable.AddressData)",
        "numberOfBytes": "32",
        "value": "t_struct(AddressData)11648_storage"
      },
      "t_mapping(t_address,t_uint256)": {
        "encoding": "mapping",
        "key": "t_address",
        "label": "mapping(address => uint256)",
        "numberOfBytes": "32",
        "value": "t_uint256"
      },
      "t_mapping(t_bytes32,t_struct(AddressSet)2282_storage)": {
        "encoding": "mapping",
        "key": "t_bytes32",
        "label": "mapping(bytes32 => struct EnumerableSetUpgradeable.AddressSet)",
        "numberOfBytes": "32",
        "value": "t_struct(AddressSet)2282_storage"
      },
      "t_mapping(t_bytes32,t_struct(RoleData)268_storage)": {
        "encoding": "mapping",
        "key": "t_bytes32",
        "label": "mapping(bytes32 => struct AccessControlUpgradeable.RoleData)",
        "numberOfBytes": "32",
        "value": "t_struct(RoleData)268_storage"
      },
      "t_mapping(t_bytes32,t_uint256)": {
        "encoding": "mapping",
        "key": "t_bytes32",
        "label": "mapping(bytes32 => uint256)",
        "numberOfBytes": "32",
        "value": "t_uint256"
      },
      "t_mapping(t_uint256,t_address)": {
        "encoding": "mapping",
        "key": "t_uint256",
        "label": "mapping(uint256 => address)",
        "numberOfBytes": "32",
        "value": "t_address"
      },
      "t_mapping(t_uint256,t_struct(RoyaltyInfo)1237_storage)": {
        "encoding": "mapping",
        "key": "t_uint256",
        "label": "mapping(uint256 => struct ERC2981Upgradeable.RoyaltyInfo)",
        "numberOfBytes": "32",
        "value": "t_struct(RoyaltyInfo)1237_storage"
      },
      "t_mapping(t_uint256,t_struct(TokenOwnership)11639_storage)": {
        "encoding": "mapping",
        "key": "t_uint256",
        "label": "mapping(uint256 => struct ERC721AUpgradeable.TokenOwnership)",
        "numberOfBytes": "32",
        "value": "t_struct(TokenOwnership)11639_storage"
      },
      "t_string_storage": {
        "encoding": "bytes",
        "label": "string",
        "numberOfBytes": "32"
      },
      "t_struct(AddressData)11648_storage": {
        "encoding": "inplace",
        "label": "struct ERC721AUpgradeable.AddressData",
        "members": [
          {
            "astId": 11641,
            "contract": "contracts/Launchpeg.sol:Launchpeg",
            "label": "balance",
            "offset": 0,
            "slot": "0",
            "type": "t_uint64"
          },
          {
            "astId": 11643,
            "contract": "contracts/Launchpeg.sol:Launchpeg",
            "label": "numberMinted",
            "offset": 8,
            "slot": "0",
            "type": "t_uint64"
          },
          {
            "astId": 11645,
            "contract": "contracts/Launchpeg.sol:Launchpeg",
            "label": "numberBurned",
            "offset": 16,
            "slot": "0",
            "type": "t_uint64"
          },
          {
            "astId": 11647,
            "contract": "contracts/Launchpeg.sol:Launchpeg",
            "label": "aux",
            "offset": 24,
            "slot": "0",
            "type": "t_uint64"
          }
        ],
        "numberOfBytes": "32"
      },
      "t_struct(AddressSet)2282_storage": {
        "encoding": "inplace",
        "label": "struct EnumerableSetUpgradeable.AddressSet",
        "members": [
          {
            "astId": 2281,
            "contract": "contracts/Launchpeg.sol:Launchpeg",
            "label": "_inner",
            "offset": 0,
            "slot": "0",
            "type": "t_struct(Set)1981_storage"
          }
        ],
        "numberOfBytes": "64"
      },
      "t_struct(PreMintData)3386_storage": {
        "encoding": "inplace",
        "label": "struct BaseLaunchpeg.PreMintData",
        "members": [
          {
            "astId": 3383,
            "contract": "contracts/Launchpeg.sol:Launchpeg",
            "label": "sender",
            "offset": 0,
            "slot": "0",
            "type": "t_address"
          },
          {
            "astId": 3385,
            "contract": "contracts/Launchpeg.sol:Launchpeg",
            "label": "quantity",
            "offset": 0,
            "slot": "1",
            "type": "t_uint256"
          }
        ],
        "numberOfBytes": "64"
      },
      "t_struct(RoleData)268_storage": {
        "encoding": "inplace",
        "label": "struct AccessControlUpgradeable.RoleData",
        "members": [
          {
            "astId": 265,
            "contract": "contracts/Launchpeg.sol:Launchpeg",
            "label": "members",
            "offset": 0,
            "slot": "0",
            "type": "t_mapping(t_address,t_bool)"
          },
          {
            "astId": 267,
            "contract": "contracts/Launchpeg.sol:Launchpeg",
            "label": "adminRole",
            "offset": 0,
            "slot": "1",
            "type": "t_bytes32"
          }
        ],
        "numberOfBytes": "64"
      },
      "t_struct(RoyaltyInfo)1237_storage": {
        "encoding": "inplace",
        "label": "struct ERC2981Upgradeable.RoyaltyInfo",
        "members": [
          {
            "astId": 1234,
            "contract": "contracts/Launchpeg.sol:Launchpeg",
            "label": "receiver",
            "offset": 0,
            "slot": "0",
            "type": "t_address"
          },
          {
            "astId": 1236,
            "contract": "contracts/Launchpeg.sol:Launchpeg",
            "label": "royaltyFraction",
            "offset": 20,
            "slot": "0",
            "type": "t_uint96"
          }
        ],
        "numberOfBytes": "32"
      },
      "t_struct(Set)1981_storage": {
        "encoding": "inplace",
        "label": "struct EnumerableSetUpgradeable.Set",
        "members": [
          {
            "astId": 1976,
            "contract": "contracts/Launchpeg.sol:Launchpeg",
            "label": "_values",
            "offset": 0,
            "slot": "0",
            "type": "t_array(t_bytes32)dyn_storage"
          },
          {
            "astId": 1980,
            "contract": "contracts/Launchpeg.sol:Launchpeg",
            "label": "_indexes",
            "offset": 0,
            "slot": "1",
            "type": "t_mapping(t_bytes32,t_uint256)"
          }
        ],
        "numberOfBytes": "64"
      },
      "t_struct(TokenOwnership)11639_storage": {
        "encoding": "inplace",
        "label": "struct ERC721AUpgradeable.TokenOwnership",
        "members": [
          {
            "astId": 11634,
            "contract": "contracts/Launchpeg.sol:Launchpeg",
            "label": "addr",
            "offset": 0,
            "slot": "0",
            "type": "t_address"
          },
          {
            "astId": 11636,
            "contract": "contracts/Launchpeg.sol:Launchpeg",
            "label": "startTimestamp",
            "offset": 20,
            "slot": "0",
            "type": "t_uint64"
          },
          {
            "astId": 11638,
            "contract": "contracts/Launchpeg.sol:Launchpeg",
            "label": "burned",
            "offset": 28,
            "slot": "0",
            "type": "t_bool"
          }
        ],
        "numberOfBytes": "32"
      },
      "t_uint256": {
        "encoding": "inplace",
        "label": "uint256",
        "numberOfBytes": "32"
      },
      "t_uint64": {
        "encoding": "inplace",
        "label": "uint64",
        "numberOfBytes": "8"
      },
      "t_uint96": {
        "encoding": "inplace",
        "label": "uint96",
        "numberOfBytes": "12"
      }
    }
  }
}