{
  "address": "0x443966feF06541b50506Be99B5e719a67cdf1863",
  "abi": [
    {
      "inputs": [],
      "name": "LaunchpegFactory__InvalidImplementation",
      "type": "error"
    },
    {
      "inputs": [],
      "name": "Launchpeg__InvalidJoeFeeCollector",
      "type": "error"
    },
    {
      "inputs": [],
      "name": "Launchpeg__InvalidPercent",
      "type": "error"
    },
    {
      "anonymous": false,
      "inputs": [
        {
          "indexed": true,
          "internalType": "address",
          "name": "flatLaunchpeg",
          "type": "address"
        },
        {
          "indexed": false,
          "internalType": "string",
          "name": "name",
          "type": "string"
        },
        {
          "indexed": false,
          "internalType": "string",
          "name": "symbol",
          "type": "string"
        },
        {
          "indexed": true,
          "internalType": "address",
          "name": "projectOwner",
          "type": "address"
        },
        {
          "indexed": true,
          "internalType": "address",
          "name": "royaltyReceiver",
          "type": "address"
        },
        {
          "indexed": false,
          "internalType": "uint256",
          "name": "maxBatchSize",
          "type": "uint256"
        },
        {
          "indexed": false,
          "internalType": "uint256",
          "name": "collectionSize",
          "type": "uint256"
        },
        {
          "indexed": false,
          "internalType": "uint256",
          "name": "amountForDevs",
          "type": "uint256"
        },
        {
          "indexed": false,
          "internalType": "uint256",
          "name": "amountForAllowlist",
          "type": "uint256"
        },
        {
          "indexed": false,
          "internalType": "uint256",
          "name": "batchRevealSize",
          "type": "uint256"
        },
        {
          "indexed": false,
          "internalType": "uint256",
          "name": "revealStartTime",
          "type": "uint256"
        },
        {
          "indexed": false,
          "internalType": "uint256",
          "name": "revealInterval",
          "type": "uint256"
        }
      ],
      "name": "FlatLaunchpegCreated",
      "type": "event"
    },
    {
      "anonymous": false,
      "inputs": [
        {
          "indexed": true,
          "internalType": "address",
          "name": "launchpeg",
          "type": "address"
        },
        {
          "indexed": false,
          "internalType": "string",
          "name": "name",
          "type": "string"
        },
        {
          "indexed": false,
          "internalType": "string",
          "name": "symbol",
          "type": "string"
        },
        {
          "indexed": true,
          "internalType": "address",
          "name": "projectOwner",
          "type": "address"
        },
        {
          "indexed": true,
          "internalType": "address",
          "name": "royaltyReceiver",
          "type": "address"
        },
        {
          "indexed": false,
          "internalType": "uint256",
          "name": "maxBatchSize",
          "type": "uint256"
        },
        {
          "indexed": false,
          "internalType": "uint256",
          "name": "collectionSize",
          "type": "uint256"
        },
        {
          "indexed": false,
          "internalType": "uint256",
          "name": "amountForAuction",
          "type": "uint256"
        },
        {
          "indexed": false,
          "internalType": "uint256",
          "name": "amountForAllowlist",
          "type": "uint256"
        },
        {
          "indexed": false,
          "internalType": "uint256",
          "name": "amountForDevs",
          "type": "uint256"
        },
        {
          "indexed": false,
          "internalType": "uint256",
          "name": "batchRevealSize",
          "type": "uint256"
        },
        {
          "indexed": false,
          "internalType": "uint256",
          "name": "revealStartTime",
          "type": "uint256"
        },
        {
          "indexed": false,
          "internalType": "uint256",
          "name": "revealInterval",
          "type": "uint256"
        }
      ],
      "name": "LaunchpegCreated",
      "type": "event"
    },
    {
      "anonymous": false,
      "inputs": [
        {
          "indexed": true,
          "internalType": "address",
          "name": "previousOwner",
          "type": "address"
        },
        {
          "indexed": true,
          "internalType": "address",
          "name": "newOwner",
          "type": "address"
        }
      ],
      "name": "OwnershipTransferred",
      "type": "event"
    },
    {
      "anonymous": false,
      "inputs": [
        {
          "indexed": true,
          "internalType": "address",
          "name": "joeFeeCollector",
          "type": "address"
        }
      ],
      "name": "SetDefaultJoeFeeCollector",
      "type": "event"
    },
    {
      "anonymous": false,
      "inputs": [
        {
          "indexed": false,
          "internalType": "uint256",
          "name": "joeFeePercent",
          "type": "uint256"
        }
      ],
      "name": "SetDefaultJoeFeePercent",
      "type": "event"
    },
    {
      "anonymous": false,
      "inputs": [
        {
          "indexed": true,
          "internalType": "address",
          "name": "flatLaunchpegImplementation",
          "type": "address"
        }
      ],
      "name": "SetFlatLaunchpegImplementation",
      "type": "event"
    },
    {
      "anonymous": false,
      "inputs": [
        {
          "indexed": true,
          "internalType": "address",
          "name": "launchpegImplementation",
          "type": "address"
        }
      ],
      "name": "SetLaunchpegImplementation",
      "type": "event"
    },
    {
      "inputs": [
        {
          "internalType": "uint256",
          "name": "",
          "type": "uint256"
        },
        {
          "internalType": "uint256",
          "name": "",
          "type": "uint256"
        }
      ],
      "name": "allLaunchpegs",
      "outputs": [
        {
          "internalType": "address",
          "name": "",
          "type": "address"
        }
      ],
      "stateMutability": "view",
      "type": "function"
    },
    {
      "inputs": [
        {
          "internalType": "string",
          "name": "_name",
          "type": "string"
        },
        {
          "internalType": "string",
          "name": "_symbol",
          "type": "string"
        },
        {
          "internalType": "address",
          "name": "_projectOwner",
          "type": "address"
        },
        {
          "internalType": "address",
          "name": "_royaltyReceiver",
          "type": "address"
        },
        {
          "internalType": "uint256",
          "name": "_maxBatchSize",
          "type": "uint256"
        },
        {
          "internalType": "uint256",
          "name": "_collectionSize",
          "type": "uint256"
        },
        {
          "internalType": "uint256",
          "name": "_amountForDevs",
          "type": "uint256"
        },
        {
          "internalType": "uint256",
          "name": "_amountForAllowlist",
          "type": "uint256"
        },
        {
          "components": [
            {
              "internalType": "uint256",
              "name": "batchRevealSize",
              "type": "uint256"
            },
            {
              "internalType": "uint256",
              "name": "revealStartTime",
              "type": "uint256"
            },
            {
              "internalType": "uint256",
              "name": "revealInterval",
              "type": "uint256"
            }
          ],
          "internalType": "struct ILaunchpegFactory.BatchReveal",
          "name": "_batchRevealData",
          "type": "tuple"
        }
      ],
      "name": "createFlatLaunchpeg",
      "outputs": [
        {
          "internalType": "address",
          "name": "",
          "type": "address"
        }
      ],
      "stateMutability": "nonpayable",
      "type": "function"
    },
    {
      "inputs": [
        {
          "internalType": "string",
          "name": "_name",
          "type": "string"
        },
        {
          "internalType": "string",
          "name": "_symbol",
          "type": "string"
        },
        {
          "internalType": "address",
          "name": "_projectOwner",
          "type": "address"
        },
        {
          "internalType": "address",
          "name": "_royaltyReceiver",
          "type": "address"
        },
        {
          "internalType": "uint256",
          "name": "_maxBatchSize",
          "type": "uint256"
        },
        {
          "internalType": "uint256",
          "name": "_collectionSize",
          "type": "uint256"
        },
        {
          "internalType": "uint256",
          "name": "_amountForAuction",
          "type": "uint256"
        },
        {
          "internalType": "uint256",
          "name": "_amountForAllowlist",
          "type": "uint256"
        },
        {
          "internalType": "uint256",
          "name": "_amountForDevs",
          "type": "uint256"
        },
        {
          "components": [
            {
              "internalType": "uint256",
              "name": "batchRevealSize",
              "type": "uint256"
            },
            {
              "internalType": "uint256",
              "name": "revealStartTime",
              "type": "uint256"
            },
            {
              "internalType": "uint256",
              "name": "revealInterval",
              "type": "uint256"
            }
          ],
          "internalType": "struct ILaunchpegFactory.BatchReveal",
          "name": "_batchRevealData",
          "type": "tuple"
        }
      ],
      "name": "createLaunchpeg",
      "outputs": [
        {
          "internalType": "address",
          "name": "",
          "type": "address"
        }
      ],
      "stateMutability": "nonpayable",
      "type": "function"
    },
    {
      "inputs": [],
      "name": "flatLaunchpegImplementation",
      "outputs": [
        {
          "internalType": "address",
          "name": "",
          "type": "address"
        }
      ],
      "stateMutability": "view",
      "type": "function"
    },
    {
      "inputs": [
        {
          "internalType": "address",
          "name": "_launchpegImplementation",
          "type": "address"
        },
        {
          "internalType": "address",
          "name": "_flatLaunchpegImplementation",
          "type": "address"
        },
        {
          "internalType": "uint256",
          "name": "_joeFeePercent",
          "type": "uint256"
        },
        {
          "internalType": "address",
          "name": "_joeFeeCollector",
          "type": "address"
        }
      ],
      "name": "initialize",
      "outputs": [],
      "stateMutability": "nonpayable",
      "type": "function"
    },
    {
      "inputs": [
        {
          "internalType": "uint256",
          "name": "",
          "type": "uint256"
        },
        {
          "internalType": "address",
          "name": "",
          "type": "address"
        }
      ],
      "name": "isLaunchpeg",
      "outputs": [
        {
          "internalType": "bool",
          "name": "",
          "type": "bool"
        }
      ],
      "stateMutability": "view",
      "type": "function"
    },
    {
      "inputs": [],
      "name": "joeFeeCollector",
      "outputs": [
        {
          "internalType": "address",
          "name": "",
          "type": "address"
        }
      ],
      "stateMutability": "view",
      "type": "function"
    },
    {
      "inputs": [],
      "name": "joeFeePercent",
      "outputs": [
        {
          "internalType": "uint256",
          "name": "",
          "type": "uint256"
        }
      ],
      "stateMutability": "view",
      "type": "function"
    },
    {
      "inputs": [],
      "name": "launchpegImplementation",
      "outputs": [
        {
          "internalType": "address",
          "name": "",
          "type": "address"
        }
      ],
      "stateMutability": "view",
      "type": "function"
    },
    {
      "inputs": [
        {
          "internalType": "uint256",
          "name": "_launchpegType",
          "type": "uint256"
        }
      ],
      "name": "numLaunchpegs",
      "outputs": [
        {
          "internalType": "uint256",
          "name": "",
          "type": "uint256"
        }
      ],
      "stateMutability": "view",
      "type": "function"
    },
    {
      "inputs": [],
      "name": "owner",
      "outputs": [
        {
          "internalType": "address",
          "name": "",
          "type": "address"
        }
      ],
      "stateMutability": "view",
      "type": "function"
    },
    {
      "inputs": [],
      "name": "renounceOwnership",
      "outputs": [],
      "stateMutability": "nonpayable",
      "type": "function"
    },
    {
      "inputs": [
        {
          "internalType": "address",
          "name": "_joeFeeCollector",
          "type": "address"
        }
      ],
      "name": "setDefaultJoeFeeCollector",
      "outputs": [],
      "stateMutability": "nonpayable",
      "type": "function"
    },
    {
      "inputs": [
        {
          "internalType": "uint256",
          "name": "_joeFeePercent",
          "type": "uint256"
        }
      ],
      "name": "setDefaultJoeFeePercent",
      "outputs": [],
      "stateMutability": "nonpayable",
      "type": "function"
    },
    {
      "inputs": [
        {
          "internalType": "address",
          "name": "_flatLaunchpegImplementation",
          "type": "address"
        }
      ],
      "name": "setFlatLaunchpegImplementation",
      "outputs": [],
      "stateMutability": "nonpayable",
      "type": "function"
    },
    {
      "inputs": [
        {
          "internalType": "address",
          "name": "_launchpegImplementation",
          "type": "address"
        }
      ],
      "name": "setLaunchpegImplementation",
      "outputs": [],
      "stateMutability": "nonpayable",
      "type": "function"
    },
    {
      "inputs": [
        {
          "internalType": "address",
          "name": "newOwner",
          "type": "address"
        }
      ],
      "name": "transferOwnership",
      "outputs": [],
      "stateMutability": "nonpayable",
      "type": "function"
    }
  ],
  "transactionHash": "0x8877cab48ce741e7eda7d89503ea3dcb0005c190ca8c003298d26449041f5464",
  "args": [],
  "numDeployments": 2,
  "solcInputHash": "f2e8d4b4d971a517671aeab00689c0a4",
  "bytecode": "0x608060405234801561001057600080fd5b50611453806100206000396000f3fe608060405234801561001057600080fd5b506004361061010b5760003560e01c80637cbe8d67116100a2578063abcc761711610071578063abcc761714610221578063be2030941461025f578063c5482fe314610272578063def041dc1461027b578063f2fde38b1461028e57600080fd5b80637cbe8d67146101d75780638bb4ee24146101ea5780638da5cb5b146101fd578063954e75c51461020e57600080fd5b806358dc9a55116100de57806358dc9a551461017b5780635bb213761461018e578063715018a6146101a1578063776f1b1c146101a957600080fd5b80632265708a14610110578063306ec7481461012557806337daf4ca1461015557806353edb42614610168575b600080fd5b61012361011e36600461110b565b6102a1565b005b610138610133366004611150565b610332565b6040516001600160a01b0390911681526020015b60405180910390f35b606654610138906001600160a01b031681565b610123610176366004610f15565b61036a565b610138610189366004610f84565b610405565b606854610138906001600160a01b031681565b6101236106b6565b6101c96101b736600461110b565b6000908152606a602052604090205490565b60405190815260200161014c565b6101236101e5366004610f15565b6106ec565b606554610138906001600160a01b031681565b6033546001600160a01b0316610138565b61012361021c366004610f15565b610787565b61024f61022f366004611124565b606960209081526000928352604080842090915290825290205460ff1681565b604051901515815260200161014c565b61012361026d366004610f37565b610822565b6101c960675481565b610138610289366004611042565b6109c1565b61012361029c366004610f15565b610c75565b6033546001600160a01b031633146102d45760405162461bcd60e51b81526004016102cb90611387565b60405180910390fd5b6127108111156102f7576040516346b7d95d60e11b815260040160405180910390fd5b60678190556040518181527f4745ea19c676a0945640ec34419fe0680d70511432fc85a2d605840ab568e6329060200160405180910390a150565b606a602052816000526040600020818154811061034e57600080fd5b6000918252602090912001546001600160a01b03169150829050565b6033546001600160a01b031633146103945760405162461bcd60e51b81526004016102cb90611387565b6001600160a01b0381166103bb57604051631a1b629760e21b815260040160405180910390fd5b606880546001600160a01b0319166001600160a01b0383169081179091556040517fe641fd1cd94961ec6280816da07b756907548d41a011cad54123b611f984242f90600090a250565b6033546000906001600160a01b031633146104325760405162461bcd60e51b81526004016102cb90611387565b60665460009061044a906001600160a01b0316610d10565b9050600160696000600181526020019081526020016000206000836001600160a01b03166001600160a01b0316815260200190815260200160002060006101000a81548160ff021916908315150217905550606a600060018152602001908152602001600020819080600181540180825580915050600190039060005260206000200160009091909190916101000a8154816001600160a01b0302191690836001600160a01b03160217905550806001600160a01b03166379fecd178c8c8c8c8c8c8c8c8c600001358d602001358e604001356040518c63ffffffff1660e01b81526004016105439b9a999897969594939291906111bf565b600060405180830381600087803b15801561055d57600080fd5b505af1158015610571573d6000803e3d6000fd5b505060675460685460405163ecbbfea360e01b815260048101929092526001600160a01b0390811660248301528416925063ecbbfea39150604401600060405180830381600087803b1580156105c657600080fd5b505af11580156105da573d6000803e3d6000fd5b505060405163f2fde38b60e01b81523360048201526001600160a01b038416925063f2fde38b9150602401600060405180830381600087803b15801561061f57600080fd5b505af1158015610633573d6000803e3d6000fd5b50505050876001600160a01b0316896001600160a01b0316826001600160a01b03167faff48a92308e00f59aa5f7c8147c11b228ab95eddbd734dfd179636c8fee700f8e8e8c8c8c8c8c600001358d602001358e604001356040516106a0999897969594939291906112bc565b60405180910390a49a9950505050505050505050565b6033546001600160a01b031633146106e05760405162461bcd60e51b81526004016102cb90611387565b6106ea6000610dad565b565b6033546001600160a01b031633146107165760405162461bcd60e51b81526004016102cb90611387565b6001600160a01b03811661073d57604051637c14876160e01b815260040160405180910390fd5b606680546001600160a01b0319166001600160a01b0383169081179091556040517f8549b2b39c65a9c4ca6b1037f64209a139ef0fc440cd914c14088dd2a368287c90600090a250565b6033546001600160a01b031633146107b15760405162461bcd60e51b81526004016102cb90611387565b6001600160a01b0381166107d857604051637c14876160e01b815260040160405180910390fd5b606580546001600160a01b0319166001600160a01b0383169081179091556040517f8084d0fd0870539f0703b9cf74b2618239081b020be6da48c74b2a6ab670dcfb90600090a250565b600054610100900460ff1661083d5760005460ff1615610841565b303b155b6108a45760405162461bcd60e51b815260206004820152602e60248201527f496e697469616c697a61626c653a20636f6e747261637420697320616c72656160448201526d191e481a5b9a5d1a585b1a5e995960921b60648201526084016102cb565b600054610100900460ff161580156108c6576000805461ffff19166101011790555b6108ce610dff565b6001600160a01b0385166108f557604051637c14876160e01b815260040160405180910390fd5b6001600160a01b03841661091c57604051637c14876160e01b815260040160405180910390fd5b61271083111561093f576040516346b7d95d60e11b815260040160405180910390fd5b6001600160a01b03821661096657604051631a1b629760e21b815260040160405180910390fd5b606580546001600160a01b038088166001600160a01b031992831617909255606680548784169083161790556067859055606880549285169290911691909117905580156109ba576000805461ff00191690555b5050505050565b6033546000906001600160a01b031633146109ee5760405162461bcd60e51b81526004016102cb90611387565b606554600090610a06906001600160a01b0316610d10565b90506001606960008081526020019081526020016000206000836001600160a01b03166001600160a01b0316815260200190815260200160002060006101000a81548160ff021916908315150217905550606a6000808152602001908152602001600020819080600181540180825580915050600190039060005260206000200160009091909190916101000a8154816001600160a01b0302191690836001600160a01b03160217905550806001600160a01b031663c4008e6f8d8d8d8d8d8d8d8d8d8d600001358e602001358f604001356040518d63ffffffff1660e01b8152600401610aff9c9b9a9998979695949392919061123b565b600060405180830381600087803b158015610b1957600080fd5b505af1158015610b2d573d6000803e3d6000fd5b505060675460685460405163ecbbfea360e01b815260048101929092526001600160a01b0390811660248301528416925063ecbbfea39150604401600060405180830381600087803b158015610b8257600080fd5b505af1158015610b96573d6000803e3d6000fd5b505060405163f2fde38b60e01b81523360048201526001600160a01b038416925063f2fde38b9150602401600060405180830381600087803b158015610bdb57600080fd5b505af1158015610bef573d6000803e3d6000fd5b50505050886001600160a01b03168a6001600160a01b0316826001600160a01b03167f3c07ac8c5cc59c5ee57f555dbce1b25099aca7e47c9c108ccab97ae28349044c8f8f8d8d8d8d8d8d600001358e602001358f60400135604051610c5e9a9998979695949392919061131d565b60405180910390a49b9a5050505050505050505050565b6033546001600160a01b03163314610c9f5760405162461bcd60e51b81526004016102cb90611387565b6001600160a01b038116610d045760405162461bcd60e51b815260206004820152602660248201527f4f776e61626c653a206e6577206f776e657220697320746865207a65726f206160448201526564647265737360d01b60648201526084016102cb565b610d0d81610dad565b50565b6000604051733d602d80600a3d3981f3363d3d373d3d3d363d7360601b81528260601b60148201526e5af43d82803e903d91602b57fd5bf360881b60288201526037816000f09150506001600160a01b038116610da85760405162461bcd60e51b8152602060048201526016602482015275115490cc4c4d8dce8818dc99585d194819985a5b195960521b60448201526064016102cb565b919050565b603380546001600160a01b038381166001600160a01b0319831681179093556040519116919082907f8be0079c531659141344cd1fd0a4f28419497f9722a3daafe3b4186f6b6457e090600090a35050565b600054610100900460ff16610e265760405162461bcd60e51b81526004016102cb906113bc565b6106ea600054610100900460ff16610e505760405162461bcd60e51b81526004016102cb906113bc565b6106ea33610dad565b80356001600160a01b0381168114610da857600080fd5b600082601f830112610e8157600080fd5b813567ffffffffffffffff80821115610e9c57610e9c611407565b604051601f8301601f19908116603f01168101908282118183101715610ec457610ec4611407565b81604052838152866020858801011115610edd57600080fd5b836020870160208301376000602085830101528094505050505092915050565b600060608284031215610f0f57600080fd5b50919050565b600060208284031215610f2757600080fd5b610f3082610e59565b9392505050565b60008060008060808587031215610f4d57600080fd5b610f5685610e59565b9350610f6460208601610e59565b925060408501359150610f7960608601610e59565b905092959194509250565b60008060008060008060008060006101608a8c031215610fa357600080fd5b893567ffffffffffffffff80821115610fbb57600080fd5b610fc78d838e01610e70565b9a5060208c0135915080821115610fdd57600080fd5b50610fea8c828d01610e70565b985050610ff960408b01610e59565b965061100760608b01610e59565b955060808a0135945060a08a0135935060c08a0135925060e08a013591506110338b6101008c01610efd565b90509295985092959850929598565b6000806000806000806000806000806101808b8d03121561106257600080fd5b8a3567ffffffffffffffff8082111561107a57600080fd5b6110868e838f01610e70565b9b5060208d013591508082111561109c57600080fd5b506110a98d828e01610e70565b9950506110b860408c01610e59565b97506110c660608c01610e59565b965060808b0135955060a08b0135945060c08b0135935060e08b013592506101008b013591506110fa8c6101208d01610efd565b90509295989b9194979a5092959850565b60006020828403121561111d57600080fd5b5035919050565b6000806040838503121561113757600080fd5b8235915061114760208401610e59565b90509250929050565b6000806040838503121561116357600080fd5b50508035926020909101359150565b6000815180845260005b818110156111985760208185018101518683018201520161117c565b818111156111aa576000602083870101525b50601f01601f19169290920160200192915050565b60006101608083526111d38184018f611172565b905082810360208401526111e7818e611172565b6001600160a01b039c8d1660408501529a909b16606083015250608081019790975260a087019590955260c086019390935260e0850191909152610100840152610120830152610140909101529392505050565b6101808152600061125061018083018f611172565b8281036020840152611262818f611172565b6001600160a01b039d8e1660408501529b909c16606083015250608081019890985260a088019690965260c087019490945260e0860192909252610100850152610120840152610140830152610160909101529392505050565b60006101208083526112d08184018d611172565b905082810360208401526112e4818c611172565b604084019a909a5250506060810196909652608086019490945260a085019290925260c084015260e08301526101009091015292915050565b60006101408083526113318184018e611172565b90508281036020840152611345818d611172565b604084019b909b5250506060810197909752608087019590955260a086019390935260c085019190915260e08401526101008301526101209091015292915050565b6020808252818101527f4f776e61626c653a2063616c6c6572206973206e6f7420746865206f776e6572604082015260600190565b6020808252602b908201527f496e697469616c697a61626c653a20636f6e7472616374206973206e6f74206960408201526a6e697469616c697a696e6760a81b606082015260800190565b634e487b7160e01b600052604160045260246000fdfea2646970667358221220402f00e44f9b4663eba0f4fc4dcc84331d96f32141f43b9ec242b6e6fdb2bdc864736f6c63430008060033",
  "devdoc": {
    "author": "Trader Joe",
    "kind": "dev",
    "methods": {
      "createFlatLaunchpeg(string,string,address,address,uint256,uint256,uint256,uint256,(uint256,uint256,uint256))": {
        "params": {
          "_amountForAllowlist": "Amount of NFTs available for the allowlist mint (e.g 1000)",
          "_amountForDevs": "Amount of NFTs reserved for `projectOwner` (e.g 200)",
          "_batchRevealData": "Contains batch reveal informations :  Size of the batch reveal, start of the token URIs reveal in seconds and interval between two batch reveals in seconds",
          "_collectionSize": "The collection size (e.g 10000)",
          "_maxBatchSize": "Max amount of NFTs that can be minted at once",
          "_name": "ERC721 name",
          "_projectOwner": "The project owner",
          "_royaltyReceiver": "Royalty fee collector",
          "_symbol": "ERC721 symbol"
        },
        "returns": {
          "_0": "flatLaunchpeg New FlatLaunchpeg address"
        }
      },
      "createLaunchpeg(string,string,address,address,uint256,uint256,uint256,uint256,uint256,(uint256,uint256,uint256))": {
        "params": {
          "_amountForAllowlist": "Amount of NFTs available for the allowlist mint (e.g 1000)",
          "_amountForAuction": "Amount of NFTs available for the auction (e.g 8000)",
          "_amountForDevs": "Amount of NFTs reserved for `projectOwner` (e.g 200)",
          "_batchRevealData": "Contains batch reveal informations :  Size of the batch reveal, start of the token URIs reveal in seconds and interval between two batch reveals in seconds",
          "_collectionSize": "The collection size (e.g 10000)",
          "_maxBatchSize": "Max amount of NFTs that can be minted at once",
          "_name": "ERC721 name",
          "_projectOwner": "The project owner",
          "_royaltyReceiver": "Royalty fee collector",
          "_symbol": "ERC721 symbol"
        },
        "returns": {
          "_0": "launchpeg New Launchpeg address"
        }
      },
      "initialize(address,address,uint256,address)": {
        "details": "Uses clone factory pattern to save space",
        "params": {
          "_flatLaunchpegImplementation": "FlatLaunchpeg contract to be cloned",
          "_joeFeeCollector": "Default fee collector",
          "_joeFeePercent": "Default fee percentage",
          "_launchpegImplementation": "Launchpeg contract to be cloned"
        }
      },
      "numLaunchpegs(uint256)": {
        "params": {
          "_launchpegType": "Type of Launchpeg to consider"
        },
        "returns": {
          "_0": "LaunchpegNumber The number of Launchpegs ever created"
        }
      },
      "owner()": {
        "details": "Returns the address of the current owner."
      },
      "renounceOwnership()": {
        "details": "Leaves the contract without owner. It will not be possible to call `onlyOwner` functions anymore. Can only be called by the current owner. NOTE: Renouncing ownership will leave the contract without an owner, thereby removing any functionality that is only available to the owner."
      },
      "setDefaultJoeFeeCollector(address)": {
        "params": {
          "_joeFeeCollector": "New collector address"
        }
      },
      "setDefaultJoeFeePercent(uint256)": {
        "params": {
          "_joeFeePercent": "New joeFeePercent"
        }
      },
      "setFlatLaunchpegImplementation(address)": {
        "params": {
          "_flatLaunchpegImplementation": "New flatLaunchpegImplementation"
        }
      },
      "setLaunchpegImplementation(address)": {
        "params": {
          "_launchpegImplementation": "New launchpegImplementation"
        }
      },
      "transferOwnership(address)": {
        "details": "Transfers ownership of the contract to a new account (`newOwner`). Can only be called by the current owner."
      }
    },
    "stateVariables": {
      "joeFeePercent": {
        "details": "In basis points e.g 100 for 1%"
      }
    },
    "title": "Launchpeg Factory",
    "version": 1
  },
  "userdoc": {
    "kind": "user",
    "methods": {
      "allLaunchpegs(uint256,uint256)": {
        "notice": "Launchpegs address list by type of Launchpeg"
      },
      "createFlatLaunchpeg(string,string,address,address,uint256,uint256,uint256,uint256,(uint256,uint256,uint256))": {
        "notice": "FlatLaunchpeg creation"
      },
      "createLaunchpeg(string,string,address,address,uint256,uint256,uint256,uint256,uint256,(uint256,uint256,uint256))": {
        "notice": "Launchpeg creation"
      },
      "flatLaunchpegImplementation()": {
        "notice": "FlatLaunchpeg contract to be cloned"
      },
      "initialize(address,address,uint256,address)": {
        "notice": "Initializes the Launchpeg factory"
      },
      "isLaunchpeg(uint256,address)": {
        "notice": "Checks if an address is stored as a Launchpeg, by type of Launchpeg"
      },
      "joeFeeCollector()": {
        "notice": "Default fee collector"
      },
      "joeFeePercent()": {
        "notice": "Default fee percentage"
      },
      "launchpegImplementation()": {
        "notice": "Launchpeg contract to be cloned"
      },
      "numLaunchpegs(uint256)": {
        "notice": "Returns the number of Launchpegs"
      },
      "setDefaultJoeFeeCollector(address)": {
        "notice": "Set default address to collect protocol fees"
      },
      "setDefaultJoeFeePercent(uint256)": {
        "notice": "Set percentage of protocol fees"
      },
      "setFlatLaunchpegImplementation(address)": {
        "notice": "Set address for flatLaunchpegImplementation"
      },
      "setLaunchpegImplementation(address)": {
        "notice": "Set address for launchpegImplementation"
      }
    },
    "notice": "Factory that creates Launchpeg contracts",
    "version": 1
  },
  "storageLayout": {
    "storage": [
      {
        "astId": 149,
        "contract": "contracts/LaunchpegFactory.sol:LaunchpegFactory",
        "label": "_initialized",
        "offset": 0,
        "slot": "0",
        "type": "t_bool"
      },
      {
        "astId": 152,
        "contract": "contracts/LaunchpegFactory.sol:LaunchpegFactory",
        "label": "_initializing",
        "offset": 1,
        "slot": "0",
        "type": "t_bool"
      },
      {
        "astId": 938,
        "contract": "contracts/LaunchpegFactory.sol:LaunchpegFactory",
        "label": "__gap",
        "offset": 0,
        "slot": "1",
        "type": "t_array(t_uint256)50_storage"
      },
      {
        "astId": 10,
        "contract": "contracts/LaunchpegFactory.sol:LaunchpegFactory",
        "label": "_owner",
        "offset": 0,
        "slot": "51",
        "type": "t_address"
      },
      {
        "astId": 122,
        "contract": "contracts/LaunchpegFactory.sol:LaunchpegFactory",
        "label": "__gap",
        "offset": 0,
        "slot": "52",
        "type": "t_array(t_uint256)49_storage"
      },
      {
        "astId": 4168,
        "contract": "contracts/LaunchpegFactory.sol:LaunchpegFactory",
        "label": "launchpegImplementation",
        "offset": 0,
        "slot": "101",
        "type": "t_address"
      },
      {
        "astId": 4172,
        "contract": "contracts/LaunchpegFactory.sol:LaunchpegFactory",
        "label": "flatLaunchpegImplementation",
        "offset": 0,
        "slot": "102",
        "type": "t_address"
      },
      {
        "astId": 4176,
        "contract": "contracts/LaunchpegFactory.sol:LaunchpegFactory",
        "label": "joeFeePercent",
        "offset": 0,
        "slot": "103",
        "type": "t_uint256"
      },
      {
        "astId": 4180,
        "contract": "contracts/LaunchpegFactory.sol:LaunchpegFactory",
        "label": "joeFeeCollector",
        "offset": 0,
        "slot": "104",
        "type": "t_address"
      },
      {
        "astId": 4188,
        "contract": "contracts/LaunchpegFactory.sol:LaunchpegFactory",
        "label": "isLaunchpeg",
        "offset": 0,
        "slot": "105",
        "type": "t_mapping(t_uint256,t_mapping(t_address,t_bool))"
      },
      {
        "astId": 4195,
        "contract": "contracts/LaunchpegFactory.sol:LaunchpegFactory",
        "label": "allLaunchpegs",
        "offset": 0,
        "slot": "106",
        "type": "t_mapping(t_uint256,t_array(t_address)dyn_storage)"
      }
    ],
    "types": {
      "t_address": {
        "encoding": "inplace",
        "label": "address",
        "numberOfBytes": "20"
      },
      "t_array(t_address)dyn_storage": {
        "base": "t_address",
        "encoding": "dynamic_array",
        "label": "address[]",
        "numberOfBytes": "32"
      },
      "t_array(t_uint256)49_storage": {
        "base": "t_uint256",
        "encoding": "inplace",
        "label": "uint256[49]",
        "numberOfBytes": "1568"
      },
      "t_array(t_uint256)50_storage": {
        "base": "t_uint256",
        "encoding": "inplace",
        "label": "uint256[50]",
        "numberOfBytes": "1600"
      },
      "t_bool": {
        "encoding": "inplace",
        "label": "bool",
        "numberOfBytes": "1"
      },
      "t_mapping(t_address,t_bool)": {
        "encoding": "mapping",
        "key": "t_address",
        "label": "mapping(address => bool)",
        "numberOfBytes": "32",
        "value": "t_bool"
      },
      "t_mapping(t_uint256,t_array(t_address)dyn_storage)": {
        "encoding": "mapping",
        "key": "t_uint256",
        "label": "mapping(uint256 => address[])",
        "numberOfBytes": "32",
        "value": "t_array(t_address)dyn_storage"
      },
      "t_mapping(t_uint256,t_mapping(t_address,t_bool))": {
        "encoding": "mapping",
        "key": "t_uint256",
        "label": "mapping(uint256 => mapping(address => bool))",
        "numberOfBytes": "32",
        "value": "t_mapping(t_address,t_bool)"
      },
      "t_uint256": {
        "encoding": "inplace",
        "label": "uint256",
        "numberOfBytes": "32"
      }
    }
  }
}