{
  "address": "0xD3D403626f1F72625796ab3b5dBaa95869418911",
  "abi": [
    {
      "inputs": [],
      "name": "ApprovalCallerNotOwnerNorApproved",
      "type": "error"
    },
    {
      "inputs": [],
      "name": "ApprovalQueryForNonexistentToken",
      "type": "error"
    },
    {
      "inputs": [],
      "name": "ApprovalToCurrentOwner",
      "type": "error"
    },
    {
      "inputs": [],
      "name": "ApproveToCaller",
      "type": "error"
    },
    {
      "inputs": [],
      "name": "BalanceQueryForZeroAddress",
      "type": "error"
    },
    {
      "inputs": [],
      "name": "Launchpeg__AllowlistBeforeAuction",
      "type": "error"
    },
    {
      "inputs": [],
      "name": "Launchpeg__CanNotMintThisMany",
      "type": "error"
    },
    {
      "inputs": [],
      "name": "Launchpeg__CanOnlyMintMultipleOfMaxBatchSize",
      "type": "error"
    },
    {
      "inputs": [],
      "name": "Launchpeg__EndPriceGreaterThanStartPrice",
      "type": "error"
    },
    {
      "inputs": [],
      "name": "Launchpeg__InvalidAuctionDropInterval",
      "type": "error"
    },
    {
      "inputs": [],
      "name": "Launchpeg__InvalidBatchRevealSize",
      "type": "error"
    },
    {
      "inputs": [],
      "name": "Launchpeg__InvalidJoeFeeCollector",
      "type": "error"
    },
    {
      "inputs": [],
      "name": "Launchpeg__InvalidMaxBatchSize",
      "type": "error"
    },
    {
      "inputs": [],
      "name": "Launchpeg__InvalidPercent",
      "type": "error"
    },
    {
      "inputs": [],
      "name": "Launchpeg__InvalidProjectOwner",
      "type": "error"
    },
    {
      "inputs": [],
      "name": "Launchpeg__InvalidRevealDates",
      "type": "error"
    },
    {
      "inputs": [],
      "name": "Launchpeg__InvalidRoyaltyInfo",
      "type": "error"
    },
    {
      "inputs": [],
      "name": "Launchpeg__InvalidStartTime",
      "type": "error"
    },
    {
      "inputs": [],
      "name": "Launchpeg__JoeFeeAlreadyInitialized",
      "type": "error"
    },
    {
      "inputs": [],
      "name": "Launchpeg__LargerCollectionSizeNeeded",
      "type": "error"
    },
    {
      "inputs": [],
      "name": "Launchpeg__MaxSupplyForDevReached",
      "type": "error"
    },
    {
      "inputs": [],
      "name": "Launchpeg__MaxSupplyReached",
      "type": "error"
    },
    {
      "inputs": [],
      "name": "Launchpeg__NotEligibleForAllowlistMint",
      "type": "error"
    },
    {
      "inputs": [
        {
          "internalType": "uint256",
          "name": "avaxSent",
          "type": "uint256"
        }
      ],
      "name": "Launchpeg__NotEnoughAVAX",
      "type": "error"
    },
    {
      "inputs": [],
      "name": "Launchpeg__PhasesAlreadyInitialized",
      "type": "error"
    },
    {
      "inputs": [],
      "name": "Launchpeg__PublicSaleBeforeAllowlist",
      "type": "error"
    },
    {
      "inputs": [],
      "name": "Launchpeg__RevealNextBatchNotAvailable",
      "type": "error"
    },
    {
      "inputs": [],
      "name": "Launchpeg__TransferFailed",
      "type": "error"
    },
    {
      "inputs": [],
      "name": "Launchpeg__Unauthorized",
      "type": "error"
    },
    {
      "inputs": [],
      "name": "Launchpeg__WrongAddressesAndNumSlotsLength",
      "type": "error"
    },
    {
      "inputs": [],
      "name": "Launchpeg__WrongPhase",
      "type": "error"
    },
    {
      "inputs": [],
      "name": "MintToZeroAddress",
      "type": "error"
    },
    {
      "inputs": [],
      "name": "MintZeroQuantity",
      "type": "error"
    },
    {
      "inputs": [],
      "name": "OwnerQueryForNonexistentToken",
      "type": "error"
    },
    {
      "inputs": [],
      "name": "TransferCallerNotOwnerNorApproved",
      "type": "error"
    },
    {
      "inputs": [],
      "name": "TransferFromIncorrectOwner",
      "type": "error"
    },
    {
      "inputs": [],
      "name": "TransferToNonERC721ReceiverImplementer",
      "type": "error"
    },
    {
      "inputs": [],
      "name": "TransferToZeroAddress",
      "type": "error"
    },
    {
      "anonymous": false,
      "inputs": [],
      "name": "AllowlistSeeded",
      "type": "event"
    },
    {
      "anonymous": false,
      "inputs": [
        {
          "indexed": true,
          "internalType": "address",
          "name": "owner",
          "type": "address"
        },
        {
          "indexed": true,
          "internalType": "address",
          "name": "approved",
          "type": "address"
        },
        {
          "indexed": true,
          "internalType": "uint256",
          "name": "tokenId",
          "type": "uint256"
        }
      ],
      "name": "Approval",
      "type": "event"
    },
    {
      "anonymous": false,
      "inputs": [
        {
          "indexed": true,
          "internalType": "address",
          "name": "owner",
          "type": "address"
        },
        {
          "indexed": true,
          "internalType": "address",
          "name": "operator",
          "type": "address"
        },
        {
          "indexed": false,
          "internalType": "bool",
          "name": "approved",
          "type": "bool"
        }
      ],
      "name": "ApprovalForAll",
      "type": "event"
    },
    {
      "anonymous": false,
      "inputs": [
        {
          "indexed": true,
          "internalType": "address",
          "name": "sender",
          "type": "address"
        },
        {
          "indexed": false,
          "internalType": "uint256",
          "name": "amount",
          "type": "uint256"
        },
        {
          "indexed": false,
          "internalType": "uint256",
          "name": "fee",
          "type": "uint256"
        }
      ],
      "name": "AvaxWithdraw",
      "type": "event"
    },
    {
      "anonymous": false,
      "inputs": [
        {
          "indexed": false,
          "internalType": "string",
          "name": "baseURI",
          "type": "string"
        }
      ],
      "name": "BaseURISet",
      "type": "event"
    },
    {
      "anonymous": false,
      "inputs": [
        {
          "indexed": true,
          "internalType": "address",
          "name": "receiver",
          "type": "address"
        },
        {
          "indexed": false,
          "internalType": "uint256",
          "name": "feePercent",
          "type": "uint256"
        }
      ],
      "name": "DefaultRoyaltySet",
      "type": "event"
    },
    {
      "anonymous": false,
      "inputs": [
        {
          "indexed": true,
          "internalType": "address",
          "name": "sender",
          "type": "address"
        },
        {
          "indexed": false,
          "internalType": "uint256",
          "name": "quantity",
          "type": "uint256"
        }
      ],
      "name": "DevMint",
      "type": "event"
    },
    {
      "anonymous": false,
      "inputs": [
        {
          "indexed": false,
          "internalType": "uint256",
          "name": "auctionSaleStartTime",
          "type": "uint256"
        },
        {
          "indexed": false,
          "internalType": "uint256",
          "name": "auctionStartPrice",
          "type": "uint256"
        },
        {
          "indexed": false,
          "internalType": "uint256",
          "name": "auctionEndPrice",
          "type": "uint256"
        },
        {
          "indexed": false,
          "internalType": "uint256",
          "name": "auctionDropInterval",
          "type": "uint256"
        },
        {
          "indexed": false,
          "internalType": "uint256",
          "name": "allowlistStartTime",
          "type": "uint256"
        },
        {
          "indexed": false,
          "internalType": "uint256",
          "name": "allowlistDiscountPercent",
          "type": "uint256"
        },
        {
          "indexed": false,
          "internalType": "uint256",
          "name": "publicSaleStartTime",
          "type": "uint256"
        },
        {
          "indexed": false,
          "internalType": "uint256",
          "name": "publicSaleDiscountPercent",
          "type": "uint256"
        }
      ],
      "name": "Initialized",
      "type": "event"
    },
    {
      "anonymous": false,
      "inputs": [
        {
          "indexed": false,
          "internalType": "uint256",
          "name": "feePercent",
          "type": "uint256"
        },
        {
          "indexed": false,
          "internalType": "address",
          "name": "feeCollector",
          "type": "address"
        }
      ],
      "name": "JoeFeeInitialized",
      "type": "event"
    },
    {
      "anonymous": false,
      "inputs": [
        {
          "indexed": true,
          "internalType": "address",
          "name": "sender",
          "type": "address"
        },
        {
          "indexed": false,
          "internalType": "uint256",
          "name": "quantity",
          "type": "uint256"
        },
        {
          "indexed": false,
          "internalType": "uint256",
          "name": "price",
          "type": "uint256"
        },
        {
          "indexed": false,
          "internalType": "uint256",
          "name": "startTokenId",
          "type": "uint256"
        },
        {
          "indexed": false,
          "internalType": "enum IBaseLaunchpeg.Phase",
          "name": "phase",
          "type": "uint8"
        }
      ],
      "name": "Mint",
      "type": "event"
    },
    {
      "anonymous": false,
      "inputs": [
        {
          "indexed": true,
          "internalType": "address",
          "name": "previousOwner",
          "type": "address"
        },
        {
          "indexed": true,
          "internalType": "address",
          "name": "newOwner",
          "type": "address"
        }
      ],
      "name": "OwnershipTransferred",
      "type": "event"
    },
    {
      "anonymous": false,
      "inputs": [
        {
          "indexed": true,
          "internalType": "address",
          "name": "owner",
          "type": "address"
        }
      ],
      "name": "ProjectOwnerUpdated",
      "type": "event"
    },
    {
      "anonymous": false,
      "inputs": [
        {
          "indexed": false,
          "internalType": "uint256",
          "name": "batchNumber",
          "type": "uint256"
        },
        {
          "indexed": false,
          "internalType": "uint256",
          "name": "batchSeed",
          "type": "uint256"
        }
      ],
      "name": "Reveal",
      "type": "event"
    },
    {
      "anonymous": false,
      "inputs": [
        {
          "indexed": true,
          "internalType": "address",
          "name": "from",
          "type": "address"
        },
        {
          "indexed": true,
          "internalType": "address",
          "name": "to",
          "type": "address"
        },
        {
          "indexed": true,
          "internalType": "uint256",
          "name": "tokenId",
          "type": "uint256"
        }
      ],
      "name": "Transfer",
      "type": "event"
    },
    {
      "anonymous": false,
      "inputs": [
        {
          "indexed": false,
          "internalType": "string",
          "name": "unrevealedURI",
          "type": "string"
        }
      ],
      "name": "UnrevealedURISet",
      "type": "event"
    },
    {
      "inputs": [],
      "name": "BASIS_POINT_PRECISION",
      "outputs": [
        {
          "internalType": "uint256",
          "name": "",
          "type": "uint256"
        }
      ],
      "stateMutability": "view",
      "type": "function"
    },
    {
      "inputs": [
        {
          "internalType": "address",
          "name": "",
          "type": "address"
        }
      ],
      "name": "allowlist",
      "outputs": [
        {
          "internalType": "uint256",
          "name": "",
          "type": "uint256"
        }
      ],
      "stateMutability": "view",
      "type": "function"
    },
    {
      "inputs": [],
      "name": "allowlistDiscountPercent",
      "outputs": [
        {
          "internalType": "uint256",
          "name": "",
          "type": "uint256"
        }
      ],
      "stateMutability": "view",
      "type": "function"
    },
    {
      "inputs": [
        {
          "internalType": "uint256",
          "name": "_quantity",
          "type": "uint256"
        }
      ],
      "name": "allowlistMint",
      "outputs": [],
      "stateMutability": "payable",
      "type": "function"
    },
    {
      "inputs": [],
      "name": "allowlistStartTime",
      "outputs": [
        {
          "internalType": "uint256",
          "name": "",
          "type": "uint256"
        }
      ],
      "stateMutability": "view",
      "type": "function"
    },
    {
      "inputs": [],
      "name": "amountForAllowlist",
      "outputs": [
        {
          "internalType": "uint256",
          "name": "",
          "type": "uint256"
        }
      ],
      "stateMutability": "view",
      "type": "function"
    },
    {
      "inputs": [],
      "name": "amountForAuction",
      "outputs": [
        {
          "internalType": "uint256",
          "name": "",
          "type": "uint256"
        }
      ],
      "stateMutability": "view",
      "type": "function"
    },
    {
      "inputs": [],
      "name": "amountForDevs",
      "outputs": [
        {
          "internalType": "uint256",
          "name": "",
          "type": "uint256"
        }
      ],
      "stateMutability": "view",
      "type": "function"
    },
    {
      "inputs": [],
      "name": "amountMintedByDevs",
      "outputs": [
        {
          "internalType": "uint256",
          "name": "",
          "type": "uint256"
        }
      ],
      "stateMutability": "view",
      "type": "function"
    },
    {
      "inputs": [],
      "name": "amountMintedDuringAllowlist",
      "outputs": [
        {
          "internalType": "uint256",
          "name": "",
          "type": "uint256"
        }
      ],
      "stateMutability": "view",
      "type": "function"
    },
    {
      "inputs": [],
      "name": "amountMintedDuringAuction",
      "outputs": [
        {
          "internalType": "uint256",
          "name": "",
          "type": "uint256"
        }
      ],
      "stateMutability": "view",
      "type": "function"
    },
    {
      "inputs": [],
      "name": "amountMintedDuringPublicSale",
      "outputs": [
        {
          "internalType": "uint256",
          "name": "",
          "type": "uint256"
        }
      ],
      "stateMutability": "view",
      "type": "function"
    },
    {
      "inputs": [
        {
          "internalType": "address",
          "name": "to",
          "type": "address"
        },
        {
          "internalType": "uint256",
          "name": "tokenId",
          "type": "uint256"
        }
      ],
      "name": "approve",
      "outputs": [],
      "stateMutability": "nonpayable",
      "type": "function"
    },
    {
      "inputs": [],
      "name": "auctionDropInterval",
      "outputs": [
        {
          "internalType": "uint256",
          "name": "",
          "type": "uint256"
        }
      ],
      "stateMutability": "view",
      "type": "function"
    },
    {
      "inputs": [],
      "name": "auctionDropPerStep",
      "outputs": [
        {
          "internalType": "uint256",
          "name": "",
          "type": "uint256"
        }
      ],
      "stateMutability": "view",
      "type": "function"
    },
    {
      "inputs": [],
      "name": "auctionEndPrice",
      "outputs": [
        {
          "internalType": "uint256",
          "name": "",
          "type": "uint256"
        }
      ],
      "stateMutability": "view",
      "type": "function"
    },
    {
      "inputs": [
        {
          "internalType": "uint256",
          "name": "_quantity",
          "type": "uint256"
        }
      ],
      "name": "auctionMint",
      "outputs": [],
      "stateMutability": "payable",
      "type": "function"
    },
    {
      "inputs": [],
      "name": "auctionSaleDuration",
      "outputs": [
        {
          "internalType": "uint256",
          "name": "",
          "type": "uint256"
        }
      ],
      "stateMutability": "view",
      "type": "function"
    },
    {
      "inputs": [],
      "name": "auctionSaleStartTime",
      "outputs": [
        {
          "internalType": "uint256",
          "name": "",
          "type": "uint256"
        }
      ],
      "stateMutability": "view",
      "type": "function"
    },
    {
      "inputs": [],
      "name": "auctionStartPrice",
      "outputs": [
        {
          "internalType": "uint256",
          "name": "",
          "type": "uint256"
        }
      ],
      "stateMutability": "view",
      "type": "function"
    },
    {
      "inputs": [
        {
          "internalType": "address",
          "name": "owner",
          "type": "address"
        }
      ],
      "name": "balanceOf",
      "outputs": [
        {
          "internalType": "uint256",
          "name": "",
          "type": "uint256"
        }
      ],
      "stateMutability": "view",
      "type": "function"
    },
    {
      "inputs": [],
      "name": "baseURI",
      "outputs": [
        {
          "internalType": "string",
          "name": "",
          "type": "string"
        }
      ],
      "stateMutability": "view",
      "type": "function"
    },
    {
      "inputs": [
        {
          "internalType": "uint256",
          "name": "",
          "type": "uint256"
        }
      ],
      "name": "batchToSeed",
      "outputs": [
        {
          "internalType": "uint256",
          "name": "",
          "type": "uint256"
        }
      ],
      "stateMutability": "view",
      "type": "function"
    },
    {
      "inputs": [],
      "name": "collectionSize",
      "outputs": [
        {
          "internalType": "uint256",
          "name": "",
          "type": "uint256"
        }
      ],
      "stateMutability": "view",
      "type": "function"
    },
    {
      "inputs": [],
      "name": "currentPhase",
      "outputs": [
        {
          "internalType": "enum IBaseLaunchpeg.Phase",
          "name": "",
          "type": "uint8"
        }
      ],
      "stateMutability": "view",
      "type": "function"
    },
    {
      "inputs": [
        {
          "internalType": "uint256",
          "name": "_quantity",
          "type": "uint256"
        }
      ],
      "name": "devMint",
      "outputs": [],
      "stateMutability": "nonpayable",
      "type": "function"
    },
    {
      "inputs": [],
      "name": "forceReveal",
      "outputs": [],
      "stateMutability": "nonpayable",
      "type": "function"
    },
    {
      "inputs": [],
      "name": "getAllowlistPrice",
      "outputs": [
        {
          "internalType": "uint256",
          "name": "",
          "type": "uint256"
        }
      ],
      "stateMutability": "view",
      "type": "function"
    },
    {
      "inputs": [
        {
          "internalType": "uint256",
          "name": "tokenId",
          "type": "uint256"
        }
      ],
      "name": "getApproved",
      "outputs": [
        {
          "internalType": "address",
          "name": "",
          "type": "address"
        }
      ],
      "stateMutability": "view",
      "type": "function"
    },
    {
      "inputs": [
        {
          "internalType": "uint256",
          "name": "_saleStartTime",
          "type": "uint256"
        }
      ],
      "name": "getAuctionPrice",
      "outputs": [
        {
          "internalType": "uint256",
          "name": "",
          "type": "uint256"
        }
      ],
      "stateMutability": "view",
      "type": "function"
    },
    {
      "inputs": [
        {
          "internalType": "uint256",
          "name": "_tokenId",
          "type": "uint256"
        }
      ],
      "name": "getOwnershipData",
      "outputs": [
        {
          "components": [
            {
              "internalType": "address",
              "name": "addr",
              "type": "address"
            },
            {
              "internalType": "uint64",
              "name": "startTimestamp",
              "type": "uint64"
            },
            {
              "internalType": "bool",
              "name": "burned",
              "type": "bool"
            }
          ],
          "internalType": "struct ERC721AUpgradeable.TokenOwnership",
          "name": "",
          "type": "tuple"
        }
      ],
      "stateMutability": "view",
      "type": "function"
    },
    {
      "inputs": [],
      "name": "getPublicSalePrice",
      "outputs": [
        {
          "internalType": "uint256",
          "name": "",
          "type": "uint256"
        }
      ],
      "stateMutability": "view",
      "type": "function"
    },
    {
      "inputs": [],
      "name": "hasBatchToReveal",
      "outputs": [
        {
          "internalType": "bool",
          "name": "",
          "type": "bool"
        },
        {
          "internalType": "uint256",
          "name": "",
          "type": "uint256"
        }
      ],
      "stateMutability": "view",
      "type": "function"
    },
    {
      "inputs": [
        {
          "internalType": "string",
          "name": "_name",
          "type": "string"
        },
        {
          "internalType": "string",
          "name": "_symbol",
          "type": "string"
        },
        {
          "internalType": "address",
          "name": "_projectOwner",
          "type": "address"
        },
        {
          "internalType": "address",
          "name": "_royaltyReceiver",
          "type": "address"
        },
        {
          "internalType": "uint256",
          "name": "_maxBatchSize",
          "type": "uint256"
        },
        {
          "internalType": "uint256",
          "name": "_collectionSize",
          "type": "uint256"
        },
        {
          "internalType": "uint256",
          "name": "_amountForAuction",
          "type": "uint256"
        },
        {
          "internalType": "uint256",
          "name": "_amountForAllowlist",
          "type": "uint256"
        },
        {
          "internalType": "uint256",
          "name": "_amountForDevs",
          "type": "uint256"
        },
        {
          "internalType": "uint256",
          "name": "_batchRevealSize",
          "type": "uint256"
        },
        {
          "internalType": "uint256",
          "name": "_revealStartTime",
          "type": "uint256"
        },
        {
          "internalType": "uint256",
          "name": "_revealInterval",
          "type": "uint256"
        }
      ],
      "name": "initialize",
      "outputs": [],
      "stateMutability": "nonpayable",
      "type": "function"
    },
    {
      "inputs": [
        {
          "internalType": "uint256",
          "name": "_joeFeePercent",
          "type": "uint256"
        },
        {
          "internalType": "address",
          "name": "_joeFeeCollector",
          "type": "address"
        }
      ],
      "name": "initializeJoeFee",
      "outputs": [],
      "stateMutability": "nonpayable",
      "type": "function"
    },
    {
      "inputs": [
        {
          "internalType": "uint256",
          "name": "_auctionSaleStartTime",
          "type": "uint256"
        },
        {
          "internalType": "uint256",
          "name": "_auctionStartPrice",
          "type": "uint256"
        },
        {
          "internalType": "uint256",
          "name": "_auctionEndPrice",
          "type": "uint256"
        },
        {
          "internalType": "uint256",
          "name": "_auctionDropInterval",
          "type": "uint256"
        },
        {
          "internalType": "uint256",
          "name": "_allowlistStartTime",
          "type": "uint256"
        },
        {
          "internalType": "uint256",
          "name": "_allowlistDiscountPercent",
          "type": "uint256"
        },
        {
          "internalType": "uint256",
          "name": "_publicSaleStartTime",
          "type": "uint256"
        },
        {
          "internalType": "uint256",
          "name": "_publicSaleDiscountPercent",
          "type": "uint256"
        }
      ],
      "name": "initializePhases",
      "outputs": [],
      "stateMutability": "nonpayable",
      "type": "function"
    },
    {
      "inputs": [
        {
          "internalType": "address",
          "name": "owner",
          "type": "address"
        },
        {
          "internalType": "address",
          "name": "operator",
          "type": "address"
        }
      ],
      "name": "isApprovedForAll",
      "outputs": [
        {
          "internalType": "bool",
          "name": "",
          "type": "bool"
        }
      ],
      "stateMutability": "view",
      "type": "function"
    },
    {
      "inputs": [],
      "name": "joeFeeCollector",
      "outputs": [
        {
          "internalType": "address",
          "name": "",
          "type": "address"
        }
      ],
      "stateMutability": "view",
      "type": "function"
    },
    {
      "inputs": [],
      "name": "joeFeePercent",
      "outputs": [
        {
          "internalType": "uint256",
          "name": "",
          "type": "uint256"
        }
      ],
      "stateMutability": "view",
      "type": "function"
    },
    {
      "inputs": [],
      "name": "lastAuctionPrice",
      "outputs": [
        {
          "internalType": "uint256",
          "name": "",
          "type": "uint256"
        }
      ],
      "stateMutability": "view",
      "type": "function"
    },
    {
      "inputs": [],
      "name": "lastTokenRevealed",
      "outputs": [
        {
          "internalType": "uint256",
          "name": "",
          "type": "uint256"
        }
      ],
      "stateMutability": "view",
      "type": "function"
    },
    {
      "inputs": [],
      "name": "maxBatchSize",
      "outputs": [
        {
          "internalType": "uint256",
          "name": "",
          "type": "uint256"
        }
      ],
      "stateMutability": "view",
      "type": "function"
    },
    {
      "inputs": [],
      "name": "maxPerAddressDuringMint",
      "outputs": [
        {
          "internalType": "uint256",
          "name": "",
          "type": "uint256"
        }
      ],
      "stateMutability": "view",
      "type": "function"
    },
    {
      "inputs": [],
      "name": "name",
      "outputs": [
        {
          "internalType": "string",
          "name": "",
          "type": "string"
        }
      ],
      "stateMutability": "view",
      "type": "function"
    },
    {
      "inputs": [
        {
          "internalType": "address",
          "name": "_owner",
          "type": "address"
        }
      ],
      "name": "numberMinted",
      "outputs": [
        {
          "internalType": "uint256",
          "name": "",
          "type": "uint256"
        }
      ],
      "stateMutability": "view",
      "type": "function"
    },
    {
      "inputs": [],
      "name": "owner",
      "outputs": [
        {
          "internalType": "address",
          "name": "",
          "type": "address"
        }
      ],
      "stateMutability": "view",
      "type": "function"
    },
    {
      "inputs": [
        {
          "internalType": "uint256",
          "name": "tokenId",
          "type": "uint256"
        }
      ],
      "name": "ownerOf",
      "outputs": [
        {
          "internalType": "address",
          "name": "",
          "type": "address"
        }
      ],
      "stateMutability": "view",
      "type": "function"
    },
    {
      "inputs": [],
      "name": "projectOwner",
      "outputs": [
        {
          "internalType": "address",
          "name": "",
          "type": "address"
        }
      ],
      "stateMutability": "view",
      "type": "function"
    },
    {
      "inputs": [],
      "name": "publicSaleDiscountPercent",
      "outputs": [
        {
          "internalType": "uint256",
          "name": "",
          "type": "uint256"
        }
      ],
      "stateMutability": "view",
      "type": "function"
    },
    {
      "inputs": [
        {
          "internalType": "uint256",
          "name": "_quantity",
          "type": "uint256"
        }
      ],
      "name": "publicSaleMint",
      "outputs": [],
      "stateMutability": "payable",
      "type": "function"
    },
    {
      "inputs": [],
      "name": "publicSaleStartTime",
      "outputs": [
        {
          "internalType": "uint256",
          "name": "",
          "type": "uint256"
        }
      ],
      "stateMutability": "view",
      "type": "function"
    },
    {
      "inputs": [],
      "name": "renounceOwnership",
      "outputs": [],
      "stateMutability": "nonpayable",
      "type": "function"
    },
    {
      "inputs": [],
      "name": "revealBatchSize",
      "outputs": [
        {
          "internalType": "uint256",
          "name": "",
          "type": "uint256"
        }
      ],
      "stateMutability": "view",
      "type": "function"
    },
    {
      "inputs": [],
      "name": "revealInterval",
      "outputs": [
        {
          "internalType": "uint256",
          "name": "",
          "type": "uint256"
        }
      ],
      "stateMutability": "view",
      "type": "function"
    },
    {
      "inputs": [],
      "name": "revealNextBatch",
      "outputs": [],
      "stateMutability": "nonpayable",
      "type": "function"
    },
    {
      "inputs": [],
      "name": "revealStartTime",
      "outputs": [
        {
          "internalType": "uint256",
          "name": "",
          "type": "uint256"
        }
      ],
      "stateMutability": "view",
      "type": "function"
    },
    {
      "inputs": [
        {
          "internalType": "uint256",
          "name": "_tokenId",
          "type": "uint256"
        },
        {
          "internalType": "uint256",
          "name": "_salePrice",
          "type": "uint256"
        }
      ],
      "name": "royaltyInfo",
      "outputs": [
        {
          "internalType": "address",
          "name": "",
          "type": "address"
        },
        {
          "internalType": "uint256",
          "name": "",
          "type": "uint256"
        }
      ],
      "stateMutability": "view",
      "type": "function"
    },
    {
      "inputs": [
        {
          "internalType": "address",
          "name": "from",
          "type": "address"
        },
        {
          "internalType": "address",
          "name": "to",
          "type": "address"
        },
        {
          "internalType": "uint256",
          "name": "tokenId",
          "type": "uint256"
        }
      ],
      "name": "safeTransferFrom",
      "outputs": [],
      "stateMutability": "nonpayable",
      "type": "function"
    },
    {
      "inputs": [
        {
          "internalType": "address",
          "name": "from",
          "type": "address"
        },
        {
          "internalType": "address",
          "name": "to",
          "type": "address"
        },
        {
          "internalType": "uint256",
          "name": "tokenId",
          "type": "uint256"
        },
        {
          "internalType": "bytes",
          "name": "_data",
          "type": "bytes"
        }
      ],
      "name": "safeTransferFrom",
      "outputs": [],
      "stateMutability": "nonpayable",
      "type": "function"
    },
    {
      "inputs": [
        {
          "internalType": "address[]",
          "name": "_addresses",
          "type": "address[]"
        },
        {
          "internalType": "uint256[]",
          "name": "_numNfts",
          "type": "uint256[]"
        }
      ],
      "name": "seedAllowlist",
      "outputs": [],
      "stateMutability": "nonpayable",
      "type": "function"
    },
    {
      "inputs": [
        {
          "internalType": "address",
          "name": "operator",
          "type": "address"
        },
        {
          "internalType": "bool",
          "name": "approved",
          "type": "bool"
        }
      ],
      "name": "setApprovalForAll",
      "outputs": [],
      "stateMutability": "nonpayable",
      "type": "function"
    },
    {
      "inputs": [
        {
          "internalType": "string",
          "name": "_baseURI",
          "type": "string"
        }
      ],
      "name": "setBaseURI",
      "outputs": [],
      "stateMutability": "nonpayable",
      "type": "function"
    },
    {
      "inputs": [
        {
          "internalType": "address",
          "name": "_projectOwner",
          "type": "address"
        }
      ],
      "name": "setProjectOwner",
      "outputs": [],
      "stateMutability": "nonpayable",
      "type": "function"
    },
    {
      "inputs": [
        {
          "internalType": "address",
          "name": "_receiver",
          "type": "address"
        },
        {
          "internalType": "uint96",
          "name": "_feePercent",
          "type": "uint96"
        }
      ],
      "name": "setRoyaltyInfo",
      "outputs": [],
      "stateMutability": "nonpayable",
      "type": "function"
    },
    {
      "inputs": [
        {
          "internalType": "string",
          "name": "_unrevealedURI",
          "type": "string"
        }
      ],
      "name": "setUnrevealedURI",
      "outputs": [],
      "stateMutability": "nonpayable",
      "type": "function"
    },
    {
      "inputs": [
        {
          "internalType": "bytes4",
          "name": "_interfaceId",
          "type": "bytes4"
        }
      ],
      "name": "supportsInterface",
      "outputs": [
        {
          "internalType": "bool",
          "name": "",
          "type": "bool"
        }
      ],
      "stateMutability": "view",
      "type": "function"
    },
    {
      "inputs": [],
      "name": "symbol",
      "outputs": [
        {
          "internalType": "string",
          "name": "",
          "type": "string"
        }
      ],
      "stateMutability": "view",
      "type": "function"
    },
    {
      "inputs": [
        {
          "internalType": "uint256",
          "name": "_id",
          "type": "uint256"
        }
      ],
      "name": "tokenURI",
      "outputs": [
        {
          "internalType": "string",
          "name": "",
          "type": "string"
        }
      ],
      "stateMutability": "view",
      "type": "function"
    },
    {
      "inputs": [],
      "name": "totalSupply",
      "outputs": [
        {
          "internalType": "uint256",
          "name": "",
          "type": "uint256"
        }
      ],
      "stateMutability": "view",
      "type": "function"
    },
    {
      "inputs": [
        {
          "internalType": "address",
          "name": "from",
          "type": "address"
        },
        {
          "internalType": "address",
          "name": "to",
          "type": "address"
        },
        {
          "internalType": "uint256",
          "name": "tokenId",
          "type": "uint256"
        }
      ],
      "name": "transferFrom",
      "outputs": [],
      "stateMutability": "nonpayable",
      "type": "function"
    },
    {
      "inputs": [
        {
          "internalType": "address",
          "name": "newOwner",
          "type": "address"
        }
      ],
      "name": "transferOwnership",
      "outputs": [],
      "stateMutability": "nonpayable",
      "type": "function"
    },
    {
      "inputs": [],
      "name": "unrevealedURI",
      "outputs": [
        {
          "internalType": "string",
          "name": "",
          "type": "string"
        }
      ],
      "stateMutability": "view",
      "type": "function"
    },
    {
      "inputs": [
        {
          "internalType": "address",
          "name": "_to",
          "type": "address"
        }
      ],
      "name": "withdrawAVAX",
      "outputs": [],
      "stateMutability": "nonpayable",
      "type": "function"
    }
  ],
  "transactionHash": "0x4b02f09bcf8f999574e3f8c7db5bd6120b4228bf22057b63355811d5ae6a30a8",
  "args": [],
  "numDeployments": 2,
  "solcInputHash": "f2e8d4b4d971a517671aeab00689c0a4",
  "bytecode": "0x60806040526000609b5534801561001557600080fd5b5061443e806100256000396000f3fe6080604052600436106104265760003560e01c80637a18c1fe11610229578063c4008e6f1161012e578063e6fe34b3116100b6578063f43191951161007a578063f431919514610c0f578063f7df4c5a14610c25578063fab2bf5814610c3c578063fbe1aa5114610c53578063fe2c7fee14610c6a57600080fd5b8063e6fe34b314610b81578063e985e9c514610b98578063ecbbfea314610bb8578063f243669b14610bd8578063f2fde38b14610bef57600080fd5b8063cc0bef84116100fd578063cc0bef8414610b07578063d62b630314610b1d578063d756985b14610b34578063d9a6f70514610b4b578063dc33e68114610b6157600080fd5b8063c4008e6f14610a9b578063c5482fe314610abb578063c81e156e14610ad2578063c87b56dd14610ae757600080fd5b8063a22cb465116101b1578063a7cd52cb11610180578063a7cd52cb14610a07578063b05863d514610a35578063b3ab66b014610a55578063b88d4fde14610a68578063c180526a14610a8857600080fd5b8063a22cb4651461098f578063a2416f74146109af578063a4475ce4146109cf578063a54cd7dc146109f057600080fd5b8063917d009e116101f8578063917d009e146108d65780639231ab2a146108f657806395d89b411461094c578063963331d814610961578063a04a6ac81461097857600080fd5b80637a18c1fe146108755780638bc35c2f1461088c5780638da5cb5b146108a35780638e8bdd0d146108c157600080fd5b80632a55205a1161032f5780635c7034af116102b75780636c0360eb116102865780636c0360eb146107e95780637035bf18146107fe57806370a0823114610813578063715018a614610833578063777c90911461084857600080fd5b80635c7034af14610786578063622f1c471461079d5780636352211e146107b25780636bb7b1d9146107d257600080fd5b806345c0f533116102fe57806345c0f533146107045780634d3554c31461071b57806355f804b31461072e57806359d7bc4d1461074e5780635bb213761461076557600080fd5b80632a55205a1461066e578063375a069a146106ad5780633cc4cadb146106cd57806342842e0e146106e457600080fd5b80630b1019e7116103b257806318160ddd1161038157806318160ddd146105e85780631c0310a51461060157806323b872dd14610621578063247cd8ad146106415780632913daa01461065757600080fd5b80630b1019e7146105865780630b5648101461059b5780630bd21a5d146105b157806315489510146105d157600080fd5b806306fdde03116103f957806306fdde03146104d0578063081812fc146104f257806308a3fb4e1461052a578063095ea7b31461054f5780630a212ee21461056f57600080fd5b806301ffc9a71461042b57806302fa7c471461046057806303851c2814610482578063055ad42e146104ae575b600080fd5b34801561043757600080fd5b5061044b610446366004613d4f565b610c8a565b60405190151581526020015b60405180910390f35b34801561046c57600080fd5b5061048061047b366004613cac565b610cb5565b005b34801561048e57600080fd5b50610497610d6a565b604080519215158352602083019190915201610457565b3480156104ba57600080fd5b506104c3610d8a565b604051610457919061408e565b3480156104dc57600080fd5b506104e5610e09565b604051610457919061409c565b3480156104fe57600080fd5b5061051261050d366004613ecd565b610e9b565b6040516001600160a01b039091168152602001610457565b34801561053657600080fd5b5061054161014d5481565b604051908152602001610457565b34801561055b57600080fd5b5061048061056a366004613c82565b610edf565b34801561057b57600080fd5b506105416101495481565b34801561059257600080fd5b50610541610f6d565b3480156105a757600080fd5b5061054160995481565b3480156105bd57600080fd5b506104806105cc366004613f2b565b610fa1565b3480156105dd57600080fd5b5061054161014c5481565b3480156105f457600080fd5b5060665460655403610541565b34801561060d57600080fd5b5061048061061c366004613b41565b6111f8565b34801561062d57600080fd5b5061048061063c366004613b8f565b6113eb565b34801561064d57600080fd5b50610541609e5481565b34801561066357600080fd5b506105416101385481565b34801561067a57600080fd5b5061068e610689366004613f09565b6113f6565b604080516001600160a01b039093168352602083019190915201610457565b3480156106b957600080fd5b506104806106c8366004613ecd565b6114a6565b3480156106d957600080fd5b506105416101415481565b3480156106f057600080fd5b506104806106ff366004613b8f565b611600565b34801561071057600080fd5b506105416101355481565b610480610729366004613ecd565b61161b565b34801561073a57600080fd5b50610480610749366004613d89565b6117a4565b34801561075a57600080fd5b506105416101435481565b34801561077157600080fd5b5061013b54610512906001600160a01b031681565b34801561079257600080fd5b506105416101405481565b3480156107a957600080fd5b50610480611819565b3480156107be57600080fd5b506105126107cd366004613ecd565b61186d565b3480156107de57600080fd5b506105416101445481565b3480156107f557600080fd5b506104e561187f565b34801561080a57600080fd5b506104e561190e565b34801561081f57600080fd5b5061054161082e366004613b41565b61191c565b34801561083f57600080fd5b5061048061196a565b34801561085457600080fd5b50610541610863366004613ecd565b609a6020526000908152604090205481565b34801561088157600080fd5b5061054161014f5481565b34801561089857600080fd5b506105416101395481565b3480156108af57600080fd5b50609f546001600160a01b0316610512565b3480156108cd57600080fd5b5061054161199e565b3480156108e257600080fd5b506105416108f1366004613ecd565b6119b5565b34801561090257600080fd5b50610916610911366004613ecd565b611a2a565b6040805182516001600160a01b031681526020808401516001600160401b03169082015291810151151590820152606001610457565b34801561095857600080fd5b506104e5611a50565b34801561096d57600080fd5b506105416101425481565b34801561098457600080fd5b506105416101485481565b34801561099b57600080fd5b506104806109aa366004613c46565b611a5f565b3480156109bb57600080fd5b506104806109ca366004613b41565b611af5565b3480156109db57600080fd5b5061013c54610512906001600160a01b031681565b3480156109fc57600080fd5b5061054161014e5481565b348015610a1357600080fd5b50610541610a22366004613b41565b61013f6020526000908152604090205481565b348015610a4157600080fd5b50610480610a50366004613ce4565b611b91565b610480610a63366004613ecd565b611c89565b348015610a7457600080fd5b50610480610a83366004613bcb565b611df6565b610480610a96366004613ecd565b611e41565b348015610aa757600080fd5b50610480610ab6366004613dfa565b611ffb565b348015610ac757600080fd5b5061054161013a5481565b348015610ade57600080fd5b5061048061210e565b348015610af357600080fd5b506104e5610b02366004613ecd565b612142565b348015610b1357600080fd5b50610541609d5481565b348015610b2957600080fd5b506105416101375481565b348015610b4057600080fd5b506105416101475481565b348015610b5757600080fd5b5061054161271081565b348015610b6d57600080fd5b50610541610b7c366004613b41565b61221b565b348015610b8d57600080fd5b5061054161014b5481565b348015610ba457600080fd5b5061044b610bb3366004613b5c565b612249565b348015610bc457600080fd5b50610480610bd3366004613ee6565b612277565b348015610be457600080fd5b5061054161014a5481565b348015610bfb57600080fd5b50610480610c0a366004613b41565b612372565b348015610c1b57600080fd5b50610541609b5481565b348015610c3157600080fd5b506105416101455481565b348015610c4857600080fd5b506105416101465481565b348015610c5f57600080fd5b506105416101365481565b348015610c7657600080fd5b50610480610c85366004613d89565b61240d565b60006001600160e01b0319821663084f06af60e31b1480610caf5750610caf82612476565b92915050565b609f546001600160a01b03163314610ce85760405162461bcd60e51b8152600401610cdf90614134565b60405180910390fd5b6109c4816001600160601b03161115610d14576040516306f644f160e31b815260040160405180910390fd5b610d1e82826124ae565b6040516001600160601b03821681526001600160a01b038316907fd85b7816dca44c313f0fdadd9567f99f3620a2fac7c21a8a7872e1ac4d10fe55906020015b60405180910390a25050565b600080610d82610d7d6066546065540390565b6125ac565b915091509091565b60006101465460001480610d9f575061014354155b80610dab575061014454155b80610db857506101465442105b15610dc35750600090565b610146544210158015610dd857506101435442105b15610de35750600190565b610143544210158015610df857506101445442105b15610e035750600290565b50600390565b606060678054610e189061431a565b80601f0160208091040260200160405190810160405280929190818152602001828054610e449061431a565b8015610e915780601f10610e6657610100808354040283529160200191610e91565b820191906000526020600020905b815481529060010190602001808311610e7457829003601f168201915b5050505050905090565b6000610ea682612618565b610ec3576040516333d1c03960e21b815260040160405180910390fd5b506000908152606b60205260409020546001600160a01b031690565b6000610eea8261186d565b9050806001600160a01b0316836001600160a01b03161415610f1f5760405163250fdee360e21b815260040160405180910390fd5b336001600160a01b03821614801590610f3f5750610f3d8133612249565b155b15610f5d576040516367d9dca160e11b815260040160405180910390fd5b610f68838383612644565b505050565b600061271061014c5461014f54610f849190614251565b610f8e919061423d565b61014f54610f9c91906142c0565b905090565b609f546001600160a01b03163314610fcb5760405162461bcd60e51b8152600401610cdf90614134565b600080610fd6610d8a565b6003811115610fe757610fe76143b0565b14611005576040516338df794b60e01b815260040160405180910390fd5b6101465415611027576040516301146db760e31b815260040160405180910390fd5b4289101561104857604051639db169d760e01b815260040160405180910390fd5b868811611068576040516302f092d160e41b815260040160405180910390fd5b88851161108857604051633688d4a160e11b815260040160405180910390fd5b8483116110a8576040516335bcfe2b60e21b815260040160405180910390fd5b6127108411806110b9575061271082115b156110d7576040516346b7d95d60e11b815260040160405180910390fd5b6110e189866142c0565b6101495585158061110057506004610149546110fd919061423d565b86115b1561111e5760405163352a16bd60e11b815260040160405180910390fd5b61014689905561014788905561014f88905561014887905561014a8690556101495461114b90879061423d565b611155888a6142c0565b61115f919061423d565b61014b5561014385905561014c84905561014483905561014d82905561014654610147546101485461014a546040805194855260208501939093529183015260608201526080810186905260a0810185905260c0810184905260e081018390527f728b60ad013455c308abac1db6c15bfce78165021309519e5e2fbaf8124304b8906101000160405180910390a1505050505050505050565b609f546001600160a01b031633146112225760405162461bcd60e51b8152600401610cdf90614134565b600260d15414156112755760405162461bcd60e51b815260206004820152601f60248201527f5265656e7472616e637947756172643a207265656e7472616e742063616c6c006044820152606401610cdf565b600260d15561013a54479060009081901561132a5761271061013a548461129c9190614251565b6112a6919061423d565b91506112b282846142c0565b61013b546040519194506001600160a01b0316908390600081818185875af1925050503d8060008114611301576040519150601f19603f3d011682016040523d82523d6000602084013e611306565b606091505b5050809150508061132a57604051633aa9e60d60e21b815260040160405180910390fd5b6040516001600160a01b038516908490600081818185875af1925050503d8060008114611373576040519150601f19603f3d011682016040523d82523d6000602084013e611378565b606091505b5050809150508061139c57604051633aa9e60d60e21b815260040160405180910390fd5b60408051848152602081018490526001600160a01b038616917f12eb5d7ccd4ce398edc94007dfbaa22fa2ac8775a3633530f36053ad765262f4910160405180910390a25050600160d1555050565b610f688383836126a0565b6000828152610104602090815260408083208151808301909252546001600160a01b038116808352600160a01b9091046001600160601b031692820192909252829161146d575060408051808201909152610103546001600160a01b0381168252600160a01b90046001600160601b031660208201525b60208101516000906127109061148c906001600160601b031687614251565b611496919061423d565b91519350909150505b9250929050565b61013c546001600160a01b031633146114d257604051633059e46160e21b815260040160405180910390fd5b61013554816114e46066546065540390565b6114ee9190614225565b111561150d57604051631eddc6a360e11b815260040160405180910390fd5b6101365481610140546115209190614225565b111561153f5760405163011310dd60e31b815260040160405180910390fd5b6101385461154d9082614370565b1561156b57604051633489d12560e01b815260040160405180910390fd5b806101405461157a9190614225565b610140556101385460009061158f908361423d565b905060005b818110156115cd576115bb336101385460405180602001604052806000815250600061288b565b806115c581614355565b915050611594565b5060405182815233907f7d8400f0e58ae2e14f85b63f3afb0ca5b29328d8f48046b205fc7f174cf9b5ed90602001610d5e565b610f6883838360405180602001604052806000815250611df6565b600180611626610d8a565b6003811115611637576116376143b0565b14611655576040516338df794b60e01b815260040160405180910390fd5b60006116646066546065540390565b61014054610145546116769190614225565b61168091906142c0565b9050806116a057604051631eddc6a360e11b815260040160405180910390fd5b828110156116ac578092505b61013954836116ba3361221b565b6116c49190614225565b11156116e3576040516335e62b7b60e21b815260040160405180910390fd5b6116ef610146546119b5565b61014f819055600090611703908590614251565b90508361014e546117149190614225565b61014e81905550611737338560405180602001604052806000815250600061288b565b336001600160a01b03167fbb20f716bd7ca9427b818f6de485952ab3a5acec2559fb794e3f9a4d9f70e7228561014f548761177160655490565b61177b91906142c0565b600160405161178d94939291906141b4565b60405180910390a261179e81612a4d565b50505050565b609f546001600160a01b031633146117ce5760405162461bcd60e51b8152600401610cdf90614134565b6117db61013d8383613944565b507ff9c7803e94e0d3c02900d8a90893a6d5e90dd04d32a4cfe825520f82bf9f32f661013d60405161180d91906140af565b60405180910390a15050565b32331461183957604051633059e46160e21b815260040160405180910390fd5b61184e6118496066546065540390565b612aec565b61186b5760405163fc58cf3f60e01b815260040160405180910390fd5b565b600061187882612b81565b5192915050565b61013d805461188d9061431a565b80601f01602080910402602001604051908101604052809291908181526020018280546118b99061431a565b80156119065780601f106118db57610100808354040283529160200191611906565b820191906000526020600020905b8154815290600101906020018083116118e957829003601f168201915b505050505081565b61013e805461188d9061431a565b60006001600160a01b038216611945576040516323d3ad8160e21b815260040160405180910390fd5b506001600160a01b03166000908152606a60205260409020546001600160401b031690565b609f546001600160a01b031633146119945760405162461bcd60e51b8152600401610cdf90614134565b61186b6000612c9b565b600061271061014d5461014f54610f849190614251565b6000814210156119c85750506101475490565b610149546119d683426142c0565b106119e45750506101485490565b61014a546000906119f584426142c0565b6119ff919061423d565b905061014b5481611a109190614251565b61014754611a1e91906142c0565b9392505050565b919050565b6040805160608101825260008082526020820181905291810191909152610caf82612b81565b606060688054610e189061431a565b6001600160a01b038216331415611a895760405163b06307db60e01b815260040160405180910390fd5b336000818152606c602090815260408083206001600160a01b03871680855290835292819020805460ff191686151590811790915590519081529192917f17307eab39ab6107e8899845ad3d59bd9653f200f220920489ca2b5937696c31910160405180910390a35050565b609f546001600160a01b03163314611b1f5760405162461bcd60e51b8152600401610cdf90614134565b6001600160a01b038116611b46576040516331ae7ba360e21b815260040160405180910390fd5b61013c80546001600160a01b0319166001600160a01b0383169081179091556040517ff9683e9ced97b7e1d517c5b24e9d1f37f9a0ab14c4865055aad181c8c68a689d90600090a250565b609f546001600160a01b03163314611bbb5760405162461bcd60e51b8152600401610cdf90614134565b82818114611bdc57604051638d62a9d560e01b815260040160405180910390fd5b60005b81811015611c5857838382818110611bf957611bf96143c6565b9050602002013561013f6000888885818110611c1757611c176143c6565b9050602002016020810190611c2c9190613b41565b6001600160a01b0316815260208101919091526040016000205580611c5081614355565b915050611bdf565b506040517f0df27beb8d16f5e61d125286ba69a986a702ac83921bb1864629ca5e662e84d490600090a15050505050565b600380611c94610d8a565b6003811115611ca557611ca56143b0565b14611cc3576040516338df794b60e01b815260040160405180910390fd5b6101405461013654611cd591906142c0565b61013554611ce391906142c0565b82611cf16066546065540390565b611cfb9190614225565b1115611d1a57604051631eddc6a360e11b815260040160405180910390fd5b6101395482611d283361221b565b611d329190614225565b1115611d51576040516335e62b7b60e21b815260040160405180910390fd5b6000611d5b61199e565b9050611d79338460405180602001604052806000815250600061288b565b826101426000828254611d8c9190614225565b909155503390507fbb20f716bd7ca9427b818f6de485952ab3a5acec2559fb794e3f9a4d9f70e722848381611dc060655490565b611dca91906142c0565b6003604051611ddc94939291906141b4565b60405180910390a2610f68611df18483614251565b612a4d565b611e018484846126a0565b6001600160a01b0383163b15158015611e235750611e2184848484612ced565b155b1561179e576040516368d2bf6b60e11b815260040160405180910390fd5b600280611e4c610d8a565b6003811115611e5d57611e5d6143b0565b14611e7b576040516338df794b60e01b815260040160405180910390fd5b33600090815261013f6020526040902054821115611eac576040516390e50aa560e01b815260040160405180910390fd5b600061014e5461014554611ec091906142c0565b9050610140546101375461014554611ed89190614225565b611ee29190614225565b8382611ef16066546065540390565b611efb9190614225565b611f059190614225565b1115611f2457604051631eddc6a360e11b815260040160405180910390fd5b33600090815261013f602052604081208054859290611f449084906142c0565b9091555060009050611f54610f6d565b90506000611f628583614251565b9050611f80338660405180602001604052806000815250600061288b565b846101416000828254611f939190614225565b909155503390507fbb20f716bd7ca9427b818f6de485952ab3a5acec2559fb794e3f9a4d9f70e722868481611fc760655490565b611fd191906142c0565b6002604051611fe394939291906141b4565b60405180910390a2611ff481612a4d565b5050505050565b600054610100900460ff166120165760005460ff161561201a565b303b155b61207d5760405162461bcd60e51b815260206004820152602e60248201527f496e697469616c697a61626c653a20636f6e747261637420697320616c72656160448201526d191e481a5b9a5d1a585b1a5e995960921b6064820152608401610cdf565b600054610100900460ff1615801561209f576000805461ffff19166101011790555b6120b28d8d8d8d8d8d8b8d8c8c8c612de5565b87856120be888a614225565b6120c89190614225565b11156120e757604051631a231d4360e21b815260040160405180910390fd5b61014587905580156120ff576000805461ff00191690555b50505050505050505050505050565b61013c546001600160a01b0316331461213a57604051633059e46160e21b815260040160405180910390fd5b61186b612f3b565b6060609b5482106121e05761013e805461215b9061431a565b80601f01602080910402602001604051908101604052809291908181526020018280546121879061431a565b80156121d45780601f106121a9576101008083540402835291602001916121d4565b820191906000526020600020905b8154815290600101906020018083116121b757829003601f168201915b50505050509050919050565b61013d6121f46121ef84612fb2565b613072565b604051602001612205929190613fce565b6040516020818303038152906040529050919050565b6001600160a01b0381166000908152606a6020526040812054600160401b90046001600160401b0316610caf565b6001600160a01b039182166000908152606c6020908152604080832093909416825291909152205460ff1690565b609f546001600160a01b031633146122a15760405162461bcd60e51b8152600401610cdf90614134565b61013b546001600160a01b0316156122cc576040516345db6e6960e11b815260040160405180910390fd5b6127108211156122ef576040516346b7d95d60e11b815260040160405180910390fd5b6001600160a01b03811661231657604051631a1b629760e21b815260040160405180910390fd5b61013a82905561013b80546001600160a01b0319166001600160a01b0383169081179091556040805184815260208101929092527fd7d086964f00d2604a80288c460231fe9cfc8e9605e838d49017401111f63adb910161180d565b609f546001600160a01b0316331461239c5760405162461bcd60e51b8152600401610cdf90614134565b6001600160a01b0381166124015760405162461bcd60e51b815260206004820152602660248201527f4f776e61626c653a206e6577206f776e657220697320746865207a65726f206160448201526564647265737360d01b6064820152608401610cdf565b61240a81612c9b565b50565b609f546001600160a01b031633146124375760405162461bcd60e51b8152600401610cdf90614134565b61244461013e8383613944565b507f4012c6d278d4b460acbc560e9fa4425e187c3b40c848b8dfa248139729efee4361013e60405161180d91906140af565b60006124818261316f565b806124905750612490826131af565b8061249f575061249f826131d4565b80610caf5750610caf826131af565b6127106001600160601b038216111561251c5760405162461bcd60e51b815260206004820152602a60248201527f455243323938313a20726f79616c7479206665652077696c6c206578636565646044820152692073616c65507269636560b01b6064820152608401610cdf565b6001600160a01b0382166125725760405162461bcd60e51b815260206004820152601960248201527f455243323938313a20696e76616c6964207265636569766572000000000000006044820152606401610cdf565b604080518082019091526001600160a01b039092168083526001600160601b039091166020909201829052600160a01b9091021761010355565b6000806000609954609b54816125c4576125c461439a565b049050609e54816125d59190614251565b609d546125e29190614225565b4210806125fd5750609954609b546125fa9190614225565b84105b1561260d57600094909350915050565b600194909350915050565b600060655482108015610caf575050600090815260696020526040902054600160e01b900460ff161590565b6000828152606b602052604080822080546001600160a01b0319166001600160a01b0387811691821790925591518593918516917f8c5be1e5ebec7d5bd14f71427d1e84f3dd0314c0f7b2291e5b200ac8c7c3b92591a4505050565b60006126ab82612b81565b9050836001600160a01b031681600001516001600160a01b0316146126e25760405162a1148160e81b815260040160405180910390fd5b6000336001600160a01b038616148061270057506127008533612249565b8061271b57503361271084610e9b565b6001600160a01b0316145b90508061273b57604051632ce44b5f60e11b815260040160405180910390fd5b6001600160a01b03841661276257604051633a954ecd60e21b815260040160405180910390fd5b61276e60008487612644565b6001600160a01b038581166000908152606a60209081526040808320805467ffffffffffffffff198082166001600160401b0392831660001901831617909255898616808652838620805493841693831660019081018416949094179055898652606990945282852080546001600160e01b031916909417600160a01b4290921691909102178355870180845292208054919390911661284257606554821461284257805460208601516001600160401b0316600160a01b026001600160e01b03199091166001600160a01b038a16171781555b50505082846001600160a01b0316866001600160a01b03167fddf252ad1be2c89b69c2b068fc378daa952ba7f163c4a11628f55a4df523b3ef60405160405180910390a4611ff4565b6065546001600160a01b0385166128b457604051622e076360e81b815260040160405180910390fd5b836128d25760405163b562e8dd60e01b815260040160405180910390fd5b6001600160a01b0385166000818152606a6020908152604080832080546001600160801b031981166001600160401b038083168c018116918217600160401b67ffffffffffffffff1990941690921783900481168c01811690920217909155858452606990925290912080546001600160e01b031916909217600160a01b42909216919091021790558080850183801561297557506001600160a01b0387163b15155b156129fe575b60405182906001600160a01b038916906000907fddf252ad1be2c89b69c2b068fc378daa952ba7f163c4a11628f55a4df523b3ef908290a46129c66000888480600101955088612ced565b6129e3576040516368d2bf6b60e11b815260040160405180910390fd5b8082141561297b5782606554146129f957600080fd5b612a44565b5b6040516001830192906001600160a01b038916906000907fddf252ad1be2c89b69c2b068fc378daa952ba7f163c4a11628f55a4df523b3ef908290a4808214156129ff575b50606555611ff4565b80341015612a7057604051639968ec3d60e01b8152346004820152602401610cdf565b8034111561240a57600033612a8583346142c0565b604051600081818185875af1925050503d8060008114612ac1576040519150601f19603f3d011682016040523d82523d6000602084013e612ac6565b606091505b5050905080612ae857604051633aa9e60d60e21b815260040160405180910390fd5b5050565b6000806000612afa846125ac565b9250905080612b0d575060009392505050565b609954609b6000828254612b219190614225565b90915550612b309050826131ea565b6000828152609a6020908152604091829020548251858152918201527fc172d6f677c5cb603b93b418c5bbd19afeb3dc6d48a2c4b658254bdae7203b54910160405180910390a15060019392505050565b604080516060810182526000808252602082018190529181019190915281606554811015612c8257600081815260696020908152604091829020825160608101845290546001600160a01b0381168252600160a01b81046001600160401b031692820192909252600160e01b90910460ff16151591810182905290612c805780516001600160a01b031615612c17579392505050565b5060001901600081815260696020908152604091829020825160608101845290546001600160a01b038116808352600160a01b82046001600160401b031693830193909352600160e01b900460ff1615159281019290925215612c7b579392505050565b612c17565b505b604051636f96cda160e11b815260040160405180910390fd5b609f80546001600160a01b038381166001600160a01b0319831681179093556040519116919082907f8be0079c531659141344cd1fd0a4f28419497f9722a3daafe3b4186f6b6457e090600090a35050565b604051630a85bd0160e11b81526000906001600160a01b0385169063150b7a0290612d22903390899088908890600401614051565b602060405180830381600087803b158015612d3c57600080fd5b505af1925050508015612d6c575060408051601f3d908101601f19168201909252612d6991810190613d6c565b60015b612dc7573d808015612d9a576040519150601f19603f3d011682016040523d82523d6000602084013e612d9f565b606091505b508051612dbf576040516368d2bf6b60e11b815260040160405180910390fd5b805181602001fd5b6001600160e01b031916630a85bd0160e11b1490505b949350505050565b600054610100900460ff16612e0c5760405162461bcd60e51b8152600401610cdf90614169565b612e1461328e565b612e1c6132bd565b612e246132ec565b612e2e8b8b613313565b612e388387613344565b6001600160a01b038916612e5f576040516331ae7ba360e21b815260040160405180910390fd5b85612e6a8587614225565b1115612e8957604051631a231d4360e21b815260040160405180910390fd5b85871115612eaa57604051631ddf40b160e01b815260040160405180910390fd5b612eb7426283d600614225565b821180612ec65750620d2f0081115b15612ee457604051636de655ff60e01b815260040160405180910390fd5b61013c80546001600160a01b0319166001600160a01b038b16179055612f0c886101f46124ae565b6101388790556101359590955561013995909555506101369190915561013755609d91909155609e5550505050565b6000609954609b5481612f5057612f5061439a565b609954609b80549091019055049050612f68816131ea565b6000818152609a6020908152604091829020548251848152918201527fc172d6f677c5cb603b93b418c5bbd19afeb3dc6d48a2c4b658254bdae7203b54910160405180910390a150565b60008060995483612fc3919061423d565b90506000609c546001600160401b03811115612fe157612fe16143dc565b60405190808252806020026020018201604052801561302657816020015b6040805180820190915260008082526020820152815260200190600190039081612fff5790505b509050613032826133f2565b6000838152609a602052604081205460995492935090916130539087614370565b61305d9190614225565b905061306981836134bd565b95945050505050565b6060816130965750506040805180820190915260018152600360fc1b602082015290565b8160005b81156130c057806130aa81614355565b91506130b99050600a8361423d565b915061309a565b6000816001600160401b038111156130da576130da6143dc565b6040519080825280601f01601f191660200182016040528015613104576020820181803683370190505b5090505b8415612ddd576131196001836142c0565b9150613126600a86614370565b613131906030614225565b60f81b818381518110613146576131466143c6565b60200101906001600160f81b031916908160001a905350613168600a8661423d565b9450613108565b60006001600160e01b031982166380ac58cd60e01b14806131a057506001600160e01b03198216635b5e139f60e01b145b80610caf5750610caf826131d4565b60006001600160e01b0319821663152a902d60e11b1480610caf5750610caf8261316f565b6001600160e01b0319166301ffc9a760e01b1490565b6000333a4342446131fc6001846142c0565b604080516001600160a01b0390971660208801528601949094526060850192909252608084015260a08301524060c08201523060e0820152610100016040516020818303038152906040528051906020012060001c9050609954826132619190614251565b60975461326e91906142c0565b6132789082614370565b6000928352609a60205260409092209190915550565b600054610100900460ff166132b55760405162461bcd60e51b8152600401610cdf90614169565b61186b613612565b600054610100900460ff166132e45760405162461bcd60e51b8152600401610cdf90614169565b61186b613642565b600054610100900460ff1661186b5760405162461bcd60e51b8152600401610cdf90614169565b600054610100900460ff1661333a5760405162461bcd60e51b8152600401610cdf90614169565b612ae88282613670565b600054610100900460ff1661336b5760405162461bcd60e51b8152600401610cdf90614169565b6133758282614370565b151580613380575081155b8061338a57508082115b156133a857604051636d0ca73b60e11b815260040160405180910390fd5b609982905560978190556133bc828261423d565b6133c7906002614251565b609c5560988054600f9290920b6001600160801b03166001600160801b031990921691909117905550565b60606000609c546001600160401b03811115613410576134106143dc565b60405190808252806020026020018201604052801561345557816020015b604080518082019091526000808252602082015281526020019060019003908161342e5790505b5090506000805b848110156134b4576000818152609a602052604081205461347d90856134bd565b905060006099548261348f91906141d6565b905061349d858383876136c8565b9350505080806134ac90614355565b91505061345c565b50909392505050565b60008281805b60028110156135f55760005b609c548110156135a45760008682815181106134ed576134ed6143c6565b6020026020010151600001519050600087838151811061350f5761350f6143c6565b602002602001015160200151905081600f0b85600f0b121561357d57600061353787876141d6565b905082600f0b81600f0b121561355e576001600160801b03169650610caf95505050505050565b6135688684614270565b6135729088614270565b96508195505061358f565b80600f0b85600f0b121561358f578094505b5050808061359c90614355565b9150506134cf565b50609854600f90810b900b6135b984846141d6565b600f0b126135e3576098546135d2908390600f0b614270565b6135dc9084614270565b9250600091505b806135ed81614355565b9150506134c3565b5061360082826141d6565b6001600160801b031695945050505050565b600054610100900460ff166136395760405162461bcd60e51b8152600401610cdf90614169565b61186b33612c9b565b600054610100900460ff166136695760405162461bcd60e51b8152600401610cdf90614169565b600160d155565b600054610100900460ff166136975760405162461bcd60e51b8152600401610cdf90614169565b81516136aa9060679060208501906139c8565b5080516136be9060689060208401906139c8565b5060006065555050565b600081815b838110156138245760008782815181106136e9576136e96143c6565b6020026020010151600001519050600088838151811061370b5761370b6143c6565b602002602001015160200151905081600f0b88600f0b12801561372d57508584145b15613736578293505b81600f0b88600f0b128015613750575081600f0b87600f0b135b80613772575087600f0b82600f0b13158015613772575080600f0b87600f0b13155b80613792575080600f0b88600f0b128015613792575080600f0b87600f0b135b1561380f5760006137a38989614270565b90506137af8984613928565b98506137bb8383614270565b6137c5828b6141d6565b6137cf91906141d6565b97506040518060400160405280600019600f0b8152602001600019600f0b8152508a8581518110613802576138026143c6565b6020026020010181905250505b5050808061381c90614355565b9150506136cd565b50825b81811115613883578661383b6001836142c0565b8151811061384b5761384b6143c6565b6020026020010151878281518110613865576138656143c6565b6020026020010181905250808061387b90614303565b915050613827565b5060408051808201909152600f86810b825260985460208301916138a99188910b613928565b600f0b8152508682815181106138c1576138c16143c6565b602002602001018190525082806138d790614355565b609854909450600f90810b810b9086900b1315905061391e5760985461390f90879060009061390990600f0b88614270565b866136c8565b508261391a81614355565b9350505b5090949350505050565b600081600f0b83600f0b1261393d5781611a1e565b5090919050565b8280546139509061431a565b90600052602060002090601f01602090048101928261397257600085556139b8565b82601f1061398b5782800160ff198235161785556139b8565b828001600101855582156139b8579182015b828111156139b857823582559160200191906001019061399d565b506139c4929150613a3c565b5090565b8280546139d49061431a565b90600052602060002090601f0160209004810192826139f657600085556139b8565b82601f10613a0f57805160ff19168380011785556139b8565b828001600101855582156139b8579182015b828111156139b8578251825591602001919060010190613a21565b5b808211156139c45760008155600101613a3d565b60006001600160401b0380841115613a6b57613a6b6143dc565b604051601f8501601f19908116603f01168101908282118183101715613a9357613a936143dc565b81604052809350858152868686011115613aac57600080fd5b858560208301376000602087830101525050509392505050565b80356001600160a01b0381168114611a2557600080fd5b60008083601f840112613aef57600080fd5b5081356001600160401b03811115613b0657600080fd5b6020830191508360208260051b850101111561149f57600080fd5b600082601f830112613b3257600080fd5b611a1e83833560208501613a51565b600060208284031215613b5357600080fd5b611a1e82613ac6565b60008060408385031215613b6f57600080fd5b613b7883613ac6565b9150613b8660208401613ac6565b90509250929050565b600080600060608486031215613ba457600080fd5b613bad84613ac6565b9250613bbb60208501613ac6565b9150604084013590509250925092565b60008060008060808587031215613be157600080fd5b613bea85613ac6565b9350613bf860208601613ac6565b92506040850135915060608501356001600160401b03811115613c1a57600080fd5b8501601f81018713613c2b57600080fd5b613c3a87823560208401613a51565b91505092959194509250565b60008060408385031215613c5957600080fd5b613c6283613ac6565b915060208301358015158114613c7757600080fd5b809150509250929050565b60008060408385031215613c9557600080fd5b613c9e83613ac6565b946020939093013593505050565b60008060408385031215613cbf57600080fd5b613cc883613ac6565b915060208301356001600160601b0381168114613c7757600080fd5b60008060008060408587031215613cfa57600080fd5b84356001600160401b0380821115613d1157600080fd5b613d1d88838901613add565b90965094506020870135915080821115613d3657600080fd5b50613d4387828801613add565b95989497509550505050565b600060208284031215613d6157600080fd5b8135611a1e816143f2565b600060208284031215613d7e57600080fd5b8151611a1e816143f2565b60008060208385031215613d9c57600080fd5b82356001600160401b0380821115613db357600080fd5b818501915085601f830112613dc757600080fd5b813581811115613dd657600080fd5b866020828501011115613de857600080fd5b60209290920196919550909350505050565b6000806000806000806000806000806000806101808d8f031215613e1d57600080fd5b6001600160401b038d351115613e3257600080fd5b613e3f8e8e358f01613b21565b9b506001600160401b0360208e01351115613e5957600080fd5b613e698e60208f01358f01613b21565b9a50613e7760408e01613ac6565b9950613e8560608e01613ac6565b9b9e9a9d50989b60808101359a60a08201359a5060c0820135995060e08201359850610100820135975061012082013596506101408201359550610160909101359350915050565b600060208284031215613edf57600080fd5b5035919050565b60008060408385031215613ef957600080fd5b82359150613b8660208401613ac6565b60008060408385031215613f1c57600080fd5b50508035926020909101359150565b600080600080600080600080610100898b031215613f4857600080fd5b505086359860208801359850604088013597606081013597506080810135965060a0810135955060c0810135945060e0013592509050565b60008151808452613f988160208601602086016142d7565b601f01601f19169290920160200192915050565b60048110613fca57634e487b7160e01b600052602160045260246000fd5b9052565b6000808454613fdc8161431a565b60018281168015613ff4576001811461400557614034565b60ff19841687528287019450614034565b8860005260208060002060005b8581101561402b5781548a820152908401908201614012565b50505082870194505b5050505083516140488183602088016142d7565b01949350505050565b6001600160a01b038581168252841660208201526040810183905260806060820181905260009061408490830184613f80565b9695505050505050565b60208101610caf8284613fac565b602081526000611a1e6020830184613f80565b60006020808352600084546140c38161431a565b808487015260406001808416600081146140e457600181146140f857614126565b60ff19851689840152606089019550614126565b896000528660002060005b8581101561411e5781548b8201860152908301908801614103565b8a0184019650505b509398975050505050505050565b6020808252818101527f4f776e61626c653a2063616c6c6572206973206e6f7420746865206f776e6572604082015260600190565b6020808252602b908201527f496e697469616c697a61626c653a20636f6e7472616374206973206e6f74206960408201526a6e697469616c697a696e6760a81b606082015260800190565b8481526020810184905260408101839052608081016130696060830184613fac565b600081600f0b83600f0b600082128260016001607f1b030382138115161561420057614200614384565b8260016001607f1b031903821281161561421c5761421c614384565b50019392505050565b6000821982111561423857614238614384565b500190565b60008261424c5761424c61439a565b500490565b600081600019048311821515161561426b5761426b614384565b500290565b600081600f0b83600f0b600081128160016001607f1b03190183128115161561429b5761429b614384565b8160016001607f1b030183138116156142b6576142b6614384565b5090039392505050565b6000828210156142d2576142d2614384565b500390565b60005b838110156142f25781810151838201526020016142da565b8381111561179e5750506000910152565b60008161431257614312614384565b506000190190565b600181811c9082168061432e57607f821691505b6020821081141561434f57634e487b7160e01b600052602260045260246000fd5b50919050565b600060001982141561436957614369614384565b5060010190565b60008261437f5761437f61439a565b500690565b634e487b7160e01b600052601160045260246000fd5b634e487b7160e01b600052601260045260246000fd5b634e487b7160e01b600052602160045260246000fd5b634e487b7160e01b600052603260045260246000fd5b634e487b7160e01b600052604160045260246000fd5b6001600160e01b03198116811461240a57600080fdfea264697066735822122006542997253435bb75d53f60393cefd8b7c3942de5ccd5903d024ef91fada94964736f6c63430008060033",
  "devdoc": {
    "author": "Trader Joe",
    "events": {
      "Initialized(uint256,uint256,uint256,uint256,uint256,uint256,uint256,uint256)": {
        "details": "Emitted on initializePhases()",
        "params": {
          "allowlistDiscountPercent": "Discount applied to the last auction price during the allowlist mint",
          "allowlistStartTime": "allowlist mint start time in seconds",
          "auctionDropInterval": "Time elapsed between each drop in price in seconds",
          "auctionEndPrice": "Auction floor price in AVAX",
          "auctionSaleStartTime": "Auction start time in seconds",
          "auctionStartPrice": "Auction start price in AVAX",
          "publicSaleDiscountPercent": "Discount applied to the last auction price during the public sale",
          "publicSaleStartTime": "Public sale start time in seconds"
        }
      },
      "Mint(address,uint256,uint256,uint256,uint8)": {
        "details": "Emitted on auctionMint(), allowlistMint(), publicSaleMint()",
        "params": {
          "phase": "The phase in which the mint occurs",
          "price": "Price in AVAX for the NFTs",
          "quantity": "Amount of NFTs minted",
          "sender": "The address that minted",
          "startTokenId": "The token ID of the first minted NFT: if `startTokenId` = 100 and `quantity` = 2, `sender` minted 100 and 101"
        }
      }
    },
    "kind": "dev",
    "methods": {
      "allowlistMint(uint256)": {
        "params": {
          "_quantity": "Quantity of NFTs to mint"
        }
      },
      "approve(address,uint256)": {
        "details": "See {IERC721-approve}."
      },
      "auctionMint(uint256)": {
        "details": "The price decreases every `auctionDropInterval` by `auctionDropPerStep`",
        "params": {
          "_quantity": "Quantity of NFTs to buy"
        }
      },
      "balanceOf(address)": {
        "details": "See {IERC721-balanceOf}."
      },
      "currentPhase()": {
        "returns": {
          "_0": "phase Current phase"
        }
      },
      "devMint(uint256)": {
        "details": "Can only mint up to `amountForDevs`",
        "params": {
          "_quantity": "Quantity of NFTs to mint"
        }
      },
      "getAllowlistPrice()": {
        "returns": {
          "_0": "allowlistSalePrice Mint List sale price"
        }
      },
      "getApproved(uint256)": {
        "details": "See {IERC721-getApproved}."
      },
      "getAuctionPrice(uint256)": {
        "params": {
          "_saleStartTime": "Auction sale start time"
        },
        "returns": {
          "_0": "auctionSalePrice Auction sale price"
        }
      },
      "getOwnershipData(uint256)": {
        "params": {
          "_tokenId": "Token ID"
        },
        "returns": {
          "_0": "TokenOwnership Ownership struct for a specific token ID"
        }
      },
      "getPublicSalePrice()": {
        "returns": {
          "_0": "publicSalePrice Public sale price"
        }
      },
      "hasBatchToReveal()": {
        "returns": {
          "_0": "bool Whether reveal can be triggered or not",
          "_1": "uint256 The number of the next batch that will be revealed"
        }
      },
      "initialize(string,string,address,address,uint256,uint256,uint256,uint256,uint256,uint256,uint256,uint256)": {
        "params": {
          "_amountForAllowlist": "Amount of NFTs available for the allowlist mint (e.g 1000)",
          "_amountForAuction": "Amount of NFTs available for the auction (e.g 8000)",
          "_amountForDevs": "Amount of NFTs reserved for `projectOwner` (e.g 200)",
          "_batchRevealSize": "Size of the batch reveal",
          "_collectionSize": "The collection size (e.g 10000)",
          "_maxBatchSize": "Max amount of NFTs that can be minted at once",
          "_name": "ERC721 name",
          "_projectOwner": "The project owner",
          "_revealInterval": "Interval between two batch reveals in seconds",
          "_revealStartTime": "Start of the token URIs reveal in seconds",
          "_royaltyReceiver": "Royalty fee collector",
          "_symbol": "ERC721 symbol"
        }
      },
      "initializeJoeFee(uint256,address)": {
        "params": {
          "_joeFeeCollector": "The address to which the fees on the sale will be sent",
          "_joeFeePercent": "The fees collected by Joepegs on the sale benefits"
        }
      },
      "initializePhases(uint256,uint256,uint256,uint256,uint256,uint256,uint256,uint256)": {
        "details": "Can only be called once",
        "params": {
          "_allowlistDiscountPercent": "Discount applied to the last auction price during the allowlist mint",
          "_allowlistStartTime": "allowlist mint start time in seconds",
          "_auctionDropInterval": "Time elapsed between each drop in price in seconds",
          "_auctionEndPrice": "Auction floor price in AVAX",
          "_auctionSaleStartTime": "Auction start time in seconds",
          "_auctionStartPrice": "Auction start price in AVAX",
          "_publicSaleDiscountPercent": "Discount applied to the last auction price during the public sale",
          "_publicSaleStartTime": "Public sale start time in seconds"
        }
      },
      "isApprovedForAll(address,address)": {
        "details": "See {IERC721-isApprovedForAll}."
      },
      "name()": {
        "details": "See {IERC721Metadata-name}."
      },
      "numberMinted(address)": {
        "params": {
          "_owner": "The owner of the NFTs"
        },
        "returns": {
          "_0": "numberMinted Number of NFTs minted"
        }
      },
      "owner()": {
        "details": "Returns the address of the current owner."
      },
      "ownerOf(uint256)": {
        "details": "See {IERC721-ownerOf}."
      },
      "publicSaleMint(uint256)": {
        "params": {
          "_quantity": "Quantity of NFTs to mint"
        }
      },
      "renounceOwnership()": {
        "details": "Leaves the contract without owner. It will not be possible to call `onlyOwner` functions anymore. Can only be called by the current owner. NOTE: Renouncing ownership will leave the contract without an owner, thereby removing any functionality that is only available to the owner."
      },
      "royaltyInfo(uint256,uint256)": {
        "details": "Returns how much royalty is owed and to whom, based on a sale price that may be denominated in any unit of exchange. The royalty amount is denominated and should be payed in that same unit of exchange."
      },
      "safeTransferFrom(address,address,uint256)": {
        "details": "See {IERC721-safeTransferFrom}."
      },
      "safeTransferFrom(address,address,uint256,bytes)": {
        "details": "See {IERC721-safeTransferFrom}."
      },
      "seedAllowlist(address[],uint256[])": {
        "params": {
          "_addresses": "List of addresses allowed to mint during the allowlist phase",
          "_numNfts": "List of NFT quantities mintable per address"
        }
      },
      "setApprovalForAll(address,bool)": {
        "details": "See {IERC721-setApprovalForAll}."
      },
      "setBaseURI(string)": {
        "details": "This sets the URI for revealed tokens Only callable by project owner",
        "params": {
          "_baseURI": "Base URI to be set"
        }
      },
      "setProjectOwner(address)": {
        "details": "The project owner can call `devMint` any time",
        "params": {
          "_projectOwner": "The project owner"
        }
      },
      "setRoyaltyInfo(address,uint96)": {
        "params": {
          "_feePercent": "Royalty fee percent in basis point",
          "_receiver": "Royalty fee collector"
        }
      },
      "setUnrevealedURI(string)": {
        "details": "Only callable by project owner",
        "params": {
          "_unrevealedURI": "Unrevealed URI to be set"
        }
      },
      "supportsInterface(bytes4)": {
        "details": "Returns true if this contract implements the interface defined by `interfaceId`. See the corresponding https://eips.ethereum.org/EIPS/eip-165#how-interfaces-are-identified[EIP section] to learn more about how these IDs are created. This function call must use less than 30 000 gas.",
        "params": {
          "_interfaceId": "InterfaceId to consider. Comes from type(InterfaceContract).interfaceId"
        },
        "returns": {
          "_0": "isInterfaceSupported True if the considered interface is supported"
        }
      },
      "symbol()": {
        "details": "See {IERC721Metadata-symbol}."
      },
      "tokenURI(uint256)": {
        "params": {
          "_id": "Token id"
        },
        "returns": {
          "_0": "URI Token URI"
        }
      },
      "totalSupply()": {
        "details": "Burned tokens are calculated here, use _totalMinted() if you want to count just minted tokens."
      },
      "transferFrom(address,address,uint256)": {
        "details": "See {IERC721-transferFrom}."
      },
      "transferOwnership(address)": {
        "details": "Transfers ownership of the contract to a new account (`newOwner`). Can only be called by the current owner."
      },
      "withdrawAVAX(address)": {
        "params": {
          "_to": "Recipient of the earned AVAX"
        }
      }
    },
    "stateVariables": {
      "allowlistDiscountPercent": {
        "details": "In basis points e.g 500 for 5%"
      },
      "auctionDropInterval": {
        "details": "In seconds"
      },
      "auctionEndPrice": {
        "details": "auctionEndPrice is scaled to 1e18"
      },
      "auctionSaleDuration": {
        "details": "allowlistStartTime - auctionSaleStartTime"
      },
      "auctionSaleStartTime": {
        "details": "Timestamp"
      },
      "auctionStartPrice": {
        "details": "auctionStartPrice is scaled to 1e18"
      },
      "lastAuctionPrice": {
        "details": "lastAuctionPrice is scaled to 1e18"
      },
      "publicSaleDiscountPercent": {
        "details": "In basis points e.g 2500 for 25%"
      }
    },
    "title": "Launchpeg",
    "version": 1
  },
  "userdoc": {
    "kind": "user",
    "methods": {
      "BASIS_POINT_PRECISION()": {
        "notice": "Percentage base point"
      },
      "allowlist(address)": {
        "notice": "The amount of NFTs each allowed address can mint during the allowlist mint"
      },
      "allowlistDiscountPercent()": {
        "notice": "The discount applied to the last auction price during the allowlist mint"
      },
      "allowlistMint(uint256)": {
        "notice": "Mint NFTs during the allowlist mint"
      },
      "allowlistStartTime()": {
        "notice": "Start time of the allowlist mint in seconds"
      },
      "amountForAllowlist()": {
        "notice": "Amount of NFTs available for the allowlist mint (e.g 1000)"
      },
      "amountForAuction()": {
        "notice": "Amount of NFTs available for the auction (e.g 8000) Unsold items are put up for sale during the public sale."
      },
      "amountForDevs()": {
        "notice": "Amount of NFTs reserved for `projectOwner` (e.g 200)"
      },
      "amountMintedByDevs()": {
        "notice": "Tracks the amount of NFTs minted by `projectOwner`"
      },
      "amountMintedDuringAllowlist()": {
        "notice": "Tracks the amount of NFTs minted on Allowlist phase"
      },
      "amountMintedDuringAuction()": {
        "notice": "Tracks the amount of NFTs minted during the dutch auction"
      },
      "amountMintedDuringPublicSale()": {
        "notice": "Tracks the amount of NFTs minted on Public Sale phase"
      },
      "auctionDropInterval()": {
        "notice": "Time elapsed between each drop in price"
      },
      "auctionDropPerStep()": {
        "notice": "Amount in AVAX deducted at each interval"
      },
      "auctionEndPrice()": {
        "notice": "Auction floor price in AVAX"
      },
      "auctionMint(uint256)": {
        "notice": "Mint NFTs during the dutch auction"
      },
      "auctionSaleDuration()": {
        "notice": "Duration of the auction in seconds"
      },
      "auctionSaleStartTime()": {
        "notice": "Start time of the dutch auction in seconds"
      },
      "auctionStartPrice()": {
        "notice": "Auction start price in AVAX"
      },
      "baseURI()": {
        "notice": "Token URI after collection reveal"
      },
      "batchToSeed(uint256)": {
        "notice": "Randomized seeds used to shuffle TokenURIs"
      },
      "collectionSize()": {
        "notice": "The collection size (e.g 10000)"
      },
      "currentPhase()": {
        "notice": "Returns the current phase"
      },
      "devMint(uint256)": {
        "notice": "Mint NFTs to the project owner"
      },
      "forceReveal()": {
        "notice": "Allows ProjectOwner to reveal batches even if the conditions are not met"
      },
      "getAllowlistPrice()": {
        "notice": "Returns the price of the allowlist mint"
      },
      "getAuctionPrice(uint256)": {
        "notice": "Returns the current price of the dutch auction"
      },
      "getOwnershipData(uint256)": {
        "notice": "Returns the ownership data of a specific token ID"
      },
      "getPublicSalePrice()": {
        "notice": "Returns the price of the public sale"
      },
      "hasBatchToReveal()": {
        "notice": "Tells you if a batch can be revealed"
      },
      "initialize(string,string,address,address,uint256,uint256,uint256,uint256,uint256,uint256,uint256,uint256)": {
        "notice": "Launchpeg initialization Can only be called once"
      },
      "initializeJoeFee(uint256,address)": {
        "notice": "Initialize the sales fee percent taken by Joepegs and address that collects the fees"
      },
      "initializePhases(uint256,uint256,uint256,uint256,uint256,uint256,uint256,uint256)": {
        "notice": "Initialize the three phases of the sale"
      },
      "joeFeeCollector()": {
        "notice": "The address to which the fees on the sale will be sent"
      },
      "joeFeePercent()": {
        "notice": "The fees collected by Joepegs on the sale benefits"
      },
      "lastAuctionPrice()": {
        "notice": "The price of the last NFT sold during the auction"
      },
      "lastTokenRevealed()": {
        "notice": "Last token that has been revealed"
      },
      "maxBatchSize()": {
        "notice": "Max amount of NFTs that can be minted at once"
      },
      "maxPerAddressDuringMint()": {
        "notice": "Max amount of NFTs an address can mint"
      },
      "numberMinted(address)": {
        "notice": "Returns the number of NFTs minted by a specific address"
      },
      "projectOwner()": {
        "notice": "The project owner"
      },
      "publicSaleDiscountPercent()": {
        "notice": "The discount applied to the last auction price during the public sale"
      },
      "publicSaleMint(uint256)": {
        "notice": "Mint NFTs during the public sale"
      },
      "publicSaleStartTime()": {
        "notice": "Start time of the public sale in seconds"
      },
      "revealBatchSize()": {
        "notice": "Size of the batch reveal"
      },
      "revealInterval()": {
        "notice": "Time interval for gradual reveal"
      },
      "revealNextBatch()": {
        "notice": "Reveals the next batch if the reveal conditions are met"
      },
      "revealStartTime()": {
        "notice": "Timestamp for the start of the reveal process"
      },
      "seedAllowlist(address[],uint256[])": {
        "notice": "Set amount of NFTs mintable per address during the allowlist phase"
      },
      "setBaseURI(string)": {
        "notice": "Set the base URI"
      },
      "setProjectOwner(address)": {
        "notice": "Set the project owner"
      },
      "setRoyaltyInfo(address,uint96)": {
        "notice": "Set the royalty fee"
      },
      "setUnrevealedURI(string)": {
        "notice": "Set the unrevealed URI"
      },
      "tokenURI(uint256)": {
        "notice": "Returns the Uniform Resource Identifier (URI) for `tokenId` token."
      },
      "unrevealedURI()": {
        "notice": "Token URI before the collection reveal"
      },
      "withdrawAVAX(address)": {
        "notice": "Withdraw AVAX to the contract owner"
      }
    },
    "notice": "Implements a fair and gas efficient NFT launch mechanism. The sale takes place in 3 phases: dutch auction, allowlist mint, public sale.",
    "version": 1
  },
  "storageLayout": {
    "storage": [
      {
        "astId": 149,
        "contract": "contracts/Launchpeg.sol:Launchpeg",
        "label": "_initialized",
        "offset": 0,
        "slot": "0",
        "type": "t_bool"
      },
      {
        "astId": 152,
        "contract": "contracts/Launchpeg.sol:Launchpeg",
        "label": "_initializing",
        "offset": 1,
        "slot": "0",
        "type": "t_bool"
      },
      {
        "astId": 938,
        "contract": "contracts/Launchpeg.sol:Launchpeg",
        "label": "__gap",
        "offset": 0,
        "slot": "1",
        "type": "t_array(t_uint256)50_storage"
      },
      {
        "astId": 1185,
        "contract": "contracts/Launchpeg.sol:Launchpeg",
        "label": "__gap",
        "offset": 0,
        "slot": "51",
        "type": "t_array(t_uint256)50_storage"
      },
      {
        "astId": 6130,
        "contract": "contracts/Launchpeg.sol:Launchpeg",
        "label": "_currentIndex",
        "offset": 0,
        "slot": "101",
        "type": "t_uint256"
      },
      {
        "astId": 6132,
        "contract": "contracts/Launchpeg.sol:Launchpeg",
        "label": "_burnCounter",
        "offset": 0,
        "slot": "102",
        "type": "t_uint256"
      },
      {
        "astId": 6134,
        "contract": "contracts/Launchpeg.sol:Launchpeg",
        "label": "_name",
        "offset": 0,
        "slot": "103",
        "type": "t_string_storage"
      },
      {
        "astId": 6136,
        "contract": "contracts/Launchpeg.sol:Launchpeg",
        "label": "_symbol",
        "offset": 0,
        "slot": "104",
        "type": "t_string_storage"
      },
      {
        "astId": 6141,
        "contract": "contracts/Launchpeg.sol:Launchpeg",
        "label": "_ownerships",
        "offset": 0,
        "slot": "105",
        "type": "t_mapping(t_uint256,t_struct(TokenOwnership)6119_storage)"
      },
      {
        "astId": 6146,
        "contract": "contracts/Launchpeg.sol:Launchpeg",
        "label": "_addressData",
        "offset": 0,
        "slot": "106",
        "type": "t_mapping(t_address,t_struct(AddressData)6128_storage)"
      },
      {
        "astId": 6150,
        "contract": "contracts/Launchpeg.sol:Launchpeg",
        "label": "_tokenApprovals",
        "offset": 0,
        "slot": "107",
        "type": "t_mapping(t_uint256,t_address)"
      },
      {
        "astId": 6156,
        "contract": "contracts/Launchpeg.sol:Launchpeg",
        "label": "_operatorApprovals",
        "offset": 0,
        "slot": "108",
        "type": "t_mapping(t_address,t_mapping(t_address,t_bool))"
      },
      {
        "astId": 7404,
        "contract": "contracts/Launchpeg.sol:Launchpeg",
        "label": "__gap",
        "offset": 0,
        "slot": "109",
        "type": "t_array(t_uint256)42_storage"
      },
      {
        "astId": 2140,
        "contract": "contracts/Launchpeg.sol:Launchpeg",
        "label": "collectionSize",
        "offset": 0,
        "slot": "151",
        "type": "t_uint256"
      },
      {
        "astId": 2142,
        "contract": "contracts/Launchpeg.sol:Launchpeg",
        "label": "intCollectionSize",
        "offset": 0,
        "slot": "152",
        "type": "t_int128"
      },
      {
        "astId": 2146,
        "contract": "contracts/Launchpeg.sol:Launchpeg",
        "label": "revealBatchSize",
        "offset": 0,
        "slot": "153",
        "type": "t_uint256"
      },
      {
        "astId": 2152,
        "contract": "contracts/Launchpeg.sol:Launchpeg",
        "label": "batchToSeed",
        "offset": 0,
        "slot": "154",
        "type": "t_mapping(t_uint256,t_uint256)"
      },
      {
        "astId": 2157,
        "contract": "contracts/Launchpeg.sol:Launchpeg",
        "label": "lastTokenRevealed",
        "offset": 0,
        "slot": "155",
        "type": "t_uint256"
      },
      {
        "astId": 2160,
        "contract": "contracts/Launchpeg.sol:Launchpeg",
        "label": "_rangeLength",
        "offset": 0,
        "slot": "156",
        "type": "t_uint256"
      },
      {
        "astId": 2164,
        "contract": "contracts/Launchpeg.sol:Launchpeg",
        "label": "revealStartTime",
        "offset": 0,
        "slot": "157",
        "type": "t_uint256"
      },
      {
        "astId": 2168,
        "contract": "contracts/Launchpeg.sol:Launchpeg",
        "label": "revealInterval",
        "offset": 0,
        "slot": "158",
        "type": "t_uint256"
      },
      {
        "astId": 10,
        "contract": "contracts/Launchpeg.sol:Launchpeg",
        "label": "_owner",
        "offset": 0,
        "slot": "159",
        "type": "t_address"
      },
      {
        "astId": 122,
        "contract": "contracts/Launchpeg.sol:Launchpeg",
        "label": "__gap",
        "offset": 0,
        "slot": "160",
        "type": "t_array(t_uint256)49_storage"
      },
      {
        "astId": 230,
        "contract": "contracts/Launchpeg.sol:Launchpeg",
        "label": "_status",
        "offset": 0,
        "slot": "209",
        "type": "t_uint256"
      },
      {
        "astId": 274,
        "contract": "contracts/Launchpeg.sol:Launchpeg",
        "label": "__gap",
        "offset": 0,
        "slot": "210",
        "type": "t_array(t_uint256)49_storage"
      },
      {
        "astId": 468,
        "contract": "contracts/Launchpeg.sol:Launchpeg",
        "label": "_defaultRoyaltyInfo",
        "offset": 0,
        "slot": "259",
        "type": "t_struct(RoyaltyInfo)465_storage"
      },
      {
        "astId": 473,
        "contract": "contracts/Launchpeg.sol:Launchpeg",
        "label": "_tokenRoyaltyInfo",
        "offset": 0,
        "slot": "260",
        "type": "t_mapping(t_uint256,t_struct(RoyaltyInfo)465_storage)"
      },
      {
        "astId": 653,
        "contract": "contracts/Launchpeg.sol:Launchpeg",
        "label": "__gap",
        "offset": 0,
        "slot": "261",
        "type": "t_array(t_uint256)48_storage"
      },
      {
        "astId": 1307,
        "contract": "contracts/Launchpeg.sol:Launchpeg",
        "label": "collectionSize",
        "offset": 0,
        "slot": "309",
        "type": "t_uint256"
      },
      {
        "astId": 1311,
        "contract": "contracts/Launchpeg.sol:Launchpeg",
        "label": "amountForDevs",
        "offset": 0,
        "slot": "310",
        "type": "t_uint256"
      },
      {
        "astId": 1315,
        "contract": "contracts/Launchpeg.sol:Launchpeg",
        "label": "amountForAllowlist",
        "offset": 0,
        "slot": "311",
        "type": "t_uint256"
      },
      {
        "astId": 1319,
        "contract": "contracts/Launchpeg.sol:Launchpeg",
        "label": "maxBatchSize",
        "offset": 0,
        "slot": "312",
        "type": "t_uint256"
      },
      {
        "astId": 1323,
        "contract": "contracts/Launchpeg.sol:Launchpeg",
        "label": "maxPerAddressDuringMint",
        "offset": 0,
        "slot": "313",
        "type": "t_uint256"
      },
      {
        "astId": 1327,
        "contract": "contracts/Launchpeg.sol:Launchpeg",
        "label": "joeFeePercent",
        "offset": 0,
        "slot": "314",
        "type": "t_uint256"
      },
      {
        "astId": 1331,
        "contract": "contracts/Launchpeg.sol:Launchpeg",
        "label": "joeFeeCollector",
        "offset": 0,
        "slot": "315",
        "type": "t_address"
      },
      {
        "astId": 1339,
        "contract": "contracts/Launchpeg.sol:Launchpeg",
        "label": "projectOwner",
        "offset": 0,
        "slot": "316",
        "type": "t_address"
      },
      {
        "astId": 1343,
        "contract": "contracts/Launchpeg.sol:Launchpeg",
        "label": "baseURI",
        "offset": 0,
        "slot": "317",
        "type": "t_string_storage"
      },
      {
        "astId": 1347,
        "contract": "contracts/Launchpeg.sol:Launchpeg",
        "label": "unrevealedURI",
        "offset": 0,
        "slot": "318",
        "type": "t_string_storage"
      },
      {
        "astId": 1353,
        "contract": "contracts/Launchpeg.sol:Launchpeg",
        "label": "allowlist",
        "offset": 0,
        "slot": "319",
        "type": "t_mapping(t_address,t_uint256)"
      },
      {
        "astId": 1357,
        "contract": "contracts/Launchpeg.sol:Launchpeg",
        "label": "amountMintedByDevs",
        "offset": 0,
        "slot": "320",
        "type": "t_uint256"
      },
      {
        "astId": 1361,
        "contract": "contracts/Launchpeg.sol:Launchpeg",
        "label": "amountMintedDuringAllowlist",
        "offset": 0,
        "slot": "321",
        "type": "t_uint256"
      },
      {
        "astId": 1365,
        "contract": "contracts/Launchpeg.sol:Launchpeg",
        "label": "amountMintedDuringPublicSale",
        "offset": 0,
        "slot": "322",
        "type": "t_uint256"
      },
      {
        "astId": 1369,
        "contract": "contracts/Launchpeg.sol:Launchpeg",
        "label": "allowlistStartTime",
        "offset": 0,
        "slot": "323",
        "type": "t_uint256"
      },
      {
        "astId": 1373,
        "contract": "contracts/Launchpeg.sol:Launchpeg",
        "label": "publicSaleStartTime",
        "offset": 0,
        "slot": "324",
        "type": "t_uint256"
      },
      {
        "astId": 3276,
        "contract": "contracts/Launchpeg.sol:Launchpeg",
        "label": "amountForAuction",
        "offset": 0,
        "slot": "325",
        "type": "t_uint256"
      },
      {
        "astId": 3280,
        "contract": "contracts/Launchpeg.sol:Launchpeg",
        "label": "auctionSaleStartTime",
        "offset": 0,
        "slot": "326",
        "type": "t_uint256"
      },
      {
        "astId": 3284,
        "contract": "contracts/Launchpeg.sol:Launchpeg",
        "label": "auctionStartPrice",
        "offset": 0,
        "slot": "327",
        "type": "t_uint256"
      },
      {
        "astId": 3288,
        "contract": "contracts/Launchpeg.sol:Launchpeg",
        "label": "auctionEndPrice",
        "offset": 0,
        "slot": "328",
        "type": "t_uint256"
      },
      {
        "astId": 3292,
        "contract": "contracts/Launchpeg.sol:Launchpeg",
        "label": "auctionSaleDuration",
        "offset": 0,
        "slot": "329",
        "type": "t_uint256"
      },
      {
        "astId": 3296,
        "contract": "contracts/Launchpeg.sol:Launchpeg",
        "label": "auctionDropInterval",
        "offset": 0,
        "slot": "330",
        "type": "t_uint256"
      },
      {
        "astId": 3300,
        "contract": "contracts/Launchpeg.sol:Launchpeg",
        "label": "auctionDropPerStep",
        "offset": 0,
        "slot": "331",
        "type": "t_uint256"
      },
      {
        "astId": 3304,
        "contract": "contracts/Launchpeg.sol:Launchpeg",
        "label": "allowlistDiscountPercent",
        "offset": 0,
        "slot": "332",
        "type": "t_uint256"
      },
      {
        "astId": 3308,
        "contract": "contracts/Launchpeg.sol:Launchpeg",
        "label": "publicSaleDiscountPercent",
        "offset": 0,
        "slot": "333",
        "type": "t_uint256"
      },
      {
        "astId": 3312,
        "contract": "contracts/Launchpeg.sol:Launchpeg",
        "label": "amountMintedDuringAuction",
        "offset": 0,
        "slot": "334",
        "type": "t_uint256"
      },
      {
        "astId": 3316,
        "contract": "contracts/Launchpeg.sol:Launchpeg",
        "label": "lastAuctionPrice",
        "offset": 0,
        "slot": "335",
        "type": "t_uint256"
      }
    ],
    "types": {
      "t_address": {
        "encoding": "inplace",
        "label": "address",
        "numberOfBytes": "20"
      },
      "t_array(t_uint256)42_storage": {
        "base": "t_uint256",
        "encoding": "inplace",
        "label": "uint256[42]",
        "numberOfBytes": "1344"
      },
      "t_array(t_uint256)48_storage": {
        "base": "t_uint256",
        "encoding": "inplace",
        "label": "uint256[48]",
        "numberOfBytes": "1536"
      },
      "t_array(t_uint256)49_storage": {
        "base": "t_uint256",
        "encoding": "inplace",
        "label": "uint256[49]",
        "numberOfBytes": "1568"
      },
      "t_array(t_uint256)50_storage": {
        "base": "t_uint256",
        "encoding": "inplace",
        "label": "uint256[50]",
        "numberOfBytes": "1600"
      },
      "t_bool": {
        "encoding": "inplace",
        "label": "bool",
        "numberOfBytes": "1"
      },
      "t_int128": {
        "encoding": "inplace",
        "label": "int128",
        "numberOfBytes": "16"
      },
      "t_mapping(t_address,t_bool)": {
        "encoding": "mapping",
        "key": "t_address",
        "label": "mapping(address => bool)",
        "numberOfBytes": "32",
        "value": "t_bool"
      },
      "t_mapping(t_address,t_mapping(t_address,t_bool))": {
        "encoding": "mapping",
        "key": "t_address",
        "label": "mapping(address => mapping(address => bool))",
        "numberOfBytes": "32",
        "value": "t_mapping(t_address,t_bool)"
      },
      "t_mapping(t_address,t_struct(AddressData)6128_storage)": {
        "encoding": "mapping",
        "key": "t_address",
        "label": "mapping(address => struct ERC721AUpgradeable.AddressData)",
        "numberOfBytes": "32",
        "value": "t_struct(AddressData)6128_storage"
      },
      "t_mapping(t_address,t_uint256)": {
        "encoding": "mapping",
        "key": "t_address",
        "label": "mapping(address => uint256)",
        "numberOfBytes": "32",
        "value": "t_uint256"
      },
      "t_mapping(t_uint256,t_address)": {
        "encoding": "mapping",
        "key": "t_uint256",
        "label": "mapping(uint256 => address)",
        "numberOfBytes": "32",
        "value": "t_address"
      },
      "t_mapping(t_uint256,t_struct(RoyaltyInfo)465_storage)": {
        "encoding": "mapping",
        "key": "t_uint256",
        "label": "mapping(uint256 => struct ERC2981Upgradeable.RoyaltyInfo)",
        "numberOfBytes": "32",
        "value": "t_struct(RoyaltyInfo)465_storage"
      },
      "t_mapping(t_uint256,t_struct(TokenOwnership)6119_storage)": {
        "encoding": "mapping",
        "key": "t_uint256",
        "label": "mapping(uint256 => struct ERC721AUpgradeable.TokenOwnership)",
        "numberOfBytes": "32",
        "value": "t_struct(TokenOwnership)6119_storage"
      },
      "t_mapping(t_uint256,t_uint256)": {
        "encoding": "mapping",
        "key": "t_uint256",
        "label": "mapping(uint256 => uint256)",
        "numberOfBytes": "32",
        "value": "t_uint256"
      },
      "t_string_storage": {
        "encoding": "bytes",
        "label": "string",
        "numberOfBytes": "32"
      },
      "t_struct(AddressData)6128_storage": {
        "encoding": "inplace",
        "label": "struct ERC721AUpgradeable.AddressData",
        "members": [
          {
            "astId": 6121,
            "contract": "contracts/Launchpeg.sol:Launchpeg",
            "label": "balance",
            "offset": 0,
            "slot": "0",
            "type": "t_uint64"
          },
          {
            "astId": 6123,
            "contract": "contracts/Launchpeg.sol:Launchpeg",
            "label": "numberMinted",
            "offset": 8,
            "slot": "0",
            "type": "t_uint64"
          },
          {
            "astId": 6125,
            "contract": "contracts/Launchpeg.sol:Launchpeg",
            "label": "numberBurned",
            "offset": 16,
            "slot": "0",
            "type": "t_uint64"
          },
          {
            "astId": 6127,
            "contract": "contracts/Launchpeg.sol:Launchpeg",
            "label": "aux",
            "offset": 24,
            "slot": "0",
            "type": "t_uint64"
          }
        ],
        "numberOfBytes": "32"
      },
      "t_struct(RoyaltyInfo)465_storage": {
        "encoding": "inplace",
        "label": "struct ERC2981Upgradeable.RoyaltyInfo",
        "members": [
          {
            "astId": 462,
            "contract": "contracts/Launchpeg.sol:Launchpeg",
            "label": "receiver",
            "offset": 0,
            "slot": "0",
            "type": "t_address"
          },
          {
            "astId": 464,
            "contract": "contracts/Launchpeg.sol:Launchpeg",
            "label": "royaltyFraction",
            "offset": 20,
            "slot": "0",
            "type": "t_uint96"
          }
        ],
        "numberOfBytes": "32"
      },
      "t_struct(TokenOwnership)6119_storage": {
        "encoding": "inplace",
        "label": "struct ERC721AUpgradeable.TokenOwnership",
        "members": [
          {
            "astId": 6114,
            "contract": "contracts/Launchpeg.sol:Launchpeg",
            "label": "addr",
            "offset": 0,
            "slot": "0",
            "type": "t_address"
          },
          {
            "astId": 6116,
            "contract": "contracts/Launchpeg.sol:Launchpeg",
            "label": "startTimestamp",
            "offset": 20,
            "slot": "0",
            "type": "t_uint64"
          },
          {
            "astId": 6118,
            "contract": "contracts/Launchpeg.sol:Launchpeg",
            "label": "burned",
            "offset": 28,
            "slot": "0",
            "type": "t_bool"
          }
        ],
        "numberOfBytes": "32"
      },
      "t_uint256": {
        "encoding": "inplace",
        "label": "uint256",
        "numberOfBytes": "32"
      },
      "t_uint64": {
        "encoding": "inplace",
        "label": "uint64",
        "numberOfBytes": "8"
      },
      "t_uint96": {
        "encoding": "inplace",
        "label": "uint96",
        "numberOfBytes": "12"
      }
    }
  }
}