{
  "address": "0x237D74B6DC28E48a08FE11bb94EA513a3B985FbF",
  "abi": [
    {
      "inputs": [],
      "name": "ApprovalCallerNotOwnerNorApproved",
      "type": "error"
    },
    {
      "inputs": [],
      "name": "ApprovalQueryForNonexistentToken",
      "type": "error"
    },
    {
      "inputs": [],
      "name": "ApprovalToCurrentOwner",
      "type": "error"
    },
    {
      "inputs": [],
      "name": "ApproveToCaller",
      "type": "error"
    },
    {
      "inputs": [],
      "name": "BalanceQueryForZeroAddress",
      "type": "error"
    },
    {
      "inputs": [],
      "name": "Launchpeg__AllowlistBeforePreMint",
      "type": "error"
    },
    {
      "inputs": [],
      "name": "Launchpeg__BatchRevealDisabled",
      "type": "error"
    },
    {
      "inputs": [],
      "name": "Launchpeg__CanNotMintThisMany",
      "type": "error"
    },
    {
      "inputs": [],
      "name": "Launchpeg__EndPriceGreaterThanStartPrice",
      "type": "error"
    },
    {
      "inputs": [],
      "name": "Launchpeg__InvalidAuctionDropInterval",
      "type": "error"
    },
    {
      "inputs": [],
      "name": "Launchpeg__InvalidJoeFeeCollector",
      "type": "error"
    },
    {
      "inputs": [],
      "name": "Launchpeg__InvalidMaxBatchSize",
      "type": "error"
    },
    {
      "inputs": [],
      "name": "Launchpeg__InvalidPercent",
      "type": "error"
    },
    {
      "inputs": [],
      "name": "Launchpeg__InvalidProjectOwner",
      "type": "error"
    },
    {
      "inputs": [],
      "name": "Launchpeg__InvalidQuantity",
      "type": "error"
    },
    {
      "inputs": [],
      "name": "Launchpeg__InvalidRoyaltyInfo",
      "type": "error"
    },
    {
      "inputs": [],
      "name": "Launchpeg__InvalidStartTime",
      "type": "error"
    },
    {
      "inputs": [],
      "name": "Launchpeg__JoeFeeAlreadyInitialized",
      "type": "error"
    },
    {
      "inputs": [],
      "name": "Launchpeg__LargerCollectionSizeNeeded",
      "type": "error"
    },
    {
      "inputs": [],
      "name": "Launchpeg__MaxSupplyForBatchMintReached",
      "type": "error"
    },
    {
      "inputs": [],
      "name": "Launchpeg__MaxSupplyForDevReached",
      "type": "error"
    },
    {
      "inputs": [],
      "name": "Launchpeg__MaxSupplyReached",
      "type": "error"
    },
    {
      "inputs": [],
      "name": "Launchpeg__NotEligibleForAllowlistMint",
      "type": "error"
    },
    {
      "inputs": [
        {
          "internalType": "uint256",
          "name": "avaxSent",
          "type": "uint256"
        }
      ],
      "name": "Launchpeg__NotEnoughAVAX",
      "type": "error"
    },
    {
      "inputs": [],
      "name": "Launchpeg__NotInitialized",
      "type": "error"
    },
    {
      "inputs": [],
      "name": "Launchpeg__PreMintBeforeAuction",
      "type": "error"
    },
    {
      "inputs": [],
      "name": "Launchpeg__PublicSaleBeforeAllowlist",
      "type": "error"
    },
    {
      "inputs": [],
      "name": "Launchpeg__PublicSaleEndBeforePublicSaleStart",
      "type": "error"
    },
    {
      "inputs": [],
      "name": "Launchpeg__RevealNextBatchNotAvailable",
      "type": "error"
    },
    {
      "inputs": [],
      "name": "Launchpeg__TransferFailed",
      "type": "error"
    },
    {
      "inputs": [],
      "name": "Launchpeg__Unauthorized",
      "type": "error"
    },
    {
      "inputs": [],
      "name": "Launchpeg__WithdrawAVAXNotAvailable",
      "type": "error"
    },
    {
      "inputs": [],
      "name": "Launchpeg__WrongAddressesAndNumSlotsLength",
      "type": "error"
    },
    {
      "inputs": [],
      "name": "Launchpeg__WrongPhase",
      "type": "error"
    },
    {
      "inputs": [],
      "name": "MintToZeroAddress",
      "type": "error"
    },
    {
      "inputs": [],
      "name": "MintZeroQuantity",
      "type": "error"
    },
    {
      "inputs": [],
      "name": "OwnerQueryForNonexistentToken",
      "type": "error"
    },
    {
      "inputs": [],
      "name": "PendingOwnableUpgradeable__AddressZero",
      "type": "error"
    },
    {
      "inputs": [],
      "name": "PendingOwnableUpgradeable__NoPendingOwner",
      "type": "error"
    },
    {
      "inputs": [],
      "name": "PendingOwnableUpgradeable__NotOwner",
      "type": "error"
    },
    {
      "inputs": [],
      "name": "PendingOwnableUpgradeable__NotPendingOwner",
      "type": "error"
    },
    {
      "inputs": [],
      "name": "PendingOwnableUpgradeable__PendingOwnerAlreadySet",
      "type": "error"
    },
    {
      "inputs": [],
      "name": "SafeAccessControlEnumerableUpgradeable__RoleIsDefaultAdmin",
      "type": "error"
    },
    {
      "inputs": [
        {
          "internalType": "bytes32",
          "name": "role",
          "type": "bytes32"
        },
        {
          "internalType": "address",
          "name": "sender",
          "type": "address"
        }
      ],
      "name": "SafeAccessControlEnumerableUpgradeable__SenderMissingRoleAndIsNotOwner",
      "type": "error"
    },
    {
      "inputs": [],
      "name": "SafePausableUpgradeable__AlreadyPaused",
      "type": "error"
    },
    {
      "inputs": [],
      "name": "SafePausableUpgradeable__AlreadyUnpaused",
      "type": "error"
    },
    {
      "inputs": [],
      "name": "TransferCallerNotOwnerNorApproved",
      "type": "error"
    },
    {
      "inputs": [],
      "name": "TransferFromIncorrectOwner",
      "type": "error"
    },
    {
      "inputs": [],
      "name": "TransferToNonERC721ReceiverImplementer",
      "type": "error"
    },
    {
      "inputs": [],
      "name": "TransferToZeroAddress",
      "type": "error"
    },
    {
      "anonymous": false,
      "inputs": [],
      "name": "AllowlistSeeded",
      "type": "event"
    },
    {
      "anonymous": false,
      "inputs": [
        {
          "indexed": false,
          "internalType": "uint256",
          "name": "allowlistStartTime",
          "type": "uint256"
        }
      ],
      "name": "AllowlistStartTimeSet",
      "type": "event"
    },
    {
      "anonymous": false,
      "inputs": [
        {
          "indexed": true,
          "internalType": "address",
          "name": "owner",
          "type": "address"
        },
        {
          "indexed": true,
          "internalType": "address",
          "name": "approved",
          "type": "address"
        },
        {
          "indexed": true,
          "internalType": "uint256",
          "name": "tokenId",
          "type": "uint256"
        }
      ],
      "name": "Approval",
      "type": "event"
    },
    {
      "anonymous": false,
      "inputs": [
        {
          "indexed": true,
          "internalType": "address",
          "name": "owner",
          "type": "address"
        },
        {
          "indexed": true,
          "internalType": "address",
          "name": "operator",
          "type": "address"
        },
        {
          "indexed": false,
          "internalType": "bool",
          "name": "approved",
          "type": "bool"
        }
      ],
      "name": "ApprovalForAll",
      "type": "event"
    },
    {
      "anonymous": false,
      "inputs": [
        {
          "indexed": false,
          "internalType": "uint256",
          "name": "auctionSaleStartTime",
          "type": "uint256"
        }
      ],
      "name": "AuctionSaleStartTimeSet",
      "type": "event"
    },
    {
      "anonymous": false,
      "inputs": [
        {
          "indexed": true,
          "internalType": "address",
          "name": "sender",
          "type": "address"
        },
        {
          "indexed": false,
          "internalType": "uint256",
          "name": "amount",
          "type": "uint256"
        },
        {
          "indexed": false,
          "internalType": "uint256",
          "name": "fee",
          "type": "uint256"
        }
      ],
      "name": "AvaxWithdraw",
      "type": "event"
    },
    {
      "anonymous": false,
      "inputs": [
        {
          "indexed": false,
          "internalType": "string",
          "name": "baseURI",
          "type": "string"
        }
      ],
      "name": "BaseURISet",
      "type": "event"
    },
    {
      "anonymous": false,
      "inputs": [
        {
          "indexed": true,
          "internalType": "address",
          "name": "receiver",
          "type": "address"
        },
        {
          "indexed": false,
          "internalType": "uint256",
          "name": "feePercent",
          "type": "uint256"
        }
      ],
      "name": "DefaultRoyaltySet",
      "type": "event"
    },
    {
      "anonymous": false,
      "inputs": [
        {
          "indexed": true,
          "internalType": "address",
          "name": "sender",
          "type": "address"
        },
        {
          "indexed": false,
          "internalType": "uint256",
          "name": "quantity",
          "type": "uint256"
        }
      ],
      "name": "DevMint",
      "type": "event"
    },
    {
      "anonymous": false,
      "inputs": [
        {
          "indexed": false,
          "internalType": "uint256",
          "name": "auctionSaleStartTime",
          "type": "uint256"
        },
        {
          "indexed": false,
          "internalType": "uint256",
          "name": "auctionStartPrice",
          "type": "uint256"
        },
        {
          "indexed": false,
          "internalType": "uint256",
          "name": "auctionEndPrice",
          "type": "uint256"
        },
        {
          "indexed": false,
          "internalType": "uint256",
          "name": "auctionDropInterval",
          "type": "uint256"
        },
        {
          "indexed": false,
          "internalType": "uint256",
          "name": "preMintStartTime",
          "type": "uint256"
        },
        {
          "indexed": false,
          "internalType": "uint256",
          "name": "allowlistStartTime",
          "type": "uint256"
        },
        {
          "indexed": false,
          "internalType": "uint256",
          "name": "allowlistDiscountPercent",
          "type": "uint256"
        },
        {
          "indexed": false,
          "internalType": "uint256",
          "name": "publicSaleStartTime",
          "type": "uint256"
        },
        {
          "indexed": false,
          "internalType": "uint256",
          "name": "publicSaleEndTime",
          "type": "uint256"
        },
        {
          "indexed": false,
          "internalType": "uint256",
          "name": "publicSaleDiscountPercent",
          "type": "uint256"
        }
      ],
      "name": "Initialized",
      "type": "event"
    },
    {
      "anonymous": false,
      "inputs": [
        {
          "indexed": false,
          "internalType": "uint256",
          "name": "feePercent",
          "type": "uint256"
        },
        {
          "indexed": false,
          "internalType": "address",
          "name": "feeCollector",
          "type": "address"
        }
      ],
      "name": "JoeFeeInitialized",
      "type": "event"
    },
    {
      "anonymous": false,
      "inputs": [
        {
          "indexed": true,
          "internalType": "address",
          "name": "sender",
          "type": "address"
        },
        {
          "indexed": false,
          "internalType": "uint256",
          "name": "quantity",
          "type": "uint256"
        },
        {
          "indexed": false,
          "internalType": "uint256",
          "name": "price",
          "type": "uint256"
        },
        {
          "indexed": false,
          "internalType": "uint256",
          "name": "startTokenId",
          "type": "uint256"
        },
        {
          "indexed": false,
          "internalType": "enum IBaseLaunchpeg.Phase",
          "name": "phase",
          "type": "uint8"
        }
      ],
      "name": "Mint",
      "type": "event"
    },
    {
      "anonymous": false,
      "inputs": [
        {
          "indexed": true,
          "internalType": "address",
          "name": "previousOwner",
          "type": "address"
        },
        {
          "indexed": true,
          "internalType": "address",
          "name": "newOwner",
          "type": "address"
        }
      ],
      "name": "OwnershipTransferred",
      "type": "event"
    },
    {
      "anonymous": false,
      "inputs": [
        {
          "indexed": false,
          "internalType": "address",
          "name": "account",
          "type": "address"
        }
      ],
      "name": "Paused",
      "type": "event"
    },
    {
      "anonymous": false,
      "inputs": [
        {
          "indexed": true,
          "internalType": "address",
          "name": "pendingOwner",
          "type": "address"
        }
      ],
      "name": "PendingOwnerSet",
      "type": "event"
    },
    {
      "anonymous": false,
      "inputs": [
        {
          "indexed": true,
          "internalType": "address",
          "name": "sender",
          "type": "address"
        },
        {
          "indexed": false,
          "internalType": "uint256",
          "name": "quantity",
          "type": "uint256"
        },
        {
          "indexed": false,
          "internalType": "uint256",
          "name": "price",
          "type": "uint256"
        }
      ],
      "name": "PreMint",
      "type": "event"
    },
    {
      "anonymous": false,
      "inputs": [
        {
          "indexed": false,
          "internalType": "uint256",
          "name": "preMintStartTime",
          "type": "uint256"
        }
      ],
      "name": "PreMintStartTimeSet",
      "type": "event"
    },
    {
      "anonymous": false,
      "inputs": [
        {
          "indexed": false,
          "internalType": "uint256",
          "name": "publicSaleEndTime",
          "type": "uint256"
        }
      ],
      "name": "PublicSaleEndTimeSet",
      "type": "event"
    },
    {
      "anonymous": false,
      "inputs": [
        {
          "indexed": false,
          "internalType": "uint256",
          "name": "publicSaleStartTime",
          "type": "uint256"
        }
      ],
      "name": "PublicSaleStartTimeSet",
      "type": "event"
    },
    {
      "anonymous": false,
      "inputs": [
        {
          "indexed": true,
          "internalType": "bytes32",
          "name": "role",
          "type": "bytes32"
        },
        {
          "indexed": true,
          "internalType": "bytes32",
          "name": "previousAdminRole",
          "type": "bytes32"
        },
        {
          "indexed": true,
          "internalType": "bytes32",
          "name": "newAdminRole",
          "type": "bytes32"
        }
      ],
      "name": "RoleAdminChanged",
      "type": "event"
    },
    {
      "anonymous": false,
      "inputs": [
        {
          "indexed": true,
          "internalType": "bytes32",
          "name": "role",
          "type": "bytes32"
        },
        {
          "indexed": true,
          "internalType": "address",
          "name": "account",
          "type": "address"
        },
        {
          "indexed": true,
          "internalType": "address",
          "name": "sender",
          "type": "address"
        }
      ],
      "name": "RoleGranted",
      "type": "event"
    },
    {
      "anonymous": false,
      "inputs": [
        {
          "indexed": true,
          "internalType": "bytes32",
          "name": "role",
          "type": "bytes32"
        },
        {
          "indexed": true,
          "internalType": "address",
          "name": "account",
          "type": "address"
        },
        {
          "indexed": true,
          "internalType": "address",
          "name": "sender",
          "type": "address"
        }
      ],
      "name": "RoleRevoked",
      "type": "event"
    },
    {
      "anonymous": false,
      "inputs": [
        {
          "indexed": true,
          "internalType": "address",
          "name": "from",
          "type": "address"
        },
        {
          "indexed": true,
          "internalType": "address",
          "name": "to",
          "type": "address"
        },
        {
          "indexed": true,
          "internalType": "uint256",
          "name": "tokenId",
          "type": "uint256"
        }
      ],
      "name": "Transfer",
      "type": "event"
    },
    {
      "anonymous": false,
      "inputs": [
        {
          "indexed": false,
          "internalType": "address",
          "name": "account",
          "type": "address"
        }
      ],
      "name": "Unpaused",
      "type": "event"
    },
    {
      "anonymous": false,
      "inputs": [
        {
          "indexed": false,
          "internalType": "string",
          "name": "unrevealedURI",
          "type": "string"
        }
      ],
      "name": "UnrevealedURISet",
      "type": "event"
    },
    {
      "anonymous": false,
      "inputs": [
        {
          "indexed": false,
          "internalType": "uint256",
          "name": "withdrawAVAXStartTime",
          "type": "uint256"
        }
      ],
      "name": "WithdrawAVAXStartTimeSet",
      "type": "event"
    },
    {
      "inputs": [],
      "name": "BASIS_POINT_PRECISION",
      "outputs": [
        {
          "internalType": "uint256",
          "name": "",
          "type": "uint256"
        }
      ],
      "stateMutability": "view",
      "type": "function"
    },
    {
      "inputs": [],
      "name": "DEFAULT_ADMIN_ROLE",
      "outputs": [
        {
          "internalType": "bytes32",
          "name": "",
          "type": "bytes32"
        }
      ],
      "stateMutability": "view",
      "type": "function"
    },
    {
      "inputs": [],
      "name": "PAUSER_ADMIN_ROLE",
      "outputs": [
        {
          "internalType": "bytes32",
          "name": "",
          "type": "bytes32"
        }
      ],
      "stateMutability": "view",
      "type": "function"
    },
    {
      "inputs": [],
      "name": "PAUSER_ROLE",
      "outputs": [
        {
          "internalType": "bytes32",
          "name": "",
          "type": "bytes32"
        }
      ],
      "stateMutability": "view",
      "type": "function"
    },
    {
      "inputs": [],
      "name": "PROJECT_OWNER_ROLE",
      "outputs": [
        {
          "internalType": "bytes32",
          "name": "",
          "type": "bytes32"
        }
      ],
      "stateMutability": "view",
      "type": "function"
    },
    {
      "inputs": [],
      "name": "UNPAUSER_ADMIN_ROLE",
      "outputs": [
        {
          "internalType": "bytes32",
          "name": "",
          "type": "bytes32"
        }
      ],
      "stateMutability": "view",
      "type": "function"
    },
    {
      "inputs": [],
      "name": "UNPAUSER_ROLE",
      "outputs": [
        {
          "internalType": "bytes32",
          "name": "",
          "type": "bytes32"
        }
      ],
      "stateMutability": "view",
      "type": "function"
    },
    {
      "inputs": [
        {
          "internalType": "address",
          "name": "",
          "type": "address"
        }
      ],
      "name": "allowlist",
      "outputs": [
        {
          "internalType": "uint256",
          "name": "",
          "type": "uint256"
        }
      ],
      "stateMutability": "view",
      "type": "function"
    },
    {
      "inputs": [],
      "name": "allowlistDiscountPercent",
      "outputs": [
        {
          "internalType": "uint256",
          "name": "",
          "type": "uint256"
        }
      ],
      "stateMutability": "view",
      "type": "function"
    },
    {
      "inputs": [
        {
          "internalType": "uint256",
          "name": "_quantity",
          "type": "uint256"
        }
      ],
      "name": "allowlistMint",
      "outputs": [],
      "stateMutability": "payable",
      "type": "function"
    },
    {
      "inputs": [],
      "name": "allowlistPrice",
      "outputs": [
        {
          "internalType": "uint256",
          "name": "",
          "type": "uint256"
        }
      ],
      "stateMutability": "view",
      "type": "function"
    },
    {
      "inputs": [],
      "name": "allowlistStartTime",
      "outputs": [
        {
          "internalType": "uint256",
          "name": "",
          "type": "uint256"
        }
      ],
      "stateMutability": "view",
      "type": "function"
    },
    {
      "inputs": [],
      "name": "amountBatchMinted",
      "outputs": [
        {
          "internalType": "uint256",
          "name": "",
          "type": "uint256"
        }
      ],
      "stateMutability": "view",
      "type": "function"
    },
    {
      "inputs": [],
      "name": "amountForAllowlist",
      "outputs": [
        {
          "internalType": "uint256",
          "name": "",
          "type": "uint256"
        }
      ],
      "stateMutability": "view",
      "type": "function"
    },
    {
      "inputs": [],
      "name": "amountForAuction",
      "outputs": [
        {
          "internalType": "uint256",
          "name": "",
          "type": "uint256"
        }
      ],
      "stateMutability": "view",
      "type": "function"
    },
    {
      "inputs": [],
      "name": "amountForDevs",
      "outputs": [
        {
          "internalType": "uint256",
          "name": "",
          "type": "uint256"
        }
      ],
      "stateMutability": "view",
      "type": "function"
    },
    {
      "inputs": [],
      "name": "amountMintedByDevs",
      "outputs": [
        {
          "internalType": "uint256",
          "name": "",
          "type": "uint256"
        }
      ],
      "stateMutability": "view",
      "type": "function"
    },
    {
      "inputs": [],
      "name": "amountMintedDuringAllowlist",
      "outputs": [
        {
          "internalType": "uint256",
          "name": "",
          "type": "uint256"
        }
      ],
      "stateMutability": "view",
      "type": "function"
    },
    {
      "inputs": [],
      "name": "amountMintedDuringAuction",
      "outputs": [
        {
          "internalType": "uint256",
          "name": "",
          "type": "uint256"
        }
      ],
      "stateMutability": "view",
      "type": "function"
    },
    {
      "inputs": [],
      "name": "amountMintedDuringPreMint",
      "outputs": [
        {
          "internalType": "uint256",
          "name": "",
          "type": "uint256"
        }
      ],
      "stateMutability": "view",
      "type": "function"
    },
    {
      "inputs": [],
      "name": "amountMintedDuringPublicSale",
      "outputs": [
        {
          "internalType": "uint256",
          "name": "",
          "type": "uint256"
        }
      ],
      "stateMutability": "view",
      "type": "function"
    },
    {
      "inputs": [
        {
          "internalType": "address",
          "name": "to",
          "type": "address"
        },
        {
          "internalType": "uint256",
          "name": "tokenId",
          "type": "uint256"
        }
      ],
      "name": "approve",
      "outputs": [],
      "stateMutability": "nonpayable",
      "type": "function"
    },
    {
      "inputs": [],
      "name": "auctionDropInterval",
      "outputs": [
        {
          "internalType": "uint256",
          "name": "",
          "type": "uint256"
        }
      ],
      "stateMutability": "view",
      "type": "function"
    },
    {
      "inputs": [],
      "name": "auctionDropPerStep",
      "outputs": [
        {
          "internalType": "uint256",
          "name": "",
          "type": "uint256"
        }
      ],
      "stateMutability": "view",
      "type": "function"
    },
    {
      "inputs": [],
      "name": "auctionEndPrice",
      "outputs": [
        {
          "internalType": "uint256",
          "name": "",
          "type": "uint256"
        }
      ],
      "stateMutability": "view",
      "type": "function"
    },
    {
      "inputs": [
        {
          "internalType": "uint256",
          "name": "_quantity",
          "type": "uint256"
        }
      ],
      "name": "auctionMint",
      "outputs": [],
      "stateMutability": "payable",
      "type": "function"
    },
    {
      "inputs": [],
      "name": "auctionSaleDuration",
      "outputs": [
        {
          "internalType": "uint256",
          "name": "",
          "type": "uint256"
        }
      ],
      "stateMutability": "view",
      "type": "function"
    },
    {
      "inputs": [],
      "name": "auctionSaleStartTime",
      "outputs": [
        {
          "internalType": "uint256",
          "name": "",
          "type": "uint256"
        }
      ],
      "stateMutability": "view",
      "type": "function"
    },
    {
      "inputs": [],
      "name": "auctionStartPrice",
      "outputs": [
        {
          "internalType": "uint256",
          "name": "",
          "type": "uint256"
        }
      ],
      "stateMutability": "view",
      "type": "function"
    },
    {
      "inputs": [
        {
          "internalType": "address",
          "name": "owner",
          "type": "address"
        }
      ],
      "name": "balanceOf",
      "outputs": [
        {
          "internalType": "uint256",
          "name": "",
          "type": "uint256"
        }
      ],
      "stateMutability": "view",
      "type": "function"
    },
    {
      "inputs": [],
      "name": "baseURI",
      "outputs": [
        {
          "internalType": "string",
          "name": "",
          "type": "string"
        }
      ],
      "stateMutability": "view",
      "type": "function"
    },
    {
      "inputs": [
        {
          "internalType": "uint256",
          "name": "_maxQuantity",
          "type": "uint256"
        }
      ],
      "name": "batchMintPreMintedNFTs",
      "outputs": [],
      "stateMutability": "nonpayable",
      "type": "function"
    },
    {
      "inputs": [],
      "name": "batchReveal",
      "outputs": [
        {
          "internalType": "contract IBatchReveal",
          "name": "",
          "type": "address"
        }
      ],
      "stateMutability": "view",
      "type": "function"
    },
    {
      "inputs": [],
      "name": "becomeOwner",
      "outputs": [],
      "stateMutability": "nonpayable",
      "type": "function"
    },
    {
      "inputs": [],
      "name": "collectionSize",
      "outputs": [
        {
          "internalType": "uint256",
          "name": "",
          "type": "uint256"
        }
      ],
      "stateMutability": "view",
      "type": "function"
    },
    {
      "inputs": [],
      "name": "currentPhase",
      "outputs": [
        {
          "internalType": "enum IBaseLaunchpeg.Phase",
          "name": "",
          "type": "uint8"
        }
      ],
      "stateMutability": "view",
      "type": "function"
    },
    {
      "inputs": [
        {
          "internalType": "uint256",
          "name": "_quantity",
          "type": "uint256"
        }
      ],
      "name": "devMint",
      "outputs": [],
      "stateMutability": "nonpayable",
      "type": "function"
    },
    {
      "inputs": [
        {
          "internalType": "uint256",
          "name": "tokenId",
          "type": "uint256"
        }
      ],
      "name": "getApproved",
      "outputs": [
        {
          "internalType": "address",
          "name": "",
          "type": "address"
        }
      ],
      "stateMutability": "view",
      "type": "function"
    },
    {
      "inputs": [
        {
          "internalType": "uint256",
          "name": "_saleStartTime",
          "type": "uint256"
        }
      ],
      "name": "getAuctionPrice",
      "outputs": [
        {
          "internalType": "uint256",
          "name": "",
          "type": "uint256"
        }
      ],
      "stateMutability": "view",
      "type": "function"
    },
    {
      "inputs": [
        {
          "internalType": "uint256",
          "name": "_tokenId",
          "type": "uint256"
        }
      ],
      "name": "getOwnershipData",
      "outputs": [
        {
          "components": [
            {
              "internalType": "address",
              "name": "addr",
              "type": "address"
            },
            {
              "internalType": "uint64",
              "name": "startTimestamp",
              "type": "uint64"
            },
            {
              "internalType": "bool",
              "name": "burned",
              "type": "bool"
            }
          ],
          "internalType": "struct ERC721AUpgradeable.TokenOwnership",
          "name": "",
          "type": "tuple"
        }
      ],
      "stateMutability": "view",
      "type": "function"
    },
    {
      "inputs": [
        {
          "internalType": "bytes32",
          "name": "role",
          "type": "bytes32"
        }
      ],
      "name": "getRoleAdmin",
      "outputs": [
        {
          "internalType": "bytes32",
          "name": "",
          "type": "bytes32"
        }
      ],
      "stateMutability": "view",
      "type": "function"
    },
    {
      "inputs": [
        {
          "internalType": "bytes32",
          "name": "role",
          "type": "bytes32"
        },
        {
          "internalType": "uint256",
          "name": "index",
          "type": "uint256"
        }
      ],
      "name": "getRoleMember",
      "outputs": [
        {
          "internalType": "address",
          "name": "",
          "type": "address"
        }
      ],
      "stateMutability": "view",
      "type": "function"
    },
    {
      "inputs": [
        {
          "internalType": "bytes32",
          "name": "role",
          "type": "bytes32"
        }
      ],
      "name": "getRoleMemberCount",
      "outputs": [
        {
          "internalType": "uint256",
          "name": "",
          "type": "uint256"
        }
      ],
      "stateMutability": "view",
      "type": "function"
    },
    {
      "inputs": [
        {
          "internalType": "bytes32",
          "name": "role",
          "type": "bytes32"
        },
        {
          "internalType": "address",
          "name": "account",
          "type": "address"
        }
      ],
      "name": "grantRole",
      "outputs": [],
      "stateMutability": "nonpayable",
      "type": "function"
    },
    {
      "inputs": [],
      "name": "hasBatchToReveal",
      "outputs": [
        {
          "internalType": "bool",
          "name": "",
          "type": "bool"
        },
        {
          "internalType": "uint256",
          "name": "",
          "type": "uint256"
        }
      ],
      "stateMutability": "view",
      "type": "function"
    },
    {
      "inputs": [
        {
          "internalType": "bytes32",
          "name": "role",
          "type": "bytes32"
        },
        {
          "internalType": "address",
          "name": "account",
          "type": "address"
        }
      ],
      "name": "hasRole",
      "outputs": [
        {
          "internalType": "bool",
          "name": "",
          "type": "bool"
        }
      ],
      "stateMutability": "view",
      "type": "function"
    },
    {
      "inputs": [
        {
          "internalType": "string",
          "name": "_name",
          "type": "string"
        },
        {
          "internalType": "string",
          "name": "_symbol",
          "type": "string"
        },
        {
          "internalType": "address",
          "name": "_projectOwner",
          "type": "address"
        },
        {
          "internalType": "address",
          "name": "_royaltyReceiver",
          "type": "address"
        },
        {
          "internalType": "uint256",
          "name": "_maxBatchSize",
          "type": "uint256"
        },
        {
          "internalType": "uint256",
          "name": "_collectionSize",
          "type": "uint256"
        },
        {
          "internalType": "uint256",
          "name": "_amountForAuction",
          "type": "uint256"
        },
        {
          "internalType": "uint256",
          "name": "_amountForAllowlist",
          "type": "uint256"
        },
        {
          "internalType": "uint256",
          "name": "_amountForDevs",
          "type": "uint256"
        }
      ],
      "name": "initialize",
      "outputs": [],
      "stateMutability": "nonpayable",
      "type": "function"
    },
    {
      "inputs": [
        {
          "internalType": "uint256",
          "name": "_joeFeePercent",
          "type": "uint256"
        },
        {
          "internalType": "address",
          "name": "_joeFeeCollector",
          "type": "address"
        }
      ],
      "name": "initializeJoeFee",
      "outputs": [],
      "stateMutability": "nonpayable",
      "type": "function"
    },
    {
      "inputs": [
        {
          "internalType": "uint256",
          "name": "_auctionSaleStartTime",
          "type": "uint256"
        },
        {
          "internalType": "uint256",
          "name": "_auctionStartPrice",
          "type": "uint256"
        },
        {
          "internalType": "uint256",
          "name": "_auctionEndPrice",
          "type": "uint256"
        },
        {
          "internalType": "uint256",
          "name": "_auctionDropInterval",
          "type": "uint256"
        },
        {
          "internalType": "uint256",
          "name": "_preMintStartTime",
          "type": "uint256"
        },
        {
          "internalType": "uint256",
          "name": "_allowlistStartTime",
          "type": "uint256"
        },
        {
          "internalType": "uint256",
          "name": "_allowlistDiscountPercent",
          "type": "uint256"
        },
        {
          "internalType": "uint256",
          "name": "_publicSaleStartTime",
          "type": "uint256"
        },
        {
          "internalType": "uint256",
          "name": "_publicSaleEndTime",
          "type": "uint256"
        },
        {
          "internalType": "uint256",
          "name": "_publicSaleDiscountPercent",
          "type": "uint256"
        }
      ],
      "name": "initializePhases",
      "outputs": [],
      "stateMutability": "nonpayable",
      "type": "function"
    },
    {
      "inputs": [
        {
          "internalType": "address",
          "name": "owner",
          "type": "address"
        },
        {
          "internalType": "address",
          "name": "operator",
          "type": "address"
        }
      ],
      "name": "isApprovedForAll",
      "outputs": [
        {
          "internalType": "bool",
          "name": "",
          "type": "bool"
        }
      ],
      "stateMutability": "view",
      "type": "function"
    },
    {
      "inputs": [],
      "name": "joeFeeCollector",
      "outputs": [
        {
          "internalType": "address",
          "name": "",
          "type": "address"
        }
      ],
      "stateMutability": "view",
      "type": "function"
    },
    {
      "inputs": [],
      "name": "joeFeePercent",
      "outputs": [
        {
          "internalType": "uint256",
          "name": "",
          "type": "uint256"
        }
      ],
      "stateMutability": "view",
      "type": "function"
    },
    {
      "inputs": [],
      "name": "lastAuctionPrice",
      "outputs": [
        {
          "internalType": "uint256",
          "name": "",
          "type": "uint256"
        }
      ],
      "stateMutability": "view",
      "type": "function"
    },
    {
      "inputs": [],
      "name": "maxBatchSize",
      "outputs": [
        {
          "internalType": "uint256",
          "name": "",
          "type": "uint256"
        }
      ],
      "stateMutability": "view",
      "type": "function"
    },
    {
      "inputs": [],
      "name": "maxPerAddressDuringMint",
      "outputs": [
        {
          "internalType": "uint256",
          "name": "",
          "type": "uint256"
        }
      ],
      "stateMutability": "view",
      "type": "function"
    },
    {
      "inputs": [],
      "name": "name",
      "outputs": [
        {
          "internalType": "string",
          "name": "",
          "type": "string"
        }
      ],
      "stateMutability": "view",
      "type": "function"
    },
    {
      "inputs": [
        {
          "internalType": "address",
          "name": "_owner",
          "type": "address"
        }
      ],
      "name": "numberMinted",
      "outputs": [
        {
          "internalType": "uint256",
          "name": "",
          "type": "uint256"
        }
      ],
      "stateMutability": "view",
      "type": "function"
    },
    {
      "inputs": [
        {
          "internalType": "address",
          "name": "_owner",
          "type": "address"
        }
      ],
      "name": "numberMintedWithPreMint",
      "outputs": [
        {
          "internalType": "uint256",
          "name": "",
          "type": "uint256"
        }
      ],
      "stateMutability": "view",
      "type": "function"
    },
    {
      "inputs": [],
      "name": "owner",
      "outputs": [
        {
          "internalType": "address",
          "name": "",
          "type": "address"
        }
      ],
      "stateMutability": "view",
      "type": "function"
    },
    {
      "inputs": [
        {
          "internalType": "uint256",
          "name": "tokenId",
          "type": "uint256"
        }
      ],
      "name": "ownerOf",
      "outputs": [
        {
          "internalType": "address",
          "name": "",
          "type": "address"
        }
      ],
      "stateMutability": "view",
      "type": "function"
    },
    {
      "inputs": [],
      "name": "pause",
      "outputs": [],
      "stateMutability": "nonpayable",
      "type": "function"
    },
    {
      "inputs": [],
      "name": "paused",
      "outputs": [
        {
          "internalType": "bool",
          "name": "",
          "type": "bool"
        }
      ],
      "stateMutability": "view",
      "type": "function"
    },
    {
      "inputs": [],
      "name": "pendingOwner",
      "outputs": [
        {
          "internalType": "address",
          "name": "",
          "type": "address"
        }
      ],
      "stateMutability": "view",
      "type": "function"
    },
    {
      "inputs": [
        {
          "internalType": "uint256",
          "name": "_quantity",
          "type": "uint256"
        }
      ],
      "name": "preMint",
      "outputs": [],
      "stateMutability": "payable",
      "type": "function"
    },
    {
      "inputs": [],
      "name": "preMintStartTime",
      "outputs": [
        {
          "internalType": "uint256",
          "name": "",
          "type": "uint256"
        }
      ],
      "stateMutability": "view",
      "type": "function"
    },
    {
      "inputs": [],
      "name": "publicSaleDiscountPercent",
      "outputs": [
        {
          "internalType": "uint256",
          "name": "",
          "type": "uint256"
        }
      ],
      "stateMutability": "view",
      "type": "function"
    },
    {
      "inputs": [],
      "name": "publicSaleEndTime",
      "outputs": [
        {
          "internalType": "uint256",
          "name": "",
          "type": "uint256"
        }
      ],
      "stateMutability": "view",
      "type": "function"
    },
    {
      "inputs": [
        {
          "internalType": "uint256",
          "name": "_quantity",
          "type": "uint256"
        }
      ],
      "name": "publicSaleMint",
      "outputs": [],
      "stateMutability": "payable",
      "type": "function"
    },
    {
      "inputs": [],
      "name": "publicSaleStartTime",
      "outputs": [
        {
          "internalType": "uint256",
          "name": "",
          "type": "uint256"
        }
      ],
      "stateMutability": "view",
      "type": "function"
    },
    {
      "inputs": [],
      "name": "renounceOwnership",
      "outputs": [],
      "stateMutability": "nonpayable",
      "type": "function"
    },
    {
      "inputs": [
        {
          "internalType": "bytes32",
          "name": "role",
          "type": "bytes32"
        },
        {
          "internalType": "address",
          "name": "account",
          "type": "address"
        }
      ],
      "name": "renounceRole",
      "outputs": [],
      "stateMutability": "nonpayable",
      "type": "function"
    },
    {
      "inputs": [],
      "name": "revealNextBatch",
      "outputs": [],
      "stateMutability": "nonpayable",
      "type": "function"
    },
    {
      "inputs": [],
      "name": "revokePendingOwner",
      "outputs": [],
      "stateMutability": "nonpayable",
      "type": "function"
    },
    {
      "inputs": [
        {
          "internalType": "bytes32",
          "name": "role",
          "type": "bytes32"
        },
        {
          "internalType": "address",
          "name": "account",
          "type": "address"
        }
      ],
      "name": "revokeRole",
      "outputs": [],
      "stateMutability": "nonpayable",
      "type": "function"
    },
    {
      "inputs": [
        {
          "internalType": "uint256",
          "name": "_tokenId",
          "type": "uint256"
        },
        {
          "internalType": "uint256",
          "name": "_salePrice",
          "type": "uint256"
        }
      ],
      "name": "royaltyInfo",
      "outputs": [
        {
          "internalType": "address",
          "name": "",
          "type": "address"
        },
        {
          "internalType": "uint256",
          "name": "",
          "type": "uint256"
        }
      ],
      "stateMutability": "view",
      "type": "function"
    },
    {
      "inputs": [
        {
          "internalType": "address",
          "name": "from",
          "type": "address"
        },
        {
          "internalType": "address",
          "name": "to",
          "type": "address"
        },
        {
          "internalType": "uint256",
          "name": "tokenId",
          "type": "uint256"
        }
      ],
      "name": "safeTransferFrom",
      "outputs": [],
      "stateMutability": "nonpayable",
      "type": "function"
    },
    {
      "inputs": [
        {
          "internalType": "address",
          "name": "from",
          "type": "address"
        },
        {
          "internalType": "address",
          "name": "to",
          "type": "address"
        },
        {
          "internalType": "uint256",
          "name": "tokenId",
          "type": "uint256"
        },
        {
          "internalType": "bytes",
          "name": "_data",
          "type": "bytes"
        }
      ],
      "name": "safeTransferFrom",
      "outputs": [],
      "stateMutability": "nonpayable",
      "type": "function"
    },
    {
      "inputs": [],
      "name": "salePrice",
      "outputs": [
        {
          "internalType": "uint256",
          "name": "",
          "type": "uint256"
        }
      ],
      "stateMutability": "view",
      "type": "function"
    },
    {
      "inputs": [
        {
          "internalType": "address[]",
          "name": "_addresses",
          "type": "address[]"
        },
        {
          "internalType": "uint256[]",
          "name": "_numNfts",
          "type": "uint256[]"
        }
      ],
      "name": "seedAllowlist",
      "outputs": [],
      "stateMutability": "nonpayable",
      "type": "function"
    },
    {
      "inputs": [
        {
          "internalType": "uint256",
          "name": "_allowlistStartTime",
          "type": "uint256"
        }
      ],
      "name": "setAllowlistStartTime",
      "outputs": [],
      "stateMutability": "nonpayable",
      "type": "function"
    },
    {
      "inputs": [
        {
          "internalType": "address",
          "name": "operator",
          "type": "address"
        },
        {
          "internalType": "bool",
          "name": "approved",
          "type": "bool"
        }
      ],
      "name": "setApprovalForAll",
      "outputs": [],
      "stateMutability": "nonpayable",
      "type": "function"
    },
    {
      "inputs": [
        {
          "internalType": "uint256",
          "name": "_auctionSaleStartTime",
          "type": "uint256"
        }
      ],
      "name": "setAuctionSaleStartTime",
      "outputs": [],
      "stateMutability": "nonpayable",
      "type": "function"
    },
    {
      "inputs": [
        {
          "internalType": "string",
          "name": "_baseURI",
          "type": "string"
        }
      ],
      "name": "setBaseURI",
      "outputs": [],
      "stateMutability": "nonpayable",
      "type": "function"
    },
    {
      "inputs": [
        {
          "internalType": "address",
          "name": "_batchReveal",
          "type": "address"
        }
      ],
      "name": "setBatchReveal",
      "outputs": [],
      "stateMutability": "nonpayable",
      "type": "function"
    },
    {
      "inputs": [
        {
          "internalType": "address",
          "name": "pendingOwner_",
          "type": "address"
        }
      ],
      "name": "setPendingOwner",
      "outputs": [],
      "stateMutability": "nonpayable",
      "type": "function"
    },
    {
      "inputs": [
        {
          "internalType": "uint256",
          "name": "_preMintStartTime",
          "type": "uint256"
        }
      ],
      "name": "setPreMintStartTime",
      "outputs": [],
      "stateMutability": "nonpayable",
      "type": "function"
    },
    {
      "inputs": [
        {
          "internalType": "uint256",
          "name": "_publicSaleEndTime",
          "type": "uint256"
        }
      ],
      "name": "setPublicSaleEndTime",
      "outputs": [],
      "stateMutability": "nonpayable",
      "type": "function"
    },
    {
      "inputs": [
        {
          "internalType": "uint256",
          "name": "_publicSaleStartTime",
          "type": "uint256"
        }
      ],
      "name": "setPublicSaleStartTime",
      "outputs": [],
      "stateMutability": "nonpayable",
      "type": "function"
    },
    {
      "inputs": [
        {
          "internalType": "address",
          "name": "_receiver",
          "type": "address"
        },
        {
          "internalType": "uint96",
          "name": "_feePercent",
          "type": "uint96"
        }
      ],
      "name": "setRoyaltyInfo",
      "outputs": [],
      "stateMutability": "nonpayable",
      "type": "function"
    },
    {
      "inputs": [
        {
          "internalType": "string",
          "name": "_unrevealedURI",
          "type": "string"
        }
      ],
      "name": "setUnrevealedURI",
      "outputs": [],
      "stateMutability": "nonpayable",
      "type": "function"
    },
    {
      "inputs": [
        {
          "internalType": "uint256",
          "name": "_withdrawAVAXStartTime",
          "type": "uint256"
        }
      ],
      "name": "setWithdrawAVAXStartTime",
      "outputs": [],
      "stateMutability": "nonpayable",
      "type": "function"
    },
    {
      "inputs": [
        {
          "internalType": "bytes4",
          "name": "_interfaceId",
          "type": "bytes4"
        }
      ],
      "name": "supportsInterface",
      "outputs": [
        {
          "internalType": "bool",
          "name": "",
          "type": "bool"
        }
      ],
      "stateMutability": "view",
      "type": "function"
    },
    {
      "inputs": [],
      "name": "symbol",
      "outputs": [
        {
          "internalType": "string",
          "name": "",
          "type": "string"
        }
      ],
      "stateMutability": "view",
      "type": "function"
    },
    {
      "inputs": [
        {
          "internalType": "uint256",
          "name": "_id",
          "type": "uint256"
        }
      ],
      "name": "tokenURI",
      "outputs": [
        {
          "internalType": "string",
          "name": "",
          "type": "string"
        }
      ],
      "stateMutability": "view",
      "type": "function"
    },
    {
      "inputs": [],
      "name": "totalSupply",
      "outputs": [
        {
          "internalType": "uint256",
          "name": "",
          "type": "uint256"
        }
      ],
      "stateMutability": "view",
      "type": "function"
    },
    {
      "inputs": [
        {
          "internalType": "address",
          "name": "from",
          "type": "address"
        },
        {
          "internalType": "address",
          "name": "to",
          "type": "address"
        },
        {
          "internalType": "uint256",
          "name": "tokenId",
          "type": "uint256"
        }
      ],
      "name": "transferFrom",
      "outputs": [],
      "stateMutability": "nonpayable",
      "type": "function"
    },
    {
      "inputs": [],
      "name": "unpause",
      "outputs": [],
      "stateMutability": "nonpayable",
      "type": "function"
    },
    {
      "inputs": [],
      "name": "unrevealedURI",
      "outputs": [
        {
          "internalType": "string",
          "name": "",
          "type": "string"
        }
      ],
      "stateMutability": "view",
      "type": "function"
    },
    {
      "inputs": [
        {
          "internalType": "address",
          "name": "",
          "type": "address"
        }
      ],
      "name": "userAddressToPreMintAmount",
      "outputs": [
        {
          "internalType": "uint256",
          "name": "",
          "type": "uint256"
        }
      ],
      "stateMutability": "view",
      "type": "function"
    },
    {
      "inputs": [
        {
          "internalType": "address",
          "name": "_to",
          "type": "address"
        }
      ],
      "name": "withdrawAVAX",
      "outputs": [],
      "stateMutability": "nonpayable",
      "type": "function"
    },
    {
      "inputs": [],
      "name": "withdrawAVAXStartTime",
      "outputs": [
        {
          "internalType": "uint256",
          "name": "",
          "type": "uint256"
        }
      ],
      "stateMutability": "view",
      "type": "function"
    }
  ],
  "transactionHash": "0x1f56812d78e7d6ce3b11c49e6ca2f47a7c4d6ad48d281df9c4be791876cba5db",
  "args": [],
  "numDeployments": 9,
  "solcInputHash": "9d21c1a763ce0d94877fbf85becde524",
  "bytecode": "0x608060405234801561001057600080fd5b5061598a80620000216000396000f3fe6080604052600436106105aa5760003560e01c80638456cb59116102f3578063c4d374cf1161019b578063e63ab1e9116100e7578063f58978cc116100a0578063fab2bf581161007a578063fab2bf5814611150578063fb1bb9de14611167578063fbe1aa511461119b578063fe2c7fee146111b257600080fd5b8063f58978cc14611104578063f7df4c5a14611124578063f9dca9891461113b57600080fd5b8063e63ab1e914611024578063e6fe34b314611058578063e985e9c51461106f578063ecbbfea3146110b8578063f243669b146110d8578063f51f96dd146110ef57600080fd5b8063d547741f11610154578063d9a6f7051161012e578063d9a6f70514610fb0578063dc33e68114610fc6578063e30c397814610fe6578063e4b26d841461100457600080fd5b8063d547741f14610f62578063d62b630314610f82578063d756985b14610f9957600080fd5b8063c4d374cf14610ea6578063c5482fe314610ec6578063c792e16714610edd578063c87b56dd14610ef4578063ca15c87314610f14578063d3486d5b14610f3457600080fd5b8063a04a6ac81161025a578063aec3922b11610213578063b88d4fde116101ed578063b88d4fde14610e31578063be62da0e14610e51578063c180526a14610e73578063c42069ec14610e8657600080fd5b8063aec3922b14610dde578063b05863d514610dfe578063b3ab66b014610e1e57600080fd5b8063a04a6ac814610d2d578063a1ef0e5414610d44578063a217fddf14610d64578063a22cb46514610d79578063a54cd7dc14610d99578063a7cd52cb14610db057600080fd5b8063917d009e116102ac578063917d009e14610c4b57806391d1485414610c6b5780639231ab2a14610c8b57806395d89b4114610ce1578063963331d814610cf6578063984b67d614610d0d57600080fd5b80638456cb5914610bb95780638ad433ac14610bce5780638bc35c2f14610be15780638da5cb5b14610bf85780639010d07c14610c1657806390967a5214610c3657600080fd5b8063387b62c7116104565780635c975abb116103bd5780636c0360eb1161037657806370a082311161035057806370a0823114610b3957806370a9525014610b59578063715018a614610b8d5780637a18c1fe14610ba257600080fd5b80636c0360eb14610aef5780636d5d40c614610b045780637035bf1814610b2457600080fd5b80635c975abb14610a5f578063622f1c4714610a7757806362f4fb2d14610a8c5780636352211e14610aa357806367ab8a4e14610ac35780636bb7b1d914610ad857600080fd5b806345c0f5331161040f57806345c0f533146109c65780634d3554c3146109dd57806355f804b3146109f057806359d7bc4d14610a105780635bb2137614610a275780635c7034af14610a4857600080fd5b8063387b62c7146109235780633ba8671f146109435780633cc4cadb1461095a5780633f4ba83a1461097157806342842e0e1461098657806345afb002146109a657600080fd5b806318160ddd1161051557806325a00473116104ce5780632e8f1f50116104a85780632e8f1f50146108ac5780632f2ff15d146108c357806336568abe146108e3578063375a069a1461090357600080fd5b806325a00473146108225780632913daa0146108565780632a55205a1461086d57600080fd5b806318160ddd146107615780631c0310a51461077a5780631e4d185f1461079a57806321cc1611146107b157806323b872dd146107d2578063248a9ca3146107f257600080fd5b8063081812fc11610567578063081812fc1461069657806308a3fb4e146106ce578063095ea7b3146106f35780630a212ee2146107135780630c2c39a31461072a578063154895101461074a57600080fd5b806301ffc9a7146105af57806302fa7c47146105e457806303851c281461060657806303b674d314610632578063055ad42e1461065257806306fdde0314610674575b600080fd5b3480156105bb57600080fd5b506105cf6105ca366004615342565b6111d2565b60405190151581526020015b60405180910390f35b3480156105f057600080fd5b506106046105ff3660046151f6565b6111fd565b005b34801561061257600080fd5b5061061b6112a9565b6040805192151583526020830191909152016105db565b34801561063e57600080fd5b5061060461064d3660046152e4565b61136b565b34801561065e57600080fd5b5061066761143c565b6040516105db919061562e565b34801561068057600080fd5b5061068961151d565b6040516105db919061563c565b3480156106a257600080fd5b506106b66106b13660046152e4565b6115af565b6040516001600160a01b0390911681526020016105db565b3480156106da57600080fd5b506106e56101b35481565b6040519081526020016105db565b3480156106ff57600080fd5b5061060461070e3660046151cc565b6115f3565b34801561071f57600080fd5b506106e56101af5481565b34801561073657600080fd5b506106046107453660046152e4565b611681565b34801561075657600080fd5b506106e56101b25481565b34801561076d57600080fd5b50606654606554036106e5565b34801561078657600080fd5b50610604610795366004615090565b611703565b3480156107a657600080fd5b506106e56101a75481565b3480156107bd57600080fd5b50610193546106b6906001600160a01b031681565b3480156107de57600080fd5b506106046107ed3660046150de565b611998565b3480156107fe57600080fd5b506106e561080d3660046152e4565b60009081526099602052604090206001015490565b34801561082e57600080fd5b506106e57fe0e65c783ac33ff1c5ccf4399c9185066773921d6f8d050bf80781603021f09781565b34801561086257600080fd5b506106e56101975481565b34801561087957600080fd5b5061088d610888366004615320565b6119a3565b604080516001600160a01b0390931683526020830191909152016105db565b3480156108b857600080fd5b506106e56101a05481565b3480156108cf57600080fd5b506106046108de3660046152fd565b611a53565b3480156108ef57600080fd5b506106046108fe3660046152fd565b611add565b34801561090f57600080fd5b5061060461091e3660046152e4565b611b06565b34801561092f57600080fd5b5061060461093e3660046152e4565b611cd4565b34801561094f57600080fd5b506106e56101a15481565b34801561096657600080fd5b506106e56101a25481565b34801561097d57600080fd5b50610604611d9a565b34801561099257600080fd5b506106046109a13660046150de565b611e4a565b3480156109b257600080fd5b506106046109c13660046152e4565b611e65565b3480156109d257600080fd5b506106e56101945481565b6106046109eb3660046152e4565b611ef3565b3480156109fc57600080fd5b50610604610a0b36600461537c565b612087565b348015610a1c57600080fd5b506106e56101a55481565b348015610a3357600080fd5b5061019a546106b6906001600160a01b031681565b348015610a5457600080fd5b506106e561019f5481565b348015610a6b57600080fd5b5060fd5460ff166105cf565b348015610a8357600080fd5b506106046120fd565b348015610a9857600080fd5b506106e56101a45481565b348015610aaf57600080fd5b506106b6610abe3660046152e4565b612227565b348015610acf57600080fd5b50610604612239565b348015610ae457600080fd5b506106e56101a65481565b348015610afb57600080fd5b50610689612297565b348015610b1057600080fd5b50610604610b1f3660046152e4565b612326565b348015610b3057600080fd5b506106896123f0565b348015610b4557600080fd5b506106e5610b54366004615090565b6123fe565b348015610b6557600080fd5b506106e57fe516f7ac9747f401e208331379a0bafe3c9c4dbb6501fd23bcef278f7ebaf4e581565b348015610b9957600080fd5b5061060461244c565b348015610bae57600080fd5b506106e56101b55481565b348015610bc557600080fd5b50610604612481565b610604610bdc3660046152e4565b61252f565b348015610bed57600080fd5b506106e56101985481565b348015610c0457600080fd5b506097546001600160a01b03166106b6565b348015610c2257600080fd5b506106b6610c31366004615320565b612595565b348015610c4257600080fd5b506106e56125b4565b348015610c5757600080fd5b506106e5610c663660046152e4565b6125e8565b348015610c7757600080fd5b506105cf610c863660046152fd565b612656565b348015610c9757600080fd5b50610cab610ca63660046152e4565b612681565b6040805182516001600160a01b031681526020808401516001600160401b031690820152918101511515908201526060016105db565b348015610ced57600080fd5b506106896126a7565b348015610d0257600080fd5b506106e56101a35481565b348015610d1957600080fd5b50610604610d283660046152e4565b6126b6565b348015610d3957600080fd5b506106e56101ae5481565b348015610d5057600080fd5b50610604610d5f3660046152e4565b61277f565b348015610d7057600080fd5b506106e5600081565b348015610d8557600080fd5b50610604610d94366004615195565b612825565b348015610da557600080fd5b506106e56101b45481565b348015610dbc57600080fd5b506106e5610dcb366004615090565b61019d6020526000908152604090205481565b348015610dea57600080fd5b506106e5610df9366004615090565b6128bb565b348015610e0a57600080fd5b50610604610e1936600461522e565b6128fa565b610604610e2c3660046152e4565b6129f3565b348015610e3d57600080fd5b50610604610e4c36600461511a565b612b70565b348015610e5d57600080fd5b506106e560008051602061591583398151915281565b610604610e813660046152e4565b612bbb565b348015610e9257600080fd5b50610604610ea1366004615090565b612d55565b348015610eb257600080fd5b50610604610ec13660046154b8565b612dda565b348015610ed257600080fd5b506106e56101995481565b348015610ee957600080fd5b506106e56101a85481565b348015610f0057600080fd5b50610689610f0f3660046152e4565b613071565b348015610f2057600080fd5b506106e5610f2f3660046152e4565b61325d565b348015610f4057600080fd5b506106e5610f4f366004615090565b61019e6020526000908152604090205481565b348015610f6e57600080fd5b50610604610f7d3660046152fd565b613274565b348015610f8e57600080fd5b506106e56101965481565b348015610fa557600080fd5b506106e56101ad5481565b348015610fbc57600080fd5b506106e561271081565b348015610fd257600080fd5b506106e5610fe1366004615090565b6132f8565b348015610ff257600080fd5b506098546001600160a01b03166106b6565b34801561101057600080fd5b5061060461101f366004615090565b613326565b34801561103057600080fd5b506106e57f65d7a28e3265b37a6474929f336521b332c1681b933f6cb9f3376673440d862a81565b34801561106457600080fd5b506106e56101b15481565b34801561107b57600080fd5b506105cf61108a3660046150ab565b6001600160a01b039182166000908152606c6020908152604080832093909416825291909152205460ff1690565b3480156110c457600080fd5b506106046110d33660046152fd565b613374565b3480156110e457600080fd5b506106e56101b05481565b3480156110fb57600080fd5b506106e5613470565b34801561111057600080fd5b5061060461111f3660046153ed565b613487565b34801561113057600080fd5b506106e56101ab5481565b34801561114757600080fd5b50610604613594565b34801561115c57600080fd5b506106e56101ac5481565b34801561117357600080fd5b506106e57f427da25fe773164f88948d3e215c94b6554e2ed5e5f203a821c9f2f6131cf75a81565b3480156111a757600080fd5b506106e56101955481565b3480156111be57600080fd5b506106046111cd36600461537c565b6135d3565b60006001600160e01b0319821663399d9fdf60e11b14806111f757506111f78261363d565b92915050565b6097546001600160a01b0316331461122857604051630202a8bf60e61b815260040160405180910390fd5b6109c4816001600160601b03161115611254576040516306f644f160e31b815260040160405180910390fd5b61125e828261369e565b6040516001600160601b03821681526001600160a01b038316907fd85b7816dca44c313f0fdadd9567f99f3620a2fac7c21a8a7872e1ac4d10fe559060200160405180910390a25050565b6101935460009081906001600160a01b03166112c85750600091829150565b610193546001600160a01b031663ad9e22af306112e86066546065540390565b6040516001600160e01b031960e085901b1681526001600160a01b0390921660048301526024820152604401604080518083038186803b15801561132b57600080fd5b505afa15801561133f573d6000803e3d6000fd5b505050506040513d601f19601f8201168201806040525081019061136391906152b6565b915091509091565b6097546001600160a01b0316331461139657604051630202a8bf60e61b815260040160405180910390fd5b6101a5546113b7576040516356a4234d60e11b815260040160405180910390fd5b6101a4548110156113db576040516312d3f13560e01b815260040160405180910390fd5b806101a65410156113ff576040516335bcfe2b60e21b815260040160405180910390fd5b6101a58190556040518181527f9bcdfa29202b48178635d9cf5c57896f671198685cf6b8ddb5e20f3eb4bb1e60906020015b60405180910390a150565b60006101ac546000148061145157506101a454155b8061145d57506101a554155b8061146957506101a654155b8061147657506101ac5442105b156114815750600090565b6101945460665460655403106114975750600590565b6101ac5442101580156114ac57506101a45442105b156114b75750600190565b6101a45442101580156114cc57506101a55442105b156114d75750600290565b6101a55442101580156114ec57506101a65442105b156114f75750600390565b6101a654421015801561150c57506101a75442105b156115175750600490565b50600590565b60606067805461152c90615802565b80601f016020809104026020016040519081016040528092919081815260200182805461155890615802565b80156115a55780601f1061157a576101008083540402835291602001916115a5565b820191906000526020600020905b81548152906001019060200180831161158857829003601f168201915b5050505050905090565b60006115ba8261379c565b6115d7576040516333d1c03960e21b815260040160405180910390fd5b506000908152606b60205260409020546001600160a01b031690565b60006115fe82612227565b9050806001600160a01b0316836001600160a01b031614156116335760405163250fdee360e21b815260040160405180910390fd5b336001600160a01b038216148015906116535750611651813361108a565b155b15611671576040516367d9dca160e11b815260040160405180910390fd5b61167c8383836137c8565b505050565b6097546001600160a01b031633146116ac57604051630202a8bf60e61b815260040160405180910390fd5b428110156116cd57604051639db169d760e01b815260040160405180910390fd5b6101a88190556040518181527f90513fea331bb55e4ca73a8d0c053a255347ccb17c621338052705ea997383b390602001611431565b6000805160206159158339815191526117246097546001600160a01b031690565b6001600160a01b0316336001600160a01b03161415801561174c575061174a8133612656565b155b156117785760405163f9019a8d60e01b8152600481018290523360248201526044015b60405180910390fd5b600261012f5414156117cc5760405162461bcd60e51b815260206004820152601f60248201527f5265656e7472616e637947756172643a207265656e7472616e742063616c6c00604482015260640161176f565b600261012f5560fd5460ff16156117f55760405162461bcd60e51b815260040161176f906156d4565b426101a854118061180757506101a854155b1561182557604051633bd1a57d60e11b815260040160405180910390fd5b6101995447906000908190156118d557612710610199548461184791906157a0565b611851919061578c565b915061185d82846157bf565b61019a546040519194506001600160a01b0316908390600081818185875af1925050503d80600081146118ac576040519150601f19603f3d011682016040523d82523d6000602084013e6118b1565b606091505b505080915050806118d557604051633aa9e60d60e21b815260040160405180910390fd5b6040516001600160a01b038616908490600081818185875af1925050503d806000811461191e576040519150601f19603f3d011682016040523d82523d6000602084013e611923565b606091505b5050809150508061194757604051633aa9e60d60e21b815260040160405180910390fd5b60408051848152602081018490526001600160a01b038716917f12eb5d7ccd4ce398edc94007dfbaa22fa2ac8775a3633530f36053ad765262f4910160405180910390a25050600161012f55505050565b61167c838383613824565b6000828152610162602090815260408083208151808301909252546001600160a01b038116808352600160a01b9091046001600160601b0316928201929092528291611a1a575060408051808201909152610161546001600160a01b0381168252600160a01b90046001600160601b031660208201525b602081015160009061271090611a39906001600160601b0316876157a0565b611a43919061578c565b91519350909150505b9250929050565b8180611a725760405163e466584960e01b815260040160405180910390fd5b6000838152609960205260409020600101546097546001600160a01b03163314801590611aa65750611aa48133612656565b155b15611acd5760405163f9019a8d60e01b81526004810182905233602482015260440161176f565b611ad78484613a12565b50505050565b8180611afc5760405163e466584960e01b815260040160405180910390fd5b61167c8383613a34565b600080516020615915833981519152611b276097546001600160a01b031690565b6001600160a01b0316336001600160a01b031614158015611b4f5750611b4d8133612656565b155b15611b765760405163f9019a8d60e01b81526004810182905233602482015260440161176f565b60fd5460ff1615611b995760405162461bcd60e51b815260040161176f906156d4565b6101945482611ba6613aae565b611bb09190615774565b1115611bcf57604051631eddc6a360e11b815260040160405180910390fd5b610195548261019f54611be29190615774565b1115611c015760405163011310dd60e31b815260040160405180910390fd5b8161019f54611c109190615774565b61019f5561019754600090611c25908461578c565b905060005b81811015611c6357611c513361019754604051806020016040528060008152506000613ad9565b80611c5b8161583d565b915050611c2a565b5060006101975484611c759190615858565b90508015611c9957611c993382604051806020016040528060008152506000613ad9565b60405184815233907f7d8400f0e58ae2e14f85b63f3afb0ca5b29328d8f48046b205fc7f174cf9b5ed9060200160405180910390a250505050565b6097546001600160a01b03163314611cff57604051630202a8bf60e61b815260040160405180910390fd5b6101ac54611d20576040516356a4234d60e11b815260040160405180910390fd5b42811015611d4157604051639db169d760e01b815260040160405180910390fd5b806101a45411611d64576040516316c9078560e01b815260040160405180910390fd5b6101ac8190556040518181527ffb00110a4e6c0bc2323c3dd4f66784c4293e0bd3dfbf6ea9446e9efe673647c790602001611431565b7f427da25fe773164f88948d3e215c94b6554e2ed5e5f203a821c9f2f6131cf75a611dcd6097546001600160a01b031690565b6001600160a01b0316336001600160a01b031614158015611df55750611df38133612656565b155b15611e1c5760405163f9019a8d60e01b81526004810182905233602482015260440161176f565b60fd5460ff16611e3f57604051637514f14160e11b815260040160405180910390fd5b611e47613ca4565b50565b61167c83838360405180602001604052806000815250612b70565b60fd5460ff1615611e885760405162461bcd60e51b815260040161176f906156d4565b6000611e9261143c565b90506003816005811115611ea857611ea8615898565b14158015611ec857506004816005811115611ec557611ec5615898565b14155b15611ee6576040516338df794b60e01b815260040160405180910390fd5b611eef82613d37565b5050565b60fd5460ff1615611f165760405162461bcd60e51b815260040161176f906156d4565b600180611f2161143c565b6005811115611f3257611f32615898565b14611f50576040516338df794b60e01b815260040160405180910390fd5b6000611f5f6066546065540390565b61019f546101ab54611f719190615774565b611f7b91906157bf565b905080611f9b57604051631eddc6a360e11b815260040160405180910390fd5b82811015611fa7578092505b6101985483611fb5336128bb565b611fbf9190615774565b1115611fde576040516335e62b7b60e21b815260040160405180910390fd5b611fea6101ac546125e8565b6101b5819055600090611ffe9085906157a0565b9050836101b45461200f9190615774565b6101b4819055506120323385604051806020016040528060008152506000613ad9565b336001600160a01b0316600080516020615935833981519152856101b5548761205a60655490565b61206491906157bf565b60016040516120769493929190615749565b60405180910390a2611ad781613f67565b6097546001600160a01b031633146120b257604051630202a8bf60e61b815260040160405180910390fd5b6120bf61019b8383614e93565b507ff9c7803e94e0d3c02900d8a90893a6d5e90dd04d32a4cfe825520f82bf9f32f661019b6040516120f1919061564f565b60405180910390a15050565b32331461211d57604051633059e46160e21b815260040160405180910390fd5b60fd5460ff16156121405760405162461bcd60e51b815260040161176f906156d4565b610193546001600160a01b031661216a5760405163114d098b60e31b815260040160405180910390fd5b610193546001600160a01b031663fbbc872b3061218a6066546065540390565b6040516001600160e01b031960e085901b1681526001600160a01b0390921660048301526024820152604401602060405180830381600087803b1580156121d057600080fd5b505af11580156121e4573d6000803e3d6000fd5b505050506040513d601f19601f820116820180604052508101906122089190615299565b6122255760405163fc58cf3f60e01b815260040160405180910390fd5b565b600061223282614002565b5192915050565b6097546001600160a01b0316331461226457604051630202a8bf60e61b815260040160405180910390fd5b6098546001600160a01b031661228d5760405163128be5bf60e31b815260040160405180910390fd5b612225600061411c565b61019b80546122a590615802565b80601f01602080910402602001604051908101604052809291908181526020018280546122d190615802565b801561231e5780601f106122f35761010080835404028352916020019161231e565b820191906000526020600020905b81548152906001019060200180831161230157829003601f168201915b505050505081565b6097546001600160a01b0316331461235157604051630202a8bf60e61b815260040160405180910390fd5b6101a654612372576040516356a4234d60e11b815260040160405180910390fd5b6101a554811015612396576040516335bcfe2b60e21b815260040160405180910390fd5b806101a75410156123ba57604051631e3804ab60e21b815260040160405180910390fd5b6101a68190556040518181527f4fe26bfd1cf59c4428b13357bea5ab8239f9889b3f94cd575f98b4c6811dcdc590602001611431565b61019c80546122a590615802565b60006001600160a01b038216612427576040516323d3ad8160e21b815260040160405180910390fd5b506001600160a01b03166000908152606a60205260409020546001600160401b031690565b6097546001600160a01b0316331461247757604051630202a8bf60e61b815260040160405180910390fd5b6122256000614166565b7f65d7a28e3265b37a6474929f336521b332c1681b933f6cb9f3376673440d862a6124b46097546001600160a01b031690565b6001600160a01b0316336001600160a01b0316141580156124dc57506124da8133612656565b155b156125035760405163f9019a8d60e01b81526004810182905233602482015260440161176f565b60fd5460ff1615612527576040516329c0c03160e11b815260040160405180910390fd5b611e476141a5565b60fd5460ff16156125525760405162461bcd60e51b815260040161176f906156d4565b60028061255d61143c565b600581111561256e5761256e615898565b1461258c576040516338df794b60e01b815260040160405180910390fd5b611eef826141fd565b600082815260cb602052604081206125ad90836143f4565b9392505050565b60006127106101b2546101b5546125cb91906157a0565b6125d5919061578c565b6101b5546125e391906157bf565b905090565b6000814210156125fb5750506101ad5490565b6101af5461260983426157bf565b106126175750506101ae5490565b6101b05460009061262884426157bf565b612632919061578c565b90506101b1548161264391906157a0565b6101ad546125ad91906157bf565b919050565b60009182526099602090815260408084206001600160a01b0393909316845291905290205460ff1690565b60408051606081018252600080825260208201819052918101919091526111f782614002565b60606068805461152c90615802565b6097546001600160a01b031633146126e157604051630202a8bf60e61b815260040160405180910390fd5b6101a454612702576040516356a4234d60e11b815260040160405180910390fd5b6101ac548111612725576040516316c9078560e01b815260040160405180910390fd5b806101a5541015612749576040516312d3f13560e01b815260040160405180910390fd5b6101a48190556040518181527f9776e1b1502b2f97161fccc0d9f830da6ad81a796cf67c136801fd59dd0444cd90602001611431565b6097546001600160a01b031633146127aa57604051630202a8bf60e61b815260040160405180910390fd5b6101a7546127cb576040516356a4234d60e11b815260040160405180910390fd5b6101a6548110156127ef57604051631e3804ab60e21b815260040160405180910390fd5b6101a78190556040518181527fdb76c49adfe8600a5db82e1d85e7c1f7565676dac577c6a39744e9c95ad68e3c90602001611431565b6001600160a01b03821633141561284f5760405163b06307db60e01b815260040160405180910390fd5b336000818152606c602090815260408083206001600160a01b03871680855290835292819020805460ff191686151590811790915590519081529192917f17307eab39ab6107e8899845ad3d59bd9653f200f220920489ca2b5937696c31910160405180910390a35050565b6001600160a01b038116600090815261019e6020908152604080832054606a909252822054600160401b90046001600160401b03166111f79190615774565b6097546001600160a01b0316331461292557604051630202a8bf60e61b815260040160405180910390fd5b8281811461294657604051638d62a9d560e01b815260040160405180910390fd5b60005b818110156129c257838382818110612963576129636158c4565b9050602002013561019d6000888885818110612981576129816158c4565b90506020020160208101906129969190615090565b6001600160a01b03168152602081019190915260400160002055806129ba8161583d565b915050612949565b506040517f0df27beb8d16f5e61d125286ba69a986a702ac83921bb1864629ca5e662e84d490600090a15050505050565b323314612a1357604051633059e46160e21b815260040160405180910390fd5b60fd5460ff1615612a365760405162461bcd60e51b815260040161176f906156d4565b600480612a4161143c565b6005811115612a5257612a52615898565b14612a70576040516338df794b60e01b815260040160405180910390fd5b6101985482612a7e336128bb565b612a889190615774565b1115612aa7576040516335e62b7b60e21b815260040160405180910390fd5b6101945482612ab4613aae565b612abe9190615774565b1115612add57604051631eddc6a360e11b815260040160405180910390fd5b6000612ae7613470565b9050612b053384604051806020016040528060008152506000613ad9565b826101a36000828254612b189190615774565b90915550339050600080516020615935833981519152848381612b3a60655490565b612b4491906157bf565b6004604051612b569493929190615749565b60405180910390a261167c612b6b84836157a0565b613f67565b612b7b848484613824565b6001600160a01b0383163b15158015612b9d5750612b9b84848484614400565b155b15611ad7576040516368d2bf6b60e11b815260040160405180910390fd5b60fd5460ff1615612bde5760405162461bcd60e51b815260040161176f906156d4565b600380612be961143c565b6005811115612bfa57612bfa615898565b14612c18576040516338df794b60e01b815260040160405180910390fd5b33600090815261019d6020526040902054821115612c49576040516390e50aa560e01b815260040160405180910390fd5b6101945482612c56613aae565b612c609190615774565b1180612c8a575061019654826101a2546101a054612c7e9190615774565b612c889190615774565b115b15612ca857604051631eddc6a360e11b815260040160405180910390fd5b33600090815261019d602052604081208054849290612cc89084906157bf565b9091555060009050612cd86125b4565b90506000612ce684836157a0565b9050612d043385604051806020016040528060008152506000613ad9565b836101a26000828254612d179190615774565b90915550339050600080516020615935833981519152858481612d3960655490565b612d4391906157bf565b60036040516120769493929190615749565b6097546001600160a01b03163314612d8057604051630202a8bf60e61b815260040160405180910390fd5b6001600160a01b038116612da7576040516386850cc360e01b815260040160405180910390fd5b6098546001600160a01b031615612dd15760405163033c108960e01b815260040160405180910390fd5b611e478161411c565b6097546001600160a01b03163314612e0557604051630202a8bf60e61b815260040160405180910390fd5b600080612e1061143c565b6005811115612e2157612e21615898565b14612e3f576040516338df794b60e01b815260040160405180910390fd5b428b1015612e6057604051639db169d760e01b815260040160405180910390fd5b888a11612e80576040516302f092d160e41b815260040160405180910390fd5b8a8711612ea0576040516316c9078560e01b815260040160405180910390fd5b86861015612ec1576040516312d3f13560e01b815260040160405180910390fd5b85841015612ee2576040516335bcfe2b60e21b815260040160405180910390fd5b83831015612f0357604051631e3804ab60e21b815260040160405180910390fd5b612710851180612f14575061271082115b15612f32576040516346b7d95d60e11b815260040160405180910390fd5b612f3c8b886157bf565b6101af55871580612f5b575060046101af54612f58919061578c565b88115b15612f795760405163352a16bd60e11b815260040160405180910390fd5b6101ac8b90556101ad8a90556101b58a90556101ae8990556101b08890556101af54612fa690899061578c565b612fb08a8c6157bf565b612fba919061578c565b6101b1556101a48790556101a58690556101b28590556101a68490556101a78390556101b38290556101ac546101ad546101ae546101b0546040805194855260208501939093529183015260608201526080810188905260a0810187905260c0810186905260e08101859052610100810184905261012081018390527f9bd019469ebfcf9900769492374b29fc8f19b71a9cea1e964c34778235a02ebf906101400160405180910390a15050505050505050505050565b610193546060906001600160a01b03166130b85761019b613091836144f8565b6040516020016130a292919061556e565b6040516020818303038152906040529050919050565b61019354604051635e1578db60e11b81523060048201526001600160a01b039091169063bc2af1b69060240160206040518083038186803b1580156130fc57600080fd5b505afa158015613110573d6000803e3d6000fd5b505050506040513d601f19601f82011682018060405250810190613134919061549f565b82106131cd5761019c805461314890615802565b80601f016020809104026020016040519081016040528092919081815260200182805461317490615802565b80156131c15780601f10613196576101008083540402835291602001916131c1565b820191906000526020600020905b8154815290600101906020018083116131a457829003601f168201915b50505050509050919050565b61019354604051631f4b3c0160e11b81523060048201526024810184905261019b91613091916001600160a01b0390911690633e9678029060440160206040518083038186803b15801561322057600080fd5b505afa158015613234573d6000803e3d6000fd5b505050506040513d601f19601f82011682018060405250810190613258919061549f565b6144f8565b600081815260cb602052604081206111f7906145f5565b81806132935760405163e466584960e01b815260040160405180910390fd5b6000838152609960205260409020600101546097546001600160a01b031633148015906132c757506132c58133612656565b155b156132ee5760405163f9019a8d60e01b81526004810182905233602482015260440161176f565b611ad784846145ff565b6001600160a01b0381166000908152606a6020526040812054600160401b90046001600160401b03166111f7565b6097546001600160a01b0316331461335157604051630202a8bf60e61b815260040160405180910390fd5b61019380546001600160a01b0319166001600160a01b0392909216919091179055565b6097546001600160a01b0316331461339f57604051630202a8bf60e61b815260040160405180910390fd5b61019a546001600160a01b0316156133ca576040516345db6e6960e11b815260040160405180910390fd5b6127108211156133ed576040516346b7d95d60e11b815260040160405180910390fd5b6001600160a01b03811661341457604051631a1b629760e21b815260040160405180910390fd5b61019982905561019a80546001600160a01b0319166001600160a01b0383169081179091556040805184815260208101929092527fd7d086964f00d2604a80288c460231fe9cfc8e9605e838d49017401111f63adb91016120f1565b60006127106101b3546101b5546125cb91906157a0565b600054610100900460ff166134a25760005460ff16156134a6565b303b155b6135095760405162461bcd60e51b815260206004820152602e60248201527f496e697469616c697a61626c653a20636f6e747261637420697320616c72656160448201526d191e481a5b9a5d1a585b1a5e995960921b606482015260840161176f565b600054610100900460ff1615801561352b576000805461ffff19166101011790555b61353b8a8a8a8a8a8a888a614621565b84826135478587615774565b6135519190615774565b111561357057604051631a231d4360e21b815260040160405180910390fd5b6101ab8490558015613588576000805461ff00191690555b50505050505050505050565b6098546001600160a01b0316331415806135ac575033155b156135ca5760405163134aa98760e31b815260040160405180910390fd5b61222533614166565b6097546001600160a01b031633146135fe57604051630202a8bf60e61b815260040160405180910390fd5b61360b61019c8383614e93565b507f4012c6d278d4b460acbc560e9fa4425e187c3b40c848b8dfa248139729efee4361019c6040516120f1919061564f565b60006001600160e01b0319821663d5b7d1ad60e01b148061366257506136628261472e565b8061367157506136718261476e565b80613680575061368082614793565b8061368f575061368f826147a9565b806111f757506111f78261476e565b6127106001600160601b038216111561370c5760405162461bcd60e51b815260206004820152602a60248201527f455243323938313a20726f79616c7479206665652077696c6c206578636565646044820152692073616c65507269636560b01b606482015260840161176f565b6001600160a01b0382166137625760405162461bcd60e51b815260206004820152601960248201527f455243323938313a20696e76616c696420726563656976657200000000000000604482015260640161176f565b604080518082019091526001600160a01b039092168083526001600160601b039091166020909201829052600160a01b9091021761016155565b6000606554821080156111f7575050600090815260696020526040902054600160e01b900460ff161590565b6000828152606b602052604080822080546001600160a01b0319166001600160a01b0387811691821790925591518593918516917f8c5be1e5ebec7d5bd14f71427d1e84f3dd0314c0f7b2291e5b200ac8c7c3b92591a4505050565b600061382f82614002565b9050836001600160a01b031681600001516001600160a01b0316146138665760405162a1148160e81b815260040160405180910390fd5b6000336001600160a01b03861614806138845750613884853361108a565b8061389f575033613894846115af565b6001600160a01b0316145b9050806138bf57604051632ce44b5f60e11b815260040160405180910390fd5b6001600160a01b0384166138e657604051633a954ecd60e21b815260040160405180910390fd5b6138f2600084876137c8565b6001600160a01b038581166000908152606a60209081526040808320805467ffffffffffffffff198082166001600160401b0392831660001901831617909255898616808652838620805493841693831660019081018416949094179055898652606990945282852080546001600160e01b031916909417600160a01b429092169190910217835587018084529220805491939091166139c65760655482146139c657805460208601516001600160401b0316600160a01b026001600160e01b03199091166001600160a01b038a16171781555b50505082846001600160a01b0316866001600160a01b03167fddf252ad1be2c89b69c2b068fc378daa952ba7f163c4a11628f55a4df523b3ef60405160405180910390a45b5050505050565b613a1c82826147ce565b600082815260cb6020526040902061167c9082614854565b6001600160a01b0381163314613aa45760405162461bcd60e51b815260206004820152602f60248201527f416363657373436f6e74726f6c3a2063616e206f6e6c792072656e6f756e636560448201526e103937b632b9903337b91039b2b63360891b606482015260840161176f565b611eef82826145ff565b60006101a1546101a054613ac56066546065540390565b613acf9190615774565b6125e391906157bf565b6065546001600160a01b038516613b0257604051622e076360e81b815260040160405180910390fd5b83613b205760405163b562e8dd60e01b815260040160405180910390fd5b6001600160a01b0385166000818152606a6020908152604080832080546fffffffffffffffffffffffffffffffff1981166001600160401b038083168c018116918217600160401b67ffffffffffffffff1990941690921783900481168c01811690920217909155858452606990925290912080546001600160e01b031916909217600160a01b429092169190910217905580808501838015613bcc57506001600160a01b0387163b15155b15613c55575b60405182906001600160a01b038916906000907fddf252ad1be2c89b69c2b068fc378daa952ba7f163c4a11628f55a4df523b3ef908290a4613c1d6000888480600101955088614400565b613c3a576040516368d2bf6b60e11b815260040160405180910390fd5b80821415613bd2578260655414613c5057600080fd5b613c9b565b5b6040516001830192906001600160a01b038916906000907fddf252ad1be2c89b69c2b068fc378daa952ba7f163c4a11628f55a4df523b3ef908290a480821415613c56575b50606555613a0b565b60fd5460ff16613ced5760405162461bcd60e51b815260206004820152601460248201527314185d5cd8589b194e881b9bdd081c185d5cd95960621b604482015260640161176f565b60fd805460ff191690557f5db9ee0a495bf2e6ff9c91a7834c1ba4fdd244a5e8aa4e537bd38aeae4b073aa335b6040516001600160a01b03909116815260200160405180910390a1565b80613d5557604051636e5fd58f60e01b815260040160405180910390fd5b6101a1546101a0541415613d7c5760405163aa9eff6760e01b815260040160405180910390fd5b806000613d87614869565b6101aa546101a9549192506000918291905b8082108015613da85750600086115b15613f3a5760006101a98381548110613dc357613dc36158c4565b60009182526020918290206040805180820190915260029092020180546001600160a01b031680835260019091015492820183905296509150871015613e4657869350836101a98481548110613e1b57613e1b6158c4565b90600052602060002090600202016001016000828254613e3b91906157bf565b90915550613e909050565b806020015193506101a98381548110613e6157613e616158c4565b60009182526020822060029091020180546001600160a01b03191681556001015582613e8c8161583d565b9350505b613e9a84886157bf565b6001600160a01b038616600090815261019e6020526040812080549299508692909190613ec89084906157bf565b92505081905550613eeb8585604051806020016040528060008152506000613ad9565b846001600160a01b0316600080516020615935833981519152858887613f1060655490565b613f1a91906157bf565b6002604051613f2c9493929190615749565b60405180910390a250613d99565b613f4486886157bf565b6101a16000828254613f569190615774565b9091555050506101aa555050505050565b80341015613f8a57604051639968ec3d60e01b815234600482015260240161176f565b80341115611e4757600033613f9f83346157bf565b604051600081818185875af1925050503d8060008114613fdb576040519150601f19603f3d011682016040523d82523d6000602084013e613fe0565b606091505b5050905080611eef57604051633aa9e60d60e21b815260040160405180910390fd5b60408051606081018252600080825260208201819052918101919091528160655481101561410357600081815260696020908152604091829020825160608101845290546001600160a01b0381168252600160a01b81046001600160401b031692820192909252600160e01b90910460ff161515918101829052906141015780516001600160a01b031615614098579392505050565b5060001901600081815260696020908152604091829020825160608101845290546001600160a01b038116808352600160a01b82046001600160401b031693830193909352600160e01b900460ff16151592810192909252156140fc579392505050565b614098565b505b604051636f96cda160e11b815260040160405180910390fd5b609880546001600160a01b0319166001600160a01b0383169081179091556040517f68f49b346b94582a8b5f9d10e3fe3365318fe8f191ff8dce7c59c6cad06b02f590600090a250565b614182600061417d6097546001600160a01b031690565b6145ff565b6001600160a01b0381161561419c5761419c600082613a12565b611e4781614873565b60fd5460ff16156141c85760405162461bcd60e51b815260040161176f906156d4565b60fd805460ff191660011790557f62e78cea01bee320cd4e420270b5ea74000d11b0c9f74754ebdbfc544b05a258613d1a3390565b8061421b57604051636e5fd58f60e01b815260040160405180910390fd5b33600090815261019d602052604090205481111561424c576040516390e50aa560e01b815260040160405180910390fd5b6101945481614259613aae565b6142639190615774565b118061427f575061019654816101a05461427d9190615774565b115b1561429d57604051631eddc6a360e11b815260040160405180910390fd5b33600090815261019d6020526040812080548392906142bd9084906157bf565b909155505033600090815261019e6020526040812080548392906142e2908490615774565b92505081905550806101a060008282546142fc9190615774565b909155505060408051808201909152338152602081018281526101a98054600181018255600091825292517f46e9bb78ef9a1e3ee9f53f39e4c4ee2bed6dca07e6229ea5dcb5d0732af60d17600290940293840180546001600160a01b0319166001600160a01b0390921691909117905590517f46e9bb78ef9a1e3ee9f53f39e4c4ee2bed6dca07e6229ea5dcb5d0732af60d189092019190915561439f614869565b905060006143ad83836157a0565b604080518581526020810185905291925033917faaa4209473b0e01252afb37fc6a883231b6189d78f5fb75fec9d8345d716d6ba910160405180910390a261167c81613f67565b60006125ad83836148d0565b604051630a85bd0160e11b81526000906001600160a01b0385169063150b7a02906144359033908990889088906004016155f1565b602060405180830381600087803b15801561444f57600080fd5b505af192505050801561447f575060408051601f3d908101601f1916820190925261447c9181019061535f565b60015b6144da573d8080156144ad576040519150601f19603f3d011682016040523d82523d6000602084013e6144b2565b606091505b5080516144d2576040516368d2bf6b60e11b815260040160405180910390fd5b805181602001fd5b6001600160e01b031916630a85bd0160e11b1490505b949350505050565b60608161451c5750506040805180820190915260018152600360fc1b602082015290565b8160005b811561454657806145308161583d565b915061453f9050600a8361578c565b9150614520565b6000816001600160401b03811115614560576145606158da565b6040519080825280601f01601f19166020018201604052801561458a576020820181803683370190505b5090505b84156144f05761459f6001836157bf565b91506145ac600a86615858565b6145b7906030615774565b60f81b8183815181106145cc576145cc6158c4565b60200101906001600160f81b031916908160001a9053506145ee600a8661578c565b945061458e565b60006111f7825490565b61460982826148fa565b600082815260cb6020526040902061167c9082614961565b600054610100900460ff166146485760405162461bcd60e51b815260040161176f906156fe565b614650614976565b6146586149b5565b6146606149e4565b61466a8888614a0b565b6001600160a01b038616614691576040516331ae7ba360e21b815260040160405180910390fd5b8215806146a65750826146a48284615774565b115b156146c457604051631a231d4360e21b815260040160405180910390fd5b828411156146e557604051631ddf40b160e01b815260040160405180910390fd5b6146fd60008051602061591583398151915287611a53565b614709856101f461369e565b6101978490556101949290925561019892909255610195919091556101965550505050565b60006001600160e01b031982166380ac58cd60e01b148061475f57506001600160e01b03198216635b5e139f60e01b145b806111f757506111f782614793565b60006001600160e01b0319821663152a902d60e11b14806111f757506111f7826147a9565b6001600160e01b0319166301ffc9a760e01b1490565b60006001600160e01b0319821663f3353d7760e01b14806111f757506111f782614a3c565b6147d88282612656565b611eef5760008281526099602090815260408083206001600160a01b03851684529091529020805460ff191660011790556148103390565b6001600160a01b0316816001600160a01b0316837f2f8788117e7eff1d82e926ec794901d17c78024a50270940304540a733656f0d60405160405180910390a45050565b60006125ad836001600160a01b038416614a56565b60006125e36125b4565b609780546001600160a01b038381166001600160a01b03198084168217909455609880549094169093556040519116919082907f8be0079c531659141344cd1fd0a4f28419497f9722a3daafe3b4186f6b6457e090600090a35050565b60008260000182815481106148e7576148e76158c4565b9060005260206000200154905092915050565b6149048282612656565b15611eef5760008281526099602090815260408083206001600160a01b0385168085529252808320805460ff1916905551339285917ff6391f5c32d9c69d2a47ea670b442974b53935d1edc7fd64eb21e047a839171b9190a45050565b60006125ad836001600160a01b038416614aa5565b600054610100900460ff1661499d5760405162461bcd60e51b815260040161176f906156fe565b6149a5614b98565b6149ad614bd7565b612225614c06565b600054610100900460ff166149dc5760405162461bcd60e51b815260040161176f906156fe565b612225614cc1565b600054610100900460ff166122255760405162461bcd60e51b815260040161176f906156fe565b600054610100900460ff16614a325760405162461bcd60e51b815260040161176f906156fe565b611eef8282614cf0565b6000614a4782614d48565b806111f757506111f782614d6d565b6000818152600183016020526040812054614a9d575081546001818101845560008481526020808220909301849055845484825282860190935260409020919091556111f7565b5060006111f7565b60008181526001830160205260408120548015614b8e576000614ac96001836157bf565b8554909150600090614add906001906157bf565b9050818114614b42576000866000018281548110614afd57614afd6158c4565b9060005260206000200154905080876000018481548110614b2057614b206158c4565b6000918252602080832090910192909255918252600188019052604090208390555b8554869080614b5357614b536158ae565b6001900381819060005260206000200160009055905585600101600086815260200190815260200160002060009055600193505050506111f7565b60009150506111f7565b600054610100900460ff16614bbf5760405162461bcd60e51b815260040161176f906156fe565b614bc7614d92565b614bcf6149e4565b6122256149e4565b600054610100900460ff16614bfe5760405162461bcd60e51b815260040161176f906156fe565b612225614dc9565b600054610100900460ff16614c2d5760405162461bcd60e51b815260040161176f906156fe565b614c777f65d7a28e3265b37a6474929f336521b332c1681b933f6cb9f3376673440d862a7fe0e65c783ac33ff1c5ccf4399c9185066773921d6f8d050bf80781603021f097614dfc565b6122257f427da25fe773164f88948d3e215c94b6554e2ed5e5f203a821c9f2f6131cf75a7fe516f7ac9747f401e208331379a0bafe3c9c4dbb6501fd23bcef278f7ebaf4e5614dfc565b600054610100900460ff16614ce85760405162461bcd60e51b815260040161176f906156fe565b600161012f55565b600054610100900460ff16614d175760405162461bcd60e51b815260040161176f906156fe565b8151614d2a906067906020850190614f17565b508051614d3e906068906020840190614f17565b5060006065555050565b60006001600160e01b031982166322d7505760e11b14806111f757506111f78261472e565b60006001600160e01b03198216635a05180f60e01b14806111f757506111f782614e47565b600054610100900460ff16614db95760405162461bcd60e51b815260040161176f906156fe565b614dc16149e4565b612225614e6c565b600054610100900460ff16614df05760405162461bcd60e51b815260040161176f906156fe565b60fd805460ff19169055565b600082815260996020526040808220600101805490849055905190918391839186917fbd79b86ffe0ab8e8776151514217cd7cacd52c909f66475c3af44e129f0b00ff9190a4505050565b60006001600160e01b03198216637965db0b60e01b14806111f757506111f782614d48565b600054610100900460ff166135ca5760405162461bcd60e51b815260040161176f906156fe565b828054614e9f90615802565b90600052602060002090601f016020900481019282614ec15760008555614f07565b82601f10614eda5782800160ff19823516178555614f07565b82800160010185558215614f07579182015b82811115614f07578235825591602001919060010190614eec565b50614f13929150614f8b565b5090565b828054614f2390615802565b90600052602060002090601f016020900481019282614f455760008555614f07565b82601f10614f5e57805160ff1916838001178555614f07565b82800160010185558215614f07579182015b82811115614f07578251825591602001919060010190614f70565b5b80821115614f135760008155600101614f8c565b60006001600160401b0380841115614fba57614fba6158da565b604051601f8501601f19908116603f01168101908282118183101715614fe257614fe26158da565b81604052809350858152868686011115614ffb57600080fd5b858560208301376000602087830101525050509392505050565b80356001600160a01b038116811461265157600080fd5b60008083601f84011261503e57600080fd5b5081356001600160401b0381111561505557600080fd5b6020830191508360208260051b8501011115611a4c57600080fd5b600082601f83011261508157600080fd5b6125ad83833560208501614fa0565b6000602082840312156150a257600080fd5b6125ad82615015565b600080604083850312156150be57600080fd5b6150c783615015565b91506150d560208401615015565b90509250929050565b6000806000606084860312156150f357600080fd5b6150fc84615015565b925061510a60208501615015565b9150604084013590509250925092565b6000806000806080858703121561513057600080fd5b61513985615015565b935061514760208601615015565b92506040850135915060608501356001600160401b0381111561516957600080fd5b8501601f8101871361517a57600080fd5b61518987823560208401614fa0565b91505092959194509250565b600080604083850312156151a857600080fd5b6151b183615015565b915060208301356151c1816158f0565b809150509250929050565b600080604083850312156151df57600080fd5b6151e883615015565b946020939093013593505050565b6000806040838503121561520957600080fd5b61521283615015565b915060208301356001600160601b03811681146151c157600080fd5b6000806000806040858703121561524457600080fd5b84356001600160401b038082111561525b57600080fd5b6152678883890161502c565b9096509450602087013591508082111561528057600080fd5b5061528d8782880161502c565b95989497509550505050565b6000602082840312156152ab57600080fd5b81516125ad816158f0565b600080604083850312156152c957600080fd5b82516152d4816158f0565b6020939093015192949293505050565b6000602082840312156152f657600080fd5b5035919050565b6000806040838503121561531057600080fd5b823591506150d560208401615015565b6000806040838503121561533357600080fd5b50508035926020909101359150565b60006020828403121561535457600080fd5b81356125ad816158fe565b60006020828403121561537157600080fd5b81516125ad816158fe565b6000806020838503121561538f57600080fd5b82356001600160401b03808211156153a657600080fd5b818501915085601f8301126153ba57600080fd5b8135818111156153c957600080fd5b8660208285010111156153db57600080fd5b60209290920196919550909350505050565b60008060008060008060008060006101208a8c03121561540c57600080fd5b89356001600160401b038082111561542357600080fd5b61542f8d838e01615070565b9a5060208c013591508082111561544557600080fd5b506154528c828d01615070565b98505061546160408b01615015565b965061546f60608b01615015565b989b979a50959860808101359760a0820135975060c0820135965060e08201359550610100909101359350915050565b6000602082840312156154b157600080fd5b5051919050565b6000806000806000806000806000806101408b8d0312156154d857600080fd5b505088359a60208a01359a5060408a013599606081013599506080810135985060a0810135975060c0810135965060e081013595506101008101359450610120013592509050565b600081518084526155388160208601602086016157d6565b601f01601f19169290920160200192915050565b6006811061556a57634e487b7160e01b600052602160045260246000fd5b9052565b600080845461557c81615802565b6001828116801561559457600181146155a5576155d4565b60ff198416875282870194506155d4565b8860005260208060002060005b858110156155cb5781548a8201529084019082016155b2565b50505082870194505b5050505083516155e88183602088016157d6565b01949350505050565b6001600160a01b038581168252841660208201526040810183905260806060820181905260009061562490830184615520565b9695505050505050565b602081016111f7828461554c565b6020815260006125ad6020830184615520565b600060208083526000845461566381615802565b808487015260406001808416600081146156845760018114615698576156c6565b60ff198516898401526060890195506156c6565b896000528660002060005b858110156156be5781548b82018601529083019088016156a3565b8a0184019650505b509398975050505050505050565b60208082526010908201526f14185d5cd8589b194e881c185d5cd95960821b604082015260600190565b6020808252602b908201527f496e697469616c697a61626c653a20636f6e7472616374206973206e6f74206960408201526a6e697469616c697a696e6760a81b606082015260800190565b84815260208101849052604081018390526080810161576b606083018461554c565b95945050505050565b600082198211156157875761578761586c565b500190565b60008261579b5761579b615882565b500490565b60008160001904831182151516156157ba576157ba61586c565b500290565b6000828210156157d1576157d161586c565b500390565b60005b838110156157f15781810151838201526020016157d9565b83811115611ad75750506000910152565b600181811c9082168061581657607f821691505b6020821081141561583757634e487b7160e01b600052602260045260246000fd5b50919050565b60006000198214156158515761585161586c565b5060010190565b60008261586757615867615882565b500690565b634e487b7160e01b600052601160045260246000fd5b634e487b7160e01b600052601260045260246000fd5b634e487b7160e01b600052602160045260246000fd5b634e487b7160e01b600052603160045260246000fd5b634e487b7160e01b600052603260045260246000fd5b634e487b7160e01b600052604160045260246000fd5b8015158114611e4757600080fd5b6001600160e01b031981168114611e4757600080fdfe770fadb28e0e3026382976ee8b810cb0eb8666922148dd9e10b20cfb9b477ba8bb20f716bd7ca9427b818f6de485952ab3a5acec2559fb794e3f9a4d9f70e722a26469706673582212202bdb256ee0fe5239de6abf2bd2b3931d9c25afc0d97ff4f0ac39dd86fd5c067164736f6c63430008060033",
  "devdoc": {
    "author": "Trader Joe",
    "events": {
      "AuctionSaleStartTimeSet(uint256)": {
        "details": "Emitted on setAuctionSaleStartTime()",
        "params": {
          "auctionSaleStartTime": "New auction sale start time"
        }
      },
      "Initialized(uint256,uint256,uint256,uint256,uint256,uint256,uint256,uint256,uint256,uint256)": {
        "details": "Emitted on initializePhases()",
        "params": {
          "allowlistDiscountPercent": "Discount applied to the last auction price during the allowlist mint",
          "allowlistStartTime": "allowlist mint start time in seconds",
          "auctionDropInterval": "Time elapsed between each drop in price in seconds",
          "auctionEndPrice": "Auction floor price in AVAX",
          "auctionSaleStartTime": "Auction start time in seconds",
          "auctionStartPrice": "Auction start price in AVAX",
          "preMintStartTime": "Pre-mint start time in seconds",
          "publicSaleDiscountPercent": "Discount applied to the last auction price during the public sale",
          "publicSaleEndTime": "Public sale end time in seconds",
          "publicSaleStartTime": "Public sale start time in seconds"
        }
      }
    },
    "kind": "dev",
    "methods": {
      "allowlistMint(uint256)": {
        "params": {
          "_quantity": "Quantity of NFTs to mint"
        }
      },
      "allowlistPrice()": {
        "returns": {
          "_0": "allowlistSalePrice Mint List sale price"
        }
      },
      "approve(address,uint256)": {
        "details": "See {IERC721-approve}."
      },
      "auctionMint(uint256)": {
        "details": "The price decreases every `auctionDropInterval` by `auctionDropPerStep`",
        "params": {
          "_quantity": "Quantity of NFTs to buy"
        }
      },
      "balanceOf(address)": {
        "details": "See {IERC721-balanceOf}."
      },
      "batchMintPreMintedNFTs(uint256)": {
        "params": {
          "_maxQuantity": "Max quantity of NFTs to mint"
        }
      },
      "currentPhase()": {
        "returns": {
          "_0": "phase Current phase"
        }
      },
      "devMint(uint256)": {
        "details": "Can only mint up to `amountForDevs`",
        "params": {
          "_quantity": "Quantity of NFTs to mint"
        }
      },
      "getApproved(uint256)": {
        "details": "See {IERC721-getApproved}."
      },
      "getAuctionPrice(uint256)": {
        "params": {
          "_saleStartTime": "Auction sale start time"
        },
        "returns": {
          "_0": "auctionSalePrice Auction sale price"
        }
      },
      "getOwnershipData(uint256)": {
        "params": {
          "_tokenId": "Token ID"
        },
        "returns": {
          "_0": "TokenOwnership Ownership struct for a specific token ID"
        }
      },
      "getRoleAdmin(bytes32)": {
        "details": "Returns the admin role that controls `role`. See {grantRole} and {revokeRole}. To change a role's admin, use {_setRoleAdmin}."
      },
      "getRoleMember(bytes32,uint256)": {
        "details": "Returns one of the accounts that have `role`. `index` must be a value between 0 and {getRoleMemberCount}, non-inclusive. Role bearers are not sorted in any particular way, and their ordering may change at any point. WARNING: When using {getRoleMember} and {getRoleMemberCount}, make sure you perform all queries on the same block. See the following https://forum.openzeppelin.com/t/iterating-over-elements-on-enumerableset-in-openzeppelin-contracts/2296[forum post] for more information."
      },
      "getRoleMemberCount(bytes32)": {
        "details": "Returns the number of accounts that have `role`. Can be used together with {getRoleMember} to enumerate all bearers of a role."
      },
      "grantRole(bytes32,address)": {
        "details": "If `account` had not been already granted `role`, emits a {RoleGranted} event. Requirements: - the caller must be the `owner` or have ``role``'s admin role. - the role granted can't be `DEFAULT_ADMIN`",
        "params": {
          "account": "The address of the account",
          "role": "The role to grant"
        }
      },
      "hasBatchToReveal()": {
        "returns": {
          "_0": "bool Whether reveal can be triggered or not",
          "_1": "uint256 The number of the next batch that will be revealed"
        }
      },
      "hasRole(bytes32,address)": {
        "details": "Returns `true` if `account` has been granted `role`."
      },
      "initialize(string,string,address,address,uint256,uint256,uint256,uint256,uint256)": {
        "params": {
          "_amountForAllowlist": "Amount of NFTs available for the allowlist mint (e.g 1000)",
          "_amountForAuction": "Amount of NFTs available for the auction (e.g 8000)",
          "_amountForDevs": "Amount of NFTs reserved for `projectOwner` (e.g 200)",
          "_collectionSize": "The collection size (e.g 10000)",
          "_maxBatchSize": "Max amount of NFTs that can be minted at once",
          "_name": "ERC721 name",
          "_projectOwner": "The project owner",
          "_royaltyReceiver": "Royalty fee collector",
          "_symbol": "ERC721 symbol"
        }
      },
      "initializeJoeFee(uint256,address)": {
        "params": {
          "_joeFeeCollector": "The address to which the fees on the sale will be sent",
          "_joeFeePercent": "The fees collected by Joepegs on the sale benefits"
        }
      },
      "initializePhases(uint256,uint256,uint256,uint256,uint256,uint256,uint256,uint256,uint256,uint256)": {
        "details": "Can only be called once",
        "params": {
          "_allowlistDiscountPercent": "Discount applied to the last auction price during the allowlist mint",
          "_allowlistStartTime": "Allowlist mint start time in seconds",
          "_auctionDropInterval": "Time elapsed between each drop in price in seconds",
          "_auctionEndPrice": "Auction floor price in AVAX",
          "_auctionSaleStartTime": "Auction start time in seconds",
          "_auctionStartPrice": "Auction start price in AVAX",
          "_preMintStartTime": "Pre-mint start time in seconds",
          "_publicSaleDiscountPercent": "Discount applied to the last auction price during the public sale",
          "_publicSaleEndTime": "Public sale end time in seconds",
          "_publicSaleStartTime": "Public sale start time in seconds"
        }
      },
      "isApprovedForAll(address,address)": {
        "details": "See {IERC721-isApprovedForAll}."
      },
      "name()": {
        "details": "See {IERC721Metadata-name}."
      },
      "numberMinted(address)": {
        "params": {
          "_owner": "The owner of the NFTs"
        },
        "returns": {
          "_0": "numberMinted Number of NFTs minted"
        }
      },
      "owner()": {
        "returns": {
          "_0": "The address of the current owner"
        }
      },
      "ownerOf(uint256)": {
        "details": "See {IERC721-ownerOf}."
      },
      "pause()": {
        "details": "Sensible part of a contract might be pausable for security reasons. Requirements: - the caller must be the `owner` or have the ``role`` role. - the contrat needs to be unpaused."
      },
      "paused()": {
        "details": "Returns true if the contract is paused, and false otherwise."
      },
      "pendingOwner()": {
        "returns": {
          "_0": "The address of the current pending owner"
        }
      },
      "preMint(uint256)": {
        "params": {
          "_quantity": "Quantity of NFTs to mint"
        }
      },
      "publicSaleMint(uint256)": {
        "params": {
          "_quantity": "Quantity of NFTs to mint"
        }
      },
      "renounceRole(bytes32,address)": {
        "details": "Roles are often managed via {grantRole} and {revokeRole}: this function's purpose is to provide a mechanism for accounts to lose their privileges if they are compromised (such as when a trusted device is misplaced). If the calling account had been revoked `role`, emits a {RoleRevoked} event. Requirements: - the caller must be `account`. - the role renounced can't be `DEFAULT_ADMIN`",
        "params": {
          "account": "The address of the account",
          "role": "The role to renounce"
        }
      },
      "revokeRole(bytes32,address)": {
        "details": "If `account` had been granted `role`, emits a {RoleRevoked} event. Requirements: - the caller must be the `owner` or have ``role``'s admin role. - the role revoked can't be `DEFAULT_ADMIN`",
        "params": {
          "account": "The address of the account",
          "role": "The role to revoke"
        }
      },
      "royaltyInfo(uint256,uint256)": {
        "details": "Returns how much royalty is owed and to whom, based on a sale price that may be denominated in any unit of exchange. The royalty amount is denominated and should be payed in that same unit of exchange."
      },
      "safeTransferFrom(address,address,uint256)": {
        "details": "See {IERC721-safeTransferFrom}."
      },
      "safeTransferFrom(address,address,uint256,bytes)": {
        "details": "See {IERC721-safeTransferFrom}."
      },
      "salePrice()": {
        "returns": {
          "_0": "publicSalePrice Public sale price"
        }
      },
      "seedAllowlist(address[],uint256[])": {
        "params": {
          "_addresses": "List of addresses allowed to mint during the allowlist phase",
          "_numNfts": "List of NFT quantities mintable per address"
        }
      },
      "setAllowlistStartTime(uint256)": {
        "details": "Only callable by owner",
        "params": {
          "_allowlistStartTime": "New allowlist start time"
        }
      },
      "setApprovalForAll(address,bool)": {
        "details": "See {IERC721-setApprovalForAll}."
      },
      "setAuctionSaleStartTime(uint256)": {
        "details": "Only callable by owner",
        "params": {
          "_auctionSaleStartTime": "New auction sale start time"
        }
      },
      "setBaseURI(string)": {
        "details": "This sets the URI for revealed tokens Only callable by project owner",
        "params": {
          "_baseURI": "Base URI to be set"
        }
      },
      "setBatchReveal(address)": {
        "details": "Can be set to zero address to disable batch reveal"
      },
      "setPreMintStartTime(uint256)": {
        "details": "Only callable by owner",
        "params": {
          "_preMintStartTime": "New pre-mint start time"
        }
      },
      "setPublicSaleEndTime(uint256)": {
        "details": "Only callable by owner",
        "params": {
          "_publicSaleEndTime": "New public sale end time"
        }
      },
      "setPublicSaleStartTime(uint256)": {
        "details": "Only callable by owner",
        "params": {
          "_publicSaleStartTime": "New public sale start time"
        }
      },
      "setRoyaltyInfo(address,uint96)": {
        "params": {
          "_feePercent": "Royalty fee percent in basis point",
          "_receiver": "Royalty fee collector"
        }
      },
      "setUnrevealedURI(string)": {
        "details": "Only callable by project owner",
        "params": {
          "_unrevealedURI": "Unrevealed URI to be set"
        }
      },
      "setWithdrawAVAXStartTime(uint256)": {
        "params": {
          "_withdrawAVAXStartTime": "New public sale end time"
        }
      },
      "supportsInterface(bytes4)": {
        "details": "Returns true if this contract implements the interface defined by `interfaceId`. See the corresponding https://eips.ethereum.org/EIPS/eip-165#how-interfaces-are-identified[EIP section] to learn more about how these IDs are created. This function call must use less than 30 000 gas.",
        "params": {
          "_interfaceId": "InterfaceId to consider. Comes from type(InterfaceContract).interfaceId"
        },
        "returns": {
          "_0": "isInterfaceSupported True if the considered interface is supported"
        }
      },
      "symbol()": {
        "details": "See {IERC721Metadata-symbol}."
      },
      "tokenURI(uint256)": {
        "params": {
          "_id": "Token id"
        },
        "returns": {
          "_0": "URI Token URI"
        }
      },
      "totalSupply()": {
        "details": "Burned tokens are calculated here, use _totalMinted() if you want to count just minted tokens."
      },
      "transferFrom(address,address,uint256)": {
        "details": "See {IERC721-transferFrom}."
      },
      "unpause()": {
        "details": "Sensible part of a contract might be pausable for security reasons. Requirements: - the caller must be the `owner` or have the ``role`` role. - the contrat needs to be unpaused."
      },
      "withdrawAVAX(address)": {
        "params": {
          "_to": "Recipient of the earned AVAX"
        }
      }
    },
    "stateVariables": {
      "allowlistDiscountPercent": {
        "details": "In basis points e.g 500 for 5%"
      },
      "auctionDropInterval": {
        "details": "In seconds"
      },
      "auctionEndPrice": {
        "details": "auctionEndPrice is scaled to 1e18"
      },
      "auctionSaleDuration": {
        "details": "allowlistStartTime - auctionSaleStartTime"
      },
      "auctionSaleStartTime": {
        "details": "Timestamp"
      },
      "auctionStartPrice": {
        "details": "auctionStartPrice is scaled to 1e18"
      },
      "lastAuctionPrice": {
        "details": "lastAuctionPrice is scaled to 1e18"
      },
      "publicSaleDiscountPercent": {
        "details": "In basis points e.g 2500 for 25%"
      }
    },
    "title": "Launchpeg",
    "version": 1
  },
  "userdoc": {
    "kind": "user",
    "methods": {
      "BASIS_POINT_PRECISION()": {
        "notice": "Percentage base point"
      },
      "PROJECT_OWNER_ROLE()": {
        "notice": "Role granted to project owners"
      },
      "allowlist(address)": {
        "notice": "The amount of NFTs each allowed address can mint during the pre-mint or allowlist mint"
      },
      "allowlistDiscountPercent()": {
        "notice": "The discount applied to the last auction price during the allowlist mint"
      },
      "allowlistMint(uint256)": {
        "notice": "Mint NFTs during the allowlist mint"
      },
      "allowlistPrice()": {
        "notice": "Returns the price of the allowlist mint"
      },
      "allowlistStartTime()": {
        "notice": "Start time of the allowlist mint in seconds"
      },
      "amountBatchMinted()": {
        "notice": "Tracks the amount of NFTs batch minted"
      },
      "amountForAllowlist()": {
        "notice": "Amount of NFTs available for the allowlist mint (e.g 1000)"
      },
      "amountForAuction()": {
        "notice": "Amount of NFTs available for the auction (e.g 8000) Unsold items are put up for sale during the public sale."
      },
      "amountForDevs()": {
        "notice": "Amount of NFTs reserved for the project owner (e.g 200)"
      },
      "amountMintedByDevs()": {
        "notice": "Tracks the amount of NFTs minted by `projectOwner`"
      },
      "amountMintedDuringAllowlist()": {
        "notice": "Tracks the amount of NFTs minted on Allowlist phase"
      },
      "amountMintedDuringAuction()": {
        "notice": "Tracks the amount of NFTs minted during the dutch auction"
      },
      "amountMintedDuringPreMint()": {
        "notice": "Tracks the amount of NFTs minted in the Pre-Mint phase"
      },
      "amountMintedDuringPublicSale()": {
        "notice": "Tracks the amount of NFTs minted on Public Sale phase"
      },
      "auctionDropInterval()": {
        "notice": "Time elapsed between each drop in price"
      },
      "auctionDropPerStep()": {
        "notice": "Amount in AVAX deducted at each interval"
      },
      "auctionEndPrice()": {
        "notice": "Auction floor price in AVAX"
      },
      "auctionMint(uint256)": {
        "notice": "Mint NFTs during the dutch auction"
      },
      "auctionSaleDuration()": {
        "notice": "Duration of the auction in seconds"
      },
      "auctionSaleStartTime()": {
        "notice": "Start time of the dutch auction in seconds"
      },
      "auctionStartPrice()": {
        "notice": "Auction start price in AVAX"
      },
      "baseURI()": {
        "notice": "Token URI after collection reveal"
      },
      "batchMintPreMintedNFTs(uint256)": {
        "notice": "Batch mint NFTs requested during the pre-mint"
      },
      "becomeOwner()": {
        "notice": "Transfers the ownership to the new owner (`pendingOwner`). Can only be called by the pending owner"
      },
      "collectionSize()": {
        "notice": "The collection size (e.g 10000)"
      },
      "currentPhase()": {
        "notice": "Returns the current phase"
      },
      "devMint(uint256)": {
        "notice": "Mint NFTs to the project owner"
      },
      "getAuctionPrice(uint256)": {
        "notice": "Returns the current price of the dutch auction"
      },
      "getOwnershipData(uint256)": {
        "notice": "Returns the ownership data of a specific token ID"
      },
      "grantRole(bytes32,address)": {
        "notice": "Grants `role` to `account`."
      },
      "hasBatchToReveal()": {
        "notice": "Tells you if a batch can be revealed"
      },
      "initialize(string,string,address,address,uint256,uint256,uint256,uint256,uint256)": {
        "notice": "Launchpeg initialization Can only be called once"
      },
      "initializeJoeFee(uint256,address)": {
        "notice": "Initialize the sales fee percent taken by Joepegs and address that collects the fees"
      },
      "initializePhases(uint256,uint256,uint256,uint256,uint256,uint256,uint256,uint256,uint256,uint256)": {
        "notice": "Initialize the three phases of the sale"
      },
      "joeFeeCollector()": {
        "notice": "The address to which the fees on the sale will be sent"
      },
      "joeFeePercent()": {
        "notice": "The fees collected by Joepegs on the sale benefits"
      },
      "lastAuctionPrice()": {
        "notice": "The price of the last NFT sold during the auction"
      },
      "maxBatchSize()": {
        "notice": "Max amount of NFTs that can be minted at once"
      },
      "maxPerAddressDuringMint()": {
        "notice": "Max amount of NFTs an address can mint"
      },
      "numberMinted(address)": {
        "notice": "Returns the number of NFTs minted by a specific address"
      },
      "owner()": {
        "notice": "Returns the address of the current owner"
      },
      "pause()": {
        "notice": "Pauses the contract."
      },
      "pendingOwner()": {
        "notice": "Returns the address of the current pending owner"
      },
      "preMint(uint256)": {
        "notice": "Mint NFTs during the pre-mint"
      },
      "preMintStartTime()": {
        "notice": "Start time of the pre-mint in seconds"
      },
      "publicSaleDiscountPercent()": {
        "notice": "The discount applied to the last auction price during the public sale"
      },
      "publicSaleEndTime()": {
        "notice": "End time of the public sale in seconds"
      },
      "publicSaleMint(uint256)": {
        "notice": "Mint NFTs during the public sale"
      },
      "publicSaleStartTime()": {
        "notice": "Start time of the public sale in seconds"
      },
      "renounceOwnership()": {
        "notice": "Leaves the contract without owner. It will not be possible to call `onlyOwner` functions anymore. Can only be called by the current owner. NOTE: Renouncing ownership will leave the contract without an owner, thereby removing any functionality that is only available to the owner."
      },
      "renounceRole(bytes32,address)": {
        "notice": "Revokes `role` from the calling account."
      },
      "revealNextBatch()": {
        "notice": "Reveals the next batch if the reveal conditions are met"
      },
      "revokePendingOwner()": {
        "notice": "Revoke the pending owner address. This address will not be able to call {becomeOwner} to become the owner anymore. Can only be called by the owner"
      },
      "revokeRole(bytes32,address)": {
        "notice": "Revokes `role` from `account`."
      },
      "salePrice()": {
        "notice": "Returns the price of the public sale"
      },
      "seedAllowlist(address[],uint256[])": {
        "notice": "Set amount of NFTs mintable per address during the allowlist phase"
      },
      "setAllowlistStartTime(uint256)": {
        "notice": "Set the allowlist start time. Can only be set after phases have been initialized."
      },
      "setAuctionSaleStartTime(uint256)": {
        "notice": "Set the auction sale start time. Can only be set after phases have been initialized."
      },
      "setBaseURI(string)": {
        "notice": "Set the base URI"
      },
      "setBatchReveal(address)": {
        "notice": "Update batch reveal"
      },
      "setPendingOwner(address)": {
        "notice": "Sets the pending owner address. This address will be able to become the owner of this contract by calling {becomeOwner}"
      },
      "setPreMintStartTime(uint256)": {
        "notice": "Set the pre-mint start time. Can only be set after phases have been initialized."
      },
      "setPublicSaleEndTime(uint256)": {
        "notice": "Set the public sale end time. Can only be set after phases have been initialized."
      },
      "setPublicSaleStartTime(uint256)": {
        "notice": "Set the public sale start time. Can only be set after phases have been initialized."
      },
      "setRoyaltyInfo(address,uint96)": {
        "notice": "Set the royalty fee"
      },
      "setUnrevealedURI(string)": {
        "notice": "Set the unrevealed URI"
      },
      "setWithdrawAVAXStartTime(uint256)": {
        "notice": "Set the withdraw AVAX start time."
      },
      "tokenURI(uint256)": {
        "notice": "Returns the Uniform Resource Identifier (URI) for `tokenId` token."
      },
      "unpause()": {
        "notice": "Unpauses the contract."
      },
      "unrevealedURI()": {
        "notice": "Token URI before the collection reveal"
      },
      "withdrawAVAX(address)": {
        "notice": "Withdraw AVAX to the given recipient"
      },
      "withdrawAVAXStartTime()": {
        "notice": "Start time when funds can be withdrawn"
      }
    },
    "notice": "Implements a fair and gas efficient NFT launch mechanism. The sale takes place in 3 phases: dutch auction, allowlist mint, public sale.",
    "version": 1
  },
  "storageLayout": {
    "storage": [
      {
        "astId": 810,
        "contract": "contracts/Launchpeg.sol:Launchpeg",
        "label": "_initialized",
        "offset": 0,
        "slot": "0",
        "type": "t_bool"
      },
      {
        "astId": 813,
        "contract": "contracts/Launchpeg.sol:Launchpeg",
        "label": "_initializing",
        "offset": 1,
        "slot": "0",
        "type": "t_bool"
      },
      {
        "astId": 1710,
        "contract": "contracts/Launchpeg.sol:Launchpeg",
        "label": "__gap",
        "offset": 0,
        "slot": "1",
        "type": "t_array(t_uint256)50_storage"
      },
      {
        "astId": 1957,
        "contract": "contracts/Launchpeg.sol:Launchpeg",
        "label": "__gap",
        "offset": 0,
        "slot": "51",
        "type": "t_array(t_uint256)50_storage"
      },
      {
        "astId": 11862,
        "contract": "contracts/Launchpeg.sol:Launchpeg",
        "label": "_currentIndex",
        "offset": 0,
        "slot": "101",
        "type": "t_uint256"
      },
      {
        "astId": 11864,
        "contract": "contracts/Launchpeg.sol:Launchpeg",
        "label": "_burnCounter",
        "offset": 0,
        "slot": "102",
        "type": "t_uint256"
      },
      {
        "astId": 11866,
        "contract": "contracts/Launchpeg.sol:Launchpeg",
        "label": "_name",
        "offset": 0,
        "slot": "103",
        "type": "t_string_storage"
      },
      {
        "astId": 11868,
        "contract": "contracts/Launchpeg.sol:Launchpeg",
        "label": "_symbol",
        "offset": 0,
        "slot": "104",
        "type": "t_string_storage"
      },
      {
        "astId": 11873,
        "contract": "contracts/Launchpeg.sol:Launchpeg",
        "label": "_ownerships",
        "offset": 0,
        "slot": "105",
        "type": "t_mapping(t_uint256,t_struct(TokenOwnership)11851_storage)"
      },
      {
        "astId": 11878,
        "contract": "contracts/Launchpeg.sol:Launchpeg",
        "label": "_addressData",
        "offset": 0,
        "slot": "106",
        "type": "t_mapping(t_address,t_struct(AddressData)11860_storage)"
      },
      {
        "astId": 11882,
        "contract": "contracts/Launchpeg.sol:Launchpeg",
        "label": "_tokenApprovals",
        "offset": 0,
        "slot": "107",
        "type": "t_mapping(t_uint256,t_address)"
      },
      {
        "astId": 11888,
        "contract": "contracts/Launchpeg.sol:Launchpeg",
        "label": "_operatorApprovals",
        "offset": 0,
        "slot": "108",
        "type": "t_mapping(t_address,t_mapping(t_address,t_bool))"
      },
      {
        "astId": 13136,
        "contract": "contracts/Launchpeg.sol:Launchpeg",
        "label": "__gap",
        "offset": 0,
        "slot": "109",
        "type": "t_array(t_uint256)42_storage"
      },
      {
        "astId": 11240,
        "contract": "contracts/Launchpeg.sol:Launchpeg",
        "label": "_owner",
        "offset": 0,
        "slot": "151",
        "type": "t_address"
      },
      {
        "astId": 11242,
        "contract": "contracts/Launchpeg.sol:Launchpeg",
        "label": "_pendingOwner",
        "offset": 0,
        "slot": "152",
        "type": "t_address"
      },
      {
        "astId": 273,
        "contract": "contracts/Launchpeg.sol:Launchpeg",
        "label": "_roles",
        "offset": 0,
        "slot": "153",
        "type": "t_mapping(t_bytes32,t_struct(RoleData)268_storage)"
      },
      {
        "astId": 561,
        "contract": "contracts/Launchpeg.sol:Launchpeg",
        "label": "__gap",
        "offset": 0,
        "slot": "154",
        "type": "t_array(t_uint256)49_storage"
      },
      {
        "astId": 122,
        "contract": "contracts/Launchpeg.sol:Launchpeg",
        "label": "_roleMembers",
        "offset": 0,
        "slot": "203",
        "type": "t_mapping(t_bytes32,t_struct(AddressSet)2282_storage)"
      },
      {
        "astId": 232,
        "contract": "contracts/Launchpeg.sol:Launchpeg",
        "label": "__gap",
        "offset": 0,
        "slot": "204",
        "type": "t_array(t_uint256)49_storage"
      },
      {
        "astId": 898,
        "contract": "contracts/Launchpeg.sol:Launchpeg",
        "label": "_paused",
        "offset": 0,
        "slot": "253",
        "type": "t_bool"
      },
      {
        "astId": 987,
        "contract": "contracts/Launchpeg.sol:Launchpeg",
        "label": "__gap",
        "offset": 0,
        "slot": "254",
        "type": "t_array(t_uint256)49_storage"
      },
      {
        "astId": 1002,
        "contract": "contracts/Launchpeg.sol:Launchpeg",
        "label": "_status",
        "offset": 0,
        "slot": "303",
        "type": "t_uint256"
      },
      {
        "astId": 1046,
        "contract": "contracts/Launchpeg.sol:Launchpeg",
        "label": "__gap",
        "offset": 0,
        "slot": "304",
        "type": "t_array(t_uint256)49_storage"
      },
      {
        "astId": 1240,
        "contract": "contracts/Launchpeg.sol:Launchpeg",
        "label": "_defaultRoyaltyInfo",
        "offset": 0,
        "slot": "353",
        "type": "t_struct(RoyaltyInfo)1237_storage"
      },
      {
        "astId": 1245,
        "contract": "contracts/Launchpeg.sol:Launchpeg",
        "label": "_tokenRoyaltyInfo",
        "offset": 0,
        "slot": "354",
        "type": "t_mapping(t_uint256,t_struct(RoyaltyInfo)1237_storage)"
      },
      {
        "astId": 1425,
        "contract": "contracts/Launchpeg.sol:Launchpeg",
        "label": "__gap",
        "offset": 0,
        "slot": "355",
        "type": "t_array(t_uint256)48_storage"
      },
      {
        "astId": 3275,
        "contract": "contracts/Launchpeg.sol:Launchpeg",
        "label": "batchReveal",
        "offset": 0,
        "slot": "403",
        "type": "t_contract(IBatchReveal)10759"
      },
      {
        "astId": 3286,
        "contract": "contracts/Launchpeg.sol:Launchpeg",
        "label": "collectionSize",
        "offset": 0,
        "slot": "404",
        "type": "t_uint256"
      },
      {
        "astId": 3290,
        "contract": "contracts/Launchpeg.sol:Launchpeg",
        "label": "amountForDevs",
        "offset": 0,
        "slot": "405",
        "type": "t_uint256"
      },
      {
        "astId": 3294,
        "contract": "contracts/Launchpeg.sol:Launchpeg",
        "label": "amountForAllowlist",
        "offset": 0,
        "slot": "406",
        "type": "t_uint256"
      },
      {
        "astId": 3298,
        "contract": "contracts/Launchpeg.sol:Launchpeg",
        "label": "maxBatchSize",
        "offset": 0,
        "slot": "407",
        "type": "t_uint256"
      },
      {
        "astId": 3302,
        "contract": "contracts/Launchpeg.sol:Launchpeg",
        "label": "maxPerAddressDuringMint",
        "offset": 0,
        "slot": "408",
        "type": "t_uint256"
      },
      {
        "astId": 3306,
        "contract": "contracts/Launchpeg.sol:Launchpeg",
        "label": "joeFeePercent",
        "offset": 0,
        "slot": "409",
        "type": "t_uint256"
      },
      {
        "astId": 3310,
        "contract": "contracts/Launchpeg.sol:Launchpeg",
        "label": "joeFeeCollector",
        "offset": 0,
        "slot": "410",
        "type": "t_address"
      },
      {
        "astId": 3318,
        "contract": "contracts/Launchpeg.sol:Launchpeg",
        "label": "baseURI",
        "offset": 0,
        "slot": "411",
        "type": "t_string_storage"
      },
      {
        "astId": 3322,
        "contract": "contracts/Launchpeg.sol:Launchpeg",
        "label": "unrevealedURI",
        "offset": 0,
        "slot": "412",
        "type": "t_string_storage"
      },
      {
        "astId": 3328,
        "contract": "contracts/Launchpeg.sol:Launchpeg",
        "label": "allowlist",
        "offset": 0,
        "slot": "413",
        "type": "t_mapping(t_address,t_uint256)"
      },
      {
        "astId": 3333,
        "contract": "contracts/Launchpeg.sol:Launchpeg",
        "label": "userAddressToPreMintAmount",
        "offset": 0,
        "slot": "414",
        "type": "t_mapping(t_address,t_uint256)"
      },
      {
        "astId": 3337,
        "contract": "contracts/Launchpeg.sol:Launchpeg",
        "label": "amountMintedByDevs",
        "offset": 0,
        "slot": "415",
        "type": "t_uint256"
      },
      {
        "astId": 3341,
        "contract": "contracts/Launchpeg.sol:Launchpeg",
        "label": "amountMintedDuringPreMint",
        "offset": 0,
        "slot": "416",
        "type": "t_uint256"
      },
      {
        "astId": 3345,
        "contract": "contracts/Launchpeg.sol:Launchpeg",
        "label": "amountBatchMinted",
        "offset": 0,
        "slot": "417",
        "type": "t_uint256"
      },
      {
        "astId": 3349,
        "contract": "contracts/Launchpeg.sol:Launchpeg",
        "label": "amountMintedDuringAllowlist",
        "offset": 0,
        "slot": "418",
        "type": "t_uint256"
      },
      {
        "astId": 3353,
        "contract": "contracts/Launchpeg.sol:Launchpeg",
        "label": "amountMintedDuringPublicSale",
        "offset": 0,
        "slot": "419",
        "type": "t_uint256"
      },
      {
        "astId": 3357,
        "contract": "contracts/Launchpeg.sol:Launchpeg",
        "label": "preMintStartTime",
        "offset": 0,
        "slot": "420",
        "type": "t_uint256"
      },
      {
        "astId": 3361,
        "contract": "contracts/Launchpeg.sol:Launchpeg",
        "label": "allowlistStartTime",
        "offset": 0,
        "slot": "421",
        "type": "t_uint256"
      },
      {
        "astId": 3365,
        "contract": "contracts/Launchpeg.sol:Launchpeg",
        "label": "publicSaleStartTime",
        "offset": 0,
        "slot": "422",
        "type": "t_uint256"
      },
      {
        "astId": 3369,
        "contract": "contracts/Launchpeg.sol:Launchpeg",
        "label": "publicSaleEndTime",
        "offset": 0,
        "slot": "423",
        "type": "t_uint256"
      },
      {
        "astId": 3373,
        "contract": "contracts/Launchpeg.sol:Launchpeg",
        "label": "withdrawAVAXStartTime",
        "offset": 0,
        "slot": "424",
        "type": "t_uint256"
      },
      {
        "astId": 3378,
        "contract": "contracts/Launchpeg.sol:Launchpeg",
        "label": "preMintQueue",
        "offset": 0,
        "slot": "425",
        "type": "t_array(t_struct(PreMintData)3386_storage)dyn_storage"
      },
      {
        "astId": 3381,
        "contract": "contracts/Launchpeg.sol:Launchpeg",
        "label": "preMintQueueIdx",
        "offset": 0,
        "slot": "426",
        "type": "t_uint256"
      },
      {
        "astId": 6743,
        "contract": "contracts/Launchpeg.sol:Launchpeg",
        "label": "amountForAuction",
        "offset": 0,
        "slot": "427",
        "type": "t_uint256"
      },
      {
        "astId": 6747,
        "contract": "contracts/Launchpeg.sol:Launchpeg",
        "label": "auctionSaleStartTime",
        "offset": 0,
        "slot": "428",
        "type": "t_uint256"
      },
      {
        "astId": 6751,
        "contract": "contracts/Launchpeg.sol:Launchpeg",
        "label": "auctionStartPrice",
        "offset": 0,
        "slot": "429",
        "type": "t_uint256"
      },
      {
        "astId": 6755,
        "contract": "contracts/Launchpeg.sol:Launchpeg",
        "label": "auctionEndPrice",
        "offset": 0,
        "slot": "430",
        "type": "t_uint256"
      },
      {
        "astId": 6759,
        "contract": "contracts/Launchpeg.sol:Launchpeg",
        "label": "auctionSaleDuration",
        "offset": 0,
        "slot": "431",
        "type": "t_uint256"
      },
      {
        "astId": 6763,
        "contract": "contracts/Launchpeg.sol:Launchpeg",
        "label": "auctionDropInterval",
        "offset": 0,
        "slot": "432",
        "type": "t_uint256"
      },
      {
        "astId": 6767,
        "contract": "contracts/Launchpeg.sol:Launchpeg",
        "label": "auctionDropPerStep",
        "offset": 0,
        "slot": "433",
        "type": "t_uint256"
      },
      {
        "astId": 6771,
        "contract": "contracts/Launchpeg.sol:Launchpeg",
        "label": "allowlistDiscountPercent",
        "offset": 0,
        "slot": "434",
        "type": "t_uint256"
      },
      {
        "astId": 6775,
        "contract": "contracts/Launchpeg.sol:Launchpeg",
        "label": "publicSaleDiscountPercent",
        "offset": 0,
        "slot": "435",
        "type": "t_uint256"
      },
      {
        "astId": 6779,
        "contract": "contracts/Launchpeg.sol:Launchpeg",
        "label": "amountMintedDuringAuction",
        "offset": 0,
        "slot": "436",
        "type": "t_uint256"
      },
      {
        "astId": 6783,
        "contract": "contracts/Launchpeg.sol:Launchpeg",
        "label": "lastAuctionPrice",
        "offset": 0,
        "slot": "437",
        "type": "t_uint256"
      }
    ],
    "types": {
      "t_address": {
        "encoding": "inplace",
        "label": "address",
        "numberOfBytes": "20"
      },
      "t_array(t_bytes32)dyn_storage": {
        "base": "t_bytes32",
        "encoding": "dynamic_array",
        "label": "bytes32[]",
        "numberOfBytes": "32"
      },
      "t_array(t_struct(PreMintData)3386_storage)dyn_storage": {
        "base": "t_struct(PreMintData)3386_storage",
        "encoding": "dynamic_array",
        "label": "struct BaseLaunchpeg.PreMintData[]",
        "numberOfBytes": "32"
      },
      "t_array(t_uint256)42_storage": {
        "base": "t_uint256",
        "encoding": "inplace",
        "label": "uint256[42]",
        "numberOfBytes": "1344"
      },
      "t_array(t_uint256)48_storage": {
        "base": "t_uint256",
        "encoding": "inplace",
        "label": "uint256[48]",
        "numberOfBytes": "1536"
      },
      "t_array(t_uint256)49_storage": {
        "base": "t_uint256",
        "encoding": "inplace",
        "label": "uint256[49]",
        "numberOfBytes": "1568"
      },
      "t_array(t_uint256)50_storage": {
        "base": "t_uint256",
        "encoding": "inplace",
        "label": "uint256[50]",
        "numberOfBytes": "1600"
      },
      "t_bool": {
        "encoding": "inplace",
        "label": "bool",
        "numberOfBytes": "1"
      },
      "t_bytes32": {
        "encoding": "inplace",
        "label": "bytes32",
        "numberOfBytes": "32"
      },
      "t_contract(IBatchReveal)10759": {
        "encoding": "inplace",
        "label": "contract IBatchReveal",
        "numberOfBytes": "20"
      },
      "t_mapping(t_address,t_bool)": {
        "encoding": "mapping",
        "key": "t_address",
        "label": "mapping(address => bool)",
        "numberOfBytes": "32",
        "value": "t_bool"
      },
      "t_mapping(t_address,t_mapping(t_address,t_bool))": {
        "encoding": "mapping",
        "key": "t_address",
        "label": "mapping(address => mapping(address => bool))",
        "numberOfBytes": "32",
        "value": "t_mapping(t_address,t_bool)"
      },
      "t_mapping(t_address,t_struct(AddressData)11860_storage)": {
        "encoding": "mapping",
        "key": "t_address",
        "label": "mapping(address => struct ERC721AUpgradeable.AddressData)",
        "numberOfBytes": "32",
        "value": "t_struct(AddressData)11860_storage"
      },
      "t_mapping(t_address,t_uint256)": {
        "encoding": "mapping",
        "key": "t_address",
        "label": "mapping(address => uint256)",
        "numberOfBytes": "32",
        "value": "t_uint256"
      },
      "t_mapping(t_bytes32,t_struct(AddressSet)2282_storage)": {
        "encoding": "mapping",
        "key": "t_bytes32",
        "label": "mapping(bytes32 => struct EnumerableSetUpgradeable.AddressSet)",
        "numberOfBytes": "32",
        "value": "t_struct(AddressSet)2282_storage"
      },
      "t_mapping(t_bytes32,t_struct(RoleData)268_storage)": {
        "encoding": "mapping",
        "key": "t_bytes32",
        "label": "mapping(bytes32 => struct AccessControlUpgradeable.RoleData)",
        "numberOfBytes": "32",
        "value": "t_struct(RoleData)268_storage"
      },
      "t_mapping(t_bytes32,t_uint256)": {
        "encoding": "mapping",
        "key": "t_bytes32",
        "label": "mapping(bytes32 => uint256)",
        "numberOfBytes": "32",
        "value": "t_uint256"
      },
      "t_mapping(t_uint256,t_address)": {
        "encoding": "mapping",
        "key": "t_uint256",
        "label": "mapping(uint256 => address)",
        "numberOfBytes": "32",
        "value": "t_address"
      },
      "t_mapping(t_uint256,t_struct(RoyaltyInfo)1237_storage)": {
        "encoding": "mapping",
        "key": "t_uint256",
        "label": "mapping(uint256 => struct ERC2981Upgradeable.RoyaltyInfo)",
        "numberOfBytes": "32",
        "value": "t_struct(RoyaltyInfo)1237_storage"
      },
      "t_mapping(t_uint256,t_struct(TokenOwnership)11851_storage)": {
        "encoding": "mapping",
        "key": "t_uint256",
        "label": "mapping(uint256 => struct ERC721AUpgradeable.TokenOwnership)",
        "numberOfBytes": "32",
        "value": "t_struct(TokenOwnership)11851_storage"
      },
      "t_string_storage": {
        "encoding": "bytes",
        "label": "string",
        "numberOfBytes": "32"
      },
      "t_struct(AddressData)11860_storage": {
        "encoding": "inplace",
        "label": "struct ERC721AUpgradeable.AddressData",
        "members": [
          {
            "astId": 11853,
            "contract": "contracts/Launchpeg.sol:Launchpeg",
            "label": "balance",
            "offset": 0,
            "slot": "0",
            "type": "t_uint64"
          },
          {
            "astId": 11855,
            "contract": "contracts/Launchpeg.sol:Launchpeg",
            "label": "numberMinted",
            "offset": 8,
            "slot": "0",
            "type": "t_uint64"
          },
          {
            "astId": 11857,
            "contract": "contracts/Launchpeg.sol:Launchpeg",
            "label": "numberBurned",
            "offset": 16,
            "slot": "0",
            "type": "t_uint64"
          },
          {
            "astId": 11859,
            "contract": "contracts/Launchpeg.sol:Launchpeg",
            "label": "aux",
            "offset": 24,
            "slot": "0",
            "type": "t_uint64"
          }
        ],
        "numberOfBytes": "32"
      },
      "t_struct(AddressSet)2282_storage": {
        "encoding": "inplace",
        "label": "struct EnumerableSetUpgradeable.AddressSet",
        "members": [
          {
            "astId": 2281,
            "contract": "contracts/Launchpeg.sol:Launchpeg",
            "label": "_inner",
            "offset": 0,
            "slot": "0",
            "type": "t_struct(Set)1981_storage"
          }
        ],
        "numberOfBytes": "64"
      },
      "t_struct(PreMintData)3386_storage": {
        "encoding": "inplace",
        "label": "struct BaseLaunchpeg.PreMintData",
        "members": [
          {
            "astId": 3383,
            "contract": "contracts/Launchpeg.sol:Launchpeg",
            "label": "sender",
            "offset": 0,
            "slot": "0",
            "type": "t_address"
          },
          {
            "astId": 3385,
            "contract": "contracts/Launchpeg.sol:Launchpeg",
            "label": "quantity",
            "offset": 0,
            "slot": "1",
            "type": "t_uint256"
          }
        ],
        "numberOfBytes": "64"
      },
      "t_struct(RoleData)268_storage": {
        "encoding": "inplace",
        "label": "struct AccessControlUpgradeable.RoleData",
        "members": [
          {
            "astId": 265,
            "contract": "contracts/Launchpeg.sol:Launchpeg",
            "label": "members",
            "offset": 0,
            "slot": "0",
            "type": "t_mapping(t_address,t_bool)"
          },
          {
            "astId": 267,
            "contract": "contracts/Launchpeg.sol:Launchpeg",
            "label": "adminRole",
            "offset": 0,
            "slot": "1",
            "type": "t_bytes32"
          }
        ],
        "numberOfBytes": "64"
      },
      "t_struct(RoyaltyInfo)1237_storage": {
        "encoding": "inplace",
        "label": "struct ERC2981Upgradeable.RoyaltyInfo",
        "members": [
          {
            "astId": 1234,
            "contract": "contracts/Launchpeg.sol:Launchpeg",
            "label": "receiver",
            "offset": 0,
            "slot": "0",
            "type": "t_address"
          },
          {
            "astId": 1236,
            "contract": "contracts/Launchpeg.sol:Launchpeg",
            "label": "royaltyFraction",
            "offset": 20,
            "slot": "0",
            "type": "t_uint96"
          }
        ],
        "numberOfBytes": "32"
      },
      "t_struct(Set)1981_storage": {
        "encoding": "inplace",
        "label": "struct EnumerableSetUpgradeable.Set",
        "members": [
          {
            "astId": 1976,
            "contract": "contracts/Launchpeg.sol:Launchpeg",
            "label": "_values",
            "offset": 0,
            "slot": "0",
            "type": "t_array(t_bytes32)dyn_storage"
          },
          {
            "astId": 1980,
            "contract": "contracts/Launchpeg.sol:Launchpeg",
            "label": "_indexes",
            "offset": 0,
            "slot": "1",
            "type": "t_mapping(t_bytes32,t_uint256)"
          }
        ],
        "numberOfBytes": "64"
      },
      "t_struct(TokenOwnership)11851_storage": {
        "encoding": "inplace",
        "label": "struct ERC721AUpgradeable.TokenOwnership",
        "members": [
          {
            "astId": 11846,
            "contract": "contracts/Launchpeg.sol:Launchpeg",
            "label": "addr",
            "offset": 0,
            "slot": "0",
            "type": "t_address"
          },
          {
            "astId": 11848,
            "contract": "contracts/Launchpeg.sol:Launchpeg",
            "label": "startTimestamp",
            "offset": 20,
            "slot": "0",
            "type": "t_uint64"
          },
          {
            "astId": 11850,
            "contract": "contracts/Launchpeg.sol:Launchpeg",
            "label": "burned",
            "offset": 28,
            "slot": "0",
            "type": "t_bool"
          }
        ],
        "numberOfBytes": "32"
      },
      "t_uint256": {
        "encoding": "inplace",
        "label": "uint256",
        "numberOfBytes": "32"
      },
      "t_uint64": {
        "encoding": "inplace",
        "label": "uint64",
        "numberOfBytes": "8"
      },
      "t_uint96": {
        "encoding": "inplace",
        "label": "uint96",
        "numberOfBytes": "12"
      }
    }
  }
}